:100000000C946B030C94B2030C94B2030C94B203E3
:100010000C94B2030C94B2030C94B2030C94B2038C
:100020000C94B2030C94B2030C94A4280C94602892
:100030000C94A1290C94B2030C94B2030C94B20357
:100040000C94B2030C94B2030C94B2030C94B2035C
:100050000C94B2030C947D290C94B2030C94B2035B
:100060000C94B2030C94B2030C94B2030C94B2033C
:100070000C94B2030C94B2030C94B2030C94B2032C
:100080000C94B2030C94B2030C94B2030C94B2031C
:100090000C94B2030C94B2030C94B2030C94B2030C
:1000A0000C94B2030C94B2030C94B2030501090240
:1000B000A10185020901A1000509190129081500FE
:1000C0002501950875018102050109300931158165
:1000D000257F95027508810609381581257F9501D0
:1000E00075088106050C0A38021581257F95017572
:1000F000088106C0C005010980A101850319012AF4
:10010000B700150126B700950175108100C0050CD8
:100110000901A101850419012AA002150126A002E6
:10012000950175108100C005010906A1018506052C
:100130000719E029E71500250195087501810205D9
:1001400007190029EF1500250195F07501810205B9
:10015000081901290595057501910295017503910D
:1001600001C00660FF0961A1010962150026FF00B8
:100170009520750881020963150026FF00952075FA
:10018000089102C005010906A101050719E029E748
:1001900015002501950875018102950175088101F9
:1001A0000507190029FF150026FF0095067508812F
:1001B000000508190129059505750191029501753C
:1001C000039101C0000000000000000000000000DA
:1001D000000000000000000000000000000000001F
:1001E00000000000000000007E0F00D4FFFFFFC7EA
:1001F0000000007800000000000000002A2B28000A
:1002000000000000000000000000000000000029C5
:10021000000000002C1E3420212224342627252E05
:10022000362D3738271E1F2021222324252633333D
:10023000362E37381F0405060708090A0B0C0D0E69
:100240000F101112131415161718191A1B1C1D2F35
:100250003130232D350405060708090A0B0C0D0E55
:100260000F101112131415161718191A1B1C1D2F15
:100270003130354C0001010101010101010102028F
:100280000202020202020203030303030303030444
:10029000040404040404050505050506060606060F
:1002A000070707070708080808090909090A0A0AC9
:1002B0000B0B0B0C0C0C0D0D0D0E0E0E0F0F0F106B
:1002C00010111111121213131414151516161717F5
:1002D000181819191A1A1B1B1C1D1D1E1E1F202061
:1002E000212222232424252626272829292A2B2CAB
:1002F0002D2D2E2F30313232333435363738393ACE
:100300003B3C3D3E3F404142434445464748494AC5
:100310004C4D4E4F50515354555658595A5B5D5E93
:100320005F616264656668696B6C6D6F707273752E
:1003300077787A7B7D7E8082838587888A8C8E8F92
:1003400091939596989A9C9EA0A2A3A5A7A9ABADC0
:10035000AFB1B3B5B7BABCBEC0C2C4C6C9CBCDCFAE
:10036000D1D4D6D8DBDDDFE2E4E7E9EBEEF0F3F55C
:10037000F8FAFDFF290000003A003B003C003D0078
:100380003E003F0040004100420043004400450061
:10039000C25C35001E001F00200021002200230047
:1003A00024002500260027002D002E002A004C00E6
:1003B0002B0014001A000800150017001C0018007C
:1003C0000C00120013002F00300031004B003900E8
:1003D00004001600070009000A000B000D000E00C3
:1003E0000F0033003400000028004E00E100000040
:1003F0001D001B000600190005001100100036004A
:1004000037003800E50052004D00E000E300E20054
:10041000A900AA0000002C00000000000000E60077
:100420000151500051004F00010000000100010087
:1004300001000100010001000100010001000100B4
:1004400072007300010001000100010001000100C1
:100450000100010001000100010001000100010094
:100460000100C55CC25C0100010001000100010047
:100470000100010001000100010001000100010074
:10048000C65C010001000100010001000100010043
:100490000100010001000100010000000100C75C33
:1004A0000100000001000100010001000100010045
:1004B00001000100010001000100C95CC85C0100ED
:1004C0000100010001000100000001000000000027
:1004D0000000C35C0100CC5CCA5CCB5C0100000086
:1004E0000100010001000100010001000100010004
:1004F00001000100010001000100010001000100F4
:1005000001000100010001000100010001000100E3
:1005100001000100010001000100010001000100D3
:1005200001000100010001000100010001000100C3
:1005300001000100010001000100010001000100B3
:1005400001000100010001000100010001000000A4
:100550000100010001000000010001000100010094
:100560000100010001000100010001000100010083
:100570000100010001000100010001000000010074
:100580000000000000000100010001000100010066
:100590000100000001000100010001000100010054
:1005A0000100010001000100010001000100010043
:1005B0000100010001000100010001000100010033
:1005C0000100010001000100010001000100010023
:1005D0000100010001000100010001000100010013
:1005E0000100010001000100010001000100010003
:1005F00001000100010001000100010001000100F3
:1006000001000000010001000100000001000100E4
:1006100001000100010001000100010001000100D2
:1006200001000100010001000100010001000100C2
:1006300000000100000000000000010001000100B6
:100640000100010009025B00030100A0FA09040097
:1006500000010301010009211101000122400007EE
:1006600005810308000209040100020300000009DB
:100670002111010001222200070582032000010749
:100680000503032000010904020001030000000922
:10069000211101000122B600070584032000021287
:1006A00001000200000008A17B01750200010200A8
:1006B000010A034D00570037003500000012034DBA
:1006C000005700530074007500640069006F00005B
:1006D00000040309040011241FBECFEFDAE0DEBFDF
:1006E000CDBF04B603FE27C0809116069091170671
:1006F000A0911806B09119068730904BA740B04BD7
:10070000D1F4109216061092170610921806109245
:10071000190614BE84B7877F84BF0FB6F894A895D6
:1007200080916000886180936000109260000FBE2D
:10073000E0E0F8E3099526E0A8E1B3E001C01D92EE
:10074000A631B207E1F713E0A0E0B1E0E2EEF1E696
:1007500002C005900D92A831B107D9F70E94C829AF
:100760000C948E300C94000090911006937061F000
:1007700081110BC094609093100610921801809123
:100780000F06816080930F0608958A3210F0946AF4
:10079000F2CF880F880F982BEECF909110069370B0
:1007A00071F08093110660931206493C08F048EC02
:1007B0004093130680910F06816080930F06089581
:1007C000E8EDF0E080818E7F80831092E20010924D
:1007D000DA001092E100A0EEB0E08C9181608C9381
:1007E00080818F77808319BCA7EDB0E08C918E7FDC
:1007F0008C9380818F7E80831092AF050895209125
:10080000E4003091E50095E6A9012091EC00822FEB
:10081000817020FF06C08091E80080FF06C080E064
:1008200008952091E80022FD1AC08091D405882304
:1008300089F0853089F08091EB0085FD0FC0209113
:10084000E4003091E50042175307F9F29150E1F6C8
:1008500084E0089582E0089583E0089581E008959A
:10086000EF92FF920F931F93CF937C018B010E9415
:10087000FF03C82F811117C08091E80085FD0BC0D0
:100880008091E8008E778093E8000E94FF03882320
:1008900099F3C82F08C0F70181917F018093F1007F
:1008A0000150110949F78C2FCF911F910F91FF90A3
:1008B000EF9008958091D60587FF13C08091E800DE
:1008C00082FF06C08091E8008B778093E80004C027
:1008D0008091D4058111F2CF08958091D4058823A9
:1008E000D9F38091E80080FFF8CF8091E8008E77FF
:1008F000ECCF982F9093E900242F762F50E08917A2
:1009000031F07091EC002091ED005091F00021FD4C
:1009100007C09F5F973071F78093E90081E00895E9
:100920003091EB003E7F3093EB003091ED003D7F46
:100930003093ED003091EB0031603093EB00709319
:10094000EC002093ED005093F0002091EE0027FD85
:10095000E0CF80E00895CF92DF92EF92FF920F9365
:100960001F93CF93DF93C8EDD0E088818F7E88837B
:10097000E7EDF0E080818160808384E082BF81E0E8
:100980008093AF0588818E7F888302EE10E0F801A6
:1009900010821092DA0081EEC82ED12CF60110825E
:1009A00088818F77888388818068888388818F7D1C
:1009B000888319BC1092D4051092D5051092D305E6
:1009C0001092D20590EEE92EF12CF70180818B7FF9
:1009D000808388818160888342E060E080E00E94BB
:1009E0007904F60180818E7F8083F80180818160A7
:1009F0008083808188608083F70180818E7F8083FF
:100A0000888180618883DF91CF911F910F91FF9042
:100A1000EF90DF90CF900895FC018091DC059091DC
:100A2000DD0586179707A0F06115710529F49091EF
:100A3000E8009E779093E80090E06115710551F40D
:100A4000911108C08091E80082FF34C080E00895D1
:100A5000BC01F2CF8091D4058823C1F18530C1F16A
:100A60008091E80083FD30C08091E80082FDEACFEC
:100A70008091E80080FFE1CF8091F3002091F200A7
:100A8000382F6115710519F02830310558F091E0C3
:100A90002830310509F090E02091E8002E7720936E
:100AA000E800CBCF81918093F100615071092F5FF5
:100AB0003F4FE7CF8091D405882341F0853041F046
:100AC0008091E80083FFBECF81E0089582E0089521
:100AD00083E0089508958091B10508959C014FB772
:100AE000F8948091A6059091A705A091A805B091D2
:100AF000A9054FBF821B930B08952FB7F8946091FF
:100B0000A6057091A7058091A8059091A9052FBF12
:100B100008952FB7F8948091A6059091A705A0910C
:100B2000A805B091A9052FBF089520911401222393
:100B3000C9F02091AA0527FF15C0E62FE695E69596
:100B4000E695EE31D8F4E80FF92FF11D677021E03A
:100B500030E001C0220F6A95EAF7209582812823B0
:100B600022830895FC01329608962191621303C0F6
:100B7000DF0111971C92E817F907B9F70895209142
:100B800014012223C1F02091AA0527FF14C0E62FEB
:100B9000E695E695E695EE31F8F4E80FF92FF11DAC
:100BA000677021E030E001C0220F6A95EAF7828188
:100BB000822B82830895FC0132962FEF30E0419121
:100BC000641751F02F3F19F4411101C0232F3F5FEB
:100BD0003630A9F72F3F09F40895820F911D27FDA4
:100BE0009A95FC01628308952091A3053091A40594
:100BF0002817390771F09093A4058093A305E0911D
:100C0000A105F091A205309721F00084F185E02D37
:100C10000994089520919F053091A0052817390760
:100C200071F09093A00580939F05E091A105F0914C
:100C3000A205309721F00680F781E02D09940895F0
:100C4000E091A105F091A205309721F00190F0818B
:100C5000E02D099480E00895FA01811101C0FB01A3
:100C60000994EAE6F4E0818360834283339695E059
:100C7000EF39F907C1F70895FC01EE0FFF1FE80FE8
:100C8000F91FE659FB4F6183408322830895E0E119
:100C9000F6E0248130E1231B08F420E024838091D6
:100CA0000F06816080930F060895E0E1F6E024814D
:100CB00030E1230F08F42FEF248380910F06816029
:100CC00080930F060895E0E1F6E0438120E1421BA6
:100CD00008F440E08181628190E00C94CD03E0E172
:100CE000F6E0438120E1420F08F44FEF81816281F9
:100CF00090E00C94CD03E0E1F6E0628120E1621B1C
:100D000008F460E08181438190E00C94CD03E0E140
:100D1000F6E0628120E1620F08F46FEF8181438188
:100D200090E00C94CD03E0E1F6E0818143816281A3
:100D30008850990B0C94CD03E0E1F6E0818190E0BE
:100D40004381628108960C94CD03809110068695AC
:100D50008695815009F489E20C94B40380911006C1
:100D6000869586958F5F8A3208F081E00C94B403F3
:100D7000EF92FF920F939701201B31092F3F31050E
:100D800019F010F02FEF30E02095382F320F08F4D3
:100D90003FEF832F0F91FF90EF900895EF92FF9216
:100DA0000F939701201B31092F3F310519F010F0E7
:100DB0002FEF30E0322F3095482F430F08F44FEFDC
:100DC000842F620F0F91FF90EF900895EF92FF92A2
:100DD0000F93972F093438F4B701601B71096F3FE7
:100DE000710519F010F06FEF70E0485F5F4F41310F
:100DF000510540F0A901485F5F4F4131510510F0A6
:100E00006FEF70E06095482F460F08F44FEF842F86
:100E100037FF02C02D5F3F4F3595279535952795B4
:100E200060911106620F792F0F91FF90EF90089556
:100E3000EF92FF920F931F930E0D1F2D111DF901BD
:100E400037FF03C0F195E195F10924E0EE0FFF1F94
:100E50002A95E1F7EF3FF10519F014F0EFEFF0E01C
:100E60009A0157FF03C031952195310994E0220F73
:100E7000331F9A95E1F72E173F070CF4F901E00FA5
:100E8000F11FEF3FF10519F010F0EFEFF0E0E09502
:100E9000282F3E2F230F08F42FEF822F1F910F9141
:100EA000FF90EF900895EF92FF920F93970195E0D6
:100EB000099F200D311D11242F3F310519F010F02D
:100EC0002FEF30E02095382F320F08F43FEF832FBB
:100ED0000F91FF90EF90089522E8241B08F420E082
:100EE000620F08954095282F429F412D1124842F91
:100EF0000895E42FF0E0EE0FFF1FED51FE4F9081BB
:100F0000921B97FD9195292F38E1239F212D1124C4
:100F1000620F08950F931F9310E0F801EE0FFF1F6B
:100F2000ED51FE4F9081905797FD9195000F111F45
:100F3000F801EC51FE4F00810052110B2003F0012B
:100F4000219FF00D112408E310E0091B110997FD02
:100F5000139540039001419F300D1124E20FF31FC0
:100F60009F01220F331F2E0F3F1F37FF02C0215852
:100F70003F4F220F232F221F330B620F1F910F9120
:100F800008950F931F93522F10E0F801EE0FFF1FEB
:100F9000EC51FE4FA081A052BB0B9D015203F0010A
:100FA000539FF00D1124000F111FD801AD51BE4FFA
:100FB0000C910057110B40039001419F300D1124FB
:100FC0002E0F3F1F37FF02C0215C3F4F96E0359543
:100FD00027959A95E1F7620F1F910F9108950F934E
:100FE0001F93522F10E0F801EE0FFF1FEC51FE4F40
:100FF000A081A052BB0B9D015203F001539FF00D45
:101000001124000F111FD801AD51BE4F0C91005794
:10101000110B40039001419F300D11242E0F3F1FF3
:1010200037FF02C021583F4F220F232F221F330BBF
:10103000620F1F910F910895EF920F93972F23E066
:10104000029FB0011124759567956E0D792F0F9150
:10105000EF900895322F50E0FA01EE0FFF1FEC5190
:10106000FE4F9081905297FD9195440F551FFA01C4
:10107000ED51FE4F2081231B330B290F311D97FDAE
:101080003A95620F0895E42FF0E0EE0FFF1FEC5148
:10109000FE4F6081621B0895E42FF0E0EE0FFF1F0A
:1010A000ED51FE4F6081621B0895622F0895E42F79
:1010B000F0E0EE0FFF1FED51FE4F408134EE439FF5
:1010C000412D1124E82FF0E050E0445E5F4FDA013B
:1010D000A21BB1099D01B7FF03C0319521953109CC
:1010E00093E0220F331F9A95E1F7AF01421B530B98
:1010F0009A0157FD20E0582F259F212D1124822F82
:101100000895E42FF0E0EE0FFF1FED51FE4F4081F8
:1011100034EE439F412D1124E72FF0E050E0445E70
:101120005F4FDA01A21BB1099D01B7FF03C03195E2
:101130002195310993E0220F331F9A95E1F7AF0112
:10114000421B530B9A0157FD20E0279F212D1124AC
:10115000722F08950C9431060C943C06FC019B01FF
:10116000009729F480E077FF2BC080E80895AC0158
:1011700097FF04C044275527481B590BB901640F3A
:10118000751F37FD10C0241B350BC901A5E0880F62
:10119000991FAA95E1F70E94402F80E2861BF7FF76
:1011A0000FC081950895CB0165E0880F991F6A955E
:1011B000E1F7BA01621B730B0E94402F80E6EECF6D
:1011C0000895EF920F93CF93DF93D72FC82FC901C4
:1011D0000E19BA010E94AE08602F681B7D2F8C2F5C
:1011E000DF91CF910F91EF9008950F93CF93DF93FD
:1011F000D72FC82FC901BA010E94AE08682F600F0F
:101200007D2F8C2FDF91CF910F910895EF920F9347
:101210001F93CF93DF93D62FC72F182FC9010E1915
:10122000010FBA010E94AE08081B202F219F212D1B
:101230001124822F6D2F7C2FDF91CF911F910F9161
:10124000EF900895EF920F931F93CF93DF93D62FD4
:10125000172FC82FC9010E19070FBA010E94AE0837
:10126000702F781B719F712D11246D2F8C2FDF91A2
:10127000CF911F910F91EF9008950F931F93CF93EC
:10128000DF93D62FC72F182FC901212F201B022F24
:10129000BA010E94AE08982F990F990F891B800FF1
:1012A000282F219F212D1124822F6D2F7C2FDF913C
:1012B000CF911F910F9108950F931F93CF93DF93B9
:1012C000D62F172FC82FC901272F201B022FBA0195
:1012D0000E94AE08982F990F990F782F791B700FE5
:1012E000719F712D11246D2F8C2FDF91CF911F9144
:1012F0000F910895E82F86FDE0952E2F2F7086FD23
:101300002F5FE695E695E695E670F0E0EE58FE4F25
:101310009181929F902D212D112492959F7022955D
:10132000207F922B2081920F87FD919580E8890F75
:1013300008950F931F93CF93DF938B01D82FC42F62
:10134000822F0E947A09EC2FF0E0EE0FFF1FED5183
:10135000FE4F90819058890F87FD8195880F682FE7
:101360002CE0629F612D1124600F712F8D2FDF9172
:10137000CF911F910F91089540911001509111014B
:1013800025E038E0429FC001439F900D529F900D91
:101390001124875E994C9093110180931001890F5D
:1013A0000895AC018230910508F408959FEF413E05
:1013B0008EE1580740F49A0195E0369527959A9565
:1013C000E1F798E0920F61E0E62FE90FFF27FF1F9A
:1013D0009F0135952795822F229FF001239FF00DC5
:1013E000F00D11244E175F0738F49FEF920F9617F8
:1013F00058F78FEF860F08952F3FE9F361E0620FF2
:10140000F6CF0F93CF93DF93D72FC82F47FD41958A
:1014100088E390E0841B910947FD9395889FB00174
:10142000899F700D700D1124229FC001239F900D84
:10143000900D1124860F971F0E94D109982F990FA4
:10144000890F682F600F7D2F8C2FDF91CF910F9127
:10145000089530E020E0869F212D969F200D311DBC
:101460001124C9010895AF92BF92CF92DF92FF92EB
:101470000F931F93CF93DF93362F472FE82FF0E082
:10148000EC58FD4F71110FC0E4918E2F2E2F6E2F4F
:10149000722FDF91CF911F910F91FF90DF90CF902E
:1014A000BF90AF900895C72FD0E02491F22E022F65
:1014B00010E056E0659FC0011124EFEFF0E0BF019E
:1014C0000E942C2F832F90E0880F991F35E5369FBF
:1014D000D001379FB00D11248A1B9B0B982F990FB9
:1014E000980F6F01CC1ADD0AC09ED001C19EB00DCD
:1014F000D09EB00D11248B2F499FA0011124452FA0
:1015000055276F01C41AD50AC09EA001C19E500D77
:10151000D09E500D11245F01A91AB108AC9E600144
:10152000AD9ED00CBC9ED00C1124CD2CDD24EC192A
:10153000FD09E09FE001E19FD00DF09FD00D112447
:10154000ED2F62307105A1F050F46115710509F4B9
:101550009ECF6130710581F0EB2F852F98CF6430DD
:10156000710569F080F06630710509F490CFF4CF11
:10157000E22F2B2F8D2F8BCFE22F252F88CFEB2F14
:10158000822F2D2F84CF2B2F8F2DE52F80CF2F92C1
:101590003F925F926F927F928F929F92AF92BF9293
:1015A000CF92DF92EF92FF920F931F93CF93DF932F
:1015B000CDB7DEB72A970FB6F894DEBF0FBECDBF0A
:1015C0008B837E836D832091150185E1289F802D7B
:1015D00011248F838B5E89838A83883610F037E6E7
:1015E0003A838091E2058C83FF81EF2FF0E0FA8748
:1015F000E987CF01880F991F9C012D513E4F69014A
:101600003B81832F90E0FC013196F887EF838A813C
:1016100099859817E8F081E0E981E73608F080E0E5
:101620002A960FB6F894DEBF0FBECDBFDF91CF91E3
:101630001F910F91FF90EF90DF90CF90BF90AF90F0
:101640009F908F907F906F905F903F902F90089524
:10165000E985FA85EF54FD4F808190911601892329
:10166000F1F020901106309012062F8138852E510E
:101670003A4F39015B8010E0FC815F16D0F0209179
:101680001306129F112D1124B101812F0E94330ADC
:10169000462F282F672F89859A850E94AC082985B7
:1016A0003A852F5F3F4F3A87298732E0C30ED11C1E
:1016B000AECFF30181913F01F601A080A81ABB08CB
:1016C0008180F3018781881A9908AA9C9001AB9CBC
:1016D000300D300D1124889CC001899C900D900D17
:1016E0001124820F931F0E94D109082F60911406C4
:1016F00021E0620F08F46FEFF301EE0FFF1FE25ECF
:10170000F540858996890E94290A7C019401A501EA
:10171000B101812FED81FE8109951B015394182F92
:10172000ABCFCF92DF92EF92FF920F931F93CF93A5
:10173000DF938C01C091150185E1C89FC02D112454
:1017400025E1D22EDC0ECD2C27E62D1510F497E6E0
:10175000C92E2091140631E0230F08F42FEF30E05A
:1017600050E040E06FEF7FEF80E090E00E942B3090
:101770007901D0E02C2FCC1570F081E0F6E6FD1554
:1017800008F480E0DF91CF911F910F91FF90EF90CF
:10179000DF90CF900895FE01EF54FD4F808190912E
:1017A0001601892311F14091E2054150042E000CED
:1017B000550B47FF1CC0C7016091140621E0620F62
:1017C00008F46FEF0E94290AAC0160911106709134
:1017D000120680911306F80109950E94330A462FDC
:1017E000282F672FCE010E94AC082196C3CFFA01A3
:1017F000EE51FA4F818982130AC0FA01EE0FFF1FE2
:10180000EE51FA4F818D928D8E159F05A8F24150B1
:101810005109CFCFDF92EF92FF920F931F93CF9397
:10182000DF937C01C091150185E1C89FC02D112473
:1018300015E11C0F012F183608F007E66091140619
:101840006695669521E0620F08F46FEF8091DE05E2
:101850009091DF050E94290AD82ED0E0C01760F0D1
:1018600081E0173608F080E0DF91CF911F910F9152
:10187000FF90EF90DF900895FE01EF54FD4F8081BF
:1018800090911601892391F06091110670911206D2
:10189000809113062D2D4C2FF70109950E94330AD4
:1018A000462F282F672FCE010E94AC082196D6CF55
:1018B0009F92AF92BF92CF92DF92EF92FF920F93DF
:1018C0001F93CF93DF936C01C091150185E1C89FF1
:1018D000C02D112415E11C0FB12E183610F037E67B
:1018E000B32E60911406669566958091DE05909101
:1018F000DF050E94290AF82E80E48F0D0E947A09E4
:1019000090E8A92EA80E8F2D0E947A0920E8922E29
:10191000980ED0E0CB1580F081E0173608F080E01B
:10192000DF91CF911F910F91FF90EF90DF90CF90BB
:10193000BF90AF909F900895FE01EF54FD4F8081BE
:10194000909116018923A1F0609111067091120601
:1019500080911306EF2C0C2F292D4A2DF6010995A5
:101960000E94330A462F282F672FCE010E94AC0811
:101970002196D0CF7F928F929F92AF92BF92CF92BB
:10198000DF92EF92FF920F931F93CF93DF935C014F
:10199000C091150185E1C89FC02D112415E11C0FD0
:1019A000F12E183610F037E6F32E60911406669586
:1019B0008091DE059091DF050E94290A782ED0E003
:1019C000CF1590F081E0173608F080E0DF91CF91DD
:1019D0001F910F91FF90EF90DF90CF90BF90AF904D
:1019E0009F908F907F900895FE01EF54FD4F80816E
:1019F000909116018923C9F1CE01880F991F87574D
:101A00009E4FFC01E65AFF4F2081422F4057550B55
:101A10006A01855A9F4FFC018081282F2052330B89
:101A20004901449F9001459F300D300D1124889C41
:101A3000C001899C900D900D1124820F931F0E946C
:101A4000D109082F6091110670911206809113063A
:101A5000E72C9401A601F50109950E94330A462F4F
:101A6000282F672FCE010E94AC082196A9CFCF92D4
:101A7000DF92EF92FF920F931F93CF93DF937C013E
:101A8000C091150185E1C89FC02D112415E11C0FDF
:101A9000D12E183610F037E6D32E609114066695D5
:101AA0008091DE059091DF050E94290AC82ED0E0C2
:101AB000CD1568F081E0173608F080E0DF91CF9116
:101AC0001F910F91FF90EF90DF90CF900895FE014E
:101AD000EF54FD4F808190911601892311F1CE01C1
:101AE000880F991F87579E4FFC01E55AFF4F2081B1
:101AF0002052330B865A9F4FFC0140814057550BB3
:101B00006091110670911206809113060C2DF70159
:101B100009950E94330A462F282F672FCE010E9475
:101B2000AC082196C5CF0E9489059C019091D303F2
:101B30008091D403982B21F03093D0032093CF03CE
:101B40009091D5038091D603982B21F03093CE034A
:101B50002093CD03E091A105F091A205309749F0C3
:101B600082E08093D1030480F581E02D81ED93E044
:101B7000099408954091D303803F59F48091D40390
:101B800087FF0DC01092D40341110BC01092CB03FC
:101B900008C0813F81F48091D40318169CF344233C
:101BA00081F08091D5039091D603892B09F05AC01A
:101BB0001092CA030895823F49F447FFF0CF109274
:101BC000D3038091D4038111ECCFE0CF833F19F48C
:101BD0001416ACF3E4CF9091D503893F29F419167C
:101BE000F4F61092D503DBCF8A3F19F497FFD7CFD5
:101BF000F8CF9091D6038B3F29F497FFD0CF109266
:101C0000D603CDCF8C3F19F41916CCF3C8CF9CE086
:101C1000980F953090F4845F990B21E030E0B90182
:101C200002C0660F771F8A95E2F7CB0180959091ED
:101C3000D20389238093D203B2CF8D3F31F48091B8
:101C4000CC038E7F8093CC03AACF8E3F21F480916A
:101C5000CC038D7FF7CF8F3F09F0A1CF8091CC03CC
:101C60008B7FF0CF08958091CC0380FD16C081FD5D
:101C700016C082FD16C08091CA038823A1F0883265
:101C800080F428E0829FC001112468E270E00E9485
:101C9000402F862F672B39F0089582E0089584E065
:101CA000089588E0089581E008958091CC0380FD37
:101CB00014C081FD14C082FD16C08091CB0388231F
:101CC00081F0843180F422E3829FC001112464E119
:101CD00070E00E94402F862F08958CE0089589E1DE
:101CE000089585E0089582E30895803F31F40E94CD
:101CF000550E81958093D4030895813F19F40E9475
:101D0000550EF8CF823F31F40E94550E8195809395
:101D1000D3030895833F19F40E94550EF8CF893FED
:101D200029F40E94330E8093D50308958A3F21F44D
:101D30000E94330E8195F7CF8B3F31F40E94330E12
:101D400081958093D60308958C3F19F40E94330E39
:101D5000F8CF9CE0980F953070F4845F990B21E0E8
:101D600030E001C0220F8A95EAF78091D203822BDE
:101D70008093D20308958D3F31F48091CC0381602C
:101D80008093CC0308958E3F21F48091CC03826030
:101D9000F7CF8F3FB9F78091CC038460F1CF80E01B
:101DA0000895F894E82FE295EF70F0E031A1282F24
:101DB0002F7081E090E001C0880F2A95EAF7982FF4
:101DC0009095932391A392A1892B82A3789408954F
:101DD0009091AA0592FF06C0282F28712830F9F4A7
:101DE000877F846093FF06C0282F28712831F1F483
:101DF000877E84612091AB0520FF06C0382F3871A3
:101E00003830D9F4877F816021FF06C0282F2871E0
:101E10002831D1F4877E816194FD877E0895282F33
:101E200024712430F9F68B7F8860DCCF282F247151
:101E3000243101F78B7E8861DDCF382F317131304D
:101E400019F78E7F8860E0CF282F2171213121F78B
:101E50008E7E8861E1CFCF93DF93EC0182389105CC
:101E6000A9F1D8F58133910509F496C048F5893276
:101E7000910509F48AC08A9709F495C0C11521E536
:101E8000D20708F0BCC0C11530E5D30708F014C173
:101E9000C83ED10508F09CC0C03ED10560F5C83AE7
:101EA000D10508F087C0C53AD10508F0FDC0C130A2
:101EB000D10509F12097F9F0C430D105E0F440C014
:101EC0008533910509F45AC0C997C1F68091AA05D6
:101ED000837089F0C0EED0E00EC0833E910599F189
:101EE00070F4803E910501F1823E910539F68091B2
:101EF000AA0582FD21C0CE01DF91CF910895863ED3
:101F0000910561F1873E910571F1843E910509F0DB
:101F1000B5CF8091AB0581FFEECF8091AA05C7EECA
:101F2000D0E084FD0DC0E7CF8091AA0580FD12C1ED
:101F30009091AB0590FFDFCFC3EED0E084FFDBCF05
:101F4000D0E0C0E0D8CF8091AA0582FD06C1909173
:101F5000AB0590FDBFCF84FFCECFF2CF8091AA0515
:101F600083FDDDCFC8CF8091AA0583FDF9C0909194
:101F7000AB0591FFF0CFC4EED0E0BDCF8091AA05B4
:101F800085FFB9CFC9E2D0E0B6CF8091AA0585FF21
:101F9000B2CFC5E3D0E0AFCF8091AA0586FFABCF2B
:101FA000CAE2D0E0A8CF8091AA0586FFA4CFC1E302
:101FB000D0E0A1CFCF3BD10518F6C85AD0E0CC0F66
:101FC000DD1FC15EDE4F0990D881C02DD46493CF50
:101FD000C11540E2D40758F4C11581E0D80708F0D4
:101FE0008ACFC03FD10508F4ABCFD06584CFC115EF
:101FF00090E4D90708F4A4CFDF70D06A7CCFC11574
:1020000025E5D20700F5C11534E5D30708F08AC0ED
:10201000C11543E5D40708F071C0C11582E5D807A2
:1020200008F467C0CE018370992721E030E002C038
:10203000220F331F8A95E2F7C695C69580E2C89FA6
:10204000E001112452C0C11599E5D907A8F4C115C2
:1020500028E5D20708F06BC0C11536E5D30708F0B4
:102060006FCF8C2F0E94E80EC82FD0E0DC2FCC273A
:10207000CC27DF71D0623FCFC1154AE5D40708F401
:102080005BC0CE0190568115904208F059CF8D2F3C
:102090008F710E94E80E90E0982F882788279F7103
:1020A0009C012C2BE901E6CFC55AD0E0C45EDE4F7F
:1020B000C881D0E0D0641FCFCE01E4E0969587952B
:1020C000EA95E1F783702C2F26952695237040E240
:1020D000249F90011124382B8C2F8370C1E0D0E015
:1020E00002C0CC0FDD1F8A95E2F7C22BD32BDC6830
:1020F00002CFDC2FCC27C16FD06AFDCECE0183701A
:10210000992721E030E002C0220F331F8A95E2F7C1
:10211000C695C69590E2C99FE0011124C22BD32B2E
:10212000DA68E9CEDC2FCC27C46FD06AE4CEDC2F8E
:10213000CC27C06FD06ADFCE8C2F8F700E94E80E44
:1021400034E0D695C7953A95E1F7CF709C2FEC0116
:10215000D069D1CEC9E3D0E0CECEC2EED0E0CBCEB6
:10216000C6EED0E0C8CE80919B03811110929B03F4
:102170000895809590919A03982390939A030895D7
:1021800080919A0390919903892B90919803892BC0
:1021900080931A0390919B039923A1F0892B80933C
:1021A0001A0380911401882341F18091AA0587FFC9
:1021B00024C08EE1ECE1F3E090E0815000F5911154
:1021C0000E94B310E091A105F091A2053097E1F0D3
:1021D00080911401882359F08091AA0587FF07C0D8
:1021E00080911A0380931B0386E080931A03028078
:1021F000F381E02D8AE193E0099486E0DBCF219121
:102200002223D9F29F5FD9CF0895809196039091B0
:102210006503981301C008958F5F8770FACF2FE090
:10222000929F800D1124982F97708695869586959C
:1022300023E0829FF0011124E55CFC4F50E040E078
:1022400080E0219130E0092E02C0369527950A944E
:10225000E2F721703327042E01C0220F0A94EAF717
:10226000822B4F5F5F4F4330510559F708952FE0A0
:10227000929F800D1124982F977041E001C0440F68
:102280009A95EAF786958695869593E0899FF00161
:102290001124E55CFC4F90E080E070E05191DF019B
:1022A00011979B01082E02C0369527950A94E2F7F4
:1022B000217021952527242325272C9301968330EF
:1022C000910561F7089590E080E00E940A0690E091
:1022D00080E00E94F40510929903109298030E94E6
:1022E000C01086E0E1EDF3E0DF011D928A95E9F789
:1022F0001092CB031092CA031092CC030C94930D4E
:1023000080930B060C94631180910B06982F9670A6
:10231000963019F488600C948011877FFCCF21E0FF
:1023200030E001C0220F8A95EAF7209580910B06D4
:1023300082230C9480119091970380958923809338
:102340009703282F277091F4282F082E000C330BA9
:102350009217130659F09091AB0592FD07C0859531
:10236000859585950E948F1110929703089521E01D
:1023700030E001C0220F8A95EAF780910B06822B8C
:102380000C94801180939C030C946311882321F09A
:102390000E94B9100C94C0100895882339F09091D0
:1023A0009A03982B90939A030C94C0100895882355
:1023B00079F19CEF980F913A38F4682F8AE193E015
:1023C0000E9495050C94C01090E2980F983050F43C
:1023D000877091E001C0990F8A95EAF7892F0E94D2
:1023E000B910F0CF9BE5980F933020F490E080E097
:1023F0000C940A0698E5980F973120F490E080E05D
:102400000C94F405803F20F00E94BA0D0C94930DBB
:102410000895CF93C82F882309F46FC08CEF8C0FD9
:10242000813AC0F580911401882311F18091AA05A9
:1024300087FF1EC0EC2FE695E695E695F0E0E65E98
:10244000FC4F828190E04C2F477021E030E002C0C9
:10245000220F331F4A95E2F782239323892B91F0B1
:102460006C2F8AE193E00E9495050E94C0100AC07B
:10247000ECE1F3E082E293E02191C21789F38E1739
:102480009F07D1F76C2F8AE193E00E94BF05CF919F
:102490000C94C01080E28C0F883068F4C77021E083
:1024A00030E001C0220FCA95EAF780919A03822B8F
:1024B00080939A03ECCFEBE5EC0FE33040F4F0E0CF
:1024C000E45EFE4F808190E0CF910C940A06E8E52F
:1024D000EC0FE73150F4F0E0EE0FFF1FE15EFE4F2E
:1024E00080819181CF910C94F405C03F30F08C2F06
:1024F0000E94750ECF910C94930DCF910895809307
:10250000AC057093AE056093AD058091D405843021
:10251000F9F48093E9008FEF9091E800815095FDE8
:1025200006C095ED9A95F1F700008111F5CF8091E5
:10253000E80085FF0DC050E040E063E070E08CEA09
:1025400095E00E9430048091E8008E778093E80047
:102550000895BC0184E00C947F12BC0183E00C94CC
:102560007F129C0184E08093E9009FEF8091E80056
:10257000915085FD06C085ED8A95F1F70000911117
:10258000F5CF8091E80085FF0CC050E040E066E0A8
:1025900070E0C9010E9430048091E8008E7780933A
:1025A000E8000895CF93DF93EC0180911401882314
:1025B000B1F18091AA0587FF32C060E284E0809388
:1025C000E9008FEF9091E800815095FD06C095EDF0
:1025D0009A95F1F700008111F5CF8091E80085FF11
:1025E0001BC08091140170E050E040E0811104C0F4
:1025F00050E040E068E070E0CE010E94300480913D
:10260000E8008E778093E80080E2FE01A2EBB5E05F
:1026100001900D928A95E1F7DF91CF91089568E0DE
:1026200081E0CDCF81E08093E00080E28093D8000C
:102630001092C9008FE19EE40197F1F700C00000FD
:1026400087E090EBDC018093160690931706A09329
:102650001806B093190688E19CE00FB6F894A89587
:10266000809360000FBE90936000FFCF239A35B136
:10267000377F25B128604FB7F8948AE694E0FC01D3
:102680005191CF0168E025B9000000C057FF35B96E
:10269000550F000000C000C000C035B900C06A95E9
:1026A00091F7F5E08F399F0751F74FBF8FE594E021
:1026B0000197F1F700C0000008951F93CF93DF93B7
:1026C000182FD0E0C0E0893311F4C0E5D0E0812FAD
:1026D0000E940912209731F4812FDF91CF911F9131
:1026E0000C94D7118FE99FE00197F1F700C000002B
:1026F0002197F0CF0F931F93CF93DF93C62FD42F43
:10270000022FFC0182818823A1F060930E060E94B3
:10271000890590930D0680930C06C77081E001C077
:10272000880FCA95EAF7DF91CF911F910F910C9412
:10273000CD1180910E06681335C080910C069091E2
:102740000D060E946E05883C910560F510E21D0F94
:10275000CD17B9F080E28C0F883040F4C77081E06B
:1027600001C0880FCA95EAF70E94C611183048F4D4
:1027700081E09D2F977001C0880F9A95EAF70E941B
:10278000CD11802F0E945D13183098F4D77081E02E
:1027900001C0880FDA95EAF7DF91CF911F910F9171
:1027A0000C94C611C77081E001C0880FCA95EAF782
:1027B000F3CFDF91CF911F910F910895CF93DF93C6
:1027C000C7EFD2E060E0CE010E9407302196C1152C
:1027D00084E0D807B9F7DF91CF9108956F927F9287
:1027E0008F929F92AF92BF92CF92DF92EF92FF9221
:1027F0000F931F93CF93DF9384E7C82E83E0D82EE7
:1028000099EFE92EF12CE701C45BD10936011BC019
:10281000F50185909490692DC8010E940730682DBC
:10282000C80101960E94073082E0A80EB11C0E5F1D
:102830001F4FC017D10761F78EE1680E711C6E96AD
:10284000CE15DF0529F08E010E5111095301E0CF9D
:102850007E0184EBE80EF11C84EBC80ED11C89ECE0
:10286000E81683E0F80679F6DF91CF911F910F917A
:10287000FF90EF90DF90CF90BF90AF909F908F90A0
:102880007F906F900895CF93C82F6FEF811162E210
:1028900083E290E00E9407306FEFC11163E084E2B1
:1028A00090E00E9407306FEFC11164E085E290E094
:1028B000CF910C94073080E00E94431460E086E2E0
:1028C00090E00E9407300E94EE130E94DE1381E028
:1028D0000C944314CF93C92F682F84E090E00E949A
:1028E00007306C2F82E290E0CF910C9407309091EA
:1028F000AB0592FB222720F9281769F080FB92F99B
:102900009093AB058091AA059091AB050E946A1443
:1029100082E00C949B1108950F931F93CF93DF9344
:10292000C42FD0E0CC0FDD1F2EE1629FC00DD11D62
:10293000112434EB839FC00DD11D1124CE01879645
:102940000E94E32F082F10E0102F0027CE01889659
:102950000E94E32F9801282BC901DF91CF911F918D
:102960000F910895462F843038F4763028F46F3074
:1029700018F4672F0C948C1490E080E00895CF92A7
:10298000DF92FF920F931F93CF93DF936C0100911F
:102990000B0680919C03082BC7E0D0E010E0FC2ED2
:1029A000C8010C2E02C0959587950A94E2F780FD28
:1029B0000CC02197A0F7F12C8F2DDF91CF911F91A3
:1029C0000F91FF90DF90CF900895B6018C2F0E9459
:1029D000B2140E942B0F019761F3EECFCF93DF93D8
:1029E000EC010E94BF14BE010E94B214DF91CF918E
:1029F0000C942B0FFC01808191810E94EE14292FF1
:102A00002F7092959F7092509E3078F4E92FF0E0ED
:102A1000E057FF4C0C94542F803F19F020F4883E6F
:102A200020F481E00895843FE1F380E00895883E3A
:102A3000C0F3813FD1F7F5CF822F86958695869595
:102A4000089583E290E00E94E32F823289F484E2C9
:102A500090E00E94E32F833059F485E290E00E94D9
:102A6000E32F91E0843009F090E0892F8170089580
:102A700080E0FCCFCF9384E090E00E94E32FC82F4A
:102A800082E290E00E94E32F982F8C2FCF9108953F
:102A90001F93CF93DF93EC01FC01EF54FD4F808136
:102AA0006823C9F00E94AD2F182F0E94AD2F8F7799
:102AB000782F20E8720F08F47FEF612F80911306C2
:102AC0000E94330A462F282F672FCE01DF91CF9126
:102AD0001F910C94AC08DF91CF911F910895DF9264
:102AE000EF92FF920F931F93CF93DF938C01FC0122
:102AF000EF54FD4F8081682381F1D0901206D09170
:102B00001306C0911106EC2EF12C0E94AD2F282F38
:102B1000C7018C549F4F68E671E00E94402F8E19C8
:102B20009F0997FD039695958795959587952370B1
:102B30006C2F289F600D11247D2D8D2F0E94330A4C
:102B4000462F282F672FC801DF91CF911F910F913A
:102B5000FF90EF90DF900C94AC08DF91CF911F9124
:102B60000F91FF90EF90DF9008954F925F926F92D8
:102B70007F928F929F92AF92BF92CF92DF92EF920D
:102B8000FF920F931F93CF93DF93C0900004D090D8
:102B90000104E0900204F09003048FB7F894409091
:102BA000A6055090A7056090A8057090A9058FBF55
:102BB000530142018C189D08AE08BF080E947D0594
:102BC00060930004709301048093020490930304C3
:102BD000A091D703E7EDF3E02A2F30E04FEFC40ECA
:102BE000D41EE11CF11CC418D508E608F708A3138D
:102BF00028C02093D70330911006132F137019F0BB
:102C0000132F1695169520911801213009F443C011
:102C1000222351F1223009F496C4233009F49DC4D3
:102C2000DF91CF911F910F91FF90EF90DF90CF90A8
:102C3000BF90AF909F908F907F906F905F904F90DC
:102C40000895418D528D2A01712C612CC414D50434
:102C5000E604F70420F421503F5F3296C8CF480DB8
:102C6000591D528F418FF8CF109215016093DE05E8
:102C70007093DF058093E0059093E10589E2E7ED2D
:102C8000F3E0A2EEB5E001900D928A95E1F781E0C4
:102C900080931801C5CF9091130181E019130BC0E7
:102CA000832F83702091120130E091E08217130688
:102CB00009F490E0892F81708093170180911506A7
:102CC00090911601981739F08093160140E060E06A
:102CD00080E00E94AA081A3250F4E12FF0E0E25698
:102CE000FF4C0C94542F80911701811102C0C0E059
:102CF00097C140E060E080E00E94AA08F8CFC09150
:102D0000150185E1C89FC02D112405E10C0FF02E9F
:102D1000083610F067E6F62E6091110670911206E3
:102D2000809113060E94330AE62ED72EC82ED0E0DB
:102D3000CF1528F0C1E0073608F472C1D8CFFE01E4
:102D4000EF54FD4F808190911601892331F02C2D95
:102D50004E2D6D2DCE010E94AC082196E9CFC09179
:102D6000150185E1C89FC02D112405E10C0FF02E3F
:102D7000083610F057E6F52ED0901206E0901306B4
:102D8000D09111066D2F7D2D8E2D0E94330AC62EF7
:102D9000B72EA82E609114066D0F7D2D8E2D0E94EA
:102DA000330AE62ED72E982ED0E0CF1518F6FE0166
:102DB000EF54FD4F908180911601892359F0292D00
:102DC0004E2D6D2D90FD03C02A2D4C2D6B2DCE0167
:102DD0000E94AC082196E9CFC091150185E1C89FFA
:102DE000C02D112405E10C0FE02E083610F047E647
:102DF000E42ED0901206C09013062091140630E401
:102E0000F32E3F2D329F312D1124F32ED0E0CE151D
:102E100008F090CFFE01EF54FD4F80819091160194
:102E20008923B9F0FE01EE0FFF1FEC51FE4F8081A8
:102E300082958F70609111068F9D600D11247D2DFC
:102E40008C2D0E94330A462F282F672FCE010E9417
:102E5000AC082196DCCFC091150185E1C89FC02D3B
:102E6000112405E10C0FE02E083610F087E6E82E5D
:102E7000D0901206C090130620911406D0E4FD2EC7
:102E80003F2D329F312D1124F32ED0E0CE1508F0C6
:102E900051CFFE01EF54FD4F80819091160189239F
:102EA000D9F0FE01EE0FFF1FED51FE4F6081F69E3F
:102EB000B0011124B5E075956795BA95E1F7809159
:102EC0001106680F7D2D8C2D0E94330A462F282F66
:102ED000672FCE010E94AC082196D8CFC091150172
:102EE00085E1C89FC02D112405E10C0FF02E083696
:102EF00010F077E6F72EE0901106D0911206D090F0
:102F00001306609114066695669566958091DE05B8
:102F10009091DF050E94290A0E947A09805887FD56
:102F20008195880F282F3D2D239F212D1124822F3D
:102F30006E2D7D2F0E94330AE62ED72EC82ED0E0AC
:102F4000CF1508F0F7CEFE01EF54FD4F8081909130
:102F50001601892331F02C2D4E2D6D2DCE010E94AE
:102F6000AC082196EDCF81E898E00E940A0C07C0DA
:102F700087E598E0FACF8CE599E00E94370DC82FDD
:102F80004FC08DE399E0F9CF82E299E00E94BA0C3C
:102F9000F6CF86E099E0FACF85E598E0E6CF8CE4BD
:102FA00098E0E3CF83E498E0E0CF8AE298E0DDCFD9
:102FB0008CE198E0EBCF81E09AE0DFCF85EF98E0FD
:102FC000DCCF81EE98E0E2CF8FEE97E00E94580CC4
:102FD000D6CF81EC97E0FACF8AE897E0F7CFC0919F
:102FE0001701C1115CC06091140620E1620F08F462
:102FF0006FEF8091DE059091DF050E94290A6AE05B
:1030000070E00E942C2F892B09F071CE0E94AD2F09
:1030100067E670E00E94402F609116010E946F15D4
:10302000809115018F5F80931501C11164C292E0F8
:10303000909318019091170191115DC2112309F429
:103040008AC2C5E18C9FC02D11249BEEC92ECC0EE7
:10305000FC2EC83610F087E6F82E8091660480FDBD
:103060004EC20E94200681FD62C28091660481FFEB
:10307000D7CDC5E5D0E0D12C0F2D10E0CC15DD0566
:1030800048F00C171D0730F020E040E060E0CE0172
:103090000E94AC082196C736D10581F7C1CDC091F9
:1030A000150185E1C89FC02D112405E10C0F802F6B
:1030B000083608F087E6D0E0E82EF12CCE15DF05C3
:1030C0000CF038CE60911601CE010E946F1521964A
:1030D000F5CFC0911701C1111EC06091140620E107
:1030E000620F08F46FEF8091DE059091DF050E947A
:1030F000290A65E070E00E942C2F892B09F0F7CD9A
:103100000E94AD2F67E670E00E94402F609116018B
:103110000E94481585CFC091150185E1C89FC02D3B
:10312000112405E10C0F802F083608F087E6D0E067
:10313000E82EF12CCE15DF050CF0FCCD60911601C8
:10314000CE010E9448152196F5CFC091150185E169
:10315000C89FC02D112405E10C0FF02E083610F089
:1031600067E6F62ED0901206E0901306D091110675
:10317000609114066695669566958091DE0590913E
:10318000DF050E94290A0E947A09805887FD8195EF
:10319000880F682F2CE0629F612D11246D0F7D2D0B
:1031A0008E2D0E94330AE62ED72EC82ED0E0CF15E2
:1031B00008F0C0CDFE01EF54FD4F808190911601C3
:1031C000892331F02C2D4E2D6D2DCE010E94AC089F
:1031D0002196EDCF89E999E0C8CE89E797E0C5CE81
:1031E0004091040450910504609106047091070415
:1031F0008091DE059091DF05A091E005B091E10599
:1032000084179507A607B70708F471CD0E94BC097B
:10321000082F0E94BC0997E6891BF0F7890FC82F79
:10322000D0E0FE01EF54FD4F80911601908189237B
:1032300009F45FC120E040E060E001FD13C00E949E
:10324000BC09082F0E94BC09782F76952FE7720FD2
:1032500008F47FEF602F809113060E94330A462FF7
:10326000282F672FCE010E94AC082091140630E170
:10327000230F08F42FEF60E1822F90E00E94290ACB
:10328000BC0184EF91E00E942C2F8091DE0590918B
:10329000DF05A091E005B091E105860F971FA11D04
:1032A000B11D8093040490930504A0930604B09389
:1032B00007041DCD40916204509163046091640441
:1032C000709165048091DE059091DF05A091E00585
:1032D000B091E10584179507A607B70708F407CD55
:1032E0006091110670911206809113060E94330AB4
:1032F000062F772E682EC8E0D4E049E8A42E41E0DE
:10330000B42E5EE0E52EF12C67014EE0C41AD10820
:1033100026E0522EF601E85FFB4F4F01F601E7571A
:10332000FE4F808190E0F4012081222309F480C0C7
:10333000262D402F672D0E94AC08F40181818083E7
:103340005A94FFEFCF1ADF0A5110E4CF670137E03C
:10335000532E9601285F3B4F4901F601E757FE4F78
:10336000808190E0F9012081222309F465C0262D97
:10337000402F672D0E94AC08F40131978081F40141
:1033800080835A94F1E0CF1AD1085110E2CFF501B1
:10339000878190E02F81222309F452C0262D402FEF
:1033A000672D0E94AC08F501868190E02E812223D2
:1033B00009F44AC0262D402F672D0E94AC080E94B8
:1033C000BC09837091E009F090E09E839F832F9663
:1033D000FFE0AF0EB11C2FE0E20EF11C38E6E31661
:1033E000F10409F091CF2091140630E1230F08F485
:1033F0002FEF60E1822F90E00E94290ABC0188EB48
:103400009BE00E942C2F8091DE059091DF05A0911A
:10341000E005B091E105860F971FA11DB11D8093B6
:10342000620490936304A0936404B09365045FCC3A
:1034300020E040E060E07FCF20E040E060E09ACF15
:1034400020E040E060E0ADCF20E040E060E0B5CFBC
:1034500082E797E00E94910B92CD8CE697E0FACF3D
:103460008091E20521E0382F321B08F430E0832FF1
:1034700063E577E00E94C70A82CD63E577E080E0EC
:10348000F9CF8091E20521E0482F421B08F440E08B
:10349000842F68E177E0EECF68E177E0F0CF8091AC
:1034A000E20521E0382F321B08F430E0832F66EE6E
:1034B00076E0E0CF66EE76E0E2CF8091E20521E0B3
:1034C000482F421B08F440E0842F6EEC76E0D2CF08
:1034D0006EEC76E0D4CF8091E20521E0382F321BEC
:1034E00008F430E0832F68EB76E0C4CF68EB76E039
:1034F000C6CFC1E095CD112309F492CBA2CD10E047
:1035000000E0AC2CB12C8F2C912C0A151B0548F037
:103510008016910630F020E040E060E0C8010E9493
:10352000AC080F5F1F4F0535110579F79ACDC852CA
:10353000C63108F09ACD2FEF4FEF60E088E290E0BF
:103540000E94AC0892CD10931301832F8370809357
:1035500012010E94361383E09BCB80910F068823D3
:1035600051F046E050E06CE170E080E196E00E94AE
:10357000F72F10920F064091DE055091DF05609104
:10358000E0057091E1052FB7F8948091A605909120
:10359000A705A091A805B091A9052FBF841B950B85
:1035A000A60BB70B4097A105B10508F439CB1092D3
:1035B000180136CBE0E1F6E085E3808380911901C4
:1035C00090911A01A0911B0181839283A3838FE7BD
:1035D00084838FEF858346E050E06CE170E0CF019B
:1035E0000E94F72F10920F06089510929A0380916F
:1035F0001401ECE1F3E0882359F08091AA0587FFDC
:1036000007C08EE1DF011D928A95E9F70C946311E2
:1036100086E0F8CF1F93CF93DF93CDB7DEB7AA979D
:103620000FB6F894DEBF0FBECDBF86ED95E02091BA
:10363000F100DC012D93CD01B5E08E3D9B07B9F77C
:103640008091D705833009F472C0B8F4813009F451
:1036500049C0823009F4B3C08091E80083FF8BC277
:103660008091D6059091D7059A3008F084C2E92F51
:10367000F0E0E853FF4C0C94542F8A3009F48EC0CC
:103680008B3009F471C0893039F78091D6058132C9
:1036900019F78091DA059091DB05009711F00297F8
:1036A000D9F68091E800877F8093E8008091E80058
:1036B00082FF38C09091F3008091F200029731F4BC
:1036C0008091F100813011F0863021F48091F10079
:1036D0008093B1058091E8008B778093E8000E9489
:1036E0005A04BACF8091D605813A09F0B5CF8091BE
:1036F000E800877F8093E8008091DA059091DB05F0
:10370000892B61F460E282EB95E070E00E940C0589
:103710008091E8008B778093E8009ECF60E090E096
:1037200080E0F3CF8091D4058111C0CF95CF8091F7
:10373000D605813A09F090CF8091DA059091DB05AA
:10374000892B09F089CF8091E800877F8093E8007A
:103750008091E80080FFFCCF809114018093F100FC
:103760008091E8008E77B9CF8091D605813209F03B
:1037700073CF8091DA059091DB05892B09F06CCF2E
:103780008091E800877F8093E8000E945A0480912E
:10379000D805809314010E94F51A5ECF8091D6055A
:1037A000813209F059CF8091E800877F8093E8004B
:1037B0000E945A048091D9058093B0054DCF809125
:1037C000D605813A09F048CF8091E800877F809341
:1037D000E8008091E80080FFFCCF8091B005BECF6B
:1037E000803899F0823809F0C6C18091DA058F706F
:1037F000873008F0C0C18093E9008091EB0085FB21
:10380000882780F91092E90006C08091D205909136
:10381000D305911182609091E800977F9093E80022
:103820008093F1001092F1008091E8008E779FC1A3
:10383000882309F48DC1823009F09DC18091D8059B
:10384000811190C18091DA058F702FEF280F2630FB
:1038500008F091C18093E9002091EB0020FF82C124
:10386000933031F48091EB0080628093EB007AC159
:103870009091EB0090619093EB0021E030E001C06B
:10388000220F8A95EAF72093EA001092EA008091CD
:10389000EB008860EACF81116EC11091D8051F77C7
:1038A0008091E3008078812B8093E3008091E80091
:1038B000877F8093E8000E945A048091E80080FF8F
:1038C000FCCF8091E30080688093E30082E01111D7
:1038D00083E08093D4054FC18058823008F04BC1FB
:1038E0002091D8053091D9052C3DE3E03E07A1F5A4
:1038F00083E08A838AE289834FB7F894DE011396C6
:1039000020E03EE051E2E32FF0E050935700E491D5
:1039100020FF03C0E295EF703F5FEF708E2F90E0C5
:10392000EA30C0F0C7968D939D932F5F243159F7ED
:103930004FBF8091E800877F8093E8006AE270E0E3
:10394000CE0101960E940C058091E8008B77809350
:10395000E80011C1C096E7CF8091DA059091DB05B0
:10396000432F55274330510509F44AC078F54130BB
:10397000510509F47AC08BE590E0E4E4F6E04230CA
:10398000510509F0F8C02091E800277F2093E80056
:103990002091DC053091DD058217930708F49C0126
:1039A00040E02115310509F065C0411163C08091E7
:1039B000E80082FDC9CF8091D405882329F28530A3
:1039C00019F28091E80083FFF2CFBECF413251055A
:1039D00009F43CC04232510509F0CDC08330910555
:1039E00008F0C9C0FC01EE0FFF1FE358FE4F019025
:1039F000F081E02D86589E4FDC018C9190E01AC03A
:103A0000332721303105D1F02115310561F0223005
:103A1000310509F0B0C0E1EBF6E0E4918E2F90E0C3
:103A2000E1EBF6E007C0E1EDF6E0E4918E2F90E0E7
:103A3000E1EDF6E0009709F49EC0A5CFEDEBF6E0CE
:103A4000E4918E2F90E0EDEBF6E0F4CF833091051A
:103A500008F091C0880F991FFC01ED57FE4F0190AF
:103A6000F081E02D89E090E08ECF82E190E0EFE9F7
:103A7000F6E089CF8091D405882309F465CF85309D
:103A800009F462CF8091E80083FD5ECF8091E80069
:103A900082FD8DCF8091E80080FF83CF9091F3006D
:103AA0008091F2002115310519F08830910550F010
:103AB00041E0089709F040E08091E8008E7780931C
:103AC000E8006FCF44914093F100319621503109C5
:103AD0000196E8CF803809F04EC08091E800877FDA
:103AE0008093E8008091D5058093F1009DCE8111EF
:103AF00042C01091D8051230F0F58091E800877F20
:103B00008093E8001093D5050E945A04112311F008
:103B100084E005C08091E30087FDFACF81E08093C7
:103B2000D40542E061EC81E00E94790442E261EC5C
:103B300084E00E94790442E261EC82E00E94790410
:103B400042E260EC83E00E9479048091D40513C0C6
:103B50008091D805813079F481E0933009F080E0DC
:103B60008093D3051092E9008091E800877F8093CD
:103B7000E8000E945A048091E80083FF0AC0809107
:103B8000E800877F8093E8008091EB00806280935B
:103B9000EB00AA960FB6F894DEBF0FBECDBFDF9143
:103BA000CF911F91089590E080E00E94F12F893E0F
:103BB0009E4F11F40C94211580E0089569EE7EEF7C
:103BC00090E080E00E94253060E082E090E00E947A
:103BD000073060E083E090E00E94073010929C0381
:103BE00060E084E090E00E94073060E082E290E0D4
:103BF0000E94073060E085E090E00E94073060E0BE
:103C000086E090E00E9407306FEF87E090E00E942E
:103C1000073040E050E0BA0188E090E00E9419309F
:103C200060E08DE090E00E94073040E050E0BA0193
:103C300088E190E00E94193060E087E190E00E9406
:103C4000073040E050E0BA018CE190E00E9419306A
:103C500070E060E080E290E00E94253040E050E0BB
:103C6000BA0188E190E00E94193080E00E9443147C
:103C70000E945B1440E050E0BA018FE090E00E94A7
:103C8000193040E050E0BA0183E190E00C94193023
:103C90003F924F925F926F927F928F929F92AF92DC
:103CA000BF92CF92DF92EF92FF920F931F93CF9329
:103CB000DF9300D000D00F92CDB7DEB78C01FC01AE
:103CC00083819481892B31F08081918189238F3F79
:103CD00009F0A3C50F900F900F900F900F90DF91F8
:103CE000CF911F910F91FF90EF90DF90CF90BF90F9
:103CF000AF909F908F907F906F905F904F903F908C
:103D000008950E94BF14F82E682F89819A810E941D
:103D1000371169817A818F2D0E94B2147C01F801DC
:103D20008281882309F46CC5970122513F452031D7
:103D3000310508F02EC58FEF93E00E94E32FFEEED1
:103D4000EF0E57EF852E52E0952E8823A1F180913A
:103D50009703877009F4BECFF8018281882309F4A4
:103D6000B9CF8091AB0582FDB5CF82E00F900F9067
:103D70000F900F900F90DF91CF911F910F91FF90B7
:103D8000EF90DF90CF90BF90AF909F908F907F90FB
:103D90006F905F904F903F900C949B11811424E0A2
:103DA0009206A9F2C4010E94E32F811101C0EA9496
:103DB0003FEF831A930AE110F1CF1C821B82442447
:103DC00043944AE0342E74018FEFE81AF80AC401D4
:103DD0000E94E32F89831A82882309F4B8CF9FEFCA
:103DE000980F933000F58A83498292E0890E911CE6
:103DF000C7010E94E32F8B83882309F4A8CFFE011B
:103E000031967F01F70120812223E9F2213009F068
:103E100049C091818281913041F4F2E0EF0EF11CB2
:103E20000E945D1309C04701EACF923049F422E0B5
:103E3000E20EF11C0E9409123FEFE31AF30AE2CFEF
:103E4000933031F432E0E30EF11C0E94D711F4CF2D
:103E5000943021F08FEFE81AF80AEECF92E0E90EE5
:103E6000F11C30E020E0B7016F5F7F4FF701418127
:103E70008053990B8A30910550F021503109E0F2BE
:103E80008FE99FE00197F1F700C00000F6CF329E66
:103E9000F001339EF00D11249C012E0F3F1F842F43
:103EA0007B01E1CFE22FF0E0EC50FE4F5490822FE7
:103EB00086958695869590E0FC01EC51FE4F6490C6
:103EC0002770712C022E02C0759467940A94E2F751
:103ED000E1E06E227724FC01EC52FE4FA490B12C5D
:103EE000022E02C0B594A7940A94E2F7F1E0AF2243
:103EF000BB24FC01EC53FE4FC490D12C02C0D594DE
:103F0000C7942A95E2F721E0C222DD2461147104EE
:103F100019F081EE0E940912A114B10419F086EE85
:103F20000E940912852D0E945D13AB2819F086EEC0
:103F30000E94D711672819F081EE0E94D711CD2871
:103F400009F47ACF8CE26CCF81E00E94B7110E9415
:103F50008411FDCE81E00E948F11F9CF82E0F5CF70
:103F6000882309F4F4CE90916604892F8E7F90FF08
:103F7000816080936604409166045091670460916B
:103F800068047091690483E190E00E941930DFCEEB
:103F9000882309F4DCCE90916604892F8D7F91FFF0
:103FA0008260E7CFF5EFEF16FCE5FF0609F463C08A
:103FB00008F45DC027E245EE66EE36EFE3163CE519
:103FC000F30609F419C4882309F438C410920E06C4
:103FD00083E0E8168DE5F80608F054C09AEFE9167C
:103FE0009CE5F90630F4C70182509C45449708F0DF
:103FF0004FC00E943A159093AB058093AA05F0E15B
:10400000EF16FCE5FF0609F421C108F090C038E086
:10401000E3163CE5F30609F403C108F060C094E040
:10402000E9169CE5F90609F4E9C008F049C0F2E098
:10403000EF16FCE5FF0609F4DBC08091AA0582605B
:1040400023E0E2162CE5F20609F4D5C08091AA051A
:104050009091AB050E946A140E94F51A78CE27E26F
:1040600045EE65EEC9C326E241EE60EEC5C327E228
:1040700045EE64EEC1C326E241EE62EEBDC328E226
:1040800041E0EFCFE1E6EE16EDE5FE0609F4B1CF33
:1040900080919A0336E1E3163CE5F30609F0DDC3AF
:1040A0008A7A91E009F490E090933A0369E28111F1
:1040B00065E38AE193E00E94BF050E94C01047CEED
:1040C0008091AA05806136E0E3163CE5F30609F429
:1040D00092C008F497C08091AA0580628CC080913C
:1040E000AA058D7F9CE0E9169CE5F90609F483C0DA
:1040F00078F48091AA058C60FAE0EF16FCE5FF06E3
:1041000009F479C008F490C08091AA058E7F73C02D
:104110008091AA05877F3EE0E3163CE5F30609F4AB
:104120006AC008F48BC08091AA058F7E64C09CEFA2
:10413000E9169CE5F90609F485C068F5F4E1EF1687
:10414000FCE5FF0609F49AC060F432E1E3163CE5B1
:10415000F30609F483C008F47DC08091AA05837F2B
:104160004AC09AEFE9169CE5F90609F44FC008F039
:1041700053C0F5E1EF16FCE5FF0609F067CF80912B
:10418000AA0582FB992790F921E0922790FB82F9FA
:1041900090FB83F930C0E1142DE5F20609F464C008
:1041A00090F48EEFE8168CE5F80609F443C0809190
:1041B000AB058D7F9FEFE9169CE5F90650F18091E4
:1041C000AB058C7F26C0E2E0EE16EDE5FE0609F4B5
:1041D00064C008F45CC021E6E2162DE5F20609F0A1
:1041E00035CF9091AA05892F8F7E94FF806103C0FF
:1041F0008091AA0581608093AA0528CF8091AA05A5
:104200008460F9CF8091AA058860F5CF8091AB05D5
:1042100081608093AB051ACF8091AB058260F9CFA6
:104220008091AA058064E7CF0E94F51A8091AA05C3
:104230008068E1CF8091AB058360EBCF8091AA05C8
:104240008B7FD9CF8091AB058E7FE3CF8091AA057C
:104250008F7DD1CF8091AA058F7BCDCF0E94F51A9B
:104260008091AA058F77C7CF8091AB05982F909545
:1042700091708E7F892B90FB81F9CBCF0E94F51A2C
:104280009091AA05892F97FB87F98058B4CF61E0F8
:104290008EE090E00E940730D9CE60E0F9CF8091A7
:1042A000100691E0892780931006109218018091E2
:1042B0000F06816080930F064ACD45EA56E06EEA0C
:1042C00076E00E942C0643CD4EEA56E065EA76E0A1
:1042D000F8CF43E956E06CE976E0F3CF4CE956E0DD
:1042E00063E976E0EECF4BE756E067E876E0E9CFAA
:1042F00047E856E06BE776E0E4CF4FE656E063E64A
:1043000076E0DFCF47E456E065E576E0DACF45E5D5
:1043100056E067E476E0D5CF81E00E94B40317CD84
:104320008DE0FBCF2BE5E2162DE5F20611F13CE521
:10433000E3163DE5F30609F0C2C28091AB0582FBAE
:10434000882780F991E089270E947714B8C20E94DB
:10435000F51A8FEF94E3ECE081509040E040E1F7F4
:1043600000C000000E9412130E94DE1DF0CC81E00C
:10437000EBCF80E0E9CFC7010E940F11D82EAEC26B
:104380002F2D2F70C22E8F2D807F19F0C29490EFA9
:10439000C922DD20B9F0CC2069F080E28E0D883092
:1043A00010F0811009C080919A03C82AC0929A0324
:1043B0000E94C0108E2D4DC080919903C82AC092D2
:1043C0009903F6CF8E2D0E94D711CC2009F443C05B
:1043D00080E28E0D883010F0811004C08C2D0E9478
:1043E000B91006C0C09480919903C822C092990365
:1043F0000E94C01030C03F2D3F70C32E8F2D807F94
:10440000803219F0C29480EFC822882089F081E0C0
:10441000881609F47FC0DD2009F489C0BB2009F4A7
:104420007FC0F801858180FFC5CF8F70858378C0FC
:104430002091AB0522FF4BC0DD2009F442C0CC2007
:1044400039F080919A03C82AC0929A030E94C01042
:1044500080E00E940912292D2850330B24303105A9
:1044600010F40E942006AA2009F434CC809197030E
:1044700080FD30CCF80112828595859585950E9446
:10448000B711C8010E94481E8091970385958595B4
:1044900085950F900F900F900F900F90DF91CF9117
:1044A0001F910F91FF90EF90DF90CF90BF90AF9052
:1044B0009F908F907F906F905F904F903F900C9463
:1044C0008F1180E00E94D711CC2029F287CFDD2008
:1044D000A1F090919B038C2D892BB11003C00E94F9
:1044E000CD11B9CFE1E0BE12FACF22FDB4CF8917CA
:1044F00009F4B1CF80939B03AECFB11006C00E94E8
:10450000B3108C2D0E94C611A6CFF1E0BF1609F49E
:10451000A2CFF5CFDD2031F025E02B1508F49BCF9D
:104520008C2DDDCF34E03B1508F495CFEACFBB20CE
:1045300041F3F9E38F1209C02FEF37EE83E02150EA
:1045400030408040E1F700C000008E2D0E94D7115E
:1045500082CF8F2D86958695837061F0813009F02A
:104560007ACFC7019370D11002C090E080E00E9422
:10457000F40571CFC7019370D11002C090E080E0C4
:104580000E940A0668CF8E2DDD2029F00E94750E4C
:104590000E94930D60CF0E94BA0DFACF8F2D8370C9
:1045A00091F5D11058CF4E2D429546954770440F46
:1045B000440F8E2D8F70042E01C0880F0A94EAF7E5
:1045C0002E2D2071E4FE07C02FE030E001C0220F45
:1045D0004A95EAF720953F2D36953695337032305F
:1045E00069F050F440919C03313029F0822B8423F0
:1045F0000E94C21130CF842B822BFACF282B8091BE
:104600009C038227F5CF8695DD2011F08F2D8170D8
:10461000882309F420CF4E2D429546954770440FCC
:10462000440F8E2D8F70042E01C0880F0A94EAF774
:104630002E2D2071E4FE07C02FE030E001C0220FD4
:104640004A95EAF720953F2D3695369533703230EE
:1046500069F050F440910B06313029F0822B84230D
:104660000E948011F8CE842B822BFACF282B8091C8
:104670000B068227F5CF9F2D9F70F92EDD2029F0A4
:10468000892F0E94B7118E2D2ACF8E2D0E94C61120
:104690008F2D0E948F11DFCE8E2DE2EF8E16B1F19D
:1046A000E81570F0F0EF8F16D1F021EF821691F03F
:1046B000DD2009F45EC0B1107DCE8F2D8F712AC030
:1046C00033EF831651F194EF8912F2CF8091AB054D
:1046D00082FF2FC08F2D8F71DD20D9F21BC0DD200E
:1046E00081F0E4E0EB1508F4B6CE2F2D2F7181E0B8
:1046F00090E001C0880F2A95EAF790910B06892770
:10470000AFCFF5E0FB1508F4A6CEEFCF8F2D8F715C
:10471000D110BFCF0E94B7119ECE80E0DD2009F4FA
:104720009FCF9F2D9F7181E001C0880F9A95EAF776
:1047300097CFDD2099F02F2D2F71F22E822F0E941E
:10474000B7118091AB0582FD07C038E0F39EC00130
:1047500011248360809397038F2DDCCF81E00E942A
:104760009B1181E08B1508F076CE82E00E949B11B0
:1047700072CEBB2059F0893309F0E7CE9FEFE7EE08
:10478000F3E09150E040F040E1F7DDCE8F2D8F71E6
:1047900080CFF0E1EF16FFE5FF0609F4D5CB21E16C
:1047A000E2162FE5F20609F4D9CB92E7E916F104F7
:1047B00009F4D6CBE3E7EE16F10409F4E9CBF3EF05
:1047C000EF16FCE5FF0609F44ECC08F0EBCB38ED14
:1047D000E3163CE5F30609F442CC99EDE9169CE5B5
:1047E000F90609F44CCCE7EDEE16ECE5FE0609F00F
:1047F000EACB26E241EE61EEC8010E947A13A7CA15
:1048000030E1E3163FE5F30609F4A4CB91E1E916A4
:104810009FE5F90651F682E09ECB85E0DE01119618
:1048200001900D928A95E1F7F801228189819A81A0
:10483000211167CA0E940F11F82E6BCAF6E1EF161C
:10484000FCE5FF06E1F580913A0369E2811165E339
:104850008AE193E00E94950530CC82722AECE21640
:104860002CE5F20609F449CD08F08AC095ECE9166A
:104870009CE5F90609F42DCD08F069C0F3ECEF16BC
:10488000FCE5FF0609F419CD08F01ECD32ECE31665
:104890003CE5F30609F403CD8AE5E8168DE5F80654
:1048A00009F465CD08F03ECDE114ECE5FE0609F40F
:1048B0004ECDFEEDEF16FCE5FF0609F455CDF801EF
:1048C0008281E080F180882309F455CDC7010E94E0
:1048D000BF14D82E682FC7010E943711B7018D2D44
:1048E0000E94B2140E942B0F7C01882EF801D28006
:1048F000B580B2943FE0B322809197038770C1F0F6
:10490000AD2CDD20B1F08F2D807F803421F080E24E
:104910008E0D883068F08091AB0582FD09C082E081
:104920000E949B11809197038770AA24A394811100
:10493000A12C9F2C92942FE09222FBE0F91508F411
:104940008ACDE92DF0E0EE52FF4C0C94542F97ECF9
:10495000E9169CE5F90609F4C6CC08F4BFCCF8ECDE
:10496000EF16FCE5FF0609F4C3CC43E656E06FE61C
:1049700076E029ECE2162CE5F20609F4A2CC8CCF05
:104980003FECE3163CE5F30609F4CACCB0F4ECECDA
:10499000EE16ECE5FE0609F4BACC08F4B3CC2DEC27
:1049A000E2162CE5F20609F4B7CC85E03EECE316FE
:1049B0003CE5F30609F4B1CC6FCF86EDE8168CE543
:1049C000F80640F482E191EDE9169CE5F90608F459
:1049D000A4CCBDC9EDE5EE16FE0609F4B8C95CCF5E
:1049E0001F93CF93DF9380916403807FA9F480911C
:1049F0006103882389F080919603D09165036091CB
:104A00005F0370916003A0916203B0916303C62FAE
:104A1000C72316E0D81304C0DF91CF911F910895EA
:104A200090E0109711F0CF3F19F401968770F2CF04
:104A3000189F9001199F300D1124F901EA59FC4F7C
:104A400041814713F2CF40814613EFCF428141119C
:104A5000ECCF438154814A1B5B0B483C510528F73E
:104A6000809164038F70806180936403F901E5593C
:104A7000FC4F80818F70806180838FE593E00E947E
:104A8000481EDF91CF911F910C940511AF92BF92F8
:104A9000CF92DF92EF92FF920F931F93CF93DF930A
:104AA000CDB7DEB761970FB6F894DEBF0FBECDBFAE
:104AB0008C0185E0F801DE011D9601900D928A952A
:104AC000E1F7F801E2808FE5A82E83E0B82E60912F
:104AD0006203709163036115710509F432C190910D
:104AE0005F0340916003892F84238F3F09F429C11C
:104AF00020813181C380D480F0906103F601E61BF0
:104B0000F70BFF2009F4E8C080916403582F507F11
:104B1000E83CF10508F0ABC0511177C0FE2C4313FF
:104B200021C092131FC0E1101DC08F70806180935F
:104B30006403C5010E94481E80916403F8018583C7
:104B40008F2D61960FB6F894DEBF0FBECDBFDF91FB
:104B5000CF911F910F91FF90EF90DF90CF90BF907A
:104B6000AF900895CD2829F0822F83238F3F09F03D
:104B700003C180E0F82FF170DF2E80FF3CC08091F0
:104B800096034091650356E0841315C02D873E8738
:104B90008D859E850E94EE14292F22952F7022303C
:104BA000F0F0243018F59F70F1F0F8019581907FB6
:104BB000D1F4D12C1EC090E0589FF001599FF00D08
:104BC0001124EA59FC4F6181361306C06081261317
:104BD00003C06281E6120FC001968770D5CF9F7027
:104BE00011F0882331F3805E883018F3C8010E94E9
:104BF000481EFD2CA5CFEE2009F4A2CF80916403BE
:104C0000816080936403F12C9BCF431306C0921301
:104C100004C0F801EE2009F479C0C8010E94FA141A
:104C2000882309F1EE20F9F080916403803270F05E
:104C300020915F033091600338872F831986DB86CC
:104C4000CA868C87CE0107960E94481E86E0F8012E
:104C5000AFE5B3E001900D928A95E1F70E94F02450
:104C6000FF24F3946DCFC8010E94481EF9CF511163
:104C70000AC08FE593E00E94481E86E0F50111927C
:104C80008A95E9F7C0CF43130FC092130DC0E1100E
:104C90000BC0F8018583C8010E94481E86E0F5011B
:104CA00011928A95E9F74CCFC8010E94FA14882323
:104CB000D1F2EE20C1F280916403803238F220916B
:104CC0005F03309160033A8329831B82DD82CC82AB
:104CD0008E83CE010196B8CFE83CF105F8F6FE2CA4
:104CE000EE2009F243131FC092131DC0809164038C
:104CF00080FD10C0982F907F69F0F8018583903F68
:104D000031F0982F907F905F8F70892B8583C80139
:104D10000E94481E86E0F801AFE5B3E001900D92D5
:104D20008A95E1F70DCFC8010E94FA1481118ECF48
:104D300080916403816080936403C8010E94481ECF
:104D4000FFCEEE2009F48FCFC8010E94FA14F82E8E
:104D5000882309F488CF86E0F801AFE5B3E001903D
:104D60000D928A95E1F780915F03909160030E9414
:104D7000EE140E94F024E4CE81E08E25FBCE1F933A
:104D8000CF93DF93CDB7DEB767970FB6F894DEBF4A
:104D90000FBECDBF4B8B5C8B6D8B7E8B8F8B611170
:104DA000109299031A8A198A85E0FE017396DE0132
:104DB0001D9601900D928A95E1F786E0FE013D96E1
:104DC000DE01179601900D928A95E1F7CE010796C4
:104DD0000E944625882389F016E0809196039091E1
:104DE0006503891349C067960FB6F894DEBF0FBEFE
:104DF000CDBFDF91CF911F91089586E0FE013796D8
:104E0000DE01119601900D928A95E1F78A859B85C6
:104E1000892B11F38F81988589238F3FE9F22091A7
:104E2000650330E0C9010196877099274091960388
:104E30004817190671F40E94F51A10926503109232
:104E4000960386E0EFE5F3E0DF011D928A95E9F72E
:104E5000C3CF96E0929FD001939FB00D1124AA5921
:104E6000BC4FFE01319601900D929A95E1F7809327
:104E700065030E940511B0CF819FC00111248A599A
:104E80009C4F0E944625882309F4ADCF809196035C
:104E900090E0019687709927809396039ECF6F923A
:104EA0007F928F929F92AF92BF92CF92DF92EF92BA
:104EB000FF920F931F93CF93DF93CDB7DEB7619728
:104EC0000FB6F894DEBF0FBECDBF8E010F5F1F4F30
:104ED0008CE0F80111928A95E9F79DE4E92E91E0C2
:104EE000F92E680166246394712C32E6832E31E03A
:104EF000932EF70181917F018F3F09F445C0F8940B
:104F0000E82FE295EF70F0E021A18F70A30102C0BD
:104F1000440F551F8A95E2F7CA01922F982B91A34F
:104F200092A18095892382A3789400C0E3E5F1E003
:104F300021E030E0B12CA12C41914F3F09F488C011
:104F4000A42FA295AF70B0E090968C9190E04F7036
:104F500002C0959587954A95E2F780FD79C0C90111
:104F6000A82AB92A220F331F8E169F0629F7F701A8
:104F7000319780818F3F11F00E94D10E50EA5A95EF
:104F8000F1F7F601B182A082F2E0CF0ED11C43E529
:104F9000E41641E0F40609F0ACCF4CE050E0B80173
:104FA00080EA93E00E94BD2FFF24F394009709F458
:104FB000F12C892B09F44FC08CE0F801A0EAB3E092
:104FC00001900D928A95E1F781E080939F030E9402
:104FD000890590939E0380939D0380919D039091FA
:104FE0009E030E946E050597D0F18091A0039091D9
:104FF000A1039093BF038093BE038091A20390917D
:10500000A3039093C1038093C0038091A403909164
:10501000A5039093C3038093C2038091A60390914C
:10502000A7039093C5038093C4038091A803909134
:10503000A9039093C7038093C6038091AA0390911C
:10504000AB039093C9038093C80310929F0307C0DA
:1050500090E080E085CF80919F038111BECF809149
:10506000AC038823A9F0869549F183E08D8785E01C
:105070008E871F860E9489058160782F998B888B87
:105080001092AC034D855E856F8589890E94BF268D
:105090008F2D61960FB6F894DEBF0FBECDBFDF91A6
:1050A000CF911F910F91FF90EF90DF90CF90BF9025
:1050B000AF909F908F907F906F90089584E0D6CFAF
:1050C0001F920F920FB60F9211242F933F934F937D
:1050D0005F936F937F938F939F93AF93BF93CF9380
:1050E000DF93EF93FF93D091E900DF708091EC00A4
:1050F000C82FC17080FDC0E81092E9008091F000D7
:10510000877F8093F00078940E940A1B1092E90038
:105110008091F00088608093F000CD2BCF70C09319
:10512000E900FF91EF91DF91CF91BF91AF919F91F6
:105130008F917F916F915F914F913F912F910F9040
:105140000FBE0F901F9018951F920F920FB60F92DF
:1051500011242F933F934F935F936F937F938F937C
:105160009F93AF93BF93EF93FF938091E10082FFF2
:1051700009C08091E20082FF05C08091E1008B7F31
:105180008093E1008091DA0080FF24C08091D800F4
:1051900080FF20C08091DA008E7F8093DA008091BA
:1051A000D90080FF9DC080E189BD82E189BD09B43D
:1051B00000FEFDCF81E08093D4058091AF05811181
:1051C00009C00E94E0030E94AB048091E200846069
:1051D0008093E2008091E10080FF17C08091E2009F
:1051E00080FF13C08091E2008E7F8093E200809167
:1051F000E20080618093E2008091D8008062809319
:10520000D80019BC85E08093D4058091E10084FF2B
:105210002BC08091E20084FF27C080E189BD82E13C
:1052200089BD89B5982F917080FFFBCF8091D80000
:105230008F7D8093D8008091E1008F7E8093E10084
:105240008091E2008F7E8093E2008091E200816095
:105250008093E2008091D505882309F447C084E05B
:105260008093D4058091D4058091E10083FF27C00D
:105270008091E20083FF23C08091E100877F8093CB
:10528000E10082E08093D4051092D5058091E10081
:105290008E7F8093E1008091E2008E7F8093E20018
:1052A0008091E20080618093E20042E060E080E073
:1052B0000E9479048091F00088608093F000FF9153
:1052C000EF91BF91AF919F918F917F916F915F917E
:1052D0004F913F912F910F900FBE0F901F901895F7
:1052E00019BC1092D4051092AF0574CF8091E300E1
:1052F00087FD93E09093D405B5CF78941F921FB6A5
:105300001F9211248F939F93AF93BF938091A60513
:105310009091A705A091A805B091A9050196A11D9E
:10532000B11D8093A6059093A705A093A805B093FF
:10533000A905BF91AF919F918F911F901FBE1F90A4
:1053400018951F921FB61F9211248F939F93AF93AE
:10535000BF938091A505811113C08091A6059091FE
:10536000A705A091A805B091A9054196A11DB11D61
:105370008093A6059093A705A093A805B093A905CF
:10538000BF91AF919F918F911F901FBE1F90189555
:10539000CDB7DEB7E5970FB6F894DEBF0FBECDBF31
:1053A00084B7877F84BF0FB6F894A895809160007A
:1053B000886180936000109260000FBE80E890E0EA
:1053C0000FB6F89480936100909361000FBE85B78B
:1053D000806885BF85B7806885BF8FEC9EE090931D
:1053E0001903809318030E94E0030E94AB0480918C
:1053F000E20084608093E20078948091D405882351
:10540000A1F01091E9001F709091EC00892F81703C
:1054100090FD80E8182B1092E9008091E80083FD50
:105420000E940A1B1F701093E90082E084BD93E084
:1054300095BD9AEF97BD80936E000E942115811152
:1054400002C00E945B140DE411E023E5E22E21E08E
:10545000F22ED8018D918D018F3F11F00E94D10E57
:10546000E016F106B1F703E511E092E6E92E91E0CE
:10547000F92EF80181918F018F3F11F00E94D10E1A
:10548000E016F106B1F78CE0EEEBF3E0DF01282F38
:105490001D922A95E9F7E0EAF3E0DF011D928A9573
:1054A000E9F70E94D31D811102C00E94DE1D82E037
:1054B00090E00E94E32F8093B1030E943A159093ED
:1054C000AB058093AA050E944F27EFE3FCE93197D3
:1054D000F1F700C000000E944F278091BE0380FFBB
:1054E00008C06FEF7FEF90E080E00E9425300E94BF
:1054F000121383E090E00E94E32F0E94C2111092E9
:10550000E2058FEF9FEF9093FC058093FB0590934E
:10551000FE058093FD05909300068093FF05909310
:1055200002068093010690930406809303069093ED
:1055300006068093050690930806809307069093CD
:105540000A06809309061092D7039093F103809383
:10555000F0039093F3038093F2039093F503809309
:10556000F4039093F7038093F6039093F9038093E9
:10557000F8039093FB038093FA039093FD038093C9
:10558000FC039093FF038093FE030E94D31D8111BF
:1055900004C00E94DE1D0E94DA1A46E050E06CE171
:1055A00070E080E196E00E94D32F10920F06809168
:1055B00010068C7F11F40E94DA1A2198299A2298F9
:1055C0002A9A83B1869581701A9967C290E0892BD7
:1055D0008093AF038091AA0580688093AA0580918B
:1055E000AA059091AB050E946A1483E190E00E94A5
:1055F000EB2F609366047093670480936804909324
:10560000690484E091E09093A2058093A1058091C4
:10561000D40500E112E1853009F47CC20E944F27D5
:1056200081110E947D051EEBE12E13E0F12E02EBAD
:10563000C02E03E0D02E89E8282E81E0382EFAAA69
:10564000E9AA1CA6612CA9A9BAA94D905D90BAAB94
:10565000A9ABF601808191818415950509F49BC061
:105660009C01242535253DAB2CAB3EA62DA61BA6C3
:10567000AA24A394B12C8CA99DA98A219B21892BB2
:1056800009F47BC03BA539A36AA282010A211B2130
:1056900081E00115110509F480E08BA30E948905C2
:1056A0008160782F9DA38CA349A15AA16BA18DA1E4
:1056B0000E94BF26D6018D919C9111978A259B252A
:1056C0008D939C93012B31F0EDA5FEA580818F3F3A
:1056D00009F02AC2712C072D10E08091D703800FAA
:1056E000912F911D09976CF1E8E08E2E912C801A74
:1056F000910AB80168527C4FA40188ED93E00E94A2
:10570000CA2FB80160527C4FA40180EE93E00E9442
:10571000CA2FA401440F551FB801660F771F6051AF
:105720007C4F80EF93E00E94CA2FB80168517C4FF4
:10573000A40188EE93E00E94CA2F88E08719809325
:10574000D7038091D70390E0FBA9AF2FB0E09D0174
:10575000220F331F2D513E4FAA0FBB1FBD016C51AD
:105760007E4F41E0480F971508F4E2C18093D703BC
:10577000ECA5EF5FECA7EC3058F5FBA5FF5FFBA7AE
:10578000AA0CBB1C2DA53EA52F5F3F4F3EA72DA702
:10579000FF3009F070CF639432E0C30ED11C4FE0AC
:1057A000240E311C56E065124ECF8CA5811110C01D
:1057B0008FEF8EA38FA318A60E9489058160782F92
:1057C0009AA789A74EA15FA168A58AA50E94BF26B6
:1057D0000E94B515E091AF03EE0FEE0FE093AF031B
:1057E00083B1869581708FA718AA1A99B7C180E0F6
:1057F000AFA5B8A98A2BE82BE093AF03EF70F0E0D8
:10580000EE59FE4F80819091AE03890F8093AE03D5
:1058100020E08430D4F08091AD038F5F8093AD039E
:1058200084E0898385E08A8311E01B830E948905D7
:105830008160782F9D838C831093AC0349815A81BA
:105840006B818D810E94BF2621E08091AE038D3F48
:10585000DCF48091AD0381508093AD0383E08983B4
:1058600085E08A8381E08B830E9489058160782F9F
:105870009D838C8382E08093AC0349815A816B8144
:105880008D810E94BF2621E08091AE03082E000C7E
:10589000990B64E070E00E94402F8093AE032111C9
:1058A0000E947D0586E0E1EDF3E0DE0111960190B6
:1058B0000D928A95E1F7D090D303C090D403109154
:1058C000D5030091D6031092D3031092D403109203
:1058D000D5031092D6038D2D8C2909F448C08091F0
:1058E000CF039091D0030E946E059C019091CB0351
:1058F000992309F4ACC223333105C8F19F3F19F055
:105900009F5F9093CB03DD2059F00E94550E9FEFCF
:105910001D140CF491E0899F802D11248093D303F2
:10592000CC2059F00E94550E9FEF1C140CF491E00E
:10593000899F802D11248093D4033091D303332386
:10594000B1F02091D403222391F045EB3403C00140
:105950001124992309F405C19093D30355EB250332
:1059600090011124332309F400C13093D403812F13
:10597000802B09F448C08091CD039091CE030E9402
:105980006E059C019091CA03992309F45BC22536E8
:105990003105C8F19F3F19F09F5F9093CA0311230F
:1059A00059F00E94330E9FEF11160CF491E0899F7D
:1059B000802D11248093D503002359F00E94330ECB
:1059C0009FEF10160CF491E0899F802D1124809395
:1059D000D6033091D5033323B1F02091D60322238F
:1059E00091F045EB3403C0011124992309F4C1C09F
:1059F0009093D50355EB250390011124332309F42B
:105A0000BCC03093D6038091D3039091D403892BEB
:105A10009091D503892B9091D603892B11F00E9488
:105A2000930D86E0FE013196A1EDB3E001900D9259
:105A30008A95E1F70E9420069091B003891721F022
:105A40000E9420068093B0038091D405843009F031
:105A5000DECD83E08093E9008091E80082FFD7CD1E
:105A60008091E80090E085FF06C00E94FF03882334
:105A700009F487C091E08091E8008B778093E8007B
:105A8000992309F4C4CDE981E150E33108F0F1C074
:105A9000F0E0E252FF4C0C94542F92E098CD8091AC
:105AA000D405843031F10E94B5151092A50528E186
:105AB00030E040E40FB6F894A895209360000FBE44
:105AC0004093600083B7817F846083BF83B7816028
:105AD00083BF7894889583B78E7F83BF0FB6F89481
