:100000000C946D030C94B4030C94B4030C94B403DB
:100010000C94B4030C94B4030C94B4030C94B40384
:100020000C94B4030C94B4030C94F1200C94AD2004
:100030000C947C290C94B4030C94B4030C94B40376
:100040000C94B4030C94B4030C94B4030C94B40354
:100050000C94B4030C9458290C94B4030C94B4037A
:100060000C94B4030C94B4030C94B4030C94B40334
:100070000C94B4030C94B4030C94B4030C94B40324
:100080000C94B4030C94B4030C94B4030C94B40314
:100090000C94B4030C94B4030C94B4030C94B40304
:1000A0000C94B4030C94B4030C94B403050109023A
:1000B000A10185020901A1000509190129081500FE
:1000C0002501950875018102050109300931158165
:1000D000257F95027508810609381581257F9501D0
:1000E00075088106050C0A38021581257F95017572
:1000F000088106C0C005010980A101850319012AF4
:10010000B700150126B700950175108100C0050CD8
:100110000901A101850419012AA002150126A002E6
:10012000950175108100C005010906A1018505052D
:100130000719E029E71500250195087501810205D9
:1001400007190029EF1500250195F07501810205B9
:10015000081901290595057501910295017503910D
:1001600001C00660FF0961A1010962150026FF00B8
:100170009520750881020963150026FF00952075FA
:10018000089102C005010906A101050719E029E748
:1001900015002501950875018102950175088101F9
:1001A0000507190029FF150026FF0095067508812F
:1001B000000508190129059505750191029501753C
:1001C000039101C0000101010101010101010202CD
:1001D00002020202020202030303030303030304F5
:1001E00004040404040405050505050606060606C0
:1001F000070707070708080808090909090A0A0A7A
:100200000B0B0B0C0C0C0D0D0D0E0E0E0F0F0F101B
:1002100010111111121213131414151516161717A5
:10022000181819191A1A1B1B1C1D1D1E1E1F202011
:10023000212222232424252626272829292A2B2C5B
:100240002D2D2E2F30313232333435363738393A7E
:100250003B3C3D3E3F404142434445464748494A76
:100260004C4D4E4F50515354555658595A5B5D5E44
:100270005F616264656668696B6C6D6F70727375DF
:1002800077787A7B7D7E8082838587888A8C8E8F43
:1002900091939596989A9C9EA0A2A3A5A7A9ABAD71
:1002A000AFB1B3B5B7BABCBEC0C2C4C6C9CBCDCF5F
:1002B000D1D4D6D8DBDDDFE2E4E7E9EBEEF0F3F50D
:1002C000F8FAFDFF290000003A003B003C003D0029
:1002D0003E003F0040004100420043004400450012
:1002E000C25C35001E001F002000210022002300F8
:1002F00024002500260027002D002E002A004C0097
:100300002B0014001A000800150017001C0018002C
:100310000C00120013002F00300031004B00390098
:1003200004001600070009000A000B000D000E0073
:100330000F0033003400280000004E00E1000000F0
:100340001D001B00060019000500110010003600FA
:1003500037003800E50052004D00E000E300E20005
:100360000000000000002C00000000000000E6007B
:100370000151500051004F00010000000100010038
:100380000100010001000100010001000100010065
:10039000805F815F01000100010001000100010098
:1003A0000100010001000100010001000100010045
:1003B0000100C55CC25C010001000100005C01009D
:1003C0000100010001000100010001000100010025
:1003D000C65C0100010001000100010001000100F4
:1003E0000100010001000100010001000000C75CE4
:1003F00001000000010001000100010001000100F6
:1004000001000100010001000100C95CC85C01009D
:1004100001000100000000000000010000000000D9
:100420000000C35C0100CC5CCA5CCB5C0100000036
:1004300001000100010001000100010001000100B4
:1004400001000100010001000100010001000100A4
:100450000100010001000100010001000100010094
:100460000100010001000100010001000100010084
:100470000100010001000100010001000100010074
:100480000100010001000100010001000100010064
:100490000100010001000100010001000100010054
:1004A0000000010001000000010001000100010046
:1004B0000100010001000100010001000100010034
:1004C0000100010001000100000000000000010027
:1004D0000000000000000100010001000100010017
:1004E0000100000001000100010001000100010005
:1004F00001000100010001000100010001000100F4
:1005000001000100010001000100010001000100E3
:1005100001000100010001000100010001000100D3
:1005200001000100010001000100010001000100C3
:1005300001000100010001000100010001000100B3
:1005400001000100010001000100010001000100A3
:100550000100010000000100010000000100010095
:100560000100010001000100010001000100010083
:100570000100010001000100010001000000000075
:100580000000010000000000000001000100010067
:100590000100010000000000000000000000000059
:1005A000000000000000000000000000000000004B
:1005B00000000000000000007E0F00D4FFFFFFC716
:1005C0000000007800000000000000002A2B280036
:1005D00000000000000000000000000000000029F2
:1005E000000000002C1E3420212224342627252E32
:1005F000362D3738271E1F2021222324252633336A
:10060000362E37381F0405060708090A0B0C0D0E95
:100610000F101112131415161718191A1B1C1D2F61
:100620003130232D350405060708090A0B0C0D0E81
:100630000F101112131415161718191A1B1C1D2F41
:100640003130354C09025B00030100A0FA090400B7
:1006500000010301010009211101000122400007EE
:1006600005810308000A09040100020300000009D3
:100670002111010001222200070582032000010749
:100680000503032000010904020001030000000922
:10069000211101000122B6000705840320000A127F
:1006A00001100100000008A17B0275010001020099
:1006B000010E034D00570037003500520032000094
:1006C0000012034D00570053007400750064006968
:1006D000006F000000040309040011241FBECFEFC7
:1006E000DAE0DEBFCDBF04B603FE27C080918C03E5
:1006F00090918D03A0918E03B0918F038730904B22
:10070000A740B04BD1F410928C0310928D0310923D
:100710008E0310928F0314BE84B7877F84BF0FB6F9
:10072000F894A89580916000886180936000109291
:1007300060000FBEE0E0F8E3099523E0AEE1B2E02F
:1007400001C01D92AC38B207E1F712E0A0E0B1E0C1
:10075000E8E7F6E502C005900D92AE31B107D9F792
:100760000E94C8210C94EF2A0C940000E8EDF0E000
:1007700080818E7F80831092E2001092DA001092C6
:10078000E100A0EEB0E08C9181608C9380818F7746
:10079000808319BCA7EDB0E08C918E7F8C93808113
:1007A0008F7E808310924C0308952091E400309155
:1007B000E50095E6A9012091EC00822F817020FFD1
:1007C00006C08091E80080FF06C080E00895209177
:1007D000E80022FD1AC080917103882389F08530DA
:1007E00089F08091EB0085FD0FC02091E4003091ED
:1007F000E50042175307F9F29150E1F684E00895BD
:1008000082E0089583E0089581E00895EF92FF92D9
:100810000F931F93CF937C018B010E94D503C82FA8
:10082000811117C08091E80085FD0BC08091E80020
:100830008E778093E8000E94D503882399F3C82F10
:1008400008C0F70181917F018093F10001501109E7
:1008500049F78C2FCF911F910F91FF90EF90089542
:100860008091730387FF13C08091E80082FF06C068
:100870008091E8008B778093E80004C08091710339
:100880008111F2CF0895809171038823D9F380916B
:10089000E80080FFF8CF8091E8008E77ECCF982FAA
:1008A0009093E900242F762F50E0891731F0709152
:1008B000EC002091ED005091F00021FD07C09F5FFA
:1008C000973071F78093E90081E008953091EB0053
:1008D0003E7F3093EB003091ED003D7F3093ED0093
:1008E0003091EB0031603093EB007093EC0020937B
:1008F000ED005093F0002091EE0027FDE0CF80E066
:100900000895CF92DF92EF92FF920F931F93CF93B0
:10091000DF93C8EDD0E088818F7E8883E7EDF0E03B
:1009200080818160808384E082BF81E080934C037A
:1009300088818E7F888302EE10E0F8011082109289
:10094000DA0081EEC82ED12CF601108288818F77D3
:10095000888388818068888388818F7D888319BC9B
:1009600010927103109272031092700310926F0331
:1009700090EEE92EF12CF70180818B7F80838881B6
:100980008160888342E060E080E00E944F04F601CD
:1009900080818E7F8083F801808181608083808167
:1009A00088608083F70180818E7F80838881806169
:1009B0008883DF91CF911F910F91FF90EF90DF908F
:1009C000CF900895FC018091790390917A03861766
:1009D0009707A0F06115710529F49091E8009E77C2
:1009E0009093E80090E06115710551F4911108C0F1
:1009F0008091E80082FF34C080E00895BC01F2CF0E
:100A0000809171038823C1F18530C1F18091E800A4
:100A100083FD30C08091E80082FDEACF8091E8003C
:100A200080FFE1CF8091F3002091F200382F611513
:100A3000710519F02830310558F091E02830310562
:100A400009F090E02091E8002E772093E800CBCFCA
:100A500081918093F100615071092F5F3F4FE7CF83
:100A600080917103882341F0853041F08091E80046
:100A700083FFBECF81E0089582E0089583E008956A
:100A8000E42FF0E0EE0FFF1FE152FE4F9081921B2A
:100A900097FD9195292F38E1239F212D1124620F75
:100AA00008950F931F9310E0F801EE0FFF1FE1521E
:100AB000FE4F9081905797FD9195000F111FF801FF
:100AC000E052FE4F00810052110B2003F001219FE4
:100AD000F00D112408E310E0091B110997FD13958F
:100AE00040039001419F300D1124E20FF31F9F013D
:100AF000220F331F2E0F3F1F37FF02C021583F4FD9
:100B0000220F232F221F330B620F1F910F91089585
:100B10000F931F93522F10E0F801EE0FFF1FE052CA
:100B2000FE4FA081A052BB0B9D015203F001539FC9
:100B3000F00D1124000F111FD801A152BE4F0C91CE
:100B40000057110B40039001419F300D11242E0FCF
:100B50003F1F37FF02C0215C3F4F96E03595279538
:100B60009A95E1F7620F1F910F9108950F931F93CC
:100B7000522F10E0F801EE0FFF1FE052FE4FA08150
:100B8000A052BB0B9D015203F001539FF00D1124A5
:100B9000000F111FD801A152BE4F0C910057110B2D
:100BA00040039001419F300D11242E0F3F1F37FF4E
:100BB00002C021583F4F220F232F221F330B620FF9
:100BC0001F910F910895EF920F93972F23E0029FAB
:100BD000B0011124759567956E0D792F0F91EF90E7
:100BE0000895322F50E0FA01EE0FFF1FE052FE4F42
:100BF0009081905297FD9195440F551FFA01E15253
:100C0000FE4F2081231B330B290F311D97FD3A9591
:100C1000620F0895E42FF0E0EE0FFF1FE052FE4F49
:100C20006081621B0895E42FF0E0EE0FFF1FE15298
:100C3000FE4F6081621B0895622F089580E0089541
:100C400080914E0308959C014FB7F89480911E0344
:100C500090911F03A0912003B09121034FBF821BED
:100C6000930B08952FB7F89460911E0370911F03A2
:100C700080912003909121032FBF08952FB7F894FE
:100C800080911E0390911F03A0912003B091210336
:100C90002FBF0895209110012223C9F02091050350
:100CA00027FF15C0E62FE695E695E695EE31D8F4D8
:100CB000E80FF92FF11D677021E030E001C0220F2D
:100CC0006A95EAF720958281282322830895FC0102
:100CD000329608962191621303C0DF0111971C928E
:100CE000E817F907B9F70895209110012223C1F000
:100CF0002091050327FF14C0E62FE695E695E695BB
:100D0000EE31F8F4E80FF92FF11D677021E030E0C3
:100D100001C0220F6A95EAF78281822B82830895AF
:100D2000FC0132962FEF30E04191641751F02F3FD4
:100D300019F4411101C0232F3F5F3630A9F72F3F2F
:100D400009F40895820F911D27FD9A95FC01628395
:100D500008958091000381111092000308958091FD
:100D6000FF029091FE02892B9091FD02892B8093C6
:100D70002002909100039923A1F0892B80932002F7
:100D800080911001882341F18091050387FF24C0E1
:100D90008EE1E2E2F2E090E0815000F591110E94D4
:100DA000A906E0911803F09119033097E1F08091C2
:100DB0001001882359F08091050387FF07C08091B7
:100DC00020028093210285E0809320020280F3813B
:100DD000E02D80E292E0099486E0DBCF219122238E
:100DE000D9F29F5FD9CF08952FE0929F800D1124F3
:100DF000982F977086958695869525E0829FF001BD
:100E00001124E054FD4F50E040E080E0219130E0BB
:100E1000092E02C0369527950A94E2F721703327F0
:100E2000042E01C0220F0A94EAF7822B4F5F5F4F16
:100E30004530510559F708952FE0929F800D1124F8
:100E4000982F977041E001C0440F9A95EAF7869574
:100E50008695869595E0899FF0011124E054FD4F19
:100E600090E080E070E05191DF0111979B01082E26
:100E700002C0369527950A94E2F72170219525271F
:100E8000242325272C9301968530910561F7089539
:100E90008091BF0290918E02981301C008958F5FD8
:100EA0008770FACF882341F080959091FF028923C3
:100EB0008093FF020C94AF060895882339F0909137
:100EC000FF02982B9093FF020C94AF060895209197
:100ED0008402309185022817390771F090938502BA
:100EE00080938402E0911803F0911903309721F068
:100EF0000084F185E02D09940895209182023091BB
:100F000083022817390771F090938302809382023D
:100F1000E0911803F0911903309721F00680F781D2
:100F2000E02D09940895E0911803F091190330978A
:100F300021F00190F081E02D099480E00895FA01FC
:100F4000811101C0FB010994E3E4F2E08183608335
:100F50004283339692E0E238F907C1F70895FC0125
:100F6000EE0FFF1FE80FF91FED5BFD4F618340831C
:100F700022830895FC019B01AC0197FF04C0442724
:100F80005527481B590BBA01620F731F37FD0FC05D
:100F9000241B350BC901A5E0880F991FAA95E1F71D
:100FA0000E94B72980E2861BF7FD81950895CB0149
:100FB00065E0880F991F6A95E1F7BA01621B730B10
:100FC0000E94B72980E6EFCF0C94A4070C94AF07DA
:100FD000EF920F93CF93DF93D72FC82FC9010E192C
:100FE000009729F480E857FD05C080E003C0BA01EE
:100FF0000E94BA07602F681B7D2F8C2FDF91CF9145
:101000000F91EF9008950F93CF93DF93D72FC82FB1
:10101000C901009729F480E857FD05C080E003C0AE
:10102000BA010E94BA07602F680F7D2F8C2FDF91C5
:10103000CF910F910895E82F86FDE0952E2F2F7008
:1010400086FD2F5FE695E695E695E670F0E0E85EB2
:10105000FE4F9181929F902D212D112492959F708A
:101060002295207F922B2081920F87FD919580E819
:10107000890F08950F931F93CF93DF938B01D82F80
:10108000C42F822F0E941B08EC2FF0E0EE0FFF1FF1
:10109000E152FE4F90819058890F87FD8195880F0E
:1010A000682F2CE0629F612D1124600F712F8D2F0E
:1010B000DF91CF911F910F910895AC01823091057E
:1010C00008F408959FEF413E8EE1580740F49A01DD
:1010D00095E0369527959A95E1F798E0920F61E0B3
:1010E000E62FE90FFF27FF1F9F0135952795822FD8
:1010F000229FF001239FF00DF00D11244E175F0782
:1011000038F49FEF920F961758F78FEF860F0895D8
:101110002F3FE9F361E0620FF6CF0F93CF93DF9398
:10112000D72FC82F47FD419588E390E0841B910994
:1011300047FD9395889FB001899F700D700D112414
:10114000229FC001239F900D900D1124860F971FA1
:101150000E945D08982F990F890F682F600F7D2FCF
:101160008C2FDF91CF910F91089530E020E0869F82
:10117000212D969F200D311D1124C9010895AF9294
:10118000BF92CF92DF92FF920F931F93CF93DF9383
:10119000362F472FE82FF0E0EC53FE4F71110FC0B0
:1011A000E4918E2F2E2F6E2F722FDF91CF911F91F2
:1011B0000F91FF90DF90CF90BF90AF900895C72F11
:1011C000D0E02491F22E022F10E056E0659FC0017E
:1011D0001124EFEFF0E0BF010E94A329832F90E0DC
:1011E000880F991F35E5369FD001379FB00D112428
:1011F0008A1B9B0B982F990F980F6F01CC1ADD0A51
:10120000C09ED001C19EB00DD09EB00D11248B2F79
:10121000499FA0011124452F55276F01C41AD50AF3
:10122000C09EA001C19E500DD09E500D11245F01A3
:10123000A91AB108AC9E6001AD9ED00CBC9ED00C2A
:101240001124CD2CDD24EC19FD09E09FE001E19F84
:10125000D00DF09FD00D1124ED2F62307105A1F05B
:1012600050F46115710509F49ECF6130710581F06C
:10127000EB2F852F98CF6430710569F080F06630D0
:10128000710509F490CFF4CFE22F2B2F8D2F8BCF48
:10129000E22F252F88CFEB2F822F2D2F84CF2B2FBE
:1012A0008F2DE52F80CF7F928F929F92AF92BF922A
:1012B000CF92DF92EF92FF920F931F93CF93DF9322
:1012C0005C0180911101C82FCC0FCC0FC80F15E025
:1012D0001C0FF12E163110F035E1F32E60918A03C8
:1012E000669580917B0390917C030E94B508782ECF
:1012F000D0E0CF1590F081E0153108F080E0DF916B
:10130000CF911F910F91FF90EF90DF90CF90BF9002
:10131000AF909F908F907F900895FE01E75FFD4F03
:101320008081909112018923C9F1CE01880F991F04
:101330008B579E4FFC01E65AFF4F2081422F4057AA
:10134000550B6A01855A9F4FFC018081282F20523E
:10135000330B4901449F9001459F300D300D1124FE
:10136000889CC001899C900D900D1124820F931FC1
:101370000E945D08082F6091870370918803809117
:101380008903E72C9401A601F50109950E94BF0885
:10139000462F282F672FCE010E94E6072196A9CF5E
:1013A000CF92DF92EF92FF920F931F93CF93DF9331
:1013B0007C0180911101C82FCC0FCC0FC80F15E014
:1013C0001C0FD12E163110F035E1D32E60918A0317
:1013D000669580917B0390917C030E94B508C82E8E
:1013E000D0E0CD1568F081E0153108F080E0DF91A4
:1013F000CF911F910F91FF90EF90DF90CF900895C4
:10140000FE01E75FFD4F808190911201892311F168
:10141000CE01880F991F8B579E4FFC01E55AFF4F55
:1014200020812052330B865A9F4FFC014081405748
:10143000550B6091870370918803809189030C2D6F
:10144000F70109950E94BF08462F282F672FCE016C
:101450000E94E6072196C5CFDF92EF92FF920F938D
:101460001F93CF93DF937C0180911101C82FCC0F84
:10147000CC0FC80F15E01C0F012F163108F005E145
:1014800060918A036695669521E0620F08F46FEF1C
:1014900080917B0390917C030E94B508D82ED0E008
:1014A000C01760F081E0153108F080E0DF91CF9146
:1014B0001F910F91FF90EF90DF900895FE01E75F7D
:1014C000FD4F808190911201892391F060918703F3
:1014D00070918803809189032D2D4C2FF701099578
:1014E0000E94BF08462F282F672FCE010E94E607D3
:1014F0002196D6CF9F92AF92BF92CF92DF92EF927A
:10150000FF920F931F93CF93DF936C018091110192
:10151000C82FCC0FCC0FC80F15E01C0FB12E163101
:1015200010F035E1B32E60918A036695669580913F
:101530007B0390917C030E94B508F82E80E48F0D08
:101540000E941B0890E8A92EA80E8F2D0E941B0850
:1015500020E8922E980ED0E0CB1580F081E0153176
:1015600008F080E0DF91CF911F910F91FF90EF90F5
:10157000DF90CF90BF90AF909F900895FE01E75FFE
:10158000FD4F8081909112018923A1F06091870322
:101590007091880380918903EF2C0C2F292D4A2DFF
:1015A000F60109950E94BF08462F282F672FCE010C
:1015B0000E94E6072196D0CF0E943E069C019091A2
:1015C0002E0380912F03982B21F030932B0320932F
:1015D0002A039091300380913103982B21F03093AE
:1015E000280320932703E0911803F0911903309703
:1015F00049F082E080932C030480F581E02D8CE299
:1016000093E00994089590E080E00E947D0790E0C7
:1016100080E00E9467071092FE021092FD020E9475
:10162000AF0686E0ECE2F3E0DF011D928A95E9F770
:101630001092290310922603109287020C94DC0A60
:1016400060937F0370938003809381039093820360
:101650000C94030B0F931F9360917F037091800391
:1016600080918103909182038B019C010670112768
:1016700022273327063011052105310529F468603A
:101680001F910F910C94200B677FFACF0F931F933C
:1016900041E050E060E070E004C0440F551F661F59
:1016A000771F8A95D2F7CB01BA0160957095809526
:1016B000909500917F0310918003209181033091D8
:1016C000820360237123822393231F910F910C9433
:1016D000200B9091FC02809589238093FC02282F97
:1016E000277039F4282F082E000C330B921713069D
:1016F00021F49091060392FF07C085958595859505
:101700000E94460B1092FC0208950F931F9341E034
:1017100050E060E070E004C0440F551F661F771F63
:101720008A95D2F780917F0390918003A0918103E5
:10173000B09182038A019B01082B192B2A2B3B2B8A
:10174000C901B8011F910F910C94200B6093010304
:101750007093020380930303909304030C94030B90
:1017600040912E03803F59F480912F0387FF0DC0D5
:1017700010922F0341110BC01092290308C0813F22
:1017800081F480912F0318169CF3442381F08091FB
:10179000300390913103892B09F05AC0109226032F
:1017A0000895823F49F447FFF0CF10922E038091B5
:1017B0002F038111ECCFE0CF833F19F41416ACF363
:1017C000E4CF90913003893F29F41916F4F6109272
:1017D0003003DBCF8A3F19F497FFD7CFF8CF909132
:1017E00031038B3F29F497FFD0CF10923103CDCF37
:1017F0008C3F19F41916CCF3C8CF9CE0980F9530A4
:1018000090F4845F990B21E030E0B90102C0660FCB
:10181000771F8A95E2F7CB01809590912D0389235C
:1018200080932D03B2CF8D3F31F4809187028E7F5C
:1018300080938702AACF8E3F21F4809187028D7F0B
:10184000F7CF8F3F09F0A1CF809187028B7FF0CF38
:1018500008958823B1F19CEF980F913A38F4682FDE
:1018600080E292E00E944A060C94AF0690E2980F44
:10187000983088F4877021E030E0A90102C0440F5D
:10188000551F8A95E2F7CA0180959091FF0289233E
:101890008093FF02E9CF9BE5980F933020F490E00E
:1018A00080E00C947D0798E5980F973120F490E044
:1018B00080E00C946707803F20F00E94B00B0C94EE
:1018C000DC0A08958091870280FD16C081FD16C054
:1018D00082FD16C0809126038823A1F0883280F40F
:1018E00028E0829FC001112468E270E00E94B729BD
:1018F000862F672B39F0089582E0089584E00895DB
:1019000088E0089581E008958091870280FD14C0E9
:1019100081FD14C082FD16C080912903882381F0C7
:10192000843180F422E3829FC001112464E170E0DD
:101930000E94B729862F08958CE0089589E10895C3
:1019400085E0089582E30895803F31F40E94840C7D
:10195000819580932F030895813F19F40E94840C90
:10196000F8CF823F31F40E94840C819580932E033E
:101970000895833F19F40E94840CF8CF893F29F41D
:101980000E94620C8093300308958A3F21F40E94E4
:10199000620C8195F7CF8B3F31F40E94620C8195E8
:1019A0008093310308958C3F19F40E94620CF8CFA4
:1019B0009CE0980F953070F4845F990B21E030E043
:1019C00001C0220F8A95EAF780912D03822B809324
:1019D0002D0308958D3F31F48091870281608093BB
:1019E000870208958E3F21F4809187028260F7CFAD
:1019F0008F3FB9F7809187028460F1CFCF93C82FD2
:101A0000882309F46FC08CEF8C0F813AC0F5809168
:101A10001001882311F18091050387FF1EC0EC2F70
:101A2000E695E695E695F0E0E05EFD4F828190E078
:101A30004C2F477021E030E002C0220F331F4A953F
:101A4000E2F782239323892B91F06C2F80E292E0BE
:101A50000E944A060E94AF060AC0E2E2F2E088E273
:101A600092E02191C21789F38E179F07D1F76C2F4F
:101A700080E292E00E947406CF910C94AF0680E25F
:101A80008C0F883068F4C77021E030E001C0220F6D
:101A9000CA95EAF78091FF02822B8093FF02ECCF78
:101AA000EBE5EC0FE33040F4F0E0E05EFE4F8081C8
:101AB00090E0CF910C947D07E8E5EC0FE73150F40E
:101AC000F0E0EE0FFF1FED5DFE4F80819181CF9121
:101AD0000C946707C03F30F08C2F0E94A40CCF916C
:101AE0000C94DC0ACF910895F894E82FE295EF70FA
:101AF000F0E031A1282F2F7081E090E001C0880F25
:101B00002A95EAF7982F9095932391A392A1892B78
:101B100082A3789408959091050392FF06C0282F20
:101B200028712830F9F4877F846093FF06C0282F3E
:101B300028712831F1F4877E84612091060320FF0B
:101B400006C0382F38713830D9F4877F816021FF83
:101B500006C0282F28712831D1F4877E816194FD39
:101B6000877E0895282F24712430F9F68B7F8860B2
:101B7000DCCF282F2471243101F78B7E8861DDCFE3
:101B8000382F3171313019F78E7F8860E0CF282FE0
:101B90002171213121F78E7E8861E1CFCF9384E0DE
:101BA00090E00E94442AC82F82E290E00E94442ADA
:101BB000982F8C2FCF9108950F931F93CF93DF937E
:101BC000C42FD0E0CC0FDD1F2EE1629FC00DD11DD0
:101BD000112434EB839FC00DD11D1124CE018796B3
:101BE0000E94442A082F10E0102F0027CE0188966B
:101BF0000E94442A9801282BC901DF91CF911F919F
:101C00000F910895462F843038F4763028F46F30E1
:101C100018F4672F0C94DC0D90E080E00895CF93CA
:101C2000DF930E94020EEC0182389105A9F1D8F5EC
:101C30008133910509F496C048F58932910509F47C
:101C40008AC08A9709F495C0C11521E5D20708F02A
:101C5000BCC0C11530E5D30708F014C1C83ED1059A
:101C600008F09CC0C03ED10560F5C83AD10508F027
:101C700087C0C53AD10508F0FDC0C130D10509F1D2
:101C80002097F9F0C430D105E0F440C085339105C8
:101C900009F45AC0C997C1F680910503837089F091
:101CA000C0EED0E00EC0833E910599F170F4803E05
:101CB000910501F1823E910539F68091050382FD7F
:101CC00021C0CE01DF91CF910895863E910561F14B
:101CD000873E910571F1843E910509F0B5CF809161
:101CE000060381FFEECF80910503C7EED0E084FDAF
:101CF0000DC0E7CF8091050380FD12C190910603CE
:101D000090FFDFCFC3EED0E084FFDBCFD0E0C0E0B8
:101D1000D8CF8091050382FD06C19091060390FD06
:101D2000BFCF84FFCECFF2CF8091050383FDDDCFFF
:101D3000C8CF8091050383FDF9C09091060391FF00
:101D4000F0CFC4EED0E0BDCF8091050385FFB9CFC1
:101D5000C9E2D0E0B6CF8091050385FFB2CFC5E3DD
:101D6000D0E0AFCF8091050386FFABCFCAE2D0E0D1
:101D7000A8CF8091050386FFA4CFC1E3D0E0A1CF17
:101D8000CF3BD10518F6C85AD0E0CC0FDD1FCD5D92
:101D9000DE4F0990D881C02DD46493CFC11540E2A5
:101DA000D40758F4C11581E0D80708F08ACFC03FA6
:101DB000D10508F4ABCFD06584CFC11590E4D90725
:101DC00008F4A4CFDF70D06A7CCFC11525E5D20717
:101DD00000F5C11534E5D30708F08AC0C11543E505
:101DE000D40708F071C0C11582E5D80708F467C0B0
:101DF000CE018370992721E030E002C0220F331F0B
:101E00008A95E2F7C695C69580E2C89FE001112445
:101E100052C0C11599E5D907A8F4C11528E5D20724
:101E200008F06BC0C11536E5D30708F06FCF8C2FD3
:101E30000E948B0DC82FD0E0DC2FCC27CC27DF7180
:101E4000D0623FCFC1154AE5D40708F45BC0CE018C
:101E500090568115904208F059CF8D2F8F710E94B6
:101E60008B0D90E0982F882788279F719C012C2B41
:101E7000E901E6CFC55AD0E0C05EDE4FC881D0E0B0
:101E8000D0641FCFCE01E4E096958795EA95E1F7FF
:101E900083702C2F26952695237040E2249F900175
:101EA0001124382B8C2F8370C1E0D0E002C0CC0FFE
:101EB000DD1F8A95E2F7C22BD32BDC6802CFDC2F23
:101EC000CC27C16FD06AFDCECE018370992721E067
:101ED00030E002C0220F331F8A95E2F7C695C695FF
:101EE00090E2C99FE0011124C22BD32BDA68E9CE1E
:101EF000DC2FCC27C46FD06AE4CEDC2FCC27C06F98
:101F0000D06ADFCE8C2F8F700E948B0D34E0D69577
:101F1000C7953A95E1F7CF709C2FEC01D069D1CEEF
:101F2000C9E3D0E0CECEC2EED0E0CBCEC6EED0E05C
:101F3000C8CEBF92CF92DF92EF92FF920F931F9382
:101F4000CF93DF938C01C0907F03D0908003E0900B
:101F50008103F09082038091010390910203A0918C
:101F60000303B0910403C82AD92AEA2AFB2ACFE145
:101F7000D0E0BC2ED701C6010C2E04C0B695A795A3
:101F8000979587950A94D2F780FD0EC0219788F720
:101F9000B12C8B2DDF91CF911F910F91FF90EF907E
:101FA000DF90CF90BF900895B8018C2F0E940F0E44
:101FB000019761F3EECFCF93DF93EC010E94990F6D
:101FC000BE01DF91CF910C940F0E0E94DB0F292FE1
:101FD0002F7092959F7092509E3078F4E92FF0E028
:101FE000EF50F54D0C94CB29803F19F020F4883E3A
:101FF00020F481E00895843FE1F380E00895883E75
:10200000C0F3813FD1F7F5CF822F869586958695CF
:1020100008956F927F928F929F92AF92BF92CF92CC
:10202000DF92EF92FF920F931F93CF93DF9384EC95
:10203000C82E82E0D82E99EFE92EF12CE701C45B7F
:10204000D10936011BC0F50185909490692DC80116
:102050000E94682A682DC80101960E94682A82E0C1
:10206000A80EB11C0E5F1F4FC017D10761F78EE19C
:10207000680E711C6E96CE15DF0529F08E010E518B
:1020800011095301E0CF7E0184EBE80EF11C84EBD3
:10209000C80ED11C89ECE81683E0F80679F6DF91CA
:1020A000CF911F910F91FF90EF90DF90CF90BF9055
:1020B000AF909F908F907F906F900895CF93C09135
:1020C0000603C2FB992790F9981781F080FBC2F9AB
:1020D000C09306036091050384E090E00E94682AA3
:1020E0006C2F82E290E0CF910C94682ACF910895F2
:1020F000CF93DF93C7EFD2E060E0CE010E94682A61
:102100002196C11584E0D807B9F7DF91CF910895E2
:102110001F93CF93DF93EC01FC01E75FFD4F8081BC
:102120006823A1F00E94242A182F0E94242A612FDC
:10213000782F809189030E94BF08462F282F672F90
:10214000CE01DF91CF911F910C94E607DF91CF91E3
:102150001F910895DF92EF92FF920F931F93CF93F9
:10216000DF938C01FC01E75FFD4F8081682381F1E3
:10217000D0908803D0918903C0918703EC2EF12C75
:102180000E94242A282FC7018C549F4F68E671E0D3
:102190000E94B7298E199F0997FD039695958795FB
:1021A0009595879523706C2F289F600D11247D2DA8
:1021B0008D2F0E94BF08462F282F672FC801DF915F
:1021C000CF911F910F91FF90EF90DF900C94E60755
:1021D000DF91CF911F910F91FF90EF90DF900895C5
:1021E000CF93DF9300D00F92CDB7DEB790917103FC
:1021F000943011F589837B836A839093E9008FEF94
:102200009091E800815095FD06C095ED9A95F1F703
:1022100000008111F5CF8091E80085FF0DC050E0EE
:1022200040E063E070E0CE0101960E9406048091D8
:10223000E8008E778093E8000F900F900F90DF9169
:10224000CF910895BC0184E00C94F010BC0183E0B0
:102250000C94F0109C0184E08093E9009FEF809142
:10226000E800915085FD06C085ED8A95F1F70000E4
:102270009111F5CF8091E80085FF0CC050E040E05F
:1022800066E070E0C9010E9406048091E8008E7744
:102290008093E8000895CF93DF93EC0180911001C3
:1022A0008823B1F18091050387FF32C060E284E0AA
:1022B0008093E9008FEF9091E800815095FD06C072
:1022C00095ED9A95F1F700008111F5CF8091E80026
:1022D00085FF1BC08091100170E050E040E081114B
:1022E00004C050E040E068E070E0CE010E940604C7
:1022F0008091E8008E778093E80080E2FE01AFE4F1
:10230000B3E001900D928A95E1F7DF91CF910895A6
:1023100068E081E0CDCF81E08093E00080E28093AF
:10232000D8001092C9008FE19EE40197F1F700C038
:10233000000087E090EBDC0180938C0390938D0389
:10234000A0938E03B0938F0388E19CE00FB6F894BE
:10235000A895809360000FBE90936000FFCF1F93FD
:10236000CF93DF93182FD0E0C0E0893311F4C0E59C
:10237000D0E0812F0E94FE0C209731F4812FDF9155
:10238000CF911F910C94290C8FE99FE00197F1F7F1
:1023900000C000002197F0CF0F931F93CF93DF93DE
:1023A000C62FD42F022FFC0182818823A1F06093D5
:1023B00085030E943E069093840380938303C77035
:1023C00081E001C0880FCA95EAF7DF91CF911F9194
:1023D0000F910C945D0780918503681335C080913F
:1023E0008303909184030E942306883C910560F545
:1023F00010E21D0FCD17B9F080E28C0F883040F449
:10240000C77081E001C0880FCA95EAF70E945207A1
:10241000183048F481E09D2F977001C0880F9A957D
:10242000EAF70E945D07802F0E94AF11183098F4E0
:10243000D77081E001C0880FDA95EAF7DF91CF917C
:102440001F910F910C945207C77081E001C0880F53
:10245000CA95EAF7F3CFDF91CF911F910F910895BD
:10246000239A35B1377F25B128604FB7F89483E4BC
:1024700092E0FC015191CF0168E025B9000000C055
:1024800057FF35B9550F000000C000C000C035B976
:1024900000C06A9591F7F2E082389F0751F74FBF6D
:1024A0008FE594E00197F1F700C0000008956AEE0F
:1024B0007EEF90E080E00E94862A60E082E090E07B
:1024C0000E94682A60E083E090E00E94682A1092EF
:1024D000010310920203109203031092040360E0C0
:1024E00084E090E00E94682A60E082E290E00E942E
:1024F000682A60E085E090E00E94682A60E086E05B
:1025000090E00E94682A6FEF87E090E00E94682ABE
:1025100040E050E0BA0188E090E00E947A2A60E052
:102520008DE090E00E94682A40E050E0BA0188E126
:1025300090E00E947A2A60E087E190E00E94682A99
:1025400040E050E0BA018CE190E00E947A2A70E00D
:1025500060E080E290E00E94862A40E050E0BA010C
:1025600088E190E00E947A2A40E050E0BA018FE0D2
:1025700090E00E947A2A40E050E0BA0183E190E0C6
:102580000C947A2A1092FF0280911001E2E2F2E0AC
:10259000882359F08091050387FF07C08EE1DF0192
:1025A0001D928A95E9F70C94030B86E0F8CF1F93F0
:1025B000CF93DF93CDB7DEB7AA970FB6F894DEBFFF
:1025C0000FBECDBF83E793E02091F100DC012D9396
:1025D000CD01B3E08B379B07B9F78091740383304B
:1025E00009F471C0B8F4813009F448C0823009F4AC
:1025F000B2C08091E80083FF3AC18091730390914B
:1026000074039A3008F033C1E92FF0E0E150F54D42
:102610000C94CB298A3009F48DC08B3009F470C03A
:10262000893039F780917303813219F780917703EC
:1026300090917803009711F00297D9F68091E80005
:10264000877F8093E8008091E80082FF37C09091F7
:10265000F3008091F200029729F48091F1008B7FC2
:10266000813021F48091F10080934E038091E80045
:102670008B778093E8000E943004BBCF8091730376
:10268000813A09F0B6CF8091E800877F8093E80017
:102690008091770390917803892B61F460E28FE455
:1026A00093E070E00E94E2048091E8008B778093D1
:1026B000E8009FCF60E090E080E0F3CF809171036D
:1026C0008111C1CF96CF80917303813A09F091CFE8
:1026D0008091770390917803892B09F08ACF8091BC
:1026E000E800877F8093E8008091E80080FFFCCFBE
:1026F000809110018093F1008091E8008E77B9CF2E
:1027000080917303813209F074CF809177039091A7
:102710007803892B09F06DCF8091E800877F809343
:10272000E8000E94300480917503809310010E949C
:10273000C2125FCF80917303813209F05ACF80912A
:10274000E800877F8093E8000E9430048091760340
:1027500080934D034ECF80917303813A09F049CFA6
:102760008091E800877F8093E8008091E80080FFF7
:10277000FCCF80914D03BECF803899F0823809F0AC
:1027800076C0809177038F70873008F070C0809397
:10279000E9008091EB0085FB882780F91092E90021
:1027A00006C080916F0390917003911182609091A7
:1027B000E800977F9093E8008093F1001092F10079
:1027C0008091E8008E77B5C1882309F4A2C18230D8
:1027D00009F04DC0809175038111A6C180917703E6
:1027E0008F702FEF280F263008F041C08093E9004A
:1027F0002091EB0020FF98C1933031F48091EB00E1
:1028000080628093EB0090C19091EB009061909377
:10281000EB0021E030E001C0220F8A95EAF7209317
:10282000EA001092EA008091EB008860EACF811103
:102830001EC0109175031F778091E3008078812B73
:102840008093E3008091E800877F8093E8000E94F6
:1028500030048091E80080FFFCCF8091E300806825
:102860008093E30082E0111183E0809371038091F3
:10287000E80083FF0AC08091E800877F8093E8002A
:102880008091EB0080628093EB00AA960FB6F894DB
:10289000DEBF0FBECDBFDF91CF911F91089580584D
:1028A000823028F720917503309176032C3DE3E0C8
:1028B0003E07A1F583E08A838AE289834FB7F894C3
:1028C000DE01139620E03EE051E2E32FF0E050936A
:1028D0005700E49120FF03C0E295EF703F5FEF7077
:1028E0008E2F90E0EA30C0F0C7968D939D932F5FB6
:1028F000243159F74FBF8091E800877F8093E8002B
:102900006AE270E0CE0101960E94E2048091E80044
:102910008B778093E800ABCFC096E7CF80917703A9
:1029200090917803432F55274330510509F44AC04D
:1029300078F54130510509F47AC08BE590E0E4E484
:10294000F6E04230510509F092CF2091E800277F50
:102950002093E8002091790330917A03821793073E
:1029600008F49C0140E02115310509F065C04111D2
:1029700063C08091E80082FDC9CF809171038823F4
:1029800029F2853019F28091E80083FFF2CFBECFA3
:102990004132510509F43CC04232510509F067CF7C
:1029A0008330910508F063CFFC01EE0FFF1FE7585D
:1029B000FE4F0190F081E02D8A589E4FDC018C91F2
:1029C00090E01AC0332721303105D1F021153105AF
:1029D00061F02230310509F04ACFE1EBF6E0E491F5
:1029E0008E2F90E0E1EBF6E007C0E5EDF6E0E49134
:1029F0008E2F90E0E5EDF6E0009709F438CFA5CFF3
:102A0000E1ECF6E0E4918E2F90E0E1ECF6E0F4CF1B
:102A10008330910508F02BCF880F991FFC01E158F6
:102A2000FE4F0190F081E02D89E090E08ECF82E1B1
:102A300090E0EFE9F6E089CF80917103882309F4F3
:102A400065CF853009F462CF8091E80083FD5ECFC9
:102A50008091E80082FD8DCF8091E80080FF83CFD8
:102A60009091F3008091F2002115310519F0883022
:102A7000910550F041E0089709F040E08091E800AE
:102A80008E778093E8006FCF44914093F1003196A8
:102A9000215031090196E8CF803809F0E8CE8091C5
:102AA000E800877F8093E800809172038093F100B3
:102AB00087CE8111DCCE10917503123008F0D7CE8D
:102AC0008091E800877F8093E800109372030E9452
:102AD0003004112311F084E005C08091E30087FDEC
:102AE000FACF81E08093710342E061EC81E00E94C3
:102AF0004F0442E261EC84E00E944F0442E261EC48
:102B000082E00E944F0442E260EC83E00E944F04A6
:102B1000AECE80917503813009F0A9CE81E093306B
:102B200009F080E0809370031092E9008091E80042
:102B3000877F8093E8000E94300499CE46E050E001
:102B40006CE170E086E893E00C94582A909186033B
:102B5000937089F0811107C094609093860310925E
:102B600014010C949E15843110F09C64F6CF880FEC
:102B7000880F982BF2CF08958091860386958695CD
:102B8000815009F483E10C94A61580918603869503
:102B900086958F5F843108F081E00C94A6159091A2
:102BA0008603937041F0809387036093880340937A
:102BB00089030C949E150895E6E8F3E0438120E133
:102BC000421B08F440E08181628190E00C94CF15B3
:102BD000E6E8F3E0438120E1420F08F44FEF818102
:102BE000628190E00C94CF15E6E8F3E0628120E189
:102BF000621B08F460E08181438190E00C94CF1562
:102C0000E6E8F3E0628120E1620F08F46FEF818172
:102C1000438190E00C94CF15E6E8F3E08181438195
:102C200062818850990B0C94CF15E6E8F3E081811E
:102C300090E04381628108960C94CF153F924F92A9
:102C40005F926F927F928F929F92AF92BF92CF923C
:102C5000DF92EF92FF920F931F93CF93DF9300D0F9
:102C600000D00F92CDB7DEB78C01FC018381948137
:102C7000892B31F08081918189238F3F09F002C631
:102C80000F900F900F900F900F90DF91CF911F91A9
:102C90000F91FF90EF90DF90CF90BF90AF909F90FB
:102CA0008F907F906F905F904F903F9008950E941B
:102CB000990FF82E682F89819A810E941C076981DB
:102CC0007A818F2D0E94020E7C01F8018281882377
:102CD00009F4CBC5970122513F452031310508F059
:102CE0008BC58FEF93E00E94442AFEEEEF0E57EF64
:102CF000852E52E0952E882381F18091FC02877009
:102D000009F4BECFF8018281882309F4B9CF82E0AB
:102D10000F900F900F900F900F90DF91CF911F9118
:102D20000F91FF90EF90DF90CF90BF90AF909F906A
:102D30008F907F906F905F904F903F900C94690BB5
:102D4000811424E09206C9F2C4010E94442A811130
:102D500001C0EA943FEF831A930AE110F1CF1C827D
:102D60001B82442443944AE0342E74018FEFE81A06
:102D7000F80AC4010E94442A89831A82882309F42C
:102D8000BCCF9FEF980F933000F58A83498292E081
:102D9000890E911CC7010E94442A8B83882309F461
:102DA000ACCFFE0131967F01F70120812223E9F2A9
:102DB000213009F049C091818281913041F4F2E0E3
:102DC000EF0EF11C0E94AF1109C04701EACF92300B
:102DD00049F422E0E20EF11C0E94FE0C3FEFE31AE0
:102DE000F30AE2CF933031F432E0E30EF11C0E949B
:102DF000290CF4CF943021F08FEFE81AF80AEECFC7
:102E000092E0E90EF11C30E020E0B7016F5F7F4FE8
:102E1000F70141818053990B8A30910550F0215080
:102E20003109E0F28FE99FE00197F1F700C000005F
:102E3000F6CF329EF001339EF00D11249C012E0F2F
:102E40003F1F842F7B01E1CFE22FF0E0EC53FA4FDC
:102E50005490822F86958695869590E0FC01EC54DF
:102E6000FA4F64902770712C022E02C075946794FB
:102E70000A94E2F7E1E06E227724FC01EC55FA4F68
:102E8000A490B12C022E02C0B594A7940A94E2F744
:102E9000F1E0AF22BB24FC01EC56FA4FC490D12CD8
:102EA00002C0D594C7942A95E2F721E0C222DD241E
:102EB0006114710419F081EE0E94FE0CA114B1049A
:102EC00019F086EE0E94FE0C852D0E94AF11AB28F2
:102ED00019F086EE0E94290C672819F081EE0E94F5
:102EE000290CCD2809F47ACF8CE26CCF81E00E94C6
:102EF000850B0E942A0B01CF81E00E94460BF9CF7F
:102F000082E0F5CF882309F4F8CE90911A03892F37
:102F10008E7F90FF816080931A0340911A03509135
:102F20001B0360911C0370911D0383E190E00E94DC
:102F30007A2AE3CE882309F4E0CE90911A03892FF0
:102F40008D7F91FF8260E7CFF5EFEF16FCE5FF067E
:102F500009F469C008F463C027E245EE66EE36EF77
:102F6000E3163CE5F30609F47CC4882309F49BC40A
:102F70001092850382E0E8168CE5F80608F449C152
:102F800096E1E9169CE5F90630F0C7018A5F9C4599
:102F9000099708F03EC10E94CE0D909306038093DE
:102FA0000503E0E1EE16ECE5FE0609F401C108F0C8
:102FB00083C028E0E2162CE5F20609F4E7C008F029
:102FC0004FC084E0E8168CE5F80609F4D7C090F508
:102FD000E2E0EE16ECE5FE0609F4CAC080910503B6
:102FE0008260F3E0EF16FCE5FF0609F4C4C06091CF
:102FF0000503F090060384E090E00E94682A6F2D9C
:1030000082E290E00E94682A0E94C21276CE27E2F5
:1030100045EE65EE26C426E241EE60EE22C427E2CC
:1030200045EE64EE1EC426E241EE62EE1AC428E2CA
:1030300041E0EFCF80910503806126E0E2162CE5A8
:10304000F20609F498C080910503886037E0E31622
:103050003CE5F30608F48FC08091050380628BC0C5
:103060008CE0E8168CE5F80609F49AC078F48091B3
:1030700005038C60EAE0EE16ECE5FE0609F47BC081
:1030800008F488C0809105038E7F75C08091050388
:10309000877F2EE0E2162CE5F20609F46CC08091E1
:1030A00005038B7F3FE0E3163CE5F30608F463C0BD
:1030B000809105038F7E5FC08BEFE8168CE5F806E4
:1030C00009F460C068F5E3E1EE16ECE5FE0609F4EC
:1030D00077C090F421E1E2162CE5F20609F46CC009
:1030E00032E1E3163CE5F30609F081CF0E94C212FB
:1030F000809105038F773FC085E1E8168CE5F806DF
:1031000009F466C008F47AC0809106038160EAEF92
:10311000EE16ECE5FE0609F06ACF8093060367CF52
:10312000FFEFEF16FCE5FF0609F44EC068F480914E
:1031300006038D7F3DEFE3163CE5F30671F3A0F146
:10314000809106038360E9CF91E0E9169DE5F906D9
:1031500009F45DC008F448C060E0F2E0EF16FDE558
:10316000FF0609F044CF8EE090E00E94682A3FCF2E
:103170008091050381608093050339CF8091050319
:103180008460F9CF809106038260C7CF80910503E8
:103190008064F1CF0E94C212809105038068EBCF5A
:1031A000809105038D7FE7CF809106038E7FB5CF99
:1031B000809105038F7DDFCF809105038F7BDBCF6F
:1031C00080910503837FD7CF809106038C7FA5CFA5
:1031D0008091050382FB992790F921E0922790FBCB
:1031E00082F990FB83F9C7CF80910603982F9095C1
:1031F00091708E7F892B90FB81F98FCF0E94C21234
:1032000090910503892F97FB87F98058B4CF61E02F
:10321000AACF8091FF0226E1E2162CE5F20609F022
:1032200051C38A7A91E009F490E09093860269E2B2
:10323000811165E380E292E00E9474060E94AF066D
:103240005CCD8091860391E089278093860310925C
:1032500014010E949E1551CD4CEB55E165EC75E1D2
:103260000E949F074ACD45EC55E16CEB75E1F8CF24
:103270004CE056E165E176E1F3CF45E156E16CE0E3
:1032800076E1EECF44EF55E160E076E1E9CF40E052
:1032900056E164EF75E1E4CF48EE55E16CED75E180
:1032A000DFCF40E950E266E870E2DACF46E850E26C
:1032B00060E970E2D5CF81E00E94A6151ECD85E0C1
:1032C000FBCFFBE5EF16FDE5FF0611F12CE5E2165D
:1032D0002DE5F20609F028C38091060382FB8827BA
:1032E00080F991E089270E945E101EC30E94C212DD
:1032F0003FEF84E39CE0315080409040E1F700C014
:1033000000000E948B110E945712F7CC81E0EBCF96
:1033100080E0E9CFC7010E94F406D82E14C32F2DF8
:103320002F70A22E8F2D807F19F0A29490EFA922EA
:10333000DD20C9F0AA2069F080E28E0D883010F0FF
:1033400081100BC08091FF02A82AA092FF020E9468
:10335000AF068E2D0E94FE0C19C08091FE02A82A95
:10336000A092FE02F4CF8E2D0E94290CAA2071F0AB
:10337000A09480E28E0D883010F081103DC08091C5
:10338000FF02A822A092FF020E94AF06232D285020
:10339000330B2430310510F40E949307CC2009F43C
:1033A0006FCC8091FC0280FD6BCCF8011282859578
:1033B000859585950E94850BC8010E941E168091F7
:1033C000FC028595859585950F900F900F900F9035
:1033D0000F90DF91CF911F910F91FF90EF90DF90B1
:1033E000CF90BF90AF909F908F907F906F905F90A5
:1033F0004F903F900C94460B8091FE02A822A09221
:10340000FE02C2CF3F2D3F70932E8F2D807F8032E2
:1034100019F0929480EF9822882071F081E088164C
:1034200081F1DD20D9F1AA2091F1F801858180FF99
:1034300090CF8F7085832BC0DD20B1F09091000379
:10344000892D892BA11003C00E945D079FCFE1E069
:10345000AE12FACF2091060322FD98CF981709F4F7
:1034600095CF8093000392CFA11006C00E94A906B9
:10347000892D0E9452078ACFF1E0AF1609F486CF5A
:10348000F5CFDD2031F025E02A1508F47FCF892D16
:10349000DBCF34E03A1508F479CFEACFAA2041F324
:1034A000F9E38F1209C02FEF37EE83E0215030404F
:1034B0008040E1F700C000008E2D0E94290C66CFED
:1034C0008F2D86958695837061F0813009F05ECFEF
:1034D000C7019370D11002C090E080E00E9467079E
:1034E00055CFC7019370D11002C090E080E00E94D8
:1034F0007D074CCF8E2DDD2029F00E94A40C0E9468
:10350000DC0A44CF0E94B00BFACF8F2D837009F0F4
:1035100066C0D1103BCF8E2D829586958770880F1F
:10352000880F6E2D6F70462E512C712C612C082E39
:1035300004C0440C551C661C771C0A94D2F740E06A
:1035400050E0BA01E4FE0FC04FE050E060E070E0F0
:1035500004C0440F551F661F771F8A95D2F7409508
:103560005095609570958F2D8695869583708230E5
:1035700019F1D8F48090010390900203A090030306
:10358000B0900403813069F04429552966297729D0
:10359000CB01BA01682179218A219B210E94A60BC7
:1035A000F5CE482859286A287B28CB01BA0164291E
:1035B000752986299729F2CF442955296629772923
:1035C0004090010350900203609003037090040345
:1035D000CB01BA016425752586259725DFCF869511
:1035E000DD2011F08F2D8170882309F4CFCE8E2D30
:1035F000829586958770880F880F6E2D6F70462E86
:10360000512C712C612C082E04C0440C551C661CD6
:10361000771C0A94D2F740E050E0BA01E4FE0FC0F4
:103620004FE050E060E070E004C0440F551F661F9B
:10363000771F8A95D2F740955095609570958F2D9C
:10364000869586958370823019F1D8F480907F0337
:1036500090908003A0908103B0908203813069F044
:103660004429552966297729CB01BA016821792196
:103670008A219B210E94200B89CE482859286A283C
:103680007B28CB01BA016429752986299729F2CFB5
:10369000442955296629772940907F03509080035B
:1036A0006090810370908203CB01BA016425752577
:1036B00086259725DFCF9F2D9F70F92EDD2029F0DD
:1036C000892F0E94850B8E2DBFCE8E2D0E94520712
:1036D0008F2D0E94460B5ACE8E2DE2EF8E1609F4E6
:1036E00057C0E81578F0F0EF8F1649F121EF8216F8
:1036F00009F446C0DD2009F46FC0A1102ACE8F2D39
:103700008F7143C033EF831609F447C094EF8912D9
:10371000F1CFDD2009F455C02F2D2F71F22E822F0D
:103720000E94850B8091060382FD07C038E0F39E5E
:10373000C001112483608093FC028F2D26C0DD2000
:10374000D1F0E4E0EA1508F421CE2F2D2F7161E0CD
:1037500070E080E090E004C0660F771F881F991F1B
:103760002A95D2F740907F035090800360908103A8
:10377000709082039BCFF5E0FA1508F407CEE5CFF1
:103780008F2D8F71DD2009F4A4CF0E94850BFECD13
:103790008F2D8F71DD20C9F39CCF60E070E0CB01ED
:1037A000DD2009F467CF2F2D2F7161E070E080E0FC
:1037B00090E004C0660F771F881F991F2A95D2F7E3
:1037C00059CF81E00E94690B81E08A1508F0DECDB7
:1037D00082E00E94690BDACDAA2059F0893309F002
:1037E0006BCE9FEFE7EEF3E09150E040F040E1F761
:1037F00061CE8F2D8F716DCFF0E1EF16FFE5FF06E3
:1038000009F474CB21E1E2162FE5F20609F478CB36
:1038100090E8E9169FE5F90609F474CBE1E8EE16A5
:10382000EFE5FE0609F486CBF3EFEF16FCE5FF06A5
:1038300009F4F1CB08F088CB38EDE3163CE5F3064C
:1038400009F4E5CB99EDE9169CE5F90609F4EFCB0F
:10385000E7EDEE16ECE5FE0609F087CB26E241EE39
:1038600061EEC8010E94CC1148CA30E1E3163FE581
:10387000F30609F441CB91E1E9169FE5F90641F61B
:1038800082E03BCB85E0DE01119601900D928A9596
:10389000E1F7F801228189819A81211108CA0E94E9
:1038A000F406F82E0CCAF6E1EF16FCE5FF06E1F58A
:1038B0008091860269E2811165E380E292E00E94D4
:1038C0004A06BCCC82722AECE2162CE5F20609F418
:1038D000E3CC08F084C095ECE9169CE5F90609F400
:1038E000C7CC08F063C0F3ECEF16FCE5FF0609F463
:1038F000B3CC08F0B8CC32ECE3163CE5F30609F49F
:10390000A0CC3AE5E3163DE5F30609F4FFCC08F058
:10391000D8CCE1149CE5F90609F4E8CCEEEDEE16FE
:10392000ECE5FE0609F4EFCCF8018281E080F1803D
:10393000882309F4EFCCC7010E94990FD82E682F75
:10394000C7010E941C07B7018D2D0E940F0E7C013C
:10395000882EF801D280A580A2943FE0A322809116
:10396000FC028770A1F0CD2CDD2091F08F2D807F9F
:10397000803421F080E28E0D883048F082E00E9491
:10398000690B8091FC028770CC24C3948111C12CF7
:103990003F2C32942FE03222FBE0F31508F4F6CCF2
:1039A000E32DF0E0E75FF44D0C94CB2997ECE9169A
:1039B0009CE5F90609F466CC08F45FCCF8ECEF1648
:1039C000FCE5FF0609F463CC4CED55E168EE75E1CA
:1039D00029ECE2162CE5F20609F442CC92CF3FEC3A
:1039E000E3163CE5F30609F46ACCB0F4ECECEE1611
:1039F000ECE5FE0609F45ACC08F453CC2DECE216A3
:103A00002CE5F20609F457CC83E03EECE3163CE5E6
:103A1000F30609F451CC75CF86EDE8168CE5F8066F
:103A200040F48AE091EDE9169CE5F90608F444CCEF
:103A300064C9EDE5EE16FE0609F45FC962CF1F9377
:103A4000CF93DF9380918D02807FA9F480918A02C9
:103A5000882389F08091BF02D0918E026091880204
:103A600070918902A0918B02B0918C02C62FC7235E
:103A700016E0D81304C0DF91CF911F91089590E014
:103A8000109711F0CF3F19F401968770F2CF189F6D
:103A90009001199F300D1124F901E157FD4F41812B
:103AA0004713F2CF40814613EFCF42814111ECCF53
:103AB000438154814A1B5B0B483C510528F7809198
:103AC0008D028F70806180938D02F901EC56FD4F5D
:103AD00080818F708061808388E892E00E941E164A
:103AE000DF91CF911F910C944807AF92BF92CF9274
:103AF000DF92EF92FF920F931F93CF93DF93CDB797
:103B0000DEB761970FB6F894DEBF0FBECDBF8C0154
:103B100085E0F801DE011D9601900D928A95E1F78E
:103B2000F80180819181E28028E8A22E22E0B22E65
:103B300060918B0270918C026115710509F43EC190
:103B40003091880240918902232F24232F3F09F4CA
:103B500035C1C380D480F0908A02F601E61BF70BD2
:103B6000FF2009F4FBC020918D02522F507FE83CCA
:103B7000F10508F0BBC0511178C0FE2C491321C0DB
:103B800038131FC0E1101DC02F70206120938D02DB
:103B9000C5010E941E1680918D02F80185838F2D2C
:103BA00061960FB6F894DEBF0FBECDBFDF91CF9107
:103BB0001F910F91FF90EF90DF90CF90BF90AF904B
:103BC0000895CD2829F0282F29232F3F09F014C16B
:103BD00020E0F22FF170DF2E20FF3DC02091BF02C8
:103BE00040918E0256E0241315C08D879E878D85E7
:103BF0009E850E94DB0F292F22952F702230F8F02E
:103C0000243020F59F70F9F0F8019581907FD9F468
:103C1000D12C1FC030E0529FF001539FF00D1124B2
:103C2000E157FD4F6181961306C06081861303C082
:103C30006281E61210C02F5F3F4F2770D4CF9F7074
:103C400011F0882329F3805E883010F3C8010E94A8
:103C50001E16FD2CA4CFEE2009F4A1CF80918D0279
:103C6000816080938D02F12C9ACF491312C03813D2
:103C700010C0E1100EC0F8012583C8010E941E1675
:103C800086E0F801A8E8B2E001900D928A95E1F78C
:103C900086CF8D879E878D859E850E94E50F882320
:103CA00009F1EE20F9F080918D02803270F02091C0
:103CB00088023091890238872F831986DB86CA866D
:103CC0008C87CE0107960E941E1686E0F801A8E8B0
:103CD000B2E001900D928A95E1F70E941F1DFF242A
:103CE000F3945DCFC8010E941E16F9CF51110AC08E
:103CF00088E892E00E941E1686E0F50111928A95EE
:103D0000E9F7B1CF49130FC038130DC0E1100BC054
:103D1000F8012583C8010E941E1686E0F501119264
:103D20008A95E9F73CCF8D879E878D859E850E9479
:103D3000E50F8823B9F2EE20A9F280918D0280323E
:103D400020F220918802309189023A8329831B82D4
:103D5000DD82CC828E83CE010196B5CFE83CF105A1
:103D6000E0F6FE2CEE2009F4BDCF491316C038133F
:103D700014C080918D0280FD83CF982F907F09F42D
:103D80007FCFF8018583903F09F477CF982F907FFC
:103D9000905F8F70892B858370CF8D879E878D85EF
:103DA0009E850E94E50F811190CF80918D028160E8
:103DB00080938D02C8010E941E16F1CEEE2009F4F8
:103DC00091CF8D879E878D859E850E94E50FF82E69
:103DD000882309F487CF86E0F801A8E8B2E00190D3
:103DE0000D928A95E1F780918802909189020E9454
:103DF000DB0F0E941F1DD3CE21E02E25EACE1F939C
:103E0000CF93DF93CDB7DEB767970FB6F894DEBFD9
:103E10000FBECDBF342F4B8B252F5C8B6D8B7E8BD4
:103E20008F8B8E899F8961111092FE021A8A198ADE
:103E30003D872E876F87998B888B86E0FE013D96A4
:103E4000DE01179601900D928A95E1F7CE01079653
:103E50000E94751D882389F016E08091BF02909121
:103E60008E02891349C067960FB6F894DEBF0FBE65
:103E7000CDBFDF91CF911F91089586E0FE01379667
:103E8000DE01119601900D928A95E1F78A859B8556
:103E9000892B11F38F81988589238F3FE9F2209137
:103EA0008E0230E0C9010196877099274091BF02C8
:103EB0004817190671F40E94C21210928E021092D5
:103EC000BF0286E0E8E8F2E0DF011D928A95E9F79B
:103ED000C3CF96E0929FD001939FB00D1124A157BC
:103EE000BD4FFE01319601900D929A95E1F78093B6
:103EF0008E020E944807B0CF819FC00111248157D4
:103F00009D4F0E94751D882309F4ADCF8091BF029B
:103F100090E00196877099278093BF029ECF6F92A1
:103F20007F929F92AF92BF92CF92DF92EF92FF92D9
:103F30000F931F93CF93DF9300D000D00F92CDB794
:103F4000DEB701E511E087E0E82E83E0F82E97E583
:103F5000A92E91E0B92E912CCC24C394D12CF80138
:103F600081918F01F894E82FE295EF70F0E021A1A4
:103F70008F70A60102C0440F551F8A95E2F7CA014F
:103F8000922F982B91A392A18095892382A3789454
:103F900000C0E7E5F1E030E020E0712C612C4191B8
:103FA000A42FA295AF70B0E090968C9190E04F70E6
:103FB00002C0959587954A95E2F780FD6FC0C601CE
:103FC000022E02C0880F991F0A94E2F7682A792A04
:103FD0002F5F3F4F2F30310511F7F8013197808166
:103FE0000E94740D50EA5A95F1F7F7018081918192
:103FF0006816790609F455C07182608281E0982ABA
:10400000F2E0EF0EF11CA016B10609F0A8CF99203E
:1040100009F449C081E0809342020E943E069093D9
:1040200041028093400280914002909141020E949F
:1040300023060697E0F1809107039091080390937F
:104040004103809340038091090390910A03909368
:1040500043038093420380910B0390910C03909350
:1040600045038093440380910D0390910E03909338
:1040700047038093460380910F0390911003909320
:104080004903809348038091110390911203909308
:104090004B0380934A031092420209C090E080E0F3
:1040A00095CF80E0ACCF809142028111BCCF80914E
:1040B00022038823A9F0869539F183E0898385E07E
:1040C0008A831B820E943E068160782F9D838C83A9
:1040D0001092220349815A816B818D810E94FF1EBB
:1040E000892D0F900F900F900F900F90DF91CF912F
:1040F0001F910F91FF90EF90DF90CF90BF90AF9006
:104100009F907F906F90089584E0D8CFE6E8F3E029
:10411000248130E1230F08F42FEF24830C949E15A3
:10412000E6E8F3E0248130E1231B08F420E0248357
:104130000C949E15E6E8F3E085E1808380911501FB
:1041400090911601A091170181839283A3838FE739
:1041500084838FEF85830C949E151F920F920FB668
:104160000F9211242F933F934F935F936F937F93FD
:104170008F939F93AF93BF93CF93DF93EF93FF936F
:10418000D091E900DF708091EC00C82FC17080FDF4
:10419000C0E81092E9008091F000877F8093F000E2
:1041A00078940E94D7121092E9008091F000886004
:1041B0008093F000CD2BCF70C093E900FF91EF9179
:1041C000DF91CF91BF91AF919F918F917F916F912F
:1041D0005F914F913F912F910F900FBE0F901F90C5
:1041E00018951F920F920FB60F9211242F933F93A1
:1041F0004F935F936F937F938F939F93AF93BF93EF
:10420000EF93FF938091E10082FF09C08091E2006B
:1042100082FF05C08091E1008B7F8093E100809157
:10422000DA0080FF24C08091D80080FF20C08091F8
:10423000DA008E7F8093DA008091D90080FF9BC0E6
:1042400080E189BD82E189BD09B400FEFDCF81E036
:104250008093710380914C03811109C00E94B603C1
:104260000E9481048091E20084608093E20080914A
:10427000E10080FF17C08091E20080FF13C08091B1
:10428000E2008E7F8093E2008091E2008061809363
:10429000E2008091D80080628093D80019BC85E04C
:1042A000809371038091E10084FF29C08091E20036
:1042B00084FF25C080E189BD82E189BD89B5982F41
:1042C000917080FFFBCF8091D8008F7D8093D800C4
:1042D0008091E1008F7E8093E1008091E2008F7EEB
:1042E0008093E2008091E20081608093E2008091FF
:1042F0007203882309F445C084E0809371038091A0
:10430000E10083FF27C08091E20083FF23C08091FA
:10431000E100877F8093E10082E080937103109237
:1043200072038091E1008E7F8093E1008091E20032
:104330008E7F8093E2008091E20080618093E200B2
:1043400042E060E080E00E944F048091F0008860CD
:104350008093F000FF91EF91BF91AF919F918F916A
:104360007F916F915F914F913F912F910F900FBE71
:104370000F901F90189519BC1092710310924C0366
:1043800076CF8091E30087FD93E090937103B7CFE0
:10439000CDB7DEB7AC970FB6F894DEBF0FBECDBF7A
:1043A00084B7877F84BF0FB6F894A895809160008A
:1043B000886180936000109260000FBE80E890E0FA
:1043C0000FB6F89480936100909361000FBE85B79B
:1043D000806885BF85B7806885BF8EE196E0909341
:1043E0001F0280931E020E94B6030E9481048091E6
:1043F000E20084608093E2007894809171038823C6
:10440000A1F01091E9001F709091EC00892F81704C
:1044100090FD80E8182B1092E9008091E80083FD60
:104420000E94D7121F701093E90082E084BD93E0D0
:1044300095BD9AEF97BD80936E0087E30E94740D3F
:1044400080E90E94740D81E90E94740D82E90E9446
:10445000740D83E90E94740D85E90E94740D07E5CF
:1044600011E076E6E72E71E0F72EF80181918F01D9
:104470000E94740DE016F106C1F7E7E0F3E083E176
:1044800093E0A0E4B3E0119211921D921D928E1759
:104490009F07C9F790E080E00E94522A8A3E9E4F13
:1044A00011F00E94571282E090E00E94442A80930B
:1044B00033030E94CE0D90930603809305030E9460
:1044C0008F1F8FE39CE90197F1F700C000000E9465
:1044D0008F1F8091400380FF17C06FEF83E290E051
:1044E0000E94682A6FEF84E290E00E94682A6FEFD2
:1044F00085E290E00E94682A6FEF7FEF90E080E015
:104500000E94862A0E948B1183E090E00E94442A38
:10451000682F70E090E080E00E94A60B90E080E0C1
:104520000E94522A8A3E9E4F21F00E9457120E94FA
:104530009A2046E050E06CE170E086E893E00E944B
:10454000342A809186038C7F11F40E949A2083E2A2
:1045500090E00E94442A813209F07EC684E290E015
:104560000E94442A813109F077C685E290E00E94DA
:10457000442A833009F070C62198299A22982A9AF1
:1045800083B1869581701A99E6C190E0892B80935A
:10459000250383E190E00E944C2A60931A037093F4
:1045A0001B0380931C0390931D0386E091E090937E
:1045B00019038093180358E1452E512C6CE4C62E44
:1045C00063E0D62E8091710300E112E1853009F499
:1045D000FAC10E948F1F81110E943206E4E3F3E0CA
:1045E000A0E4B3E010E000E0702F8D919D91219147
:1045F00031912817390709F4F6C12827392760E0D7
:10460000EE24E394F12CA9014E215F21452B09F4FE
:10461000E4C169A37AA39C012E213F2191E0232BC1
:1046200009F490E09BA30E943E068160782F9DA331
:104630008CA349A15AA16BA18DA10E94FF1E000F5E
:10464000111FF801EC5CFC4F80819181E826F9266E
:10465000F182E0820E943206609314037093150386
:10466000809316039093170330918603232F2370B2
:10467000B22E19F0B32EB694B694209114012130C5
:1046800009F4D6C1222309F4C5C1223009F452C469
:10469000233009F459C4E0912503EE0FEE0FE093A7
:1046A000250383B181FB662460F81A996CC480E00D
:1046B0008629E82BE0932503EF70F0E0EA59FE4FDE
:1046C000808190912403890F8093240320E084301B
:1046D000D4F0809123038F5F8093230384E0898348
:1046E00085E08A8311E01B830E943E068160782F5B
:1046F0009D838C831093220349815A816B818D8124
:104700000E94FF1E21E0809124038D3FDCF4809104
:10471000230381508093230383E0898385E08A8388
:1047200081E08B830E943E068160782F9D838C837D
:1047300082E08093220349815A816B818D810E949E
:10474000FF1E21E080912403082E000C990B64E0E9
:1047500070E00E94B7298093240321110E94320641
:1047600086E0ECE2F3E0DE01119601900D928A956D
:10477000E1F7F0902E03E0902F03109130030091A9
:10478000310310922E0310922F03109230031092D7
:1047900031038F2D8E2909F448C080912A0390910E
:1047A0002B030E9423069C0190912903992309F46D
:1047B0007AC523333105C8F19F3F19F09F5F90936D
:1047C0002903FF2059F00E94840C9FEF1F140CF462
:1047D00091E0899F802D112480932E03EE2059F0C3
:1047E0000E94840C9FEF1E140CF491E0899F802D91
:1047F000112480932F0330912E033323B1F02091A5
:104800002F03222391F045EB3403C0011124992397
:1048100009F4BCC390932E0345EB240390011124AB
:10482000332309F4B7C330932F03812F802B09F46E
:1048300048C080912703909128030E9423069C0181
:1048400090912603992309F429C525363105C8F12D
:104850009F3F19F09F5F90932603112359F00E9408
:10486000620C9FEF11160CF491E0899F802D1124AA
:1048700080933003002359F00E94620C9FEF1016C2
:104880000CF491E0899F802D1124809331033091A5
:1048900030033323B1F020913103222391F045EB13
:1048A0003403C0011124992309F478C39093300391
:1048B00045EB240390011124332309F473C330938F
:1048C000310380912E0390912F03892B9091300317
:1048D000892B90913103892B11F00E94DC0A86E02C
:1048E000FE013196ACE2B3E001900D928A95E1F7BA
:1048F0000E94930790913203891721F00E94930739
:104900008093320380917103843009F05BCE83E0A1
:104910008093E9008091E80082FF54CE8091E80006
:1049200090E085FF06C00E94D503882309F43EC3AA
:1049300091E08091E8008B778093E800992309F457
:1049400041CEE981E150E33108F0A8C3F0E0EB5E2D
:10495000F44D0C94CB2992E019CE809171038430F0
:1049600011F110921303F0E40FB6F894A895409259
:1049700060000FBEF093600083B7817F846083BFC7
:1049800083B7816083BF7894889583B78E7F83BF18
:104990000FB6F894A89580916000886180936000BC
:1049A000109260000FBE80917003882361F00E9416
:1049B0008F1FE0E4F3E081919191892B09F036C4D7
:1049C000CE16DF06C1F780917103853009F4C5CF9B
:1049D0000E94C2120E949307FCCD6F5FEE0CFF1C79
:1049E0006F3009F010CE0F5F1F4F0630110509F030
:1049F000FBCD8FEF8EA38FA318A60E943E06816089
:104A0000782F9AA789A74EA15FA168A58AA50E94C1
:104A1000FF1E20CE1092110160937B0370937C03E4
:104A200080937D0390937E0381E08093140133CEC5
:104A30009091050181E0B9120BC0832F8370209102
:104A4000040130E091E08217130609F490E0892F09
:104A500081708093130180918B03909112019817BC
:104A600039F08093120140E060E080E00E94E407AA
:104A700033E13B1550F0EB2DF0E0E85DF44D0C9484
:104A8000CB2980911301811102C000E028C040E0D1
:104A900060E080E00E94E407F8CF80911101082FC8
:104AA000000F000F080F85E0F82EF00EEF2C45E107
:104AB0004F1510F415E1E12E609187037091880382
:104AC000809189030E94BF08A62E972E882E10E0A1
:104AD0000E1508F44BC001E084E18F15B0F210917F
:104AE00011011F5F109311010111E4C182E0809355
:104AF0001401809113018111DDC1BB2009F422C290
:104B0000812F880F880F180F0BEF010F163108F057
:104B100015E180911A0380FDD1C1E0911803F09155
:104B20001903309709F0E5C180911A0381FFB3CDD5
:104B3000F12CE12C802E912CA12EB12CC7010E97C7
:104B4000049760F0E814F90448F0AE14BF0430F0A4
:104B500020E040E060E0C7010E94E6072FEFE21A84
:104B6000F20A35E1E316F10449F795CDF801E75F64
:104B7000FD4F808190911201892331F0282D4A2D1B
:104B8000692DC8010E94E6070F5F1F4FA1CF00915A
:104B90001101202E220C220C200E95E0920D9BA7D5
:104BA000F92E963110F0B5E1FB2E8090880300912C
:104BB000890310918703612F782D802F0E94BF08F1
:104BC000E62EA72E982E60918A03610F782D802FF4
:104BD0000E94BF08862E7CA7382E022D10E00F15EC
:104BE00030F001E0EBA5E53108F479CF4ECFF801C4
:104BF000E75FFD4F908180911201892359F0232DA9
:104C0000482D6CA590FD03C0292D4E2D6A2DC8019D
:104C10000E94E6070F5F1F4FE2CF80911101082F1E
:104C2000000F000F080FA5E0FA2EF00EEF2CF5E1B3
:104C3000FF1510F4F5E1EF2EA09087031091880383
:104C40009090890360918A03669566956695809138
:104C50007B0390917C030E94B5080E941B0880583A
:104C600087FD8195880F282F392D239F212D112411
:104C7000822F6A2D712F0E94BF08A62E972E882E94
:104C800010E00E1530F001E044E14F1508F027CF99
:104C9000FCCEF801E75FFD4F8081909112018923DE
:104CA00031F0282D4A2D692DC8010E94E6070F5FBB
:104CB0001F4FE7CF8CE196E00E942C0A12C083E1DF
:104CC00096E0FACF8AE096E0F7CF81EF95E0F4CF57
:104CD00083EE95E00E94530904C08DE898E00E949D
:104CE000D009082FFCCE83E098E0F9CF88EE97E05A
:104CF000F1CF86EB95E00E947A0AF3CF88E895E041
:104D0000FACF81E595E0F7CF0091130101111EC0A4
:104D100060918A0320E1620F08F46FEF80917B03BA
:104D200090917C030E94B5086AE070E00E94A3297C
:104D3000892B09F0AACE0E94242A65E170E00E9426
:104D4000B729609112010E94AA10C9CE8091110169
:104D5000082F000F000F080FE5E0AE2EA00E8A2DE1
:104D600095E19A1508F485E110E0E82EF12C0E1576
:104D70001F0534F001E0E4E1EA1508F0B0CE85CE7D
:104D800060911201C8010E94AA100F5F1F4FEFCF60
:104D90000091130101111EC060918A0320E1620F8E
:104DA00008F46FEF80917B0390917C030E94B5081B
:104DB00065E070E00E94A329892B09F066CE0E946D
:104DC000242A65E170E00E94B729609112010E94D7
:104DD000881085CE80911101082F000F000F080F59
:104DE00075E0A72EA00E8A2DF5E1FA1508F485E1ED
:104DF00010E0E82EF12C0E151F0534F001E024E13F
:104E00002A1508F06CCE41CE60911201C8010E94B3
:104E100088100F5F1F4FEFCF80911101082F000FF7
:104E2000000F080F65E0F62EF00EEF2C35E13F1570
:104E300010F455E1E52E90908803A090890310911D
:104E4000870360918A0366956695669580917B03DA
:104E500090917C030E94B5080E941B08805887FD32
:104E60008195880F682F2CE0629F612D1124610FBE
:104E7000792D8A2D0E94BF08A62E972E882E10E02D
:104E80000E1508F000CFF801E75FFD4F808190918B
:104E90001201892331F0282D4A2D692DC8010E9465
:104EA000E6070F5F1F4FECCF8AE398E005CF80E461
:104EB00095E002CFBB2009F4EECB22CE4EE0E42EEB
:104EC000F12CA02EB12C812E912CEA14FB0448F079
:104ED0008E149F0430F020E040E060E0C7010E94A3
:104EE000E6078FEFE81AF80A92E1E916F10469F78C
:104EF00014CE0190F081E02D099581FF15CE3EE0A2
:104F0000E32EF12CA02EB12C812E912CEA14FB045F
:104F100048F08E149F0430F02FEF4FEF60E0C70190
:104F20000E94E607EFEFEE1AFE0AF2E1EF16F10437
:104F300069F7FACDB0920501832F83708093040145
:104F40000E94301283E071CD40917B0350917C032D
:104F500060917D0370917E032FB7F89480911E03BA
:104F600090911F03A0912003B09121032FBF841BB8
:104F7000950BA60BB70B4097A105B10508F48BCB99
:104F80001092140188CB82E090E092CB81E0809374
:104F90002E0342CC81E080932F0347CC81E08093A5
:104FA000300386CC81E0809331038BCC00E210E0AB
:104FB000CE0101967C018091E80085FD0AC08091B8
:104FC000E8008B778093E8000E94D503882399F34B
:104FD000AFCC8091F100F70181937F01015011095D
:104FE00051F7A6CC1A8289E08B8311C08A81823066
:104FF00009F44BC1833091F1813009F04FC00E9418
:1050000032060E94D1296B837C838D839E8380919D
:105010007103843009F0D6CA1091E9001F70909195
:10502000EC00892F817090FD80E8182B82E080933E
:10503000E9008091E80080FF0DC050E040E060E2B0
:1050400070E0CE0101960E9406048091E8008E7700
:105050008093E8001F701093E900B4CADE01119636
:10506000E0E4F3E080819181329612969C9312974E
:1050700013968C9313971296CE16DF0699F7C7CF27
:105080008A81823059F46B817C818D819E810E945E
:10509000D12986E290E00E94682AB9CF8FEF8983F8
:1050A000B6CF4C816B818A810E94DC0D98278927BD
:1050B00098279E838D83ABCFED80FE80FE24EF2466
:1050C000FE248A810B81FEE10F9F8001112424EBD5
:1050D000829F000D111D11248C8190E0880F991F73
:1050E000080F191F6F2DC80187960E94682A6E2D20
:1050F000C8018896D0CF0E94091089CF80E18A83A9
:1051000086CF81E08A836FCF0A811B811027012718
:105110001027CE0101967C01AC80FC01EA0DF11D47
:105120005F01C80189509D4FAE14BF0409F46FCFD1
:105130000930F1E01F0750F40E94442AF7018483EC
:105140000F5F1F4FFFEFEF1AFF0AEBCFF70114823B
:10515000F7CF0A811B811027012710279E012F5F9F
:105160003F4F5901EC80E00EF12EF11CC80189502F
:105170009D4FE016F10609F44ACF093031E01307DC
:1051800020F4F50164810E94682AFFEFAF1ABF0A7C
:105190000F5F1F4FEBCF0E94781039CF84E0AFCF65
:1051A0000A811B811027012710279E012F5F3F4F87
:1051B0007901AC80C9018A0D911D5C01C8018796F7
:1051C000AE14BF0409F423CF003DE2E01E0750F403
:1051D0000E94442AF70184830F5F1F4FFFEFEF1AED
:1051E000FF0AECCFF7011482F7CF0A811B81102749
:1051F000012710279E012F5F3F4F5901EC80E00EE1
:10520000F12EF11CC80187960E151F0509F4FFCE7B
:10521000003D32E0130720F4F50164810E94682A02
:10522000FFEFAF1ABF0A0F5F1F4FECCF09BD19BDCB
:1052300009B400FEFDCF8091D8008F7D8093D80007
:105240008091E00082608093E0008091E00081FD29
:10525000FCCF0E94C212B7CB60E086E290E00E94D1
:10526000682A0E9409100E94781061E283E290E0AF
:105270000E94682A61E184E290E00E94682A63E06B
:1052800085E290E00E94682A77C986E290E00E9459
:10529000442A1B821C821D828E83B9CE2D3231405E
:1052A00008F0D8CA0ECB2D32314008F087CABDCAEB
:1052B00078941F921FB61F9211248F939F93AF93E0
:1052C000BF9380911E0390911F03A0912003B09182
:1052D00021030196A11DB11D80931E0390931F030E
:1052E000A0932003B0932103BF91AF919F918F9121
:1052F0001F901FBE1F9018951F921FB61F9211245A
:105300008F939F93AF93BF9380911303811113C029
:1053100080911E0390911F03A0912003B09121035F
:105320004196A11DB11D80931E0390931F03A0936E
:105330002003B0932103BF91AF919F918F911F9054
:105340001FBE1F901895AA1BBB1B51E107C0AA1FC7
:10535000BB1FA617B70710F0A61BB70B881F991F16
:105360005A95A9F780959095BC01CD01089597FBBA
:10537000072E16F4009407D077FD09D00E94A329C8
:1053800007FC05D03EF4909581959F4F0895709548
:1053900061957F4F0895EE0FFF1F0590F491E02D6A
:1053A00009946927962769277827872778270895FA
:1053B0008F929F92AF92BF92CF92DF92EF92FF9225
:1053C000CF93DF93EC01688179818A819B8161159C
:1053D00071058105910521F464E279ED8BE597E093
:1053E0002DE133EF41E050E00E948C2A49015A013F
:1053F0009B01AC01A7EAB1E40E94AB2A6B017C01DE
:10540000ACEEB4EFA50194010E94B92ADC01CB01F6
:105410008C0D9D1DAE1DBF1DB7FF03C00197A109D7
:10542000B04888839983AA83BB839F77DF91CF910C
:10543000FF90EF90DF90CF90BF90AF909F908F90B4
:1054400008950E94D829089580E091E00E94D8290B
:105450000895B0E0A0E08093000190930101A09333
:105460000201B09303010895DC01CB01FC01F9991D
:10547000FECF06C0F2BDE1BDF89A319600B40D92A0
:1054800041505040B8F70895F999FECF92BD81BDC3
:10549000F89A992780B50895A6E1B0E044E050E07D
:1054A0000C94362AA8E1B0E042E050E00C94362A91
:1054B000DC01A40FB51F4150504048F0CB01840FD0
:1054C000951F2E910E94692A41505040D0F70895AF
:1054D000262FF999FECF92BD81BDF89A019700B4AD
:1054E000021639F01FBA20BD0FB6F894FA9AF99A4D
:1054F0000FBE08950396272F0E94692A0E94682AEA
:10550000252F0E94692A242F0C94692A0196272F9F
:105510000E94692A0C94682A052E97FB1EF40094B9
:105520000E94A32A57FD07D00E94BE2A07FC03D081
:105530004EF40C94A32A50954095309521953F4FF9
:105540004F4F5F4F089590958095709561957F4F6F
:105550008F4F9F4F08950E94E02AA59F900DB49F02
:10556000900DA49F800D911D11240895B7FF0C94F8
:10557000AB2A0E94AB2A821B930B0895A1E21A2E3C
:10558000AA1BBB1BFD010DC0AA1FBB1FEE1FFF1FE7
:10559000A217B307E407F50720F0A21BB30BE40B37
:1055A000F50B661F771F881F991F1A9469F760957E
:1055B0007095809590959B01AC01BD01CF01089538
:1055C000A29FB001B39FC001A39F700D811D112444
:1055D000911DB29F700D811D1124911D0895F894A5
:1055E000FFCFF40FF40FFD0FFD0FFF0FFD0FFD0FA9
:1055F000FD0FF40FF40F0410FD0FFD0F0410BC138A
:10560000E4133714E413371417144F1437144C15DC
:1056100059158F198F19021A021A601A7A1AC619A7
:10562000C619851A5B1B6C1B6C1BF227F6274028DA
:1056300051285C287B284E284E284E284E284E287C
:105640007E2881288428A928CB28CE28D028F52890
:1056500041254D25C7250D265A265F26622665263B
:1056600068266D267326762679267E268126842650
:08567000C8260C275427572718
:1056780001000000FFFF20064B112A1126112211FC
:105688000100FF000300FFFF003131295A1B750A92
:10569800818283E200E900EA00B500B600B700CDD8
:1056A800008301CC008A0192019401210223022483
:1056B800022502260227022A02B300B4006F0070F6
:1056C800003790919293956766363534979496F79C
:1056D800F6C6F0F1F4F500FF0100010000FFFF003D
:1056E80000010001FF004022B684016201AC0056AF
:1056F800066F068F06000102030405060700000076
:105708000000000008090A0B0C0D0E0F0000000035
:105718000000001011121314000000000000000027
:105728000000000000000000000000000000000071
:105738000000000000000000000000000000000061
:1057480000000000000000000000000000000069E8
:105758003C463C233C003C0028001400002A00542E
:10576800007E00A800D200D214D228281478142869
:10577800287828D23CAF3C8C3C0101010101010191
:0E578800010101010101010101010101010105
:00000001FF
