:100000000C94A7030C94EE030C94EE030C94EE03F3
:100010000C94EE030C94EE030C94EE030C94EE039C
:100020000C94EE030C94EE030C9414240C94D02343
:100030000C94882E0C94EE030C94EE030C94EE03B7
:100040000C94EE030C94EE030C94EE030C94EE036C
:100050000C94EE030C94642E0C94EE030C94EE03BB
:100060000C94EE030C94EE030C94EE030C94EE034C
:100070000C94EE030C94EE030C94EE030C94EE033C
:100080000C94EE030C94EE030C94EE030C94EE032C
:100090000C94EE030C94EE030C94EE030C94EE031C
:1000A0000C94EE030C94EE030C94EE03050109028C
:1000B000A10185020901A1000509190129081500FE
:1000C0002501950875018102050109300931158165
:1000D000257F95027508810609381581257F9501D0
:1000E00075088106050C0A38021581257F95017572
:1000F000088106C0C005010980A101850319012AF4
:10010000B700150126B700950175108100C0050CD8
:100110000901A101850419012AA002150126A002E6
:10012000950175108100C005010906A1018505052D
:100130000719E029E71500250195087501810205D9
:1001400007190029EF1500250195F07501810205B9
:10015000081901290595057501910295017503910D
:1001600001C00660FF0961A1010962150026FF00B8
:100170009520750881020963150026FF00952075FA
:10018000089102C005010906A101050719E029E748
:1001900015002501950875018102950175088101F9
:1001A0000507190029FF150026FF0095067508812F
:1001B000000508190129059505750191029501753C
:1001C000039101C0000101010101010101010202CD
:1001D00002020202020202030303030303030304F5
:1001E00004040404040405050505050606060606C0
:1001F000070707070708080808090909090A0A0A7A
:100200000B0B0B0C0C0C0D0D0D0E0E0E0F0F0F101B
:1002100010111111121213131414151516161717A5
:10022000181819191A1A1B1B1C1D1D1E1E1F202011
:10023000212222232424252626272829292A2B2C5B
:100240002D2D2E2F30313232333435363738393A7E
:100250003B3C3D3E3F404142434445464748494A76
:100260004C4D4E4F50515354555658595A5B5D5E44
:100270005F616264656668696B6C6D6F70727375DF
:1002800077787A7B7D7E8082838587888A8C8E8F43
:1002900091939596989A9C9EA0A2A3A5A7A9ABAD71
:1002A000AFB1B3B5B7BABCBEC0C2C4C6C9CBCDCF5F
:1002B000D1D4D6D8DBDDDFE2E4E7E9EBEEF0F3F50D
:1002C000F8FAFDFF000029003A003B003C003D0029
:1002D0003E003F0040004100420043004400450012
:1002E000C25C35001E001F002000210022002300F8
:1002F00024002500260027002D002E002A004C0097
:100300002B0014001A000800150017001C0018002C
:100310000C00120013002F00300031004B00390098
:1003200004001600070009000A000B000D000E0073
:100330000F0033003400000028004E00E1000000F0
:100340001D001B00060019000500110010003600FA
:1003500037003800E50052004D00E000E300E20005
:10036000A900AA0000002C00000000000000E60028
:100370000151500051004F0000000000000000003B
:10038000000000000000000000000000000000006D
:100390000000000000000000010001000100010059
:1003A00001000100010001000100010001007200D4
:1003B00073000100010001000100010001000100C3
:1003C0000100010001000100010001000100010025
:1003D000C55CC25C010001000100010001000100D8
:1003E0000100010001000100010001000100C65CE4
:1003F00001000100010001000100010001000100F5
:10040000010001000100010000000100C75C0100C3
:1004100000000100010001000100010001000100D5
:100420000100010001000100C95CC85C010001007D
:1004300001000100010000000100000000000000B8
:10044000C35C0100CC5CCA5CCB5C00000000000017
:10045000000000000000000000000000000000009C
:100460000000000000000000000001000100010089
:100470000100010001000100010001000100010074
:100480000100010001000100010001000100010064
:100490000100010001000100010001000100010054
:1004A0000100010001000100010001000100010044
:1004B0000100010001000100010001000100010034
:1004C0000100010001000100010001000100010024
:1004D0000100010001000100010000000100010015
:1004E0000100000001000100010001000100010005
:1004F00001000100010001000100010001000100F4
:1005000001000100010001000000010000000000E6
:1005100000000100010001000100010000000000D6
:1005200000000000000000000000000000000000CB
:1005300000000000000000000000000001000100B9
:1005400001000100010001000100010001000100A3
:100550000100010001000100010001000100010093
:100560000100010001000100010001000100010083
:100570000100010001000100010001000100010073
:100580000100010001000100010001000100010063
:100590000100010001000100010001000100010053
:1005A0000100010001000100010001000000010044
:1005B0000100010000000100010001000100010034
:1005C0000100010001000100010001000100010023
:1005D0000100010001000100010000000100000015
:1005E0000000000001000100010001000100000006
:1005F00000000000000000000000000000000000FB
:1006000000000000000000000000000000000000EA
:1006100000000000000000000000000000000000DA
:1006200000000000000000000000000000000000CA
:100630007E0F00D4FFFFFFC700000078000000001D
:10064000000000002A2B280000000000000000002D
:100650000000000000000029000000002C1E3420D3
:10066000212224342627252E362D3738271E1F20F9
:100670002122232425263333362E37381F0405063E
:100680000708090A0B0C0D0E0F1011121314151682
:100690001718191A1B1C1D2F3130232D3504050680
:1006A0000708090A0B0C0D0E0F1011121314151662
:1006B0001718191A1B1C1D2F3130354C09025B000D
:1006C000030100A0FA09040000010301010009214F
:1006D000110100012240000705810308000A0904F6
:1006E0000100020300000009211101000122220083
:1006F0000705820320000107050303200001090408
:100700000200010300000009211101000122B600CE
:100710000705840320000A1201100100000008A14F
:100720007B01750100010200010A034D00570037EB
:10073000003500000012034D00570053007400758F
:1007400000640069006F0000000403090400112424
:100750001FBECFEFDAE0DEBFCDBF04B603FE27C079
:100760008091C5059091C605A091C705B091C805B7
:100770008730904BA740B04BD1F41092C505109232
:10078000C6051092C7051092C80514BE84B7877FAE
:1007900084BF0FB6F894A89580916000886180931B
:1007A0006000109260000FBEE0E0F8E3099525E0DC
:1007B000A2E1B3E001C01D92A53CB207E1F713E04E
:1007C000A0E0B1E0EAECF0E602C005900D92A231A3
:1007D000B107D9F70E94EB240C9404300C9400006C
:1007E000E8EDF0E080818E7F80831092E20010922D
:1007F000DA001092E100A0EEB0E08C9181608C9361
:1008000080818F77808319BCA7EDB0E08C918E7FBB
:100810008C9380818F7E808310925C050895209157
:10082000E4003091E50095E6A9012091EC00822FCB
:10083000817020FF06C08091E80080FF06C080E044
:1008400008952091E80022FD1AC080918105882337
:1008500089F0853089F08091EB0085FD0FC02091F3
:10086000E4003091E50042175307F9F29150E1F6A8
:1008700084E0089582E0089583E0089581E008957A
:10088000EF92FF920F931F93CF937C018B010E94F5
:100890000F04C82F811117C08091E80085FD0BC09F
:1008A0008091E8008E778093E8000E940F048823EF
:1008B00099F3C82F08C0F70181917F018093F1005F
:1008C0000150110949F78C2FCF911F910F91FF9083
:1008D000EF9008958091830587FF13C08091E80011
:1008E00082FF06C08091E8008B778093E80004C007
:1008F000809181058111F2CF08958091810588232F
:10090000D9F38091E80080FFF8CF8091E8008E77DE
:10091000ECCF982F9093E900242F762F50E0891781
:1009200031F07091EC002091ED005091F00021FD2C
:1009300007C09F5F973071F78093E90081E00895C9
:100940003091EB003E7F3093EB003091ED003D7F26
:100950003093ED003091EB0031603093EB007093F9
:10096000EC002093ED005093F0002091EE0027FD65
:10097000E0CF80E00895CF92DF92EF92FF920F9345
:100980001F93CF93DF93C8EDD0E088818F7E88835B
:10099000E7EDF0E080818160808384E082BF81E0C8
:1009A00080935C0588818E7F888302EE10E0F801D9
:1009B00010821092DA0081EEC82ED12CF60110823E
:1009C00088818F77888388818068888388818F7DFC
:1009D000888319BC109281051092820510928005BF
:1009E00010927F0590EEE92EF12CF70180818B7F2C
:1009F000808388818160888342E060E080E00E949B
:100A00008904F60180818E7F8083F8018081816076
:100A10008083808188608083F70180818E7F8083DE
:100A2000888180618883DF91CF911F910F91FF9022
:100A3000EF90DF90CF900895FC018091890590910F
:100A40008A0586179707A0F06115710529F4909122
:100A5000E8009E779093E80090E06115710551F4ED
:100A6000911108C08091E80082FF34C080E00895B1
:100A7000BC01F2CF809181058823C1F18530C1F19D
:100A80008091E80083FD30C08091E80082FDEACFCC
:100A90008091E80080FFE1CF8091F3002091F20087
:100AA000382F6115710519F02830310558F091E0A3
:100AB0002830310509F090E02091E8002E7720934E
:100AC000E800CBCF81918093F100615071092F5FD5
:100AD0003F4FE7CF80918105882341F0853041F079
:100AE0008091E80083FFBECF81E0089582E0089501
:100AF00083E00895EF92FF920F939701201B310935
:100B00002F3F310519F010F02FEF30E02095382FEE
:100B1000320F08F43FEF832F0F91FF90EF9008956D
:100B2000EF92FF920F939701201B31092F3F310560
:100B300019F010F02FEF30E0322F3095482F430F8F
:100B400008F44FEF842F620F0F91FF90EF900895FC
:100B5000EF92FF920F93972F093438F4B701601B7F
:100B600071096F3F710519F010F06FEF70E0485F89
:100B70005F4F4131510540F0A901485F5F4F41315E
:100B8000510510F06FEF70E06095482F460F08F4A4
:100B90004FEF842F37FF02C02D5F3F4F35952795CC
:100BA000359527956091BC05620F792F0F91FF90C5
:100BB000EF900895EF92FF920F931F930E0D1F2D4C
:100BC000111DF90137FF03C0F195E195F10924E00A
:100BD000EE0FFF1F2A95E1F7EF3FF10519F014F032
:100BE000EFEFF0E09A0157FF03C0319521953109ED
:100BF00094E0220F331F9A95E1F72E173F070CF46C
:100C0000F901E00FF11FEF3FF10519F010F0EFEFE0
:100C1000F0E0E095282F3E2F230F08F42FEF822FCE
:100C20001F910F91FF90EF900895EF92FF920F9315
:100C3000970195E0099F200D311D11242F3F3105AB
:100C400019F010F02FEF30E02095382F320F08F414
:100C50003FEF832F0F91FF90EF90089522E8241B20
:100C600008F420E0620F08954095282F429F412DFF
:100C70001124842F0895E42FF0E0EE0FFF1FE151BF
:100C8000FE4F9081921B97FD9195292F38E1239F6C
:100C9000212D1124620F08950F931F9310E0F80186
:100CA000EE0FFF1FE151FE4F9081905797FD9195F8
:100CB000000F111FF801E051FE4F00810052110B8F
:100CC0002003F001219FF00D112408E310E0091B1F
:100CD000110997FD139540039001419F300D112498
:100CE000E20FF31F9F01220F331F2E0F3F1F37FF0D
:100CF00002C021583F4F220F232F221F330B620FB8
:100D00001F910F9108950F931F93522F10E0F80138
:100D1000EE0FFF1FE051FE4FA081A052BB0B9D01C3
:100D20005203F001539FF00D1124000F111FD80141
:100D3000A151BE4F0C910057110B40039001419FF0
:100D4000300D11242E0F3F1F37FF02C0215C3F4F93
:100D500096E0359527959A95E1F7620F1F910F91CF
:100D600008950F931F93522F10E0F801EE0FFF1F0D
:100D7000E051FE4FA081A052BB0B9D015203F00138
:100D8000539FF00D1124000F111FD801A151BE4F28
:100D90000C910057110B40039001419F300D11241D
:100DA0002E0F3F1F37FF02C021583F4F220F232F26
:100DB000221F330B620F1F910F910895EF920F9333
:100DC000972F23E0029FB0011124759567956E0D52
:100DD000792F0F91EF900895322F50E0FA01EE0F26
:100DE000FF1FE051FE4F9081905297FD9195440F67
:100DF000551FFA01E151FE4F2081231B330B290FB0
:100E0000311D97FD3A95620F0895E42FF0E0EE0F43
:100E1000FF1FE051FE4F6081621B0895E42FF0E058
:100E2000EE0FFF1FE151FE4F6081621B0895622F9C
:100E30000895E42FF0E0EE0FFF1FE151FE4F4081D7
:100E400034EE439F412D1124E82FF0E050E0445E42
:100E50005F4FDA01A21BB1099D01B7FF03C03195B5
:100E60002195310993E0220F331F9A95E1F7AF01E5
:100E7000421B530B9A0157FD20E0582F259F212D2F
:100E80001124822F0895E42FF0E0EE0FFF1FE151AF
:100E9000FE4F408134EE439F412D1124E72FF0E0B7
:100EA00050E0445E5F4FDA01A21BB1099D01B7FF1C
:100EB00003C031952195310993E0220F331F9A9594
:100EC000E1F7AF01421B530B9A0157FD20E0279F2A
:100ED000212D1124722F089580E0089580915E05E0
:100EE00008959C014FB7F89480912B0590912C05A3
:100EF000A0912D05B0912E054FBF821B930B089535
:100F00002FB7F89460912B0570912C0580912D05D9
:100F100090912E052FBF08952FB7F89480912B053F
:100F200090912C05A0912D05B0912E052FBF08950D
:100F3000209110012223C9F02091E70427FF15C05A
:100F4000E62FE695E695E695EE31D8F4E80FF92F11
:100F5000F11D677021E030E001C0220F6A95EAF7C9
:100F600020958281282322830895FC0132960896D9
:100F70002191621303C0DF0111971C92E817F90752
:100F8000B9F70895209110012223C1F02091E704C0
:100F900027FF14C0E62FE695E695E695EE31F8F4C6
:100FA000E80FF92FF11D677021E030E001C0220F3A
:100FB0006A95EAF78281822B82830895FC0132963A
:100FC0002FEF30E04191641751F02F3F19F4411198
:100FD00001C0232F3F5F3630A9F72F3F09F4089552
:100FE000820F911D27FD9A95FC01628308958091DF
:100FF000E20481111092E20408958091E10490913D
:10100000E004892B9091DF04892B80931403909145
:10101000E2049923A1F0892B80931403809110019D
:10102000882341F18091E70487FF24C08EE1E6E147
:10103000F3E090E0815000F591110E94F707E091F4
:101040002505F09126053097E1F080911001882365
:1010500059F08091E70487FF07C0809114038093C3
:10106000150385E0809314030280F381E02D84E171
:1010700093E0099486E0DBCF21912223D9F29F5F90
:10108000D9CF08952FE0929F800D1124982F97704B
:1010900086958695869525E0829FF0011124E85675
:1010A000FB4F50E040E080E0219130E0092E02C08B
:1010B000369527950A94E2F721703327042E01C054
:1010C000220F0A94EAF7822B4F5F5F4F453051059C
:1010D00059F708952FE0929F800D1124982F977053
:1010E00041E001C0440F9A95EAF78695869586956A
:1010F00095E0899FF0011124E856FB4F90E080E0D5
:1011000070E05191DF0111979B01082E02C03695C6
:1011100027950A94E2F72170219525272423252776
:101120002C9301968530910561F70895809197047D
:1011300090916604981301C008958F5F8770FACF6D
:10114000882341F080959091E10489238093E10404
:101150000C94FD070895882339F09091E104982BB1
:101160009093E1040C94FD07089520915C04309164
:101170005D042817390771F090935D0480935C0437
:10118000E0912505F0912605309721F00084F18546
:10119000E02D0994089520915A0430915B0428179A
:1011A000390771F090935B0480935A04E091250510
:1011B000F0912605309721F00680F781E02D099403
:1011C0000895E0912505F0912605309721F00190D2
:1011D000F081E02D099480E00895FA01811101C0A9
:1011E000FB010994E7E3F3E0818360834283339654
:1011F00094E0EA35F907C1F70895FC01EE0FFF1FEF
:10120000E80FF91FE95CFC4F618340832283089556
:101210000C94F2080C94FD08FC019B01009729F442
:1012200080E077FF2BC080E80895AC0197FF04C0F1
:1012300044275527481B590BB901640F751F37FD0B
:1012400010C0241B350BC901A5E0880F991FAA9572
:10125000E1F70E94C32E80E2861BF7FF0FC0819545
:101260000895CB0165E0880F991F6A95E1F7BA01EF
:10127000621B730B0E94C32E80E6EECF0895EF929F
:101280000F93CF93DF93D72FC82FC9010E19BA013F
:101290000E940C09602F681B7D2F8C2FDF91CF914E
:1012A0000F91EF9008950F93CF93DF93D72FC82F0F
:1012B000C901BA010E940C09682F600F7D2F8C2F85
:1012C000DF91CF910F910895EF920F931F93CF93DA
:1012D000DF93D62FC72F182FC9010E19010FBA019E
:1012E0000E940C09081B202F219F212D1124822FE1
:1012F0006D2F7C2FDF91CF911F910F91EF9008956B
:10130000EF920F931F93CF93DF93D62F172FC82FF2
:10131000C9010E19070FBA010E940C09702F781B22
:10132000719F712D11246D2F8C2FDF91CF911F9103
:101330000F91EF9008950F931F93CF93DF93D62FC4
:10134000C72F182FC901212F201B022FBA010E947D
:101350000C09982F990F990F891B800F282F219F17
:10136000212D1124822F6D2F7C2FDF91CF911F9182
:101370000F9108950F931F93CF93DF93D62F172FBD
:10138000C82FC901272F201B022FBA010E940C0968
:10139000982F990F990F782F791B700F719F712DCE
:1013A00011246D2F8C2FDF91CF911F910F910895F4
:1013B000E82F86FDE0952E2F2F7086FD2F5FE69596
:1013C000E695E695E670F0E0E85EFE4F9181929F2B
:1013D000902D212D112492959F702295207F922B84
:1013E0002081920F87FD919580E8890F08950F93D2
:1013F0001F93CF93DF938B01D82FC42F822F0E948E
:10140000D809EC2FF0E0EE0FFF1FE151FE4F908165
:101410009058890F87FD8195880F682F2CE0629F77
:10142000612D1124600F712F8D2FDF91CF911F91AE
:101430000F910895AC018230910508F408959FEF53
:10144000413E8EE1580740F49A0195E03695279584
:101450009A95E1F798E0920F61E0E62FE90FFF27F8
:10146000FF1F9F0135952795822F229FF001239F13
:10147000F00DF00D11244E175F0738F49FEF920F17
:10148000961758F78FEF860F08952F3FE9F361E025
:10149000620FF6CF0F93CF93DF93D72FC82F47FD5F
:1014A000419588E390E0841B910947FD9395889FBF
:1014B000B001899F700D700D1124229FC001239FE0
:1014C000900D900D1124860F971F0E941A0A982FD5
:1014D000990F890F682F600F7D2F8C2FDF91CF918F
:1014E0000F91089530E020E0869F212D969F200DDA
:1014F000311D1124C9010895AF92BF92CF92DF929E
:10150000FF920F931F93CF93DF93362F472FE82F30
:10151000F0E0EC53FE4F71110FC0E4918E2F2E2F8F
:101520006E2F722FDF91CF911F910F91FF90DF905F
:10153000CF90BF90AF900895C72FD0E02491F22EA6
:10154000022F10E056E0659FC0011124EFEFF0E09C
:10155000BF010E94AF2E832F90E0880F991F35E5C1
:10156000369FD001379FB00D11248A1B9B0B982FFB
:10157000990F980F6F01CC1ADD0AC09ED001C19E51
:10158000B00DD09EB00D11248B2F499FA0011124C6
:10159000452F55276F01C41AD50AC09EA001C19ED0
:1015A000500DD09E500D11245F01A91AB108AC9EB8
:1015B0006001AD9ED00CBC9ED00C1124CD2CDD243E
:1015C000EC19FD09E09FE001E19FD00DF09FD00DE7
:1015D0001124ED2F62307105A1F050F461157105F1
:1015E00009F49ECF6130710581F0EB2F852F98CFE4
:1015F0006430710569F080F06630710509F490CFB0
:10160000F4CFE22F2B2F8D2F8BCFE22F252F88CFDA
:10161000EB2F822F2D2F84CF2B2F8F2DE52F80CFD7
:101620007F928F929F92AF92BF92CF92DF92EF9272
:10163000FF920F931F93CF93DF935C01C091110131
:1016400084E1C89FC02D112414E11C0FF12E123625
:1016500010F031E6F32E6091BF0566958091B405D8
:101660009091B5050E94720A782ED0E0CF1590F0C7
:1016700081E0113608F080E0DF91CF911F910F914A
:10168000FF90EF90DF90CF90BF90AF909F908F90A2
:101690007F900895FE01EF54FD4F808190911201DB
:1016A0008923C9F1CE01880F991F8A579E4FFC01EB
:1016B000E759FF4F2081422F4057550B6A01865949
:1016C0009F4FFC018081282F2052330B4901449FFA
:1016D0009001459F300D300D1124889CC001899CDC
:1016E000900D900D1124820F931F0E941A0A082F4B
:1016F0006091BC057091BD058091BE05E72C9401F9
:10170000A601F50109950E947C0A462F282F672F14
:10171000CE010E940A092196A9CFCF92DF92EF92C3
:10172000FF920F931F93CF93DF937C01C091110120
:1017300084E1C89FC02D112414E11C0FD12E123654
:1017400010F031E6D32E6091BF0566958091B40507
:101750009091B5050E94720AC82ED0E0CD1568F0B0
:1017600081E0113608F080E0DF91CF911F910F9159
:10177000FF90EF90DF90CF900895FE01EF54FD4F62
:10178000808190911201892311F1CE01880F991F58
:101790008A579E4FFC01E659FF4F20812052330BA0
:1017A00087599F4FFC0140814057550B6091BC0504
:1017B0007091BD058091BE050C2DF70109950E9421
:1017C0007C0A462F282F672FCE010E940A092196F6
:1017D000C5CFDF92EF92FF920F931F93CF93DF93CA
:1017E0007C01C091110184E1C89FC02D112414E136
:1017F0001C0F012F123608F001E66091BF056695B7
:10180000669521E0620F08F46FEF8091B405909126
:10181000B5050E94720AD82ED0E0C01760F081E0B2
:10182000113608F080E0DF91CF911F910F91FF906A
:10183000EF90DF900895FE01EF54FD4F808190916D
:101840001201892391F06091BC057091BD058091D2
:10185000BE052D2D4C2FF70109950E947C0A462FBD
:10186000282F672FCE010E940A092196D6CF9F927A
:10187000AF92BF92CF92DF92EF92FF920F931F939E
:10188000CF93DF936C01C091110184E1C89FC02DFB
:10189000112414E11C0FB12E123610F031E6B32ED4
:1018A0006091BF05669566958091B4059091B505E8
:1018B0000E94720AF82E80E48F0D0E94D80990E8E9
:1018C000A92EA80E8F2D0E94D80920E8922E980EDE
:1018D000D0E0CB1580F081E0113608F080E0DF9198
:1018E000CF911F910F91FF90EF90DF90CF90BF901D
:1018F000AF909F900895FE01EF54FD4F808190912D
:1019000012018923A1F06091BC057091BD05809101
:10191000BE05EF2C0C2F292D4A2DF60109950E94AA
:101920007C0A462F282F672FCE010E940A09219694
:10193000D0CFCF92DF92EF92FF920F931F93CF936E
:10194000DF938C01C091110184E1C89FC02D112447
:1019500024E1D22EDC0ECD2C21E62D1510F491E6DB
:10196000C92E2091BF0531E0230F08F42FEF30E09E
:1019700050E040E06FEF7FEF80E090E00E94A12F09
:101980007901D0E02C2FCC1570F081E0F0E6FD1548
:1019900008F480E0DF91CF911F910F91FF90EF90BD
:1019A000DF90CF900895FE01EF54FD4F808190911C
:1019B0001201892311F140918B054150042E000C36
:1019C000550B47FF1CC0C7016091BF0521E0620FA6
:1019D00008F46FEF0E94720AAC016091BC0570912F
:1019E000BD058091BE05F80109950E947C0A462F2D
:1019F000282F672FCE010E940A092196C3CFFA0132
:101A0000E557FA4F818982130AC0FA01EE0FFF1FD2
:101A1000E557FA4F818D928D8E159F05A8F24150A2
:101A20005109CFCF2F923F925F926F927F928F9208
:101A30009F92AF92BF92CF92DF92EF92FF920F935D
:101A40001F93CF93DF93CDB7DEB72A970FB6F894E5
:101A5000DEBF0FBECDBF8B837E836D8320911101CE
:101A600084E1289F802D11248F838C5E89838A8353
:101A7000823610F031E63A8380918B058C83FF81AA
:101A8000EF2FF0E0FA87E987CF01880F991F9C01BB
:101A900021513E4F69013B81832F90E0FC0131963B
:101AA000F887EF838A8199859817E8F081E0E981CA
:101AB000E13608F080E02A960FB6F894DEBF0FBE3C
:101AC000CDBFDF91CF911F910F91FF90EF90DF90ED
:101AD000CF90BF90AF909F908F907F906F905F90CE
:101AE0003F902F900895E985FA85EF54FD4F80814E
:101AF000909112018923F1F02090BC053090BD0532
:101B00002F81388525573A4F39015B8010E0FC81E1
:101B10005F16D0F02091BE05129F112D1124B10146
:101B2000812F0E947C0A462F282F672F89859A854E
:101B30000E940A0929853A852F5F3F4F3A872987F6
:101B400032E0C30ED11CAECFF30181913F01F6010B
:101B5000A080A81ABB088180F3018781881A9908A0
:101B6000AA9C9001AB9C300D300D1124889CC001C3
:101B7000899C900D900D1124820F931F0E941A0AC8
:101B8000082F6091BF0521E0620F08F46FEFF301A9
:101B9000EE0FFF1FEB58F540858996890E94720A67
:101BA0007C019401A501B101812FED81FE81099590
:101BB0001B015394182FABCF0E948C079C0190916E
:101BC0003A0580913B05982B21F0309337052093FF
:101BD000360590913C0580913D05982B21F030937E
:101BE000340520933305E0912505F09126053097C3
:101BF00049F082E0809338050480F581E02D88E388
:101C000095E00994089590E080E00E94CB0890E070
:101C100080E00E94B5081092E0041092DF040E9458
:101C2000FD0786E0E8E3F5E0DF011D928A95E9F71C
:101C3000109235051092320510925F040C94DC0D61
:101C40006093C1057093C2058093C3059093C4054A
:101C50000C94030E0F931F936091C1057091C20500
:101C60008091C3059091C4058B019C0106701127DA
:101C700022273327063011052105310529F4686034
:101C80001F910F910C94200E677FFACF0F931F9333
:101C900041E050E060E070E004C0440F551F661F53
:101CA000771F8A95D2F7CB01BA0160957095809520
:101CB00090950091C1051091C2052091C305309106
:101CC000C40560237123822393231F910F910C94E9
:101CD000200E9091DE04809589238093DE04282FC6
:101CE000277039F4282F082E000C330B9217130697
:101CF00021F49091E80492FF07C08595859585951C
:101D00000E94460E1092DE0408950F931F9341E047
:101D100050E060E070E004C0440F551F661F771F5D
:101D20008A95D2F78091C1059091C205A091C30513
:101D3000B091C4058A019B01082B192B2A2B3B2B40
:101D4000C901B8011F910F910C94200E6093E30418
:101D50007093E4048093E5049093E6040C94030EDE
:101D600040913A05803F59F480913B0587FF0DC0B3
:101D700010923B0541110BC01092350508C0813F00
:101D800081F480913B0518169CF3442381F08091E7
:101D90003C0590913D05892B09F05AC010923205FF
:101DA0000895823F49F447FFF0CF10923A058091A1
:101DB0003B058111ECCFE0CF833F19F41416ACF34F
:101DC000E4CF90913C05893F29F41916F4F610925E
:101DD0003C05DBCF8A3F19F497FFD7CFF8CF90911E
:101DE0003D058B3F29F497FFD0CF10923D05CDCF15
:101DF0008C3F19F41916CCF3C8CF9CE0980F95309E
:101E000090F4845F990B21E030E0B90102C0660FC5
:101E1000771F8A95E2F7CB01809590913905892348
:101E200080933905B2CF8D3F31F480915F048E7F6E
:101E300080935F04AACF8E3F21F480915F048D7F51
:101E4000F7CF8F3F09F0A1CF80915F048B7FF0CF58
:101E500008958823B1F19CEF980F913A38F4682FD8
:101E600084E193E00E9498070C94FD0790E2980F9C
:101E7000983088F4877021E030E0A90102C0440F57
:101E8000551F8A95E2F7CA0180959091E104892354
:101E90008093E104E9CF9BE5980F933020F490E024
:101EA00080E00C94CB0898E5980F973120F490E0EF
:101EB00080E00C94B508803F20F00E94B00E0C9496
:101EC000DC0D089580915F0480FD16C081FD16C071
:101ED00082FD16C0809132058823A1F0883280F4FB
:101EE00028E0829FC001112468E270E00E94C32EA6
:101EF000862F672B39F0089582E0089584E00895D5
:101F000088E0089581E0089580915F0480FD14C009
:101F100081FD14C082FD16C080913505882381F0B3
:101F2000843180F422E3829FC001112464E170E0D7
:101F30000E94C32E862F08958CE0089589E10895AC
:101F400085E0089582E30895803F31F40E94840F74
:101F5000819580933B050895813F19F40E94840F79
:101F6000F8CF823F31F40E94840F819580933A0527
:101F70000895833F19F40E94840FF8CF893F29F414
:101F80000E94620F80933C0508958A3F21F40E94CD
:101F9000620F8195F7CF8B3F31F40E94620F8195DC
:101FA00080933D0508958C3F19F40E94620FF8CF8D
:101FB0009CE0980F953070F4845F990B21E030E03D
:101FC00001C0220F8A95EAF780913905822B809310
:101FD000390508958D3F31F480915F0481608093CD
:101FE0005F0408958E3F21F480915F048260F7CFF3
:101FF0008F3FB9F780915F048460F1CFCF93C82FF2
:10200000882309F46FC08CEF8C0F813AC0F5809162
:102010001001882311F18091E70487FF1EC0EC2F87
:10202000E695E695E695F0E0EC5EFC4F828190E067
:102030004C2F477021E030E002C0220F331F4A9539
:10204000E2F782239323892B91F06C2F84E193E0B4
:102050000E9498070E94FD070AC0E6E1F3E08CE1C8
:1020600093E02191C21789F38E179F07D1F76C2F48
:1020700084E193E00E94C207CF910C94FD0780E2B7
:102080008C0F883068F4C77021E030E001C0220F67
:10209000CA95EAF78091E104822B8093E104ECCFAA
:1020A000EBE5EC0FE33040F4F0E0E05EFE4F8081C2
:1020B00090E0CF910C94CB08E8E5EC0FE73150F4B9
:1020C000F0E0EE0FFF1FED5DFE4F80819181CF911B
:1020D0000C94B508C03F30F08C2F0E94A40FCF9114
:1020E0000C94DC0DCF910895F894E82FE295EF70F1
:1020F000F0E031A1282F2F7081E090E001C0880F1F
:102100002A95EAF7982F9095932391A392A1892B72
:1021100082A3789408959091E70492FF06C0282F37
:1021200028712830F9F4877F846093FF06C0282F38
:1021300028712831F1F4877E84612091E80420FF22
:1021400006C0382F38713830D9F4877F816021FF7D
:1021500006C0282F28712831D1F4877E816194FD33
:10216000877E0895282F24712430F9F68B7F8860AC
:10217000DCCF282F2471243101F78B7E8861DDCFDD
:10218000382F3171313019F78E7F8860E0CF282FDA
:102190002171213121F78E7E8861E1CFCF92DF92CC
:1021A000EF92FF926C01EE24FF2420E0C114D104D1
:1021B000E104F10419F0C701B60120E1C72ED82EC1
:1021C000E92EFF24C114D104E104F10419F0285FC1
:1021D000C701B6016B017C0154E0F694E794D794F3
:1021E000C7945A95D1F7C114D104E104F10419F050
:1021F0002C5FC701B6016B017C0142E0F694E794C5
:10220000D794C7944A95D1F7C114D104E104F104DD
:1022100019F02E5FC701B60196958795779567955A
:10222000672B682B692B09F02F5F822FFF90EF90AF
:10223000DF90CF900895CF9384E090E00E94592FD3
:10224000C82F82E290E00E94592F982F8C2FCF91B7
:1022500008950F931F93CF93DF93C42FD0E0CC0F3B
:10226000DD1F2EE1629FC00DD11D112432ED839F31
:10227000C00DD11D1124CE0187960E94592F082F21
:1022800010E0102F0027CE0188960E94592F980148
:10229000282BC901DF91CF911F910F910895462FEF
:1022A000843038F4773028F46F3018F4672F0C94AA
:1022B000291190E080E00895CF93DF930E944F11A1
:1022C000EC0182389105A9F1D8F58133910509F423
:1022D00096C048F58932910509F48AC08A9709F4B5
:1022E00095C0C11521E5D20708F0BCC0C11530E585
:1022F000D30708F014C1C83ED10508F09CC0C03E09
:10230000D10560F5C83AD10508F087C0C53AD105B6
:1023100008F0FDC0C130D10509F12097F9F0C430B3
:10232000D105E0F440C08533910509F45AC0C9973E
:10233000C1F68091E704837089F0C0EED0E00EC052
:10234000833E910599F170F4803E910501F1823E42
:10235000910539F68091E70482FD21C0CE01DF911D
:10236000CF910895863E910561F1873E910571F107
:10237000843E910509F0B5CF8091E80481FFEECF4E
:102380008091E704C7EED0E084FD0DC0E7CF8091D7
:10239000E70480FD12C19091E80490FFDFCFC3EE07
:1023A000D0E084FFDBCFD0E0C0E0D8CF8091E7045D
:1023B00082FD06C19091E80490FDBFCF84FFCECF8F
:1023C000F2CF8091E70483FDDDCFC8CF8091E70491
:1023D00083FDF9C09091E80491FFF0CFC4EED0E006
:1023E000BDCF8091E70485FFB9CFC9E2D0E0B6CF79
:1023F0008091E70485FFB2CFC5E3D0E0AFCF8091F5
:10240000E70486FFABCFCAE2D0E0A8CF8091E70413
:1024100086FFA4CFC1E3D0E0A1CFCF3BD10518F612
:10242000C85AD0E0CC0FDD1FCD5DDE4F0990D881BA
:10243000C02DD46493CFC11540E2D40758F4C11520
:1024400081E0D80708F08ACFC03FD10508F4ABCFB0
:10245000D06584CFC11590E4D90708F4A4CFDF700C
:10246000D06A7CCFC11525E5D20700F5C11534E54A
:10247000D30708F08AC0C11543E5D40708F071C03E
:10248000C11582E5D80708F467C0CE01837099278B
:1024900021E030E002C0220F331F8A95E2F7C69593
:1024A000C69580E2C89FE001112452C0C11599E58C
:1024B000D907A8F4C11528E5D20708F06BC0C115EB
:1024C00036E5D30708F06FCF8C2F0E948B10C82FF2
:1024D000D0E0DC2FCC27CC27DF71D0623FCFC115F5
:1024E0004AE5D40708F45BC0CE01905681159042AE
:1024F00008F059CF8D2F8F710E948B1090E0982F8C
:10250000882788279F719C012C2BE901E6CFC55AAB
:10251000D0E0C05EDE4FC881D0E0D0641FCFCE01D6
:10252000E4E096958795EA95E1F783702C2F269540
:102530002695237040E2249F90011124382B8C2F84
:102540008370C1E0D0E002C0CC0FDD1F8A95E2F7B6
:10255000C22BD32BDC6802CFDC2FCC27C16FD06A13
:10256000FDCECE018370992721E030E002C0220F1A
:10257000331F8A95E2F7C695C69590E2C99FE001A0
:102580001124C22BD32BDA68E9CEDC2FCC27C46F01
:10259000D06AE4CEDC2FCC27C06FD06ADFCE8C2F80
:1025A0008F700E948B1034E0D695C7953A95E1F76D
:1025B000CF709C2FEC01D069D1CEC9E3D0E0CECE54
:1025C000C2EED0E0CBCEC6EED0E0C8CEBF92CF9266
:1025D000DF92EF92FF920F931F93CF93DF938C01C3
:1025E000C090C105D090C205E090C305F090C4052D
:1025F0008091E3049091E404A091E504B091E60495
:10260000C82AD92AEA2AFB2ACFE1D0E0BC2ED7017A
:10261000C6010C2E04C0B695A795979587950A9488
:10262000D2F780FD0EC0219788F7B12C8B2DDF915A
:10263000CF911F910F91FF90EF90DF90CF90BF90BF
:102640000895B8018C2F0E945C11019761F3EECFC1
:10265000CF93DF93EC010E94E612BE01DF91CF9190
:102660000C945C110E942813292F2F7092959F7053
:1026700092509E3078F4E92FF0E0EA5FFF4C0C9422
:10268000D72E803F19F020F4883E20F481E0089591
:10269000843FE1F380E00895883EC0F3813FD1F7A5
:1026A000F5CF822F86958695869508956F927F92B5
:1026B0008F929F92AF92BF92CF92DF92EF92FF9252
:1026C0000F931F93CF93DF9384ECC82E82E0D82E14
:1026D00097E1E92EFF24F394E701C25DD1093601A9
:1026E0001BC0F50185909490692DC8010E947D2F33
:1026F000682DC80101960E947D2F82E0A80EB11CB2
:102700000E5F1F4FC017D10761F78EE1680E711C75
:102710006E96CE15DF0529F08E010E511109530179
:10272000E0CF7E0182EDE80EF11C82EDC80ED11CD7
:102730008FE5E81684E0F80679F6DF91CF911F91D6
:102740000F91FF90EF90DF90CF90BF90AF909F9050
:102750008F907F906F900895CF93C091E804C2FB53
:10276000992790F9981781F080FBC2F9C093E8048B
:102770006091E70484E090E00E947D2F6C2F82E25C
:1027800090E0CF910C947D2FCF910895CF93DF935C
:10279000CFE6D3E060E0CE010E947D2F2196C115E7
:1027A00084E0D807B9F7DF91CF9108951F93CF93B5
:1027B000DF93EC01FC01EF54FD4F80816823A1F011
:1027C0000E94302F182F0E94302F612F782F809178
:1027D000BE050E947C0A462F282F672FCE01DF916D
:1027E000CF911F910C940A09DF91CF911F91089509
:1027F000DF92EF92FF920F931F93CF93DF938C01A1
:10280000FC01EF54FD4F8081682381F1D090BD051C
:10281000D091BE05C091BC05EC2EF12C0E94302F4A
:10282000282FC7018C549F4F68E671E00E94C32E89
:102830008E199F0997FD0396959587959595879590
:1028400023706C2F289F600D11247D2D8D2F0E94E9
:102850007C0A462F282F672FC801DF91CF911F9147
:102860000F91FF90EF90DF900C940A09DF91CF91C8
:102870001F910F91FF90EF90DF900895CF93DF931A
:1028800000D00F92CDB7DEB790918105943011F54D
:1028900089837B836A839093E9008FEF9091E800AE
:1028A000815095FD06C095ED9A95F1F700008111D4
:1028B000F5CF8091E80085FF0DC050E040E063E077
:1028C00070E0CE0101960E9440048091E8008E776E
:1028D0008093E8000F900F900F90DF91CF910895B3
:1028E000BC0184E00C943E14BC0183E00C943E14C3
:1028F0009C0184E08093E9009FEF8091E800915073
:1029000085FD06C085ED8A95F1F700009111F5CFA0
:102910008091E80085FF0CC050E040E066E070E088
:10292000C9010E9440048091E8008E778093E800FE
:102930000895CF93DF93EC01809110018823B1F1CA
:102940008091E70487FF32C060E284E08093E90071
:102950008FEF9091E800815095FD06C095ED9A9516
:10296000F1F700008111F5CF8091E80085FF1BC0D1
:102970008091100170E050E040E0811104C050E00F
:1029800040E068E070E0CE010E9440048091E800E1
:102990008E778093E80080E2FE01AFE5B5E001901C
:1029A0000D928A95E1F7DF91CF91089568E081E07B
:1029B000CDCF81E08093E00080E28093D800109238
:1029C000C9008FE19EE40197F1F700C0000087E0A5
:1029D00090EBDC018093C5059093C605A093C705D5
:1029E000B093C80588E19CE00FB6F894A895809351
:1029F00060000FBE90936000FFCF1F93CF93DF93D3
:102A0000182FD0E0C0E0893311F4C0E5D0E0812F69
:102A10000E94FE0F209731F4812FDF91CF911F91FB
:102A20000C94290F8FE99FE00197F1F700C0000097
:102A30002197F0CF0F931F93CF93DF93C62FD42FFF
:102A4000022FFC0182818823A1F06093BA050E94C5
:102A50008C079093B9058093B805C77081E001C0D9
:102A6000880FCA95EAF7DF91CF911F910F910C94CF
:102A7000AB088091BA05681335C08091B805909174
:102A8000B9050E947107883C910560F510E21D0FA1
:102A9000CD17B9F080E28C0F883040F4C77081E028
:102AA00001C0880FCA95EAF70E94A008183048F4C0
:102AB00081E09D2F977001C0880F9A95EAF70E94D8
:102AC000AB08802F0E94FD14183098F4D77081E075
:102AD00001C0880FDA95EAF7DF91CF911F910F912E
:102AE0000C94A008C77081E001C0880FCA95EAF76E
:102AF000F3CFDF91CF911F910F910895239A35B1B4
:102B0000377F25B128604FB7F89487E393E0FC0145
:102B10005191CF0168E025B9000000C057FF35B9D9
:102B2000550F000000C000C000C035B900C06A9554
:102B300091F7F4E08A359F0751F74FBF8FE594E096
:102B40000197F1F700C000000895AF92BF92DF92A5
:102B5000EF92FF920F931F93CF93DF93C1E5D1E0E4
:102B600009EE14E0D12CEE24E394F12C8991F89431
:102B7000E82FE295EF70F0E021A18F70A70102C06D
:102B8000440F551F8A95E2F7CA01922F982B91A303
:102B900092A18095892382A3789400C0E8E5F1E0B2
:102BA00030E020E0B12CA12C4191A42FA295AF7070
:102BB000B0E090968C9190E04F7002C0959587950B
:102BC0004A95E2F780FD78C0C701022E02C0880F47
:102BD000991F0A94E2F7A82AB92A2F5F3F4F2F3096
:102BE000310511F7FE01319780810E94741050EA7F
:102BF0005A95F1F7F80180819181A816B90609F478
:102C00005EC0B182A08281E0D82A0E5F1F4FF1E042
:102C1000C835DF0709F0AACFDD2009F452C081E0F2
:102C2000809336030E948C0790933503809334037E
:102C300080913403909135030E947107069708F440
:102C400044C08091E9049091EA0490934F058093E9
:102C50004E058091EB049091EC0490935105809384
:102C600050058091ED049091EE049093530580936C
:102C700052058091EF049091F00490935505809354
:102C800054058091F1049091F2049093570580933C
:102C900056058091F3049091F40490935905809324
:102CA00058058091F5049091F60490935B0580930C
:102CB0005A051092360309C090E080E08CCF80E086
:102CC000A3CF809136038111B3CF8D2DDF91CF91AA
:102CD0001F910F91FF90EF90DF90BF90AF900895FC
:102CE0006AEE7EEF90E080E00E949B2F60E082E041
:102CF00090E00E947D2F60E083E090E00E947D2FB5
:102D00001092E3041092E4041092E5041092E60499
:102D100060E084E090E00E947D2F60E082E290E03D
:102D20000E947D2F60E085E090E00E947D2F60E0B2
:102D300086E090E00E947D2F6FEF87E090E00E9498
:102D40007D2F40E050E0BA0188E090E00E948F2F94
:102D500060E08DE090E00E947D2F40E050E0BA01FD
:102D600088E190E00E948F2F60E087E190E00E9470
:102D70007D2F40E050E0BA018CE190E00E948F2F5F
:102D800070E060E080E290E00E949B2F40E050E025
:102D9000BA0188E190E00E948F2F40E050E0BA0134
:102DA0008FE090E00E948F2F40E050E0BA0183E175
:102DB00090E00C948F2F1092E10480911001E6E1D5
:102DC000F3E0882359F08091E70487FF07C08EE184
:102DD000DF011D928A95E9F70C94030E86E0F8CF87
:102DE0001F93CF93DF93CDB7DEB7AA970FB6F894B2
:102DF000DEBF0FBECDBF83E895E02091F100DC017E
:102E00002D93CD01B5E08B389B07B9F780918405F0
:102E1000833009F471C0B8F4813009F448C08230BD
:102E200009F4B2C08091E80083FF3AC18091830524
:102E3000909184059A3008F033C1E92FF0E0EC5E00
:102E4000FF4C0C94D72E8A3009F48DC08B3009F4D6
:102E500070C0893039F780918305813219F78091EC
:102E6000870590918805009711F00297D9F6809117
:102E7000E800877F8093E8008091E80082FF37C0F8
:102E80009091F3008091F200029729F48091F10073
:102E90008B7F813021F48091F10080935E058091D9
:102EA000E8008B778093E8000E946A04BBCF809192
:102EB0008305813A09F0B6CF8091E800877F80933F
:102EC000E8008091870590918805892B61F460E284
:102ED0008FE595E070E00E941C058091E8008B77FB
:102EE0008093E8009FCF60E090E080E0F3CF809196
:102EF00081058111C1CF96CF80918305813A09F078
:102F000091CF8091870590918805892B09F08ACF10
:102F10008091E800877F8093E8008091E80080FF3F
:102F2000FCCF809110018093F1008091E8008E77B2
:102F3000B9CF80918305813209F074CF80918705E4
:102F400090918805892B09F06DCF8091E800877FEB
:102F50008093E8000E946A048091850580931001A7
:102F60000E94DB165FCF80918305813209F05ACF32
:102F70008091E800877F8093E8000E946A04809136
:102F8000860580935D054ECF80918305813A09F0D7
:102F900049CF8091E800877F8093E8008091E80026
:102FA00080FFFCCF80915D05BECF803899F08238DC
:102FB00009F076C0809187058F70873008F070C067
:102FC0008093E9008091EB0085FB882780F91092BF
:102FD000E90006C080917F05909180059111826083
:102FE0009091E800977F9093E8008093F100109211
:102FF000F1008091E8008E77B5C1882309F4A2C161
:10300000823009F04DC0809185058111A6C1809163
:1030100087058F702FEF280F263008F041C080936E
:10302000E9002091EB0020FF98C1933031F48091AA
:10303000EB0080628093EB0090C19091EB00906177
:103040009093EB0021E030E001C0220F8A95EAF76F
:103050002093EA001092EA008091EB008860EACFAA
:1030600081111EC0109185051F778091E300807843
:10307000812B8093E3008091E800877F8093E800B4
:103080000E946A048091E80080FFFCCF8091E300F9
:1030900080688093E30082E0111183E080938105D2
:1030A0008091E80083FF0AC08091E800877F8093C9
:1030B000E8008091EB0080628093EB00AA960FB647
:1030C000F894DEBF0FBECDBFDF91CF911F91089561
:1030D0008058823028F720918505309186052C3D57
:1030E000E3E03E07A1F583E08A838AE289834FB754
:1030F000F894DE01139620E03EE051E2E32FF0E089
:1031000050935700E49120FF03C0E295EF703F5FBA
:10311000EF708E2F90E0EA30C0F0C7968D939D93AC
:103120002F5F243159F74FBF8091E800877F80934C
:10313000E8006AE270E0CE0101960E941C058091D1
:10314000E8008B778093E800ABCFC096E7CF809103
:10315000870590918805432F55274330510509F481
:103160004AC078F54130510509F47AC08BE590E00A
:10317000ECEBF6E04230510509F092CF2091E800E7
:10318000277F2093E8002091890530918A058217D6
:10319000930708F49C0140E02115310509F065C052
:1031A000411163C08091E80082FDC9CF8091810503
:1031B000882329F2853019F28091E80083FFF2CF4D
:1031C000BECF4132510509F43CC04232510509F0ED
:1031D00067CF8330910508F063CFFC01EE0FFF1F2E
:1031E000E658FE4F0190F081E02D89589E4FDC019A
:1031F0008C9190E01AC0332721303105D1F0211590
:10320000310561F02230310509F04ACFE9E2F7E0FB
:10321000E4918E2F90E0E9E2F7E007C0E9E4F7E0FF
:10322000E4918E2F90E0E9E4F7E0009709F438CFBD
:10323000A5CFE5E3F7E0E4918E2F90E0E5E3F7E03A
:10324000F4CF8330910508F02BCF880F991FFC0134
:10325000E058FE4F0190F081E02D89E090E08ECFA4
:1032600082E190E0E7E1F7E089CF80918105882352
:1032700009F465CF853009F462CF8091E80083FDC1
:103280005ECF8091E80082FD8DCF8091E80080FFC5
:1032900083CF9091F3008091F2002115310519F050
:1032A0008830910550F041E0089709F040E08091A6
:1032B000E8008E778093E8006FCF44914093F1004F
:1032C0003196215031090196E8CF803809F0E8CED7
:1032D0008091E800877F8093E80080918205809349
:1032E000F10087CE8111DCCE10918505123008F0F7
:1032F000D7CE8091E800877F8093E8001093820505
:103300000E946A04112311F084E005C08091E3005B
:1033100087FDFACF81E08093810542E061EC81E096
:103320000E94890442E261EC84E00E94890442E246
:1033300061EC82E00E94890442E260EC83E00E943A
:103340008904AECE80918505813009F0A9CE81E057
:10335000933009F080E0809380051092E90080911D
:10336000E800877F8093E8000E946A0499CE46E0D7
:1033700050E06CE170E08BEB95E00C946D2F909138
:10338000BB05937089F0811107C094609093BB05D1
:10339000109214010C94B719883210F09C69F6CF82
:1033A000880F880F982BF2CF08958091BB058695E2
:1033B0008695815009F487E20C94BF198091BB0572
:1033C000869586958F5F883208F081E00C94BF194E
:1033D0009091BB05937059F08093BC056093BD0537
:1033E000493C08F048EC4093BE050C94B719089589
:1033F000EBEBF5E0438120E1421B08F440E08181E2
:10340000628190E00C94E819EBEBF5E0438120E158
:10341000420F08F44FEF8181628190E00C94E8192B
:10342000EBEBF5E0628120E1621B08F460E0818152
:10343000438190E00C94E819EBEBF5E0628120E128
:10344000620F08F46FEF8181438190E00C94E819DA
:10345000EBEBF5E08181438162818850990B0C94FC
:10346000E819EBEBF5E0818190E0438162810896F9
:103470000C94E8193F924F925F926F927F928F92D5
:103480009F92AF92BF92CF92DF92EF92FF920F93F3
:103490001F93CF93DF9300D000D00F92CDB7DEB74C
:1034A0008C01FC0183819481892B31F08081918191
:1034B00089238F3F09F000C60F900F900F900F9057
:1034C0000F90DF91CF911F910F91FF90EF90DF90C0
:1034D000CF90BF90AF909F908F907F906F905F90B4
:1034E0004F903F9008950E94E612F82E682F898130
:1034F0009A810E946A0869817A818F2D0E944F11FA
:103500007C01F8018281882309F4C9C59701225101
:103510003F452031310508F08BC58FEF93E00E94C5
:10352000592FFEEEEF0E5FE6852E53E0952E882391
:1035300081F18091DE04877009F4BECFF8018281A9
:10354000882309F4B9CF82E00F900F900F900F906D
:103550000F90DF91CF911F910F91FF90EF90DF902F
:10356000CF90BF90AF909F908F907F906F905F9023
:103570004F903F900C94690E811424E09206C9F29A
:10358000C4010E94592F811101C0EA943FEF831AB0
:10359000930AE110F1CF1C821B82442443944AE039
:1035A000342E74018FEFE81AF80AC4010E94592FD3
:1035B00089831A82882309F4BCCF9FEF980F933038
:1035C00000F58A83498292E0890E911CC7010E940E
:1035D000592F8B83882309F4ACCFFE0131967F01EC
:1035E000F70120812223E9F2213009F049C09181BD
:1035F0008281913041F4F2E0EF0EF11C0E94FD1443
:1036000009C04701EACF923049F422E0E20EF11CF2
:103610000E94FE0F3FEFE31AF30AE2CF933031F43A
:1036200032E0E30EF11C0E94290FF4CF943021F018
:103630008FEFE81AF80AEECF92E0E90EF11C30E0C5
:1036400020E0B7016F5F7F4FF70141818053990BF5
:103650008A30910550F021503109E0F28FE99FE066
:103660000197F1F700C00000F6CF329EF001339EC3
:10367000F00D11249C012E0F3F1F842F7B01E1CF01
:10368000E22FF0E0E45CF94F5490822F8695869506
:10369000869590E0FC01E45DF94F64902770712CF1
:1036A000022E02C0759467940A94E2F7E1E06E225C
:1036B0007724FC01E45EF94FA490B12C022E02C0E5
:1036C000B594A7940A94E2F7F1E0AF22BB24FC0181
:1036D000E45FF94FC490D12C02C0D594C7942A95C9
:1036E000E2F721E0C222DD246114710419F081EEB9
:1036F0000E94FE0FA114B10419F086EE0E94FE0F85
:10370000852D0E94FD14AB2819F086EE0E94290F2A
:10371000672819F081EE0E94290FCD2809F47ACF8D
:103720008CE26CCF81E00E94850E0E942A0E01CFB0
:1037300081E00E94460EF9CF82E0F5CF882309F49C
:10374000F8CE90912705892F8E7F90FF816080931E
:103750002705409127055091280560912905709112
:103760002A0583E190E00E948F2FE3CE882309F49D
:10377000E0CE90912705892F8D7F91FF8260E7CF62
:10378000F5EFEF16FCE5FF0609F469C008F463C025
:1037900027E245EE66EE36EFE3163CE5F30609F464
:1037A0007AC4882309F499C41092BA0582E0E81615
:1037B0008CE5F80608F449C196E1E9169CE5F9069E
:1037C00030F0C7018A5F9C45099708F03EC10E940E
:1037D0001B119093E8048093E704E0E1EE16ECE51A
:1037E000FE0609F401C108F083C028E0E2162CE5CA
:1037F000F20609F4E7C008F04FC084E0E8168CE553
:10380000F80609F4D7C090F5E2E0EE16ECE5FE0606
:1038100009F4CAC08091E7048260F3E0EF16FCE58A
:10382000FF0609F4C4C06091E704F090E80484E066
:1038300090E00E947D2F6F2D82E290E00E947D2F0C
:103840000E94DB1676CE27E245EE65EE24C426E222
:1038500041EE60EE20C427E245EE64EE1CC426E291
:1038600041EE62EE18C428E241E0EFCF8091E70418
:10387000806126E0E2162CE5F20609F498C08091FA
:10388000E704886037E0E3163CE5F30608F48FC0F0
:103890008091E70480628BC08CE0E8168CE5F80626
:1038A00009F49AC078F48091E7048C60EAE0EE169F
:1038B000ECE5FE0609F47BC008F488C08091E704BB
:1038C0008E7F75C08091E704877F2EE0E2162CE59D
:1038D000F20609F46CC08091E7048B7F3FE0E316A9
:1038E0003CE5F30608F463C08091E7048F7E5FC077
:1038F0008BEFE8168CE5F80609F460C068F5E3E1A3
:10390000EE16ECE5FE0609F477C090F421E1E2162C
:103910002CE5F20609F46CC032E1E3163CE5F3064F
:1039200009F081CF0E94DB168091E7048F773FC0BA
:1039300085E1E8168CE5F80609F466C008F47AC05B
:103940008091E8048160EAEFEE16ECE5FE0609F0EE
:103950006ACF8093E80467CFFFEFEF16FCE5FF0620
:1039600009F44EC068F48091E8048D7F3DEFE316C2
:103970003CE5F30671F3A0F18091E8048360E9CFA0
:1039800091E0E9169DE5F90609F45DC008F448C028
:1039900060E0F2E0EF16FDE5FF0609F044CF8EE0AF
:1039A00090E00E947D2F3FCF8091E704816080935B
:1039B000E70439CF8091E7048460F9CF8091E8046F
:1039C0008260C7CF8091E7048064F1CF0E94DB164C
:1039D0008091E7048068EBCF8091E7048D7FE7CF8B
:1039E0008091E8048E7FB5CF8091E7048F7DDFCF93
:1039F0008091E7048F7BDBCF8091E704837FD7CF73
:103A00008091E8048C7FA5CF8091E70482FB992701
:103A100090F921E0922790FB82F990FB83F9C7CFC0
:103A20008091E804982F909591708E7F892B90FB60
:103A300081F98FCF0E94DB169091E704892F97FBC5
:103A400087F98058B4CF61E0AACF8091E10426E1E4
:103A5000E2162CE5F20609F04FC38A7A91E009F4E8
:103A600090E090935E0469E2811165E384E193E064
:103A70000E94C2070E94FD075CCD8091BB0591E0CA
:103A800089278093BB05109214010E94B71951CD6C
:103A900045ED59E16EED79E10E94ED084ACD4EED1C
:103AA00059E165ED79E1F8CF48E25AE161E37AE165
:103AB000F3CF41E35AE168E27AE1EECF40E15AE127
:103AC0006CE17AE1E9CF4CE15AE160E17AE1E4CFDF
:103AD00044E05AE168EF79E1DFCF43EB53E269EA72
:103AE00073E2DACF49EA53E263EB73E2D5CF81E0C8
:103AF0000E94BF191ECD8DE0FBCFFBE5EF16FDE563
:103B0000FF0611F12CE5E2162DE5F20609F026C3B9
:103B10008091E80482FB882780F991E089270E9440
:103B2000AC131CC30E94DB163FEF84E39CE03150D2
:103B300080409040E1F700C000000E94D9140E942C
:103B40007016F7CC81E0EBCF80E0E9CFC7010E948F
:103B50004208D82E12C32F2D2F70A22E8F2D807FBA
:103B600019F0A29490EFA922DD20C9F0AA2069F0F3
:103B700080E28E0D883010F081100BC08091E1043E
:103B8000A82AA092E1040E94FD078E2D0E94FE0F3C
:103B900019C08091E004A82AA092E004F4CF8E2DF1
:103BA0000E94290FAA2071F0A09480E28E0D883027
:103BB00010F081103DC08091E104A822A092E104A0
:103BC0000E94FD07232D2850330B2430310510F4BB
:103BD0000E94E108CC2009F46FCC8091DE0480FDC6
:103BE0006BCCF80112828595859585950E94850E8E
:103BF000C8010E943A1A8091DE04859585958595C5
:103C00000F900F900F900F900F90DF91CF911F9119
:103C10000F91FF90EF90DF90CF90BF90AF909F906B
:103C20008F907F906F905F904F903F900C94460ED6
:103C30008091E004A822A092E004C2CF3F2D3F7003
:103C4000932E8F2D807F803219F0929480EF9822EE
:103C5000882071F081E0881681F1DD20D9F1AA2059
:103C600091F1F801858180FF90CF8F7085832BC003
:103C7000DD20B1F09091E204892D892BA11003C0C1
:103C80000E94AB089FCFE1E0AE12FACF2091E8048A
:103C900022FD98CF981709F495CF8093E20492CF34
:103CA000A11006C00E94F707892D0E94A0088ACFA4
:103CB000F1E0AF1609F486CFF5CFDD2031F025E035
:103CC0002A1508F47FCF892DDBCF34E03A1508F4AC
:103CD00079CFEACFAA2041F3F9E38F1209C02FEF81
:103CE00037EE83E0215030408040E1F700C0000013
:103CF0008E2D0E94290F66CF8F2D86958695837015
:103D000061F0813009F05ECFC7019370D11002C01D
:103D100090E080E00E94B50855CFC7019370D110A4
:103D200002C090E080E00E94CB084CCF8E2DDD20B9
:103D300029F00E94A40F0E94DC0D44CF0E94B00E17
:103D4000FACF8F2D837009F066C0D1103BCF8E2D36
:103D5000829586958770880F880F6E2D6F70462E1E
:103D6000512C712C612C082E04C0440C551C661C6F
:103D7000771C0A94D2F740E050E0BA01E4FE0FC08D
:103D80004FE050E060E070E004C0440F551F661F34
:103D9000771F8A95D2F740955095609570958F2D35
:103DA000869586958370823019F1D8F48090E3046B
:103DB0009090E404A090E504B090E604813069F0AE
:103DC0004429552966297729CB01BA01682179212F
:103DD0008A219B210E94A60EF5CE482859286A28E0
:103DE0007B28CB01BA016429752986299729F2CF4E
:103DF00044295529662977294090E3045090E4042A
:103E00006090E5047090E604CB01BA016425752545
:103E100086259725DFCF8695DD2011F08F2D8170C7
:103E2000882309F4CFCE8E2D829586958770880FD2
:103E3000880F6E2D6F70462E512C712C612C082E20
:103E400004C0440C551C661C771C0A94D2F740E051
:103E500050E0BA01E4FE0FC04FE050E060E070E0D7
:103E600004C0440F551F661F771F8A95D2F74095EF
:103E70005095609570958F2D8695869583708230CC
:103E800019F1D8F48090C1059090C205A090C305A7
:103E9000B090C405813069F04429552966297729F5
:103EA000CB01BA01682179218A219B210E94200E31
:103EB00089CE482859286A287B28CB01BA01642971
:103EC000752986299729F2CF44295529662977290A
:103ED0004090C1055090C2056090C3057090C40524
:103EE000CB01BA016425752586259725DFCF9F2D47
:103EF0009F70F92EDD2029F0892F0E94850E8E2DCE
:103F0000BFCE8E2D0E94A0088F2D0E94460E5ACE45
:103F10008E2DE2EF8E1609F457C0E81578F0F0EF19
:103F20008F1649F121EF821609F446C0DD2009F40D
:103F30006FC0A1102ACE8F2D8F7143C033EF83162F
:103F400009F447C094EF8912F1CFDD2009F455C080
:103F50002F2D2F71F22E822F0E94850E8091E80462
:103F600082FD07C038E0F39EC00111248360809376
:103F7000DE048F2D26C0DD20D1F0E4E0EA1508F440
:103F800021CE2F2D2F7161E070E080E090E004C021
:103F9000660F771F881F991F2A95D2F74090C10599
:103FA0005090C2056090C3057090C4059BCFF5E0AA
:103FB000FA1508F407CEE5CF8F2D8F71DD2009F4B7
:103FC000A4CF0E94850EFECD8F2D8F71DD20C9F309
:103FD0009CCF60E070E0CB01DD2009F467CF2F2D8E
:103FE0002F7161E070E080E090E004C0660F771F01
:103FF000881F991F2A95D2F759CF81E00E94690E38
:1040000081E08A1508F0DECD82E00E94690EDACDEB
:10401000AA2059F0893309F06BCE9FEFE7EEF3E069
:104020009150E040F040E1F761CE8F2D8F716DCF60
:10403000F0E1EF16FFE5FF0609F474CB21E1E2168B
:104040002FE5F20609F478CB92E7E916F10409F4BA
:1040500075CBE3E7EE16F10409F488CBF3EFEF1626
:10406000FCE5FF0609F4F3CB08F08ACB38EDE31644
:104070003CE5F30609F4E7CB99EDE9169CE5F90672
:1040800009F4F1CBE7EDEE16ECE5FE0609F089CB7D
:1040900026E241EE61EEC8010E941A154ACA30E1DB
:1040A000E3163FE5F30609F443CB91E1E9169FE5FA
:1040B000F90651F682E03DCB85E0DE0111960190D4
:1040C0000D928A95E1F7F801228189819A81211167
:1040D0000ACA0E944208F82E0ECAF6E1EF16FCE565
:1040E000FF06E1F580915E0469E2811165E384E1F8
:1040F00093E00E949807BECC82722AECE2162CE56F
:10410000F20609F4E5CC08F084C095ECE9169CE5CC
:10411000F90609F4C9CC08F063C0F3ECEF16FCE52E
:10412000FF0609F4B5CC08F0BACC32ECE3163CE556
:10413000F30609F4A2CC3AE5E3163DE5F30609F4EB
:1041400001CD08F0DACCE1149CE5F90609F4EACCDB
:10415000EEEDEE16ECE5FE0609F4F1CCF8018281F5
:10416000E080F180882309F4F1CCC7010E94E612B7
:10417000D82E682FC7010E946A08B7018D2D0E94B2
:104180005C117C01882EF801D280A580A2943FE0CA
:10419000A3228091DE048770A1F0CD2CDD2091F068
:1041A0008F2D807F803421F080E28E0D883048F0A2
:1041B00082E00E94690E8091DE048770CC24C39453
:1041C0008111C12C3F2C32942FE03222FBE0F315F9
:1041D00008F4F8CCE32DF0E0E25EFF4C0C94D72E0F
:1041E00097ECE9169CE5F90609F468CC08F461CC73
:1041F000F8ECEF16FCE5FF0609F465CC48EF59E151
:1042000064E07AE129ECE2162CE5F20609F444CCEC
:1042100092CF3FECE3163CE5F30609F46CCCB0F426
:10422000ECECEE16ECE5FE0609F45CCC08F455CC9B
:104230002DECE2162CE5F20609F459CC85E03EECB3
:10424000E3163CE5F30609F453CC75CF86EDE8168A
:104250008CE5F80640F482E191EDE9169CE5F9065B
:1042600008F446CC66C9EDE5EE16FE0609F461C910
:1042700062CF1F93CF93DF9380916504807FA9F471
:1042800080916204882389F080919704D09166041C
:104290006091600470916104A0916304B091640422
:1042A000C62FC72316E0D81304C0DF91CF911F910A
:1042B000089590E0109711F0CF3F19F401968770A0
:1042C000F2CF189F9001199F300D1124F901E9597F
:1042D000FB4F41814713F2CF40814613EFCF42811C
:1042E0004111ECCF438154814A1B5B0B483C510583
:1042F00028F7809165048F70806180936504F901CF
:10430000E459FB4F80818F708061808380E694E068
:104310000E943A1ADF91CF911F910C949608AF92A8
:10432000BF92CF92DF92EF92FF920F931F93CF93A2
:10433000DF93CDB7DEB761970FB6F894DEBF0FBE3F
:10434000CDBF8C0185E0F801DE011D9601900D9234
:104350008A95E1F7F80180819181E28020E6A22E22
:1043600024E0B22E609163047091640461157105BC
:1043700009F43EC13091600440916104232F24234D
:104380002F3F09F435C1C380D480F0906204F60158
:10439000E61BF70BFF2009F4FBC020916504522FA8
:1043A000507FE83CF10508F0BBC0511178C0FE2CED
:1043B000491321C038131FC0E1101DC02F702061A8
:1043C00020936504C5010E943A1A80916504F801A2
:1043D00085838F2D61960FB6F894DEBF0FBECDBFDB
:1043E000DF91CF911F910F91FF90EF90DF90CF90D1
:1043F000BF90AF900895CD2829F0282F29232F3F73
:1044000009F014C120E0F22FF170DF2E20FF3DC033
:10441000209197044091660456E0241315C08D87BF
:104420009E878D859E850E942813292F22952F70A7
:104430002230F8F0243020F59F70F9F0F8019581D2
:10444000907FD9F4D12C1FC030E0529FF001539FD0
:10445000F00D1124E959FB4F6181961306C060816C
:10446000861303C06281E61210C02F5F3F4F277092
:10447000D4CF9F7011F0882329F3805E883010F329
:10448000C8010E943A1AFD2CA4CFEE2009F4A1CF56
:1044900080916504816080936504F12C9ACF491363
:1044A00012C0381310C0E1100EC0F8012583C801F6
:1044B0000E943A1A86E0F801A0E6B4E001900D925D
:1044C0008A95E1F786CF8D879E878D859E850E9490
:1044D0003213882309F1EE20F9F0809165048032CF
:1044E00070F0209160043091610438872F83198621
:1044F000DB86CA868C87CE0107960E943A1A86E030
:10450000F801A0E6B4E001900D928A95E1F70E94CF
:104510003921FF24F3945DCFC8010E943A1AF9CFE4
:1045200051110AC080E694E00E943A1A86E0F50133
:1045300011928A95E9F7B1CF49130FC038130DC016
:10454000E1100BC0F8012583C8010E943A1A86E0E9
:10455000F50111928A95E9F73CCF8D879E878D856D
:104560009E850E9432138823B9F2EE20A9F2809131
:104570006504803220F220916004309161043A8316
:1045800029831B82DD82CC828E83CE010196B5CF3A
:10459000E83CF105E0F6FE2CEE2009F4BDCF49130E
:1045A00016C0381314C08091650480FD83CF982F06
:1045B000907F09F47FCFF8018583903F09F477CF8E
:1045C000982F907F905F8F70892B858370CF8D8718
:1045D0009E878D859E850E943213811190CF809198
:1045E0006504816080936504C8010E943A1AF1CE87
:1045F000EE2009F491CF8D879E878D859E850E9440
:104600003213F82E882309F487CF86E0F801A0E65C
:10461000B4E001900D928A95E1F780916004909149
:1046200061040E9428130E943921D3CE21E02E2557
:10463000EACE1F93CF93DF93CDB7DEB767970FB660
:10464000F894DEBF0FBECDBF342F4B8B252F5C8B74
:104650006D8B7E8B8F8B8E899F8961111092E00408
:104660001A8A198A3D872E876F87998B888B86E0F7
:10467000FE013D96DE01179601900D928A95E1F7B5
:10468000CE0107960E948F21882389F016E0809141
:10469000970490916604891349C067960FB6F89401
:1046A000DEBF0FBECDBFDF91CF911F91089586E091
:1046B000FE013796DE01119601900D928A95E1F781
:1046C0008A859B85892B11F38F81988589238F3F5C
:1046D000E9F22091660430E0C901019687709927BC
:1046E000409197044817190671F40E94DB16109246
:1046F00066041092970486E0E0E6F4E0DF011D9284
:104700008A95E9F7C3CF96E0929FD001939FB00DB1
:104710001124A959BB4FFE01319601900D929A9533
:10472000E1F7809366040E949608B0CF819FC00194
:10473000112489599B4F0E948F21882309F4ADCF02
:104740008091970490E00196877099278093970451
:104750009ECFEBEBF5E0248130E1230F08F42FEF3F
:1047600024830C94B719EBEBF5E0248130E1231B93
:1047700008F420E024830C94B719EBEBF5E085E313
:1047800080838091150190911601A091170181837A
:104790009283A3838FE784838FEF85830C94B7196B
:1047A0001F920F920FB60F9211242F933F934F93A6
:1047B0005F936F937F938F939F93AF93BF93CF93A9
:1047C000DF93EF93FF93D091E900DF708091EC00CD
:1047D000C82FC17080FDC0E81092E9008091F00000
:1047E000877F8093F00078940E94F0161092E90081
:1047F0008091F00088608093F000CD2BCF70C09343
:10480000E900FF91EF91DF91CF91BF91AF919F911F
:104810008F917F916F915F914F913F912F910F9069
:104820000FBE0F901F9018951F920F920FB60F9208
:1048300011242F933F934F935F936F937F938F93A5
:104840009F93AF93BF93EF93FF938091E10082FF1B
:1048500009C08091E20082FF05C08091E1008B7F5A
:104860008093E1008091DA0080FF24C08091D8001D
:1048700080FF20C08091DA008E7F8093DA008091E3
:10488000D90080FF9BC080E189BD82E189BD09B468
:1048900000FEFDCF81E08093810580915C05811150
:1048A00009C00E94F0030E94BB048091E200846072
:1048B0008093E2008091E10080FF17C08091E200C8
:1048C00080FF13C08091E2008E7F8093E200809190
:1048D000E20080618093E2008091D8008062809342
:1048E000D80019BC85E0809381058091E10084FFA8
:1048F00029C08091E20084FF25C080E189BD82E16A
:1049000089BD89B5982F917080FFFBCF8091D80029
:104910008F7D8093D8008091E1008F7E8093E100AD
:104920008091E2008F7E8093E2008091E2008160BE
:104930008093E20080918205882309F445C084E0D9
:10494000809381058091E10083FF27C08091E20080
:1049500083FF23C08091E100877F8093E10082E0A4
:1049600080938105109282058091E1008E7F809373
:10497000E1008091E2008E7F8093E2008091E2006E
:1049800080618093E20042E060E080E00E94890460
:104990008091F00088608093F000FF91EF91BF91CB
:1049A000AF919F918F917F916F915F914F913F91C7
:1049B0002F910F900FBE0F901F90189519BC109259
:1049C000810510925C0576CF8091E30087FD93E02E
:1049D00090938105B7CFCDB7DEB7AB970FB6F894FC
:1049E000DEBF0FBECDBF84B7877F84BF0FB6F894FC
:1049F000A8958091600088618093600010926000AB
:104A00000FBE80E890E00FB6F89480936100909319
:104A100061000FBE85B7806885BF85B7806885BF98
:104A20008CE697E090931303809312030E94F003A7
:104A30000E94BB048091E20084608093E20078943D
:104A4000809181058823A1F01091E9001F70909159
:104A5000EC00892F817090FD80E8182B1092E900FE
:104A60008091E80083FD0E94F0161F701093E9000A
:104A700082E084BD93E095BD9AEF97BD80936E0070
:104A800001E511E0D8018D918D010E947410B1E013
:104A900008351B07B9F708E511E077E6C72E71E086
:104AA000D72EF80181918F010E947410C016D10693
:104AB000C1F7E9EEF4E0AEE4B5E0119211921D9277
:104AC0001D9224E0E73FF207C1F790E080E00E94EA
:104AD000672F8A3E9E4F11F00E94701682E090E090
:104AE0000E94592F80933F050E941B119093E80468
:104AF0008093E7040E94A5158FE39CE90197F1F7E5
:104B000000C000000E94A51580914E0581FF17C0CE
:104B10006FEF83E290E00E947D2F6FEF84E290E0E0
:104B20000E947D2F6FEF85E290E00E947D2F6FEF56
:104B30007FEF90E080E00E949B2F0E94D91483E0D9
:104B400090E00E94592F682F70E090E080E00E9472
:104B5000A60E10928B058FEF9FEF9093A505809383
:104B6000A4059093A7058093A6059093A90580932B
:104B7000A8059093AB058093AA059093AD0580930B
:104B8000AC059093AF058093AE059093B1058093EB
:104B9000B0059093B3058093B2051092F8049093FA
:104BA000120580931105909314058093130590933B
:104BB000160580931505909318058093170590931B
:104BC0001A058093190590931C0580931B059093FB
:104BD0001E0580931D059093200580931F0590E08E
:104BE00080E00E94672F8A3E9E4F21F00E9470163F
:104BF0000E94BD2346E050E06CE170E08BEB95E055
:104C00000E94492F8091BB058C7F11F40E94BD2327
:104C100083E290E00E94592F813211F00C94372EDC
:104C200084E290E00E94592F803111F00C94372ECD
:104C300085E290E00E94592F833211F00C94372EB8
:104C40002198299A22982A9A83B1869581701A9977
:104C5000B8C090E0892B8093310583E190E00E94F9
:104C6000612F609327057093280580932905909301
:104C70002A0586E091E0909326058093250510E4AF
:104C80008091810550E1E52E62E1F62E853009F430
:104C9000D3C00E94A51581110E948007E0E4F5E0D1
:104CA000AEE4B5E0F12CE12C6E2DCD90DD9021919C
:104CB00031912C153D0509F491C22C253D2500E0CC
:104CC000AA24A394B12CA9014A215B21452B09F404
:104CD0007FC209A36AA3CA20DB2081E0C114D104EA
:104CE00009F480E08BA30E948C078160782F9DA33C
:104CF0008CA349A15AA16BA18DA10E941923F70190
:104D0000EE0FFF1FE05CFA4F80819181A826B92643
:104D1000B182A082CD2871F08FE08E9DF0018F9D31
:104D2000F00D1124EA57FE4FE00FF11D80818F3FF7
:104D300009F08CC000E0A090F804E02EF12CC7012F
:104D40008A0D911D099764F1B8E0CB2ED12CCE18B5
:104D5000DF08B70167507B4FA60189EF94E00E94FE
:104D6000402FB7016F5F7A4FA60181E095E00E9466
:104D7000402FA601440F551FB701660F771F6F5EC6
:104D80007A4F81E195E00E94402FB701675F7A4F2B
:104D9000A60189E095E00E94402FAA94A092F80411
:104DA0008091F80490E0EBA5AE2FB0E09D01220FBA
:104DB000331F21513E4FAA0FBB1FBD0160517E4FD3
:104DC0005DC092E047CF80918105843019F1109247
:104DD000F704E8E1F0E00FB6F894A895E0936000DE
:104DE0000FBE1093600083B7817F846083BF83B759
:104DF000816083BF7894889583B78E7F83BF0FB619
:104E0000F894A8958091600088618093600010926A
:104E100060000FBE80918005882371F00E94A51567
:104E2000EEE4F5E081919191892B09F00AC72CE518
:104E300035E02E173F07B1F780918105853009F4E1
:104E4000C2CF0E94DB160E94E10823CF8BA701E0AE
:104E500072CF90E0FC01E850FB4FD9015C91518387
:104E6000DB015C915187BBA5B18B880F991FFC01B9
:104E7000E850FB4F128E118E91E0842F41E0480FD5
:104E8000901738F38093F804C0902105D090220544
:104E9000E0902305F09024058FB7F89440902B05FF
:104EA00050902C0560902D0570902E058FBF5301FA
:104EB00042018C189D08AE08BF080E9480076093CD
:104EC0002105709322058093230590932405A091DA
:104ED000F804E8EFF4E02A2F30E04FEFC40ED41EC0
:104EE000E11CF11CC418D508E608F708A3138FC10C
:104EF0002093F8043091BB05532F5370D52E19F031
:104F0000D32ED694D69420911401213009F4A9C14E
:104F1000222309F48FC1223009F407C5233009F494
:104F20000EC5E0913105EE0FEE0FE093310583B130
:104F300081FB222420F81A9921C580E08229E82BE0
:104F4000E0933105EF70F0E0E959FE4F80819091D8
:104F50003005890F8093300520E08430B4F08091D3
:104F60002F058F5F80932F056091C1057091C20559
:104F70008091C3059091C4050E94CE1044E065E085
:104F80000E9429110E94FD1421E0809130058D3F7F
:104F9000B4F480912F05815080932F056091C10555
:104FA0007091C2058091C3059091C4050E94CE10F6
:104FB00043E065E00E9429110E94FD1421E08091E8
:104FC0003005082E000C990B64E070E00E94C32E9F
:104FD0008093300521110E94800786E0E8E3F5E028
:104FE000DE01119601900D928A95E1F7D0903A0575
:104FF000C0903B05F0903C05E0903D0510923A05CD
:1050000010923B0510923C0510923D058D2D8C2988
:1050100009F448C080913605909137050E947107C8
:105020009C0190913505992309F449C62333310534
:10503000C8F19F3F19F09F5F90933505DD2059F02F
:105040000E94840F9FEF1D140CF491E0899F802D26
:10505000112480933A05CC2059F00E94840F9FEFD1
:105060001C140CF491E0899F802D112480933B0542
:1050700030913A053323B1F020913B05222391F082
:1050800045EB3403C0011124992309F47AC49093A9
:105090003A0555EB250390011124332309F475C417
:1050A00030933B058F2D8E2909F448C0809133053C
:1050B000909134050E9471079C01909132059923CB
:1050C00009F4F8C525363105C8F19F3F19F09F5FF7
:1050D00090933205FF2059F00E94620F9FEF1F143A
:1050E0000CF491E0899F802D112480933C05EE20E3
:1050F00059F00E94620F9FEF1E140CF491E0899FFB
:10510000802D112480933D0530913C053323B1F06F
:1051100020913D05222391F045EB3403C001112479
:10512000992309F436C490933C0555EB250390016F
:105130001124332309F431C430933D0580913A059D
:1051400090913B05892B90913C05892B90913D05D1
:10515000892B11F00E94DC0D86E0FE013196A8E358
:10516000B5E001900D928A95E1F70E94E1089091D7
:105170003E05891721F00E94E10880933E05809149
:105180008105843009F07CCD83E08093E900809133
:10519000E80082FF75CD8091E80090E085FF06C0B1
:1051A0000E940F04882309F4FCC391E08091E80079
:1051B0008B778093E800992309F462CDE981E1506F
:1051C000E33108F06CC4F0E0E65DFF4C0C94D72EA0
:1051D0000F5FAA0CBB1C0F3009F075CD2FEFE21A40
:1051E000F20A37E0E316F10409F05ECD8FEF8EA3EB
:1051F0008FA318A60E948C078160782F9AA789A791
:105200004EA15FA168A58AA50E9419233DCE418DBC
:10521000528D2A01712C612CC414D504E604F704C4
:1052200020F421503F5F329661CE480D591D528FB8
:10523000418FF8CF109211016093B4057093B505BA
:105240008093B6059093B70589E2E8EFF4E0ABE808
:10525000B5E001900D928A95E1F781E08093140109
:1052600060CE9091050181E0D9120BC0832F83702D
:105270002091040130E091E08217130609F490E0D8
:10528000892F8170809313018091C0059091120144
:10529000981739F08093120140E060E080E00E94AE
:1052A000080987E28D1550F0ED2DF0E0E35CFF4C2E
:1052B0000C94D72E80911301811102C000E027C009
:1052C00040E060E080E00E940809F8CFE090110122
:1052D00084E1E89EE02C112454E1C52ECE0C0C2D67
:1052E00091E69C1508F401E66091BC057091BD053E
:1052F0008091BE050E947C0AA62E972E882EF12C46
:10530000E01608F44AC001E0B0E6BC15B8F280919E
:1053100011018F5F809311010111D6C292E0909329
:105320001401909113019111CFC2DD2009F405C33E
:1053300094E1899FD02C11246CEEA62EAD0CCD2CBF
:1053400051E65D1510F451E6C52E8091270580FDCC
:10535000BFC2E0912505F0912605309709F0D2C231
:105360008091270581FFDDCD41E5E42EF12CB12CA4
:10537000D12CEA14FB0448F0CE14DF0430F020E016
:1053800040E060E0C7010E940A09AFEFEA1AFA0A9A
:10539000B1E6EB16F10469F7C4CDF701EF54FD4F08
:1053A000808190911201892331F0282D4A2D692D99
:1053B000C7010E940A09AFEFEA1AFA0AA1CFE090EA
:1053C000110184E1E89EE02C112444E1C42ECE0CAE
:1053D0000C2DE1E6EC1508F401E66090BD05709037
:1053E000BE05F090BC056F2D762D872D0E947C0A9E
:1053F000A62E972E882E6091BF056F0D762D872DD6
:105400000E947C0A762E672E582EF12CE01630F082
:1054100001E020E62C1508F07ACF50CFF701EF54C9
:10542000FD4F908180911201892359F0252D472D40
:10543000662D90FD03C0282D4A2D692DC7010E94BD
:105440000A09FFEFEF1AFF0AE1CFE090110184E1B2
:10545000E89E802D112434E1C32EC80E0C2D31E6B8
:105460003C1508F401E69090BD058090BE052091A2
:10547000BF05412F429F412D1124B42EE82EF12C5F
:10548000E01630F001E080E68C1508F040CF16CF32
:10549000F701EF54FD4F8081909112018923B9F0FB
:1054A000F701EE0FFF1FE051FE4F808182958F7054
:1054B0006091BC058B9D600D1124792D882D0E9473
:1054C0007C0A462F282F672FC7010E940A095FEF29
:1054D000E51AF50AD5CFE090110184E1E89E802D10
:1054E000112494E1C92EC80E0C2D91E69C1508F4E8
:1054F00001E69090BD058090BE052091BF05312F3B
:10550000329F312D1124B32EE82EF12CE01630F00D
:1055100001E050E65C1508F0FACED0CEF701EF546A
:10552000FD4F8081909112018923D9F0F701EE0F90
:10553000FF1FE151FE4F6081B69EB001112485E04E
:10554000759567958A95E1F78091BC05680F792D6F
:10555000882D0E947C0A462F282F672FC7010E94A2
:105560000A094FEFE41AF40AD1CFE090110184E167
:10557000E89EE02C1124A4E1CA2ECE0C0C2D81E66D
:105580008C1508F401E6A090BC05F090BD05909044
:10559000BE056091BF056695669566958091B405D8
:1055A0009091B5050E94720A0E94D809805887FD23
:1055B0008195880F282F392D239F212D1124822F8B
:1055C0006A2D7F2D0E947C0AA62E972E882EF12C04
:1055D000E01608F09DCFF701EF54FD4F80819091C8
:1055E0001201892331F0282D4A2D692DC7010E940F
:1055F0000A094FEFE41AF40AEBCF83E497E00E9424
:10560000E90B082F84CE89E197E0F9CF8AEB99E086
:105610000E948D0BF6CF8BE999E0FACF80E899E0F4
:105620000E94100BEECF84E699E0FACF87E197E075
:10563000E6CF8EE097E0E3CF85E097E0E0CF8CEE19
:1056400096E0DDCF8EED96E0EBCF8AE49AE0E0CFF6
:1056500083E599E0DDCF8FE399E0E2CF81EB96E03F
:105660000E94370CCECF83E896E0FACF8CE496E028
:10567000F7CF0091130101111EC06091BF0520E119
:10568000620F08F46FEF8091B4059091B5050E9408
:10569000720A6AE070E00E94AF2E892B09F00ECEEC
:1056A0000E94302F61E670E00E94C32E60911201CB
:1056B0000E94F8132CCEE090110184E1E89E802D29
:1056C0001124F4E1CF2EC80E9C2DA1E6AC1508F4F0
:1056D00091E6E82EF12CA92EB12CEA14FB0434F04B
:1056E00001E0E0E6EC1508F012CEE8CD6091120181
:1056F000C7010E94F813BFEFEB1AFB0AEECF00912F
:10570000130101111EC06091BF0520E1620F08F472
:105710006FEF8091B4059091B5050E94720A65E023
:1057200070E00E94AF2E892B09F0C8CD0E94302F67
:1057300061E670E00E94C32E609112010E94D613B0
:10574000E6CDE090110184E1E89E802D1124E4E192
:10575000CE2EC80E9C2DF1E6FC1508F491E6E82E3D
:10576000F12CA92EB12CEA14FB0434F001E030E650
:105770003C1508F0CCCDA2CD60911201C7010E946A
:10578000D6132FEFE21AF20AEECFE090110184E176
:10579000E89EE02C112474E1C72ECE0C0C2D41E6BE
:1057A0004C1508F401E69090BD05A090BE05F09060
:1057B000BC056091BF056695669566958091B405B8
:1057C0009091B5050E94720A0E94D809805887FD01
:1057D0008195880F682F2CE0629F612D11246F0D39
:1057E000792D8A2D0E947C0AA62E972E882EF12CC8
:1057F000E01608F047CEF701EF54FD4F80819091FD
:105800001201892331F0282D4A2D692DC7010E94EC
:105810000A095FEFE51AF50AEBCF87EF99E0EFCEC3
:105820008BE396E0ECCE84E396E00E94990CE9CEFF
:105830008EE296E0FACF80918B0521E0382F321B63
:1058400008F430E0832F65E176E00E94120DD9CE96
:1058500065E176E080E0F9CF80918B0521E0482F6B
:10586000421B08F440E0842F6AED75E0EECF6AED4C
:1058700075E0F0CF80918B0521E0582F521B08F482
:1058800050E0852F68EA75E0E0CF68EA75E0E2CF86
:1058900080918B0521E0382F321B08F430E0832FF4
:1058A00060E975E0D2CF60E975E0D4CF80918B05D7
:1058B00021E0482F421B08F440E0842F6AE775E09E
:1058C000C4CF6AE775E0C6CFDD2009F42ACB30CD1E
:1058D000F12CE12C8A2C912C6C2C712CE814F904FD
:1058E00048F06E147F0430F020E040E060E0C70133
:1058F0000E940A098FEFE81AF80A91E5E916F10407
:1059000069F727CD0190F081E02D099581FF28CD21
:105910008CED8D0D853108F023CD2FEF4FEF60E03A
:1059200084E290E00E940A091BCDD0920501832FEA
:105930008370809304010E947E1583E08FCC409198
:10594000B4055091B5056091B6057091B7052FB7B4
:10595000F89480912B0590912C05A0912D05B09184
:105960002E052FBF841B950BA60BB70B4097A105E7
:10597000B10508F4D6CA10921401D3CA82E090E0AF
:10598000DDCA81E080933A0584CB81E080933B05BA
:1059900089CB81E080933C05C8CB81E080933D05B5
:1059A000CDCB30E2E32EF12CCE0101966C0180913B
:1059B000E80085FD0AC08091E8008B778093E800BD
:1059C0000E940F04882399F3F0CB8091F100D60157
:1059D0008D936D01B1E0EB1AF10849F7E6CB1A821D
:1059E00089E08B8311C08A81823009F45AC18330E7
:1059F000A9F1813009F053C00E9480070E94DD2E7A
:105A00006B837C838D839E8380918105843009F034
:105A100037C9F090E900FF2DFF70FF2E9091EC0048
:105A2000892F817090FD80E8F82A82E08093E90058
:105A30008091E80080FF0DC050E040E060E270E03F
:105A4000CE0101960E9440048091E8008E778093F9
:105A5000E8008F2D8F708093E90012C9DE01119646
:105A6000EEE4F5E080819181329612969C93129734
:105A700013968C931397129625E0EC35F20791F765
:105A8000C3CF8A81823059F46B817C818D819E8164
:105A90000E94DD2E86E290E00E947D2FB5CF8FEF31
:105AA0008983B2CF4C816B818A810E94291198270A
:105AB000892798279E838D83A7CFCD80DE80DC2425
:105AC000CD24DC248A81EB803EE1E39E7001112429
:105AD00042ED849FE00CF11C11248C8190E0880F32
