:100000000C946B030C94B2030C94B2030C94B203E3
:100010000C94B2030C94B2030C94B2030C94B2038C
:100020000C94B2030C94B2030C94B4230C9470237C
:100030000C94442E0C94B2030C94B2030C94B203AF
:100040000C94B2030C94B2030C94B2030C94B2035C
:100050000C94B2030C94202E0C94B2030C94B203B3
:100060000C94B2030C94B2030C94B2030C94B2033C
:100070000C94B2030C94B2030C94B2030C94B2032C
:100080000C94B2030C94B2030C94B2030C94B2031C
:100090000C94B2030C94B2030C94B2030C94B2030C
:1000A0000C94B2030C94B2030C94B2030501090240
:1000B000A10185020901A1000509190129081500FE
:1000C0002501950875018102050109300931158165
:1000D000257F95027508810609381581257F9501D0
:1000E00075088106050C0A38021581257F95017572
:1000F000088106C0C005010980A101850319012AF4
:10010000B700150126B700950175108100C0050CD8
:100110000901A101850419012AA002150126A002E6
:10012000950175108100C005010906A1018505052D
:100130000719E029E71500250195087501810205D9
:1001400007190029EF1500250195F07501810205B9
:10015000081901290595057501910295017503910D
:1001600001C00660FF0961A1010962150026FF00B8
:100170009520750881020963150026FF00952075FA
:10018000089102C005010906A101050719E029E748
:1001900015002501950875018102950175088101F9
:1001A0000507190029FF150026FF0095067508812F
:1001B000000508190129059505750191029501753C
:1001C000039101C0000101010101010101010202CD
:1001D00002020202020202030303030303030304F5
:1001E00004040404040405050505050606060606C0
:1001F000070707070708080808090909090A0A0A7A
:100200000B0B0B0C0C0C0D0D0D0E0E0E0F0F0F101B
:1002100010111111121213131414151516161717A5
:10022000181819191A1A1B1B1C1D1D1E1E1F202011
:10023000212222232424252626272829292A2B2C5B
:100240002D2D2E2F30313232333435363738393A7E
:100250003B3C3D3E3F404142434445464748494A76
:100260004C4D4E4F50515354555658595A5B5D5E44
:100270005F616264656668696B6C6D6F70727375DF
:1002800077787A7B7D7E8082838587888A8C8E8F43
:1002900091939596989A9C9EA0A2A3A5A7A9ABAD71
:1002A000AFB1B3B5B7BABCBEC0C2C4C6C9CBCDCF5F
:1002B000D1D4D6D8DBDDDFE2E4E7E9EBEEF0F3F50D
:1002C000F8FAFDFF290000003A003B003C003D0029
:1002D0003E003F0040004100420043004400450012
:1002E000C25C35001E001F002000210022002300F8
:1002F00024002500260027002D002E002A004C0097
:100300002B0014001A000800150017001C0018002C
:100310000C00120013002F00300031004B00390098
:1003200004001600070009000A000B000D000E0073
:100330000F0033003400000028004E00E1000000F0
:100340001D001B00060019000500110010003600FA
:1003500037003800E50052004D00E000E300E20005
:10036000A900AA0000002C00000000000000E60028
:100370000151500051004F00010000000100010038
:100380000100010001000100010001000100010065
:100390007200730001000100010001000100010072
:1003A0000100010001000100010001000100010045
:1003B0000100C55CC25C01000100010001000100F8
:1003C0000100010001000100010001000100010025
:1003D000C65C0100010001000100010001000100F4
:1003E0000100010001000100010000000100C75CE4
:1003F00001000000010001000100010001000100F6
:1004000001000100010001000100C95CC85C01009D
:1004100001000100010001000000010000000000D7
:100420000000C35C0100CC5CCA5CCB5C0100000036
:1004300001000100010001000100010001000100B4
:1004400001000100010001000100010001000100A4
:100450000100010001000100010001000100010094
:100460000100010001000100010001000100010084
:100470000100010001000100010001000100010074
:100480000100010001000100010001000100010064
:100490000100010001000100010001000100000055
:1004A0000100010001000000010001000100010045
:1004B0000100010001000100010001000100010034
:1004C0000100010001000100010001000000010025
:1004D0000000000000000100010001000100010017
:1004E0000100000001000100010001000100010005
:1004F00001000100010001000100010001000100F4
:1005000001000100010001000100010001000100E3
:1005100001000100010001000100010001000100D3
:1005200001000100010001000100010001000100C3
:1005300001000100010001000100010001000100B3
:1005400001000100010001000100010001000100A3
:100550000100000001000100010000000100010095
:100560000100010001000100010001000100010083
:100570000100010001000100010001000100010073
:100580000000010000000000000001000100010067
:100590000100010000000000000000000000000059
:1005A000000000000000000000000000000000004B
:1005B00000000000000000007E0F00D4FFFFFFC716
:1005C0000000007800000000000000002A2B280036
:1005D00000000000000000000000000000000029F2
:1005E000000000002C1E3420212224342627252E32
:1005F000362D3738271E1F2021222324252633336A
:10060000362E37381F0405060708090A0B0C0D0E95
:100610000F101112131415161718191A1B1C1D2F61
:100620003130232D350405060708090A0B0C0D0E81
:100630000F101112131415161718191A1B1C1D2F41
:100640003130354C09025B00030100A0FA090400B7
:1006500000010301010009211101000122400007EE
:1006600005810308000209040100020300000009DB
:100670002111010001222200070582032000010749
:100680000503032000010904020001030000000922
:10069000211101000122B600070584032000021287
:1006A00001100100000008A17B0175020001020099
:1006B000010A034D00570037003500000012034DBA
:1006C000005700530074007500640069006F00005B
:1006D00000040309040011241FBECFEFDAE0DEBFDF
:1006E000CDBF04B603FE27C08091CA059091CB050B
:1006F000A091CC05B091CD058730904BA740B04B71
:10070000D1F41092CA051092CB051092CC0510922C
:10071000CD0514BE84B7877F84BF0FB6F894A89523
:1007200080916000886180936000109260000FBE2D
:10073000E0E0F8E3099525E0A4E1B3E001C01D92F3
:10074000AA3CB207E1F713E0A0E0B1E0E2E4F0E692
:1007500002C005900D92A431B107D9F70E948B24F5
:100760000C94C02F0C940000E8EDF0E080818E7FA7
:1007700080831092E2001092DA001092E100A0EE65
:10078000B0E08C9181608C9380818F77808319BCDD
:10079000A7EDB0E08C918E7F8C9380818F7E8083DB
:1007A0001092610508952091E4003091E50095E6EE
:1007B000A9012091EC00822F817020FF06C080915A
:1007C000E80080FF06C080E008952091E80022FD47
:1007D0001AC080918605882389F0853089F0809140
:1007E000EB0085FD0FC02091E4003091E500421739
:1007F0005307F9F29150E1F684E0089582E00895FC
:1008000083E0089581E00895EF92FF920F931F9384
:10081000CF937C018B010E94D303C82F811117C095
:100820008091E80085FD0BC08091E8008E77809371
:10083000E8000E94D303882399F3C82F08C0F7016A
:1008400081917F018093F1000150110949F78C2FAC
:10085000CF911F910F91FF90EF900895809188059F
:1008600087FF13C08091E80082FF06C08091E800F6
:100870008B778093E80004C0809186058111F2CFC8
:100880000895809186058823D9F38091E80080FF40
:10089000F8CF8091E8008E77ECCF982F9093E90005
:1008A000242F762F50E0891731F07091EC002091C1
:1008B000ED005091F00021FD07C09F5F973071F768
:1008C0008093E90081E008953091EB003E7F309302
:1008D000EB003091ED003D7F3093ED003091EB0067
:1008E00031603093EB007093EC002093ED00509357
:1008F000F0002091EE0027FDE0CF80E00895CF9238
:10090000DF92EF92FF920F931F93CF93DF93C8ED87
:10091000D0E088818F7E8883E7EDF0E08081816080
:10092000808384E082BF81E08093610588818E7F2F
:10093000888302EE10E0F80110821092DA0081EE56
:10094000C82ED12CF601108288818F778883888108
:100950008068888388818F7D888319BC1092860582
:1009600010928705109285051092840590EEE92E6D
:10097000F12CF70180818B7F80838881816088835F
:1009800042E060E080E00E944D04F60180818E7FAD
:100990008083F8018081816080838081886080838A
:1009A000F70180818E7F8083888180618883DF91D9
:1009B000CF911F910F91FF90EF90DF90CF9008950E
:1009C000FC0180918E0590918F0586179707A0F006
:1009D0006115710529F49091E8009E779093E800E5
:1009E00090E06115710551F4911108C08091E80003
:1009F00082FF34C080E00895BC01F2CF809186056B
:100A00008823C1F18530C1F18091E80083FD30C0B9
:100A10008091E80082FDEACF8091E80080FFE1CF7D
:100A20008091F3002091F200382F6115710519F0C3
:100A30002830310558F091E02830310509F090E078
:100A40002091E8002E772093E800CBCF819180930E
:100A5000F100615071092F5F3F4FE7CF809186050C
:100A6000882341F0853041F08091E80083FFBECFBC
:100A700081E0089582E0089583E00895EF92FF9267
:100A80000F939701201B31092F3F310519F010F00A
:100A90002FEF30E02095382F320F08F43FEF832FEF
:100AA0000F91FF90EF900895EF92FF920F939701AF
:100AB000201B31092F3F310519F010F02FEF30E0E6
:100AC000322F3095482F430F08F44FEF842F620FD9
:100AD0000F91FF90EF900895EF92FF920F93972F51
:100AE000093438F4B701601B71096F3F710519F0C3
:100AF00010F06FEF70E0485F5F4F4131510540F0FB
:100B0000A901485F5F4F4131510510F06FEF70E070
:100B10006095482F460F08F44FEF842F37FF02C02F
:100B20002D5F3F4F35952795359527956091C505E4
:100B3000620F792F0F91FF90EF900895EF92FF923F
:100B40000F931F930E0D1F2D111DF90137FF03C0C9
:100B5000F195E195F10924E0EE0FFF1F2A95E1F7E9
:100B6000EF3FF10519F014F0EFEFF0E09A0157FFB5
:100B700003C031952195310994E0220F331F9A95D6
:100B8000E1F72E173F070CF4F901E00FF11FEF3FDB
:100B9000F10519F010F0EFEFF0E0E095282F3E2F6F
:100BA000230F08F42FEF822F1F910F91FF90EF90EA
:100BB0000895EF92FF920F93970195E0099F200D02
:100BC000311D11242F3F310519F010F02FEF30E0C7
:100BD0002095382F320F08F43FEF832F0F91FF90AD
:100BE000EF90089522E8241B08F420E0620F089596
:100BF0004095282F429F412D1124842F0895E42FE2
:100C0000F0E0EE0FFF1FE152FE4F9081921B97FD27
:100C10009195292F38E1239F212D1124620F0895EA
:100C20000F931F9310E0F801EE0FFF1FE152FE4FEC
:100C30009081905797FD9195000F111FF801E05298
:100C4000FE4F00810052110B2003F001219FF00D97
:100C5000112408E310E0091B110997FD13954003C7
:100C60009001419F300D1124E20FF31F9F01220FCD
:100C7000331F2E0F3F1F37FF02C021583F4F220F57
:100C8000232F221F330B620F1F910F9108950F9393
:100C90001F93522F10E0F801EE0FFF1FE052FE4F9E
:100CA000A081A052BB0B9D015203F001539FF00D98
:100CB0001124000F111FD801A152BE4F0C910057F3
:100CC000110B40039001419F300D11242E0F3F1F47
:100CD00037FF02C0215C3F4F96E0359527959A95E6
:100CE000E1F7620F1F910F9108950F931F93522FF9
:100CF00010E0F801EE0FFF1FE052FE4FA081A0525E
:100D0000BB0B9D015203F001539FF00D1124000F06
:100D1000111FD801A152BE4F0C910057110B400377
:100D20009001419F300D11242E0F3F1F37FF02C04D
:100D300021583F4F220F232F221F330B620F1F9189
:100D40000F910895EF920F93972F23E0029FB00128
:100D50001124759567956E0D792F0F91EF90089579
:100D6000322F50E0FA01EE0FFF1FE052FE4F90814C
:100D7000905297FD9195440F551FFA01E152FE4F95
:100D80002081231B330B290F311D97FD3A95620FEC
:100D90000895E42FF0E0EE0FFF1FE052FE4F608158
:100DA000621B0895E42FF0E0EE0FFF1FE152FE4FAB
:100DB0006081621B0895622F0895E42FF0E0EE0F2A
:100DC000FF1FE152FE4F408134EE439F412D11241D
:100DD000E82FF0E050E0445E5F4FDA01A21BB1095A
:100DE0009D01B7FF03C031952195310993E0220F92
:100DF000331F9A95E1F7AF01421B530B9A0157FD40
:100E000020E0582F259F212D1124822F0895E42FB3
:100E1000F0E0EE0FFF1FE152FE4F408134EE439FA2
:100E2000412D1124E72FF0E050E0445E5F4FDA01DE
:100E3000A21BB1099D01B7FF03C03195219531096E
:100E400093E0220F331F9A95E1F7AF01421B530B3A
:100E50009A0157FD20E0279F212D1124722F08951C
:100E600080E008958091630508959C014FB7F89440
:100E70008091330590913405A0913505B0913605E8
:100E80004FBF821B930B08952FB7F89460913305E1
:100E90007091340580913505909136052FBF0895E6
:100EA0002FB7F8948091330590913405A0913505C2
:100EB000B09136052FBF0895209110012223C9F06B
:100EC0002091FD0427FF15C0E62FE695E695E695EF
:100ED000EE31D8F4E80FF92FF11D677021E030E012
:100EE00001C0220F6A95EAF7209582812823228388
:100EF0000895FC01329608962191621303C0DF0128
:100F000011971C92E817F907B9F70895209110017D
:100F10002223C1F02091FD0427FF14C0E62FE6959F
:100F2000E695E695EE31F8F4E80FF92FF11D6770BC
:100F300021E030E001C0220F6A95EAF78281822B1E
:100F400082830895FC0132962FEF30E041916417BF
:100F500051F02F3F19F4411101C0232F3F5F36306C
:100F6000A9F72F3F09F40895820F911D27FD9A9547
:100F7000FC01628308958091EC0481111092EC04CD
:100F800008958091EB049091EA04892B9091E904F3
:100F9000892B809316039091EC049923A1F0892B5F
:100FA0008093160380911001882341F18091FD0404
:100FB00087FF24C08EE1E8E1F3E090E0815000F586
:100FC00091110E94BB07E0912D05F0912E053097FD
:100FD000E1F080911001882359F08091FD0487FF92
:100FE00007C0809116038093170385E08093160352
:100FF0000280F381E02D86E193E0099486E0DBCF67
:1010000021912223D9F29F5FD9CF08952FE0929F9B
:10101000800D1124982F977086958695869525E0EA
:10102000829FF0011124E455FB4F50E040E080E046
:10103000219130E0092E02C0369527950A94E2F7F7
:1010400021703327042E01C0220F0A94EAF7822B65
:101050004F5F5F4F4530510559F708952FE0929F3C
:10106000800D1124982F977041E001C0440F9A958C
:10107000EAF786958695869595E0899FF00111247B
:10108000E455FB4F90E080E070E05191DF01119753
:101090009B01082E02C0369527950A94E2F721702D
:1010A00021952527242325272C930196853091050A
:1010B00061F708958091AB0490917A04981301C070
:1010C00008958F5F8770FACF882341F080959091C3
:1010D000EB0489238093EB040C94C10708958823C3
:1010E00039F09091EB04982B9093EB040C94C1078A
:1010F000089520917004309171042817390771F018
:101100009093710480937004E0912D05F0912E0569
:10111000309721F00084F185E02D09940895209105
:101120006E0430916F042817390771F090936F04A3
:1011300080936E04E0912D05F0912E05309721F0FB
:101140000680F781E02D09940895E0912D05F09136
:101150002E05309721F00190F081E02D099480E078
:101160000895FA01811101C0FB010994E9E3F3E05C
:10117000818360834283339694E0EE36F907C1F7AA
:101180000895FC01EE0FFF1FE80FF91FE75CFC4F0D
:1011900061834083228308950C94B6080C94C1089F
:1011A000FC019B01009729F480E077FF2BC080E8C9
:1011B0000895AC0197FF04C044275527481B590BDD
:1011C000B901640F751F37FD10C0241B350BC90111
:1011D000A5E0880F991FAA95E1F70E947F2E80E273
:1011E000861BF7FF0FC081950895CB0165E0880F3E
:1011F000991F6A95E1F7BA01621B730B0E947F2E5B
:1012000080E6EECF0895EF920F93CF93DF93D72F21
:10121000C82FC9010E19BA010E94D008602F681B9F
:101220007D2F8C2FDF91CF910F91EF9008950F9329
:10123000CF93DF93D72FC82FC901BA010E94D008DE
:10124000682F600F7D2F8C2FDF91CF910F91089524
:10125000EF920F931F93CF93DF93D62FC72F182FA3
:10126000C9010E19010FBA010E94D008081B202FD6
:10127000219F212D1124822F6D2F7C2FDF91CF9163
:101280001F910F91EF900895EF920F931F93CF93BB
:10129000DF93D62F172FC82FC9010E19070FBA01D8
:1012A0000E94D008702F781B719F712D11246D2F13
:1012B0008C2FDF91CF911F910F91EF9008950F9395
:1012C0001F93CF93DF93D62FC72F182FC901212F3C
:1012D000201B022FBA010E94D008982F990F990F56
:1012E000891B800F282F219F212D1124822F6D2FE4
:1012F0007C2FDF91CF911F910F9108950F931F9332
:10130000CF93DF93D62F172FC82FC901272F201B6C
:10131000022FBA010E94D008982F990F990F782FA9
:10132000791B700F719F712D11246D2F8C2FDF9100
:10133000CF911F910F910895E82F86FDE0952E2FF4
:101340002F7086FD2F5FE695E695E695E670F0E056
:10135000E85EFE4F9181929F902D212D1124929550
:101360009F702295207F922B2081920F87FD91956F
:1013700080E8890F08950F931F93CF93DF938B011C
:10138000D82FC42F822F0E949C09EC2FF0E0EE0F83
:10139000FF1FE152FE4F90819058890F87FD819584
:1013A000880F682F2CE0629F612D1124600F712F30
:1013B0008D2FDF91CF911F910F910895AC01823055
:1013C000910508F408959FEF413E8EE1580740F4DF
:1013D0009A0195E0369527959A95E1F798E0920F56
:1013E00061E0E62FE90FFF27FF1F9F013595279545
:1013F000822F229FF001239FF00DF00D11244E1734
:101400005F0738F49FEF920F961758F78FEF860F0C
:1014100008952F3FE9F361E0620FF6CF0F93CF936A
:10142000DF93D72FC82F47FD419588E390E0841BB9
:10143000910947FD9395889FB001899F700D700DAC
:101440001124229FC001239F900D900D1124860F1F
:10145000971F0E94DE09982F990F890F682F600F40
:101460007D2F8C2FDF91CF910F91089530E020E0F8
:10147000869F212D969F200D311D1124C9010895AD
:10148000AF92BF92CF92DF92FF920F931F93CF93B1
:10149000DF93362F472FE82FF0E0EC53FE4F71110A
:1014A0000FC0E4918E2F2E2F6E2F722FDF91CF91D0
:1014B0001F910F91FF90DF90CF90BF90AF90089554
:1014C000C72FD0E02491F22E022F10E056E0659F46
:1014D000C0011124EFEFF0E0BF010E946B2E832FBB
:1014E00090E0880F991F35E5369FD001379FB00DEA
:1014F00011248A1B9B0B982F990F980F6F01CC1A00
:10150000DD0AC09ED001C19EB00DD09EB00D112449
:101510008B2F499FA0011124452F55276F01C41A15
:10152000D50AC09EA001C19E500DD09E500D112421
:101530005F01A91AB108AC9E6001AD9ED00CBC9EA3
:10154000D00C1124CD2CDD24EC19FD09E09FE00125
:10155000E19FD00DF09FD00D1124ED2F6230710569
:10156000A1F050F46115710509F49ECF6130710549
:1015700081F0EB2F852F98CF6430710569F080F0F2
:101580006630710509F490CFF4CFE22F2B2F8D2F09
:101590008BCFE22F252F88CFEB2F822F2D2F84CFBB
:1015A0002B2F8F2DE52F80CF7F928F929F92AF921E
:1015B000BF92CF92DF92EF92FF920F931F93CF9340
:1015C000DF935C01C091110185E1C89FC02D1124FA
:1015D00015E11C0FF12E183610F037E6F32E60914E
:1015E000C80566958091B9059091BA050E94360AA2
:1015F000782ED0E0CF1590F081E0173608F080E02B
:10160000DF91CF911F910F91FF90EF90DF90CF90DE
:10161000BF90AF909F908F907F900895FE01E3550B
:10162000FD4F8081909112018923C9F1CE01880F6D
:10163000991F8B579E4FFC01E65AFF4F2081422F86
:101640004057550B6A01855A9F4FFC018081282F16
:101650002052330B4901449F9001459F300D300DBE
:101660001124889CC001899C900D900D1124820F3B
:10167000931F0E94DE09082F6091C5057091C60571
:101680008091C705E72C9401A601F50109950E94F8
:10169000400A462F282F672FCE010E94CE082196A0
:1016A000A9CFCF92DF92EF92FF920F931F93CF9328
:1016B000DF937C01C091110185E1C89FC02D1124E9
:1016C00015E11C0FD12E183610F037E6D32E60919D
:1016D000C80566958091B9059091BA050E94360AB1
:1016E000C82ED0E0CD1568F081E0173608F080E014
:1016F000DF91CF911F910F91FF90EF90DF90CF90EE
:101700000895FE01E355FD4F8081909112018923D8
:1017100011F1CE01880F991F8B579E4FFC01E55A9E
:10172000FF4F20812052330B865A9F4FFC0140818E
:101730004057550B6091C5057091C6058091C7054E
:101740000C2DF70109950E94400A462F282F672F7C
:10175000CE010E94CE082196C5CFDF92EF92FF9274
:101760000F931F93CF93DF937C01C091110185E10B
:10177000C89FC02D112415E11C0F012F183608F049
:1017800007E66091C8056695669521E0620F08F44A
:101790006FEF8091B9059091BA050E94360AD82E54
:1017A000D0E0C01760F081E0173608F080E0DF91EC
:1017B000CF911F910F91FF90EF90DF900895FE0160
:1017C000E355FD4F808190911201892391F0609142
:1017D000C5057091C6058091C7052D2D4C2FF701C9
:1017E00009950E94400A462F282F672FCE010E949C
:1017F000CE082196D6CF9F92AF92BF92CF92DF9222
:10180000EF92FF920F931F93CF93DF936C01C091E0
:10181000110185E1C89FC02D112415E11C0FB12EC7
:10182000183610F037E6B32E6091C80566956695B8
:101830008091B9059091BA050E94360AF82E80E48D
:101840008F0D0E949C0990E8A92EA80E8F2D0E9452
:101850009C0920E8922E980ED0E0CB1580F081E014
:10186000173608F080E0DF91CF911F910F91FF9024
:10187000EF90DF90CF90BF90AF909F900895FE01C2
:10188000E355FD4F8081909112018923A1F0609171
:10189000C5057091C6058091C705EF2C0C2F292D29
:1018A0004A2DF60109950E94400A462F282F672FDE
:1018B000CE010E94CE082196D0CFCF92DF92EF9238
:1018C000FF920F931F93CF93DF938C01C09111016F
:1018D00085E1C89FC02D112425E1D22EDC0ECD2C30
:1018E00027E62D1510F497E6C92E2091C80531E0A2
:1018F000230F08F42FEF30E050E040E06FEF7FEF70
:1019000080E090E00E945D2F7901D0E02C2FCC1573
:1019100070F081E0F6E6FD1508F480E0DF91CF91EC
:101920001F910F91FF90EF90DF90CF900895FE01EF
:10193000E355FD4F808190911201892311F140916F
:1019400090054150042E000C550B47FF1CC0C701E9
:101950006091C80521E0620F08F46FEF0E94360A1B
:10196000AC016091C5057091C6058091C705F8016D
:1019700009950E94400A462F282F672FCE010E940A
:10198000CE082196C3CFFA01E057FA4F818982131E
:101990000AC0FA01EE0FFF1FE057FA4F818D928DBA
:1019A0008E159F05A8F241505109CFCF2F923F923B
:1019B0005F926F927F928F929F92AF92BF92CF92DF
:1019C000DF92EF92FF920F931F93CF93DF93CDB7E8
:1019D000DEB72A970FB6F894DEBF0FBECDBF8B835C
:1019E0007E836D832091110185E1289F802D112434
:1019F0008F838B5E89838A83883610F037E63A833B
:101A0000809190058C83FF81EF2FF0E0FA87E987C2
:101A1000CF01880F991F9C0121523E4F69013B81E4
:101A2000832F90E0FC013196F887EF838A819985B6
:101A30009817E8F081E0E981E73608F080E02A961F
:101A40000FB6F894DEBF0FBECDBFDF91CF911F91CF
:101A50000F91FF90EF90DF90CF90BF90AF909F904D
:101A60008F907F906F905F903F902F900895E985C1
:101A7000FA85E355FD4F8081909112018923F1F0A1
:101A80002090C5053090C6052F81388520573A4FE4
:101A900039015B8010E0FC815F16D0F02091C70512
:101AA000129F112D1124B101812F0E94400A462F4F
:101AB000282F672F89859A850E94CE0829853A8527
:101AC0002F5F3F4F3A87298732E0C30ED11CAECF3C
:101AD000F30181913F01F601A080A81ABB08818023
:101AE000F3018781881A9908AA9C9001AB9C300D5C
:101AF000300D1124889CC001899C900D900D1124FB
:101B0000820F931F0E94DE09082F6091C80521E013
:101B1000620F08F46FEFF301EE0FFF1FE059F5407D
:101B2000858996890E94360A7C019401A501B1013C
:101B3000812FED81FE8109951B015394182FABCFA6
:101B40000E9450079C019091430580914405982B79
:101B500021F03093400520933F05909145058091F9
:101B60004605982B21F030933D0520933C05E091EC
:101B70002D05F0912E05309749F082E080934105C4
:101B80000480F581E02D81E495E00994089590E0CA
:101B900080E00E948F0890E080E00E947908109217
:101BA000EA041092E9040E94C10786E0E1E4F5E04E
:101BB000DF011D928A95E9F710923E0510923B05D0
:101BC000109273040C94A00D6093BD057093BE0534
:101BD0008093BF059093C0050C94C70D0F931F937E
:101BE0006091BD057091BE058091BF059091C005C3
:101BF0008B019C010670112722273327063011051F
:101C00002105310529F468601F910F910C94E40DB2
:101C1000677FFACF0F931F9341E050E060E070E0E0
:101C200004C0440F551F661F771F8A95D2F7CB015A
:101C3000BA0160957095809590950091BD051091C1
:101C4000BE052091BF053091C0056023712382231A
:101C500093231F910F910C94E40D9091E8048095CB
:101C600089238093E804282F277039F4282F082E21
:101C7000000C330B9217130621F49091FE0492FF8F
:101C800007C08595859585950E940A0E1092E804F7
:101C900008950F931F9341E050E060E070E004C0AE
:101CA000440F551F661F771F8A95D2F78091BD0597
:101CB0009091BE05A091BF05B091C0058A019B011E
:101CC000082B192B2A2B3B2BC901B8011F910F910F
:101CD0000C94E40D6093ED047093EE048093EF0494
:101CE0009093F0040C94C70D40914305803F59F444
:101CF0008091440587FF0DC01092440541110BC02F
:101D000010923E0508C0813F81F480914405181669
:101D10009CF3442381F08091450590914605892BE1
:101D200009F05AC010923B050895823F49F447FFDD
:101D3000F0CF10924305809144058111ECCFE0CFA4
:101D4000833F19F41416ACF3E4CF90914505893F15
:101D500029F41916F4F610924505DBCF8A3F19F4E1
:101D600097FFD7CFF8CF909146058B3F29F497FF87
:101D7000D0CF10924605CDCF8C3F19F41916CCF375
:101D8000C8CF9CE0980F953090F4845F990B21E0C8
:101D900030E0B90102C0660F771F8A95E2F7CB01E8
:101DA000809590914205892380934205B2CF8D3F63
:101DB00031F4809173048E7F80937304AACF8E3F99
:101DC00021F4809173048D7FF7CF8F3F09F0A1CF6D
:101DD000809173048B7FF0CF08958823B1F19CEF3D
:101DE000980F913A38F4682F86E193E00E945C07DF
:101DF0000C94C10790E2980F983088F4877021E026
:101E000030E0A90102C0440F551F8A95E2F7CA01CC
:101E100080959091EB0489238093EB04E9CF9BE5B7
:101E2000980F933020F490E080E00C948F0898E5B0
:101E3000980F973120F490E080E00C947908803F6F
:101E400020F00E94740E0C94A00D089580917304EC
:101E500080FD16C081FD16C082FD16C080913B0535
:101E60008823A1F0883280F428E0829FC0011124E9
:101E700068E270E00E947F2E862F672B39F008956C
:101E800082E0089584E0089588E0089581E008954F
:101E90008091730480FD14C081FD14C082FD16C0C2
:101EA00080913E05882381F0843180F422E3829F73
:101EB000C001112464E170E00E947F2E862F0895F6
:101EC0008CE0089589E1089585E0089582E30895FE
:101ED000803F31F40E94480F819580934405089516
:101EE000813F19F40E94480FF8CF823F31F40E94DD
:101EF000480F8195809343050895833F19F40E940C
:101F0000480FF8CF893F29F40E94260F809345059A
:101F100008958A3F21F40E94260F8195F7CF8B3FC9
:101F200031F40E94260F81958093460508958C3FD9
:101F300019F40E94260FF8CF9CE0980F953070F4AA
:101F4000845F990B21E030E001C0220F8A95EAF707
:101F500080914205822B8093420508958D3F31F494
:101F60008091730481608093730408958E3F21F4FF
:101F7000809173048260F7CF8F3FB9F7809173042B
:101F80008460F1CFCF93C82F882309F46FC08CEF02
:101F90008C0F813AC0F580911001882311F1809156
:101FA000FD0487FF1EC0EC2FE695E695E695F0E070
:101FB000EA5EFC4F828190E04C2F477021E030E0D8
:101FC00002C0220F331F4A95E2F782239323892B05
:101FD00091F06C2F86E193E00E945C070E94C1079C
:101FE0000AC0E8E1F3E08EE193E02191C21789F3A2
:101FF0008E179F07D1F76C2F86E193E00E9486072A
:10200000CF910C94C10780E28C0F883068F4C770C0
:1020100021E030E001C0220FCA95EAF78091EB047D
:10202000822B8093EB04ECCFEBE5EC0FE33040F434
:10203000F0E0E05EFE4F808190E0CF910C948F083D
:10204000E8E5EC0FE73150F4F0E0EE0FFF1FED5D37
:10205000FE4F80819181CF910C947908C03F30F080
:102060008C2F0E94680FCF910C94A00DCF910895F2
:10207000F894E82FE295EF70F0E031A1282F2F704F
:1020800081E090E001C0880F2A95EAF7982F90959B
:10209000932391A392A1892B82A378940895909180
:1020A000FD0492FF06C0282F28712830F9F4877F9D
:1020B000846093FF06C0282F28712831F1F4877EB1
:1020C00084612091FE0420FF06C0382F387138301B
:1020D000D9F4877F816021FF06C0282F287128311D
:1020E000D1F4877E816194FD877E0895282F247125
:1020F0002430F9F68B7F8860DCCF282F24712431BF
:1021000001F78B7E8861DDCF382F3171313019F7BF
:102110008E7F8860E0CF282F2171213121F78E7EBC
:102120008861E1CFCF9384E090E00E94152FC82F03
:1021300082E290E00E94152F982F8C2FCF91089566
:102140000F931F93CF93DF93C42FD0E0CC0FDD1FED
:102150002EE1629FC00DD11D112434EB839FC00D71
:10216000D11D1124CE0187960E94152F082F10E053
:10217000102F0027CE0188960E94152F9801282B3A
:10218000C901DF91CF911F910F910895462F84309F
:1021900038F4763028F46F3018F4672F0C94A010C0
:1021A00090E080E00895CF93DF930E94C610EC0189
:1021B00082389105A9F1D8F58133910509F496C0CB
:1021C00048F58932910509F48AC08A9709F495C0C7
:1021D000C11521E5D20708F0BCC0C11530E5D30711
:1021E00008F014C1C83ED10508F09CC0C03ED1051E
:1021F00060F5C83AD10508F087C0C53AD10508F0A6
:10220000FDC0C130D10509F12097F9F0C430D105E6
:10221000E0F440C08533910509F45AC0C997C1F66E
:102220008091FD04837089F0C0EED0E00EC0833E43
:10223000910599F170F4803E910501F1823E91057E
:1022400039F68091FD0482FD21C0CE01DF91CF914E
:102250000895863E910561F1873E910571F1843EB6
:10226000910509F0B5CF8091FE0481FFEECF8091FA
:10227000FD04C7EED0E084FD0DC0E7CF8091FD04E2
:1022800080FD12C19091FE0490FFDFCFC3EED0E03D
:1022900084FFDBCFD0E0C0E0D8CF8091FD0482FD89
:1022A00006C19091FE0490FDBFCF84FFCECFF2CF48
:1022B0008091FD0483FDDDCFC8CF8091FD0483FDB7
:1022C000F9C09091FE0491FFF0CFC4EED0E0BDCFF5
:1022D0008091FD0485FFB9CFC9E2D0E0B6CF8091EF
:1022E000FD0485FFB2CFC5E3D0E0AFCF8091FD0400
:1022F00086FFABCFCAE2D0E0A8CF8091FD0486FF75
:10230000A4CFC1E3D0E0A1CFCF3BD10518F6C85A86
:10231000D0E0CC0FDD1FCD5DDE4F0990D881C02D00
:10232000D46493CFC11540E2D40758F4C11581E0BD
:10233000D80708F08ACFC03FD10508F4ABCFD065ED
:1023400084CFC11590E4D90708F4A4CFDF70D06A18
:102350007CCFC11525E5D20700F5C11534E5D307BB
:1023600008F08AC0C11543E5D40708F071C0C11553
:1023700082E5D80708F467C0CE018370992721E071
:1023800030E002C0220F331F8A95E2F7C695C6954A
:1023900080E2C89FE001112452C0C11599E5D90718
:1023A000A8F4C11528E5D20708F06BC0C11536E5C1
:1023B000D30708F06FCF8C2F0E944F10C82FD0E0AA
:1023C000DC2FCC27CC27DF71D0623FCFC1154AE587
:1023D000D40708F45BC0CE0190568115904208F0F6
:1023E00059CF8D2F8F710E944F1090E0982F882722
:1023F00088279F719C012C2BE901E6CFC55AD0E0BC
:10240000C05EDE4FC881D0E0D0641FCFCE01E4E0D3
:1024100096958795EA95E1F783702C2F269526955A
:10242000237040E2249F90011124382B8C2F83705D
:10243000C1E0D0E002C0CC0FDD1F8A95E2F7C22BCD
:10244000D32BDC6802CFDC2FCC27C16FD06AFDCE46
:10245000CE018370992721E030E002C0220F331FA4
:102460008A95E2F7C695C69590E2C99FE0011124CE
:10247000C22BD32BDA68E9CEDC2FCC27C46FD06A0D
:10248000E4CEDC2FCC27C06FD06ADFCE8C2F8F70CC
:102490000E944F1034E0D695C7953A95E1F7CF707A
:1024A0009C2FEC01D069D1CEC9E3D0E0CECEC2EEF4
:1024B000D0E0CBCEC6EED0E0C8CEBF92CF92DF92B6
:1024C000EF92FF920F931F93CF93DF938C01C090F5
:1024D000BD05D090BE05E090BF05F090C00580918D
:1024E000ED049091EE04A091EF04B091F004C82A9D
:1024F000D92AEA2AFB2ACFE1D0E0BC2ED701C601B7
:102500000C2E04C0B695A795979587950A94D2F797
:1025100080FD0EC0219788F7B12C8B2DDF91CF91D4
:102520001F910F91FF90EF90DF90CF90BF90089593
:10253000B8018C2F0E94D310019761F3EECFCF9397
:10254000DF93EC010E945D12BE01DF91CF910C94EC
:10255000D3100E949F12292F2F7092959F70925036
:102560009E3078F4E92FF0E0EE53F04D0C94932E6A
:10257000803F19F020F4883E20F481E00895843FE4
:10258000E1F380E00895883EC0F3813FD1F7F5CFB5
:10259000822F86958695869508956F927F928F9269
:1025A0009F92AF92BF92CF92DF92EF92FF920F93E2
:1025B0001F93CF93DF9384ECC82E82E0D82E99EF3F
:1025C000E92EF12CE701C45BD10936011BC0F501EE
:1025D00085909490692DC8010E94392F682DC801FB
:1025E00001960E94392F82E0A80EB11C0E5F1F4F8A
:1025F000C017D10761F78EE1680E711C6E96CE157B
:10260000DF0529F08E010E5111095301E0CF7E0143
:1026100084EBE80EF11C84EBC80ED11C89ECE816A3
:1026200083E0F80679F6DF91CF911F910F91FF902B
:10263000EF90DF90CF90BF90AF909F908F907F9062
:102640006F900895CF93C92F682F84E090E00E9487
:10265000392F6C2F82E290E0CF910C94392F90911A
:10266000FE0492FB222720F9281751F080FB92F9F3
:102670009093FE048091FD049091FE040C9422132B
:102680000895CF93DF93C7EFD2E060E0CE010E94C0
:10269000392F2196C11584E0D807B9F7DF91CF9182
:1026A00008951F93CF93DF93EC01FC01E355FD4F99
:1026B00080816823A1F00E94EC2E182F0E94EC2E3E
:1026C000612F782F8091C7050E94400A462F282F3E
:1026D000672FCE01DF91CF911F910C94CE08DF912F
:1026E000CF911F910895DF92EF92FF920F931F9366
:1026F000CF93DF938C01FC01E355FD4F808168236C
:1027000081F1D090C605D091C705C091C505EC2ECA
:10271000F12C0E94EC2E282FC7018C549F4F68E6A5
:1027200071E00E947F2E8E199F0997FD0396959563
:1027300087959595879523706C2F289F600D1124A0
:102740007D2D8D2F0E94400A462F282F672FC8010C
:10275000DF91CF911F910F91FF90EF90DF900C943C
:10276000CE08DF91CF911F910F91FF90EF90DF90F6
:102770000895CF93DF9300D00F92CDB7DEB790913D
:102780008605943011F589837B836A839093E900F1
:102790008FEF9091E800815095FD06C095ED9A95D8
:1027A000F1F700008111F5CF8091E80085FF0DC0A1
:1027B00050E040E063E070E0CE0101960E94040426
:1027C0008091E8008E778093E8000F900F900F9033
:1027D000DF91CF910895BC0184E00C94B913BC0142
:1027E00083E00C94B9139C0184E08093E9009FEF8F
:1027F0008091E800915085FD06C085ED8A95F1F73E
:1028000000009111F5CF8091E80085FF0CC050E0E9
:1028100040E066E070E0C9010E9404048091E80095
:102820008E778093E8000895CF93DF93EC01809139
:1028300010018823B1F18091FD0487FF32C060E26E
:1028400084E08093E9008FEF9091E800815095FD3E
:1028500006C095ED9A95F1F700008111F5CF8091B2
:10286000E80085FF1BC08091100170E050E040E05F
:10287000811104C050E040E068E070E0CE010E94A9
:1028800004048091E8008E778093E80080E2FE01E6
:10289000A4E6B5E001900D928A95E1F7DF91CF9122
:1028A000089568E081E0CDCF81E08093E00080E290
:1028B0008093D8001092C9008FE19EE40197F1F750
:1028C00000C0000087E090EBDC018093CA05909384
:1028D000CB05A093CC05B093CD0588E19CE00FB665
:1028E000F894A895809360000FBE90936000FFCF8E
:1028F0001F93CF93DF93182FD0E0C0E0893311F4FA
:10290000C0E5D0E0812F0E94C20F209731F4812FC3
:10291000DF91CF911F910C94ED0E8FE99FE001970D
:10292000F1F700C000002197F0CF0F931F93CF93D2
:10293000DF93C62FD42F022FFC0182818823A1F0C0
:102940006093C3050E9450079093C2058093C10510
:10295000C77081E001C0880FCA95EAF7DF91CF9177
:102960001F910F910C946F088091C305681335C0B7
:102970008091C1059091C2050E943507883C910560
:1029800060F510E21D0FCD17B9F080E28C0F883092
:1029900040F4C77081E001C0880FCA95EAF70E9431
:1029A0006408183048F481E09D2F977001C0880FAB
:1029B0009A95EAF70E946F08802F0E9478141830C9
:1029C00098F4D77081E001C0880FDA95EAF7DF91BB
:1029D000CF911F910F910C946408C77081E001C0E2
:1029E000880FCA95EAF7F3CFDF91CF911F910F912E
:1029F0000895239A35B1377F25B128604FB7F894F1
:102A000089E393E0FC015191CF0168E025B9000012
:102A100000C057FF35B9550F000000C000C000C00E
:102A200035B900C06A9591F7F4E08E369F0751F7EB
:102A30004FBF8FE594E00197F1F700C000000895C3
:102A40006AEE7EEF90E080E00E94572F60E082E027
:102A500090E00E94392F60E083E090E00E94392FDF
:102A60001092ED041092EE041092EF041092F00414
:102A700060E084E090E00E94392F60E082E290E024
:102A80000E94392F60E085E090E00E94392F60E0DD
:102A900086E090E00E94392F6FEF87E090E00E947F
:102AA000392F40E050E0BA0188E090E00E944B2FBF
:102AB00060E08DE090E00E94392F40E050E0BA01E4
:102AC00088E190E00E944B2F60E087E190E00E9457
:102AD000392F40E050E0BA018CE190E00E944B2F8A
:102AE00070E060E080E290E00E94572F40E050E00C
:102AF000BA0188E190E00E944B2F40E050E0BA011B
:102B00008FE090E00E944B2F40E050E0BA0183E15B
:102B100090E00C944B2F1092EB0480911001E8E1AF
:102B2000F3E0882359F08091FD0487FF07C08EE110
:102B3000DF011D928A95E9F70C94C70D86E0F8CF66
:102B40001F93CF93DF93CDB7DEB7AA970FB6F89454
:102B5000DEBF0FBECDBF88E895E02091F100DC011B
:102B60002D93CD01B5E080399B07B9F78091890598
:102B7000833009F471C0B8F4813009F448C0823060
:102B800009F4B2C08091E80083FF3AC180918805C2
:102B9000909189059A3008F033C1E92FF0E0E053B5
:102BA000F04D0C94932E8A3009F48DC08B3009F4CB
:102BB00070C0893039F780918805813219F780918A
:102BC0008C0590918D05009711F00297D9F68091B0
:102BD000E800877F8093E8008091E80082FF37C09B
:102BE0009091F3008091F200029729F48091F10016
:102BF0008B7F813021F48091F10080936305809177
:102C0000E8008B778093E8000E942E04BBCF809170
:102C10008805813A09F0B6CF8091E800877F8093DC
:102C2000E80080918C0590918D05892B61F460E21C
:102C300084E695E070E00E94E0048091E8008B77E4
:102C40008093E8009FCF60E090E080E0F3CF809138
:102C500086058111C1CF96CF80918805813A09F010
:102C600091CF80918C0590918D05892B09F08ACFA9
:102C70008091E800877F8093E8008091E80080FFE2
:102C8000FCCF809110018093F1008091E8008E7755
:102C9000B9CF80918805813209F074CF80918C057D
:102CA00090918D05892B09F06DCF8091E800877F89
:102CB0008093E8000E942E0480918A058093100181
:102CC0000E948B155FCF80918805813209F05ACF21
:102CD0008091E800877F8093E8000E942E04809115
:102CE0008B05809362054ECF80918805813A09F06B
:102CF00049CF8091E800877F8093E8008091E800C9
:102D000080FFFCCF80916205BECF803899F0823879
:102D100009F076C080918C058F70873008F070C004
:102D20008093E9008091EB0085FB882780F9109261
:102D3000E90006C08091840590918505911182601B
:102D40009091E800977F9093E8008093F1001092B3
:102D5000F1008091E8008E77B5C1882309F4A2C103
:102D6000823009F04DC080918A058111A6C1809101
:102D70008C058F702FEF280F263008F041C080930C
:102D8000E9002091EB0020FF98C1933031F480914D
:102D9000EB0080628093EB0090C19091EB0090611A
:102DA0009093EB0021E030E001C0220F8A95EAF712
:102DB0002093EA001092EA008091EB008860EACF4D
:102DC00081111EC010918A051F778091E3008078E1
:102DD000812B8093E3008091E800877F8093E80057
:102DE0000E942E048091E80080FFFCCF8091E300D8
:102DF00080688093E30082E0111183E08093860570
:102E00008091E80083FF0AC08091E800877F80936B
:102E1000E8008091EB0080628093EB00AA960FB6E9
:102E2000F894DEBF0FBECDBFDF91CF911F91089503
:102E30008058823028F720918A0530918B052C3DEF
:102E4000E3E03E07A1F583E08A838AE289834FB7F6
:102E5000F894DE01139620E03EE051E2E32FF0E02B
:102E600050935700E49120FF03C0E295EF703F5F5D
:102E7000EF708E2F90E0EA30C0F0C7968D939D934F
:102E80002F5F243159F74FBF8091E800877F8093EF
:102E9000E8006AE270E0CE0101960E94E0048091B1
:102EA000E8008B778093E800ABCFC096E7CF8091A6
:102EB0008C0590918D05432F55274330510509F41A
:102EC0004AC078F54130510509F47AC08BE590E0AD
:102ED000E4E4F6E04230510509F092CF2091E80099
:102EE000277F2093E80020918E0530918F0582176F
:102EF000930708F49C0140E02115310509F065C0F5
:102F0000411163C08091E80082FDC9CF80918605A0
:102F1000882329F2853019F28091E80083FFF2CFEF
:102F2000BECF4132510509F43CC04232510509F08F
:102F300067CF8330910508F063CFFC01EE0FFF1FD0
:102F4000E758FE4F0190F081E02D8A589E4FDC013A
:102F50008C9190E01AC0332721303105D1F0211532
:102F6000310561F02230310509F04ACFE1EBF6E09E
:102F7000E4918E2F90E0E1EBF6E007C0E1EDF6E0A2
:102F8000E4918E2F90E0E1EDF6E0009709F438CF60
:102F9000A5CFEDEBF6E0E4918E2F90E0EDEBF6E0BF
:102FA000F4CF8330910508F02BCF880F991FFC01D7
:102FB000E158FE4F0190F081E02D89E090E08ECF46
:102FC00082E190E0EFE9F6E089CF809186058823E1
:102FD00009F465CF853009F462CF8091E80083FD64
:102FE0005ECF8091E80082FD8DCF8091E80080FF68
:102FF00083CF9091F3008091F2002115310519F0F3
:103000008830910550F041E0089709F040E0809148
:10301000E8008E778093E8006FCF44914093F100F1
:103020003196215031090196E8CF803809F0E8CE79
:103030008091E800877F8093E800809187058093E6
:10304000F10087CE8111DCCE10918A05123008F094
:10305000D7CE8091E800877F8093E80010938705A2
:103060000E942E04112311F084E005C08091E3003A
:1030700087FDFACF81E08093860542E061EC81E034
:103080000E944D0442E261EC84E00E944D0442E261
:1030900061EC82E00E944D0442E260EC83E00E9419
:1030A0004D04AECE80918A05813009F0A9CE81E031
:1030B000933009F080E0809385051092E9008091BB
:1030C000E800877F8093E8000E942E0499CE46E0B6
:1030D00050E06CE170E084EC95E00C94292F909125
:1030E000C405937089F0811107C094609093C40562
:1030F000109214010C946718883210F09C69F6CF76
:10310000880F880F982BF2CF08958091C40586957B
:103110008695815009F487E20C946F188091C4055C
:10312000869586958F5F883208F081E00C946F1841
:103130009091C405937059F08093C5056093C605BE
:10314000493C08F048EC4093C7050C946718089573
:10315000E4ECF5E0438120E1421B08F440E081818A
:10316000628190E00C949818E4ECF5E0438120E152
:10317000420F08F44FEF8181628190E00C9498181F
:10318000E4ECF5E0628120E1621B08F460E08181FB
:10319000438190E00C949818E4ECF5E0628120E122
:1031A000620F08F46FEF8181438190E00C949818CE
:1031B000E4ECF5E08181438162818850990B0C94A5
:1031C0009818E4ECF5E0818190E0438162810896F3
:1031D0000C9498183F924F925F926F927F928F92C9
:1031E0009F92AF92BF92CF92DF92EF92FF920F9396
:1031F0001F93CF93DF9300D000D00F92CDB7DEB7EF
:103200008C01FC0183819481892B31F08081918133
:1032100089238F3F09F0F9C50F900F900F900F9001
:103220000F90DF91CF911F910F91FF90EF90DF9062
:10323000CF90BF90AF909F908F907F906F905F9056
:103240004F903F9008950E945D12F82E682F89815B
:103250009A810E942E0869817A818F2D0E94C61062
:103260007C01F8018281882309F4C2C597012251AB
:103270003F452031310508F084C58FEF93E00E946F
:10328000152FFEEEEF0E57EF852E52E0952E882378
:1032900081F18091E804877009F4BECFF801828142
:1032A000882309F4B9CF82E00F900F900F900F9010
:1032B0000F90DF91CF911F910F91FF90EF90DF90D2
:1032C000CF90BF90AF909F908F907F906F905F90C6
:1032D0004F903F900C942D0E811424E09206C9F279
:1032E000C4010E94152F811101C0EA943FEF831A97
:1032F000930AE110F1CF1C821B82442443944AE0DC
:10330000342E74018FEFE81AF80AC4010E94152FB9
:1033100089831A82882309F4BCCF9FEF980F9330DA
:1033200000F58A83498292E0890E911CC7010E94B0
:10333000152F8B83882309F4ACCFFE0131967F01D2
:10334000F70120812223E9F2213009F049C091815F
:103350008281913041F4F2E0EF0EF11C0E9478146A
:1033600009C04701EACF923049F422E0E20EF11C95
:103370000E94C20F3FEFE31AF30AE2CF933031F419
:1033800032E0E30EF11C0E94ED0EF4CF943021F0F8
:103390008FEFE81AF80AEECF92E0E90EF11C30E068
:1033A00020E0B7016F5F7F4FF70141818053990B98
:1033B0008A30910550F021503109E0F28FE99FE009
:1033C0000197F1F700C00000F6CF329EF001339E66
:1033D000F00D11249C012E0F3F1F842F7B01E1CFA4
:1033E000E22FF0E0EC53FA4F5490822F86958695A9
:1033F000869590E0FC01EC54FA4F64902770712C94
:10340000022E02C0759467940A94E2F7E1E06E22FE
:103410007724FC01EC55FA4FA490B12C022E02C087
:10342000B594A7940A94E2F7F1E0AF22BB24FC0123
:10343000EC56FA4FC490D12C02C0D594C7942A956B
:10344000E2F721E0C222DD246114710419F081EE5B
:103450000E94C20FA114B10419F086EE0E94C20F9F
:10346000852D0E947814AB2819F086EE0E94ED0E8F
:10347000672819F081EE0E94ED0ECD2809F47ACF6D
:103480008CE26CCF81E00E94490E0E94EE0D01CFCC
:1034900081E00E940A0EF9CF82E0F5CF882309F47B
:1034A000F8CE90912F05892F8E7F90FF81608093B9
:1034B0002F0540912F055091300560913105709195
:1034C000320583E190E00E944B2FE3CE882309F47C
:1034D000E0CE90912F05892F8D7F91FF8260E7CFFD
:1034E000F5EFEF16FCE5FF0609F462C008F45CC0D6
:1034F00027E245EE66EE36EFE3163CE5F30609F407
:1035000073C4882309F492C41092C30582E0E816BC
:103510008CE5F80608F442C196E1E9169CE5F90647
:1035200030F0C7018A5F9C45099708F037C10E94B7
:1035300092109093FE048093FD04E0E1EE16ECE51A
:10354000FE0609F4FAC008F07CC028E0E2162CE57B
:10355000F20609F4E0C008F048C084E0E8168CE503
:10356000F80609F4D0C058F5E2E0EE16ECE5FE06E8
:1035700009F4C3C08091FD048260F3E0EF16FCE51E
:10358000FF0609F4BDC08091FD049091FE040E94E5
:1035900022130E948B157DCE27E245EE65EE24C4F2
:1035A00026E241EE60EE20C427E245EE64EE1CC444
:1035B00026E241EE62EE18C428E241E0EFCF8091AE
:1035C000FD04806126E0E2162CE5F20609F498C0BD
:1035D0008091FD04886037E0E3163CE5F30608F4CB
:1035E0008FC08091FD0480628BC08CE0E8168CE572
:1035F000F80609F49AC078F48091FD048C60EAE042
:10360000EE16ECE5FE0609F47BC008F488C0809154
:10361000FD048E7F75C08091FD04877F2EE0E21649
:103620002CE5F20609F46CC08091FD048B7F3FE02D
:10363000E3163CE5F30608F463C08091FD048F7E39
:103640005FC08BEFE8168CE5F80609F460C068F5FA
:10365000E3E1EE16ECE5FE0609F477C090F421E113
:10366000E2162CE5F20609F46CC032E1E3163CE503
:10367000F30609F088CF0E948B158091FD048F77A7
:103680003FC085E1E8168CE5F80609F466C008F449
:103690007AC08091FE048160EAEFEE16ECE5FE064A
:1036A00009F071CF8093FE046ECFFFEFEF16FCE5BB
:1036B000FF0609F44EC068F48091FE048D7F3DEF53
:1036C000E3163CE5F30671F3A0F18091FE048360FC
:1036D000E9CF91E0E9169DE5F90609F45DC008F42B
:1036E00048C060E0F2E0EF16FDE5FF0609F04BCFC1
:1036F0008EE090E00E94392F46CF8091FD048160DA
:103700008093FD0440CF8091FD048460F9CF8091C7
:10371000FE048260C7CF8091FD048064F1CF0E94D7
:103720008B158091FD048068EBCF8091FD048D7F27
:10373000E7CF8091FE048E7FB5CF8091FD048F7D11
:10374000DFCF8091FD048F7BDBCF8091FD04837FF1
:10375000D7CF8091FE048C7FA5CF8091FD0482FBA2
:10376000992790F921E0922790FB82F990FB83F949
:10377000C7CF8091FE04982F909591708E7F892BF2
:1037800090FB81F98FCF0E948B159091FD04892FBA
:1037900097FB87F98058B4CF61E0AACF8091EB0402
:1037A00026E1E2162CE5F20609F04FC38A7A91E091
:1037B00009F490E09093720469E2811165E386E177
:1037C00093E00E9486070E94C10763CD8091C405E3
:1037D00091E089278093C405109214010E94671814
:1037E00058CD45E858E16EE878E10E94B10851CD26
:1037F0004EE858E165E878E1F8CF48ED58E161EE30
:1038000078E1F3CF41EE58E168ED78E1EECF40EC9E
:1038100058E16CEC78E1E9CF4CEC58E160EC78E1F0
:10382000E4CF44EB58E168EA78E1DFCF43E553E2C7
:1038300069E473E2DACF49E453E263E573E2D5CF9A
:1038400081E00E946F1825CD8DE0FBCFFBE5EF16E0
:10385000FDE5FF0611F12CE5E2162DE5F20609F073
:1038600026C38091FE0482FB882780F991E0892796
:103870000E942F131CC30E948B153FEF84E39CE032
:10388000315080409040E1F700C000000E94541485
:103890000E942015FECC81E0EBCF80E0E9CFC7018C
:1038A0000E940608D82E12C32F2D2F70A22E8F2D06
:1038B000807F19F0A29490EFA922DD20C9F0AA2000
:1038C00069F080E28E0D883010F081100BC080917D
:1038D000EB04A82AA092EB040E94C1078E2D0E943F
:1038E000C20F19C08091EA04A82AA092EA04F4CF7A
:1038F0008E2D0E94ED0EAA2071F0A09480E28E0D14
:10390000883010F081103DC08091EB04A822A09275
:10391000EB040E94C107232D2850330B24303105BE
:1039200010F40E94A508CC2009F476CC8091E8041C
:1039300080FD72CCF80112828595859585950E944F
:10394000490EC8010E94EA188091E8048595859582
:1039500085950F900F900F900F900F90DF91CF9162
:103960001F910F91FF90EF90DF90CF90BF90AF909D
:103970009F908F907F906F905F904F903F900C94AE
:103980000A0E8091EA04A822A092EA04C2CF3F2D39
:103990003F70932E8F2D807F803219F0929480EFAC
:1039A0009822882071F081E0881681F1DD20D9F11C
:1039B000AA2091F1F801858180FF90CF8F708583D7
:1039C0002BC0DD20B1F09091EC04892F8929A11042
:1039D00003C00E946F089FCFE1E0AE12FACF2091A2
:1039E000FE0422FD98CF981709F495CF8093EC043C
:1039F00092CFA11006C00E94BB07892D0E946408C7
:103A00008ACFF1E0AF1609F486CFF5CFDD2031F093
:103A100025E02A1508F47FCF892DDBCF34E03A1555
:103A200008F479CFEACFAA2041F3F9E38F1209C055
:103A30002FEF37EE83E0215030408040E1F700C0A7
:103A400000008E2D0E94ED0E66CF8F2D86958695F7
:103A5000837061F0813009F05ECFC7019370D1109F
:103A600002C090E080E00E94790855CFC7019370B2
:103A7000D11002C090E080E00E948F084CCF8E2DC4
:103A8000DD2029F00E94680F0E94A00D44CF0E9403
:103A9000740EFACF8F2D837009F066C0D1103BCF22
:103AA0008E2D829586958770880F880F6E2D6F708A
:103AB000462E512C712C612C082E04C0440C551C30
:103AC000661C771C0A94D2F740E050E0BA01E4FE8D
:103AD0000FC04FE050E060E070E004C0440F551F9D
:103AE000661F771F8A95D2F740955095609570951F
:103AF0008F2D869586958370823019F1D8F4809049
:103B0000ED049090EE04A090EF04B090F0048130AA
:103B100069F04429552966297729CB01BA01682122
:103B200079218A219B210E946A0EF5CE48285928C6
:103B30006A287B28CB01BA0164297529862997292F
:103B4000F2CF44295529662977294090ED045090F9
:103B5000EE046090EF047090F004CB01BA0164258C
:103B6000752586259725DFCF8695DD2011F08F2DD1
:103B70008170882309F4CFCE8E2D8295869587702B
:103B8000880F880F6E2D6F70462E512C712C612C72
:103B9000082E04C0440C551C661C771C0A94D2F7EE
:103BA00040E050E0BA01E4FE0FC04FE050E060E0BA
:103BB00070E004C0440F551F661F771F8A95D2F727
:103BC00040955095609570958F2D8695869583705C
:103BD000823019F1D8F48090BD059090BE05A09078
:103BE000BF05B090C005813069F044295529662988
:103BF0007729CB01BA01682179218A219B210E9472
:103C0000E40D89CE482859286A287B28CB01BA01BF
:103C10006429752986299729F2CF442955296629CF
:103C200077294090BD055090BE056090BF0570900B
:103C3000C005CB01BA016425752586259725DFCF00
:103C40009F2D9F70F92EDD2029F0892F0E94490EAB
:103C50008E2DBFCE8E2D0E9464088F2D0E940A0EDD
:103C60005ACE8E2DE2EF8E1609F457C0E81578F083
:103C7000F0EF8F1649F121EF821609F446C0DD20DE
:103C800009F46FC0A1102ACE8F2D8F7143C033EF7E
:103C9000831609F447C094EF8912F1CFDD2009F4AF
:103CA00055C02F2D2F71F22E822F0E94490E809128
:103CB000FE0482FD07C038E0F39EC001112483603A
:103CC0008093E8048F2D26C0DD20D1F0E4E0EA15D2
:103CD00008F421CE2F2D2F7161E070E080E090E09C
:103CE00004C0660F771F881F991F2A95D2F740904E
:103CF000BD055090BE056090BF057090C0059BCF7C
:103D0000F5E0FA1508F407CEE5CF8F2D8F71DD2091
:103D100009F4A4CF0E94490EFECD8F2D8F71DD20B6
:103D2000C9F39CCF60E070E0CB01DD2009F467CFE0
:103D30002F2D2F7161E070E080E090E004C0660FED
:103D4000771F881F991F2A95D2F759CF81E00E94CB
:103D50002D0E81E08A1508F0DECD82E00E942D0E46
:103D6000DACDAA2059F0893309F06BCE9FEFE7EE48
:103D7000F3E09150E040F040E1F761CE8F2D8F717C
:103D80006DCFF0E1EF16FFE5FF0609F47BCB21E1F3
:103D9000E2162FE5F20609F47FCB92E7E916F1046B
:103DA00009F47CCBE3E7EE16F10409F48FCBF3EFD3
:103DB000EF16FCE5FF0609F4F3CB08F091CB38EDE4
:103DC000E3163CE5F30609F4E7CB99EDE9169CE52B
:103DD000F90609F4F1CBE7EDEE16ECE5FE0609F085
:103DE00090CB26E241EE61EEC8010E94951451CAC3
:103DF00030E1E3163FE5F30609F44ACB91E1E91619
:103E00009FE5F90651F682E044CB85E0DE0111968C
:103E100001900D928A95E1F7F801228189819A81BA
:103E2000211111CA0E940608F82E15CAF6E1EF16F4
:103E3000FCE5FF06E1F58091720469E2811165E31A
:103E400086E193E00E945C07BECC82722AECE21607
:103E50002CE5F20609F4E5CC08F084C095ECE916EF
:103E60009CE5F90609F4C9CC08F063C0F3ECEF1641
:103E7000FCE5FF0609F4B5CC08F0BACC32ECE31649
:103E80003CE5F30609F4A2CC3AE5E3163DE5F3067A
:103E900009F401CD08F0DACCE1149CE5F90609F447
:103EA000EACCEEEDEE16ECE5FE0609F4F1CCF801F5
:103EB0008281E080F180882309F4F1CCC7010E945F
:103EC0005D12D82E682FC7010E942E08B7018D2DD4
:103ED0000E94D3107C01882EF801D280A580A29484
:103EE0003FE0A3228091E8048770A1F0CD2CDD2073
:103EF00091F08F2D807F803421F080E28E0D88300C
:103F000048F082E00E942D0E8091E8048770CC2456
:103F1000C3948111C12C3F2C32942FE03222FBE05C
:103F2000F31508F4F8CCE32DF0E0E652F04D0C94D4
:103F3000932E97ECE9169CE5F90609F468CC08F491
:103F400061CCF8ECEF16FCE5FF0609F465CC48EA15
:103F500058E164EB78E129ECE2162CE5F20609F46D
:103F600044CC92CF3FECE3163CE5F30609F46CCC6D
:103F7000B0F4ECECEE16ECE5FE0609F45CCC08F4CB
:103F800055CC2DECE2162CE5F20609F459CC85E06F
:103F90003EECE3163CE5F30609F453CC75CF86ED11
:103FA000E8168CE5F80640F482E191EDE9169CE50F
:103FB000F90608F446CC6DC9EDE5EE16FE0609F4E7
:103FC00068C962CF1F93CF93DF9380917904807F7C
:103FD000A9F480917604882389F08091AB04D09174
:103FE0007A046091740470917504A0917704B09183
:103FF0007804C62FC72316E0D81304C0DF91CF91F1
:104000001F91089590E0109711F0CF3F19F4019699
:104010008770F2CF189F9001199F300D1124F9017C
:10402000E558FB4F41814713F2CF40814613EFCF54
:1040300042814111ECCF438154814A1B5B0B483CC8
:10404000510528F7809179048F70806180937904FD
:10405000F901E058FB4F80818F708061808384E795
:1040600094E00E94EA18DF91CF911F910C945A08B6
:10407000AF92BF92CF92DF92EF92FF920F931F9376
:10408000CF93DF93CDB7DEB761970FB6F894DEBF5D
:104090000FBECDBF8C0185E0F801DE011D960190B9
:1040A0000D928A95E1F7F80180819181E28024E701
:1040B000A22E24E0B22E60917704709178046115ED
:1040C000710509F43EC13091740440917504232FA9
:1040D00024232F3F09F435C1C380D480F0907604A7
:1040E000F601E61BF70BFF2009F4FBC020917904D1
:1040F000522F507FE83CF10508F0BBC0511178C049
:10410000FE2C491321C038131FC0E1101DC02F70B1
:10411000206120937904C5010E94EA1880917904F6
:10412000F80185838F2D61960FB6F894DEBF0FBE20
:10413000CDBFDF91CF911F910F91FF90EF90DF9056
:10414000CF90BF90AF900895CD2829F0282F292334
:104150002F3F09F014C120E0F22FF170DF2E20FF75
:104160003DC02091AB0440917A0456E0241315C061
:104170008D879E878D859E850E949F12292F22956F
:104180002F702230F8F0243020F59F70F9F0F801FC
:104190009581907FD9F4D12C1FC030E0529FF0015F
:1041A000539FF00D1124E558FB4F6181961306C013
:1041B0006081861303C06281E61210C02F5F3F4FFB
:1041C0002770D4CF9F7011F0882329F3805E883048
:1041D00010F3C8010E94EA18FD2CA4CFEE2009F4C8
:1041E000A1CF80917904816080937904F12C9ACFDA
:1041F000491312C0381310C0E1100EC0F801258316
:10420000C8010E94EA1886E0F801A4E7B4E0019032
:104210000D928A95E1F786CF8D879E878D859E8545
:104220000E94A912882309F1EE20F9F08091790407
:10423000803270F0209174043091750438872F8398
:104240001986DB86CA868C87CE0107960E94EA18FB
:1042500086E0F801A4E7B4E001900D928A95E1F7B9
:104260000E94E21FFF24F3945DCFC8010E94EA1868
:10427000F9CF51110AC084E794E00E94EA1886E061
:10428000F50111928A95E9F7B1CF49130FC03813A0
:104290000DC0E1100BC0F8012583C8010E94EA1887
:1042A00086E0F50111928A95E9F73CCF8D879E87CC
:1042B0008D859E850E94A9128823B9F2EE20A9F26D
:1042C00080917904803220F2209174043091750439
:1042D0003A8329831B82DD82CC828E83CE010196B4
:1042E000B5CFE83CF105E0F6FE2CEE2009F4BDCF99
:1042F000491316C0381314C08091790480FD83CF10
:10430000982F907F09F47FCFF8018583903F09F4BF
:1043100077CF982F907F905F8F70892B858370CF98
:104320008D879E878D859E850E94A912811190CFD1
:1043300080917904816080937904C8010E94EA1811
:10434000F1CEEE2009F491CF8D879E878D859E85D5
:104350000E94A912F82E882309F487CF86E0F8017D
:10436000A4E7B4E001900D928A95E1F7809174047E
:10437000909175040E949F120E94E21FD3CE21E00B
:104380002E25EACE1F93CF93DF93CDB7DEB7679785
:104390000FB6F894DEBF0FBECDBF342F4B8B252F49
:1043A0005C8B6D8B7E8B8F8B8E899F8961111092B8
:1043B000EA041A8A198A3D872E876F87998B888B22
:1043C00086E0FE013D96DE01179601900D928A95DA
:1043D000E1F7CE0107960E943820882389F016E085
:1043E0008091AB0490917A04891349C067960FB607
:1043F000F894DEBF0FBECDBFDF91CF911F9108951E
:1044000086E0FE013796DE01119601900D928A95A5
:10441000E1F78A859B85892B11F38F819885892304
:104420008F3FE9F220917A0430E0C901019687704C
:1044300099274091AB044817190671F40E948B1517
:1044400010927A041092AB0486E0E4E7F4E0DF0116
:104450001D928A95E9F7C3CF96E0929FD001939F72
:10446000B00D1124A558BB4FFE01319601900D925D
:104470009A95E1F780937A040E945A08B0CF819F01
:10448000C001112485589B4F0E943820882309F4CD
:10449000ADCF8091AB0490E001968770992780930F
:1044A000AB049ECF6F927F929F92AF92BF92CF92BA
:1044B000DF92EF92FF920F931F93CF93DF9300D081
:1044C00000D00F92CDB7DEB701E511E081EFE82E05
:1044D00084E0F82E97E5A92E91E0B92E912CCC24FA
:1044E000C394D12CF80181918F01F894E82FE295C3
:1044F000EF70F0E021A18F70A60102C0440F551F9C
:104500008A95E2F7CA01922F982B91A392A18095E8
:10451000892382A3789400C0E7E5F1E030E020E051
:10452000712C612C4191A42FA295AF70B0E09096B0
:104530008C9190E04F7002C0959587954A95E2F76F
:1045400080FD6FC0C601022E02C0880F991F0A9419
:10455000E2F7682A792A2F5F3F4F2F30310511F794
:10456000F801319780810E94381050EA5A95F1F78E
:10457000F701808191816816790609F455C071822E
:10458000608281E0982AF2E0EF0EF11CA016B106DD
:1045900009F0A8CF992009F449C081E0809338033D
:1045A0000E9450079093370380933603809136031F
:1045B000909137030E9435070697E0F18091F1044E
:1045C0009091F20490935605809355058091F304E1
:1045D0009091F40490935805809357058091F504C9
:1045E0009091F60490935A05809359058091F704B1
:1045F0009091F80490935C0580935B058091F90499
:104600009091FA0490935E0580935D058091FB0480
:104610009091FC049093600580935F05109238039D
:1046200009C090E080E095CF80E0ACCF8091380366
:104630008111BCCF809137058823A9F0869539F187
:1046400083E0898385E08A831B820E945007816012
:10465000782F9D838C831092370549815A816B8115
:104660008D810E94C221892D0F900F900F900F9085
:104670000F90DF91CF911F910F91FF90EF90DF90FE
:10468000CF90BF90AF909F907F906F90089584E0FF
:10469000D8CFE4ECF5E0248130E1230F08F42FEFCC
:1046A00024830C946718E4ECF5E0248130E1231BAB
:1046B00008F420E024830C946718E4ECF5E085E32B
:1046C00080838091150190911601A091170181833B
:1046D0009283A3838FE784838FEF85830C9467187D
:1046E0001F920F920FB60F9211242F933F934F9367
:1046F0005F936F937F938F939F93AF93BF93CF936A
:10470000DF93EF93FF93D091E900DF708091EC008D
:10471000C82FC17080FDC0E81092E9008091F000C0
:10472000877F8093F00078940E94A0151092E90092
:104730008091F00088608093F000CD2BCF70C09303
:10474000E900FF91EF91DF91CF91BF91AF919F91E0
:104750008F917F916F915F914F913F912F910F902A
:104760000FBE0F901F9018951F920F920FB60F92C9
:1047700011242F933F934F935F936F937F938F9366
:104780009F93AF93BF93EF93FF938091E10082FFDC
:1047900009C08091E20082FF05C08091E1008B7F1B
:1047A0008093E1008091DA0080FF24C08091D800DE
:1047B00080FF20C08091DA008E7F8093DA008091A4
:1047C000D90080FF9BC080E189BD82E189BD09B429
:1047D00000FEFDCF81E08093860580916105811107
:1047E00009C00E94B4030E947F048091E2008460AB
:1047F0008093E2008091E10080FF17C08091E20089
:1048000080FF13C08091E2008E7F8093E200809150
:10481000E20080618093E2008091D8008062809302
:10482000D80019BC85E0809386058091E10084FF63
:1048300029C08091E20084FF25C080E189BD82E12A
:1048400089BD89B5982F917080FFFBCF8091D800EA
:104850008F7D8093D8008091E1008F7E8093E1006E
:104860008091E2008F7E8093E2008091E20081607F
:104870008093E20080918705882309F445C084E095
:10488000809386058091E10083FF27C08091E2003C
:1048900083FF23C08091E100877F8093E10082E065
:1048A00080938605109287058091E1008E7F80932A
:1048B000E1008091E2008E7F8093E2008091E2002F
:1048C00080618093E20042E060E080E00E944D045D
:1048D0008091F00088608093F000FF91EF91BF918C
:1048E000AF919F918F917F916F915F914F913F9188
:1048F0002F910F900FBE0F901F90189519BC10921A
:1049000086051092610576CF8091E30087FD93E0E4
:1049100090938605B7CFCDB7DEB7E3970FB6F8947F
:10492000DEBF0FBECDBF84B7877F84BF0FB6F894BC
:10493000A89580916000886180936000109260006B
:104940000FBE80E890E00FB6F894809361009093DA
:1049500061000FBE85B7806885BF85B7806885BF59
:1049600080E397E090931503809314030E94B403AF
:104970000E947F048091E20084608093E20078943A
:10498000809186058823A1F01091E9001F70909115
:10499000EC00892F817090FD80E8182B1092E900BF
:1049A0008091E80083FD0E94A0151F701093E9001C
:1049B00082E084BD93E095BD9AEF97BD80936E0031
:1049C00086E60E94381087E30E94381080E90E9432
:1049D000381081E90E94381082E90E94381083E97A
:1049E0000E94381007E511E0D8018D918D010E94D9
:1049F0003810B1E006361B07B9F7E1EFF4E0A5E5A2
:104A0000B5E0119211921D921D9224E0ED3FF20744
:104A1000C1F790E080E00E94232F8A3E9E4F11F064
:104A20000E94201582E090E00E94152F8093480597
:104A30000E9492109093FE048093FD040E945222E3
:104A40008FE39CE90197F1F700C000000E94522219
:104A50008091550580FF17C06FEF83E290E00E94C0
:104A6000392F6FEF84E290E00E94392F6FEF85E2DB
:104A700090E00E94392F6FEF7FEF90E080E00E947E
:104A8000572F0E94541483E090E00E94152F682F46
:104A900070E090E080E00E946A0E109290058FEF27
:104AA0009FEF9093AA058093A9059093AC058093FE
:104AB000AB059093AE058093AD059093B0058093C0
:104AC000AF059093B2058093B1059093B4058093A0
:104AD000B3059093B6058093B5059093B805809380
:104AE000B7051092000590931A05809319059093CD
:104AF0001C0580931B0590931E0580931D059093C4
:104B0000200580931F0590932205809321059093A3
:104B10002405809323059093260580932505909383
:104B200028058093270590E080E00E94232F8A3E8D
:104B30009E4F21F00E9420150E945D2346E050E028
:104B40006CE170E084EC95E00E94052F8091C40533
:104B50008C7F11F40E945D2383E290E00E94152F68
:104B6000813211F00C94F32D84E290E00E94152F15
:104B7000823111F00C94F32D85E290E00E94152F04
:104B8000863111F00C94F32D2198299A22982A9AB3
:104B900083B1869581701A99C9C090E0892B809362
:104BA0003A058091FD0480688093FD048091FD04A6
:104BB0009091FE040E94221383E190E00E941D2F39
:104BC00060932F05709330058093310590933205E3
:104BD00086E091E090932E0580932D0580918605C7
:104BE00000E112E1853009F4DDC00E9452228111FA
:104BF0000E944407A9E4EA2EA5E0FA2E85E891E098
:104C00009CA78BA7A5E5B5E0BEA7ADA7712C612C2D
:104C1000EDA5FEA541905190FEA7EDA7D7018D917E
:104C20009C918415950509F4F4C0FC01E425F52553
:104C3000FBABEAABD12CC12CAA24A394B12C8AA93A
:104C40009BA98A219B21892B09F4D9C0C9A26AA2F8
:104C500082010A211B2181E00115110509F480E080
:104C60008BA30E9450078160782F9DA38CA349A13C
:104C70005AA16BA18DA10E94C221D7018D919C9157
:104C800011978A259B258D939C93012B41F0EBA5D1
:104C9000FCA5EC0DFD1D80818F3F09F08DC0312CEE
:104CA00020900005032D10E0C801820D911D099789
:104CB00064F168E0862E912C801A910AB8016F5F2A
:104CC0007A4FA40181E095E00E94FC2EB801675F55
:104CD0007A4FA40189E095E00E94FC2EA401440FC4
:104CE000551FB801660F771F675E7A4F89E195E01F
:104CF0000E94FC2EB8016F5E7A4FA40181E195E01D
:104D00000E94FC2E2A94209200058091000590E0DC
:104D1000EFA5AE2FB0E09D01220F331F21523E4F71
:104D2000AA0FBB1FBD0160527E4F5FC092E036CF1D
:104D300080918605843021F11092FF04E8E1F0E0D3
:104D400020E40FB6F894A895E09360000FBE20937E
:104D5000600083B7817F846083BF83B7816083BF36
:104D60007894889583B78E7F83BF0FB6F894A89503
:104D700080916000886180936000109260000FBE97
:104D800080918505882371F00E945222E5E5F5E0C7
:104D900081919191892B09F010C741E655E04E179A
:104DA0005F07B1F780918605853009F4C1CF0E9475
:104DB0008B150E94A50819CF8FA73324339470CF89
:104DC00090E0FC01E050FB4FD9015C915183DB0185
:104DD0005C915187BFA5B18B880F991FFC01E050F2
:104DE000FB4F128E118E91E0842F41E0480F9315F6
:104DF00038F3809300057394FBE0F71540F1AA0C9B
:104E0000BB1C2FEFC21AD20A3FE0C316D10409F02F
:104E100016CF639442E0E40EF11C8BA59CA50F967F
:104E20009CA78BA796E06912F3CE711010C08FEF8C
:104E30008EA38FA318A60E9450078160782F9AA78F
:104E400089A74EA15FA168A58AA50E94C221C09032
:104E50002905D0902A05E0902B05F0902C058FB7FE
:104E6000F8948090330590903405A0903505B0906B
:104E700036058FBF240135014C185D086E087F0888
:104E80000E9444076093290570932A0580932B059F
:104E900090932C05A0910005E0E0F5E02A2F30E08A
:104EA000BFEFCB0EDB1EE11CF11CC818D908EA08C5
:104EB000FB08A3137CC1209300053091C405E32FA8
:104EC000E370FE2E19F0F32EF694F694209114015F
:104ED000213009F496C1222309F47CC1223009F45F
:104EE000EDC4233009F4F4C4E0913A05EE0FEE0F5F
:104EF000E0933A0583B18695817088AB19AA1A9917
:104F000006C580E0A8A9B9A98A2BE82BE0933A0549
:104F1000EF70F0E0EA59FE4F808190913905890FDA
:104F20008093390520E08430D4F0809138058F5F7C
:104F30008093380584E0898385E08A8311E01B83B0
:104F40000E9450078160782F9D838C8310933705D2
:104F500049815A816B818D810E94C22121E080911B
:104F600039058D3FDCF480913805815080933805F8
:104F700083E0898385E08A8381E08B830E945007E8
:104F80008160782F9D838C8382E0809337054981EF
:104F90005A816B818D810E94C22121E08091390567
:104FA000082E000C990B64E070E00E947F2E809325
:104FB000390521110E94440786E0E1E4F5E0DE01B5
:104FC000119601900D928A95E1F7F0904305E090DB
:104FD0004405109145050091460510924305109235
:104FE000440510924505109246058F2D8E2909F42F
:104FF00048C080913F05909140050E9435079C0173
:1050000090913E05992309F416C623333105C8F162
:105010009F3F19F09F5F90933E05FF2059F00E943B
:10502000480F9FEF1F140CF491E0899F802D1124ED
:1050300080934305EE2059F00E94480F9FEF1E1405
:105040000CF491E0899F802D1124809344053091C8
:1050500043053323B1F020914405222391F045EB21
:105060003403C0011124992309F454C490934305D7
:1050700055EB250390011124332309F44FC43093D9
:105080004405812F802B09F448C080913C05909104
:105090003D050E9435079C0190913B05992309F439
:1050A000C5C525363105C8F19F3F19F09F5F909324
:1050B0003B05112359F00E94260F9FEF11160CF4A7
:1050C00091E0899F802D112480934505002359F09C
:1050D0000E94260F9FEF10160CF491E0899F802DFF
:1050E000112480934605309145053323B1F020917A
:1050F0004605222391F045EB3403C0011124992386
:1051000009F410C49093450555EB25039001112433
:10511000332309F40BC430934605809143059091E5
:105120004405892B90914505892B90914605892B43
:1051300011F00E94A00D86E0FE013196A1E4B5E0D9
:1051400001900D928A95E1F70E94A508909147057C
:10515000891721F00E94A508809347058091860554
:10516000843009F03BCD83E08093E9008091E80032
:1051700082FF34CD8091E80090E085FF06C00E9458
:10518000D303882309F4D6C391E08091E8008B779C
:105190008093E800992309F421CDE981E150E331BE
:1051A00008F041C4F0E0EA51F04D0C94932E418D8B
:1051B000528D4A01B12CA12CC814D904EA04FB0475
:1051C00020F421503F5F329674CE440D551D528F0E
:1051D000418FF8CF109211016093B9057093BA0511
:1051E0008093BB059093BC0589E2E0E0F5E0A0E97F
:1051F000B5E001900D928A95E1F781E0809314016A
:1052000073CE9091050181E0F9120BC0832F83705A
:105210002091040130E091E08217130609F490E038
:10522000892F8170809313018091C905909112019B
:10523000981739F08093120140E060E080E00E940E
:10524000CC08F7E2FF1550F0EF2DF0E0E750F04DFD
:105250000C94932E80911301811102C010E028C09C
:1052600040E060E080E00E94CC08F8CF009111019E
:1052700085E1089F002D1124B5E1EB2EE00EDE2C18
:1052800027E62E1510F4A7E6DA2E6091C505709179
:10529000C6058091C7050E94400AC62EB72EA82ECB
:1052A00010E00D1508F447C011E036E63E15B0F2E7
:1052B000809111018F5F809311011111D0C292E092
:1052C00090931401909113019111C9C2FF2009F428
:1052D000FDC295E1899FF02C11244BEEC42ECF0C1A
:1052E000EF2C57E65F1510F437E6E32E80912F057B
:1052F00080FDB9C2E0912D05F0912E05309709F09F
:10530000CAC280912F0581FFEFCD05E510E0D12CB9
:10531000F12C0C151D0548F0E016F10630F020E0E8
:1053200040E060E0C8010E94CE080F5F1F4F0736C3
:10533000110579F7D9CDF801E355FD4F80819091A2
:105340001201892331F02A2D4C2D6B2DC8010E94AA
:10535000CE080F5F1F4FA5CF0091110185E1089F77
:10536000002D1124F5E1EF2EE00EDE2C47E64E1560
:1053700010F4E7E6DE2E8090C6059090C7051091E8
:10538000C505612F782D892D0E94400AC62EB72EA3
:10539000A82E6091C805610F782D892D0E94400AC2
:1053A000962E872E782E10E00D1530F011E056E67F
:1053B0005E1508F07DCF52CFF801E355FD4F908187
:1053C00080911201892359F0272D492D682D90FDD8
:1053D00003C02A2D4C2D6B2DC8010E94CE080F5FF3
:1053E0001F4FE2CF0091110185E1089F002D11248C
:1053F00075E1E72EE00ECE2C87E68E1510F467E6F9
:10540000C62EB090C605A090C7052091C80550E4EF
:10541000D52E3D2D329F312D1124D32E10E00C15A9
:1054200030F011E046E64E1508F042CF17CFF801F4
:10543000E355FD4F8081909112018923B9F0F80165
:10544000EE0FFF1FE052FE4F808182958F706091BA
:10545000C5058D9D600D11247B2D8A2D0E94400A6B
:10546000462F282F672FC8010E94CE080F5F1F4FBD
:10547000D6CF0091110185E1089F002D112435E15F
:10548000E32EE00ECE2C57E65E1510F427E6C22E72
:10549000B090C605A090C7052091C80590E4D92E0C
:1054A0003D2D329F312D1124D32E10E00C1508F024
:1054B000B8CFF801E355FD4F808190911201892307
:1054C000D9F0F801EE0FFF1FE152FE4F6081D69E2A
:1054D000B001112485E0759567958A95E1F7809173
:1054E000C505680F7B2D8A2D0E94400A462F282F64
:1054F000672FC8010E94CE080F5F1F4FD7CF0091C2
:10550000110185E1089F002D1124A5E1EA2EE00E8E
:10551000DE2C57E65E1510F4F7E6DF2EC090C505C9
:105520001091C605B090C7056091C805669566954F
:1055300066958091B9059091BA050E94360A0E943D
:105540009C09805887FD8195880F282F3B2D239F2C
:10555000212D1124822F6C2D712F0E94400AC62EFE
:10556000B72EA82E10E00D1508F05BCFF801E3551B
:10557000FD4F808190911201892331F02A2D4C2D0D
:105580006B2DC8010E94CE080F5F1F4FECCF87E044
:1055900097E00E94AD0B07C08DED96E0FACF8EE745
:1055A00099E00E94510B182F83CE8FE599E0F9CF37
:1055B00084E499E00E94D40AF6CF88E299E0FACF19
:1055C0008BED96E0E6CF82ED96E0E3CF89EC96E0B6
:1055D000E0CF80EB96E0DDCF82EA96E0EBCF8EE085
:1055E0009AE0DFCF87E199E0DCCF83E099E0E2CF7A
:1055F00085E796E00E94FB0BD6CF87E496E0FACFD2
:1056000080E196E0F7CF1091130111111EC0609157
:10561000C80520E1620F08F46FEF8091B905909101
:10562000BA050E94360A6AE070E00E946B2E892B50
:1056300009F014CE0E94EC2E67E670E00E947F2EE7
:10564000609112010E94731333CE0091110185E124
:10565000089F002D1124E5E1EE2EE00E8E2D57E679
:105660005E1508F487E610E0C82ED12C0C151D0538
:1056700034F011E086E68E1508F01ACEEFCD609179
:105680001201C8010E9473130F5F1F4FEFCF1091DB
:10569000130111111EC06091C80520E1620F08F4CA
:1056A0006FEF8091B9059091BA050E94360A65E0C6
:1056B00070E00E946B2E892B09F0D0CD0E94EC2E59
:1056C00067E670E00E947F2E609112010E945113E4
:1056D000EFCD0091110185E1089F002D112475E1A6
:1056E000E72EE00E8E2D97E69E1508F487E610E073
:1056F000C82ED12C0C151D0534F011E0A6E6AE1510
:1057000008F0D6CDABCD60911201C8010E945113B3
:105710000F5F1F4FEFCF0091110185E1089F002D12
:10572000112465E1E62EE00EDE2CB7E6BE1510F47E
:1057300057E6D52EB090C605C090C7051091C50597
:105740006091C8056695669566958091B9059091BA
:10575000BA050E94360A0E949C09805887FD8195EF
:10576000880F682F2CE0629F612D1124610F7B2D23
:105770008C2D0E94400AC62EB72EA82E10E00D15C3
:1057800030F011E0E6E6EE1508F092CD67CDF801B5
:10579000E355FD4F808190911201892331F02A2D2C
:1057A0004C2D6B2DC8010E94CE080F5F1F4FE7CF15
:1057B0008BEB99E0EECE8FEF95E0EBCE88EF95E0A6
:1057C0000E945D0CF0CE82EF95E0FACF80919005BB
:1057D00021E0382F321B08F430E0832F69ED75E0AB
:1057E0000E94D60CE0CE69ED75E080E0F9CF8091A3
:1057F000900521E0482F421B08F440E0842F6EE919
:1058000075E0EECF6EE975E0F0CF8091900521E074
:10581000582F521B08F450E0852F6CE675E0E0CF5E
:105820006CE675E0E2CF8091900521E0382F321BC5
:1058300008F430E0832F64E575E0D2CF64E575E0CD
:10584000D4CF8091900521E0482F421B08F440E01E
:10585000842F6EE375E0C4CF6EE375E0C6CFFF2002
:1058600009F442CB36CD10E000E0AC2CB12C8E2CEC
:10587000912C0A151B0548F08016910630F020E0A7
:1058800040E060E0C8010E94CE080F5F1F4F053561
:10589000110579F72FCD0190F081E02D099581FF59
:1058A00030CD88ED8F0D863108F02BCD2FEF4FEFE7
:1058B00060E088E290E00E94CE0823CDF0920501DE
:1058C000832F8370809304010E94F91483E096CCA7
:1058D0004091B9055091BA056091BB057091BC0526
:1058E0002FB7F8948091330590913405A091350538
:1058F000B09136052FBF841B950BA60BB70B4097B5
:10590000A105B10508F4F0CA10921401EDCA82E0B5
:1059100090E0F8CA81E080934305AACB81E08093B0
:105920004405AFCB81E080934505EECB81E08093C9
:105930004605F3CB00E210E0CE0101967C01809198
:10594000E80085FD0AC08091E8008B778093E8002D
:105950000E94D303882399F317CC8091F100D701DB
:105960008D937D010150110951F70ECC1A8289E007
:105970008B8311C08A81823009F44FC1833091F149
:10598000813009F050C00E9444070E94992E6B8319
:105990007C838D839E8380918605843009F01EC9A7
:1059A0001091E9001F709091EC00892F817090FD9B
:1059B00080E8182B82E08093E9008091E80080FF66
:1059C0000DC050E040E060E270E0CE0101960E9420
:1059D00004048091E8008E778093E8001F70109394
:1059E000E900FCC8DE011196E5E5F5E080819181D2
:1059F000329612969C93129713968C931397129645
:105A000025E0E136F20791F7C6CF8A81823059F45A
:105A10006B817C818D819E810E94992E86E290E02F
:105A20000E94392FB8CF8FEF8983B5CF4C816B811E
:105A30008A810E94A0109827892798279E838D83AA
:105A4000AACFED80FE80FE24EF24FE248A810B8104
:105A50003EE1039F8001112444EB849F000D111D42
:105A600011248C8190E0880F991F080F191F6F2D4A
:105A7000C80187960E94392F6E2DC8018896D0CF15
:105A80000E94CD1288CF80E18A8385CF81E08A830E
:105A90006ECF0A811B81102701271027CE010196A6
:105AA0007C01CC80DC01AC0DB11D6D01C8018950B9
:105AB0009D4FEC14FD0409F46ECF0930B1E01B07D3
:105AC00050F40E94152FF70184830F5F1F4FBFEF23
:105AD000EB1AFB0AEBCFD70114961C92F6CF0A8182
