:100000000C948B030C94D2030C94D2030C94D20363
:100010000C94D2030C94D2030C94D2030C94D2030C
:100020000C94D2030C94D2030C94A1230C945D2362
:100030000C94D2030C94D2030C94D2030C94D203EC
:100040000C94D2030C94AA240C94D2030C94D203E3
:100050000C94D2030C9486240C94D2030C94D203F7
:100060000C94D2030C94D2030C94D2030C94D203BC
:100070000C94D2030C94D2030C94D2030C94D203AC
:100080000C94D2030C94D2030C94D2030C94D2039C
:100090000C94D2030C94D2030C94D2030C94D2038C
:1000A0000C94D2030C94D2030C94D20305010902E0
:1000B000A10185020901A1000509190129081500FE
:1000C0002501950875018102050109300931158165
:1000D000257F95027508810609381581257F9501D0
:1000E00075088106050C0A38021581257F95017572
:1000F000088106C0C005010980A101850319012AF4
:10010000B700150126B700950175108100C0050CD8
:100110000901A101850419012AA002150126A002E6
:10012000950175108100C005010906A1018506052C
:100130000719E029E71500250195087501810205D9
:1001400007190029EF1500250195F07501810205B9
:10015000081901290595057501910295017503910D
:1001600001C00660FF0961A1010962150026FF00B8
:100170009520750881020963150026FF00952075FA
:10018000089102C005010906A101050719E029E748
:1001900015002501950875018102950175088101F9
:1001A0000507190029FF150026FF0095067508812F
:1001B000000508190129059505750191029501753C
:1001C000039101C0000000000000000000000000DA
:1001D000000000000000000000000000000000001F
:1001E00000000000000000007E0F00D4FFFFFFC7EA
:1001F0000000007800000000000000002A2B28000A
:1002000000000000000000000000000000000029C5
:10021000000000002C1E3420212224342627252E05
:10022000362D3738271E1F2021222324252633333D
:10023000362E37381F0405060708090A0B0C0D0E69
:100240000F101112131415161718191A1B1C1D2F35
:100250003130232D350405060708090A0B0C0D0E55
:100260000F101112131415161718191A1B1C1D2F15
:100270003130354C0001010101010101010102028F
:100280000202020202020203030303030303030444
:10029000040404040404050505050506060606060F
:1002A000070707070708080808090909090A0A0AC9
:1002B0000B0B0B0C0C0C0D0D0D0E0E0E0F0F0F106B
:1002C00010111111121213131414151516161717F5
:1002D000181819191A1A1B1B1C1D1D1E1E1F202061
:1002E000212222232424252626272829292A2B2CAB
:1002F0002D2D2E2F30313232333435363738393ACE
:100300003B3C3D3E3F404142434445464748494AC5
:100310004C4D4E4F50515354555658595A5B5D5E93
:100320005F616264656668696B6C6D6F707273752E
:1003300077787A7B7D7E8082838587888A8C8E8F92
:1003400091939596989A9C9EA0A2A3A5A7A9ABADC0
:10035000AFB1B3B5B7BABCBEC0C2C4C6C9CBCDCFAE
:10036000D1D4D6D8DBDDDFE2E4E7E9EBEEF0F3F55C
:10037000F8FAFDFF0000000000000000000000018E
:100380000204060A0F17202C3A4A5D71879DB3C7F5
:10039000DAE9F5FCFFFCF5E9DAC7B39D87715D4A40
:1003A0003A2C20170F0A060402010000000000008A
:1003B00000000000000029003A003B003C003D0026
:1003C0003E003F0040004100420043004400450021
:1003D000C25C35001E001F00200021002200230007
:1003E00024002500260027002D002E002A004C00A6
:1003F0002B0014001A000800150017001C0018003C
:100400000C00120013002F00300031004B003900A7
:1004100004001600070009000A000B000D000E0082
:100420000F0033003400000028004E00E1000000FF
:100430001D001B0006001900050011001000360009
:1004400037003800E50052004D00E000E300E20014
:10045000A900AA0000002C00000000000000E60037
:100460000151500051004F00000001000100010047
:100470000100010001000100010001000100010074
:100480007200730001000100010001000100010081
:100490000100010001000100010001000100010054
:1004A0000100C55CC25C0100010001000100010007
:1004B0000100010001000100010001000100010034
:1004C000C65C010001000100010001000100010003
:1004D0000100010001000100010000000100C75CF3
:1004E0000100000001000100010001000100010005
:1004F00001000100010001000100C95CC85C0100AD
:1005000001000100010001000000010000000000E6
:100510000000C35C0100CC5CCA5CCB5C0000010045
:1005200001000100010001000100010001000100C3
:1005300001000100010001000100010001000100B3
:1005400001000100010001000100010001000100A3
:100550000100010001000100010001000100010093
:100560000100010001000100010001000100010083
:100570000100010001000100010001000100010073
:100580000100010001000100010001000100000064
:100590000100010001000000010001000100010054
:1005A0000100010001000100010001000100010043
:1005B0000100010001000100010001000000010034
:1005C0000000000000000100010001000100010026
:1005D0000000010001000100010001000100010014
:1005E0000100010001000100010001000100010003
:1005F00001000100010001000100010001000100F3
:1006000001000100010001000100010001000100E2
:1006100001000100010001000100010001000100D2
:1006200001000100010001000100010001000100C2
:1006300001000100010001000100010001000100B2
:1006400001000000010001000100000001000100A4
:100650000100010001000100010001000100010092
:100660000100010001000100010001000100010082
:100670000000010000000000000001000100010076
:100680000100010009025B00030100A0FA09040057
:1006900000010301010009211101000122400007AE
:1006A00005810308000A0904010002030000000993
:1006B0002111010001222200070582032000010709
:1006C00005030320000109040200010300000009E2
:1006D000211101000122B6000705840320000A123F
:1006E00001000200000008A17B0175010001020069
:1006F000010A034D00570037003500000012034D7A
:10070000005700530074007500640069006F00001A
:1007100000040309040011241FBECFEFDAE0DEBF9E
:10072000CDBF04B603FE27C08091F3059091F40578
:10073000A091F505B091F6058730904BA740B04BDE
:10074000D1F41092F3051092F4051092F505109271
:10075000F60514BE84B7877F84BF0FB6F894A895BA
:1007600080916000886180936000109260000FBEED
:10077000E0E0F8E3099525E0A6E0B3E001C01D92B2
:10078000A33FB207E1F713E0A0E0B1E0ECE3F2E64B
:1007900002C005900D92A630B107D9F70E94C82477
:1007A0000C94BB300C9400009091ED05937061F0B7
:1007B00081110BC094609093ED0510921801809107
:1007C000EC0581608093EC0508958A3210F0946AFC
:1007D000F2CF880F880F982BEECF9091ED05937094
:1007E00071F08093EE056093EF05493C08F048EC0A
:1007F0004093F0058091EC0581608093EC050895AD
:10080000E8EDF0E080818E7F80831092E20010920C
:10081000DA001092E100A0EEB0E08C9181608C9340
:1008200080818F77808319BCA7EDB0E08C918E7F9B
:100830008C9380818F7E808310928C050895209107
:10084000E4003091E50095E6A9012091EC00822FAB
:10085000817020FF06C08091E80080FF06C080E024
:1008600008952091E80022FD1AC08091B1058823E7
:1008700089F0853089F08091EB0085FD0FC02091D3
:10088000E4003091E50042175307F9F29150E1F688
:1008900084E0089582E0089583E0089581E008955A
:1008A000EF92FF920F931F93CF937C018B010E94D5
:1008B0001F04C82F811117C08091E80085FD0BC06F
:1008C0008091E8008E778093E8000E941F048823BF
:1008D00099F3C82F08C0F70181917F018093F1003F
:1008E0000150110949F78C2FCF911F910F91FF9063
:1008F000EF9008958091B30587FF13C08091E800C1
:1009000082FF06C08091E8008B778093E80004C0E6
:100910008091B1058111F2CF08958091B1058823AE
:10092000D9F38091E80080FFF8CF8091E8008E77BE
:10093000ECCF982F9093E900242F762F50E0891761
:1009400031F07091EC002091ED005091F00021FD0C
:1009500007C09F5F973071F78093E90081E00895A9
:100960003091EB003E7F3093EB003091ED003D7F06
:100970003093ED003091EB0031603093EB007093D9
:10098000EC002093ED005093F0002091EE0027FD45
:10099000E0CF80E00895CF92DF92EF92FF920F9325
:1009A0001F93CF93DF93C8EDD0E088818F7E88833B
:1009B000E7EDF0E080818160808384E082BF81E0A8
:1009C00080938C0588818E7F888302EE10E0F80189
:1009D00010821092DA0081EEC82ED12CF60110821E
:1009E00088818F77888388818068888388818F7DDC
:1009F000888319BC1092B1051092B2051092B0050F
:100A00001092AF0590EEE92EF12CF70180818B7FDB
:100A1000808388818160888342E060E080E00E947A
:100A20009904F60180818E7F8083F8018081816046
:100A30008083808188608083F70180818E7F8083BE
:100A4000888180618883DF91CF911F910F91FF9002
:100A5000EF90DF90CF900895FC018091B9059091BF
:100A6000BA0586179707A0F06115710529F49091D2
:100A7000E8009E779093E80090E06115710551F4CD
:100A8000911108C08091E80082FF34C080E0089591
:100A9000BC01F2CF8091B1058823C1F18530C1F14D
:100AA0008091E80083FD30C08091E80082FDEACFAC
:100AB0008091E80080FFE1CF8091F3002091F20067
:100AC000382F6115710519F02830310558F091E083
:100AD0002830310509F090E02091E8002E7720932E
:100AE000E800CBCF81918093F100615071092F5FB5
:100AF0003F4FE7CF8091B105882341F0853041F029
:100B00008091E80083FFBECF81E0089582E00895E0
:100B100083E00895089580918E0508959C014FB754
:100B2000F8948091830590918405A0918505B091FA
:100B300086054FBF821B930B08952FB7F8946091E1
:100B400083057091840580918505909186052FBF5E
:100B500008952FB7F8948091830590918405A09112
:100B60008505B09186052FBF089520911401222399
:100B7000C9F02091870527FF15C0E62FE695E69579
:100B8000E695EE31D8F4E80FF92FF11D677021E0FA
:100B900030E001C0220F6A95EAF720958281282370
:100BA00022830895FC01329608962191621303C0B6
:100BB000DF0111971C92E817F907B9F70895209102
:100BC00014012223C1F02091870527FF14C0E62FCE
:100BD000E695E695E695EE31F8F4E80FF92FF11D6C
:100BE000677021E030E001C0220F6A95EAF7828148
:100BF000822B82830895FC0132962FEF30E04191E1
:100C0000641751F02F3F19F4411101C0232F3F5FAA
:100C10003630A9F72F3F09F40895820F911D27FD63
:100C20009A95FC0162830895209181053091820597
:100C30002817390771F09093820580938105E09120
:100C40007F05F0918005309721F00084F185E02D3B
:100C50000994089520917D0530917E052817390764
:100C600071F090937E0580937D05E0917F05F09172
:100C70008005309721F00680F781E02D09940895D2
:100C8000E0917F05F0918005309721F00190F0818F
:100C9000E02D099480E00895FA01811101C0FB0163
:100CA0000994E8E5F4E0818360834283339695E01C
:100CB000EB37F907C1F70895FC01EE0FFF1FE80FAE
:100CC000F91FE85AFB4F6183408322830895EDEEBC
:100CD000F5E0248130E1231B08F420E02483809197
:100CE000EC0581608093EC050895EDEEF5E024813C
:100CF00030E1230F08F42FEF24838091EC0581600D
:100D00008093EC050895EDEEF5E0438120E1421B70
:100D100008F440E08181628190E00C94ED03EDEEF7
:100D2000F5E0438120E1420F08F44FEF81816281B9
:100D300090E00C94ED03EDEEF5E0628120E1621BA2
:100D400008F460E08181438190E00C94ED03EDEEC6
:100D5000F5E0628120E1620F08F46FEF8181438149
:100D600090E00C94ED03EDEEF5E08181438162812A
:100D70008850990B0C94ED03EDEEF5E0818190E045
:100D80004381628108960C94ED038091ED05869570
:100D90008695815009F489E20C94D4038091ED0585
:100DA000869586958F5F8A3208F081E00C94D40393
:100DB0000C9451060C945C06EF92FF920F939701EE
:100DC000201B31092F3F310519F010F02FEF30E0D3
:100DD0002095382F320F08F43FEF832F0F91FF90AB
:100DE000EF900895EF92FF920F939701201B310926
:100DF0002F3F310519F010F02FEF30E0322F3095F2
:100E0000482F430F08F44FEF842F620F0F91FF908C
:100E1000EF900895EF92FF920F93972F093438F4D3
:100E2000B701601B71096F3F710519F010F06FEF8A
:100E300070E0485F5F4F4131510540F0A901485FC4
:100E40005F4F4131510510F06FEF70E06095482F12
:100E5000460F08F44FEF842F37FF02C02D5F3F4F3E
:100E600035952795359527956091EE05620F792F79
:100E70000F91FF90EF900895EF92FF920F931F93C1
:100E80000E0D1F2D111DF90137FF03C0F195E195DE
:100E9000F10924E0EE0FFF1F2A95E1F7EF3FF1057E
:100EA00019F014F0EFEFF0E09A0157FF03C031950D
:100EB0002195310994E0220F331F9A95E1F72E17FF
:100EC0003F070CF4F901E00FF11FEF3FF10519F0B6
:100ED00010F0EFEFF0E0E095282F3E2F230F08F4FD
:100EE0002FEF822F1F910F91FF90EF900895EF92B7
:100EF000FF920F93970195E0099F200D311D11245A
:100F00002F3F310519F010F02FEF30E02095382FEA
:100F1000320F08F43FEF832F0F91FF90EF90089569
:100F200022E8241B08F420E0620F08954095282F42
:100F3000429F412D1124842F0895E42FF0E0EE0FFD
:100F4000FF1FED51FE4F9081921B97FD9195292F28
:100F500038E1239F212D1124620F08950F931F93D1
:100F600010E0F801EE0FFF1FED51FE4F90819057FA
:100F700097FD9195000F111FF801EC51FE4F008174
:100F80000052110B2003F001219FF00D112408E302
:100F900010E0091B110997FD139540039001419F33
:100FA000300D1124E20FF31F9F01220F331F2E0F6C
:100FB0003F1F37FF02C021583F4F220F232F221F10
:100FC000330B620F1F910F9108950F931F93522FB0
:100FD00010E0F801EE0FFF1FEC51FE4FA081A05270
:100FE000BB0B9D015203F001539FF00D1124000F24
:100FF000111FD801AD51BE4F0C910057110B40038A
:101000009001419F300D11242E0F3F1F37FF02C06A
:10101000215C3F4F96E0359527959A95E1F7620F51
:101020001F910F9108950F931F93522F10E0F80115
:10103000EE0FFF1FEC51FE4FA081A052BB0B9D0194
:101040005203F001539FF00D1124000F111FD8011E
:10105000AD51BE4F0C910057110B40039001419FC1
:10106000300D11242E0F3F1F37FF02C021583F4F74
:10107000220F232F221F330B620F1F910F91089510
:10108000EF920F93972F23E0029FB00111247595E3
:1010900067956E0D792F0F91EF900895322F50E0E4
:1010A000FA01EE0FFF1FEC51FE4F9081905297FD19
:1010B0009195440F551FFA01ED51FE4F2081231BDE
:1010C000330B290F311D97FD3A95620F0895E42FD8
:1010D000F0E0EE0FFF1FEC51FE4F6081621B0895A0
:1010E000E42FF0E0EE0FFF1FED51FE4F6081621B19
:1010F0000895622F0895E42FF0E0EE0FFF1FED51E9
:10110000FE4F408134EE439F412D1124E82FF0E043
:1011100050E0445E5F4FDA01A21BB1099D01B7FFA9
:1011200003C031952195310993E0220F331F9A9521
:10113000E1F7AF01421B530B9A0157FD20E0582FF6
:10114000259F212D1124822F0895E42FF0E0EE0F2A
:10115000FF1FED51FE4F408134EE439F412D11247E
:10116000E72FF0E050E0445E5F4FDA01A21BB109C7
:101170009D01B7FF03C031952195310993E0220FFE
:10118000331F9A95E1F7AF01421B530B9A0157FDAC
:1011900020E0279F212D1124722F0895FC019B012F
:1011A000009729F480E077FF2BC080E80895AC0118
:1011B00097FF04C044275527481B590BB901640FFA
:1011C000751F37FD10C0241B350BC901A5E0880F22
:1011D000991FAA95E1F70E946D2F80E2861BF7FF09
:1011E0000FC081950895CB0165E0880F991F6A951E
:1011F000E1F7BA01621B730B0E946D2F80E6EECF00
:101200000895EF920F93CF93DF93D72FC82FC90183
:101210000E19BA010E94CE08602F681B7D2F8C2FFB
:10122000DF91CF910F91EF9008950F93CF93DF93BC
:10123000D72FC82FC901BA010E94CE08682F600FAE
:101240007D2F8C2FDF91CF910F910895EF920F9307
:101250001F93CF93DF93D62FC72F182FC9010E19D5
:10126000010FBA010E94CE08081B202F219F212DBB
:101270001124822F6D2F7C2FDF91CF911F910F9121
:10128000EF900895EF920F931F93CF93DF93D62F94
:10129000172FC82FC9010E19070FBA010E94CE08D7
:1012A000702F781B719F712D11246D2F8C2FDF9162
:1012B000CF911F910F91EF9008950F931F93CF93AC
:1012C000DF93D62FC72F182FC901212F201B022FE4
:1012D000BA010E94CE08982F990F990F891B800F91
:1012E000282F219F212D1124822F6D2F7C2FDF91FC
:1012F000CF911F910F9108950F931F93CF93DF9379
:10130000D62F172FC82FC901272F201B022FBA0154
:101310000E94CE08982F990F990F782F791B700F84
:10132000719F712D11246D2F8C2FDF91CF911F9103
:101330000F910895E82F86FDE0952E2F2F7086FDE2
:101340002F5FE695E695E695E670F0E0EE58FE4FE5
:101350009181929F902D212D112492959F7022951D
:10136000207F922B2081920F87FD919580E8890F35
:1013700008950F931F93CF93DF938B01D82FC42F22
:10138000822F0E949A09EC2FF0E0EE0FFF1FED5123
:10139000FE4F90819058890F87FD8195880F682FA7
:1013A0002CE0629F612D1124600F712F8D2FDF9132
:1013B000CF911F910F910895409112015091130107
:1013C00025E038E0429FC001439F900D529F900D51
:1013D0001124875E994C9093130180931201890F19
:1013E0000895AC018230910508F408959FEF413EC5
:1013F0008EE1580740F49A0195E0369527959A9525
:10140000E1F798E0920F61E0E62FE90FFF27FF1F59
:101410009F0135952795822F229FF001239FF00D84
:10142000F00D11244E175F0738F49FEF920F9617B7
:1014300058F78FEF860F08952F3FE9F361E0620FB1
:10144000F6CF0F93CF93DF93D72FC82F47FD41954A
:1014500088E390E0841B910947FD9395889FB00134
:10146000899F700D700D1124229FC001239F900D44
:10147000900D1124860F971F0E94F109982F990F44
:10148000890F682F600F7D2F8C2FDF91CF910F91E7
:10149000089530E020E0869F212D969F200D311D7C
:1014A0001124C9010895AF92BF92CF92DF92FF92AB
:1014B0000F931F93CF93DF93362F472FE82FF0E042
:1014C000EC58FD4F71110FC0E4918E2F2E2F6E2F0F
:1014D000722FDF91CF911F910F91FF90DF90CF90EE
:1014E000BF90AF900895C72FD0E02491F22E022F25
:1014F00010E056E0659FC0011124EFEFF0E0BF015E
:101500000E94592F832F90E0880F991F35E5369F51
:10151000D001379FB00D11248A1B9B0B982F990F78
:10152000980F6F01CC1ADD0AC09ED001C19EB00D8C
:10153000D09EB00D11248B2F499FA0011124452F5F
:1015400055276F01C41AD50AC09EA001C19E500D37
:10155000D09E500D11245F01A91AB108AC9E600104
:10156000AD9ED00CBC9ED00C1124CD2CDD24EC19EA
:10157000FD09E09FE001E19FD00DF09FD00D112407
:10158000ED2F62307105A1F050F46115710509F479
:101590009ECF6130710581F0EB2F852F98CF64309D
:1015A000710569F080F06630710509F490CFF4CFD1
:1015B000E22F2B2F8D2F8BCFE22F252F88CFEB2FD4
:1015C000822F2D2F84CF2B2F8F2DE52F80CF2F9281
:1015D0003F925F926F927F928F929F92AF92BF9253
:1015E000CF92DF92EF92FF920F931F93CF93DF93EF
:1015F000CDB7DEB72A970FB6F894DEBF0FBECDBFCA
:101600008B837E836D832091150184E1289F802D3B
:1016100011248F838C5E89838A83823610F031E6B1
:101620003A838091BF058C83FF81EF2FF0E0FA872A
:10163000E987CF01880F991F9C012D513E4F690109
:101640003B81832F90E0FC013196F887EF838A81FC
:1016500099859817E8F081E0E981E13608F080E0AB
:101660002A960FB6F894DEBF0FBECDBFDF91CF91A3
:101670001F910F91FF90EF90DF90CF90BF90AF90B0
:101680009F908F907F906F905F903F902F900895E4
:10169000E985FA85EB55FD4F8081909116018923EC
:1016A000F1F02090EE053090EF052F813885215420
:1016B0003A4F39015B8010E0FC815F16D0F0209139
:1016C000F005129F112D1124B101812F0E94530AA0
:1016D000462F282F672F89859A850E94DA0629854B
:1016E0003A852F5F3F4F3A87298732E0C30ED11CDE
:1016F000AECFF30181913F01F601A080A81ABB088B
:101700008180F3018781881A9908AA9C9001AB9C7B
:10171000300D300D1124889CC001899C900D900DD6
:101720001124820F931F0E94F109082F6091F10587
:1017300021E0620F08F46FEFF301EE0FFF1FEF5B84
:10174000F540858996890E94490A7C019401A5018A
:10175000B101812FED81FE8109951B015394182F52
:10176000ABCFCF92DF92EF92FF920F931F93CF9365
:10177000DF938C01C091150184E1C89FC02D112415
:1017800024E1D22EDC0ECD2C21E62D1510F491E6AD
:10179000C92E2091F10531E0230F08F42FEF30E03E
:1017A00050E040E06FEF7FEF80E090E00E94583023
:1017B0007901D0E02C2FCC1570F081E0F0E6FD151A
:1017C00008F480E0DF91CF911F910F91FF90EF908F
:1017D000DF90CF900895FE01EB55FD4F80819091F1
:1017E0001601892311F14091BF054150042E000CD0
:1017F000550B47FF1CC0C7016091F10521E0620F46
:1018000008F46FEF0E94490AAC016091EE057091F7
:10181000EF058091F005F80109950E94530A462FC3
:10182000282F672FCE010E94DA062196C3CFFA0136
:10183000E154FA4F818982130AC0FA01EE0FFF1FAB
:10184000E154FA4F818D928D8E159F05A8F241507B
:101850005109CFCFDF92EF92FF920F931F93CF9357
:10186000DF937C01C091150184E1C89FC02D112434
:1018700014E11C0F012F123608F001E66091F1050A
:101880006695669521E0620F08F46FEF8091BB05C5
:101890009091BC050E94490AD82ED0E0C01760F094
:1018A00081E0113608F080E0DF91CF911F910F9118
:1018B000FF90EF90DF900895FE01EB55FD4F808182
:1018C00090911601892391F06091EE057091EF05DA
:1018D0008091F0052D2D4C2FF70109950E94530A98
:1018E000462F282F672FCE010E94DA062196D6CFE9
:1018F0009F92AF92BF92CF92DF92EF92FF920F939F
:101900001F93CF93DF936C01C091150184E1C89FB1
:10191000C02D112414E11C0FB12E123610F031E647
:10192000B32E6091F105669566958091BB05909107
:10193000BC050E94490AF82E80E48F0D0E949A0986
:1019400090E8A92EA80E8F2D0E949A0920E8922EC9
:10195000980ED0E0CB1580F081E0113608F080E0E1
:10196000DF91CF911F910F91FF90EF90DF90CF907B
:10197000BF90AF909F900895FE01EB55FD4F808181
:10198000909116018923A1F06091EE057091EF0509
:101990008091F005EF2C0C2F292D4A2DF601099589
:1019A0000E94530A462F282F672FCE010E94DA0685
:1019B0002196D0CF7F928F929F92AF92BF92CF927B
:1019C000DF92EF92FF920F931F93CF93DF935C010F
:1019D000C091150184E1C89FC02D112414E11C0F92
:1019E000F12E123610F031E6F32E6091F105669576
:1019F0008091BB059091BC050E94490A782ED0E0E9
:101A0000CF1590F081E0113608F080E0DF91CF91A2
:101A10001F910F91FF90EF90DF90CF90BF90AF900C
:101A20009F908F907F900895FE01EB55FD4F808130
:101A3000909116018923C9F1CE01880F991F87570C
:101A40009E4FFC01E65AFF4F2081422F4057550B15
:101A50006A01855A9F4FFC018081282F2052330B49
:101A60004901449F9001459F300D300D1124889C01
:101A7000C001899C900D900D1124820F931F0E942C
:101A8000F109082F6091EE057091EF058091F00546
:101A9000E72C9401A601F50109950E94530A462FEF
:101AA000282F672FCE010E94DA062196A9CFCF9268
:101AB000DF92EF92FF920F931F93CF93DF937C01FE
:101AC000C091150184E1C89FC02D112414E11C0FA1
:101AD000D12E123610F031E6D32E6091F1056695C5
:101AE0008091BB059091BC050E94490AC82ED0E0A8
:101AF000CD1568F081E0113608F080E0DF91CF91DC
:101B00001F910F91FF90EF90DF90CF900895FE010D
:101B1000EB55FD4F808190911601892311F1CE0183
:101B2000880F991F87579E4FFC01E55AFF4F208170
:101B30002052330B865A9F4FFC0140814057550B72
:101B40006091EE057091EF058091F0050C2DF70185
:101B500009950E94530A462F282F672FCE010E9415
:101B6000DA062196C5CF0E94A9059C0190915404E4
:101B700080915504982B21F0309351042093500408
:101B80009091560480915704982B21F030934F0484
:101B900020934E04E0917F05F0918005309749F045
:101BA00082E0809352040480F581E02D82E594E088
:101BB0000994089540915404803F59F4809155044C
:101BC00087FF0DC01092550441110BC010924C04B8
:101BD00008C0813F81F48091550418169CF344237A
:101BE00081F08091560490915704892B09F05AC0D6
:101BF00010924B040895823F49F447FFF0CF1092B2
:101C00005404809155048111ECCFE0CF833F19F447
:101C10001416ACF3E4CF90915604893F29F41916B9
:101C2000F4F610925604DBCF8A3F19F497FFD7CF12
:101C3000F8CF909157048B3F29F497FFD0CF1092A3
:101C40005704CDCF8C3F19F41916CCF3C8CF9CE0C4
:101C5000980F953090F4845F990B21E030E0B90142
:101C600002C0660F771F8A95E2F7CB0180959091AD
:101C70005304892380935304B2CF8D3F31F4809174
:101C80004D048E7F80934D04AACF8E3F21F4809126
:101C90004D048D7FF7CF8F3F09F0A1CF80914D0488
:101CA0008B7FF0CF089580914D0480FD16C081FD9B
:101CB00016C082FD16C080914B048823A1F08832A3
:101CC00080F428E0829FC001112468E270E00E9445
:101CD0006D2F862F672B39F0089582E0089584E0F8
:101CE000089588E0089581E0089580914D0480FD75
:101CF00014C081FD14C082FD16C080914C0488235D
:101D000081F0843180F422E3829FC001112464E1D8
:101D100070E00E946D2F862F08958CE0089589E170
:101D2000089585E0089582E30895803F31F40E948C
:101D3000750E8195809355040895813F19F40E9492
:101D4000750EF8CF823F31F40E94750E8195809315
:101D500054040895833F19F40E94750EF8CF893F0B
:101D600029F40E94530E8093560408958A3F21F46B
:101D70000E94530E8195F7CF8B3F31F40E94530E92
:101D800081958093570408958C3F19F40E94530E57
:101D9000F8CF9CE0980F953070F4845F990B21E0A8
:101DA00030E001C0220F8A95EAF780915304822B1C
:101DB0008093530408958D3F31F480914D048160E8
:101DC00080934D0408958E3F21F480914D048260EC
:101DD000F7CF8F3FB9F780914D048460F1CF80E059
:101DE0000895F894E82FE295EF70F0E031A1282FE4
:101DF0002F7081E090E001C0880F2A95EAF7982FB4
:101E00009095932391A392A1892B82A3789408950E
:101E10009091870592FF06C0282F28712830F9F489
:101E2000877F846093FF06C0282F28712831F1F442
:101E3000877E84612091880520FF06C0382F387185
:101E40003830D9F4877F816021FF06C0282F2871A0
:101E50002831D1F4877E816194FD877E0895282FF3
:101E600024712430F9F68B7F8860DCCF282F247111
:101E7000243101F78B7E8861DDCF382F317131300D
:101E800019F78E7F8860E0CF282F2171213121F74B
:101E90008E7E8861E1CFCF93DF93EC01823891058C
:101EA000A9F1D8F58133910509F496C048F5893236
:101EB000910509F48AC08A9709F495C0C11521E5F6
:101EC000D20708F0BCC0C11530E5D30708F014C133
:101ED000C83ED10508F09CC0C03ED10560F5C83AA7
:101EE000D10508F087C0C53AD10508F0FDC0C13062
:101EF000D10509F12097F9F0C430D105E0F440C0D4
:101F00008533910509F45AC0C997C1F680918705B8
:101F1000837089F0C0EED0E00EC0833E910599F148
:101F200070F4803E910501F1823E910539F6809171
:101F3000870582FD21C0CE01DF91CF910895863EB5
:101F4000910561F1873E910571F1843E910509F09B
:101F5000B5CF8091880581FFEECF80918705C7EED0
:101F6000D0E084FD0DC0E7CF8091870580FD12C1D0
:101F70009091880590FFDFCFC3EED0E084FFDBCFE8
:101F8000D0E0C0E0D8CF8091870582FD06C1909156
:101F9000880590FDBFCF84FFCECFF2CF809187051B
:101FA00083FDDDCFC8CF8091870583FDF9C0909177
:101FB000880591FFF0CFC4EED0E0BDCF80918705BA
:101FC00085FFB9CFC9E2D0E0B6CF8091870585FF04
:101FD000B2CFC5E3D0E0AFCF8091870586FFABCF0E
:101FE000CAE2D0E0A8CF8091870586FFA4CFC1E3E5
:101FF000D0E0A1CFCF3BD10518F6C85AD0E0CC0F26
:10200000DD1FC15EDE4F0990D881C02DD46493CF0F
:10201000C11540E2D40758F4C11581E0D80708F093
:102020008ACFC03FD10508F4ABCFD06584CFC115AE
:1020300090E4D90708F4A4CFDF70D06A7CCFC11533
:1020400025E5D20700F5C11534E5D30708F08AC0AD
:10205000C11543E5D40708F071C0C11582E5D80762
:1020600008F467C0CE018370992721E030E002C0F8
:10207000220F331F8A95E2F7C695C69580E2C89F66
:10208000E001112452C0C11599E5D907A8F4C11582
:1020900028E5D20708F06BC0C11536E5D30708F074
:1020A0006FCF8C2F0E94080FC82FD0E0DC2FCC27D9
:1020B000CC27DF71D0623FCFC1154AE5D40708F4C1
:1020C0005BC0CE0190568115904208F059CF8D2FFC
:1020D0008F710E94080F90E0982F882788279F71A2
:1020E0009C012C2BE901E6CFC55AD0E0C45EDE4F3F
:1020F000C881D0E0D0641FCFCE01E4E096958795EB
:10210000EA95E1F783702C2F26952695237040E2FF
:10211000249F90011124382B8C2F8370C1E0D0E0D4
:1021200002C0CC0FDD1F8A95E2F7C22BD32BDC68EF
:1021300002CFDC2FCC27C16FD06AFDCECE018370D9
:10214000992721E030E002C0220F331F8A95E2F781
:10215000C695C69590E2C99FE0011124C22BD32BEE
:10216000DA68E9CEDC2FCC27C46FD06AE4CEDC2F4E
:10217000CC27C06FD06ADFCE8C2F8F700E94080FE3
:1021800034E0D695C7953A95E1F7CF709C2FEC01D6
:10219000D069D1CEC9E3D0E0CECEC2EED0E0CBCE76
:1021A000C6EED0E0C8CE80918903811110928903D8
:1021B00008958095909188039823909388030895BB
:1021C0008091880390918703892B90918603892BB6
:1021D00080930803909189039923A1F0892B809320
:1021E000080380911401882341F18091870587FFBE
:1021F00024C08EE1EAE0F3E090E0815000F5911117
:102200000E94D310E0917F05F09180053097E1F0B6
:1022100080911401882359F08091870587FF07C0BA
:10222000809108038093090386E08093080302806D
:10223000F381E02D88E093E0099486E0DBCF2191E3
:102240002223D9F29F5FD9CF089580918403909182
:102250005303981301C008958F5F8770FACF2FE062
:10226000929F800D1124982F97708695869586955C
:1022700023E0829FF0011124E75DFC4F50E040E035
:1022800080E0219130E0092E02C0369527950A940E
:10229000E2F721703327042E01C0220F0A94EAF7D7
:1022A000822B4F5F5F4F4330510559F708952FE060
:1022B000929F800D1124982F977041E001C0440F28
:1022C0009A95EAF786958695869593E0899FF00121
:1022D0001124E75DFC4F90E080E070E05191DF0158
:1022E00011979B01082E02C0369527950A94E2F7B4
:1022F000217021952527242325272C9301968330AF
:10230000910561F7089590E080E00E942A0690E030
:1023100080E00E94140610928703109286030E94A8
:10232000E01086E0E2E5F4E0DF011D928A95E9F72E
:1023300010924C0410924B0410924D040C94B30D67
:102340008093E8050C9483118091E805982F96708E
:10235000963019F488600C94A011877FFCCF21E09F
:1023600030E001C0220F8A95EAF720958091E805B8
:1023700082230C94A01190918503809589238093EA
:102380008503282F277091F4282F082E000C330B7B
:102390009217130659F09091880592FD07C0859514
:1023A000859585950E94AF1110928503089521E0CF
:1023B00030E001C0220F8A95EAF78091E805822B70
:1023C0000C94A01180938A030C948311882321F02C
:1023D0000E94D9100C94E0100895882339F0909150
:1023E0008803982B909388030C94E0100895882319
:1023F00079F19CEF980F913A38F4682F88E093E0D8
:102400000E94B5050C94E01090E2980F983050F4BB
:10241000877091E001C0990F8A95EAF7892F0E9491
:10242000D910F0CF9BE5980F933020F490E080E036
:102430000C942A0698E5980F973120F490E080E0FC
:102440000C941406803F20F00E94DA0D0C94B30D1A
:102450000895CF93C82F882309F46FC08CEF8C0F99
:10246000813AC0F580911401882311F1809187058C
:1024700087FF1EC0EC2FE695E695E695F0E0E85F55
:10248000FC4F828190E04C2F477021E030E002C089
:10249000220F331F4A95E2F782239323892B91F071
:1024A0006C2F88E093E00E94B5050E94E0100AC0FE
:1024B000EAE0F3E080E193E02191C21789F38E17FF
:1024C0009F07D1F76C2F88E093E00E94DF05CF9142
:1024D0000C94E01080E28C0F883068F4C77021E023
:1024E00030E001C0220FCA95EAF780918803822B61
:1024F00080938803ECCFEBE5EC0FE33040F4F0E0A1
:10250000E45EFE4F808190E0CF910C942A06E8E5CE
:10251000EC0FE73150F4F0E0EE0FFF1FE15EFE4FED
:1025200080819181CF910C941406C03F30F08C2FA4
:102530000E94950ECF910C94B30DCF910895809386
:10254000890570938B0560938A058091B10584306D
:10255000F9F48093E9008FEF9091E800815095FDA8
:1025600006C095ED9A95F1F700008111F5CF8091A5
:10257000E80085FF0DC050E040E063E070E089E8CE
:1025800095E00E9450048091E8008E778093E800E7
:102590000895BC0184E00C949F12BC0183E00C946C
:1025A0009F129C0184E08093E9009FEF8091E800F6
:1025B000915085FD06C085ED8A95F1F700009111D7
:1025C000F5CF8091E80085FF0CC050E040E066E068
:1025D00070E0C9010E9450048091E8008E778093DA
:1025E000E8000895CF93DF93EC01809114018823D4
:1025F000B1F18091870587FF32C060E284E080936B
:10260000E9008FEF9091E800815095FD06C095EDAF
:102610009A95F1F700008111F5CF8091E80085FFD0
:102620001BC08091140170E050E040E0811104C0B3
:1026300050E040E068E070E0CE010E9450048091DC
:10264000E8008E778093E80080E2FE01AFE8B5E015
:1026500001900D928A95E1F7DF91CF91089568E09E
:1026600081E0CDCF81E08093E00080E28093D800CC
:102670001092C9008FE19EE40197F1F700C00000BD
:1026800087E090EBDC018093F3059093F405A09331
:10269000F505B093F60588E19CE00FB6F894A8958F
:1026A000809360000FBE90936000FFCF239A35B1F6
:1026B000377F25B128604FB7F89488E594E0FC0196
:1026C0005191CF0168E025B9000000C057FF35B92E
:1026D000550F000000C000C000C035B900C06A95A9
:1026E00091F7F5E08B379F0751F74FBF8FE594E0E7
:1026F0000197F1F700C0000008951F93CF93DF9377
:10270000182FD0E0C0E0893311F4C0E5D0E0812F6C
:102710000E942912209731F4812FDF91CF911F91D0
:102720000C94F7118FE99FE00197F1F700C00000CA
:102730002197F0CF0F931F93CF93DF93C62FD42F02
:10274000022FFC0182818823A1F06093EB050E9497
:10275000A9059093EA058093E905C77081E001C05F
:10276000880FCA95EAF7DF91CF911F910F910C94D2
:10277000ED118091EB05681335C08091E9059091CA
:10278000EA050E948E05883C910560F510E21D0F58
:10279000CD17B9F080E28C0F883040F4C77081E02B
:1027A00001C0880FCA95EAF70E94E611183048F474
:1027B00081E09D2F977001C0880F9A95EAF70E94DB
:1027C000ED11802F0E947D13183098F4D77081E0AE
:1027D00001C0880FDA95EAF7DF91CF911F910F9131
:1027E0000C94E611C77081E001C0880FCA95EAF722
:1027F000F3CFDF91CF911F910F910895CF93DF9386
:10280000C7EFD2E060E0CE010E9434302196C115BE
:1028100084E0D807B9F7DF91CF9108956F927F9246
:102820008F929F92AF92BF92CF92DF92EF92FF92E0
:102830000F931F93CF93DF9384EBC82E83E0D82EA2
:1028400099EFE92EF12CE701C45BD10936011BC0D9
:10285000F50185909490692DC8010E943430682D4F
:10286000C80101960E94343082E0A80EB11C0E5FB0
:102870001F4FC017D10761F78EE1680E711C6E966D
:10288000CE15DF0529F08E010E5111095301E0CF5D
:102890007E0184EBE80EF11C84EBC80ED11C89ECA0
:1028A000E81683E0F80679F6DF91CF911F910F913A
:1028B000FF90EF90DF90CF90BF90AF909F908F9060
:1028C0007F906F900895CF93C82F6FEF811162E2D0
:1028D00083E290E00E9434306FEFC11163E084E244
:1028E00090E00E9434306FEFC11168E185E290E022
:1028F000CF910C94343080E00E94631460E086E253
:1029000090E00E9434300E940E140E94FE1381E079
:102910000C946314CF93C0918805C2FB992790F95A
:10292000981799F080FBC2F9C093880560918705DC
:1029300084E090E00E9434306C2F82E290E00E94AC
:10294000343082E0CF910C94BB11CF9108950F9356
:102950001F93CF93DF93C42FD0E0CC0FDD1F2EE168
:10296000629FC00DD11D112434EB839FC00DD11D7A
:102970001124CE0187960E941030082F10E0102FEE
:102980000027CE0188960E9410309801282BC9019B
:10299000DF91CF911F910F910895462F843038F425
:1029A000763028F46F3018F4672F0C94A71490E059
:1029B00080E00895CF92DF92FF920F931F93CF9301
:1029C000DF936C010091E80580918A03082BC7E032
:1029D000D0E010E0FC2EC8010C2E02C09595879522
:1029E0000A94E2F780FD0CC02197A0F7F12C8F2DFF
:1029F000DF91CF911F910F91FF90DF90CF900895BD
:102A0000B6018C2F0E94CD140E944B0F019761F3E9
:102A1000EECFCF93DF93EC010E94DA14BE010E9447
:102A2000CD14DF91CF910C944B0FFC0180819181EB
:102A30000E940915292F2F7092959F7092509E30F9
:102A400078F4E92FF0E0E354FF4C0C94812F803FA1
:102A500019F020F4883E20F481E00895843FE1F3EA
:102A600080E00895883EC0F3813FD1F7F5CF822FF3
:102A7000869586958695089583E290E00E941030B1
:102A8000823289F484E290E00E941030833059F45D
:102A900085E290E00E94103091E0883109F090E0EA
:102AA000892F8170089580E0FCCFCF9384E090E07F
:102AB0000E941030C82F82E290E00E941030982FC0
:102AC0008C2FCF9108951F93CF93DF93EC01FC01DE
:102AD000EB55FD4F80816823C9F00E94DA2F182F33
:102AE0000E94DA2F8F77782F20E8720F08F47FEF9B
:102AF000612F8091F0050E94530A462F282F672FDF
:102B0000CE01DF91CF911F910C94DA06DF91CF9126
:102B10001F910895DF92EF92FF920F931F93CF932F
:102B2000DF938C01FC01EB55FD4F8081682381F11F
:102B3000D090EF05D091F005C091EE05EC2EF12C70
:102B40000E94DA2F282FC7018C549F4F68E671E04E
:102B50000E946D2F8E199F0997FD03969595879575
:102B60009595879523706C2F289F600D11247D2DDE
:102B70008D2F0E94530A462F282F672FC801DF91FF
:102B8000CF911F910F91FF90EF90DF900C94DA0698
:102B9000DF91CF911F910F91FF90EF90DF900895FB
:102BA000EDEEF5E085E380838091190190911A01A3
:102BB000A0911B0181839283A3838FE784838FEF8E
:102BC000858346E050E06CE170E0CF010E94243044
:102BD0001092EC0508951092880380911401EAE0A8
:102BE000F3E0882359F08091870587FF07C08EE1C5
:102BF000DF011D928A95E9F70C94831186E0F8CFE6
:102C00001F93CF93DF93CDB7DEB7AA970FB6F89493
:102C1000DEBF0FBECDBF83EB95E02091F100DC015C
:102C20002D93CD01B5E08B3B9B07B9F78091B4059F
:102C3000833009F472C0B8F4813009F449C082309D
:102C400009F4B3C08091E80083FF8BC28091B30583
:102C50009091B4059A3008F084C2E92FF0E0E55372
:102C6000FF4C0C94812F8A3009F48EC08B3009F40C
:102C700071C0893039F78091B305813219F780919D
:102C8000B7059091B805009711F00297D9F6809199
:102C9000E800877F8093E8008091E80082FF38C0D9
:102CA0009091F3008091F200029731F48091F1004D
:102CB000813011F0863021F48091F10080938E05EF
:102CC0008091E8008B778093E8000E947A04BACF65
:102CD0008091B305813A09F0B5CF8091E800877FF4
:102CE0008093E8008091B7059091B805892B61F435
:102CF00060E28FE895E070E00E942C058091E8008A
:102D00008B778093E8009ECF60E090E080E0F3CF87
:102D10008091B1058111C0CF95CF8091B305813AE3
:102D200009F090CF8091B7059091B805892B09F0F3
:102D300089CF8091E800877F8093E8008091E80048
:102D400080FFFCCF809114018093F1008091E80016
:102D50008E77B9CF8091B305813209F073CF80911E
:102D6000B7059091B805892B09F06CCF8091E800E8
:102D7000877F8093E8000E947A048091B505809354
:102D800014010E94EB155ECF8091B305813209F0EA
:102D900059CF8091E800877F8093E8000E947A04F1
:102DA0008091B60580938D054DCF8091B305813A12
:102DB00009F048CF8091E800877F8093E8008091F8
:102DC000E80080FFFCCF80918D05BECF803899F060
:102DD000823809F0C6C18091B7058F70873008F03E
:102DE000C0C18093E9008091EB0085FB882780F9C2
:102DF0001092E90006C08091AF059091B005911145
:102E000082609091E800977F9093E8008093F100B2
:102E10001092F1008091E8008E779FC1882309F419
:102E20008DC1823009F09DC18091B505811190C19D
:102E30008091B7058F702FEF280F263008F091C1D1
:102E40008093E9002091EB0020FF82C1933031F4A0
:102E50008091EB0080628093EB007AC19091EB004F
:102E600090619093EB0021E030E001C0220F8A9541
:102E7000EAF72093EA001092EA008091EB00886064
:102E8000EACF81116EC11091B5051F778091E300E3
:102E90008078812B8093E3008091E800877F809386
:102EA000E8000E947A048091E80080FFFCCF8091C6
:102EB000E30080688093E30082E0111183E0809357
:102EC000B1054FC18058823008F04BC12091B50543
:102ED0003091B6052C3DE3E03E07A1F583E08A83FF
:102EE0008AE289834FB7F894DE01139620E03EE032
:102EF00051E2E32FF0E050935700E49120FF03C02C
:102F0000E295EF703F5FEF708E2F90E0EA30C0F0F7
:102F1000C7968D939D932F5F243159F74FBF8091B2
:102F2000E800877F8093E8006AE270E0CE010196B6
:102F30000E942C058091E8008B778093E80011C1F6
:102F4000C096E7CF8091B7059091B805432F5527DC
:102F50004330510509F44AC078F54130510509F470
:102F60007AC08BE590E0E4E8F6E04230510509F0E4
:102F7000F8C02091E800277F2093E8002091B90550
:102F80003091BA058217930708F49C0140E021159F
:102F9000310509F065C0411163C08091E80082FDF0
:102FA000C9CF8091B105882329F2853019F280912B
:102FB000E80083FFF2CFBECF4132510509F43CC097
:102FC0004232510509F0CDC08330910508F0C9C0E7
:102FD000FC01EE0FFF1FE358FE4F0190F081E02D42
:102FE00086589E4FDC018C9190E01AC03327213027
:102FF0003105D1F02115310561F02230310509F09C
:10300000B0C0E1EFF6E0E4918E2F90E0E1EFF6E062
:1030100007C0E1E1F7E0E4918E2F90E0E1E1F7E015
:10302000009709F49EC0A5CFEDEFF6E0E4918E2F56
:1030300090E0EDEFF6E0F4CF8330910508F091C019
:10304000880F991FFC01ED57FE4F0190F081E02D94
:1030500089E090E08ECF82E190E0EFEDF6E089CF5D
:103060008091B105882309F465CF853009F462CFDA
:103070008091E80083FD5ECF8091E80082FD8DCFD6
:103080008091E80080FF83CF9091F3008091F2005F
:103090002115310519F08830910550F041E008976D
:1030A00009F040E08091E8008E778093E8006FCFD0
:1030B00044914093F1003196215031090196E8CFB7
:1030C000803809F04EC08091E800877F8093E80047
:1030D0008091B2058093F1009DCE811142C0109184
:1030E000B5051230F0F58091E800877F8093E80005
:1030F0001093B2050E947A04112311F084E005C0F8
:103100008091E30087FDFACF81E08093B10542E032
:1031100061EC81E00E94990442E261EC84E00E944B
:10312000990442E261EC82E00E94990442E260EC80
:1031300083E00E9499048091B10513C08091B50588
:10314000813079F481E0933009F080E08093B0051C
:103150001092E9008091E800877F8093E8000E9448
:103160007A048091E80083FF0AC08091E800877F9D
:103170008093E8008091EB0080628093EB00AA9638
:103180000FB6F894DEBF0FBECDBFDF91CF911F9178
:10319000089590E080E00E941E30893E9E4F11F419
:1031A0000C943C1580E0089569EE7EEF90E080E09D
:1031B0000E94523060E082E090E00E94343060E093
:1031C00083E090E00E94343010928A0360E084E053
:1031D00090E00E94343060E082E290E00E9434305F
:1031E00060E085E090E00E94343060E086E090E0AE
:1031F0000E9434306FEF87E090E00E94343040E06E
:1032000050E0BA0188E090E00E94463060E08DE036
:1032100090E00E94343040E050E0BA0188E190E054
:103220000E94463060E087E190E00E94343040E048
:1032300050E0BA018CE190E00E94463070E060E01E
:1032400080E290E00E94523040E050E0BA0188E114
:1032500090E00E94463080E00E9463140E947B143C
:1032600040E050E0BA018FE090E00E94463040E03C
:1032700050E0BA0183E190E00C9446303F924F92C7
:103280005F926F927F928F929F92AF92BF92CF92F6
:10329000DF92EF92FF920F931F93CF93DF9300D0B3
:1032A00000D00F92CDB7DEB78C01FC0183819481F1
:1032B000892B31F08081918189238F3F09F0AAC544
:1032C0000F900F900F900F900F90DF91CF911F9163
:1032D0000F91FF90EF90DF90CF90BF90AF909F90B5
:1032E0008F907F906F905F904F903F9008950E94D5
:1032F000DA14F82E682F89819A810E94571169810A
:103300007A818F2D0E94CD147C01F801828188235F
:1033100009F473C5970122513F452031310508F06A
:1033200035C58FEF93E00E941030FEEEEF0E57EFA1
:10333000852E52E0952E8823A1F180918503877018
:1033400009F4BECFF8018281882309F4B9CF8091B6
:10335000880582FDB5CF82E00F900F900F900F90FF
:103360000F90DF91CF911F910F91FF90EF90DF9021
:10337000CF90BF90AF909F908F907F906F905F9015
:103380004F903F900C94BB11811424E09206A9F257
:10339000C4010E941030811101C0EA943FEF831AEA
:1033A000930AE110F1CF1C821B82442443944AE02B
:1033B000342E74018FEFE81AF80AC4010E9410300D
:1033C00089831A82882309F4B8CF9FEF980F93302E
:1033D00000F58A83498292E0890E911CC7010E9400
:1033E00010308B83882309F4A8CFFE0131967F012A
:1033F000F70120812223E9F2213009F049C09181AF
:103400008281913041F4F2E0EF0EF11C0E947D13B5
:1034100009C04701EACF923049F422E0E20EF11CE4
:103420000E9429123FEFE31AF30AE2CF933031F4FE
:1034300032E0E30EF11C0E94F711F4CF943021F03A
:103440008FEFE81AF80AEECF92E0E90EF11C30E0B7
:1034500020E0B7016F5F7F4FF70141818053990BE7
:103460008A30910550F021503109E0F28FE99FE058
:103470000197F1F700C00000F6CF329EF001339EB5
:10348000F00D11249C012E0F3F1F842F7B01E1CFF3
:10349000E22FF0E0EC50FE4F5490822F86958695F7
:1034A000869590E0FC01EC51FE4F64902770712CE2
:1034B000022E02C0759467940A94E2F7E1E06E224E
:1034C0007724FC01EC52FE4FA490B12C022E02C0D6
:1034D000B594A7940A94E2F7F1E0AF22BB24FC0173
:1034E000EC53FE4FC490D12C02C0D594C7942A95BA
:1034F000E2F721E0C222DD246114710419F081EEAB
:103500000E942912A114B10419F086EE0E9429121A
:10351000852D0E947D13AB2819F086EE0E94F711CD
:10352000672819F081EE0E94F711CD2809F47ACFAF
:103530008CE26CCF81E00E94D7110E94A411FDCED5
:1035400081E00E94AF11F9CF82E0F5CF882309F422
:10355000F4CE90912904892F8E7F90FF8160809313
:1035600029044091290450912A0460912B04709100
:103570002C0483E190E00E944630DFCE882309F4DA
:10358000DCCE90912904892F8D7F91FF8260E7CF57
:10359000F5EFEF16FCE5FF0609F46AC008F464C015
:1035A00027E245EE66EE36EFE3163CE5F30609F456
:1035B00020C4882309F43FC41092EB0583E0E81689
:1035C0008DE5F80608F05BC09AEFE9169CE5F90670
:1035D00030F4C70182509C45449708F056C00E94C1
:1035E00055159093880580938705F0E1EF16FCE56B
:1035F000FF0609F428C108F097C038E0E3163CE55F
:10360000F30609F40AC108F067C094E0E9169CE5E6
:10361000F90609F4F0C008F050C0F2E0EF16FCE53E
:10362000FF0609F4E2C080918705826023E0E2167C
:103630002CE5F20609F4DCC060918705F09088055E
:1036400084E090E00E9434306F2D82E290E00E948E
:1036500034300E94EB1571CE27E245EE65EEC9C30A
:1036600026E241EE60EEC5C327E245EE64EEC1C33B
:1036700026E241EE62EEBDC328E241E0EFCFE1E693
:10368000EE16EDE5FE0609F4AACF8091880336E137
:10369000E3163CE5F30609F0DDC38A7A91E009F40C
:1036A00090E09093280369E2811165E388E093E05C
:1036B0000E94DF050E94E01040CE80918705806166
:1036C00036E0E3163CE5F30609F492C008F497C02F
:1036D0008091870580628CC0809187058D7F9CE0FA
:1036E000E9169CE5F90609F483C078F48091870512
:1036F0008C60FAE0EF16FCE5FF0609F479C008F4E7
:1037000090C0809187058E7F73C080918705877FE9
:103710003EE0E3163CE5F30609F46AC008F48BC00A
:10372000809187058F7E64C09CEFE9169CE5F906C1
:1037300009F485C068F5F4E1EF16FCE5FF0609F42D
:103740009AC060F432E1E3163CE5F30609F483C065
:1037500008F47DC080918705837F4AC09AEFE916FF
:103760009CE5F90609F44FC008F053C0F5E1EF16E7
:10377000FCE5FF0609F060CF8091870582FB992761
:1037800090F921E0922790FB82F990FB83F930C0F9
:10379000E1142DE5F20609F464C090F48EEFE8160A
:1037A0008CE5F80609F443C0809188058D7F9FEF72
:1037B000E9169CE5F90650F1809188058C7F26C0BA
:1037C000E2E0EE16EDE5FE0609F464C008F45CC024
:1037D00021E6E2162DE5F20609F02ECF909187053D
:1037E000892F8F7E94FF806103C08091870581605F
:1037F0008093870521CF809187058460F9CF8091E0
:1038000087058860F5CF8091880581608093880561
:1038100013CF809188058260F9CF809187058064FD
:10382000E7CF0E94EB15809187058068E1CF8091FA
:1038300088058360EBCF809187058B7FD9CF8091FE
:1038400088058E7FE3CF809187058F7DD1CF8091D2
:1038500087058F7BCDCF0E94EB15809187058F77F1
:10386000C7CF80918805982F909591708E7F892B76
:1038700090FB81F9CBCF0E94EB1590918705892FA2
:1038800097FB87F98058B4CF61E08EE090E00E940A
:103890003430D2CE60E0F9CF8091ED0591E08927F8
:1038A0008093ED05109218018091EC058160809362
:1038B000EC0543CD45EC56E06EEC76E00E944C06FC
:1038C0003CCD4EEC56E065EC76E0F8CF43EB56E0AD
:1038D0006CEB76E0F3CF4CEB56E063EB76E0EECFAB
:1038E0004BE956E067EA76E0E9CF47EA56E06BE954
:1038F00076E0E4CF4FE856E063E876E0DFCF47E6D6
:1039000056E065E776E0DACF45E756E067E676E031
:10391000D5CF81E00E94D40310CD8DE0FBCF2BE505
:10392000E2162DE5F20611F13CE5E3163DE5F3065E
:1039300009F0C2C28091880582FB882780F991E056
:1039400089270E948A14B8C20E94EB158FEF94E376
:10395000ECE081509040E040E1F700C000000E94A0
:1039600032130E94D418E9CC81E0EBCF80E0E9CF9C
:10397000C7010E942F11D82EAEC22F2D2F70C22E3C
:103980008F2D807F19F0C29490EFC922DD20B9F00D
:10399000CC2069F080E28E0D883010F0811009C0D3
:1039A00080918803C82AC09288030E94E0108E2D5F
:1039B0004DC080918703C82AC0928703F6CF8E2D11
:1039C0000E94F711CC2009F443C080E28E0D8830AC
:1039D00010F0811004C08C2D0E94D91006C0C09434
:1039E00080918703C822C09287030E94E01030C0F4
:1039F0003F2D3F70C32E8F2D807F803219F0C294EF
:103A000080EFC822882089F081E0881609F47FC001
:103A1000DD2009F489C0BB2009F47FC0F80185814D
:103A200080FFC5CF8F70858378C02091880522FFE5
:103A30004BC0DD2009F442C0CC2039F080918803CE
:103A4000C82AC09288030E94E01080E00E942912D8
:103A5000292D2850330B2430310510F40E944006E4
:103A6000AA2009F42DCC8091850380FD29CCF80192
:103A700012828595859585950E94D711C8010E946F
:103A80003E19809185038595859585950F900F90BA
:103A90000F900F900F90DF91CF911F910F91FF909A
:103AA000EF90DF90CF90BF90AF909F908F907F90DE
:103AB0006F905F904F903F900C94AF1180E00E9408
:103AC000F711CC2029F287CFDD20A1F09091890356
:103AD0008C2D892BB11003C00E94ED11B9CFE1E00C
:103AE000BE12FACF22FDB4CF981709F4B1CF80935C
:103AF0008903AECFB11006C00E94D3108C2D0E9456
:103B0000E611A6CFF1E0BF1609F4A2CFF5CFDD2074
:103B100031F025E02B1508F49BCF8C2DDDCF34E060
:103B20003B1508F495CFEACFBB2041F3F9E38F12A0
:103B300009C02FEF37EE83E0215030408040E1F79D
:103B400000C000008E2D0E94F71182CF8F2D869528
:103B50008695837061F0813009F07ACFC701937048
:103B6000D11002C090E080E00E94140671CFC7011E
:103B70009370D11002C090E080E00E942A0668CFC6
:103B80008E2DDD2029F00E94950E0E94B30D60CF8E
:103B90000E94DA0DFACF8F2D837091F5D11058CF96
:103BA0004E2D429546954770440F440F8E2D8F70D1
:103BB000042E01C0880F0A94EAF72E2D2071E4FE2E
:103BC00007C02FE030E001C0220F4A95EAF72095A8
:103BD0003F2D369536953370323069F050F4409170
:103BE0008A03313029F0822B84230E94E21130CFE6
:103BF000842B822BFACF282B80918A038227F5CF42
:103C00008695DD2011F08F2D8170882309F420CF57
:103C10004E2D429546954770440F440F8E2D8F7060
:103C2000042E01C0880F0A94EAF72E2D2071E4FEBD
:103C300007C02FE030E001C0220F4A95EAF7209537
:103C40003F2D369536953370323069F050F44091FF
:103C5000E805313029F0822B84230E94A011F8CE90
:103C6000842B822BFACF282B8091E8058227F5CF71
:103C70009F2D9F70F92EDD2029F0892F0E94D711EA
:103C80008E2D2ACF8E2D0E94E6118F2D0E94AF110E
:103C9000DFCE8E2DE2EF8E16B1F1E81570F0F0EF69
:103CA0008F16D1F021EF821691F0DD2009F45EC06D
:103CB000B1107DCE8F2D8F712AC033EF831651F155
:103CC00094EF8912F2CF8091880582FF2FC08F2D4B
:103CD0008F71DD20D9F21BC0DD2081F0E4E0EB150F
:103CE00008F4B6CE2F2D2F7181E090E001C0880F2F
:103CF0002A95EAF79091E8058927AFCFF5E0FB1503
:103D000008F4A6CEEFCF8F2D8F71D110BFCF0E94B8
:103D1000D7119ECE80E0DD2009F49FCF9F2D9F71AB
:103D200081E001C0880F9A95EAF797CFDD2099F0DE
:103D30002F2D2F71F22E822F0E94D711809188058E
:103D400082FD07C038E0F39EC00111248360809398
:103D500085038F2DDCCF81E00E94BB1181E08B15A4
:103D600008F076CE82E00E94BB1172CEBB2059F0E3
:103D7000893309F0E7CE9FEFE7EEF3E09150E040A2
:103D8000F040E1F7DDCE8F2D8F7180CFF0E1EF169F
:103D9000FFE5FF0609F4CECB21E1E2162FE5F2069E
:103DA00009F4D2CB92E7E916F10409F4CFCBE3E7AB
:103DB000EE16F10409F4E2CBF3EFEF16FCE5FF0693
:103DC00009F44ECC08F0E4CB38EDE3163CE5F306FD
:103DD00009F442CC99EDE9169CE5F90609F44CCCBE
:103DE000E7EDEE16ECE5FE0609F0E3CB26E241EE48
:103DF00061EEC8010E949A13A0CA30E1E3163FE5C4
:103E0000F30609F49DCB91E1E9169FE5F90651F619
:103E100082E097CB85E0DE01119601900D928A95A4
:103E2000E1F7F801228189819A81211160CA0E94FB
:103E30002F11F82E64CAF6E1EF16FCE5FF06E1F556
:103E40008091280369E2811165E388E093E00E9494
:103E5000B50530CC82722AECE2162CE5F20609F4A4
:103E600049CD08F08AC095ECE9169CE5F90609F4FD
:103E70002DCD08F069C0F3ECEF16FCE5FF0609F460
:103E800019CD08F01ECD32ECE3163CE5F30609F43B
:103E900003CD8AE5E8168DE5F80609F465CD08F04E
:103EA0003ECDE114ECE5FE0609F44ECDFEEDEF1635
:103EB000FCE5FF0609F455CDF8018281E080F18030
:103EC000882309F455CDC7010E94DA14D82E682F33
:103ED000C7010E945711B7018D2D0E94CD140E9479
:103EE0004B0F7C01882EF801D280B580B2943FE060
:103EF000B322809185038770C1F0AD2CDD20B1F035
:103F00008F2D807F803421F080E28E0D883068F024
:103F10008091880582FD09C082E00E94BB118091DA
:103F200085038770AA24A3948111A12C9F2C9294BD
:103F30002FE09222FBE0F91508F48ACDE92DF0E09C
:103F4000EB52FF4C0C94812F97ECE9169CE5F90697
:103F500009F4C6CC08F4BFCCF8ECEF16FCE5FF067C
:103F600009F4C3CC43E856E06FE876E029ECE216AA
:103F70002CE5F20609F4A2CC8CCF3FECE3163CE52D
:103F8000F30609F4CACCB0F4ECECEE16ECE5FE0650
:103F900009F4BACC08F4B3CC2DECE2162CE5F20609
:103FA00009F4B7CC85E03EECE3163CE5F30609F4F2
:103FB000B1CC6FCF86EDE8168CE5F80640F482E1CF
:103FC00091EDE9169CE5F90608F4A4CCB6C9EDE537
:103FD000EE16FE0609F4B1C95CCF1F93CF93DF93B1
:103FE00080915203807FA9F480914F03882389F048
:103FF00080918403D091530360914D0370914E03DF
:10400000A0915003B0915103C62FC72316E0D813D7
:1040100004C0DF91CF911F91089590E0109711F0A7
:10402000CF3F19F401968770F2CF189F9001199F26
:10403000300D1124F901EC5AFC4F41814713F2CFA6
:1040400040814613EFCF42814111ECCF438154812F
:104050004A1B5B0B483C510528F7809152038F7037
:10406000806180935203F901E75AFC4F80818F7081
:10407000806180838DE493E00E943E19DF91CF91AF
:104080001F910C942511AF92BF92CF92DF92EF92C5
:10409000FF920F931F93CF93DF93CDB7DEB7619756
:1040A0000FB6F894DEBF0FBECDBF8C0185E0F801DE
:1040B000DE011D9601900D928A95E1F7F801E280EC
:1040C0008DE4A82E83E0B82E6091500370915103C7
:1040D0006115710509F432C190914D0340914E0371
:1040E000892F84238F3F09F429C120813181C38026
:1040F000D480F0904F03F601E61BF70BFF2009F484
:10410000E8C080915203582F507FE83CF10508F039
:10411000ABC0511177C0FE2C431321C092131FC0B6
:10412000E1101DC08F70806180935203C5010E9411
:104130003E1980915203F80185838F2D61960FB649
:10414000F894DEBF0FBECDBFDF91CF911F910F91CD
:10415000FF90EF90DF90CF90BF90AF900895CD2863
:1041600029F0822F83238F3F09F003C180E0F82FCD
:10417000F170DF2E80FF3CC0809184034091530397
:1041800056E0841315C02D873E878D859E850E943D
:104190000915292F22952F702230F0F0243018F5C0
:1041A0009F70F1F0F8019581907FD1F4D12C1EC061
:1041B00090E0589FF001599FF00D1124EC5AFC4FEC
:1041C0006181361306C06081261303C06281E61246
:1041D0000FC001968770D5CF9F7011F0882331F3FF
:1041E000805E883018F3C8010E943E19FD2CA5CFCF
:1041F000EE2009F4A2CF8091520381608093520394
:10420000F12C9BCF431306C0921304C0F801EE209B
:1042100009F479C0C8010E941515882309F1EE2020
:10422000F9F080915203803270F020914D0330916B
:104230004E0338872F831986DB86CA868C87CE018A
:1042400007960E943E1986E0F801ADE4B3E00190C4
:104250000D928A95E1F70E94ED1FFF24F3946DCF34
:10426000C8010E943E19F9CF51110AC08DE493E0B4
:104270000E943E1986E0F50111928A95E9F7C0CFB8
:1042800043130FC092130DC0E1100BC0F8018583DA
:10429000C8010E943E1986E0F50111928A95E9F75E
:1042A0004CCFC8010E9415158823D1F2EE20C1F22F
:1042B00080915203803238F220914D0330914E03A9
:1042C0003A8329831B82DD82CC828E83CE010196C4
:1042D000B8CFE83CF105F8F6FE2CEE2009F24313C6
:1042E0001FC092131DC08091520380FD10C0982FF3
:1042F000907F69F0F8018583903F31F0982F907F8F
:10430000905F8F70892B8583C8010E943E1986E0DB
:10431000F801ADE4B3E001900D928A95E1F70DCF7D
:10432000C8010E94151581118ECF809152038160C2
:1043300080935203C8010E943E19FFCEEE2009F47B
:104340008FCFC8010E941515F82E882309F488CF55
:1043500086E0F801ADE4B3E001900D928A95E1F7B3
:1043600080914D0390914E030E9409150E94ED1F0C
:10437000E4CE81E08E25FBCE1F93CF93DF93CDB7A4
:10438000DEB767970FB6F894DEBF0FBECDBF4B8B7D
:104390005C8B6D8B7E8B8F8B6111109287031A8AD9
:1043A000198A85E0FE017396DE011D9601900D923B
:1043B0008A95E1F786E0FE013D96DE0117960190B1
:1043C0000D928A95E1F7CE0107960E94432088233B
:1043D00089F016E08091840390915303891349C0BA
:1043E00067960FB6F894DEBF0FBECDBFDF91CF91B9
:1043F0001F91089586E0FE013796DE011196019027
:104400000D928A95E1F78A859B85892B11F38F811F
:10441000988589238F3FE9F22091530330E0C90149
:10442000019687709927409184034817190671F403
:104430000E94EB15109253031092840386E0EDE482
:10444000F3E0DF011D928A95E9F7C3CF96E0929FD2
:10445000D001939FB00D1124AC5ABC4FFE01319690
:1044600001900D929A95E1F7809353030E942511D4
:10447000B0CF819FC00111248C5A9C4F0E944320D1
:10448000882309F4ADCF8091840390E00196877072
:104490009927809384039ECF6F927F928F929F92F1
:1044A000AF92BF92CF92DF92EF92FF920F931F9342
:1044B000CF93DF93CDB7DEB761970FB6F894DEBF29
:1044C0000FBECDBF8E010F5F1F4F8CE0F801119220
:1044D0008A95E9F79DE4E92E91E0F92E68016624BA
:1044E0006394712C32E6832E31E0932EF701819193
:1044F0007F018F3F09F445C0F894E82FE295EF70F3
:10450000F0E021A18F70A30102C0440F551F8A95CE
:10451000E2F7CA01922F982B91A392A1809589234B
:1045200082A3789400C0E3E5F1E021E030E0B12C13
:10453000A12C41914F3F09F488C0A42FA295AF70E0
:10454000B0E090968C9190E04F7002C09595879561
:104550004A95E2F780FD79C0C901A82AB92A220F3D
:10456000331F8E169F0629F7F701319780818F3F01
:1045700011F00E94F10E50EA5A95F1F7F601B1825E
:10458000A082F2E0CF0ED11C43E5E41641E0F40630
:1045900009F0ACCF4CE050E0B8018EE893E00E9407
:1045A000EA2FFF24F394009709F4F12C892B09F4E6
:1045B0004FC08CE0F801AEE8B3E001900D928A950F
:1045C000E1F781E080938D030E94A90590938C030D
:1045D00080938B0380918B0390918C030E948E05B6
:1045E0000597D0F180918E0390918F0390934004B2
:1045F00080933F04809190039091910390934204A3
:10460000809341048091920390919303909344048A
:104610008093430480919403909195039093460472
:10462000809345048091960390919703909348045A
:1046300080934704809198039091990390934A0442
:104640008093490410928D0307C090E080E085CFED
:1046500080918D038111BECF80912D048823A9F014
:10466000869549F183E08D8785E08E871F860E94BD
:10467000A9058160782F998B888B10922D044D8528
:104680005E856F8589890E94BC218F2D61960FB64A
:10469000F894DEBF0FBECDBFDF91CF911F910F9178
:1046A000FF90EF90DF90CF90BF90AF909F908F9052
:1046B0007F906F90089584E0D6CF1F920F920FB62F
:1046C0000F9211242F933F934F935F936F937F9398
:1046D0008F939F93AF93BF93CF93DF93EF93FF930A
:1046E000D091E900DF708091EC00C82FC17080FD8F
:1046F000C0E81092E9008091F000877F8093F0007D
:1047000078940E9400161092E9008091F000886071
:104710008093F000CD2BCF70C093E900FF91EF9113
:10472000DF91CF91BF91AF919F918F917F916F91C9
:104730005F914F913F912F910F900FBE0F901F905F
:1047400018951F920F920FB60F9211242F933F933B
:104750004F935F936F937F938F939F93AF93BF9389
:10476000EF93FF938091E10082FF09C08091E20006
:1047700082FF05C08091E1008B7F8093E1008091F2
:10478000DA0080FF24C08091D80080FF20C0809193
:10479000DA008E7F8093DA008091D90080FFA9C073
:1047A00080E189BD82E189BD09B400FEFDCF81E0D1
:1047B0008093B10580918C05811109C00E9400048D
:1047C0000E94CB048091E20084608093E20080919B
:1047D000E10080FF1CC08091E20080FF18C0809142
:1047E000E2008E7F8093E2008091E20080618093FE
:1047F000E2008091D80080628093D80019BC85E0E7
:104800008093B10580916F00826080936F008091EA
:10481000E10084FF32C08091E20084FF2EC080E17D
:1048200089BD82E189BD89B5982F917080FFFBCF4A
:104830008091D8008F7D8093D8008091E1008F7E99
:104840008093E1008091E2008F7E8093E20080916E
:10485000E20081608093E2008091B205882309F430
:104860004EC084E08093B1058091B10580916F00C6
:104870008D7F80936F000E9440068091E10083FF4E
:1048800027C08091E20083FF23C08091E100877FF1
:104890008093E10082E08093B1051092B20580918F
:1048A000E1008E7F8093E1008091E2008E7F809313
:1048B000E2008091E20080618093E20042E060E0EB
:1048C00080E00E9499048091F00088608093F0005D
:1048D000FF91EF91BF91AF919F918F917F916F91D8
:1048E0005F914F913F912F910F900FBE0F901F90AE
:1048F000189519BC1092B10510928C0568CF809163
:10490000E30087FD93E09093B105AECF78941F92BA
:104910001FB61F9211248F939F93AF93BF938091E3
:10492000830590918405A0918505B0918605019637
:10493000A11DB11D8093830590938405A0938505E7
:10494000B0938605BF91AF919F918F911F901FBE2D
:104950001F9018958F938FB78F939F93EF93FF932B
:1049600080917B0590917C05019690937C058093C6
:104970007B05E0917C05E695E695F0E0EC58FC4F70
:10498000E491FF91EF919F918F918FBF8F91189537
:10499000CDB7DEB7AF970FB6F894DEBF0FBECDBF71
:1049A00084B7877F84BF0FB6F894A8958091600084
:1049B000886180936000109260000FBE80E890E0F4
:1049C0000FB6F89480936100909361000FBE85B795
:1049D000806885BF85B7806885BF8FEE9EE0909325
:1049E0000703809306030E9400040E94CB04809179
:1049F000E20084608093E20078948091B10588237E
:104A0000A1F01091E9001F709091EC00892F817046
:104A100090FD80E8182B1092E9008091E80083FD5A
:104A20000E9400161F701093E90082E084BD93E09D
:104A300095BD9AEF97BD80936E000E943C15811141
:104A400002C00E947B140DE411E0D8018D918D010C
:104A50008F3F11F00E94F10EB1E003351B07A9F75B
:104A600003E511E062E6E62E61E0F62EF8018191A1
:104A70008F018F3F11F00E94F10EE016F106B1F7A1
:104A80008CE0EFE3F4E0DF01282F1D922A95E9F78F
:104A9000EEE8F3E0DF011D928A95E9F70E94C9185C
:104AA000811102C00E94D41882E090E00E94103070
:104AB000809332040E945515909388058093870552
:104AC0000E944C22EFE3FCE93197F1F700C00000AF
:104AD0000E944C2280913F0481FF08C06FEF7FEF5E
:104AE00090E080E00E9452300E94321383E090E018
:104AF0000E9410300E94E2111092BF058FEF9FEFCD
:104B00009093D9058093D8059093DB058093DA05BF
:104B10009093DD058093DC059093DF058093DE059F
:104B20009093E1058093E0059093E3058093E2057F
:104B30009093E5058093E4059093E7058093E6055F
:104B400010929A039093B4038093B3039093B603A7
:104B50008093B5039093B8038093B7039093BA03FF
:104B60008093B9039093BC038093BB039093BE03DF
:104B70008093BD039093C0038093BF039093C203BF
:104B80008093C1030E94C918811104C00E94D418E7
:104B90000E94D01546E050E06CE170E08DEE95E0AB
:104BA0000E9400301092EC058091ED058C7F11F48D
:104BB0000E94D0152198299A22982A9A83B1869525
:104BC00081701A99D5C090E0892B80933004809130
:104BD0008100886080938100809181008160809352
:104BE00081008FB7F89420ED33E030938900209353
:104BF00088008FBF83E190E00E9418306093290401
:104C000070932A0480932B0490932C0484E091E009
:104C10009093800580937F0511E08091B1058530E8
:104C200059F49091B0058091B105853009F4A2C086
:104C30000E94EB150E9440060E944C2281110E94A6
:104C40009D055FE3252E54E0352EE3E3F4E0D1012A
:104C5000D12CC12C6C2D8D909D90219131912815D6
:104C6000390509F46DC22825392500E0AA24A3944A
:104C7000B12CA9014A215B21452B09F45BC209A390
:104C80006AA38A209B2081E08114910409F480E0CA
:104C90008BA30E94A9058160782F9DA38CA349A1B5
:104CA0005AA16BA18DA10E94BC21F601EE0FFF1F3E
:104CB000ED5CFB4F80819181A826B926B182A0824C
:104CC000892871F08FE08C9DF0018D9DF00D1124ED
:104CD000E757FE4FE00FF11D80818F3F09F05FC065
:104CE00000E0C02ED12C80919A038C0D9D2D911D3A
:104CF00009976CF1B8E0AB2EB12CAC18BD08B60129
:104D000065567C4FA5018BE993E00E94F72FB60111
:104D10006D557C4FA50183EA93E00E94F72FA50112
:104D2000440F551FB601660F771F6D547C4F83EB00
:104D300093E00E94F72FB60165557C4FA5018BEAE1
:104D400093E00E94F72F88E0801B80939A03809164
:104D50009A0390E0EDA5AE2FB0E09D01220F331F26
:104D60002D513E4FAA0FBB1FBD016C517E4F2FC06E
:104D700092E02ACF8091B105992309F454CF0E9483
:104D80004C22EFE3F4E081919191892B11F00C9486
:104D9000242F2BE434E02E173F07A9F742CF8DA72D
:104DA00001E09FCF90E0FC01E656FC4FD9015C91F9
:104DB0005183DB015C915187BDA5B18B880F991F91
:104DC000FC01E656FC4F128E118E91E0842F41E0DB
:104DD000480F901738F380939A038090C303909004
:104DE000C403A090C503B090C6038FB7F894C090D9
:104DF0008305D0908405E0908505F09086058FBFEF
:104E000026013701481859086A087B080E949D0549
:104E10006093C3037093C4038093C5039093C60348
:104E2000A0919A03EAE9F3E02A2F30E04FEF840ED5
:104E3000941EA11CB11C8C189D08AE08BF08A313BA
:104E400098C120939A033091ED05032F037019F058
:104E5000032F0695069520911801213009F4B2C15F
:104E6000222309F499C1223009F456C6233009F4EB
:104E70005FC6E0913004EE0FEE0FE093300483B193
:104E8000869581708EA71FA61A997FC680E0AEA571
:104E9000BFA58A2BE82BE0933004EF70F0E0EE59C9
:104EA000FE4F808190912F04890F80932F0420E082
:104EB0008430CCF080912E048F5F80932E0484E0A8
:104EC000898385E08A831B830E94A9058160782FEE
:104ED0009D838C8310932D0449815A816B818D8130
:104EE0000E94BC2121E080912F048D3FD4F4809159
:104EF0002E04815080932E0483E0898385E08A8389
:104F00001B830E94A9058160782F9D838C8382E09A
:104F100080932D0449815A816B818D810E94BC212F
:104F200021E080912F04082E000C990B64E070E0C2
:104F30000E946D2F80932F0421110E949D0586E011
:104F4000E2E5F4E0DE01119601900D928A95E1F719
:104F5000D0905404C090550400915604E09057043A
:104F60001092540410925504109256041092570453
:104F70008D2D8C2909F448C08091500490915104E2
:104F80000E948E059C0190914C04992309F48CC7D2
:104F900023333105C8F19F3F19F09F5F90934C0474
:104FA000DD2059F00E94750E9FEF1D140CF491E066
:104FB000899F802D112480935404CC2059F00E94A5
:104FC000750E9FEF1C140CF491E0899F802D112425
:104FD00080935504309154043323B1F0209155044B
:104FE000222391F045EB3403C0011124992309F4E5
:104FF000CFC59093540455EB25039001112433231E
:1050000009F4C9C530935504802F8E2909F448C08E
:1050100080914E0490914F040E948E059C019091C6
:105020004B04992309F43BC725363105C8F19F3F4E
:1050300019F09F5F90934B04002359F00E94530E88
:105040009FEF10160CF491E0899F802D112480931E
:105050005604EE2059F00E94530E9FEF1E140CF4DC
:1050600091E0899F802D112480935704309156043C
:105070003323B1F020915704222391F045EB340300
:10508000C0011124992309F489C59093560455EB66
:10509000250390011124332309F483C53093570469
:1050A0008091540490915504892B90915604892B3A
:1050B00090915704892B11F00E94B30D86E0FE01F8
:1050C0003196A2E5B4E001900D928A95E1F70E9435
:1050D000400690913104891721F00E944006809388
:1050E00031048091B105843009F097CD83E080933D
:1050F000E9008091E80082FF90CD8091E80090E087
:1051000085FF06C00E941F04882309F44DC591E065
:105110008091E8008B778093E800992309F47DCD96
:10512000E981E150E33108F0BBC5F0E0EF51FF4CFD
:105130000C94812F0F5FAA0CBB1C0F3009F099CD86
:105140002FEFC21AD20A36E0C316D10409F082CD7D
:105150008FEF8EA38FA318A60E94A9058160782FD8
:105160009AA789A74EA15FA168A58AA50E94BC2124
:1051700034CE418D528D6A01F12CE12C8C149D04AA
:10518000AE04BF0420F421503F5F329658CE440D48
:10519000551D528F418FF8CF109215016093BB05BA
:1051A0007093BC058093BD059093BE0589E2EAE942
:1051B000F3E0AFEBB5E001900D928A95E1F7109323
:1051C000180157CE9091110181E009130BC0832F74
:1051D00083702091100130E091E08217130609F4EA
:1051E00090E0892F8170809317018091F205909152
:1051F0001601981739F08093160140E060E080E0D6
:105200000E94D8060A3250F4E02FF0E0EC50FF4C38
:105210000C94812F80911701811102C0D12C29C0DB
:1052200040E060E080E00E94D806F8CFC090150111
:1052300084E1C89EC02C112464E1E62EEC0CBE2C47
:1052400051E65E1510F451E6B52E6091EE057091B1
:10525000EF058091F0050E94530AA62E972E882E06
:10526000D12CCB1408F448C0DD24D39490E69E15CD
:10527000A8F2E0901501E394E0921501D11021C449
:1052800082E0809318018091170181111AC40023D4
:1052900009F44AC484E1E89EE02C11245CEE852EDA
:1052A0008E0C0E2D31E63E1508F401E6809129049E
:1052B00080FD0BC40E94400681FD21C48091290419
:1052C00081FFD7CD41E5C42ED12C912CA02EB12C3D
:1052D000C814D90448F0AC14BD0430F020E040E01C
:1052E00060E0C6010E94DA068FEFC81AD80A91E67C
:1052F000C916D10469F7BDCDF601EB55FD4F80818C
:1053000090911601892331F0282D4A2D692DC6016F
:105310000E94DA068FEFC81AD80AA3CFC0901501F1
:1053200084E1C89EC02C112444E1E42EEC0CBE2C78
:10533000A1E6AE1510F431E6B32E6090EF05709043
:10534000F005D090EE056D2D762D872D0E94530A25
:10535000A62E972E882E6091F1056D0D762D872D46
:105360000E94530A762E672E582ED12CCB1438F07B
:10537000DD24D394E0E6EE1508F07BCF4FCFF601A5
:10538000EB55FD4F908180911601892359F0252D11
:10539000472D662D90FD03C0282D4A2D692DC6018D
:1053A0000E94DA06BFEFCB1ADB0AE0CFC0901501EE
:1053B00084E1C89E802D112424E1E22EE80EAE2C5B
:1053C000F1E6FE1510F491E6A92E9090EF0580907D
:1053D000F0052091F105B0E4BB2E3B2D329F312D1D
:1053E0001124B32EC82ED12CCA1438F0DD24D39446
:1053F00050E65E1508F03DCF11CFF601EB55FD4F9D
:105400008081909116018923B9F0F601EE0FFF1FFC
:10541000EC51FE4F808182958F706091EE058B9DDF
:10542000600D1124792D882D0E94530A462F282FB4
:10543000672FC6010E94DA064FEFC41AD40AD4CFF0
:10544000C090150184E1C89E802D1124E4E1EE2E68
:10545000E80EAE2C91E69E1510F471E6A72E909002
:10546000EF058090F0052091F10560E4B62E3B2D0C
:10547000329F312D1124B32EC82ED12CCA1408F01E
:10548000B5CFF601EB55FD4F808190911601892330
:10549000D9F0F601EE0FFF1FED51FE4F6081B69E71
:1054A000B001112455E0759567955A95E1F7809103
:1054B000EE05680F792D882D0E94530A462F282F5C
:1054C000672FC6010E94DA064FEFC41AD40AD6CF5E
:1054D000C090150184E1C89EC02C112434E1E32E54
:1054E000EC0CBE2C81E68E1510F421E6B22EA090B5
:1054F000EE05D090EF059090F0056091F10566956E
:10550000669566958091BB059091BC050E94490AFD
:105510000E949A09805887FD8195880F282F392D80
:10552000239F212D1124822F6A2D7D2D0E94530A45
:10553000A62E972E882ED12CCB1408F057CFF6012B
:10554000EB55FD4F808190911601892331F0282D74
:105550004A2D692DC6010E94DA064FEFC41AD40AFB
:10556000EBCF85EA98E00E942A0C07C08BE798E011
:10557000FACF8CE799E00E94570DD82E7ACE8DE5B0
:1055800099E0F9CF82E499E00E94DA0CF6CF86E246
:1055900099E0FACF89E798E0E6CF80E798E0E3CF9B
:1055A00087E698E0E0CF8EE498E0DDCF80E498E0F5
:1055B000EBCF81E29AE0DFCF85E199E0DCCF81E0BB
:1055C00099E0E2CF83E198E00E94780CD6CF85EE97
:1055D00097E0FACF8EEA97E0F7CFD0901701D1107D
:1055E0001EC06091F10520E1620F08F46FEF809119
:1055F000BB059091BC050E94490A6AE070E00E94D8
:10560000592F892B09F00ACE0E94DA2F61E670E04B
:105610000E946D2F609116010E948A152ACEC090BB
:10562000150184E1C89E802D112494E1E92EE80E35
:105630009E2D31E63E1508F491E6C82ED12CA92EF8
:10564000B12CCA14DB040CF0D1CE60911601C60156
:105650000E948A154FEFC41AD40AF3CFD0901701D5
:10566000D1101EC06091F10520E1620F08F46FEFC8
:105670008091BB059091BC050E94490A65E070E0ED
:105680000E94592F892B09F0C9CD0E94DA2F61E6BB
:1056900070E00E946D2F609116010E946315E9CDA4
:1056A000C090150184E1C89E802D1124B4E1EB2E39
:1056B000E80E9E2D31E63E1508F491E6C82ED12C59
:1056C000A92EB12CCA14DB040CF090CE6091160107
:1056D000C6010E9463154FEFC41AD40AF3CFC090DD
:1056E000150184E1C89EC02C1124A4E1EA2EEC0C23
:1056F000BE2C81E68E1510F4F1E6BF2E9090EF05DA
:10570000A090F005D090EE056091F1056695669544
:1057100066958091BB059091BC050E94490A0E9444
:105720009A09805887FD8195880F682F2CE0629F29
:10573000612D11246D0D792D8A2D0E94530AA62EFC
:10574000972E882ED12CCB1438F0DD24D394A0E6EC
:10575000AE1508F08ECD62CDF601EB55FD4F808180
:1057600090911601892331F0282D4A2D692DC6010B
:105770000E94DA069FEFC91AD90AE5CF89EB99E0B2
:10578000F2CE8DE997E0EFCE4091C7035091C80368
:105790006091C9037091CA038091BB059091BC05CB
:1057A000A091BD05B091BE0584179507A607B70760
:1057B00008F434CD0E94DC09E82E0E94DC0991E651
:1057C000891BF0F7890FC82ED12CF601EB55FD4F40
:1057D000809116019081892309F470C120E040E096
:1057E00060E0E1FC13C00E94DC09E82E0E94DC09A5
:1057F0008695782F2FE7720F08F47FEF6E2D80913A
:10580000F0050E94530A462F282F672FC6010E94D9
:10581000DA062091F10530E1230F08F42FEF60E163
:10582000822F90E00E94490ABC0184EF91E00E941F
:10583000592F8091BB059091BC05A091BD05B091F9
:10584000BE05860F971FA11DB11D8093C7039093BE
:10585000C803A093C903B093CA03E0CC40912504C8
:105860005091260460912704709128048091BB0513
:105870009091BC05A091BD05B091BE058417950718
:10588000A607B70708F4CACC6091EE057091EF0542
:105890008091F0050E94530AE62E972E882E7BEC0D
:1058A000472E73E0572E49E851E05CA74BA7EEE086
:1058B0006E2E712C63013EE0C31AD108F12CC60193
:1058C00085539C4F5C01F601E757FE4F808190E0C5
:1058D000D5012C91222309F490C0282D4E2D692D3D
:1058E0000E94DA06F50181818083F394FFEFCF1ADD
:1058F000DF0A26E0F212E3CF63016EE0F62EA60186
:1059000045535C4F5A01F601E757FE4F808190E006
:10591000DA012C91222309F474C0282D4E2D692D13
:105920000E94DA06F50131978081F5018083FA94AF
:10593000F1E0CF1AD10827E0F212E1CFABA5BCA568
:1059400017968C9190E0F2012781222309F45DC023
:10595000282D4E2D692D0E94DA06ABA5BCA5169602
:105960008C9190E0F2012681222309F452C0282D67
:105970004E2D692D0E94DA060E94DC09837091E0A9
:1059800009F090E0D20116969C93169717969C9377
:10599000BFE04B0E511CEBA5FCA53F96FCA7EBA767
:1059A000FFE06F0E711C28E66216710409F082CFC9
:1059B0002091F10540E1240F08F42FEF60E1822FE0
:1059C00090E00E94490ABC0188EB9BE00E94592F9D
:1059D0008091BB059091BC05A091BD05B091BE051D
:1059E000860F971FA11DB11D809325049093260457
:1059F000A0932704B093280411CC20E040E060E09D
:105A00006FCF20E040E060E08BCF20E040E060E03E
:105A1000A2CF20E040E060E0ADCF86E997E00E94B1
:105A2000B10BABCD80E997E0FACF8091BF05582F3D
:105A300021E0521B08F450E0852F67E777E00E94D1
:105A4000E70A9BCD67E777E080E0F9CF8091BF055B
:105A5000382F41E0341B08F430E0832F6CE377E00B
:105A6000EECF6CE377E0F0CF8091BF05582F21E0B7
:105A7000521B08F450E0852F6AE077E0E0CF6AE03F
:105A800077E0E2CF8091BF05382F41E0341B08F466
:105A900030E0832F62EF76E0D2CF62EF76E0D4CFB2
:105AA0008091BF05582F21E0521B08F450E0852F4C
:105AB0006CED76E0C4CF6CED76E0C6CFDD24D394F8
:105AC000D8CB002309F4D5C9E5CBD12CC12C682C47
:105AD000712C402E512CC614D70448F04C145D0490
