:100000000C9499030C94E0030C94E0030C94E0032B
:100010000C94E0030C94E0030C94E0030C94E003D4
:100020000C94E0030C94E0030C94382A0C940C2BF1
:100030000C94CB240C94E0030C94E0030C94E003A8
:100040000C94E0030C94E0030C94E0030C94E003A4
:100050000C94E0030C9422250C94E0030C94E00330
:100060000C94E0030C94E0030C94E0030C94E00384
:100070000C94E0030C94E0030C94E0030C94E00374
:100080000C94E0030C94E0030C94E0030C94E00364
:100090000C94E0030C94E0030C94E0030C94E00354
:1000A0000C94E0030C94E0030C94E00329001E0080
:1000B0001F0020002100220023002400250026002C
:1000C00027002D002E002A00C25C2B0014001A000D
:1000D0000800150017001C0018000C001200130087
:1000E0002F00300031004B003900040016000700DB
:1000F00009000A000B000D000E000F003300340051
:10010000310028004E00E1001D001B000600190010
:10011000050011001000360037003800E50001002E
:1001200052004D00E000E300E200AA00A9002C000C
:10013000010001000100E6000151010050005100E2
:100140004F0035003A003B003C003D003E003F00C0
:10015000400041004200430044004500010001000E
:10016000C25C010001000100005C0100010001000F
:100170000100010001000100010001000100010077
:100180000100010001000100010001000100010067
:100190000100010001000100010001000100010057
:1001A0000100010001000100010001000100010047
:1001B0000100010001000100010001000100010037
:1001C0000100010001000100010001000100010027
:1001D0000100010001000100010001000100010017
:1001E0000100010001000100010001000100010007
:1001F00001000100010001000100010001000100F7
:1002000001000100010001000100010001000100E6
:1002100001000100010001000100010001000100D6
:1002200001000100010001000100010001000100C6
:1002300001000100010001000100010001000100B6
:1002400001000100010001000100010001000100A6
:100250000100010001000100010001000100010096
:100260000100010001000100010001000100010086
:100270000100010001000100010001000100010076
:100280000100010001000100010001000100010066
:100290000100010001000100010001000100010056
:1002A0000100010001000100010001000100010046
:1002B0000100010001000100010001000100010036
:1002C0000100010001000100010001000100010026
:1002D0000100010001000100010001000100010016
:1002E0000100010001000100010001000100010006
:1002F00001000100010001000100010001000100F6
:100300000100010000000000000000002A2B28006E
:1003100000000000000000000000000000000029B4
:10032000000000002C1E3420212224342627252EF4
:10033000362D3738271E1F2021222324252633332C
:10034000362E37381F0405060708090A0B0C0D0E58
:100350000F101112131415161718191A1B1C1D2F24
:100360003130232D350405060708090A0B0C0D0E44
:100370000F101112131415161718191A1B1C1D2F04
:100380003130354C0000000000000000000000008B
:10039000000000000000000000000000000000005D
:1003A00000000000000000007E0F00D4FFFFFFC728
:1003B000000000781E0F0500047F3F1F64321464A4
:1003C0003214783C1E1E140A052223252628292AC9
:1003D0002C2D2F3032333536383A3B3D3E404243A8
:1003E0004547494A4C4E5051535557595A5C5E60E7
:1003F00062646668696B6D6F71737577797B7D7FF9
:1004000081838587898A8C8E90929496989A9C9EF7
:100410009FA1A3A5A7A8AAACAEAFB1B3B4B6B8B913
:10042000BBBCBEBFC1C2C3C5C6C7C9CACBCCCDCE7B
:10043000D0D1D2D2D3D4D5D6D7D7D8D9D9DADADB5E
:10044000DBDBDCDCDCDCDCDDDDDDDDDCDCDCDCDCEA
:10045000DBDBDBDADAD9D9D8D7D7D6D5D4D3D2D229
:10046000D1D0CECDCCCBCAC9C7C6C5C3C2C1BFBE11
:10047000BCBBB9B8B6B4B3B1AFAEACAAA8A7A5A37C
:10048000A19F9E9C9A98969492908E8C8A8987853B
:1004900083817F7D7B79777573716F6D6B6968661A
:1004A0006462605E5C5A5957555351504E4C4A49EC
:1004B00047454342403E3D3B3A3836353332302F94
:1004C0002D2C2A292826252322FFAA7F554000010A
:1004D0000101010101010101020202020202020204
:1004E00002030303030303030304040404040404D6
:1004F000050505050506060606060707070707089A
:10050000080808090909090A0A0A0B0B0B0C0C0C4C
:100510000D0D0D0E0E0E0F0F0F10101111111212E6
:1005200013131414151516161717181819191A1A63
:100530001B1B1C1D1D1E1E1F2020212222232424C4
:10054000252626272829292A2B2C2D2D2E2F303100
:100550003232333435363738393A3B3C3D3E3F4012
:100560004142434445464748494A4C4D4E4F5051FD
:100570005354555658595A5B5D5E5F6162646566B7
:1005800068696B6C6D6F7072737577787A7B7D7E3E
:100590008082838587888A8C8E8F91939596989A8E
:1005A0009C9EA0A2A3A5A7A9ABADAFB1B3B5B7BAA6
:1005B000BCBEC0C2C4C6C9CBCDCFD1D4D6D8DBDD7A
:1005C000DFE2E4E7E9EBEEF0F3F5F8FAFDFF0A030A
:1005D0004D005700360035000000160371006D0015
:1005E0006B006200750069006C00640065007200B9
:1005F00000000403090409025B00030100A0FA09DA
:100600000400000103010100092111010001224041
:10061000000705810308000A090401000203000025
:100620000009211101000122220007058203200098
:100630000107050303200001090402000103000073
:1006400000092111010001226D000705840320002B
:100650000A1201100100000008EDFE07060100016A
:100660000200010660FF0961A1010962150026FF71
:10067000009520750881020963150026FF0095206A
:1006800075089102C005010980A101850319012A9D
:10069000B700150126B700950175108100C0050C43
:1006A0000901A101850419012AA002150126A00251
:1006B000950175108100C005010906A10185050598
:1006C0000719E029E7150025019508750181020544
:1006D00007190029EF1500250195F0750181020524
:1006E0000819012905950575019102950175039178
:1006F00001C005010906A101050719E029E7150058
:10070000250195087501810295017508810105078C
:10071000190029FF150026FF0095067508810005C0
:100720000819012905950575019102950175039137
:1007300001C011241FBECFEFDAE0DEBFCDBF04B68B
:1007400003FE27C08091A9039091AA03A091AB0357
:10075000B091AC038730904BA740B04BD1F41092CE
:10076000A9031092AA031092AB031092AC0314BE1B
:1007700084B7877F84BF0FB6F894A89580916000F6
:10078000886180936000109260000FBEE0E0F8E3A3
:10079000099511E0A0E0B1E0EAEDFCE502C00590AA
:1007A0000D92A43EB107D9F723E0A4EEB1E001C059
:1007B0001D92A93AB207E1F70E94F8260C94302E58
:1007C0000C94000090E080E0089581E00895262FC9
:1007D000811112C06091ED027091EE028091EF02E2
:1007E0009091F002222351F00E94FC0543E064E066
:1007F0000E9424140E94391A81E008950E94FC0589
:1008000044E0F5CF81E008950C94E50308950C943D
:1008100006041F93CF93DF9300D000D00F92CDB783
:10082000DEB749835A836B833091820289819A8132
:1008300031111DC06623B9F02223A9F00E94952131
:10084000182F682F89819A810E94412169817A81BC
:10085000812F0F900F900F900F900F90DF91CF91FD
:100860001F910C94DA140E946D21182FEFCF0E9473
:10087000952169817A81EDCFFC01262F408151813C
:100880006281738184810C940904CF93DF93EC011E
:1008900060E00E943C04BE01DF91CF910C940704FC
:1008A0008F929F92AF92BF92CF92DF92EF92FF9280
:1008B0000F931F936B017C0181E090E0A0E0B0E01A
:1008C0004C015D0104C0880C991CAA1CBB1C4A95F4
:1008D000D2F7B501A4014C015D0104C0880C991C3C
:1008E000AA1CBB1C2A95D2F7482959296A297B29B9
:1008F00004C0880F991FAA1FBB1F0A95D2F78A014F
:100900009B010C211D212E213F21041715072607CD
:10091000370789F48C299D29AE29BF29BC01CD0157
:100920001F910F91FF90EF90DF90CF90BF90AF900D
:100930009F908F90089580959095A095B0958C216B
:100940009D21AE21BF21EACF0F93382F262F609132
:10095000ED027091EE028091EF029091F002042F6F
:10096000432F0E9450040F910C947F200E94620834
:100970000C9487080C948A0808950E94AB1C0E946E
:10098000BC042FEF84E39CE0215080409040E1F7CD
:1009900000C000000C9446250F931F93CF93DF9364
:1009A0008C0161E00E943C04EC01B8010E94C1127C
:1009B000882309F441C0B801CE010E9404048823B1
:1009C000D9F1B801CE010E9411168823A9F1B8010E
:1009D000CE010E946316882379F1B801CE010E94EE
:1009E0008617882349F1B801CE010E941611882389
:1009F00019F1F8018281882361F0CA35FDE5DF072E
:100A000021F170F4C115ECE5DE07A1F0CE3DDC4527
:100A1000C9F0C801DF91CF911F910F910C9402048E
:100A2000CB358DE5D807A1F0CC35DD4591F70E9497
:100A30003C22EFCF0E94BD0480E0DF91CF911F9157
:100A40000F9108950E94B523F7CF0E944522E1CF70
:100A50000E944822DECFDF92EF92FF920F931F9306
:100A6000CF93DF93E82FF0E0EC5FFC4FD490282F7A
:100A700026952695269530E0F901EC55FC4F04911A
:100A8000877010E0082E02C0159507950A94E2F7CA
:100A900001701127F901EC56FC4FE490F12C082E5F
:100AA00002C0F594E7940A94E2F791E0E922FF246A
:100AB000F901EC57FC4FC491D0E002C0D595C79521
:100AC0008A95E2F7C170DD270115110519F081EE55
:100AD0000E944919E114F10419F086EE0E944919A7
:100AE0008D2D0E94391AEF2819F086EE0E94D31935
:100AF000012B19F081EE0E94D319CD2B51F08CE21D
:100B0000DF91CF911F910F91FF90EF90DF900C94A8
:100B1000391ADF91CF911F910F91FF90EF90DF90E5
:100B20000895EF92FF920F931F93CF93DF93EC0101
:100B3000162F0AE08881882309F454C0813009F017
:100B40004EC08981813099F47E0122E0E20EF11CD1
:100B50008A810E94391AE7012196812F815050F332
:100B6000EFE9FFE03197F1F700C00000F7CF8230E6
:100B700041F47E0182E0E80EF11C8A810E9449194D
:100B8000EACF833041F47E01E2E0EE0EF11C8A816F
:100B90000E94D319E0CF843011F02196DDCF2A8155
:100BA000229690E080E0AE014F5F5F4F2053330B01
:100BB0002A30310548F0019778F2EFE9FFE03197EC
:100BC000F1F700C00000F7CF089FB001099F700D3A
:100BD0001124C901860F971F2981EA01E4CF0E94E1
:100BE0002B05BACFDF91CF911F910F91FF90EF901E
:100BF000089560E00C949105CF92DF92EF92FF92FE
:100C00006C01EE24FF2420E0C114D104E104F104BE
:100C100019F0C701B60120E1C72ED82EE92EFF2416
:100C2000C114D104E104F10419F0285FC701B60131
:100C30006B017C0154E0F694E794D794C7945A95DD
:100C4000D1F7C114D104E104F10419F02C5FC701FC
:100C5000B6016B017C0142E0F694E794D794C79407
:100C60004A95D1F7C114D104E104F10419F02E5FC3
:100C7000C701B6019695879577956795672B682B81
:100C8000692B09F02F5F822FFF90EF90DF90CF90BC
:100C9000089508950C94490681E008950C944C063B
:100CA000CF93C82F0E944A068C2FCF910C944E06EA
:100CB0000895FC01EE0FFF1FEC54FC4F85919491B9
:100CC0000895CF93DF930E94DA140E946D07EC0120
:100CD000811520E5920708F041C0811530E49307A3
:100CE00008F0B4C0803E910518F5803C910508F0ED
:100CF0009DC0883A910570F4853A910508F08EC040
:100D000081309105F9F00097E9F00497D8F4D0E02C
:100D1000C0E018C08F3B9105D0F7C85AD0E0CC0F87
:100D2000DD1FCC5DDE4F0990D881C02DD4640AC090
:100D30008115904258F4C11581E0D80718F4C83ED7
:100D4000D10528F7CE01DF91CF910895C11590E329
:100D5000D90708F071C0CE019F706AC0811525E5E2
:100D6000920758F5811534E5930708F09EC0811568
:100D700042E5940750F4C11581E5D80708F469C02D
:100D8000DC2FCC27C16FD06ADDCF982F9695969532
:100D90009E0123703327C115D34508F077C0C1E009
:100DA000D0E002C0CC0FDD1F2A95E2F720E2929F2F
:100DB000C0011124C82BD92B67C0C11589E5D807FC
:100DC000A8F4C11598E5D90708F074C0C11526E547
:100DD000D20708F09CCF8C2F0E940408C82FD0E0C7
:100DE000DC2FCC27CC27DF71D062ACCFC1153AE520
:100DF000D30708F464C0CE0190568115904208F0E4
:100E000086CF8D2F8F710E94040890E0982F88273D
:100E100088279F719C012C2BE901E6CFC55AD0E0B1
:100E2000CE5ADE4FC881D0E0D0648CCF805C91096F
:100E30000E945906EC0186CFCE019927D3FF03C04B
:100E4000EC01D86C7FCFEC01D06C7CCFDF70D06A26
:100E500079CFCE01E4E096958795EA95E1F7837026
:100E60002C2F26952695237090E2299F900111241E
:100E7000382B8C2F8370C1E0D0E002C0CC0FDD1F77
:100E80008A95E2F7C22BD32BDC685CCFC1E0D0E0BF
:100E900002C0CC0FDD1F2A95E2F730E2939FC0011C
:100EA0001124C82BD92BDA684DCFD82FCC27C46F8B
:100EB000D06A48CFDC2FCC27C06FD06A43CF8C2FAD
:100EC0008F700E94040834E0D695C7953A95E1F7F3
:100ED000CF709C2FEC01D06935CF82389105B1F1EC
:100EE000B0F48133910509F475C048F48932910555
:100EF00009F469C08A32910509F473C008958533F5
:100F0000910509F459C08933910501F10895833E93
:100F10009105A9F138F4803E9105F9F0823E9105E2
:100F200049F10895863E9105A9F1873E9105C9F1E1
:100F3000843E910519F520913F0321FF1FC0809148
:100F40003E0384FD14C087EE90E0089520913E0397
:100F50002370A1F080EE90E0089520913E0320FDE3
:100F600047C030913F0330FF09C024FF44C090E0E8
:100F700080E004C020913E0322FDF7CF0895209128
:100F80003E0322FD3BC030913F0330FDE3CF24FF01
:100F9000F5CFEDCF20913E0323FFF0CF24FDE7CF27
:100FA000D2CF20913E0323FD2CC030913F0331FF6F
:100FB000EECF84EE90E0089520913E0325FFDECF32
:100FC00089E290E0089520913E0325FFD7CF85E385
:100FD00090E0089520913E0326FFD0CF8AE290E072
:100FE000089520913E0326FFC9CF81E390E0089544
:100FF00089E390E0089583EE90E0089582EE90E01A
:10100000089586EE90E0089590913E0392FF06C009
:10101000282F28712830F9F4877F846093FF06C059
:10102000282F28712831F1F4877E846120913F03B5
:1010300020FF06C0382F38713830D9F4877F81609F
:1010400021FF06C0282F28712831D1F4877E8161C5
:1010500094FD877E0895282F24712430F9F68B7F24
:101060008860DCCF282F2471243101F78B7E8861C2
:10107000DDCF382F3171313019F78E7F8860E0CFA6
:10108000282F2171213121F78E7E8861E1CF0C94C8
:101090009B120E9403092FEF86E791E021508040C8
:1010A0009040E1F700C000000E94030980E00E9428
:1010B0008C0880FF04C00E9447080C9446250895C0
:1010C0000C9449080E941023811102C00E94B5238C
:1010D0000E941B2380931A030E94232390933F03B3
:1010E00080933E030E9460080E941F23682F70E0D7
:1010F00090E080E00E9443206091ED027091EE024A
:101100008091EF029091F0020C947D2008950C9450
:10111000860808950C948908E82FF0E0EE0FFF1F71
:10112000E65BFC4F808191810895089580EA8A955D
:10113000F1F7089500C008950C949608F894E82FEC
:10114000E295EF70F0E031A1282F2F7081E090E060
:1011500001C0880F2A95EAF7982F9095932391A3C1
:1011600092A1892B82A3789408950F931F93CF9314
:10117000DF9384E90E949E0887E90E949E0884E329
:101180000E949E0883E30E949E0886E30E949E08B8
:10119000C5E5D1E004E611E089910E949E080C1794
:1011A0001D07D1F7109241031092400310924B0398
:1011B00010924A03109243031092420310924D037F
:1011C00010924C03109245031092440310924F0367
:1011D00010924E031092470310924603109251034F
:1011E0001092500310924903109248031092530337
:1011F0001092520385E00E948309DF91CF911F91E5
:101200000F910C94B604AF92BF92DF92EF92FF92CF
:101210000F931F93CF93DF93C4E6D1E000E413E074
:10122000D12CEE24E394F12C8991F894E82FE295E7
:10123000EF70F0E021A18F70A70102C0440F551F8D
:101240008A95E2F7CA01922F982B91A392A18095DB
:10125000892382A378940E949A08E5E5F1E030E0C2
:1012600020E0B12CA12C4191A42FA295AF70B0E049
:1012700090968C9190E04F7002C0959587954A9515
:10128000E2F780FD3BC0C701022E02C0880F991F04
:101290000A94E2F7A82AB92A2F5F3F4F2F30310571
:1012A00011F7FE01319780810E949E080E949C08E0
:1012B000F80180819181A816B90619F1B182A08246
:1012C00081E0D82A0E5F1F4FF1E0C936DF0709F031
:1012D000ABCF2D2D45E06AE473E080E493E00E94FB
:1012E00084090E94BA048D2DDF91CF911F910F9137
:1012F000FF90EF90DF90BF90AF90089590E080E076
:10130000C9CF80E0DECF0895FF920F931F93CF9354
:10131000DF93F82E092F162FD72FC42F222349F041
:1013200081E08093E8010E94FB249093E701809381
:10133000E6018091E8018823A1F08091E601909177
:10134000E7010E941325069760F0EF2DF02FA12FE3
:10135000BD2F90E080E0D0E08C179D0744F0109204
:10136000E801DF91CF911F910F91FF900895219196
:1013700031912D933D930196EFCFEF92FF920F9312
:101380001F93CF93DF93EB01E82FD11110C04423BB
:1013900021F0F0E0E253FB4FE4916E2F7E2F8E2F71
:1013A000DF91CF911F910F91FF90EF9008950D2F36
:1013B00010E0282F30E0442329F022533B4FF9015D
:1013C000249130E0F6E0CF9FC0011124EFEFF0E070
:1013D000BF010E94D82CAB018C2F90E0880F991F81
:1013E000A5E5A49FB001A59F700D1124861B970B46
:1013F000982F990F980FBF01601B710B629FD0014E
:10140000639FB00D729FB00D11248B2F9D9FB00173
:101410001124672F7727EF01C61BD70BBE01629FF0
:10142000E001639FD00D729FD00D11247F01E91A56
:10143000F108E09EB001E19E700DF09E700D112448
:10144000672F7727E61BF70BE29F8001E39F100DC4
:10145000F29F100D1124E12F722F4230510599F0A7
:1014600048F44115510569F04130510581F0EB2FE9
:101470008D2F07C04430510569F080F0463051058A
:10148000B1F76E2F8DCFE22F7B2F812FFACFE22F76
:101490007D2FF7CFEB2F822F712FF3CF7B2F822F52
:1014A000ED2FEFCF41E00C94BD0908950C94520A42
:1014B000CF93DF93762FE901682F842F0E94560A7D
:1014C000798368838A83DF91CF9108958091540353
:1014D000982F9E7F29F48170826080935403089531
:1014E0008635E8F381708465F8CF88E090E00C944D
:1014F000D12DCF92DF92EF92FF926B017C010E947F
:10150000660AB701A60188E090E0FF90EF90DF90B7
:10151000CF900C94EF2D60915403709155038091FE
:101520005603909157030C94790AE4E5F3E083E0C5
:10153000808311828FEF8283838314826081718123
:10154000828193810C94790A8091540380FF02C0B8
:101550008695089580E0089590915803933018F48B
:101560009F5F90935803882351F0609154037091CA
:10157000550380915603909157030C94790A08956E
:1015800081E00C94AC0A90915803992319F0915082
:1015900090935803882351F0609154037091550340
:1015A00080915603909157030C94790A089581E035
:1015B0000C94C30A809158030895809358036623BE
:1015C00051F06091540370915503809156039091AE
:1015D00057030C94790A089560E00C94DD0A809119
:1015E00055030895809156030895809157030895F7
:1015F00070E00C94E311609108018091540380FF26
:101600000AC08091070123E0829FC0011124875AFC
:101610009C4F0C94F80A8091090190910A0123E0F3
:10162000829FF0011124E75AFC4F891750F711826D
:10163000108212828F5F3396F8CF9091540390FFFF
:1016400014C09091090120910A0133E0939FF001A9
:101650001124E75AFC4F921710F00C94FB0A818377
:10166000608342839F5F3396F6CF0895CF93DF93D5
:1016700000D00F92CDB7DEB79091540390FF0AC00F
:101680009E012F5F3F4F0E94580A4B8169818A81DA
:101690000E941D0B0F900F900F90DF91CF91089536
:1016A000CF93DF93EC01EC81F0E0E753FC4F4491E2
:1016B000E4E5F3E0628181810E94360B8C818F5FCB
:1016C0008C83DF91CF910895CF93DF93EC01E4E514
:1016D000F3E0438162818C810E94360B8C818F5FA5
:1016E0008C83DF91CF9108950F931F93CF93DF9356
:1016F00000D00F92CDB7DEB78C018091E901811146
:101700000AC09E012F5F3F4F4FEF6FEF0E94580AB4
:101710008A818093E901F8016481613069F08091E8
:10172000E90140E0662361F040E0623011F440914D
:10173000E90180E060E004C06091E90140E080E000
:101740000E941D0BF801848190E0019663E070E037
:101750000E94EC2C84830F900F900F90DF91CF911B
:101760001F910F910895AF92BF92CF92DF92EF92A7
:10177000FF920F931F93CF93DF9300D00F92CDB7BB
:10178000DEB7182FF62E042FE22E9091540390FF0F
:1017900029C0E92FE695AE2FB0E0A759BE4F8C9136
:1017A00080935C029E7F923059F59E012F5F3F4FE0
:1017B000812F0E94580A4B8169818A810E941D0BEA
:1017C00010935503F092560300935703EE2051F007
:1017D0006091540370915503809156039091570383
:1017E0000E94790A0F900F900F90DF91CF911F9177
:1017F0000F91FF90EF90DF90CF90BF90AF90089542
:10180000823019F400915703DBCF863019F4109120
:101810005503D6CF8930D9F3893191F6E9518E2F0E
:101820008170D82EE695F0E0E753FB4FA590B49079
:10183000C12CBB2460910B01C61618F00E94FB0A54
:10184000BFCF2C2D30E0A29EC001A39E900DB29E72
:10185000900D112470E00E94D82C812FD11013C05C
:10186000860F40910901420F532F511D9A01220FFB
:10187000331F240F351F275A3C4F402F6F2D0E94D6
:10188000580AC394D7CF861BECCFE4E5F3E09181EF
:10189000282F4381628188E0890F0C94B30B81E08B
:1018A0000C94450CE4E5F3E09181282F438162819B
:1018B00088EF890F0C94B30B81E00C94520CE4E593
:1018C000F3E0628128E0620F08F46FEF282F438174
:1018D00081810C94B30B81E00C945F0CE4E5F3E0A0
:1018E000628128E0621B08F460E0282F4381818137
:1018F0000C94B30B81E00C946E0CE4E5F3E04381AF
:1019000028E0420F08F44FEF282F628181810C9468
:10191000B30B81E00C947D0CE4E5F3E0438128E017
:10192000421B08F440E0282F628181810C94B30BA4
:1019300081E00C948C0C20E00C94B30BEF92FF929E
:101940001F93CF93DF93EC0110E0EE24EA94F12C87
:1019500060910B01161770F00E94FB0A9A818C812E
:1019600090FF27C08F5F8C83DF91CF911F91FF90F5
:10197000EF90089520910901422F410F5527551FDF
:10198000CA019A01220F331F280F391F275A3C4FD3
:1019900070E0C7010E94EC2C962F8C814091570378
:1019A00060915603199F800D11240E94580A1F5FF1
:1019B000CFCF8150D8CFAF92BF92CF92DF92EF922C
:1019C000FF920F931F93CF93DF93FC0182810FEF60
:1019D00080FF01E010E045E1A42E80910B01181773
:1019E000C8F00E94FB0A8091EB01013009F055C05C
:1019F000811102C080910B0181508093EB01DF9136
:101A0000CF911F910F91FF90EF90DF90CF90BF90FB
:101A1000AF900895C0910901C12ED12CCC0DDD2DC0
:101A2000D11DCE01880F991FC80FD91FC75ADC4F8F
:101A3000198218821A8234E0E32EF12CB12C8091A5
:101A4000EB018B0D86311CF16A2D0E94CA2C892F67
:101A5000082E000C990BC816D90691F480915703F3
:101A60008E9DA0018F9D500D11245595479555953C
:101A700047959E0160915603809155030E94580A34
:101A8000B00EF1E0EF1AF108D1F61F5FA6CF87FF85
:101A9000DFCF90910B01890FDBCF90E00196609131
:101AA0000B0170E00E94EC2CA8CF0F931F93CF93F3
:101AB000DF938091090190910A0123E0829FF00158
:101AC0001124E75AFC4F891740F1C0E0D3E0609140
:101AD0000B01C61740F10E94FB0A2091050180917D
:101AE000EA01820F8093EA0190910601920F909390
:101AF0000601191654F4082E000C990B40910B01A5
:101B00004150550B841795071CF021952093050132
:101B1000DF91CF911F910F9108951182108212824F
:101B20008F5F3396D0CF0C2F10E070E0C8010E9479
:101B3000EC2C20910901820F482F50E02091EA01FE
:101B4000022E000C330B02171307BCF02091060184
:101B5000022E000C330B201731077CF08D9F900173
:101B60001124275A3C4F40915703609156038091AE
:101B700055030E94580ACF5FAACFFA01EE0FFF1F4C
:101B8000E40FF51FE75AFC4F118210821282F3CF47
:101B90008F929F92AF92BF92CF92DF92EF92FF927D
:101BA0000F931F93CF93DF93EC014C81042F10E030
:101BB0009801D8010E94372D9B01AC010E944D2D48
:101BC0004B015C01E0E2F0E0E01BF10BA5E5B0E0C9
:101BD000AC019B010E944D2D6B017C019F01DF0137
:101BE0000E942F2D9B01AC010E94582D9B01AC013E
:101BF000280D391D4A1D5B1DC701B6010E94002D2D
:101C0000F22E822F90E039E23F1560F143E0249FED
:101C10009001112435952795122F109500E085E548
:101C2000E82EEF1880910B01081758F10E94FB0A6B
:101C30009C8181E0992319F0903219F48FEF809301
:101C4000040180910401890F8C83DF91CF911F9152
:101C50000F91FF90EF90DF90CF90BF90AF909F904B
:101C60008F90089525E530E0B901681B790B9B0141
:101C7000220F331F260F371F37FFCCCF2F5F3F4F69
:101C8000C9CF8E2D01FD8F2D20910901622F600F8C
:101C90007727771F9B01220F331F260F371F275AE5
:101CA0003C4F412F609156030E94580A0F5FBACFF4
:101CB0000F931F93CF93DF93EC0110E000E090911E
:101CC0000B019017110609F06CF40E94FB0A8C813D
:101CD00090E00196817099278C83DF91CF911F91BD
:101CE0000F91089520910901A801420F511D9A01F9
:101CF000220F331F240F351F275A3C4F4C81609110
:101D000056038091550396959017110651F04CF0AB
:101D1000442349F0409157030E94580A0F5F1F4F18
:101D2000CECF4423B9F340E0F7CF4F925F926F924A
:101D30007F928F929F92AF92BF92CF92DF92EF925B
:101D4000FF920F931F93CF93DF93FC016280448037
:101D500081E08483E9ECF3E07490E8E4F4E0E4915A
:101D6000812C75E0972EF2E0CF2EDD24D394AA24A7
:101D7000AA94B12C55245A94E7190E2F10E08091A3
:101D80000B01881690F0DF91CF911F910F91FF907A
:101D9000EF90DF90CF90BF90AF909F908F907F900B
:101DA0006F905F904F900C94FB0AE82CF12C82E02E
:101DB000861568F09E9CF0019F9CF00D1124E45163
:101DC000FE4F80915503808380915603818341109B
:101DD00023C09E9CF0019F9CF00D1124E451FE4F06
:101DE0001382128220910901C701820F911D9C016B
:101DF000220F331F280F391F275A3C4F9E9CF0019A
:101E00009F9CF00D1124E451FE4F4281618180813D
:101E10000E94580A8394B3CF9E9CE0019F9CD00DF2
:101E20001124C451DE4F8B818823E9F081508B83CC
:101E3000859DC00111246C8170E00E94D82CFB01AB
:101E4000FF27E753FC4F8491E82FE719E59DC00178
:101E50001124B8010E94D82C80915703689FB001CB
:101E600011247A83BFCF0E94AC2D20915703269571
:101E700021582C9DA0012D9D500D1124452F552733
:101E8000841795070CF0AECF82E0861588F40E9487
:101E9000AC2DB5010E94EC2C88830E94AC2D2091C2
:101EA00056032695622F70E00E94EC2C280F2983A0
:101EB0009E9CF0019F9CF00D1124E451FE4F128274
:101EC00080915703893C58F088EC9E9CF0019F9CC0
:101ED000F00D1124E451FE4F8483838383CF84313A
:101EE000A0F784E1F2CFE4E5F3E080818E7F808388
:101EF00060817181828193810E94790A10925D02D2
:101F00002FEF80E792E0215080409040E1F700C041
:101F100000000C94FB0AE4E5F3E080818E7F80836F
:101F200010925D022FEF80E792E0215080409040B8
:101F3000E1F700C000000C94FB0A60915403669521
:101F400070E04BE050E08CE091E00E94BC2D892BCA
:101F500019F481E080935D020E94FB249093560265
:101F60008093550208959091540390FF35C091706D
:101F7000811128C0926090935403662351F06091C0
:101F800054037091550380915603909157030E941A
:101F9000790A60915403669570E04BE050E08CE064
:101FA00091E00E94BC2D892BA1F010925D0281E08E
:101FB00080935802409157036091560380915503D6
:101FC0000C949B0C8B3210F09465D5CF880F982B16
:101FD000D2CF0E949D0FEBCF0895682F90915403AC
:101FE000969581E0890F8B3208F081E00C94B30F55
:101FF00081E00C94ED0F682F9091540396958FEF2C
:10200000890F09F48AE20C94B30F81E00C94FB0F62
:1020100061E00C94B30FE4E5F3E08081816080839C
:1020200086950C9408108091540380FD0C94730FD6
:102030000C940B1060E00C94B30F80915B02811143
:102040002EC00E941023811104C00E94B5230E945B
:10205000950A0E94750A6093540370935503809308
:102060005603909357036E7F61F40E94950A0E9475
:10207000750A6093540370935503809356039093AD
:1020800057030E94660A10925D028091540380FFFC
:1020900003C086950E941A1081E080935B02089528
:1020A000E4E5F3E080818160808386950C941A10CA
:1020B0000F931F93CF93DF9380915D02882309F4E0
:1020C00096C080915C02E0915403E695E81BE09392
:1020D0005702823091F5F0E0EB53FC4FE491CE2FA4
:1020E000D0E000E51BE080915802882361F0109257
:1020F00058020E94FB24909356028093550210923E
:102100005A02109259020E94FB24E0915502F0916C
:1021100056028E1B9F0B8F3F9F4708F068C0EC0F45
:10212000FD1FF0935602E093550285E592E0F80119
:10213000DF91CF911F910F910994863049F4F0E01F
:10214000EE53FC4FE491CE2FD0E004E61BE0CBCF62
:10215000893051F4E695F0E0E154FC4FE491CE2F44
:10216000D0E00EE91CE0BFCF8F3051F4E695F0E0EF
:10217000E454FC4FE491CE2FD0E00BED1CE0B3CF44
:10218000853149F4F0E0E754FC4FE491CE2FD0E0E4
:1021900005E51DE0A8CFC8E2D0E008EC1DE08831DD
:1021A00009F4A1CF833239F4E7EBF3E0C591D49180
:1021B00004E71BE098CFC4EFD1E008E51EE08432CD
:1021C00009F491CFC0EDD7E005E51AE0853209F0BA
:1021D0008ACF8E2F63E00E94BE2CE92FF0E0EC54F2
:1021E000FC4FE491CE2FD0E005E91EE07CCFDF91DB
:1021F000CF911F910F910895FA01811101C0FB0148
:102200000994CF93DF93C82FD62F0E94A40A8C176E
:1022100040F00E94A40A8D1720F4DF91CF910C9416
:10222000F80F8C2FDF91CF910C9408101F93CF9350
:10223000DF93EC01FB011281112309F4C2C00E945B
:102240004B228272CC3CFCE5DF0709F4A0C008F009
:1022500044C0C63CECE5DE0709F485C0F0F4C33C9D
:102260009CE5D90709F475C048F4C23CDC4509F483
:102270006CC0812FDF91CF911F910895C43C9CE5E4
:10228000D90709F46BC04CE55CE06FE47CE0C53C29
:10229000DC4579F70E94FC105AC0C93CFCE5DF0719
:1022A00009F46BC068F4C73CECE5DE0709F460C0D4
:1022B0004BE65CE06AE77CE0C83CDC4559F3D9CFEB
:1022C000CA3C9CE5D90709F45DC047ED5AE060ECD3
:1022D0007AE0CB3CDC45F1F2CCCFC13DFCE5DF0739
:1022E00009F464C098F4CE3C9CE5D90709F458C0C1
:1022F00008F452C0CF3CFCE5DF0709F454C0C03DF0
:10230000DC4509F0B6CF6EE089E01CC0C43D9CE519
:10231000D90709F451C058F4C23DFCE5DF0709F4C0
:1023200048C0C33DDC4509F0A4CF88E136C0C53DB7
:102330009CE5D90709F443C06AE285E2CD35DD4565
:1023400009F097CF0E94011102C00E94131010E003
:1023500090CF45E050E168EF7FE09CCF48EF5FE031
:1023600065E070E197CF4FE45CE06CE57CE092CFF4
:102370004AE75CE06BE67CE08DCF48E95CE069E829
:102380007CE088CF49E85CE068E97CE083CF40EC02
:102390005AE067ED7AE07ECF81E00E940810D7CF47
:1023A00065E082E0CFCF68E086E0CCCF64E18FE0EB
:1023B000C9CF67E185E1C6CF62E289E1C3CF83E29D
:1023C000ECCF11E056CF3F9A48B14F7758B15068E3
:1023D000EFB7F8949B01220F331F260F371F280FEA
:1023E000391F2817390741F4EFBF8FE594E00197B3
:1023F000F1F700C000000895DC016D91CD0178E097
:1024000058B9000000C067FF48B9660F000000C05F
:1024100000C000C048B900C07A9591F7E2CF0C9493
:10242000E7036E98769A56985E9A8CB186FB882759
:1024300080F94E9905C090E0892B80936002089541
:1024400092E0FACFE0916002EE0FEE0FE0936002AF
:102450004CB146FB882780F949B146FB222720F979
:1024600046FF02C022E030E0822BE82BE0936002BE
:10247000EF70F0E0EC56FE4F808190915F02890F83
:1024800080935F0220E0843054F080915E028F5F81
:1024900080935E0260E080E00E940F1221E0809154
:1024A0005F028D3F54F480915E02815080935E0202
:1024B00061E080E00E940F1221E080915F02082E0F
:1024C000000C990B64E070E00E94EC2C80935F029A
:1024D000822F089583E290E00E94C92D813289F411
:1024E00084E290E00E94C92D873059F485E290E0A3
:1024F0000E94C92D91E0883109F090E0892F817008
:10250000089580E0FCCFCF93C82F6FEF811161E277
:1025100083E290E00E94DD2D6FEFC11167E084E25D
:1025200090E00E94DD2D6FEFC11168E185E290E03F
:10253000CF910C94DD2D80E00E9483120C940A232D
:10254000089586E290E00E94C92D682F70E090E027
:1025500080E0089586E290E00C94DD2D0E94A012A8
:102560000E946A1281110CC060E070E0CB010E94F1
:10257000AA120E9452140E943E1581E00C9483120C
:102580000895CF93FB01C281CC2309F19C01225114
:102590003F452031310520F582510E944E15C0E0A3
:1025A0008C2FCF91089581E00E94A52043E062E046
:1025B00081E00E94A404F3CF81E00E94C62043E0A2
:1025C00062E081E00E94A404EBCF82E0F6CF80318C
:1025D000FFE59F0789F381319F45B9F3C1E0E0CF63
:1025E0008031EFE59E07F9F281319F45C9F682E01F
:1025F000DBCF2FEFFC0120830895CF93DF93EC0115
:1026000088818138A9F028F4803871F0DF91CF916A
:102610000895823881F08338C9F70E94EF0A8983D0
:102620000E94F20A8A83F2CF0E94F50A8983EECFD4
:102630000E94A40AFBCF0E94DA0AF8CFCF93DF935F
:10264000EC0188818138E1F028F4803869F0DF916D
:10265000CF910895823811F18338C9F70E94F50AA5
:10266000482F6A81898108C0D9810E94F20AC82F47
:102670000E94EF0A4D2F6C2FDF91CF910C949B0C91
:1026800089810E941A108981811104C0DF91CF9144
:102690000C948B0FDF91CF910C9450108981DF91B6
:1026A000CF910C94EC0AEF92FF920F931F93CF936C
:1026B000DF93EC01062FDC01ED91CD01E150E33118
:1026C00008F0ADC0F0E0EE5CF14D0C94222D1982C3
:1026D00089E08A83602FCE01DF91CF911F910F9106
:1026E000FF90EF900C94ED258981823069F0833062
:1026F00071F08130D9F40E9407250E94282D6A8349
:102700007B838C839D83E6CF0E94A112F6CF7E014E
:1027100010E0812F0E948C08F701928383831F5F52
:10272000F2E0EF0EF11C1530A1F7D4CF602FCE01EF
:102730000E94F912CFCF89818230C1F76A817B81F3
:102740008C819D810E94282D0E94AA12C3CF4B81AB
:102750006A8189810E9424149827892798279D835C
:102760008C83B8CF2C813D813227232732274B81A0
:102770006A8189810E943D14ADCF0E945214AACF74
:102780000E941E13A7CF0E94FD12A4CF0E948B0AA5
:10279000A1CF0E94E71489839DCF0E94E914982756
:1027A000892798279A83898395CF6B8170E08981E7
:1027B0009A81AE014C5F5F4F9827892798270E9426
:1027C000EC1488CF6B8170E089819A81AE014C5FF7
:1027D0005F4F9827892798270E9413157BCF0E9467
:1027E0003E1578CF0E941214D6CF6B8170E089819C
:1027F0009A81AE014C5F5F4F9827892798270E94E6
:102800008A1468CF6B8170E089819A81AE014C5F38
:102810005F4F9827892798270E94B0145BCF8FEFCE
:10282000888358CF84E0089550E0440F551F9EE1FF
:10283000699F400D511D112496E9899F400D511D3E
:102840001124CA01879608950F931F93CF93DF93A6
:102850000E9414148C010E94C92DC82FD0E0DC2FD7
:10286000CC27C80101960E94C92D9E01282BC901C1
:10287000DF91CF911F910F9108950F931F93CF93E5
:10288000DF93122F032F0E941414EC01602F0E947B
:10289000DD2D612FCE010196DF91CF911F910F9118
:1028A0000C94DD2DAF92BF92CF92DF92EF92FF9208
:1028B0001F93CF93DF938CEAC82E80E0D82ED0E010
:1028C0007601C0E014C0F50125913491412F6C2FA1
:1028D0008D2F0E943D1482E0A80EB11C1F5F1F3097
:1028E00091F78EE1E80EF11CCF5FC53019F057016A
:1028F00010E0E9CFDF5F86E9C80ED11CD43001F7C4
:10290000DF91CF911F91FF90EF90DF90CF90BF901C
:10291000AF900895EF92FF920F931F93CF93DF93A1
:10292000EC018A017C01E60EF71ECE018796CE15DA
:10293000DF0539F4DF91CF911F910F91FF90EF9058
:102940000895C83522E0D20740F40E94C92DF8014D
:1029500080830F5F1F4F2196E8CFF8011082F9CFD7
:10296000CF92DF92EF92FF920F931F93CF93DF935B
:102970007C016A018C01060F171FEC01CE018796BE
:10298000C017D10749F4DF91CF911F910F91FF90AC
:10299000EF90DF90CF900895C83522E0D20740F441
:1029A000FE01EE19FF09EC0DFD1D60810E94DD2D79
:1029B0002196E4CF462F843038F4753028F46F30F8
:1029C00018F4672F0C94241490E080E0089580E1BF
:1029D000089581E891E00895EF92FF920F931F937D
:1029E000CF93DF93EC018A017C01E60EF71ECE0146
:1029F00081589D4FCE15DF0539F4DF91CF911F919E
:102A00000F91FF90EF900895C13821E0D20740F474
:102A10000E94C92DF80180830F5F1F4F2196E7CFD9
:102A2000F8011082F9CFCF92DF92EF92FF920F93CD
:102A30001F93CF93DF937C016A018C01060F171F50
:102A4000EC01CE0181589D4FC017D10749F4DF91A9
:102A5000CF911F910F91FF90EF90DF90CF9008954D
:102A6000C13821E0D20740F4FE01EE19FF09EC0D58
:102A7000FD1D60810E94DD2D2196E3CFCF93DF9372
:102A8000CFE7D2E060E0CE010E94DD2D2196C11596
:102A900084E0D807B9F7DF91CF910895DF92EF92E4
:102AA000FF920F931F93CF93DF9300D000D0CDB749
:102AB000DEB7F82E8FE08F1540F08FEF93E00E9485
:102AC000C92D0FE712E08823C1F00F900F900F90EF
:102AD0000F90DF91CF911F910F91FF90EF90DF90BA
:102AE0000895011584E0180781F3C8010E94C92DDB
:102AF000811101C0FA940F5F1F4FF110F2CF1982BC
:102B00001A821B821C82DD24D39478018FEFE81A8D
:102B1000F80AC8010E94C92D89831A828823A9F264
:102B20009FEF980F933078F48A83D9820E5F1F4FFE
:102B3000C7010E94C92D8B83882339F2CE010196EB
:102B40000E94F905E2CF8701F9CF0F931F93CF932E
:102B5000DF93C42FD22FFC0182818823C9F04093D8
:102B600063020E94FB24909362028093610280E2E0
:102B70008C0F883008F050C0C77081E001C0880F0A
:102B8000CA95EAF7DF91CF911F910F910C94411AEA
:102B900010916302141335C080916102909162021A
:102BA0000E941325883C910560F5C0E2CD0F1D17EA
:102BB000B9F080E2810F883040F4177081E001C0E5
:102BC000880F1A95EAF70E94481AC83048F481E045
:102BD0009D2F977001C0880F9A95EAF70E94411ABD
:102BE000802F0E94391AC830B8F4D77081E001C034
:102BF000880FDA95EAF7DF91CF911F910F910C942E
:102C0000481A80E28C0F883038F4C77081E001C028
:102C1000880FCA95EAF7EFCFDF91CF911F910F91FF
:102C200008950F939C01CB01233F4CE5340759F1E4
:102C3000A8F4283DFCE53F0701F1293D4CE53407A8
:102C4000D1F1273D3C4591F406E221EE41EE67EDDE
:102C50007CE50E94A51580E00F910895253FFCE5D5
:102C60003F07E9F0B0F0263F3C45F9F0FC018281D6
:102C7000882339F110926302EFCF07E225EE45EE8B
:102C800068ED7CE5E6CF06E221EE40EE63EF7CE501
:102C9000E0CF07E225EE44EE64EF7CE5DACF06E212
:102CA00021EE42EE65EF7CE5D4CF07E225EE46EE5D
:102CB00066EF7CE5CECF08E221E045EE69ED7CE5EC
:102CC000C8CF81E0C9CFCF93DF93EC01FB018281B4
:102CD000882309F419C1C230FCE5DF07C0F1C63111
:102CE0009CE5D90730F09E012A5F3C45293031052B
:102CF00070F50E94232390933F0380933E03C031DD
:102D0000ECE5DE0709F4CFC008F05BC0C8308CE505
:102D1000D80709F4B6C088F5C430ECE5DE0709F43D
:102D2000A8C0C0F4C2308CE5D80709F49CC08091DB
:102D30003E038260C330DC4509F498C080913E03B5
:102D400090913F030E9431230E94AB1C80E0DF91F1
:102D5000CF91089580913E038061C630ECE5DE0797
:102D600009F484C080913E038860C730DC4508F4D4
:102D70007DC080913E03806279C0CC308CE5D8075D
:102D800009F489C070F480913E038C60CA30ECE590
:102D9000DE0709F46BC008F478C080913E038E7F93
:102DA00065C0CE308CE5D80709F479C080913E0328
:102DB0008B7FCF30DC4508F459C080913E038F7E75
:102DC00055C0CB3FECE5DE0709F457C030F5C33101
:102DD0008CE5D80709F46FC078F4C131ECE5DE0763
:102DE00009F465C0C231DC4509F0A8CF0E94AB1CD4
:102DF00080913E038F773AC0C5318CE5D80709F43E
:102E000062C008F476C080913F038160CA3FDC4510
:102E100009F094CF80933F0391CFCF3FFCE5DF07CC
:102E200009F44DC088F480913F038D7FCD3F9CE530
:102E3000D90781F380913F038E7FCE3FDC4550F36D
:102E400080913F038360E6CFC130FDE5DF0709F4E1
:102E500059C008F444C080E0C230DD4509F06ECFAF
:102E60000E94B7236BCF80913E03816080933E0325
:102E700065CF80913E038460F9CF80913F038260EB
:102E8000C9CF80913E038064F1CF0E94AB1C80913A
:102E90003E038068EBCF80913E038D7FE7CF80912A
:102EA0003E03877FE3CF80913E038F7DDFCF80910C
:102EB0003E038F7BDBCF80913E03837FD7CF809112
:102EC0003F038C7FA7CF80913E0382FB992790F927
:102ED00021E0922790FB82F990FB83F9C7CF809184
:102EE0003F03982F909591708E7F892B90FB81F9ED
:102EF00091CF0E94AB1C90913E03892F97FB87F9DD
:102F00008058B4CF81E0ACCF81E021CFCF93DF9365
:102F1000EB0186319C4511F50E944B229A81992341
:102F200099F08A7A91E009F490E09093640281111B
:102F300009C089E20E9405220E949B2280E0DF9165
:102F4000CF91089585E3F6CF80916402811104C08A
:102F500089E20E940C22F0CF85E3FBCF81E0EFCF26
:102F600090936A02809369020895E0916902F0915A
:102F70006A02309721F00190F081E02D099480E001
:102F80000895E0916902F0916A02309799F02091DA
:102F90002301222359F020913E0327FF07C0DC01C3
:102FA0002C9111962C93119725E02C930280F3819C
:102FB000E02D099408952091670230916802281746
:102FC000390771F09093680280936702E09169027B
:102FD000F0916A02309721F00680F781E02D099484
:102FE000089520916502309166022817390771F023
:102FF0009093660280936502E0916902F0916A0203
:10300000309721F00084F185E02D099408950E9405
:10301000072560937E0270937F02809380029093D5
:10302000810260937A0270937B0280937C0290937A
:103030007D0208950E94072560937E0270937F02AF
:10304000809380029093810260937602709377025E
:103050008093780290937902089585B7806885BF40
:1030600085B7806885BF0895089508950C94341835
:1030700008950C9438180E942D1888E093E20E945D
:103080006A250E9435180C94361881E008950C9436
:103090004518089508950E9449180C944A180E94F2
:1030A000F2240E94B5080E94AE120E941D100E94D8
:1030B00011120C9439188F929F92AF92BF92CF92B7
:1030C000DF92EF92FF920F931F93CF93DF93CDB7D1
:1030D000DEB72A970FB6F894DEBF0FBECDBF0E94B1
:1030E000030981110E9407185CE6852E52E0952E97
:1030F00010E000E0A02E802F0E948C086C01F401EB
:10310000E190F1904F01E816F90609F461C0809151
:103110001A0381FD0E949508C7018C259D25B12CBD
:10312000EE24E394F12C9C012E213F21232B09F462
:1031300049C00E9447188823A9F0BE82AF82CE20E2
:10314000DF2081E0CD2809F480E088870E94FB24FD
:103150008160782F9A8789874E815F8168858A850B
:103160000E941219000F111FF801E459FD4F8081D0
:103170009181E826F926F182E0820E9458100E948F
:10318000221281110E941A180E94B51790916B02A9
:103190008917A9F10E94B51780936B022A960FB682
:1031A000F894DEBF0FBECDBFDF91CF911F910F917D
:1031B000FF90EF90DF90CF90BF90AF909F908F9057
:1031C0000C945006B394EE0CFF1CFFE0BF12ABCF83
:1031D0000F5F1F4F0530110509F08CCF8FEF8983EA
:1031E0008A831B820E94FB248160782F9D838C83BD
:1031F00049815A816B818D810E941219BECF2A9616
:103200000FB6F894DEBF0FBECDBFDF91CF911F91F7
:103210000F91FF90EF90DF90CF90BF90AF909F9075
:103220008F900895DF92EF92FF920F931F93CF93A9
:10323000DF93CDB7DEB72B970FB6F894DEBF0FBE86
:10324000CDBF7A878B87F42E052F162FE72ED82E29
:1032500061110E946B221E821D827E2DEC82DD8216
:103260004F2D502F612F8D2D9E812B960FB6F894E8
:10327000DEBF0FBECDBFDF91CF911F910F91FF90A9
:10328000EF90DF900C94211FFC01808191810C94C0
:10329000D721CF93C82F882309F483C08238C1F483
:1032A0000E94B51781FD7DC089E30E9405220E941E
:1032B0009B222FEF81EE94E0215080409040E1F777
:1032C00000C0000089E30E940C22CF910C949B2245
:1032D0008338A1F40E94B51780FD63C083E50E9486
:1032E00005220E949B222FEF81EE94E02150804026
:1032F0009040E1F700C0000083E5E5CF8438A1F4F9
:103300000E94B51782FD4DC087E40E9405220E94ED
:103310009B222FEF81EE94E0215080409040E1F716
:1033200000C0000087E4CFCF8CEF8C0F813A90F47F
:103330006C2F80911701909118010E94D02388234F
:1033400029F08C2F0E940C220E949B228C2F0E941D
:103350000522BBCF80E28C0F883048F4C77081E033
:1033600001C0880FCA95EAF70E944E22AECFEBE566
:10337000EC0FE33040F4F0E0EE52FE4F808190E03D
:10338000CF910C94DB17C85AC73158F4EC2FF0E0FA
:10339000EE0FFF1FEC55FE4F80819181CF910C9471
:1033A000F117CF910895882309F44BC0823871F446
:1033B0000E94B51781FF45C089E30E9405220E9443
:1033C0009B2289E30E940C220C949B22833859F49F
:1033D0000E94B51780FF35C083E50E9405220E9438
:1033E0009B2283E5EFCF843859F40E94B51782FF02
:1033F00028C087E40E9405220E949B2287E4E2CF36
:103400009CEF980F913AF0F290E2980F983050F4B8
:10341000877091E001C0990F8A95EAF7892F0E9481
:103420005422D2CF9BE5980F933020F490E080E0B7
:103430000C94DB17885A873120F490E080E00C94DC
:10344000F11708951F93CF93DF93182FEB010E947C
:103450004919209731F4812FDF91CF911F910C945E
:10346000D3198FE99FE00197F1F700C00000219781
:10347000F0CF70E060E0893311F460E570E00C9407
:10348000221A882321F00E944E220C949B22089538
:10349000882321F00E9454220C949B220895BF920D
:1034A000CF92DF92EF92FF920F931F93CF93DF9310
:1034B0006C01D62FC72FFC011281058102950F7078
:1034C0000E942322E82E8823A1F0E12E112389F007
:1034D0008C2F807F803429F080E28D0FE12C8830A2
:1034E00040F082E00E94EC220E94232291E0E82E2C
:1034F000E926BC2EB2949FE0B922EB2DF0E0EB5B05
:10350000F14D0C94222D0C2F0F70C07F11F00295FD
:10351000007F1123A9F0002359F080E28D0F88303D
:1035200010F0D11109C0802F0E944E220E949B22D0
:103530008D2F0E94491914C0802F0E945E22F6CF61
:103540008D2F0E94D319002359F080E28D0F88300F
:1035500010F0D1112CC0802F0E9454220E949B2277
:103560002B2D2850330B2430310520F40E94B51741
:103570000E945006EE2009F493C10E941F2280FD94
:103580008FC1F60112820E9419220E94A520C60155
:103590000E94711C0E941922DF91CF911F910F91FF
:1035A000FF90EF90DF90CF90BF900C94C620802FBB
:1035B0000E946422D3CFFC2FFF70FF2EC07FC03249
:1035C00019F0F29480EFF822DD2369F0D13049F14F
:1035D000112391F1002351F1F601858180FFA8CFDD
:1035E0008F70858323C0112381F0011106C00E94D2
:1035F0007E228F290E94411AB3CF0130C1F70E9469
:103600007E228F290E948422ABCF011106C00E9426
:1036100091228F2D0E94481AA3CF013009F4A0CF28
:10362000F6CF112329F0063008F09ACF8F2DE2CF84
:10363000053008F095CFEDCF002359F3D93349F485
:10364000FFEF27EE33E0F15020403040E1F700C0BB
:1036500000008D2F0E94D31983CF8C2F86958695DD
:10366000837069F0813009F07BCF8D2F9C2F937090
:10367000111102C090E080E00E94F11771CF8D2FF0
:103680009C2F9370111102C090E080E00E94DB1724
:1036900067CF8C2F837009F041C0111161CF4D2F7E
:1036A000429546954770440F440F0D2F0F7010E060
:1036B00030E020E0042E04C0000F111F221F331F32
:1036C0000A94D2F760E070E0CB01D4FF0FC06FE046
:1036D00070E080E090E004C0660F771F881F991F9C
:1036E0004A95D2F76095709580959095C695C69548
:1036F000C370602B712B822B932BC23049F058F48E
:10370000C13019F00E9457202BCF0E94452028CFAE
:103710000E94692025CF0E94432022CF8695112345
:1037200011F08C2F8170882309F41ACF4D2F429508
:1037300046954770440F440F0D2F0F7010E030E096
:1037400020E0042E04C0000F111F221F331F0A9413
:10375000D2F760E070E0CB01D4FF0FC06FE070E003
:1037600080E090E004C0660F771F881F991F4A957C
:10377000D2F76095709580959095C695C695C37063
:10378000602B712B822B932BC23049F058F4C1303F
:1037900019F00E941C21E4CE0E940A21E1CE0E9471
:1037A0002E21DECE0E947F20DBCECF70112329F0A8
:1037B0008C2F0E94A5208D2F1DCF8D2F0E94481A7F
:1037C0008C2F0E94C620CCCED23F89F160F4D03F2E
:1037D000C9F0D13F29F1112309F442C00111A8CE4B
:1037E0008C2F8F7121C0D33F39F1D43FA1F7112322
:1037F00069F1CF718C2F0E94A52063E08C2F0E946D
:10380000D122AECE112341F0053008F0A9CE8C2F85
:103810008F710E94E920A4CE063008F0A1CEF7CF28
:103820008C2F8F71112369F20E94A52099CE8C2FC5
:103830008F711123C9F3C5CF112329F08C2F8F71FC
:103840000E9490208DCE0E948B208ACE81E00E9423
:10385000EC22023008F484CE82E00E94EC2280CE7A
:10386000002359F0D93309F0F4CE8FEF97EEE3E05F
:1038700081509040E040E1F7EACE8C2F8F71A1CFCC
:103880004C2F4F706D2FC6010E94E2030E94BB1F98
:1038900067CE4C2F4F706D2FC6010E94580660CE28
:1038A000DF91CF911F910F91FF90EF90DF90CF901C
:1038B000BF9008950F931F93CF93DF93EC0168811E
:1038C00079818A810E94E1218C010E9440210E941D
:1038D0004220B801CE01DF91CF911F910F910C943E
:1038E0004F1ACF93DF93EC018B819C81892B29F0B8
:1038F0008881998189238F3F59F4DF91CF91089571
:10390000CE010E945A1CCE01DF91CF910C94450448
:10391000CE010E94CC048111F3CF0E942322882380
:1039200061F38A81882349F382E0DF91CF910C947F
:10393000EC2290E080E00E94DB1790E080E00E94A3
:10394000F1170E946B220E947B220C949B220E9402
:1039500013220C94991C0E945B220C94A71CE92F43
:10396000E295EF70E250EE3070F4F0E0EB5AF14D7A
:103970000C94222D803F19F020F4883E20F481E041
:103980000895843FE1F380E00895883EC0F3813FCD
:10399000D1F7F5CF93FB882780F908950E94D721AE
:1039A0000C94AF1CCF93DF9300D000D00F92CDB713
:1039B000DEB70F900F900F900F900F90DF91CF9187
:1039C0000895CF93DF9300D000D000D0CDB7DEB7FD
:1039D00026960FB6F894DEBF0FBECDBFDF91CF9114
:1039E00008951F93CF93DF93C091830216E08091D7
:1039F00084028C1304C0DF91CF911F910895D0E011
:103A00001C9FF0011D9FF00D1124EB57FD4F4081CD
:103A1000518162817381848195810E94E11C21968C
:103A2000C770E5CF4091B5025091B6026091B702E0
:103A30007091B8028091B9029091BA020C94E11C85
:103A40001F93CF93DF938091BA02807FA9F4809176
:103A5000B702882389F080918302C091840260912B
:103A6000B5027091B602A091B802B091B902D62FFA
:103A7000D72316E0C81304C0DF91CF911F9108959A
:103A800090E0109711F0DF3F19F401968770F2CFA4
:103A9000189F9001199F300D1124F901EB57FD4F2C
:103AA00041814713F2CF40814613EFCF428141114C
:103AB000ECCF438154814A1B5B0B483C510528F7EE
:103AC0008091BA028F7080618093BA02F901E65743
:103AD000FD4F80818F708061808385EB92E00E9432
:103AE000711CDF91CF911F910C94F11CAF92BF928A
:103AF000CF92DF92EF92FF920F931F93CF93DF93BA
:103B0000CDB7DEB761970FB6F894DEBF0FBECDBF5D
:103B10008C0185E0F801DE011D9601900D928A95D9
:103B2000E1F7F80140815181E28085EBC82E82E007
:103B3000D82E6091B8027091B9026115710509F42F
:103B400061C19091B5022091B602892F82238F3FE7
:103B500009F458C1A380B480F090B702F501E61BC8
:103B6000F70BFF2009F4FCC08091BA02382F307F98
:103B7000E83CF10508F0B2C0311179C0FE2C2513E4
:103B800023C0941321C0E1101FC08F708061809307
:103B9000BA020E94121DC6010E94711C8091BA02D5
:103BA000F80185838F2D61960FB6F894DEBF0FBEA6
:103BB000CDBFDF91CF911F910F91FF90EF90DF90DC
:103BC000CF90BF90AF900895AB2829F0842F852324
:103BD0008F3F09F033C180E0F82FF170DF2E80FFB6
:103BE0003CC0809183022091840236E0821315C08C
:103BF0004D875E878D859E850E94D721292F22952E
:103C00002F702230F0F0243018F59F70F1F0F80199
:103C10009581907FD1F4D12C1EC090E0389FF001A7
:103C2000399FF00D1124EB57FD4F6181651306C0DC
:103C30006081641303C062816E110FC001968770AA
:103C4000D5CF9F7011F0882331F3805E883018F350
:103C5000C8010E94711CFD2CA5CFEE2009F4A2CF53
:103C60008091BA0281608093BA02F12C9BCF251318
:103C700006C0941304C0F801EE2009F48DC04D87EE
:103C80005E878D859E850E94CE1C882319F1EE20CB
:103C900009F18091BA02803270F02091B502309122
:103CA000B60238872F831986BB86AA868C87CE01F9
:103CB00007960E94711C86E0F801A5EBB2E0019026
:103CC0000D928A95E1F70E94201D0E94121DFF248B
:103CD000F39468CFC8010E94711CF9CF311113C051
:103CE0007A2DB98AA88A6E2D89890E94D21C85EB0B
:103CF00092E00E94711C86E0F60111928A95E9F724
:103D00000E94121DB2CF25130FC094130DC0E110F5
:103D10000BC0F8018583C8010E94711C86E0F60182
:103D200011928A95E9F73ECF4D875E878D859E85F6
:103D30000E94CE1C882371F2EE2061F28091BA02BB
:103D4000803208F4B8CF2091B5023091B6023A83A0
:103D500029831B82BD82AC828E83CE010196A9CFBE
:103D6000E83CF10508F041C0FE2CEE2009F4B2CF8A
:103D700025132AC0941328C08091BA0280FD1BC06D
:103D8000982F907FC1F0F8018583903F31F0982FF4
:103D9000907F905F8F70892B8583C8010E94711C72
:103DA00086E0F801A5EBB2E001900D928A95E1F76B
:103DB0000E94121DF7CE86E0F801A5EBB2E001905B
:103DC0000D928A95E1F7EECE4D875E878D859E85B3
:103DD0000E94CE1C81116FCF8091BA0281608093C6
:103DE000BA02C8010E94711CDDCE7A2DB98AA88A58
:103DF0006E2D89890E94D21C86E0F60111928A9567
:103E0000E9F7D6CFEE2009F465CF4D875E878D8523
:103E10009E850E94CE1CF82E882309F45BCF86E095
:103E2000F801A5EBB2E001900D928A95E1F785EBE0
:103E300092E00E9444190E94201DBACF81E08E2595
:103E4000CBCE1F93CF93DF93CDB7DEB72C970FB6B2
:103E5000F894DEBF0FBECDBF4F83588769877A873E
:103E60008B879C87CE0107960E94761D882369F078
:103E70008A859B85892B39F04F815885842F85232E
:103E80008F3F09F071C016E05FC086E0FE013796F3
:103E9000DE01119601900D928A95E1F78A859B8546
:103EA000892B89F38F81988589238F3F61F3209136
:103EB000840230E0C90101968770992740918302FE
:103EC0004817190671F40E94AB1C109284021092DC
:103ED000830286E0E5EBF2E0DF011D928A95E9F7C7
:103EE000D2CF96E0929FD001939FB00D1124AB5793
:103EF000BD4FFE01319601900D929A95E1F78093A6
:103F000084020E94F11CBFCF819FC00111248B57F6
:103F10009D4F0E94761D8823E9F0E09183021E9F49
:103F2000F0011124EB57FD4F408151816281738173
:103F3000848195810E94E11C8091830290E001962A
:103F400087709927809383028091830290918402E5
:103F50008913DACF2C960FB6F894DEBF0FBECDBF13
:103F6000DF91CF911F91089569857A858B859C8516
:103F70000E94E11C88CFEF92FF920F931F93CF9383
:103F8000DF938C01892B81F0F12CEE24E394E8017E
:103F90002196F8018491843770F4843008F05FC072
:103FA0008130B1F08230A1F1DF91CF911F910F915B
:103FB000FF90EF900895853709F44CC008F43DC098
:103FC0009CE7980F903780F78F770E94D31949C0EC
:103FD0000E5F1F4FFE01849190E2980F983060F4BD
:103FE0008770FE2D01C0FF0F8A95EAF78F2F0E9480
:103FF0006E220E949B2202C00E9449198F2D81507F
:1040000030F2EFE9FFE03197F1F700C00000F7CFA1
:104010000E5F1F4FFE01849190E2980F983050F48C
:104020008770FE2D01C0FF0F8A95EAF78F2F0E943F
:104030007422DFCF0E94D319E1CF0E5F1F4FFE0124
:10404000C491C150D8F28FE99FE00197F1F700C009
:104050000000F7CF0E5F1F4FFE01F490CFCF0E94FC
:1040600049198E01CBCF08950C9433200E9434203F
:104070006093F1027093F2028093F3029093F40242
:104080000C94991C08950C9436200F931F93009163
:10409000F1021091F2022091F3023091F402602BB0
:1040A000712B822B932B1F910F910C9436200F9321
:1040B0001F930091F1021091F2022091F3023091CE
:1040C000F40260237123822393231F910F910C9498
:1040D00036200F931F930091F1021091F20220916C
:1040E000F3023091F40260277127822793271F91F2
:1040F0000F910C9436200C9433200C947B200E945A
:104100007D206093ED027093EE028093EF02909316
:10411000F0020C94991C60E070E0CB010C947F20BD
:104120000F931F9341E050E060E070E08A019B0133
:1041300004C0000F111F221F331F8A95D2F7C90137
:10414000B8011F910F910C947F200F931F9341E0B2
:1041500050E060E070E004C0440F551F661F771FF9
:104160008A95D2F78091ED029091EE02A091EF0234
:10417000B091F0028A019B01082B192B2A2B3B2BB3
:10418000C901B8011F910F910C947F200F931F93C9
:1041900041E050E060E070E004C0440F551F661F2E
:1041A000771F8A95D2F7CB01BA01609570958095FB
:1041B00090950091ED021091EE022091EF02309166
:1041C000F00260237123822393231F910F910C949B
:1041D0007F200F931F9341E050E060E070E004C047
:1041E000440F551F661F771F8A95D2F78091ED0205
:1041F0009091EE02A091EF02B091F0028A019B0132
:10420000082719272A273B27C901B8011F910F91B9
:104210000C947F200F931F930091ED021091EE02FA
:104220002091EF023091F002602B712B822B932BA7
:104230001F910F910C947F200F931F930091ED021B
:104240001091EE022091EF023091F0026023712371
:10425000822393231F910F910C947F200F931F9320
:104260000091ED021091EE022091EF023091F002E8
:1042700060277127822793271F910F910C947F202D
:1042800008952FE0929F800D1124982F977041E0A0
:1042900001C0440F9A95EAF786958695869595E034
:1042A000899FF0011124E554FD4F90E080E070E01B
:1042B0005191DF0111979B01082E02C03695279579
:1042C0000A94E2F7217021952527242325272C9392
:1042D00001968530910561F708952FE0929F800D3A
:1042E0001124982F977086958695869525E0829F54
:1042F000F0011124E554FD4F50E040E080E02191B1
:1043000030E0092E02C0369527950A94E2F7217015
:104310003327042E01C0220F0A94EAF7822B4F5F45
:104320005F4F4530510559F70895BF92CF92DF9204
:10433000EF92FF920F931F93CF93DF938C01C09066
:10434000ED02D090EE02E090EF02F090F00280914A
:10435000F1029091F202A091F302B091F402C82A06
:10436000D92AEA2AFB2ACFE1D0E0BC2ED701C60128
:104370000C2E04C0B695A795979587950A94D2F709
:1043800080FD0EC0219788F7B12C8B2DDF91CF9146
:104390001F910F91FF90EF90DF90CF90BF90089505
:1043A000B8018C2F0E946106019761F3EECFCF9385
:1043B000DF93EC010E949521BE01DF91CF910C9417
:1043C00061061F93CF93DF93EB01909182029923B3
:1043D00031F0CB01DF91CF911F910C94D72188232D
:1043E00079F0CB010E949521182F682FCE010E94F1
:1043F0004121BE01812FDF91CF911F910C94610665
:10440000CB010E946D21182FF4CF682F80911701E6
:10441000909118010C945024682F8091170190916D
:1044200018010C945B2480911701909118010C9451
:1044300066248091F50285958595859508958091EE
:10444000F502877008959091F502977081E009F464
:1044500080E0089590913F0392FB222720F92817CE
:1044600051F080FB92F990933F0380913E0390912D
:104470003F030C943123089580913F0382FB8827EA
:1044800080F991E089270C942A2281E00C942A2259
:1044900080E00C942A2280911903089590911903C9
:1044A000892B80931903089580959091190398237F
:1044B0009093190308951092190308959091180389
:1044C000892B809318030895809590911803982361
:1044D000909318030895109218030895909117036C
:1044E000892B809317030895809590911703982343
:1044F0009093170308951092170308958091F60280
:10450000089508950C94812290913F0392FD08C074
:104510009091F602981721F08093F6020C94822273
:1045200008958091F602882329F01092F60280E027
:104530000C9482220895E0911701F0911801809166
:1045400019038083E0911701F09118018081909107
:104550001803892B8083E0911701F0911801808165
:1045600090911703892B80839091F602992381F013
:10457000E0911701F09118018081892B808380914F
:104580001701909118010E94BC2381110E94912271
:1045900080911701909118010C94C11708950C9403
:1045A000CE2290913F0392FD10C098E0899F900128
:1045B0001124622B6093F5020E94A5208091F502E0
:1045C0008595859585950C94CF220C94A520109205
:1045D000F50280E00C94CF229091F502809589231A
:1045E0008093F502282F277039F4282F082E000C0D
:1045F000330B9217130621F490913F0392FF07C0EB
:104600008595859585950E94C6200C94E72208958E
:1046100080E008956FEF7FEF90E080E00C94FB2D39
:1046200090E080E00E94D72D21E08A3E9E4F09F065
:1046300020E0822F089582E090E00C94C92D83E061
:1046400090E00C94C92DCF9384E090E00E94C92D96
:10465000C82F82E290E00E94C92D982F8C2FCF9115
:104660000895CF93C92F682F84E090E00E94DD2D3C
:104670006C2F82E290E0CF910C94DD2DAB01BC0158
:104680008FE090E00C94EF2DAB01BC0183E190E052
:104690000C94EF2D60E070E0CB010C94442360E0BB
:1046A00070E0CB010E943E230C944A236AEE7EEF19
:1046B00090E080E00E94FB2D60E082E090E00E94AC
:1046C000DD2D60E083E090E00E94DD2D1092F1028C
:1046D0001092F2021092F3021092F40260E084E071
:1046E00090E00E94DD2D60E082E290E00E94DD2DEE
:1046F00060E085E090E00E94DD2D60E086E090E0E3
:104700000E94DD2D6FEF87E090E00E94DD2D40E0FC
:1047100050E0BA0188E090E00E94EF2D60E08DE06B
:1047200090E00E94DD2D40E050E0BA0188E190E089
:104730000E94EF2D60E087E190E00E94DD2D40E0D7
:1047400050E0BA018CE190E00E94EF2D70E060E053
:1047500080E290E00E94FB2D40E050E0BA0188E149
:1047600090E00E94EF2D0C944F230C945623682F59
:104770008EE090E00C94DD2DFC01329680912301B7
:10478000882321F080913E039EE187FF96E080E040
:10479000915008F4089521912223D1F38F5FF8CF2F
:1047A000662301F1209123012223F1F020913E03A1
:1047B00027FF1AC0462F4695469546954E3190F4F0
:1047C000677021E030E002C0220F331F6A95E2F7E4
:1047D000840F911DFC01828190E02823392381E020
:1047E000232B69F480E00895FC013296089621910C
:1047F000261721F0E817F907D1F7F4CF81E00895E3
:104800009C01FC0132969FEF80E04191461751F0E8
:104810009F3F19F4411101C0982F8F5F8630A9F78F
:104820009F3F09F40895290F311D97FD3A95F9012D
:1048300062830895FC01329608962191261303C0E5
:10484000DF0111971C92E817F907B9F70895E62FD1
:10485000E695E695E695EE3168F4E80FF92FF11D3F
:10486000677021E030E001C0220F6A95EAF782818B
:10487000822B82830895E62FE695E695E695EE3144
:1048800070F4E80FF92FF11D677021E030E001C0EE
:10489000220F6A95EAF720958281282322830895C2
:1048A00020912301222329F020913E0327FD0C941F
:1048B00027240C94002420912301222329F0209105
:1048C0003E0327FD0C943B240C941A24FC013296E1
:1048D00080912301882351F080913E0387FF06C019
:1048E0008EE1DF011D928A95E9F7089586E0F9CF00
:1048F000089508950C9479248091A003843049F19F
:104900000E947A2480E00E94500610921B0388E1E6
:1049100090E020E40FB6F894A895809360000FBE55
:104920002093600083B7817F846083BF83B78160F9
:1049300083BF7894889583B78E7F83BF0FB6F89432
:10494000A89580916000886180936000109260005B
:104950000FBE08950895CF930E9478240E94030902
:104960000E94AA24C0E08C2F0E948C08892B31F46D
:10497000CF5FC530C1F780E0CF91089581E0FCCFD3
:1049800008950C94C0240E94AB1C0E94B5170E948D
:1049900050060C94C1241F921FB61F9211248F93AE
:1049A0009F93AF93BF9380911B03811113C080919C
:1049B000980390919903A0919A03B0919B0341961B
:1049C000A11DB11D8093980390939903A0939A031E
:1049D000B0939B03BF91AF919F918F911F901FBE8A
:1049E0001F90189582E084BD93E095BD9AEF97BD26
:1049F00080936E0008952FB7F8948091980390915A
:104A00009903A0919A03B0919B032FBF08952FB7EC
:104A1000F894609198037091990380919A03909112
:104A20009B032FBF08959C014FB7F8948091980382
:104A300090919903A0919A03B0919B034FBF821B61
:104A4000930B089578941F921FB61F9211248F9391
:104A50009F93AF93BF938091980390919903A091F6
:104A60009A03B0919B030196A11DB11D80939803F9
:104A700090939903A0939A03B0939B03BF91AF9136
:104A80009F918F911F901FBE1F90189581E080937A
:104A9000E00080E28093D8001092C9008FE19EE48C
:104AA0000197F1F700C0000087E090EBDC018093F4
:104AB000A9039093AA03A093AB03B093AC0388E13E
:104AC0009CE00FB6F894A895809360000FBE909379
:104AD0006000FFCF9093E5018093E40108958091F9
:104AE0003C0308950895CF93DF9300D00F92CDB784
:104AF000DEB79091A003943011F589837B836A839C
:104B00009093E9008FEF9091E800815095FD06C0E9
:104B100095ED9A95F1F700008111F5CF8091E800AD
:104B200085FF0DC050E040E063E070E0CE010196EB
:104B30000E94DE278091E8008E778093E8000F9036
:104B40000F900F90DF91CF910895BC0184E00C94F9
:104B50007325BC0183E00C947325CF93DF93EC01A4
:104B6000809123018823B1F180913E0387FF32C0F9
:104B700060E284E08093E9008FEF9091E80081503B
:104B800095FD06C095ED9A95F1F700008111F5CFDE
:104B90008091E80085FF1BC08091230170E050E008
:104BA00040E0811104C050E040E068E070E0CE01D8
:104BB0000E94DE278091E8008E778093E80080E2F3
:104BC000FE01ACE1B3E001900D928A95E1F7DF912F
:104BD000CF91089568E081E0CDCFCF93FC016032A2
:104BE00021F58091A003843001F5C091E900CF70D8
:104BF0002091EC00922F917020FD90E8C92B82E06B
:104C00008093E9008091E80080FF0CC050E040E014
:104C100060E270E0CF010E94DE278091E8008E778D
:104C20008093E800CF70C093E900CF910895809100
:104C30009F03811109C00E94BD290E941A2A8091F8
:104C4000E20084608093E200089510929F0308952B
:104C500008950895089542E061EC81E00E943929A9
:104C600042E261EC84E00E94392942E261EC82E098
:104C70000E94392942E260EC83E00C94392980914A
:104C8000A203833009F461C030F48130D1F1823065
:104C900009F49DC008958A3009F489C08B3009F465
:104CA0006FC0893009F050C08091A103813209F0B2
:104CB0004BC08091A5039091A603009719F002972D
:104CC00009F042C08091E800877F8093E8008091DE
:104CD000E80082FF35C09091F3008091F2000297C6
:104CE00029F48091F1008B7F813021F48091F100D3
:104CF00080933C038091E8008B778093E8000C94CC
:104D00006D298091A103813AF9F48091E800877FB1
:104D10008093E8008091A5039091A603892B61F40C
:104D200060E28CE193E070E00E947C288091E800D2
:104D30008B778093E800089560E090E080E0F3CF07
:104D40008091A0038111C3CF08958091A103813A7E
:104D5000D9F78091A5039091A603892BA9F780919B
:104D6000E800877F8093E8008091E80080FFFCCF17
:104D7000809123018093F1008091E8008E77BDCF70
:104D80008091A103813201F78091A5039091A60340
:104D9000892BD1F68091E800877F8093E8000E94FC
:104DA0006D298091A303809323010C94AB1C809107
:104DB000A103813249F68091E800877F8093E80063
:104DC0000E946D298091A40380933D0308958091F2
:104DD000A103813A09F0B8CF8091E800877F8093E2
:104DE000E8008091E80080FFFCCF80913D03C2CFB6
:104DF000CDB7DEB7A0970FB6F894DEBF0FBECDBF1C
:104E000084B7877F84BF0FB6F894A895809160001F
:104E1000886180936000109260000FBE80E890E08F
:104E20000FB6F89480936100909361000FBE0E94CA
:104E30003B180E94BD290E941A2A8091E2008460DA
:104E40008093E20078940E94A32C0E944F1889E17D
:104E500091E00E94B01713E08091A0038530B9F073
:104E60000E945B188091A0038430C1F00E944B180F
:104E7000F3CF0E947C2480919E03882341F00E94FE
:104E8000AB24882321F00E94C8270E94AB1C80918C
:104E9000A003853071F30E94C324E2CF1093E90090
:104EA0008091E80082FFE2CF8091E80090E085FFEA
:104EB00009C050E040E060E270E0CE0101960E943F
:104EC0002D2891E08091E8008B778093E80099236A
:104ED00069F260E2CE0101960E945313C7CF0C9491
:104EE0007127292F33272330310521F168F4213030
:104EF000310509F443C02230310509F444C090E083
:104F000080E030E020E026C02132310551F122322C
:104F10003105A9F76330710590F7FB01EE0FFF1F14
:104F2000E852FE4F208131816B527E4FFB01808120
:104F300090E010C099278130910581F0009729F009
:104F40000297E9F6EEECF5E002C0E2EFF5E08491BD
:104F500090E09F01FA01318320830895EAEDF5E0A6
:104F6000F6CF6330710558F6660F771FFB01E252EA
:104F7000FE4F2081318189E090E0ECCF82E190E02A
:104F800021E536E0E7CF8BE590E026EF35E0E2CF94
:104F900080E189BD82E189BD09B400FEFDCF809129
:104FA000D8008F7D8093D8008091E000826080934C
:104FB000E0008091E00081FDFCCF0895AF92BF92A8
:104FC000CF92DF92FF920F931F93CF93DF936C01E9
:104FD000EB018A010E948C29F82E811123C0011552
:104FE000110539F0F80180819181C81BD90BC80ED9
:104FF000D91EB12CA12C2097A9F08091E80085FD45
:1050000022C08091E8008E778093E8000115110599
:10501000A1F0F80180819181A80EB91EB182A08211
:1050200085E0F82E8F2DDF91CF911F910F91FF908A
:10503000DF90CF90BF90AF9008950E948C29882375
:10504000D1F2F82EEFCFF60181916F018093F1003C
:105050002197FFEFAF1ABF0ACECFAF92BF92CF9288
:10506000DF92FF920F931F93CF93DF936C01EB01BD
:105070008A010E948C29F82E811123C00115110587
:1050800039F0F80180819181C81BD90BC80ED91E57
:10509000B12CA12C2097A9F08091E80085FD22C0B9
:1050A0008091E8008B778093E80001151105A1F04D
:1050B000F80180819181A80EB91EB182A08285E09D
:1050C000F82E8F2DDF91CF911F910F91FF90DF90E0
:1050D000CF90BF90AF9008950E948C298823D1F281
:1050E000F82EEFCF8091F100F60181936F012197A7
:1050F000FFEFAF1ABF0ACECFFC018091A7039091BA
:10510000A80386179707A0F06115710529F49091FF
:10511000E8009E779093E80090E06115710551F4E6
:10512000911108C08091E80082FF34C080E00895AA
:10513000BC01F2CF8091A0038823C1F18530C1F179
:105140008091E80083FD30C08091E80082FDEACFC5
:105150008091E80080FFE1CF8091F3002091F20080
:10516000382F6115710519F02830310558F091E09C
:105170002830310509F090E02091E8002E77209347
:10518000E800CBCF81918093F100615071092F5FCE
:105190003F4FE7CF8091A003882341F0853041F055
:1051A0008091E80083FFBECF81E0089582E00895FA
:1051B00083E00895FC018091A7039091A8038617CE
:1051C0009707A0F06115710529F48091E8008E77AA
:1051D0008093E80090E06115710551F4911108C0C9
:1051E0008091E80082FF35C080E00895BC01F2CFD5
:1051F0008091A0038823C9F18530C9F18091E8002E
:1052000083FD31C08091E80082FDEACF8091E80003
:1052100080FFE1CF8091F3002091F200382F6115DB
:10522000710519F02830310558F091E0283031052A
:1052300009F090E08091E8008E778093E800CBCF72
:1052400084918093F1003196615071092F5F3F4F37
:10525000E6CF8091A003882341F0853041F0809112
:10526000E80083FFBDCF81E0089582E0089583E0E8
:105270000895982F973028F08F708093E90081E08F
:1052800008959093E900242F762F50E0981731F07D
:105290007091EC002091ED005091F00021FD02C0D2
:1052A0009F5FE8CF3091EB003E7F3093EB00309171
:1052B000ED003D7F3093ED003091EB003160309395
:1052C000EB007093EC002093ED005093F0002091E0
:1052D000EE0027FDE5CF80E008958091A10387FFD0
:1052E00013C08091E80082FF06C08091E8008B77B0
:1052F0008093E80004C08091A0038111F2CF08954B
:105300008091A0038823D9F38091E80080FFF8CF33
:105310008091E8008E77ECCF2091E4003091E50099
:1053200095E6A9012091EC00822F817020FF06C034
:105330008091E80080FF06C080E008952091E80099
:1053400022FD1AC08091A003882389F0853089F05E
:105350008091EB0085FD0FC02091E4003091E500C5
:1053600042175307F9F29150E1F684E0089582E084
:10537000089583E0089581E008950E942B2A0E94F9
:10538000332AE0EEF0E0808181608083E8EDF0E098
:1053900080818F77808319BCA7EDB0E08C918E7FE0
:1053A0008C9380818F7E808310929F0308950F934A
:1053B0001F93CF93DF930E942B2A0E94332AC8EDBC
:1053C000D0E088818F77888388818068888388810E
:1053D0008F7D888319BC1092A00310929C031092B9
:1053E0009E0310929D0300EE10E0F80180818B7FF8
:1053F000808388818160888342E060E080E00E9451
:105400003929E1EEF0E080818E7F8083E2EEF0E0EA
:10541000808181608083808188608083F8018081C1
:105420008E7F8083888180618883DF91CF911F91F7
:105430000F910895E8EDF0E080818F7E8083E7EDA5
:10544000F0E080818160808384E082BF81E080938E
:105450009F030C94D729E8EDF0E080818E7F808354
:105460001092E20008951092DA001092E10008957F
:105470001F920F920FB60F9211242F933F934F93C9
:105480005F936F937F938F939F93AF93BF93EF93AC
:10549000FF938091E10082FF0BC08091E20082FFC8
:1054A00007C08091E1008B7F8093E1000E94A22CD5
:1054B0008091DA0080FF19C08091D80080FF15C06C
:1054C0008091DA008E7F8093DA008091D90080FF8E
:1054D00096C080E189BD82E189BD09B400FEFDCF9F
:1054E00081E08093A0030E9417268091E10080FF55
:1054F00019C08091E20080FF15C08091E2008E7F8C
:105500008093E2008091E20080618093E2008091CC
:10551000D80080628093D80019BC85E08093A003F6
:105520000E9429268091E10084FF2BC08091E20037
:1055300084FF27C080E189BD82E189BD89B5982FAC
:10554000917080FFFBCF8091D8008F7D8093D80031
:105550008091E1008F7E8093E1008091E2008F7E58
:105560008093E2008091E20081608093E20080916C
:105570009C03882309F449C084E08093A0030E941F
:105580002A268091E10083FF29C08091E20083FFF9
:1055900025C08091E100877F8093E10082E08093C5
:1055A000A00310929C038091E1008E7F8093E10024
:1055B0008091E2008E7F8093E2008091E200806122
:1055C0008093E20042E060E080E00E94392980910F
:1055D000F00088608093F0000E942826FF91EF91F0
:1055E000BF91AF919F918F917F916F915F914F91FB
:1055F0003F912F910F900FBE0F901F90189519BCDF
:105600001092A0030E94252670CF8091E30087FDB1
:1056100093E09093A003B3CF1F920F920FB60F9217
:1056200011242F933F934F935F936F937F938F93A7
:105630009F93AF93BF93CF93DF93EF93FF93D0915B
:10564000E900DF708091EC00C82FC17080FDC0E8D8
:105650001092E9008091F000877F8093F0007894A9
:105660000E94502B1092E9008091F0008860809396
:10567000F000CD2BCF70C093E900FF91EF91DF9147
:10568000CF91BF91AF919F918F917F916F915F91DA
:105690004F913F912F910F900FBE0F901F90189533
:1056A0001F93CF93DF93CDB7DEB7AA970FB6F894C9
:1056B000DEBF0FBECDBF81EA93E02091F100FC0177
:1056C0002193CF01F3E0893A9F07B9F70E943F2663
:1056D0008091E80083FF1EC18091A1039091A203F5
:1056E0009A3008F017C1E92FF0E0ED59F14D0C9414
:1056F000222D803899F0823809F00CC18091A503E1
:105700008F70873008F006C18093E9008091EB002C
:1057100085FB882780F91092E90006C080919D03DF
:1057200090919E03911182609091E800977F9093F1
:10573000E8008093F1001092F1008091E8008E77EC
:10574000E5C0882309F4D3C0823009F0E3C080911A
:10575000A3038111D6C08091A5038F702FEF280F6E
:10576000263008F0D7C08093E9002091EB0020FF9D
:10577000C8C0933031F48091EB0080628093EB00DD
:10578000C0C09091EB0090619093EB0021E030E07D
:1057900001C0220F8A95EAF72093EA001092EA00EE
:1057A0008091EB008860EACF8111B4C01091A3030F
:1057B0001F778091E3008078812B8093E3008091B4
:1057C000E800877F8093E8000E946D298091E800BF
:1057D00080FFFCCF8091E30080688093E30082E04B
:1057E000111183E08093A00395C08058823008F0A7
:1057F00091C08091A3039091A4038C3D23E0920774
:10580000A1F583E08A838AE289834FB7F894DE01A9
:10581000139620E03EE051E2E32FF0E05093570072
:10582000E49120FF03C0E295EF703F5FEF708E2F91
:1058300090E0EA30C0F0C7968D939D932F5F24319E
:1058400059F74FBF8091E800877F8093E8006AE2B4
:1058500070E0CE0101960E947C288091E8008B7751
:105860008093E80057C0C096E7CF6091A503709180
:10587000A603AE014F5F5F4F0E946F27BC01892BCB
:1058800009F448C09091E800977F9093E8008981DF
:105890009A810E94DA28E1CF8038E1F58091E80012
:1058A000877F8093E80080919C038093F10045CF2F
:1058B000811130C09091A303923060F58091E8008F
:1058C000877F8093E80090939C030E946D298091CC
:1058D0009C03882311F084E005C08091E30087FDDC
:1058E000FACF81E08093A0030E942B2613C0809101
:1058F000A303813079F481E0933009F080E0809354
:105900009E031092E9008091E800877F8093E80071
:105910000E946D298091E80083FF0AC08091E80011
:10592000877F8093E8008091EB0080628093EB009A
:10593000AA960FB6F894DEBF0FBECDBFDF91CF9110
:105940001F9108950895CF938091A0038823A1F01B
:10595000C091E900CF709091EC00892F817090FD8B
:1059600080E8C82B1092E9008091E80083FD0E9436
:10597000502BCF70C093E900CF910895991B79E027
:1059800004C0991F961708F0961B881F7A95C9F7CF
:105990008095089587FB082E062687FD819567FD73
:1059A00061950E94BE2C0EF4919507FC8195089597
:1059B000AA1BBB1B51E107C0AA1FBB1FA617B70735
:1059C00010F0A61BB70B881F991F5A95A9F7809551
:1059D0009095BC01CD01089597FB072E16F4009415
:1059E00007D077FD09D00E94D82C07FC05D03EF4E3
:1059F000909581959F4F0895709561957F4F08957B
:105A0000A1E21A2EAA1BBB1BFD010DC0AA1FBB1FC2
:105A1000EE1FFF1FA217B307E407F50720F0A21B34
:105A2000B30BE40BF50B661F771F881F991F1A94A1
:105A300069F760957095809590959B01AC01BD01CB
:105A4000CF010895EE0FFF1F0590F491E02D09940A
:105A500069279627692778278727782708950E943E
:105A6000372D332312F48A1B9B0B0C94482DA29FD5
:105A7000B001B39FC001A39F700D811D1124911D22
:105A8000B29F700D811D1124911D08950E94372D24
:105A9000B7FF0895821B930B08950E94372DA59F91
:105AA000900DB49F900DA49F800D911D1124089519
:105AB000B7FF0C944D2D0E944D2D821B930B089522
:105AC0008F929F92AF92BF92CF92DF92EF92FF920E
:105AD000CF93DF93EC01688179818A819B81611585
