:100000000C94A7030C94EE030C94EE030C94EE03F3
:100010000C94EE030C94EE030C94EE030C94EE039C
:100020000C94EE030C94EE030C94FC230C94B82374
:100030000C947A2E0C94EE030C94EE030C94EE03C5
:100040000C94EE030C94EE030C94EE030C94EE036C
:100050000C94EE030C94562E0C94EE030C94EE03C9
:100060000C94EE030C94EE030C94EE030C94EE034C
:100070000C94EE030C94EE030C94EE030C94EE033C
:100080000C94EE030C94EE030C94EE030C94EE032C
:100090000C94EE030C94EE030C94EE030C94EE031C
:1000A0000C94EE030C94EE030C94EE03050109028C
:1000B000A10185020901A1000509190129081500FE
:1000C0002501950875018102050109300931158165
:1000D000257F95027508810609381581257F9501D0
:1000E00075088106050C0A38021581257F95017572
:1000F000088106C0C005010980A101850319012AF4
:10010000B700150126B700950175108100C0050CD8
:100110000901A101850419012AA002150126A002E6
:10012000950175108100C005010906A1018505052D
:100130000719E029E71500250195087501810205D9
:1001400007190029EF1500250195F07501810205B9
:10015000081901290595057501910295017503910D
:1001600001C00660FF0961A1010962150026FF00B8
:100170009520750881020963150026FF00952075FA
:10018000089102C005010906A101050719E029E748
:1001900015002501950875018102950175088101F9
:1001A0000507190029FF150026FF0095067508812F
:1001B000000508190129059505750191029501753C
:1001C000039101C0000101010101010101010202CD
:1001D00002020202020202030303030303030304F5
:1001E00004040404040405050505050606060606C0
:1001F000070707070708080808090909090A0A0A7A
:100200000B0B0B0C0C0C0D0D0D0E0E0E0F0F0F101B
:1002100010111111121213131414151516161717A5
:10022000181819191A1A1B1B1C1D1D1E1E1F202011
:10023000212222232424252626272829292A2B2C5B
:100240002D2D2E2F30313232333435363738393A7E
:100250003B3C3D3E3F404142434445464748494A76
:100260004C4D4E4F50515354555658595A5B5D5E44
:100270005F616264656668696B6C6D6F70727375DF
:1002800077787A7B7D7E8082838587888A8C8E8F43
:1002900091939596989A9C9EA0A2A3A5A7A9ABAD71
:1002A000AFB1B3B5B7BABCBEC0C2C4C6C9CBCDCF5F
:1002B000D1D4D6D8DBDDDFE2E4E7E9EBEEF0F3F50D
:1002C000F8FAFDFF290000003A003B003C003D0029
:1002D0003E003F0040004100420043004400450012
:1002E000C25C35001E001F002000210022002300F8
:1002F00024002500260027002D002E002A004C0097
:100300002B0014001A000800150017001C0018002C
:100310000C00120013002F00300031004B00390098
:1003200004001600070009000A000B000D000E0073
:100330000F0033003400000028004E00E1000000F0
:100340001D001B00060019000500110010003600FA
:1003500037003800E50052004D00E000E300E20005
:10036000A900AA0000002C00000000000000E60028
:100370000151500051004F0000000000000000003B
:10038000000000000000000000000000000000006D
:100390000000000000000100000001000100010059
:1003A00001000100010001000100010001007200D4
:1003B00073000100010001000100010001000100C3
:1003C0000100010001000100010001000100010025
:1003D000C55CC25C010001000100010001000100D8
:1003E0000100010001000100010001000100C65CE4
:1003F00001000100010001000100010001000100F5
:10040000010001000100010000000100C75C0100C3
:1004100000000100010001000100010001000100D5
:100420000100010001000100C95CC85C010001007D
:1004300001000100010000000100000000000000B8
:10044000C35C0100CC5CCA5CCB5C00000000000017
:10045000000000000000000000000000000000009C
:100460000000000000000000010000000100010089
:100470000100010001000100010001000100010074
:100480000100010001000100010001000100010064
:100490000100010001000100010001000100010054
:1004A0000100010001000100010001000100010044
:1004B0000100010001000100010001000100010034
:1004C0000100010001000100010001000100010024
:1004D0000100010001000100010000000100010015
:1004E0000100000001000100010001000100010005
:1004F00001000100010001000100010001000100F4
:1005000001000100010001000000010000000000E6
:1005100000000100010001000100010000000000D6
:1005200000000000000000000000000000000000CB
:1005300000000000000000000000010000000100B9
:1005400001000100010001000100010001000100A3
:100550000100010001000100010001000100010093
:100560000100010001000100010001000100010083
:100570000100010001000100010001000100010073
:100580000100010001000100010001000100010063
:100590000100010001000100010001000100010053
:1005A0000100010001000100010001000000010044
:1005B0000100010000000100010001000100010034
:1005C0000100010001000100010001000100010023
:1005D0000100010001000100010000000100000015
:1005E0000000000001000100010001000100000006
:1005F00000000000000000000000000000000000FB
:1006000000000000000000000000000000000000EA
:1006100000000000000000000000000000000000DA
:1006200000000000000000000000000000000000CA
:100630007E0F00D4FFFFFFC700000078000000001D
:10064000000000002A2B280000000000000000002D
:100650000000000000000029000000002C1E3420D3
:10066000212224342627252E362D3738271E1F20F9
:100670002122232425263333362E37381F0405063E
:100680000708090A0B0C0D0E0F1011121314151682
:100690001718191A1B1C1D2F3130232D3504050680
:1006A0000708090A0B0C0D0E0F1011121314151662
:1006B0001718191A1B1C1D2F3130354C09025B000D
:1006C000030100A0FA09040000010301010009214F
:1006D000110100012240000705810308000A0904F6
:1006E0000100020300000009211101000122220083
:1006F0000705820320000107050303200001090408
:100700000200010300000009211101000122B600CE
:100710000705840320000A1201100100000008A14F
:100720007B01750200010200010A034D00570037EA
:10073000003500000012034D00570053007400758F
:1007400000640069006F0000000403090400112424
:100750001FBECFEFDAE0DEBFCDBF04B603FE27C079
:100760008091CD059091CE05A091CF05B091D00597
:100770008730904BA740B04BD1F41092CD0510922A
:10078000CE051092CF051092D00514BE84B7877F96
:1007900084BF0FB6F894A89580916000886180931B
:1007A0006000109260000FBEE0E0F8E3099525E0DC
:1007B000A6E1B3E001C01D92AD3CB207E1F713E042
:1007C000A0E0B1E0EEEAF0E602C005900D92A6319D
:1007D000B107D9F70E94D3240C94F62F0C94000093
:1007E000E8EDF0E080818E7F80831092E20010922D
:1007F000DA001092E100A0EEB0E08C9181608C9361
:1008000080818F77808319BCA7EDB0E08C918E7FBB
:100810008C9380818F7E808310926405089520914F
:10082000E4003091E50095E6A9012091EC00822FCB
:10083000817020FF06C08091E80080FF06C080E044
:1008400008952091E80022FD1AC08091890588232F
:1008500089F0853089F08091EB0085FD0FC02091F3
:10086000E4003091E50042175307F9F29150E1F6A8
:1008700084E0089582E0089583E0089581E008957A
:10088000EF92FF920F931F93CF937C018B010E94F5
:100890000F04C82F811117C08091E80085FD0BC09F
:1008A0008091E8008E778093E8000E940F048823EF
:1008B00099F3C82F08C0F70181917F018093F1005F
:1008C0000150110949F78C2FCF911F910F91FF9083
:1008D000EF90089580918B0587FF13C08091E80009
:1008E00082FF06C08091E8008B778093E80004C007
:1008F000809189058111F2CF08958091890588231F
:10090000D9F38091E80080FFF8CF8091E8008E77DE
:10091000ECCF982F9093E900242F762F50E0891781
:1009200031F07091EC002091ED005091F00021FD2C
:1009300007C09F5F973071F78093E90081E00895C9
:100940003091EB003E7F3093EB003091ED003D7F26
:100950003093ED003091EB0031603093EB007093F9
:10096000EC002093ED005093F0002091EE0027FD65
:10097000E0CF80E00895CF92DF92EF92FF920F9345
:100980001F93CF93DF93C8EDD0E088818F7E88835B
:10099000E7EDF0E080818160808384E082BF81E0C8
:1009A0008093640588818E7F888302EE10E0F801D1
:1009B00010821092DA0081EEC82ED12CF60110823E
:1009C00088818F77888388818068888388818F7DFC
:1009D000888319BC1092890510928A0510928805A7
:1009E0001092870590EEE92EF12CF70180818B7F24
:1009F000808388818160888342E060E080E00E949B
:100A00008904F60180818E7F8083F8018081816076
:100A10008083808188608083F70180818E7F8083DE
:100A2000888180618883DF91CF911F910F91FF9022
:100A3000EF90DF90CF900895FC0180919105909107
:100A4000920586179707A0F06115710529F490911A
:100A5000E8009E779093E80090E06115710551F4ED
:100A6000911108C08091E80082FF34C080E00895B1
:100A7000BC01F2CF809189058823C1F18530C1F195
:100A80008091E80083FD30C08091E80082FDEACFCC
:100A90008091E80080FFE1CF8091F3002091F20087
:100AA000382F6115710519F02830310558F091E0A3
:100AB0002830310509F090E02091E8002E7720934E
:100AC000E800CBCF81918093F100615071092F5FD5
:100AD0003F4FE7CF80918905882341F0853041F071
:100AE0008091E80083FFBECF81E0089582E0089501
:100AF00083E00895EF92FF920F939701201B310935
:100B00002F3F310519F010F02FEF30E02095382FEE
:100B1000320F08F43FEF832F0F91FF90EF9008956D
:100B2000EF92FF920F939701201B31092F3F310560
:100B300019F010F02FEF30E0322F3095482F430F8F
:100B400008F44FEF842F620F0F91FF90EF900895FC
:100B5000EF92FF920F93972F093438F4B701601B7F
:100B600071096F3F710519F010F06FEF70E0485F89
:100B70005F4F4131510540F0A901485F5F4F41315E
:100B8000510510F06FEF70E06095482F460F08F4A4
:100B90004FEF842F37FF02C02D5F3F4F35952795CC
:100BA000359527956091C805620F792F0F91FF90B9
:100BB000EF900895EF92FF920F931F930E0D1F2D4C
:100BC000111DF90137FF03C0F195E195F10924E00A
:100BD000EE0FFF1F2A95E1F7EF3FF10519F014F032
:100BE000EFEFF0E09A0157FF03C0319521953109ED
:100BF00094E0220F331F9A95E1F72E173F070CF46C
:100C0000F901E00FF11FEF3FF10519F010F0EFEFE0
:100C1000F0E0E095282F3E2F230F08F42FEF822FCE
:100C20001F910F91FF90EF900895EF92FF920F9315
:100C3000970195E0099F200D311D11242F3F3105AB
:100C400019F010F02FEF30E02095382F320F08F414
:100C50003FEF832F0F91FF90EF90089522E8241B20
:100C600008F420E0620F08954095282F429F412DFF
:100C70001124842F0895E42FF0E0EE0FFF1FE151BF
:100C8000FE4F9081921B97FD9195292F38E1239F6C
:100C9000212D1124620F08950F931F9310E0F80186
:100CA000EE0FFF1FE151FE4F9081905797FD9195F8
:100CB000000F111FF801E051FE4F00810052110B8F
:100CC0002003F001219FF00D112408E310E0091B1F
:100CD000110997FD139540039001419F300D112498
:100CE000E20FF31F9F01220F331F2E0F3F1F37FF0D
:100CF00002C021583F4F220F232F221F330B620FB8
:100D00001F910F9108950F931F93522F10E0F80138
:100D1000EE0FFF1FE051FE4FA081A052BB0B9D01C3
:100D20005203F001539FF00D1124000F111FD80141
:100D3000A151BE4F0C910057110B40039001419FF0
:100D4000300D11242E0F3F1F37FF02C0215C3F4F93
:100D500096E0359527959A95E1F7620F1F910F91CF
:100D600008950F931F93522F10E0F801EE0FFF1F0D
:100D7000E051FE4FA081A052BB0B9D015203F00138
:100D8000539FF00D1124000F111FD801A151BE4F28
:100D90000C910057110B40039001419F300D11241D
:100DA0002E0F3F1F37FF02C021583F4F220F232F26
:100DB000221F330B620F1F910F910895EF920F9333
:100DC000972F23E0029FB0011124759567956E0D52
:100DD000792F0F91EF900895322F50E0FA01EE0F26
:100DE000FF1FE051FE4F9081905297FD9195440F67
:100DF000551FFA01E151FE4F2081231B330B290FB0
:100E0000311D97FD3A95620F0895E42FF0E0EE0F43
:100E1000FF1FE051FE4F6081621B0895E42FF0E058
:100E2000EE0FFF1FE151FE4F6081621B0895622F9C
:100E30000895E42FF0E0EE0FFF1FE151FE4F4081D7
:100E400034EE439F412D1124E82FF0E050E0445E42
:100E50005F4FDA01A21BB1099D01B7FF03C03195B5
:100E60002195310993E0220F331F9A95E1F7AF01E5
:100E7000421B530B9A0157FD20E0582F259F212D2F
:100E80001124822F0895E42FF0E0EE0FFF1FE151AF
:100E9000FE4F408134EE439F412D1124E72FF0E0B7
:100EA00050E0445E5F4FDA01A21BB1099D01B7FF1C
:100EB00003C031952195310993E0220F331F9A9594
:100EC000E1F7AF01421B530B9A0157FD20E0279F2A
:100ED000212D1124722F089580E0089580916605D8
:100EE00008959C014FB7F894809132059091330595
:100EF000A0913405B09135054FBF821B930B089527
:100F00002FB7F894609132057091330580913405C4
:100F1000909135052FBF08952FB7F8948091320531
:100F200090913305A0913405B09135052FBF0895F8
:100F3000209110012223C9F02091EE0427FF15C053
:100F4000E62FE695E695E695EE31D8F4E80FF92F11
:100F5000F11D677021E030E001C0220F6A95EAF7C9
:100F600020958281282322830895FC0132960896D9
:100F70002191621303C0DF0111971C92E817F90752
:100F8000B9F70895209110012223C1F02091EE04B9
:100F900027FF14C0E62FE695E695E695EE31F8F4C6
:100FA000E80FF92FF11D677021E030E001C0220F3A
:100FB0006A95EAF78281822B82830895FC0132963A
:100FC0002FEF30E04191641751F02F3F19F4411198
:100FD00001C0232F3F5F3630A9F72F3F09F4089552
:100FE000820F911D27FD9A95FC01628308958091DF
:100FF000E90481111092E90408958091E804909128
:10100000E704892B9091E604892B80931803909133
:10101000E9049923A1F0892B809318038091100192
:10102000882341F18091EE0487FF24C08EE1EAE13C
:10103000F3E090E0815000F591110E94F707E091F4
:101040002C05F0912D053097E1F080911001882357
:1010500059F08091EE0487FF07C0809118038093B8
:10106000190385E0809318030280F381E02D88E165
:1010700093E0099486E0DBCF21912223D9F29F5F90
:10108000D9CF08952FE0929F800D1124982F97704B
:1010900086958695869525E0829FF0011124E1567C
:1010A000FB4F50E040E080E0219130E0092E02C08B
:1010B000369527950A94E2F721703327042E01C054
:1010C000220F0A94EAF7822B4F5F5F4F453051059C
:1010D00059F708952FE0929F800D1124982F977053
:1010E00041E001C0440F9A95EAF78695869586956A
:1010F00095E0899FF0011124E156FB4F90E080E0DC
:1011000070E05191DF0111979B01082E02C03695C6
:1011100027950A94E2F72170219525272423252776
:101120002C9301968530910561F7089580919E0476
:1011300090916D04981301C008958F5F8770FACF66
:10114000882341F080959091E80489238093E804F6
:101150000C94FD070895882339F09091E804982BAA
:101160009093E8040C94FD07089520916304309156
:1011700064042817390771F0909364048093630422
:10118000E0912C05F0912D05309721F00084F18538
:10119000E02D09940895209161043091620428178C
:1011A000390771F09093620480936104E0912C05FB
:1011B000F0912D05309721F00680F781E02D0994FC
:1011C0000895E0912C05F0912D05309721F00190C4
:1011D000F081E02D099480E00895FA01811101C0A9
:1011E000FB010994EBE3F3E0818360834283339650
:1011F00094E0E136F907C1F70895FC01EE0FFF1FF7
:10120000E80FF91FE55CFC4F61834083228308955A
:101210000C94F2080C94FD08FC019B01009729F442
:1012200080E077FF2BC080E80895AC0197FF04C0F1
:1012300044275527481B590BB901640F751F37FD0B
:1012400010C0241B350BC901A5E0880F991FAA9572
:10125000E1F70E94B52E80E2861BF7FF0FC0819553
:101260000895CB0165E0880F991F6A95E1F7BA01EF
:10127000621B730B0E94B52E80E6EECF0895EF92AD
:101280000F93CF93DF93D72FC82FC9010E19BA013F
:101290000E940C09602F681B7D2F8C2FDF91CF914E
:1012A0000F91EF9008950F93CF93DF93D72FC82F0F
:1012B000C901BA010E940C09682F600F7D2F8C2F85
:1012C000DF91CF910F910895EF920F931F93CF93DA
:1012D000DF93D62FC72F182FC9010E19010FBA019E
:1012E0000E940C09081B202F219F212D1124822FE1
:1012F0006D2F7C2FDF91CF911F910F91EF9008956B
:10130000EF920F931F93CF93DF93D62F172FC82FF2
:10131000C9010E19070FBA010E940C09702F781B22
:10132000719F712D11246D2F8C2FDF91CF911F9103
:101330000F91EF9008950F931F93CF93DF93D62FC4
:10134000C72F182FC901212F201B022FBA010E947D
:101350000C09982F990F990F891B800F282F219F17
:10136000212D1124822F6D2F7C2FDF91CF911F9182
:101370000F9108950F931F93CF93DF93D62F172FBD
:10138000C82FC901272F201B022FBA010E940C0968
:10139000982F990F990F782F791B700F719F712DCE
:1013A00011246D2F8C2FDF91CF911F910F910895F4
:1013B000E82F86FDE0952E2F2F7086FD2F5FE69596
:1013C000E695E695E670F0E0E85EFE4F9181929F2B
:1013D000902D212D112492959F702295207F922B84
:1013E0002081920F87FD919580E8890F08950F93D2
:1013F0001F93CF93DF938B01D82FC42F822F0E948E
:10140000D809EC2FF0E0EE0FFF1FE151FE4F908165
:101410009058890F87FD8195880F682F2CE0629F77
:10142000612D1124600F712F8D2FDF91CF911F91AE
:101430000F910895AC018230910508F408959FEF53
:10144000413E8EE1580740F49A0195E03695279584
:101450009A95E1F798E0920F61E0E62FE90FFF27F8
:10146000FF1F9F0135952795822F229FF001239F13
:10147000F00DF00D11244E175F0738F49FEF920F17
:10148000961758F78FEF860F08952F3FE9F361E025
:10149000620FF6CF0F93CF93DF93D72FC82F47FD5F
:1014A000419588E390E0841B910947FD9395889FBF
:1014B000B001899F700D700D1124229FC001239FE0
:1014C000900D900D1124860F971F0E941A0A982FD5
:1014D000990F890F682F600F7D2F8C2FDF91CF918F
:1014E0000F91089530E020E0869F212D969F200DDA
:1014F000311D1124C9010895AF92BF92CF92DF929E
:10150000FF920F931F93CF93DF93362F472FE82F30
:10151000F0E0EC53FE4F71110FC0E4918E2F2E2F8F
:101520006E2F722FDF91CF911F910F91FF90DF905F
:10153000CF90BF90AF900895C72FD0E02491F22EA6
:10154000022F10E056E0659FC0011124EFEFF0E09C
:10155000BF010E94A12E832F90E0880F991F35E5CF
:10156000369FD001379FB00D11248A1B9B0B982FFB
:10157000990F980F6F01CC1ADD0AC09ED001C19E51
:10158000B00DD09EB00D11248B2F499FA0011124C6
:10159000452F55276F01C41AD50AC09EA001C19ED0
:1015A000500DD09E500D11245F01A91AB108AC9EB8
:1015B0006001AD9ED00CBC9ED00C1124CD2CDD243E
:1015C000EC19FD09E09FE001E19FD00DF09FD00DE7
:1015D0001124ED2F62307105A1F050F461157105F1
:1015E00009F49ECF6130710581F0EB2F852F98CFE4
:1015F0006430710569F080F06630710509F490CFB0
:10160000F4CFE22F2B2F8D2F8BCFE22F252F88CFDA
:10161000EB2F822F2D2F84CF2B2F8F2DE52F80CFD7
:101620007F928F929F92AF92BF92CF92DF92EF9272
:10163000FF920F931F93CF93DF935C01C091110131
:1016400084E1C89FC02D112414E11C0FF12E133624
:1016500010F032E6F32E6091CB0566958091BC05C3
:101660009091BD050E94720A782ED0E0CF1590F0BF
:1016700081E0123608F080E0DF91CF911F910F9149
:10168000FF90EF90DF90CF90BF90AF909F908F90A2
:101690007F900895FE01ED54FD4F808190911201DD
:1016A0008923C9F1CE01880F991F8A579E4FFC01EB
:1016B000E759FF4F2081422F4057550B6A01865949
:1016C0009F4FFC018081282F2052330B4901449FFA
:1016D0009001459F300D300D1124889CC001899CDC
:1016E000900D900D1124820F931F0E941A0A082F4B
:1016F0006091C8057091C9058091CA05E72C9401D5
:10170000A601F50109950E947C0A462F282F672F14
:10171000CE010E940A092196A9CFCF92DF92EF92C3
:10172000FF920F931F93CF93DF937C01C091110120
:1017300084E1C89FC02D112414E11C0FD12E133653
:1017400010F032E6D32E6091CB0566958091BC05F2
:101750009091BD050E94720AC82ED0E0CD1568F0A8
:1017600081E0123608F080E0DF91CF911F910F9158
:10177000FF90EF90DF90CF900895FE01ED54FD4F64
:10178000808190911201892311F1CE01880F991F58
:101790008A579E4FFC01E659FF4F20812052330BA0
:1017A00087599F4FFC0140814057550B6091C805F8
:1017B0007091C9058091CA050C2DF70109950E9409
:1017C0007C0A462F282F672FCE010E940A092196F6
:1017D000C5CFDF92EF92FF920F931F93CF93DF93CA
:1017E0007C01C091110184E1C89FC02D112414E136
:1017F0001C0F012F133608F002E66091CB056695A9
:10180000669521E0620F08F46FEF8091BC0590911E
:10181000BD050E94720AD82ED0E0C01760F081E0AA
:10182000123608F080E0DF91CF911F910F91FF9069
:10183000EF90DF900895FE01ED54FD4F808190916F
:101840001201892391F06091C8057091C9058091BA
:10185000CA052D2D4C2FF70109950E947C0A462FB1
:10186000282F672FCE010E940A092196D6CF9F927A
:10187000AF92BF92CF92DF92EF92FF920F931F939E
:10188000CF93DF936C01C091110184E1C89FC02DFB
:10189000112414E11C0FB12E133610F032E6B32ED2
:1018A0006091CB05669566958091BC059091BD05CC
:1018B0000E94720AF82E80E48F0D0E94D80990E8E9
:1018C000A92EA80E8F2D0E94D80920E8922E980EDE
:1018D000D0E0CB1580F081E0123608F080E0DF9197
:1018E000CF911F910F91FF90EF90DF90CF90BF901D
:1018F000AF909F900895FE01ED54FD4F808190912F
:1019000012018923A1F06091C8057091C9058091E9
:10191000CA05EF2C0C2F292D4A2DF60109950E949E
:101920007C0A462F282F672FCE010E940A09219694
:10193000D0CFCF92DF92EF92FF920F931F93CF936E
:10194000DF938C01C091110184E1C89FC02D112447
:1019500024E1D22EDC0ECD2C22E62D1510F492E6D9
:10196000C92E2091CB0531E0230F08F42FEF30E092
:1019700050E040E06FEF7FEF80E090E00E94932F17
:101980007901D0E02C2FCC1570F081E0F1E6FD1547
:1019900008F480E0DF91CF911F910F91FF90EF90BD
:1019A000DF90CF900895FE01ED54FD4F808190911E
:1019B0001201892311F1409193054150042E000C2E
:1019C000550B47FF1CC0C7016091CB0521E0620F9A
:1019D00008F46FEF0E94720AAC016091C805709123
:1019E000C9058091CA05F80109950E947C0A462F15
:1019F000282F672FCE010E940A092196C3CFFA0132
:101A0000ED56FA4F818982130AC0FA01EE0FFF1FCB
:101A1000ED56FA4F818D928D8E159F05A8F241509B
:101A20005109CFCF2F923F925F926F927F928F9208
:101A30009F92AF92BF92CF92DF92EF92FF920F935D
:101A40001F93CF93DF93CDB7DEB72A970FB6F894E5
:101A5000DEBF0FBECDBF8B837E836D8320911101CE
:101A600084E1289F802D11248F838C5E89838A8353
:101A7000833610F032E63A83809193058C83FF81A0
:101A8000EF2FF0E0FA87E987CF01880F991F9C01BB
:101A900021513E4F69013B81832F90E0FC0131963B
:101AA000F887EF838A8199859817E8F081E0E981CA
:101AB000E23608F080E02A960FB6F894DEBF0FBE3B
:101AC000CDBFDF91CF911F910F91FF90EF90DF90ED
:101AD000CF90BF90AF909F908F907F906F905F90CE
:101AE0003F902F900895E985FA85ED54FD4F808150
:101AF000909112018923F1F02090C8053090C9051A
:101B00002F8138852D563A4F39015B8010E0FC81DA
:101B10005F16D0F02091CA05129F112D1124B1013A
:101B2000812F0E947C0A462F282F672F89859A854E
:101B30000E940A0929853A852F5F3F4F3A872987F6
:101B400032E0C30ED11CAECFF30181913F01F6010B
:101B5000A080A81ABB088180F3018781881A9908A0
:101B6000AA9C9001AB9C300D300D1124889CC001C3
:101B7000899C900D900D1124820F931F0E941A0AC8
:101B8000082F6091CB0521E0620F08F46FEFF3019D
:101B9000EE0FFF1FE359F540858996890E94720A6E
:101BA0007C019401A501B101812FED81FE81099590
:101BB0001B015394182FABCF0E948C079C0190916E
:101BC000420580914305982B21F030933F052093E7
:101BD0003E059091440580914505982B21F0309366
:101BE0003C0520933B05E0912C05F0912D053097A5
:101BF00049F082E0809340050480F581E02D80E487
:101C000095E00994089590E080E00E94CB0890E070
:101C100080E00E94B5081092E7041092E6040E944A
:101C2000FD0786E0E0E4F5E0DF011D928A95E9F723
:101C300010923D0510923A05109266040C94DC0D4A
:101C40006093C0057093C1058093C2059093C3054E
:101C50000C94030E0F931F936091C0057091C10502
:101C60008091C2059091C3058B019C0106701127DC
:101C700022273327063011052105310529F4686034
:101C80001F910F910C94200E677FFACF0F931F9333
:101C900041E050E060E070E004C0440F551F661F53
:101CA000771F8A95D2F7CB01BA0160957095809520
:101CB00090950091C0051091C1052091C205309109
:101CC000C30560237123822393231F910F910C94EA
:101CD000200E9091E504809589238093E504282FB8
:101CE000277039F4282F082E000C330B9217130697
:101CF00021F49091EF0492FF07C085958595859515
:101D00000E94460E1092E50408950F931F9341E040
:101D100050E060E070E004C0440F551F661F771F5D
:101D20008A95D2F78091C0059091C105A091C20516
:101D3000B091C3058A019B01082B192B2A2B3B2B41
:101D4000C901B8011F910F910C94200E6093EA0411
:101D50007093EB048093EC049093ED040C94030EC9
:101D600040914205803F59F48091430587FF0DC0A3
:101D70001092430541110BC010923D0508C0813FF0
:101D800081F48091430518169CF3442381F08091DF
:101D9000440590914505892B09F05AC010923A05E7
:101DA0000895823F49F447FFF0CF10924205809199
:101DB00043058111ECCFE0CF833F19F41416ACF347
:101DC000E4CF90914405893F29F41916F4F6109256
:101DD0004405DBCF8A3F19F497FFD7CFF8CF909116
:101DE00045058B3F29F497FFD0CF10924505CDCF05
:101DF0008C3F19F41916CCF3C8CF9CE0980F95309E
:101E000090F4845F990B21E030E0B90102C0660FC5
:101E1000771F8A95E2F7CB01809590914105892340
:101E200080934105B2CF8D3F31F4809166048E7F5F
:101E300080936604AACF8E3F21F4809166048D7F43
:101E4000F7CF8F3F09F0A1CF809166048B7FF0CF51
:101E500008958823B1F19CEF980F913A38F4682FD8
:101E600088E193E00E9498070C94FD0790E2980F98
:101E7000983088F4877021E030E0A90102C0440F57
:101E8000551F8A95E2F7CA0180959091E80489234D
:101E90008093E804E9CF9BE5980F933020F490E01D
:101EA00080E00C94CB0898E5980F973120F490E0EF
:101EB00080E00C94B508803F20F00E94B00E0C9496
:101EC000DC0D08958091660480FD16C081FD16C06A
:101ED00082FD16C080913A058823A1F0883280F4F3
:101EE00028E0829FC001112468E270E00E94B52EB4
:101EF000862F672B39F0089582E0089584E00895D5
:101F000088E0089581E008958091660480FD14C002
:101F100081FD14C082FD16C080913D05882381F0AB
:101F2000843180F422E3829FC001112464E170E0D7
:101F30000E94B52E862F08958CE0089589E10895BA
:101F400085E0089582E30895803F31F40E94840F74
:101F50008195809343050895813F19F40E94840F71
:101F6000F8CF823F31F40E94840F8195809342051F
:101F70000895833F19F40E94840FF8CF893F29F414
:101F80000E94620F8093440508958A3F21F40E94C5
:101F9000620F8195F7CF8B3F31F40E94620F8195DC
:101FA0008093450508958C3F19F40E94620FF8CF85
:101FB0009CE0980F953070F4845F990B21E030E03D
:101FC00001C0220F8A95EAF780914105822B809308
:101FD000410508958D3F31F48091660481608093BE
:101FE000660408958E3F21F4809166048260F7CFE5
:101FF0008F3FB9F7809166048460F1CFCF93C82FEB
:10200000882309F46FC08CEF8C0F813AC0F5809162
:102010001001882311F18091EE0487FF1EC0EC2F80
:10202000E695E695E695F0E0E85EFC4F828190E06B
:102030004C2F477021E030E002C0220F331F4A9539
:10204000E2F782239323892B91F06C2F88E193E0B0
:102050000E9498070E94FD070AC0EAE1F3E080E2CF
:1020600093E02191C21789F38E179F07D1F76C2F48
:1020700088E193E00E94C207CF910C94FD0780E2B3
:102080008C0F883068F4C77021E030E001C0220F67
:10209000CA95EAF78091E804822B8093E804ECCF9C
:1020A000EBE5EC0FE33040F4F0E0E05EFE4F8081C2
:1020B00090E0CF910C94CB08E8E5EC0FE73150F4B9
:1020C000F0E0EE0FFF1FED5DFE4F80819181CF911B
:1020D0000C94B508C03F30F08C2F0E94A40FCF9114
:1020E0000C94DC0DCF910895F894E82FE295EF70F1
:1020F000F0E031A1282F2F7081E090E001C0880F1F
:102100002A95EAF7982F9095932391A392A1892B72
:1021100082A3789408959091EE0492FF06C0282F30
:1021200028712830F9F4877F846093FF06C0282F38
:1021300028712831F1F4877E84612091EF0420FF1B
:1021400006C0382F38713830D9F4877F816021FF7D
:1021500006C0282F28712831D1F4877E816194FD33
:10216000877E0895282F24712430F9F68B7F8860AC
:10217000DCCF282F2471243101F78B7E8861DDCFDD
:10218000382F3171313019F78E7F8860E0CF282FDA
:102190002171213121F78E7E8861E1CFCF9384E0D8
:1021A00090E00E944B2FC82F82E290E00E944B2FBC
:1021B000982F8C2FCF9108950F931F93CF93DF9378
:1021C000C42FD0E0CC0FDD1F2EE1629FC00DD11DCA
:1021D000112432ED839FC00DD11D1124CE018796AD
:1021E0000E944B2F082F10E0102F0027CE01889659
:1021F0000E944B2F9801282BC901DF91CF911F918D
:102200000F910895462F843038F4773028F46F30DA
:1022100018F4672F0C94DC1090E080E00895CF93C1
:10222000DF930E940211EC0182389105A9F1D8F5E3
:102230008133910509F496C048F58932910509F476
:102240008AC08A9709F495C0C11521E5D20708F024
:10225000BCC0C11530E5D30708F014C1C83ED10594
:1022600008F09CC0C03ED10560F5C83AD10508F021
:1022700087C0C53AD10508F0FDC0C130D10509F1CC
:102280002097F9F0C430D105E0F440C085339105C2
:1022900009F45AC0C997C1F68091EE04837089F0A1
:1022A000C0EED0E00EC0833E910599F170F4803EFF
:1022B000910501F1823E910539F68091EE0482FD8F
:1022C00021C0CE01DF91CF910895863E910561F145
:1022D000873E910571F1843E910509F0B5CF80915B
:1022E000EF0481FFEECF8091EE04C7EED0E084FDD5
:1022F0000DC0E7CF8091EE0480FD12C19091EF04F4
:1023000090FFDFCFC3EED0E084FFDBCFD0E0C0E0B2
:10231000D8CF8091EE0482FD06C19091EF0490FD2C
:10232000BFCF84FFCECFF2CF8091EE0483FDDDCF0F
:10233000C8CF8091EE0483FDF9C09091EF0491FF26
:10234000F0CFC4EED0E0BDCF8091EE0485FFB9CFD1
:10235000C9E2D0E0B6CF8091EE0485FFB2CFC5E3ED
:10236000D0E0AFCF8091EE0486FFABCFCAE2D0E0E1
:10237000A8CF8091EE0486FFA4CFC1E3D0E0A1CF27
:10238000CF3BD10518F6C85AD0E0CC0FDD1FCD5D8C
:10239000DE4F0990D881C02DD46493CFC11540E29F
:1023A000D40758F4C11581E0D80708F08ACFC03FA0
:1023B000D10508F4ABCFD06584CFC11590E4D9071F
:1023C00008F4A4CFDF70D06A7CCFC11525E5D20711
:1023D00000F5C11534E5D30708F08AC0C11543E5FF
:1023E000D40708F071C0C11582E5D80708F467C0AA
:1023F000CE018370992721E030E002C0220F331F05
:102400008A95E2F7C695C69580E2C89FE00111243F
:1024100052C0C11599E5D907A8F4C11528E5D2071E
:1024200008F06BC0C11536E5D30708F06FCF8C2FCD
:102430000E948B10C82FD0E0DC2FCC27CC27DF7177
:10244000D0623FCFC1154AE5D40708F45BC0CE0186
:1024500090568115904208F059CF8D2F8F710E94B0
:102460008B1090E0982F882788279F719C012C2B38
:10247000E901E6CFC55AD0E0C05EDE4FC881D0E0AA
:10248000D0641FCFCE01E4E096958795EA95E1F7F9
:1024900083702C2F26952695237040E2249F90016F
:1024A0001124382B8C2F8370C1E0D0E002C0CC0FF8
:1024B000DD1F8A95E2F7C22BD32BDC6802CFDC2F1D
:1024C000CC27C16FD06AFDCECE018370992721E061
:1024D00030E002C0220F331F8A95E2F7C695C695F9
:1024E00090E2C99FE0011124C22BD32BDA68E9CE18
:1024F000DC2FCC27C46FD06AE4CEDC2FCC27C06F92
:10250000D06ADFCE8C2F8F700E948B1034E0D6956E
:10251000C7953A95E1F7CF709C2FEC01D069D1CEE9
:10252000C9E3D0E0CECEC2EED0E0CBCEC6EED0E056
:10253000C8CEBF92CF92DF92EF92FF920F931F937C
:10254000CF93DF938C01C090C005D090C105E0907F
:10255000C205F090C3058091EA049091EB04A0912C
:10256000EC04B091ED04C82AD92AEA2AFB2ACFE16B
:10257000D0E0BC2ED701C6010C2E04C0B695A7959D
:10258000979587950A94D2F780FD0EC0219788F71A
:10259000B12C8B2DDF91CF911F910F91FF90EF9078
:1025A000DF90CF90BF900895B8018C2F0E940F113B
:1025B000019761F3EECFCF93DF93EC010E94991264
:1025C000BE01DF91CF910C940F110E94DB12292FD5
:1025D0002F7092959F7092509E3078F4E92FF0E022
:1025E000E850F04D0C94C92E803F19F020F4883E3D
:1025F00020F481E00895843FE1F380E00895883E6F
:10260000C0F3813FD1F7F5CF822F869586958695C9
:1026100008956F927F928F929F92AF92BF92CF92C6
:10262000DF92EF92FF920F931F93CF93DF9384EC8F
:10263000C82E82E0D82E97E1E92EFF24F394E7011B
:10264000C25DD10936011BC0F50185909490692DBA
:10265000C8010E946F2F682DC80101960E946F2F3C
:1026600082E0A80EB11C0E5F1F4FC017D10761F7A3
:102670008EE1680E711C6E96CE15DF0529F08E0175
:102680000E5111095301E0CF7E0182EDE80EF11CDD
:1026900082EDC80ED11C8FE5E81684E0F80679F6C5
:1026A000DF91CF911F910F91FF90EF90DF90CF902E
:1026B000BF90AF909F908F907F906F900895CF9331
:1026C000C091EF04C2FB992790F9981781F080FB25
:1026D000C2F9C093EF046091EE0484E090E00E94A0
:1026E0006F2F6C2F82E290E0CF910C946F2FCF91DF
:1026F0000895CF93DF93CFE6D3E060E0CE010E9450
:102700006F2F2196C11584E0D807B9F7DF91CF91DB
:1027100008951F93CF93DF93EC01FC01ED54FD4F1F
:1027200080816823A1F00E94222F182F0E94222F5F
:10273000612F782F8091CA050E947C0A462F282F8E
:10274000672FCE01DF91CF911F910C940A09DF9181
:10275000CF911F910895DF92EF92FF920F931F93F5
:10276000CF93DF938C01FC01ED54FD4F80816823F2
:1027700081F1D090C905D091CA05C091C805EC2E51
:10278000F12C0E94222F282FC7018C549F4F68E6FE
:1027900071E00E94B52E8E199F0997FD03969595BD
:1027A00087959595879523706C2F289F600D112430
:1027B0007D2D8D2F0E947C0A462F282F672FC80160
:1027C000DF91CF911F910F91FF90EF90DF900C94CC
:1027D0000A09DF91CF911F910F91FF90EF90DF9049
:1027E0000895CF93DF9300D00F92CDB7DEB79091CD
:1027F0008905943011F589837B836A839093E9007E
:102800008FEF9091E800815095FD06C095ED9A9567
:10281000F1F700008111F5CF8091E80085FF0DC030
:1028200050E040E063E070E0CE0101960E94400479
:102830008091E8008E778093E8000F900F900F90C2
:10284000DF91CF910895BC0184E00C94F113BC0199
:1028500083E00C94F1139C0184E08093E9009FEFE6
:102860008091E800915085FD06C085ED8A95F1F7CD
:1028700000009111F5CF8091E80085FF0CC050E079
:1028800040E066E070E0C9010E9440048091E800E9
:102890008E778093E8000895CF93DF93EC018091C9
:1028A00010018823B1F18091EE0487FF32C060E20D
:1028B00084E08093E9008FEF9091E800815095FDCE
:1028C00006C095ED9A95F1F700008111F5CF809142
:1028D000E80085FF1BC08091100170E050E040E0EF
:1028E000811104C050E040E068E070E0CE010E9439
:1028F00040048091E8008E778093E80080E2FE013A
:10290000A7E6B5E001900D928A95E1F7DF91CF91AE
:10291000089568E081E0CDCF81E08093E00080E21F
:102920008093D8001092C9008FE19EE40197F1F7DF
:1029300000C0000087E090EBDC018093CD05909310
:10294000CE05A093CF05B093D00588E19CE00FB6EB
:10295000F894A895809360000FBE90936000FFCF1D
:102960001F93CF93DF93182FD0E0C0E0893311F489
:10297000C0E5D0E0812F0E94FE0F209731F4812F17
:10298000DF91CF911F910C94290F8FE99FE0019760
:10299000F1F700C000002197F0CF0F931F93CF9362
:1029A000DF93C62FD42F022FFC0182818823A1F050
:1029B0006093C6050E948C079093C5058093C4055B
:1029C000C77081E001C0880FCA95EAF7DF91CF9107
:1029D0001F910F910C94AB088091C605681335C008
:1029E0008091C4059091C5050E947107883C9105AE
:1029F00060F510E21D0FCD17B9F080E28C0F883022
:102A000040F4C77081E001C0880FCA95EAF70E94C0
:102A1000A008183048F481E09D2F977001C0880FFE
:102A20009A95EAF70E94AB08802F0E94B0141830E4
:102A300098F4D77081E001C0880FDA95EAF7DF914A
:102A4000CF911F910F910C94A008C77081E001C035
:102A5000880FCA95EAF7F3CFDF91CF911F910F91BD
:102A60000895239A35B1377F25B128604FB7F89480
:102A70008BE393E0FC015191CF0168E025B90000A0
:102A800000C057FF35B9550F000000C000C000C09E
:102A900035B900C06A9591F7F4E081369F0751F788
:102AA0004FBF8FE594E00197F1F700C00000089553
:102AB0006AEE7EEF90E080E00E948D2F60E082E081
:102AC00090E00E946F2F60E083E090E00E946F2F03
:102AD0001092EA041092EB041092EC041092ED04B0
:102AE00060E084E090E00E946F2F60E082E290E07E
:102AF0000E946F2F60E085E090E00E946F2F60E001
:102B000086E090E00E946F2F6FEF87E090E00E94D8
:102B10006F2F40E050E0BA0188E090E00E94812FE2
:102B200060E08DE090E00E946F2F40E050E0BA013D
:102B300088E190E00E94812F60E087E190E00E94B0
:102B40006F2F40E050E0BA018CE190E00E94812FAD
:102B500070E060E080E290E00E948D2F40E050E065
:102B6000BA0188E190E00E94812F40E050E0BA0174
:102B70008FE090E00E94812F40E050E0BA0183E1B5
:102B800090E00C94812F1092E80480911001EAE10A
:102B9000F3E0882359F08091EE0487FF07C08EE1AF
:102BA000DF011D928A95E9F70C94030E86E0F8CFB9
:102BB0001F93CF93DF93CDB7DEB7AA970FB6F894E4
:102BC000DEBF0FBECDBF8BE895E02091F100DC01A8
:102BD0002D93CD01B5E083399B07B9F780918C0522
:102BE000833009F471C0B8F4813009F448C08230F0
:102BF00009F4B2C08091E80083FF3AC180918B054F
:102C000090918C059A3008F033C1E92FF0E0EA5F2B
:102C1000FF4C0C94C92E8A3009F48DC08B3009F416
:102C200070C0893039F780918B05813219F7809116
:102C30008F0590919005009711F00297D9F6809139
:102C4000E800877F8093E8008091E80082FF37C02A
:102C50009091F3008091F200029729F48091F100A5
:102C60008B7F813021F48091F10080936605809103
:102C7000E8008B778093E8000E946A04BBCF8091C4
:102C80008B05813A09F0B6CF8091E800877F809369
:102C9000E80080918F0590919005892B61F460E2A6
:102CA00087E695E070E00E941C058091E8008B7734
:102CB0008093E8009FCF60E090E080E0F3CF8091C8
:102CC00089058111C1CF96CF80918B05813A09F09A
:102CD00091CF80918F0590919005892B09F08ACF33
:102CE0008091E800877F8093E8008091E80080FF72
:102CF000FCCF809110018093F1008091E8008E77E5
:102D0000B9CF80918B05813209F074CF80918F0506
:102D100090919005892B09F06DCF8091E800877F15
:102D20008093E8000E946A0480918D0580931001D1
:102D30000E94C3155FCF80918B05813209F05ACF75
:102D40008091E800877F8093E8000E946A04809168
:102D50008E05809365054ECF80918B05813A09F0F1
:102D600049CF8091E800877F8093E8008091E80058
:102D700080FFFCCF80916505BECF803899F0823806
:102D800009F076C080918F058F70873008F070C091
:102D90008093E9008091EB0085FB882780F91092F1
:102DA000E90006C0809187059091880591118260A5
:102DB0009091E800977F9093E8008093F100109243
:102DC000F1008091E8008E77B5C1882309F4A2C193
:102DD000823009F04DC080918D058111A6C180918E
:102DE0008F058F702FEF280F263008F041C0809399
:102DF000E9002091EB0020FF98C1933031F48091DD
:102E0000EB0080628093EB0090C19091EB009061A9
:102E10009093EB0021E030E001C0220F8A95EAF7A1
:102E20002093EA001092EA008091EB008860EACFDC
:102E300081111EC010918D051F778091E30080786D
:102E4000812B8093E3008091E800877F8093E800E6
:102E50000E946A048091E80080FFFCCF8091E3002B
:102E600080688093E30082E0111183E080938905FC
:102E70008091E80083FF0AC08091E800877F8093FB
:102E8000E8008091EB0080628093EB00AA960FB679
:102E9000F894DEBF0FBECDBFDF91CF911F91089593
:102EA0008058823028F720918D0530918E052C3D79
:102EB000E3E03E07A1F583E08A838AE289834FB786
:102EC000F894DE01139620E03EE051E2E32FF0E0BB
:102ED00050935700E49120FF03C0E295EF703F5FED
:102EE000EF708E2F90E0EA30C0F0C7968D939D93DF
:102EF0002F5F243159F74FBF8091E800877F80937F
:102F0000E8006AE270E0CE0101960E941C05809103
:102F1000E8008B778093E800ABCFC096E7CF809135
:102F20008F0590919005432F55274330510509F4A3
:102F30004AC078F54130510509F47AC08BE590E03C
:102F4000ECEBF6E04230510509F092CF2091E80019
:102F5000277F2093E80020919105309192058217F8
:102F6000930708F49C0140E02115310509F065C084
:102F7000411163C08091E80082FDC9CF809189052D
:102F8000882329F2853019F28091E80083FFF2CF7F
:102F9000BECF4132510509F43CC04232510509F01F
:102FA00067CF8330910508F063CFFC01EE0FFF1F60
:102FB000E658FE4F0190F081E02D89589E4FDC01CC
:102FC0008C9190E01AC0332721303105D1F02115C2
:102FD000310561F02230310509F04ACFE9E2F7E02E
:102FE000E4918E2F90E0E9E2F7E007C0E9E4F7E032
:102FF000E4918E2F90E0E9E4F7E0009709F438CFF0
:10300000A5CFE5E3F7E0E4918E2F90E0E5E3F7E06C
:10301000F4CF8330910508F02BCF880F991FFC0166
:10302000E058FE4F0190F081E02D89E090E08ECFD6
:1030300082E190E0E7E1F7E089CF8091890588237C
:1030400009F465CF853009F462CF8091E80083FDF3
:103050005ECF8091E80082FD8DCF8091E80080FFF7
:1030600083CF9091F3008091F2002115310519F082
:103070008830910550F041E0089709F040E08091D8
:10308000E8008E778093E8006FCF44914093F10081
:103090003196215031090196E8CF803809F0E8CE09
:1030A0008091E800877F8093E80080918A05809373
:1030B000F10087CE8111DCCE10918D05123008F021
:1030C000D7CE8091E800877F8093E80010938A052F
:1030D0000E946A04112311F084E005C08091E3008E
:1030E00087FDFACF81E08093890542E061EC81E0C1
:1030F0000E94890442E261EC84E00E94890442E279
:1031000061EC82E00E94890442E260EC83E00E946C
:103110008904AECE80918D05813009F0A9CE81E081
:10312000933009F080E0809388051092E900809147
:10313000E800877F8093E8000E946A0499CE46E009
:1031400050E06CE170E087EC95E00C945F2F90917B
:10315000C705937089F0811107C094609093C705EB
:10316000109214010C949F18883210F09C69F6CFCD
:10317000880F880F982BF2CF08958091C705869508
:103180008695815009F487E20C94A7188091C705B1
:10319000869586958F5F883208F081E00C94A71899
:1031A0009091C705937059F08093C8056093C90545
:1031B000493C08F048EC4093CA050C949F180895C8
:1031C000E7ECF5E0438120E1421B08F440E0818117
:1031D000628190E00C94D018E7ECF5E0438120E1A7
:1031E000420F08F44FEF8181628190E00C94D01877
:1031F000E7ECF5E0628120E1621B08F460E0818188
:10320000438190E00C94D018E7ECF5E0628120E176
:10321000620F08F46FEF8181438190E00C94D01825
:10322000E7ECF5E08181438162818850990B0C9431
:10323000D018E7ECF5E0818190E043816281089647
:103240000C94D0183F924F925F926F927F928F9220
:103250009F92AF92BF92CF92DF92EF92FF920F9325
:103260001F93CF93DF9300D000D00F92CDB7DEB77E
:103270008C01FC0183819481892B31F080819181C3
:1032800089238F3F09F000C60F900F900F900F9089
:103290000F90DF91CF911F910F91FF90EF90DF90F2
:1032A000CF90BF90AF909F908F907F906F905F90E6
:1032B0004F903F9008950E949912F82E682F8981AF
:1032C0009A810E946A0869817A818F2D0E94021179
:1032D0007C01F8018281882309F4C9C59701225134
:1032E0003F452031310508F08BC58FEF93E00E94F8
:1032F0004B2FFEEEEF0E5FE6852E53E0952E8823D2
:1033000081F18091E504877009F4BECFF8018281D4
:10331000882309F4B9CF82E00F900F900F900F909F
:103320000F90DF91CF911F910F91FF90EF90DF9061
:10333000CF90BF90AF909F908F907F906F905F9055
:103340004F903F900C94690E811424E09206C9F2CC
:10335000C4010E944B2F811101C0EA943FEF831AF0
:10336000930AE110F1CF1C821B82442443944AE06B
:10337000342E74018FEFE81AF80AC4010E944B2F13
:1033800089831A82882309F4BCCF9FEF980F93306A
:1033900000F58A83498292E0890E911CC7010E9440
:1033A0004B2F8B83882309F4ACCFFE0131967F012C
:1033B000F70120812223E9F2213009F049C09181EF
:1033C0008281913041F4F2E0EF0EF11C0E94B014C2
:1033D00009C04701EACF923049F422E0E20EF11C25
:1033E0000E94FE0F3FEFE31AF30AE2CF933031F46D
:1033F00032E0E30EF11C0E94290FF4CF943021F04B
:103400008FEFE81AF80AEECF92E0E90EF11C30E0F7
:1034100020E0B7016F5F7F4FF70141818053990B27
:103420008A30910550F021503109E0F28FE99FE098
:103430000197F1F700C00000F6CF329EF001339EF5
:10344000F00D11249C012E0F3F1F842F7B01E1CF33
:10345000E22FF0E0E45CF94F5490822F8695869538
:10346000869590E0FC01E45DF94F64902770712C23
:10347000022E02C0759467940A94E2F7E1E06E228E
:103480007724FC01E45EF94FA490B12C022E02C017
:10349000B594A7940A94E2F7F1E0AF22BB24FC01B3
:1034A000E45FF94FC490D12C02C0D594C7942A95FB
:1034B000E2F721E0C222DD246114710419F081EEEB
:1034C0000E94FE0FA114B10419F086EE0E94FE0FB7
:1034D000852D0E94B014AB2819F086EE0E94290FAA
:1034E000672819F081EE0E94290FCD2809F47ACFC0
:1034F0008CE26CCF81E00E94850E0E942A0E01CFE3
:1035000081E00E94460EF9CF82E0F5CF882309F4CE
:10351000F8CE90912E05892F8E7F90FF8160809349
:103520002E0540912E0550912F0560913005709128
:10353000310583E190E00E94812FE3CE882309F4D6
:10354000E0CE90912E05892F8D7F91FF8260E7CF8D
:10355000F5EFEF16FCE5FF0609F469C008F463C057
:1035600027E245EE66EE36EFE3163CE5F30609F496
:103570007AC4882309F499C41092C60582E0E8163B
:103580008CE5F80608F449C196E1E9169CE5F906D0
:1035900030F0C7018A5F9C45099708F03EC10E9440
:1035A000CE109093EF048093EE04E0E1EE16ECE58C
:1035B000FE0609F401C108F083C028E0E2162CE5FC
:1035C000F20609F4E7C008F04FC084E0E8168CE585
:1035D000F80609F4D7C090F5E2E0EE16ECE5FE0639
:1035E00009F4CAC08091EE048260F3E0EF16FCE5B6
:1035F000FF0609F4C4C06091EE04F090EF0484E08B
:1036000090E00E946F2F6F2D82E290E00E946F2F5A
:103610000E94C31576CE27E245EE65EE24C426E26D
:1036200041EE60EE20C427E245EE64EE1CC426E2C3
:1036300041EE62EE18C428E241E0EFCF8091EE0443
:10364000806126E0E2162CE5F20609F498C080912C
:10365000EE04886037E0E3163CE5F30608F48FC01B
:103660008091EE0480628BC08CE0E8168CE5F80651
:1036700009F49AC078F48091EE048C60EAE0EE16CA
:10368000ECE5FE0609F47BC008F488C08091EE04E6
:103690008E7F75C08091EE04877F2EE0E2162CE5C8
:1036A000F20609F46CC08091EE048B7F3FE0E316D4
:1036B0003CE5F30608F463C08091EE048F7E5FC0A2
:1036C0008BEFE8168CE5F80609F460C068F5E3E1D5
:1036D000EE16ECE5FE0609F477C090F421E1E2165F
:1036E0002CE5F20609F46CC032E1E3163CE5F30682
:1036F00009F081CF0E94C3158091EE048F773FC0FF
:1037000085E1E8168CE5F80609F466C008F47AC08D
:103710008091EF048160EAEFEE16ECE5FE0609F019
:103720006ACF8093EF0467CFFFEFEF16FCE5FF064B
:1037300009F44EC068F48091EF048D7F3DEFE316ED
:103740003CE5F30671F3A0F18091EF048360E9CFCB
:1037500091E0E9169DE5F90609F45DC008F448C05A
:1037600060E0F2E0EF16FDE5FF0609F044CF8EE0E1
:1037700090E00E946F2F3FCF8091EE048160809394
:10378000EE0439CF8091EE048460F9CF8091EF048C
:103790008260C7CF8091EE048064F1CF0E94C31590
:1037A0008091EE048068EBCF8091EE048D7FE7CFAF
:1037B0008091EF048E7FB5CF8091EE048F7DDFCFB7
:1037C0008091EE048F7BDBCF8091EE04837FD7CF97
:1037D0008091EF048C7FA5CF8091EE0482FB992726
:1037E00090F921E0922790FB82F990FB83F9C7CFF3
:1037F0008091EF04982F909591708E7F892B90FB8C
:1038000081F98FCF0E94C3159091EE04892F97FB09
:1038100087F98058B4CF61E0AACF8091E80426E10F
:10382000E2162CE5F20609F04FC38A7A91E009F41A
:1038300090E09093650469E2811165E388E193E08B
:103840000E94C2070E94FD075CCD8091C70591E0F0
:1038500089278093C705109214010E949F1851CDAB
:103860004DEB58E166EC78E10E94ED084ACD46EC5C
:1038700058E16DEB78E1F8CF40E159E169E179E198
:10388000F3CF49E159E160E179E1EECF48EF58E14A
:1038900064E079E1E9CF44E059E168EF78E1E4CF11
:1038A0004CEE58E160EE78E1DFCF4BE953E261E99D
:1038B00073E2DACF41E953E26BE973E2D5CF81E0FD
:1038C0000E94A7181ECD8DE0FBCFFBE5EF16FDE5AE
:1038D000FF0611F12CE5E2162DE5F20609F026C3EC
:1038E0008091EF0482FB882780F991E089270E946C
:1038F0005F131CC30E94C3153FEF84E39CE031506B
:1039000080409040E1F700C000000E948C140E94AB
:103910005815F7CC81E0EBCF80E0E9CFC7010E94DA
:103920004208D82E12C32F2D2F70A22E8F2D807FEC
:1039300019F0A29490EFA922DD20C9F0AA2069F025
:1039400080E28E0D883010F081100BC08091E80469
:10395000A82AA092E8040E94FD078E2D0E94FE0F67
:1039600019C08091E704A82AA092E704F4CF8E2D15
:103970000E94290FAA2071F0A09480E28E0D883059
:1039800010F081103DC08091E804A822A092E804C4
:103990000E94FD07232D2850330B2430310510F4ED
:1039A0000E94E108CC2009F46FCC8091E50480FDF1
:1039B0006BCCF80112828595859585950E94850EC0
:1039C000C8010E9422198091E50485958595859509
:1039D0000F900F900F900F900F90DF91CF911F914C
:1039E0000F91FF90EF90DF90CF90BF90AF909F909E
:1039F0008F907F906F905F904F903F900C94460E09
:103A00008091E704A822A092E704C2CF3F2D3F7027
:103A1000932E8F2D807F803219F0929480EF982220
:103A2000882071F081E0881681F1DD20D9F1AA208B
:103A300091F1F801858180FF90CF8F7085832BC035
:103A4000DD20B1F09091E904892D892BA11003C0EC
:103A50000E94AB089FCFE1E0AE12FACF2091EF04B5
:103A600022FD98CF981709F495CF8093E90492CF5F
:103A7000A11006C00E94F707892D0E94A0088ACFD6
:103A8000F1E0AF1609F486CFF5CFDD2031F025E067
:103A90002A1508F47FCF892DDBCF34E03A1508F4DE
:103AA00079CFEACFAA2041F3F9E38F1209C02FEFB3
:103AB00037EE83E0215030408040E1F700C0000045
:103AC0008E2D0E94290F66CF8F2D86958695837047
:103AD00061F0813009F05ECFC7019370D11002C050
:103AE00090E080E00E94B50855CFC7019370D110D7
:103AF00002C090E080E00E94CB084CCF8E2DDD20EC
:103B000029F00E94A40F0E94DC0D44CF0E94B00E49
:103B1000FACF8F2D837009F066C0D1103BCF8E2D68
:103B2000829586958770880F880F6E2D6F70462E50
:103B3000512C712C612C082E04C0440C551C661CA1
:103B4000771C0A94D2F740E050E0BA01E4FE0FC0BF
:103B50004FE050E060E070E004C0440F551F661F66
:103B6000771F8A95D2F740955095609570958F2D67
:103B7000869586958370823019F1D8F48090EA0496
:103B80009090EB04A090EC04B090ED04813069F0CB
:103B90004429552966297729CB01BA016821792161
:103BA0008A219B210E94A60EF5CE482859286A2812
:103BB0007B28CB01BA016429752986299729F2CF80
:103BC00044295529662977294090EA045090EB044E
:103BD0006090EC047090ED04CB01BA01642575256A
:103BE00086259725DFCF8695DD2011F08F2D8170FA
:103BF000882309F4CFCE8E2D829586958770880F05
:103C0000880F6E2D6F70462E512C712C612C082E52
:103C100004C0440C551C661C771C0A94D2F740E083
:103C200050E0BA01E4FE0FC04FE050E060E070E009
:103C300004C0440F551F661F771F8A95D2F7409521
:103C40005095609570958F2D8695869583708230FE
:103C500019F1D8F48090C0059090C105A090C205DC
:103C6000B090C305813069F0442955296629772928
:103C7000CB01BA01682179218A219B210E94200E63
:103C800089CE482859286A287B28CB01BA016429A3
:103C9000752986299729F2CF44295529662977293C
:103CA0004090C0055090C1056090C2057090C3055A
:103CB000CB01BA016425752586259725DFCF9F2D79
:103CC0009F70F92EDD2029F0892F0E94850E8E2D00
:103CD000BFCE8E2D0E94A0088F2D0E94460E5ACE78
:103CE0008E2DE2EF8E1609F457C0E81578F0F0EF4C
:103CF0008F1649F121EF821609F446C0DD2009F440
:103D00006FC0A1102ACE8F2D8F7143C033EF831661
:103D100009F447C094EF8912F1CFDD2009F455C0B2
:103D20002F2D2F71F22E822F0E94850E8091EF048D
:103D300082FD07C038E0F39EC001112483608093A8
:103D4000E5048F2D26C0DD20D1F0E4E0EA1508F46B
:103D500021CE2F2D2F7161E070E080E090E004C053
:103D6000660F771F881F991F2A95D2F74090C005CC
:103D70005090C1056090C2057090C3059BCFF5E0DF
:103D8000FA1508F407CEE5CF8F2D8F71DD2009F4E9
:103D9000A4CF0E94850EFECD8F2D8F71DD20C9F33B
:103DA0009CCF60E070E0CB01DD2009F467CF2F2DC0
:103DB0002F7161E070E080E090E004C0660F771F33
:103DC000881F991F2A95D2F759CF81E00E94690E6A
:103DD00081E08A1508F0DECD82E00E94690EDACD1E
:103DE000AA2059F0893309F06BCE9FEFE7EEF3E09C
:103DF0009150E040F040E1F761CE8F2D8F716DCF93
:103E0000F0E1EF16FFE5FF0609F474CB21E1E216BD
:103E10002FE5F20609F478CB92E7E916F10409F4EC
:103E200075CBE3E7EE16F10409F488CBF3EFEF1658
:103E3000FCE5FF0609F4F3CB08F08ACB38EDE31676
:103E40003CE5F30609F4E7CB99EDE9169CE5F906A4
:103E500009F4F1CBE7EDEE16ECE5FE0609F089CBAF
:103E600026E241EE61EEC8010E94CD144ACA30E15B
:103E7000E3163FE5F30609F443CB91E1E9169FE52C
:103E8000F90651F682E03DCB85E0DE011196019006
:103E90000D928A95E1F7F801228189819A81211199
:103EA0000ACA0E944208F82E0ECAF6E1EF16FCE597
:103EB000FF06E1F58091650469E2811165E388E11F
:103EC00093E00E949807BECC82722AECE2162CE5A1
:103ED000F20609F4E5CC08F084C095ECE9169CE5FF
:103EE000F90609F4C9CC08F063C0F3ECEF16FCE561
:103EF000FF0609F4B5CC08F0BACC32ECE3163CE589
:103F0000F30609F4A2CC3AE5E3163DE5F30609F41D
:103F100001CD08F0DACCE1149CE5F90609F4EACC0D
:103F2000EEEDEE16ECE5FE0609F4F1CCF801828127
:103F3000E080F180882309F4F1CCC7010E94991236
:103F4000D82E682FC7010E946A08B7018D2D0E94E4
:103F50000F117C01882EF801D280A580A2943FE049
:103F6000A3228091E5048770A1F0CD2CDD2091F093
:103F70008F2D807F803421F080E28E0D883048F0D4
:103F800082E00E94690E8091E5048770CC24C3947E
:103F90008111C12C3F2C32942FE03222FBE0F3152B
:103FA00008F4F8CCE32DF0E0E05FFF4C0C94C92E50
:103FB00097ECE9169CE5F90609F468CC08F461CCA5
:103FC000F8ECEF16FCE5FF0609F465CC40EE58E18D
:103FD0006CEE78E129ECE2162CE5F20609F444CC0B
:103FE00092CF3FECE3163CE5F30609F46CCCB0F459
:103FF000ECECEE16ECE5FE0609F45CCC08F455CCCE
:104000002DECE2162CE5F20609F459CC85E03EECE5
:10401000E3163CE5F30609F453CC75CF86EDE816BC
:104020008CE5F80640F482E191EDE9169CE5F9068D
:1040300008F446CC66C9EDE5EE16FE0609F461C942
:1040400062CF1F93CF93DF9380916C04807FA9F49C
:1040500080916904882389F080919E04D0916D0439
:104060006091670470916804A0916A04B0916B0438
:10407000C62FC72316E0D81304C0DF91CF911F913C
:10408000089590E0109711F0CF3F19F401968770D2
:10409000F2CF189F9001199F300D1124F901E259B8
:1040A000FB4F41814713F2CF40814613EFCF42814E
:1040B0004111ECCF438154814A1B5B0B483C5105B5
:1040C00028F780916C048F70806180936C04F901F3
:1040D000ED58FB4F80818F708061808387E694E08C
:1040E0000E942219DF91CF911F910C949608AF92F4
:1040F000BF92CF92DF92EF92FF920F931F93CF93D5
:10410000DF93CDB7DEB761970FB6F894DEBF0FBE71
:10411000CDBF8C0185E0F801DE011D9601900D9266
:104120008A95E1F7F80180819181E28027E6A22E4D
:1041300024E0B22E60916A0470916B0461157105E0
:1041400009F43EC13091670440916804232F242371
:104150002F3F09F435C1C380D480F0906904F60183
:10416000E61BF70BFF2009F4FBC020916C04522FD3
:10417000507FE83CF10508F0BBC0511178C0FE2C1F
:10418000491321C038131FC0E1101DC02F702061DA
:1041900020936C04C5010E94221980916C04F801DF
:1041A00085838F2D61960FB6F894DEBF0FBECDBF0D
:1041B000DF91CF911F910F91FF90EF90DF90CF9003
:1041C000BF90AF900895CD2829F0282F29232F3FA5
:1041D00009F014C120E0F22FF170DF2E20FF3DC066
:1041E00020919E0440916D0456E0241315C08D87E4
:1041F0009E878D859E850E94DB12292F22952F7028
:104200002230F8F0243020F59F70F9F0F801958104
:10421000907FD9F4D12C1FC030E0529FF001539F02
:10422000F00D1124E259FB4F6181961306C06081A5
:10423000861303C06281E61210C02F5F3F4F2770C4
:10424000D4CF9F7011F0882329F3805E883010F35B
:10425000C8010E942219FD2CA4CFEE2009F4A1CFA1
:1042600080916C04816080936C04F12C9ACF491387
:1042700012C0381310C0E1100EC0F8012583C80128
:104280000E94221986E0F801A7E6B4E001900D92A1
:104290008A95E1F786CF8D879E878D859E850E94C2
:1042A000E512882309F1EE20F9F080916C04803248
:1042B00070F0209167043091680438872F83198645
:1042C000DB86CA868C87CE0107960E94221986E07B
:1042D000F801A7E6B4E001900D928A95E1F70E94FB
:1042E0002120FF24F3945DCFC8010E942219F9CF49
:1042F00051110AC087E694E00E94221986E0F50178
:1043000011928A95E9F7B1CF49130FC038130DC048
:10431000E1100BC0F8012583C8010E94221986E034
:10432000F50111928A95E9F73CCF8D879E878D859F
:104330009E850E94E5128823B9F2EE20A9F28091B1
:104340006C04803220F220916704309168043A8333
:1043500029831B82DD82CC828E83CE010196B5CF6C
:10436000E83CF105E0F6FE2CEE2009F4BDCF491340
:1043700016C0381314C080916C0480FD83CF982F31
:10438000907F09F47FCFF8018583903F09F477CFC0
:10439000982F907F905F8F70892B858370CF8D874A
:1043A0009E878D859E850E94E512811190CF809118
:1043B0006C04816080936C04C8010E942219F1CEC4
:1043C000EE2009F491CF8D879E878D859E850E9472
:1043D000E512F82E882309F487CF86E0F801A7E6D6
:1043E000B4E001900D928A95E1F780916704909175
:1043F00068040E94DB120E942120D3CE21E02E25EA
:10440000EACE1F93CF93DF93CDB7DEB767970FB692
:10441000F894DEBF0FBECDBF342F4B8B252F5C8BA6
:104420006D8B7E8B8F8B8E899F8961111092E70433
:104430001A8A198A3D872E876F87998B888B86E029
:10444000FE013D96DE01179601900D928A95E1F7E7
:10445000CE0107960E947720882389F016E080918C
:104460009E0490916D04891349C067960FB6F89425
:10447000DEBF0FBECDBFDF91CF911F91089586E0C3
:10448000FE013796DE01119601900D928A95E1F7B3
:104490008A859B85892B11F38F81988589238F3F8E
:1044A000E9F220916D0430E0C901019687709927E7
:1044B00040919E044817190671F40E94C31510928A
:1044C0006D0410929E0486E0E7E6F4E0DF011D92A1
:1044D0008A95E9F7C3CF96E0929FD001939FB00DE4
:1044E0001124A259BB4FFE01319601900D929A956D
:1044F000E1F780936D040E949608B0CF819FC001C0
:10450000112482599B4F0E947720882309F4ADCF54
:1045100080919E0490E001968770992780939E0475
:104520009ECF6F927F929F92AF92BF92CF92DF9277
:10453000EF92FF920F931F93CF93DF9300D000D0A1
:104540000F92CDB7DEB701E511E080EFE82E84E0F1
:10455000F82E98E5A92E91E0B92E912CCC24C39485
:10456000D12CF80181918F01F894E82FE295EF703A
:10457000F0E021A18F70A60102C0440F551F8A955B
:10458000E2F7CA01922F982B91A392A180958923DB
:1045900082A3789400C0E8E5F1E030E020E0712CDF
:1045A000612C4191A42FA295AF70B0E090968C91B0
:1045B00090E04F7002C0959587954A95E2F780FD8F
:1045C00078C0C601022E02C0880F991F0A94E2F734
:1045D000682A792A2F5F3F4F2F30310511F7F801F4
:1045E000319780810E94741050EA5A95F1F7F701D3
:1045F000808191816816790609F45EC071826082BB
:1046000081E0982AF2E0EF0EF11CA016B10609F045
:10461000A8CF992009F452C081E080933A030E9408
:104620008C079093390380933803809138039091DD
:1046300039030E947107069708F444C08091F00482
:104640009091F10490935705809356058091F20460
:104650009091F30490935905809358058091F40448
:104660009091F50490935B0580935A058091F60430
:104670009091F70490935D0580935C058091F80418
:104680009091F90490935F0580935E058091FA0400
:104690009091FB0490936105809360058091FC04E8
:1046A0009091FD04909363058093620510923A0304
:1046B00009C090E080E08CCF80E0A3CF80913A03E6
:1046C0008111B3CF809136058823A9F0869539F101
:1046D00083E0898385E08A831B820E948C07816046
:1046E000782F9D838C831092360549815A816B8186
:1046F0008D810E940122892D0F900F900F900F90B5
:104700000F90DF91CF911F910F91FF90EF90DF906D
:10471000CF90BF90AF909F907F906F90089584E06E
:10472000D8CFE7ECF5E0248130E1230F08F42FEF38
:1047300024830C949F18E7ECF5E0248130E1231BDF
:1047400008F420E024830C949F18E7ECF5E085E35F
:1047500080838091150190911601A09117018183AA
:104760009283A3838FE784838FEF85830C949F18B4
:104770001F920F920FB60F9211242F933F934F93D6
:104780005F936F937F938F939F93AF93BF93CF93D9
:10479000DF93EF93FF93D091E900DF708091EC00FD
:1047A000C82FC17080FDC0E81092E9008091F00030
:1047B000877F8093F00078940E94D8151092E900CA
:1047C0008091F00088608093F000CD2BCF70C09373
:1047D000E900FF91EF91DF91CF91BF91AF919F9150
:1047E0008F917F916F915F914F913F912F910F909A
:1047F0000FBE0F901F9018951F920F920FB60F9239
:1048000011242F933F934F935F936F937F938F93D5
:104810009F93AF93BF93EF93FF938091E10082FF4B
:1048200009C08091E20082FF05C08091E1008B7F8A
:104830008093E1008091DA0080FF24C08091D8004D
:1048400080FF20C08091DA008E7F8093DA00809113
:10485000D90080FF9BC080E189BD82E189BD09B498
:1048600000FEFDCF81E08093890580916405811170
:1048700009C00E94F0030E94BB048091E2008460A2
:104880008093E2008091E10080FF17C08091E200F8
:1048900080FF13C08091E2008E7F8093E2008091C0
:1048A000E20080618093E2008091D8008062809372
:1048B000D80019BC85E0809389058091E10084FFD0
:1048C00029C08091E20084FF25C080E189BD82E19A
:1048D00089BD89B5982F917080FFFBCF8091D8005A
:1048E0008F7D8093D8008091E1008F7E8093E100DE
:1048F0008091E2008F7E8093E2008091E2008160EF
:104900008093E20080918A05882309F445C084E001
:10491000809389058091E10083FF27C08091E200A8
:1049200083FF23C08091E100877F8093E10082E0D4
:104930008093890510928A058091E1008E7F809393
:10494000E1008091E2008E7F8093E2008091E2009E
:1049500080618093E20042E060E080E00E94890490
:104960008091F00088608093F000FF91EF91BF91FB
:10497000AF919F918F917F916F915F914F913F91F7
:104980002F910F900FBE0F901F90189519BC109289
:1049900089051092640576CF8091E30087FD93E04E
:1049A00090938905B7CFCDB7DEB7AB970FB6F89424
:1049B000DEBF0FBECDBF84B7877F84BF0FB6F8942C
:1049C000A8958091600088618093600010926000DB
:1049D0000FBE80E890E00FB6F8948093610090934A
:1049E00061000FBE85B7806885BF85B7806885BFC9
:1049F0008CE697E090931703809316030E94F003D0
:104A00000E94BB048091E20084608093E20078946D
:104A1000809189058823A1F01091E9001F70909181
:104A2000EC00892F817090FD80E8182B1092E9002E
:104A30008091E80083FD0E94D8151F701093E90053
:104A400082E084BD93E095BD9AEF97BD80936E00A0
:104A500001E511E0D8018D918D010E947410B1E043
:104A600008351B07B9F708E511E077E6C72E71E0B6
:104A7000D72EF80181918F010E947410C016D106C3
:104A8000C1F7E0EFF4E0A6E5B5E0119211921D92B6
:104A90001D9224E0EE3FF207C1F790E080E00E9413
:104AA000592F8A3E9E4F11F00E94581582E090E0E7
:104AB0000E944B2F809347050E94CE109093EF04E5
:104AC0008093EE040E9491228FE39CE90197F1F715
:104AD00000C000000E9491228091560580FF17C0FF
:104AE0006FEF83E290E00E946F2F6FEF84E290E01F
:104AF0000E946F2F6FEF85E290E00E946F2F6FEFA3
:104B00007FEF90E080E00E948D2F0E948C1483E064
:104B100090E00E944B2F682F70E090E080E00E94B0
:104B2000A60E109293058FEF9FEF9093AD058093A3
:104B3000AC059093AF058093AE059093B10580933B
:104B4000B0059093B3058093B2059093B50580931B
:104B5000B4059093B7058093B6059093B9058093FB
:104B6000B8059093BB058093BA051092FF0490930B
:104B700019058093180590931B0580931A0590934F
:104B80001D0580931C0590931F0580931E0590932F
:104B9000210580932005909323058093220590930F
:104BA000250580932405909327058093260590E0A2
:104BB00080E00E94592F8A3E9E4F21F00E94581596
:104BC0000E94A52346E050E06CE170E087EC95E0A0
:104BD0000E943B2F8091C7058C7F11F40E94A52372
:104BE00083E290E00E944B2F813211F00C94292E29
:104BF00084E290E00E944B2F813111F00C94292E19
:104C000085E290E00E944B2F833011F00C94292E06
:104C10002198299A22982A9A83B1869581701A99A7
:104C2000B8C090E0892B8093390583E190E00E9421
:104C3000532F60932E0570932F058093300590932A
:104C4000310586E091E090932D0580932C0510E4CA
:104C50008091890550E1E52E62E1F62E853009F458
:104C6000D3C00E94912281110E948007E8E4F5E000
:104C7000A6E5B5E0F12CE12C6E2DCD90DD902191D3
:104C800031912C153D0509F49BC22C253D2500E0F2
:104C9000AA24A394B12CA9014A215B21452B09F434
:104CA00089C209A36AA3CA20DB2081E0C114D10410
:104CB00009F480E08BA30E948C078160782F9DA36C
:104CC0008CA349A15AA16BA18DA10E940122F701D9
:104CD000EE0FFF1FE85BFA4F80819181A826B9266D
:104CE000B182A082CD2871F08FE08E9DF0018F9D62
:104CF000F00D1124EA57FE4FE00FF11D80818F3F28
:104D000009F08CC000E0A090FF04E02EF12CC70158
:104D10008A0D911D099764F1B8E0CB2ED12CCE18E5
:104D2000DF08B70160507B4FA60180E095E00E944C
:104D3000322FB701685F7A4FA60188E095E00E94A4
:104D4000322FA601440F551FB701660F771F685E0B
:104D50007A4F88E195E00E94322FB701605F7A4F69
:104D6000A60180E195E00E94322FAA94A092FF0450
:104D70008091FF0490E0EBA5AE2FB0E09D01220FE3
:104D8000331F21513E4FAA0FBB1FBD0160517E4F03
:104D90005DC092E047CF80918905843019F110926F
:104DA000FE04E8E1F0E00FB6F894A895E093600007
:104DB0000FBE1093600083B7817F846083BF83B789
:104DC000816083BF7894889583B78E7F83BF0FB649
:104DD000F894A8958091600088618093600010929B
:104DE00060000FBE80918805882371F00E94912297
:104DF000E6E5F5E081919191892B09F014C724E64D
:104E000035E02E173F07B1F780918905853009F409
:104E1000C2CF0E94C3150E94E10823CF8BA701E0F7
:104E200072CF90E0FC01E150FB4FD9015C915183BE
:104E3000DB015C915187BBA5B18B880F991FFC01E9
:104E4000E150FB4F128E118E91E0842F41E0480F0C
:104E5000901738F38093FF04C0902805D09029055F
:104E6000E0902A05F0902B058FB7F894409032051A
:104E70005090330560903405709035058FBF530115
:104E800042018C189D08AE08BF080E9480076093FD
:104E900028057093290580932A0590932B05A091EE
:104EA000FF04EFEFF4E02A2F30E04FEFC40ED41EE2
:104EB000E11CF11CC418D508E608F708A31399C132
:104EC0002093FF043091C705532F5370D52E19F04E
:104ED000D32ED694D69420911401213009F4B3C175
:104EE000222309F499C1223009F411C5233009F4B1
:104EF00018C5E0913905EE0FEE0FE093390583B147
:104F000081FB222420F81A992BC580E08229E82B06
:104F1000E0933905EF70F0E0E959FE4F8081909100
:104F20003805890F8093380520E08430DCF08091CB
:104F300037058F5F8093370584E0898385E08A8316
:104F4000FF24F394FB820E948C078160782F9D835D
:104F50008C83F092360549815A816B818D810E9444
:104F6000012221E0809138058D3FDCF480913705E6
:104F700081508093370583E0898385E08A8381E0CF
:104F80008B830E948C078160782F9D838C8382E0C5
:104F90008093360549815A816B818D810E9401225F
:104FA00021E080913805082E000C990B64E070E038
:104FB0000E94B52E8093380521110E94800786E05B
:104FC000E0E4F5E0DE01119601900D928A95E1F79B
:104FD000D0904205C0904305F0904405E09045050F
:104FE0001092420510924305109244051092450517
:104FF0008D2D8C2909F448C080913E0590913F0584
:105000000E9471079C0190913D05992309F449C6BE
:1050100023333105C8F19F3F19F09F5F90933D0501
:10502000DD2059F00E94840F9FEF1D140CF491E0D5
:10503000899F802D112480934205CC2059F00E9435
:10504000840F9FEF1C140CF491E0899F802D112494
:1050500080934305309142053323B1F020914305FD
:10506000222391F045EB3403C0011124992309F464
:105070007AC49093420555EB250390011124332304
:1050800009F475C4309343058F2D8E2909F448C067
:1050900080913B0590913C050E9471079C01909185
:1050A0003A05992309F4F8C525363105C8F19F3F23
:1050B00019F09F5F90933A05FF2059F00E94620F0C
:1050C0009FEF1F140CF491E0899F802D1124809391
:1050D0004405EE2059F00E94620F9FEF1E140CF45D
:1050E00091E0899F802D11248093450530914405DE
:1050F0003323B1F020914505222391F045EB340391
:10510000C0011124992309F436C49093440555EB4A
:10511000250390011124332309F431C4309345054C
:105120008091420590914305892B90914405892BEC
:1051300090914505892B11F00E94DC0D86E0FE015F
:105140003196A0E4B5E001900D928A95E1F70E94B6
:10515000E10890914605891721F00E94E1088093AB
:10516000460580918905843009F072CD83E08093F3
:10517000E9008091E80082FF6BCD8091E80090E02B
:1051800085FF06C00E940F04882309F4FCC391E048
:105190008091E8008B778093E800992309F458CD3B
:1051A000E981E150E33108F06CC4F0E0E45EFF4CCB
:1051B0000C94C92E0F5FAA0CBB1C0F3009F06BCDED
:1051C0002FEFE21AF20A37E0E316F10409F054CDAA
:1051D0008FEF8EA38FA318A60E948C078160782F73
:1051E0009AA789A74EA15FA168A58AA50E9401225E
:1051F00033CE418D528D2A01712C612CC414D504FB
:10520000E604F70420F421503F5F329657CE480D54
:10521000591D528F418FF8CF109211016093BC0538
:105220007093BD058093BE059093BF0589E2EFEFB3
:10523000F4E0A3E9B5E001900D928A95E1F781E0F1
:105240008093140156CE9091050181E0D9120BC0D4
:10525000832F83702091040130E091E082171306C0
:1052600009F490E0892F8170809313018091CC051F
:1052700090911201981739F08093120140E060E09C
:1052800080E00E94080987E28D1550F0ED2DF0E0D6
:10529000E15DFF4C0C94C92E80911301811102C075
:1052A00000E027C040E060E080E00E940809F8CFFD
:1052B000E090110184E1E89EE02C112454E1C52E18
:1052C000CE0C0C2D92E69C1508F402E66091C80500
:1052D0007091C9058091CA050E947C0AA62E972E5E
:1052E000882EF12CE01608F44AC001E0B1E6BC15A6
:1052F000B8F2809111018F5F809311010111D6C224
:1053000092E090931401909113019111CFC2DD208E
:1053100009F405C394E1899FD02C11246CEEA62ECC
:10532000AD0CCD2C52E65D1510F452E6C52E8091E1
:105330002E0580FDBFC2E0912C05F0912D05309720
:1053400009F0D2C280912E0581FFD3CD41E5E42E34
:10535000F12CB12CD12CEA14FB0448F0CE14DF045C
:1053600030F020E040E060E0C7010E940A09AFEFA2
:10537000EA1AFA0AB2E6EB16F10469F7BACDF701B8
:10538000ED54FD4F808190911201892331F0282D39
:105390004A2D692DC7010E940A09AFEFEA1AFA0ADD
:1053A000A1CFE090110184E1E89EE02C112444E1BA
:1053B000C42ECE0C0C2DE2E6EC1508F402E660904B
:1053C000C9057090CA05F090C8056F2D762D872D00
:1053D0000E947C0AA62E972E882E6091CB056F0D19
:1053E000762D872D0E947C0A762E672E582EF12C62
:1053F000E01630F001E021E62C1508F07ACF50CF0E
:10540000F701ED54FD4F908180911201892359F0ED
:10541000252D472D662D90FD03C0282D4A2D692D81
:10542000C7010E940A09FFEFEF1AFF0AE1CFE090DF
:10543000110184E1E89E802D112434E1C32EC80EB1
:105440000C2D32E63C1508F402E69090C9058090D8
:10545000CA052091CB05412F429F412D1124B42E26
:10546000E82EF12CE01630F001E081E68C1508F012
:1054700040CF16CFF701ED54FD4F8081909112017E
:105480008923B9F0F701EE0FFF1FE051FE4F808135
:1054900082958F706091C8058B9D600D1124792DC8
:1054A000882D0E947C0A462F282F672FC7010E9453
:1054B0000A095FEFE51AF50AD5CFE090110184E102
:1054C000E89E802D112494E1C92EC80E0C2D92E681
:1054D0009C1508F402E69090C9058090CA052091B9
:1054E000CB05312F329F312D1124B32EE82EF12C14
:1054F000E01630F001E051E65C1508F0FACED0CEAF
:10550000F701ED54FD4F8081909112018923D9F06C
:10551000F701EE0FFF1FE151FE4F6081B69EB00113
:10552000112485E0759567958A95E1F78091C80506
:10553000680F792D882D0E947C0A462F282F672F0F
:10554000C7010E940A094FEFE41AF40AD1CFE09094
:10555000110184E1E89EE02C1124A4E1CA2ECE0CB6
:105560000C2D82E68C1508F402E6A090C805F09098
:10557000C9059090CA056091CB05669566956695BC
:105580008091BC059091BD050E94720A0E94D809C5
:10559000805887FD8195880F282F392D239F212D35
:1055A0001124822F6A2D7F2D0E947C0AA62E972E11
:1055B000882EF12CE01608F09DCFF701ED54FD4F39
:1055C000808190911201892331F0282D4A2D692D77
:1055D000C7010E940A094FEFE41AF40AEBCF83E4F3
:1055E00097E00E94E90B082F84CE89E197E0F9CF7C
:1055F0008AEB99E00E948D0BF6CF8BE999E0FACF08
:1056000080E899E00E94100BEECF84E699E0FACF93
:1056100087E197E0E6CF8EE097E0E3CF85E097E083
:10562000E0CF8CEE96E0DDCF8EED96E0EBCF8AE416
:105630009AE0E0CF83E599E0DDCF8FE399E0E2CF18
:1056400081EB96E00E94370CCECF83E896E0FACF4C
:105650008CE496E0F7CF0091130101111EC0609118
:10566000CB0520E1620F08F46FEF8091BC059091AB
:10567000BD050E94720A6AE070E00E94A12E892B8B
:1056800009F00ECE0E94222F62E670E00E94B52E35
:10569000609112010E94AB132CCEE090110184E1C5
:1056A000E89E802D1124F4E1CF2EC80E9C2DA2E699
:1056B000AC1508F492E6E82EF12CA92EB12CEA14D0
:1056C000FB0434F001E0E1E6EC1508F012CEE8CD81
:1056D00060911201C7010E94AB13BFEFEB1AFB0AE6
:1056E000EECF0091130101111EC06091CB0520E1A6
:1056F000620F08F46FEF8091BC059091BD050E9488
:10570000720A65E070E00E94A12E892B09F0C8CDD5
:105710000E94222F62E670E00E94B52E6091120175
:105720000E948913E6CDE090110184E1E89E802D6E
:105730001124E4E1CE2EC80E9C2DF2E6FC1508F4EF
:1057400092E6E82EF12CA92EB12CEA14FB0434F0D9
:1057500001E031E63C1508F0CCCDA2CD60911201FC
:10576000C7010E9489132FEFE21AF20AEECFE090F0
:10577000110184E1E89EE02C112474E1C72ECE0CC7
:105780000C2D42E64C1508F402E69090C905A09055
:10579000CA05F090C8056091CB056695669566953B
:1057A0008091BC059091BD050E94720A0E94D809A3
:1057B000805887FD8195880F682F2CE0629F612DAE
:1057C00011246F0D792D8A2D0E947C0AA62E972E0A
:1057D000882EF12CE01608F047CEF701ED54FD4F6E
:1057E000808190911201892331F0282D4A2D692D55
:1057F000C7010E940A095FEFE51AF50AEBCF87EFB0
:1058000099E0EFCE8BE396E0ECCE84E396E00E9445
:10581000990CE9CE8EE296E0FACF8091930521E0D3
:10582000382F321B08F430E0832F65E176E00E94C8
:10583000120DD9CE65E176E080E0F9CF8091930535
:1058400021E0482F421B08F440E0842F6AED75E008
:10585000EECF6AED75E0F0CF8091930521E0582FEF
:10586000521B08F450E0852F68EA75E0E0CF68EA43
:1058700075E0E2CF8091930521E0382F321B08F4C8
:1058800030E0832F60E975E0D2CF60E975E0D4CFD6
:105890008091930521E0482F421B08F440E0842FBB
:1058A0006AE775E0C4CF6AE775E0C6CFDD2009F48A
:1058B00020CB30CDF12CE12C8A2C912C6C2C712C2E
:1058C000E814F90448F06E147F0430F020E040E062
:1058D00060E0C7010E940A098FEFE81AF80A91E513
:1058E000E916F10469F727CD0190F081E02D0995C3
:1058F00081FF28CD8CED8D0D853108F023CD2FEF64
:105900004FEF60E084E290E00E940A091BCDD09244
:105910000501832F8370809304010E94311583E079
:105920008FCC4091BC055091BD056091BE05709132
:10593000BF052FB7F8948091320590913305A0915F
:105940003405B09135052FBF841B950BA60BB70B03
:105950004097A105B10508F4CCCA10921401C9CA38
:1059600082E090E0D3CA81E08093420584CB81E05D
:105970008093430589CB81E080934405C8CB81E0C7
:1059800080934505CDCB30E2E32EF12CCE0101967C
:105990006C018091E80085FD0AC08091E8008B775A
:1059A0008093E8000E940F04882399F3F0CB809144
:1059B000F100D6018D936D01B1E0EB1AF10849F7C2
:1059C000E6CB1A8289E08B8311C08A81823009F488
:1059D0005AC18330A9F1813009F053C00E94800779
:1059E0000E94CF2E6B837C838D839E83809189055B
:1059F000843009F02DC9F090E900FF2DFF70FF2ED3
:105A00009091EC00892F817090FD80E8F82A82E067
:105A10008093E9008091E80080FF0DC050E040E0F5
:105A200060E270E0CE0101960E9440048091E8009F
:105A30008E778093E8008F2D8F708093E90008C9DE
:105A4000DE011196E6E5F5E08081918132961296AD
:105A50009C93129713968C931397129625E0E43635
:105A6000F20791F7C3CF8A81823059F46B817C8130
:105A70008D819E810E94CF2E86E290E00E946F2F42
:105A8000B5CF8FEF8983B2CF4C816B818A810E9421
:105A9000DC109827892798279E838D83A7CFCD80F8
:105AA000DE80DC24CD24DC248A81EB803EE1E39E91
:105AB0007001112442ED849FE00CF11C11248C81B3
:105AC00090E0880F991FE80EF91E6D2DC70187968B
:105AD0000E946F2F6C2DC7018896D0CF0E940913AA
