:100000000C942F030C9476030C9476030C947603D3
:100010000C9476030C9476030C9476030C9476037C
:100020000C9476030C9476030C9461280C941D2890
:100030000C945E290C9476030C9476030C9476034E
:100040000C9476030C9476030C9476030C9476034C
:100050000C9476030C943A290C9476030C94760352
:100060000C9476030C9476030C9476030C9476032C
:100070000C9476030C9476030C9476030C9476031C
:100080000C9476030C9476030C9476030C9476030C
:100090000C9476030C9476030C9476030C947603FC
:1000A0000C9476030C9476030C94760305010902F4
:1000B000A10185020901A1000509190129081500FE
:1000C0002501950875018102050109300931158165
:1000D000257F95027508810609381581257F9501D0
:1000E00075088106050C0A38021581257F95017572
:1000F000088106C0C005010980A101850319012AF4
:10010000B700150126B700950175108100C0050CD8
:100110000901A101850419012AA002150126A002E6
:10012000950175108100C005010906A1018506052C
:100130000719E029E71500250195087501810205D9
:1001400007190029EF1500250195F07501810205B9
:10015000081901290595057501910295017503910D
:1001600001C00660FF0961A1010962150026FF00B8
:100170009520750881020963150026FF00952075FA
:10018000089102C005010906A101050719E029E748
:1001900015002501950875018102950175088101F9
:1001A0000507190029FF150026FF0095067508812F
:1001B000000508190129059505750191029501753C
:1001C000039101C0000000000000000000000000DA
:1001D000000000000000000000000000000000001F
:1001E00000000000000000007E0F00D4FFFFFFC7EA
:1001F0000000007800000000000000002A2B28000A
:1002000000000000000000000000000000000029C5
:10021000000000002C1E3420212224342627252E05
:10022000362D3738271E1F2021222324252633333D
:10023000362E37381F0405060708090A0B0C0D0E69
:100240000F101112131415161718191A1B1C1D2F35
:100250003130232D350405060708090A0B0C0D0E55
:100260000F101112131415161718191A1B1C1D2F15
:100270003130354C0001010101010101010102028F
:100280000202020202020203030303030303030444
:10029000040404040404050505050506060606060F
:1002A000070707070708080808090909090A0A0AC9
:1002B0000B0B0B0C0C0C0D0D0D0E0E0E0F0F0F106B
:1002C00010111111121213131414151516161717F5
:1002D000181819191A1A1B1B1C1D1D1E1E1F202061
:1002E000212222232424252626272829292A2B2CAB
:1002F0002D2D2E2F30313232333435363738393ACE
:100300003B3C3D3E3F404142434445464748494AC5
:100310004C4D4E4F50515354555658595A5B5D5E93
:100320005F616264656668696B6C6D6F707273752E
:1003300077787A7B7D7E8082838587888A8C8E8F92
:1003400091939596989A9C9EA0A2A3A5A7A9ABADC0
:10035000AFB1B3B5B7BABCBEC0C2C4C6C9CBCDCFAE
:10036000D1D4D6D8DBDDDFE2E4E7E9EBEEF0F3F55C
:10037000F8FAFDFF29001E001F00200021002200C6
:10038000230024002500260027002D002E002A002F
:100390004C002B0014001A000800150017001C0068
:1003A00018000C00120013002F00300031004B0029
:1003B000390004001600070009000A000B000D00B8
:1003C0000E000F0033003400000028004E00E10052
:1003D00000001D001B0006001900050011001000A0
:1003E000360037003800E5005200C25CE000E30050
:1003F000E200A900AA0000002C000000000000009C
:10040000E6000151500051004F0035003A003B001A
:100410003C003D003E003F004000410042004300E0
:10042000440045000100C55CC25C01000100010000
:1004300001000100010001000100010001000100B4
:1004400001000100C65C0100010001000100010083
:100450000100010001000100010001000100000095
:100460007200C75C010000000100010001000100F2
:100470000100010001000100010001007300C95CDE
:10048000C85C010001000100010001000000010042
:10049000000000000000C35C0100CC5CCA5CCB5CC7
:1004A0000100010001000100010001000100010044
:1004B0000100010001000100010001000100010034
:1004C0000100010001000100010001000100010024
:1004D0000100010001000100010001000100010014
:1004E0000100010001000100010001000100010004
:1004F00001000100000001000100010000000100F6
:1005000001000100010001000100010001000100E3
:1005100001000100010001000100010001000100D3
:1005200001000000010000000000000001000100C7
:1005300001000100010001000100010001000100B3
:1005400001000100010001000100010001000100A3
:100550000100010001000100010001000100010093
:100560000100010001000100010001000100010083
:100570000100010001000100010001000100010073
:100580000100010001000100010000000100010064
:100590000100000001000100010001000100010054
:1005A0000100010001000100010001000100010043
:1005B0000100010001000100000001000000000036
:1005C00000000100010001000100010009025B00C0
:1005D000030100A0FA090400000103010100092140
:1005E00011010001224000070581030800020904EF
:1005F0000100020300000009211101000122220074
:1006000007058203200001070503032000010904F8
:100610000200010300000009211101000122B600BF
:10062000070584032000021201000200000008A157
:100630007B02650100010200010A034D00570036EC
:10064000003500000012034D005700530074007580
:1006500000640069006F0000000403090400112415
:100660001FBECFEFDAE0DEBFCDBF04B603FE27C06A
:100670008091730590917405A0917505B0917605F0
:100680008730904BA740B04BD1F410927305109275
:100690007405109275051092760514BE84B7877F95
:1006A00084BF0FB6F894A89580916000886180930C
:1006B0006000109260000FBEE0E0F8E3099525E0CD
:1006C000ACECB2E001C01D92A337B207E1F712E033
:1006D000A0E0B1E0E4E8F1E602C005900D92AC3C88
:1006E000B107D9F70E9485290C945F300C94000063
:1006F00090916D05937061F081110BC0946090939F
:100700006D051092180180916C05816080936C05D5
:1007100008958A3210F0946AF2CF880F880F982BD0
:10072000EECF90916D05937071F080936E0560939C
:100730006F05493C08F048EC4093700580916C05CA
:10074000816080936C050895E8EDF0E080818E7FF4
:1007500080831092E2001092DA001092E100A0EE85
:10076000B0E08C9181608C9380818F77808319BCFD
:10077000A7EDB0E08C918E7F8C9380818F7E8083FB
:1007800010920C0508952091E4003091E50095E663
:10079000A9012091EC00822F817020FF06C080917A
:1007A000E80080FF06C080E008952091E80022FD67
:1007B0001AC080913105882389F0853089F08091B5
:1007C000EB0085FD0FC02091E4003091E500421759
:1007D0005307F9F29150E1F684E0089582E008951C
:1007E00083E0089581E00895EF92FF920F931F93A5
:1007F000CF937C018B010E94C303C82F811117C0C6
:100800008091E80085FD0BC08091E8008E77809391
:10081000E8000E94C303882399F3C82F08C0F7019A
:1008200081917F018093F1000150110949F78C2FCC
:10083000CF911F910F91FF90EF9008958091330514
:1008400087FF13C08091E80082FF06C08091E80016
:100850008B778093E80004C0809131058111F2CF3D
:100860000895809131058823D9F38091E80080FFB5
:10087000F8CF8091E8008E77ECCF982F9093E90025
:10088000242F762F50E0891731F07091EC002091E1
:10089000ED005091F00021FD07C09F5F973071F788
:1008A0008093E90081E008953091EB003E7F309322
:1008B000EB003091ED003D7F3093ED003091EB0087
:1008C00031603093EB007093EC002093ED00509377
:1008D000F0002091EE0027FDE0CF80E00895CF9258
:1008E000DF92EF92FF920F931F93CF93DF93C8EDA8
:1008F000D0E088818F7E8883E7EDF0E080818160A1
:10090000808384E082BF81E080930C0588818E7FA4
:10091000888302EE10E0F80110821092DA0081EE76
:10092000C82ED12CF601108288818F778883888128
:100930008068888388818F7D888319BC10923105F7
:10094000109232051092300510922F0590EEE92E8C
:10095000F12CF70180818B7F80838881816088837F
:1009600042E060E080E00E943D04F60180818E7FDD
:100970008083F801808181608083808188608083AA
:10098000F70180818E7F8083888180618883DF91F9
:10099000CF911F910F91FF90EF90DF90CF9008952E
:1009A000FC018091390590913A0586179707A0F0D0
:1009B0006115710529F49091E8009E779093E80005
:1009C00090E06115710551F4911108C08091E80023
:1009D00082FF34C080E00895BC01F2CF80913105E0
:1009E0008823C1F18530C1F18091E80083FD30C0DA
:1009F0008091E80082FDEACF8091E80080FFE1CF9E
:100A00008091F3002091F200382F6115710519F0E3
:100A10002830310558F091E02830310509F090E098
:100A20002091E8002E772093E800CBCF819180932E
:100A3000F100615071092F5F3F4FE7CF8091310581
:100A4000882341F0853041F08091E80083FFBECFDC
:100A500081E0089582E0089583E0089508958091EB
:100A60000E0508959C014FB7F8948091030590916D
:100A70000405A0910505B09106054FBF821B930B9D
:100A800008952FB7F8946091030570910405809143
:100A90000505909106052FBF08952FB7F894809112
:100AA000030590910405A0910505B09106052FBF9F
:100AB0000895209114012223C9F02091070527FFF2
:100AC00015C0E62FE695E695E695EE31D8F4E80FE9
:100AD000F92FF11D677021E030E001C0220F6A9507
:100AE000EAF720958281282322830895FC0132961B
:100AF00008962191621303C0DF0111971C92E81739
:100B0000F907B9F70895209114012223C1F020912B
:100B1000070527FF14C0E62FE695E695E695EE312A
:100B2000F8F4E80FF92FF11D677021E030E001C003
:100B3000220F6A95EAF78281822B82830895FC0155
:100B400032962FEF30E04191641751F02F3F19F4A6
:100B5000411101C0232F3F5F3630A9F72F3F09F421
:100B60000895820F911D27FD9A95FC0162830895D7
:100B700020910005309101052817390771F09093F5
:100B8000010580930005E091FE04F091FF04309789
:100B900021F00084F185E02D099408952091FC0452
:100BA0003091FD042817390771F09093FD0480936C
:100BB000FC04E091FE04F091FF04309721F00680E0
:100BC000F781E02D09940895E091FE04F091FF046F
:100BD000309721F00190F081E02D099480E0089594
:100BE000FA01811101C0FB010994E3E0F4E0818383
:100BF00060834283339694E0EC3FF907C1F7089590
:100C0000FC01EE0FFF1FE80FF91FED5FFB4F618343
:100C1000408322830895EDE6F5E0248130E1231B33
:100C200008F420E0248380916C05816080936C053A
:100C30000895EDE6F5E0248130E1230F08F42FEF6D
:100C4000248380916C05816080936C050895EDE6A6
:100C5000F5E0438120E1421B08F440E0818162819C
:100C600090E00C949103EDE6F5E0438120E1420F22
:100C700008F44FEF8181628190E00C949103EDE6DE
:100C8000F5E0628120E1621B08F460E0818143812C
:100C900090E00C949103EDE6F5E0628120E1620FB3
:100CA00008F46FEF8181438190E00C949103EDE6AD
:100CB000F5E08181438162818850990B0C94910306
:100CC000EDE6F5E0818190E04381628108960C9425
:100CD000910380916D0586958695815009F489E28E
:100CE0000C94780380916D05869586958F5F8A3286
:100CF00008F081E00C947803EF92FF920F93970134
:100D0000201B31092F3F310519F010F02FEF30E093
:100D10002095382F320F08F43FEF832F0F91FF906B
:100D2000EF900895EF92FF920F939701201B3109E6
:100D30002F3F310519F010F02FEF30E0322F3095B2
:100D4000482F430F08F44FEF842F620F0F91FF904D
:100D5000EF900895EF92FF920F93972F093438F494
:100D6000B701601B71096F3F710519F010F06FEF4B
:100D700070E0485F5F4F4131510540F0A901485F85
:100D80005F4F4131510510F06FEF70E06095482FD3
:100D9000460F08F44FEF842F37FF02C02D5F3F4FFF
:100DA000359527953595279560916E05620F792FBA
:100DB0000F91FF90EF900895EF92FF920F931F9382
:100DC0000E0D1F2D111DF90137FF03C0F195E1959F
:100DD000F10924E0EE0FFF1F2A95E1F7EF3FF1053F
:100DE00019F014F0EFEFF0E09A0157FF03C03195CE
:100DF0002195310994E0220F331F9A95E1F72E17C0
:100E00003F070CF4F901E00FF11FEF3FF10519F076
:100E100010F0EFEFF0E0E095282F3E2F230F08F4BD
:100E20002FEF822F1F910F91FF90EF900895EF9277
:100E3000FF920F93970195E0099F200D311D11241A
:100E40002F3F310519F010F02FEF30E02095382FAB
:100E5000320F08F43FEF832F0F91FF90EF9008952A
:100E600022E8241B08F420E0620F08954095282F03
:100E7000429F412D1124842F0895E42FF0E0EE0FBE
:100E8000FF1FED52FE4F9081921B97FD9195292FE8
:100E900038E1239F212D1124620F08950F931F9392
:100EA00010E0F801EE0FFF1FED52FE4F90819057BA
:100EB00097FD9195000F111FF801EC52FE4F008134
:100EC0000052110B2003F001219FF00D112408E3C3
:100ED00010E0091B110997FD139540039001419FF4
:100EE000300D1124E20FF31F9F01220F331F2E0F2D
:100EF0003F1F37FF02C021583F4F220F232F221FD1
:100F0000330B620F1F910F9108950F931F93522F70
:100F100010E0F801EE0FFF1FEC52FE4FA081A0522F
:100F2000BB0B9D015203F001539FF00D1124000FE4
:100F3000111FD801AD52BE4F0C910057110B400349
:100F40009001419F300D11242E0F3F1F37FF02C02B
:100F5000215C3F4F96E0359527959A95E1F7620F12
:100F60001F910F9108950F931F93522F10E0F801D6
:100F7000EE0FFF1FEC52FE4FA081A052BB0B9D0154
:100F80005203F001539FF00D1124000F111FD801DF
:100F9000AD52BE4F0C910057110B40039001419F81
:100FA000300D11242E0F3F1F37FF02C021583F4F35
:100FB000220F232F221F330B620F1F910F910895D1
:100FC000EF920F93972F23E0029FB00111247595A4
:100FD00067956E0D792F0F91EF900895322F50E0A5
:100FE000FA01EE0FFF1FEC52FE4F9081905297FDD9
:100FF0009195440F551FFA01ED52FE4F2081231B9E
:10100000330B290F311D97FD3A95620F0895E42F98
:10101000F0E0EE0FFF1FEC52FE4F6081621B08955F
:10102000E42FF0E0EE0FFF1FED52FE4F6081621BD8
:101030000895622F0895E42FF0E0EE0FFF1FED52A8
:10104000FE4F408134EE439F412D1124E82FF0E004
:1010500050E0445E5F4FDA01A21BB1099D01B7FF6A
:1010600003C031952195310993E0220F331F9A95E2
:10107000E1F7AF01421B530B9A0157FD20E0582FB7
:10108000259F212D1124822F0895E42FF0E0EE0FEB
:10109000FF1FED52FE4F408134EE439F412D11243E
:1010A000E72FF0E050E0445E5F4FDA01A21BB10988
:1010B0009D01B7FF03C031952195310993E0220FBF
:1010C000331F9A95E1F7AF01421B530B9A0157FD6D
:1010D00020E0279F212D1124722F08950C94F505EF
:1010E0000C940006FC019B01009729F480E077FF37
:1010F0002BC080E80895AC0197FF04C04427552712
:10110000481B590BB901640F751F37FD10C0241B14
:10111000350BC901A5E0880F991FAA95E1F70E9438
:10112000112F80E2861BF7FF0FC081950895CB0138
:1011300065E0880F991F6A95E1F7BA01621B730B8E
:101140000E94112F80E6EECF0895EF920F93CF9378
:10115000DF93D72FC82FC9010E19BA010E94720858
:10116000602F681B7D2F8C2FDF91CF910F91EF9017
:1011700008950F93CF93DF93D72FC82FC901BA01DA
:101180000E947208682F600F7D2F8C2FDF91CF9106
:101190000F910895EF920F931F93CF93DF93D62F64
:1011A000C72F182FC9010E19010FBA010E9472082A
:1011B000081B202F219F212D1124822F6D2F7C2F82
:1011C000DF91CF911F910F91EF900895EF920F93C0
:1011D0001F93CF93DF93D62F172FC82FC9010E1956
:1011E000070FBA010E947208702F781B719F712D32
:1011F00011246D2F8C2FDF91CF911F910F91EF90C4
:1012000008950F931F93CF93DF93D62FC72F182FD7
:10121000C901212F201B022FBA010E947208982FAA
:10122000990F990F891B800F282F219F212D1124A1
:10123000822F6D2F7C2FDF91CF911F910F910895F9
:101240000F931F93CF93DF93D62F172FC82FC9016A
:10125000272F201B022FBA010E947208982F990F86
:10126000990F782F791B700F719F712D11246D2F9D
:101270008C2FDF91CF911F910F910895E82F86FD5C
:10128000E0952E2F2F7086FD2F5FE695E695E6956B
:10129000E670F0E0EF58FE4F9181929F902D212D46
:1012A000112492959F702295207F922B2081920F7E
:1012B00087FD919580E8890F08950F931F93CF9331
:1012C000DF938B01D82FC42F822F0E943E09EC2F71
:1012D000F0E0EE0FFF1FED52FE4F90819058890F06
:1012E00087FD8195880F682F2CE0629F612D112466
:1012F000600F712F8D2FDF91CF911F910F91089566
:10130000409110015091110125E038E0429FC00149
:10131000439F900D529F900D1124875E994C90939E
:10132000110180931001890F0895AC01823091055D
:1013300008F408959FEF413E8EE1580740F49A016A
:1013400095E0369527959A95E1F798E0920F61E040
:10135000E62FE90FFF27FF1F9F0135952795822F65
:10136000229FF001239FF00DF00D11244E175F070F
:1013700038F49FEF920F961758F78FEF860F089566
:101380002F3FE9F361E0620FF6CF0F93CF93DF9326
:10139000D72FC82F47FD419588E390E0841B910922
:1013A00047FD9395889FB001899F700D700D1124A2
:1013B000229FC001239F900D900D1124860F971F2F
:1013C0000E949509982F990F890F682F600F7D2F24
:1013D0008C2FDF91CF910F91089530E020E0869F10
:1013E000212D969F200D311D1124C9010895AF9222
:1013F000BF92CF92DF92FF920F931F93CF93DF9311
:10140000362F472FE82FF0E0EC58FD4F71110FC039
:10141000E4918E2F2E2F6E2F722FDF91CF911F917F
:101420000F91FF90DF90CF90BF90AF900895C72F9E
:10143000D0E02491F22E022F10E056E0659FC0010B
:101440001124EFEFF0E0BF010E94FD2E832F90E00A
:10145000880F991F35E5369FD001379FB00D1124B5
:101460008A1B9B0B982F990F980F6F01CC1ADD0ADE
:10147000C09ED001C19EB00DD09EB00D11248B2F07
:10148000499FA0011124452F55276F01C41AD50A81
:10149000C09EA001C19E500DD09E500D11245F0131
:1014A000A91AB108AC9E6001AD9ED00CBC9ED00CB8
:1014B0001124CD2CDD24EC19FD09E09FE001E19F12
:1014C000D00DF09FD00D1124ED2F62307105A1F0E9
:1014D00050F46115710509F49ECF6130710581F0FA
:1014E000EB2F852F98CF6430710569F080F066305E
:1014F000710509F490CFF4CFE22F2B2F8D2F8BCFD6
:10150000E22F252F88CFEB2F822F2D2F84CF2B2F4B
:101510008F2DE52F80CF2F923F925F926F927F9217
:101520008F929F92AF92BF92CF92DF92EF92FF92F3
:101530000F931F93CF93DF93CDB7DEB72A970FB6E4
:10154000F894DEBF0FBECDBF8B837E836D83209169
:10155000150181E1289F802D11248F838F5E89835F
:101560008A83843510F033E53A8380913F058C837C
:10157000FF81EF2FF0E0FA87E987CF01880F991FED
:101580009C012D523E4F69013B81832F90E0FC016D
:101590003196F887EF838A8199859817E8F081E082
:1015A000E981E33508F080E02A960FB6F894DEBFB3
:1015B0000FBECDBFDF91CF911F910F91FF90EF90A4
:1015C000DF90CF90BF90AF909F908F907F906F9063
:1015D0005F903F902F900895E985FA85E758FD4F79
:1015E0008081909116018923F1F020906E05309052
:1015F0006F052F813885215C3A4F39015B8010E0FF
:10160000FC815F16D0F020917005129F112D1124DE
:10161000B101812F0E94F709462F282F672F898556
:101620009A850E94700829853A852F5F3F4F3A8737
:10163000298732E0C30ED11CAECFF30181913F0167
:10164000F601A080A81ABB088180F3018781881A5F
:101650009908AA9C9001AB9C300D300D1124889CF8
:10166000C001899C900D900D1124820F931F0E9440
:101670009509082F6091710521E0620F08F46FEF62
:10168000F301EE0FFF1FEF53F540858996890E9405
:10169000ED097C019401A501B101812FED81FE814D
:1016A00009951B015394182FABCFCF92DF92EF9285
:1016B000FF920F931F93CF93DF938C01C09115017D
:1016C00081E1C89FC02D112421E1D22EDC0ECD2C4A
:1016D00023E52D1510F493E5C92E2091710531E015
:1016E000230F08F42FEF30E050E040E06FEF7FEF82
:1016F00080E090E00E94FC2F7901D0E02C2FCC15E7
:1017000070F081E0F2E5FD1508F480E0DF91CF9103
:101710001F910F91FF90EF90DF90CF900895FE0101
:10172000E758FD4F808190911601892311F1409176
:101730003F054150042E000C550B47FF1CC0C7014C
:101740006091710521E0620F08F46FEF0E94ED09CE
:10175000AC0160916E0570916F0580917005F80184
:1017600009950E94F709462F282F672FCE010E9466
:1017700070082196C3CFFA01E15CFA4F8189821388
:101780000AC0FA01EE0FFF1FE15CFA4F818D928DC6
:101790008E159F05A8F241505109CFCFDF92EF92ED
:1017A000FF920F931F93CF93DF937C01C09115019C
:1017B00081E1C89FC02D112411E11C0F012F1435A8
:1017C00008F003E5609171056695669521E0620F6A
:1017D00008F46FEF80913B0590913C050E94ED0964
:1017E000D82ED0E0C01760F081E0133508F080E01B
:1017F000DF91CF911F910F91FF90EF90DF900895AF
:10180000FE01E758FD4F808190911601892391F0E8
:1018100060916E0570916F05809170052D2D4C2F94
:10182000F70109950E94F709462F282F672FCE014F
:101830000E9470082196D6CF9F92AF92BF92CF920E
:10184000DF92EF92FF920F931F93CF93DF936C0180
:10185000C091150181E1C89FC02D112411E11C0F19
:10186000B12E143510F033E5B32E609171056695F5
:10187000669580913B0590913C050E94ED09F82EFC
:1018800080E48F0D0E943E0990E8A92EA80E8F2DAE
:101890000E943E0920E8922E980ED0E0CB1580F0F1
:1018A00081E0133508F080E0DF91CF911F910F9117
:1018B000FF90EF90DF90CF90BF90AF909F900895F2
:1018C000FE01E758FD4F8081909116018923A1F018
:1018D00060916E0570916F0580917005EF2C0C2F53
:1018E000292D4A2DF60109950E94F709462F282F28
:1018F000672FCE010E9470082196D0CF7F928F92E1
:101900009F92AF92BF92CF92DF92EF92FF920F938E
:101910001F93CF93DF935C01C091150181E1C89FB4
:10192000C02D112411E11C0FF12E143510F033E5F8
:10193000F32E60917105669580913B0590913C0571
:101940000E94ED09782ED0E0CF1590F081E013359C
:1019500008F080E0DF91CF911F910F91FF90EF9001
:10196000DF90CF90BF90AF909F908F907F90089521
:10197000FE01E758FD4F8081909116018923C9F13E
:10198000CE01880F991F88579E4FFC01E55BFF4FE2
:101990002081422F4057550B6A01845B9F4FFC0109
:1019A0008081282F2052330B4901449F9001459F8D
:1019B000300D300D1124889CC001899C900D900D34
:1019C0001124820F931F0E949509082F60916E05C4
:1019D00070916F0580917005E72C9401A601F501C7
:1019E00009950E94F709462F282F672FCE010E94E4
:1019F00070082196A9CFCF92DF92EF92FF920F93BA
:101A00001F93CF93DF937C01C091150181E1C89FA3
:101A1000C02D112411E11C0FD12E143510F033E527
:101A2000D32E60917105669580913B0590913C05A0
:101A30000E94ED09C82ED0E0CD1568F081E0133585
:101A400008F080E0DF91CF911F910F91FF90EF9010
:101A5000DF90CF900895FE01E758FD4F808190916F
:101A60001601892311F1CE01880F991F88579E4FC7
:101A7000FC01E45BFF4F20812052330B855B9F4FBD
:101A8000FC0140814057550B60916E0570916F05C8
:101A9000809170050C2DF70109950E94F709462FDA
:101AA000282F672FCE010E9470082196C5CF0E9473
:101AB0004D059C0190917B0380917C03982B21F034
:101AC000309378032093770390917D0380917E0378
:101AD000982B21F03093760320937503E091FE0458
:101AE000F091FF04309749F082E0809379030480FD
:101AF000F581E02D89E793E00994089540917B03F7
:101B0000803F59F480917C0387FF0DC010927C03C5
:101B100041110BC01092730308C0813F81F4809182
:101B20007C0318169CF3442381F080917D039091EF
:101B30007E03892B09F05AC0109272030895823FE8
:101B400049F447FFF0CF10927B0380917C03811111
:101B5000ECCFE0CF833F19F41416ACF3E4CF9091AF
:101B60007D03893F29F41916F4F610927D03DBCF2B
:101B70008A3F19F497FFD7CFF8CF90917E038B3F20
:101B800029F497FFD0CF10927E03CDCF8C3F19F46C
:101B90001916CCF3C8CF9CE0980F953090F4845F71
:101BA000990B21E030E0B90102C0660F771F8A95DA
:101BB000E2F7CB01809590917A03892380937A0391
:101BC000B2CF8D3F31F4809174038E7F8093740384
:101BD000AACF8E3F21F4809174038D7FF7CF8F3F82
:101BE00009F0A1CF809174038B7FF0CF089580918D
:101BF000740380FD16C081FD16C082FD16C0809161
:101C000072038823A1F0883280F428E0829FC0010B
:101C1000112468E270E00E94112F862F672B39F0A3
:101C2000089582E0089584E0089588E0089581E0B1
:101C300008958091740380FD14C081FD14C082FD5D
:101C400016C080917303882381F0843180F422E3ED
:101C5000829FC001112464E170E00E94112F862F41
:101C600008958CE0089589E1089585E0089582E360
:101C70000895803F31F40E94190E819580937C0372
:101C80000895813F19F40E94190EF8CF823F31F474
:101C90000E94190E819580937B030895833F19F468
:101CA0000E94190EF8CF893F29F40E94F70D809306
:101CB0007D0308958A3F21F40E94F70D8195F7CFA7
:101CC0008B3F31F40E94F70D819580937E03089538
:101CD0008C3F19F40E94F70DF8CF9CE0980F9530D7
:101CE00070F4845F990B21E030E001C0220F8A95E7
:101CF000EAF780917A03822B80937A0308958D3FCF
:101D000031F48091740381608093740308958E3F51
:101D100021F4809174038260F7CF8F3FB9F78091EF
:101D200074038460F1CF80E00895F894E82FE29581
:101D3000EF70F0E031A1282F2F7081E090E001C01A
:101D4000880F2A95EAF7982F9095932391A392A153
:101D5000892B82A3789408959091070592FF06C07D
:101D6000282F28712830F9F4877F846093FF06C0FC
:101D7000282F28712831F1F4877E8461209108058D
:101D800020FF06C0382F38713830D9F4877F816042
:101D900021FF06C0282F28712831D1F4877E816168
:101DA00094FD877E0895282F24712430F9F68B7FC7
:101DB0008860DCCF282F2471243101F78B7E886165
:101DC000DDCF382F3171313019F78E7F8860E0CF49
:101DD000282F2171213121F78E7E8861E1CFCF93A9
:101DE000DF93EC0182389105A9F1D8F58133910593
:101DF00009F496C048F58932910509F48AC08A979A
:101E000009F495C0C11521E5D20708F0BCC0C11581
:101E100030E5D30708F014C1C83ED10508F09CC0D6
:101E2000C03ED10560F5C83AD10508F087C0C53A73
:101E3000D10508F0FDC0C130D10509F12097F9F0B6
:101E4000C430D105E0F440C08533910509F45AC08F
:101E5000C997C1F680910705837089F0C0EED0E084
:101E60000EC0833E910599F170F4803E910501F119
:101E7000823E910539F68091070582FD21C0CE0191
:101E8000DF91CF910895863E910561F1873E9105DE
:101E900071F1843E910509F0B5CF8091080581FF6D
:101EA000EECF80910705C7EED0E084FD0DC0E7CFEF
:101EB0008091070580FD12C19091080590FFDFCF4A
:101EC000C3EED0E084FFDBCFD0E0C0E0D8CF80917C
:101ED000070582FD06C19091080590FDBFCF84FFE4
:101EE000CECFF2CF8091070583FDDDCFC8CF8091A3
:101EF000070583FDF9C09091080591FFF0CFC4EE6E
:101F0000D0E0BDCF8091070585FFB9CFC9E2D0E011
:101F1000B6CF8091070585FFB2CFC5E3D0E0AFCF44
:101F20008091070586FFABCFCAE2D0E0A8CF8091B1
:101F3000070586FFA4CFC1E3D0E0A1CFCF3BD105F9
:101F400018F6C85AD0E0CC0FDD1FC15EDE4F0990F5
:101F5000D881C02DD46493CFC11540E2D40758F482
:101F6000C11581E0D80708F08ACFC03FD10508F439
:101F7000ABCFD06584CFC11590E4D90708F4A4CFC6
:101F8000DF70D06A7CCFC11525E5D20700F5C115F9
:101F900034E5D30708F08AC0C11543E5D40708F03B
:101FA00071C0C11582E5D80708F467C0CE018370FF
:101FB000992721E030E002C0220F331F8A95E2F713
:101FC000C695C69580E2C89FE001112452C0C11594
:101FD00099E5D907A8F4C11528E5D20708F06BC028
:101FE000C11536E5D30708F06FCF8C2F0E94AC0ED9
:101FF000C82FD0E0DC2FCC27CC27DF71D0623FCFB9
:10200000C1154AE5D40708F45BC0CE01905681158E
:10201000904208F059CF8D2F8F710E94AC0E90E046
:10202000982F882788279F719C012C2BE901E6CFE8
:10203000C55AD0E0C45EDE4FC881D0E0D0641FCF67
:10204000CE01E4E096958795EA95E1F783702C2F11
:1020500026952695237040E2249F90011124382B69
:102060008C2F8370C1E0D0E002C0CC0FDD1F8A95B9
:10207000E2F7C22BD32BDC6802CFDC2FCC27C16F59
:10208000D06AFDCECE018370992721E030E002C0F6
:10209000220F331F8A95E2F7C695C69590E2C99F35
:1020A000E0011124C22BD32BDA68E9CEDC2FCC2738
:1020B000C46FD06AE4CEDC2FCC27C06FD06ADFCEED
:1020C0008C2F8F700E94AC0E34E0D695C7953A9550
:1020D000E1F7CF709C2FEC01D069D1CEC9E3D0E0FD
:1020E000CECEC2EED0E0CBCEC6EED0E0C8CE809150
:1020F00049038111109249030895809590914803F6
:102100009823909348030895809148039091470342
:10211000892B90914603892B8093CE02909149039D
:102120009923A1F0892B8093CE02809114018823FA
:1021300041F18091070587FF24C08EE1E0EDF2E0D8
:1021400090E0815000F591110E947710E091FE041B
:10215000F091FF043097E1F080911401882359F049
:102160008091070587FF07C08091CE028093CF0240
:1021700086E08093CE020280F381E02D8EEC92E027
:10218000099486E0DBCF21912223D9F29F5FD9CF3A
:1021900008958091440390911303981301C008950A
:1021A0008F5F8770FACF2FE0929F800D1124982FB8
:1021B000977086958695869523E0829FF00111247D
:1021C000E151FD4F50E040E080E0219130E0092EE8
:1021D00002C0369527950A94E2F721703327042E22
:1021E00001C0220F0A94EAF7822B4F5F5F4F433002
:1021F000510559F708952FE0929F800D1124982FD3
:10220000977041E001C0440F9A95EAF7869586954C
:10221000869593E0899FF0011124E151FD4F90E0F4
:1022200080E070E05191DF0111979B01082E02C000
:10223000369527950A94E2F72170219525272423C6
:1022400025272C9301968330910561F7089590E03E
:1022500080E00E94CE0590E080E00E94B8051092D8
:102260004703109246030E94841086E0E9E7F3E0FA
:10227000DF011D928A95E9F71092730310927203A1
:10228000109274030C94570D809368050C942711D9
:1022900080916805982F9670963019F488600C9498
:1022A0004411877FFCCF21E030E001C0220F8A95E6
:1022B000EAF720958091680582230C94441190914F
:1022C00045038095892380934503282F277091F437
:1022D000282F082E000C330B9217130659F09091FB
:1022E000080592FD07C08595859585950E94531137
:1022F00010924503089521E030E001C0220F8A9535
:10230000EAF780916805822B0C94441180934A036C
:102310000C942711882321F00E947D100C948410C6
:102320000895882339F090914803982B909348039F
:102330000C9484100895882379F19CEF980F913ABA
:1023400038F4682F8EEC92E00E9459050C948410AA
:1023500090E2980F983050F4877091E001C0990F87
:102360008A95EAF7892F0E947D10F0CF9BE5980FA0
:10237000933020F490E080E00C94CE0598E5980F1F
:10238000973120F490E080E00C94B805803F20F075
:102390000E947E0D0C94570D0895CF93C82F88236B
:1023A00009F46FC08CEF8C0F813AC0F58091140155
:1023B000882311F18091070587FF1EC0EC2FE69559
:1023C000E695E695F0E0E253FD4F828190E04C2FD8
:1023D000477021E030E002C0220F331F4A95E2F738
:1023E00082239323892B91F06C2F8EEC92E00E9434
:1023F00059050E9484100AC0E0EDF2E086ED92E0FB
:102400002191C21789F38E179F07D1F76C2F8EEC9D
:1024100092E00E948305CF910C94841080E28C0F8F
:10242000883068F4C77021E030E001C0220FCA95FF
:10243000EAF780914803822B80934803ECCFEBE5C9
:10244000EC0FE33040F4F0E0E45EFE4F808190E07A
:10245000CF910C94CE05E8E5EC0FE73150F4F0E0B5
:10246000EE0FFF1FE15EFE4F80819181CF910C94B2
:10247000B805C03F30F08C2F0E94390ECF910C94DC
:10248000570DCF9108958093090570930B056093C4
:102490000A05809131058430F9F48093E9008FEFCB
:1024A0009091E800815095FD06C095ED9A95F1F761
:1024B00000008111F5CF8091E80085FF0DC050E04C
:1024C00040E063E070E089E095E00E94F4038091D1
:1024D000E8008E778093E8000895BC0184E00C94B6
:1024E0004312BC0183E00C9443129C0184E080936E
:1024F000E9009FEF8091E800915085FD06C085EDD1
:102500008A95F1F700009111F5CF8091E80085FFE1
:102510000CC050E040E066E070E0C9010E94F403A6
:102520008091E8008E778093E8000895CF93DF9341
:10253000EC01809114018823B1F18091070587FF98
:1025400032C060E284E08093E9008FEF9091E80070
:10255000815095FD06C095ED9A95F1F70000811127
:10256000F5CF8091E80085FF1BC08091140170E0D9
:1025700050E040E0811104C050E040E068E070E0CD
:10258000CE010E94F4038091E8008E778093E800EA
:1025900080E2FE01AFE0B5E001900D928A95E1F78F
:1025A000DF91CF91089568E081E0CDCF81E0809305
:1025B000E00080E28093D8001092C9008FE19EE491
:1025C0000197F1F700C0000087E090EBDC018093F9
:1025D000730590937405A0937505B093760588E113
:1025E0009CE00FB6F894A895809360000FBE90937E
:1025F0006000FFCF239A35B1377F25B128604FB7F0
:10260000F89483E094E0FC015191CF0168E025B992
:10261000000000C057FF35B9550F000000C000C0D2
:1026200000C035B900C06A9591F7F4E08C3F9F0770
:1026300051F74FBF8FE594E00197F1F700C000001C
:1026400008951F93CF93DF93182FD0E0C0E0893314
:1026500011F4C0E5D0E0812F0E94CD11209731F414
:10266000812FDF91CF911F910C949B118FE99FE0F7
:102670000197F1F700C000002197F0CF0F931F934F
:10268000CF93DF93C62FD42F022FFC0182818823A2
:10269000A1F060936B050E944D0590936A058093AD
:1026A0006905C77081E001C0880FCA95EAF7DF911C
:1026B000CF911F910F910C94911180916B0568132C
:1026C00035C08091690590916A050E943205883C69
:1026D000910560F510E21D0FCD17B9F080E28C0F67
:1026E000883040F4C77081E001C0880FCA95EAF7CE
:1026F0000E948A11183048F481E09D2F977001C024
:10270000880F9A95EAF70E949111802F0E94211359
:10271000183098F4D77081E001C0880FDA95EAF795
:10272000DF91CF911F910F910C948A11C77081E0B6
:1027300001C0880FCA95EAF7F3CFDF91CF911F91BF
:102740000F910895CF93DF93CFE7D2E060E0CE0101
:102750000E94D82F2196C11584E0D807B9F7DF91E0
:10276000CF9108956F927F928F929F92AF92BF9276
:10277000CF92DF92EF92FF920F931F93CF93DF934D
:1027800084E7C82E83E0D82E9BEDE92EF12CE701DB
:10279000C659D10936011BC0F50185909490692D69
:1027A000C8010E94D82F682DC80101960E94D82F19
:1027B00082E0A80EB11C0E5F1F4FC017D10761F752
:1027C0008EE1680E711C6E96CE15DF0529F08E0124
:1027D0000E5111095301E0CF7E0186E9E80EF11C8C
:1027E00086E9C80ED11C83E3E81683E0F80679F683
:1027F000DF91CF911F910F91FF90EF90DF90CF90DD
:10280000BF90AF909F908F907F906F900895CF93DF
:10281000C82F6FEF811162E283E290E00E94D82F0F
:102820006FEFC11162E084E290E00E94D82F6FEF59
:10283000C11168E285E290E0CF910C94D82F80E03E
:102840000E94071460E086E290E00E94D82F0E9468
:10285000B2130E94A21381E00C940714CF93C92FE6
:10286000682F84E090E00E94D82F6C2F82E290E0E5
:10287000CF910C94D82F9091080592FB222720F934
:10288000281769F080FB92F990930805809107055D
:10289000909108050E942E1482E00C945F11089517
:1028A0000F931F93CF93DF93C42FD0E0CC0FDD1F86
:1028B0002EE1629FC00DD11D112436E9839FC00D0A
:1028C000D11D1124CE0187960E94B42F082F10E04D
:1028D000102F0027CE0188960E94B42F9801282B34
:1028E000C901DF91CF911F910F910895462F843038
:1028F00038F4753028F46F3018F4672F0C945014A6
:1029000090E080E00895CF92DF92FF920F931F93A3
:10291000CF93DF936C010091680580914A03082BE7
:10292000C7E0D0E010E0FC2EC8010C2E02C0959547
:1029300087950A94E2F780FD0CC02197A0F7F12C4F
:102940008F2DDF91CF911F910F91FF90DF90CF904E
:102950000895B6018C2F0E9476140E94EF0E019705
:1029600061F3EECFCF93DF93EC010E948314BE019D
:102970000E947614DF91CF910C94EF0EFC018081C0
:1029800091810E94B214292F2F7092959F709250BE
:102990009E3078F4E92FF0E0EF59FF4C0C94252F8E
:1029A000803F19F020F4883E20F481E00895843FB0
:1029B000E1F380E00895883EC0F3813FD1F7F5CF81
:1029C000822F869586958695089583E290E00E94F1
:1029D000B42F823289F484E290E00E94B42F8230D6
:1029E00059F485E290E00E94B42F91E0883209F01A
:1029F00090E0892F8170089580E0FCCFCF9384E030
:102A000090E00E94B42FC82F82E290E00E94B42F81
:102A1000982F8C2FCF9108951F93CF93DF93EC01C4
:102A2000FC01E758FD4F80816823C9F00E947E2F8A
:102A3000182F0E947E2F8F77782F20E8720F08F4CE
:102A40007FEF612F809170050E94F709462F282F94
:102A5000672FCE01DF91CF911F910C947008DF9109
:102A6000CF911F910895DF92EF92FF920F931F93E2
:102A7000CF93DF938C01FC01E758FD4F80816823E1
:102A800081F1D0906F05D0917005C0916E05EC2E4C
:102A9000F12C0E947E2F282FC7018C549F4F68E68F
:102AA00071E00E94112F8E199F0997FD039695954D
:102AB00087959595879523706C2F289F600D11241D
:102AC0007D2D8D2F0E94F709462F282F672FC801D3
:102AD000DF91CF911F910F91FF90EF90DF900C94B9
:102AE0007008DF91CF911F910F91FF90EF90DF90D1
:102AF00008954F925F926F927F928F929F92AF92C2
:102B0000BF92CF92DF92EF92FF920F931F93CF93DA
:102B1000DF93C090A803D090A903E090AA03F0909F
:102B2000AB038FB7F8944090030550900405609074
:102B30000505709006058FBF530142018C189D0852
:102B4000AE08BF080E9441056093A8037093A903D3
:102B50008093AA039093AB03A0917F03EFE7F3E088
:102B60002A2F30E04FEFC40ED41EE11CF11CC41814
:102B7000D508E608F708A31328C020937F033091F7
:102B80006D05132F137019F0132F169516952091BC
:102B90001801213009F443C0222351F1223009F4F5
:102BA00096C4233009F49DC4DF91CF911F910F91FA
:102BB000FF90EF90DF90CF90BF90AF909F908F905D
:102BC0007F906F905F904F900895418D528D2A01B4
:102BD000712C612CC414D504E604F70420F42150B0
:102BE0003F5F3296C8CF480D591D528F418FF8CFA5
:102BF0001092150160933B0570933C0580933D0551
:102C000090933E0589E2EFE7F3E0AFE3B5E0019092
:102C10000D928A95E1F781E080931801C5CF9091DC
:102C2000130181E019130BC0832F837020911201CF
:102C300030E091E08217130609F490E0892F81704B
:102C4000809317018091720590911601981739F0C1
:102C50008093160140E060E080E00E946E081A3226
:102C600050F4E12FF0E0E159FF4C0C94252F8091B6
:102C70001701811102C0C0E097C140E060E080E030
:102C80000E946E08F8CFC091150181E1C89FC02D48
:102C9000112401E10C0FF02E043510F063E5F62E3F
:102CA00060916E0570916F05809170050E94F70923
:102CB000E62ED72EC82ED0E0CF1528F0C1E0033580
:102CC00008F472C1D8CFFE01E758FD4F8081909182
:102CD0001601892331F02C2D4E2D6D2DCE010E9431
:102CE00070082196E9CFC091150181E1C89FC02DE0
:102CF000112401E10C0FF02E043510F053E5F52EF0
:102D0000D0906F05E0907005D0916E056D2F7D2DF0
:102D10008E2D0E94F709C62EB72EA82E6091710540
:102D20006D0F7D2D8E2D0E94F709E62ED72E982E41
:102D3000D0E0CF1518F6FE01E758FD4F9081809145
:102D40001601892359F0292D4E2D6D2D90FD03C0BC
:102D50002A2D4C2D6B2DCE010E9470082196E9CFB3
:102D6000C091150181E1C89FC02D112401E10C0F14
:102D7000E02E043510F043E5E42ED0906F05C090AE
:102D800070052091710530E4F32E3F2D329F312DD7
:102D90001124F32ED0E0CE1508F090CFFE01E758B5
:102DA000FD4F8081909116018923B9F0FE01EE0F4D
:102DB000FF1FEC52FE4F808182958F7060916E05EF
:102DC0008F9D600D11247D2D8C2D0E94F709462FBB
:102DD000282F672FCE010E9470082196DCCFC0916A
:102DE000150181E1C89FC02D112401E10C0FE02ED7
:102DF000043510F083E5E82ED0906F05C090700583
:102E000020917105D0E4FD2E3F2D329F312D1124EC
:102E1000F32ED0E0CE1508F051CFFE01E758FD4F5C
:102E20008081909116018923D9F0FE01EE0FFF1FDA
:102E3000ED52FE4F6081F69EB0011124B5E075950C
:102E40006795BA95E1F780916E05680F7D2D8C2D01
:102E50000E94F709462F282F672FCE010E94700885
:102E60002196D8CFC091150181E1C89FC02D1124B2
:102E700001E10C0FF02E043510F073E5F72EE09011
:102E80006E05D0916F05D0907005609171056695C3
:102E90006695669580913B0590913C050E94ED09F1
:102EA0000E943E09805887FD8195880F282F3D2D6F
:102EB000239F212D1124822F6E2D7D2F0E94F70933
:102EC000E62ED72EC82ED0E0CF1508F0F7CEFE01A3
:102ED000E758FD4F808190911601892331F02C2D08
:102EE0004E2D6D2DCE010E9470082196EDCF85E408
:102EF00098E00E94CE0B07C08BE198E0FACF80E209
:102F000099E00E94FB0CC82F4FC081E099E0F9CFF7
:102F100086EE98E00E947E0CF6CF8AEC98E0FACF1D
:102F200089E198E0E6CF80E198E0E3CF87E098E0A0
:102F3000E0CF8EEE97E0DDCF80EE97E0EBCF85EC33
:102F400099E0DFCF89EB98E0DCCF85EA98E0E2CF2B
:102F500083EB97E00E941C0CD6CF85E897E0FACF70
:102F60008EE497E0F7CFC0911701C1115CC060916A
:102F7000710520E1620F08F46FEF80913B0590919D
:102F80003C050E94ED096AE070E00E94FD2E892B4D
:102F900009F071CE0E947E2F63E570E00E94112F30
:102FA000609116010E943315809115018F5F809307
:102FB0001501C11164C292E090931801909117011C
:102FC00091115DC2112309F48AC2C1E18C9FC02D09
:102FD00011249FEEC92ECC0EFC2EC43510F083E5D3
:102FE000F82E8091FF0380FD4EC20E94E40581FD12
:102FF00062C28091FF0381FFD7CDD0E0C0E0D12C29
:103000000F2D10E0CC15DD0548F00C171D0730F032
:1030100020E040E060E0CE010E9470082196C031BF
:10302000D10581F7C1CDC091150181E1C89FC02DA7
:10303000112401E10C0F802F043508F083E5D0E066
:10304000E82EF12CCE15DF050CF038CE609116017C
:10305000CE010E9433152196F5CFC0911701C11101
:103060001EC06091710520E1620F08F46FEF80913E
:103070003B0590913C050E94ED0965E070E00E94DF
:10308000FD2E892B09F0F7CD0E947E2F63E570E0BD
:103090000E94112F609116010E940C1585CFC091DE
:1030A000150181E1C89FC02D112401E10C0F802F73
:1030B000043508F083E5D0E0E82EF12CCE15DF05CD
:1030C0000CF0FCCD60911601CE010E940C152196EA
:1030D000F5CFC091150181E1C89FC02D112401E1F8
:1030E0000C0FF02E043510F063E5F62ED0906F052E
:1030F000E0907005D0916E056091710566956695BA
:10310000669580913B0590913C050E94ED090E94D7
:103110003E09805887FD8195880F682F2CE0629FBB
:10312000612D11246D0F7D2D8E2D0E94F709E62E45
:10313000D72EC82ED0E0CF1508F0C0CDFE01E7583D
:10314000FD4F808190911601892331F02C2D4E2D59
:103150006D2DCE010E9470082196EDCF8DE599E08E
:10316000C8CE8DE397E0C5CE4091AC035091AD033E
:103170006091AE037091AF0380913B0590913C0547
:10318000A0913D05B0913E0584179507A607B707A6
:1031900008F471CD0E948009082F0E94800993E5F0
:1031A000891BF0F7890FC82FD0E0FE01E758FD4FCB
:1031B000809116019081892309F45FC120E040E0ED
:1031C00060E001FD13C00E948009082F0E94800961
:1031D000782F76952FE7720F08F47FEF602F80919C
:1031E00070050E94F709462F282F672FCE010E94F5
:1031F00070082091710530E1230F08F42FEF60E192
:10320000822F90E00E94ED09BC0184EF91E00E94C2
:10321000FD2E80913B0590913C05A0913D05B0911C
:103220003E05860F971FA11DB11D8093AC0390939F
:10323000AD03A093AE03B093AF031DCD4091FB034C
:103240005091FC036091FD037091FE0380913B055A
:1032500090913C05A0913D05B0913E0584179507DE
:10326000A607B70708F407CD60916E0570916F054A
:10327000809170050E94F709062F772E682EC0EB0B
:10328000D3E048E8A42E41E0B42E5EE0E52EF12C18
:1032900067014EE0C41AD10826E0522EF601E0552F
:1032A000FC4F4F01F601E857FE4F808190E0F4019A
:1032B0002081222309F480C0262D402F672D0E94F3
:1032C0007008F401818180835A94FFEFCF1ADF0ADE
:1032D0005110E4CF670137E0532E960120553C4F43
:1032E0004901F601E857FE4F808190E0F901208105
:1032F000222309F465C0262D402F672D0E947008F7
:10330000F40131978081F40180835A94F1E0CF1A5F
:10331000D1085110E2CFF501878190E02F8122235F
:1033200009F452C0262D402F672D0E947008F50128
:10333000868190E02E81222309F44AC0262D402F59
:10334000672D0E9470080E948009837091E009F047
:1033500090E09E839F832F96FFE0AF0EB11C2FE07D
:10336000E20EF11C39E5E316F10409F091CF20914A
:10337000710530E1230F08F42FEF60E1822F90E018
:103380000E94ED09BC0188EB9BE00E94FD2E80911C
:103390003B0590913C05A0913D05B0913E05860FFF
:1033A000971FA11DB11D8093FB039093FC03A09375
:1033B000FD03B093FE035FCC20E040E060E07FCFF0
:1033C00020E040E060E09ACF20E040E060E0ADCF58
:1033D00020E040E060E0B5CF86E397E00E94550B27
:1033E00092CD80E397E0FACF80913F0521E0382F1E
:1033F000321B08F430E0832F67E177E00E948B0AEC
:1034000082CD67E177E080E0F9CF80913F0521E050
:10341000482F421B08F440E0842F6CED76E0EECF9D
:103420006CED76E0F0CF80913F0521E0382F321B24
:1034300008F430E0832F6AEA76E0E0CF6AEA76E0CB
:10344000E2CF80913F0521E0482F421B08F440E085
:10345000842F62E976E0D2CF62E976E0D4CF809122
:103460003F0521E0382F321B08F430E0832F6CE752
:1034700076E0C4CF6CE776E0C6CFC1E095CD1123EE
:1034800009F492CBA2CD00E110E0AC2CB12C8F2C32
:10349000912C0A151B0548F08016910630F020E0AB
:1034A00040E060E0C8010E9470080F5F1F4F0335C5
:1034B000110579F79ACDC453C23108F09ACD2FEF98
:1034C0004FEF60E084E390E00E94700892CD10938B
:1034D0001301832F8370809312010E94FA1283E0FC
:1034E0009BCB80916C05882351F046E050E06CE165
:1034F00070E08DE695E00E94C82F10926C05409117
:103500003B0550913C0560913D0570913E052FB7FC
:10351000F8948091030590910405A0910505B09160
:1035200006052FBF841B950BA60BB70B4097A10573
:10353000B10508F439CB1092180136CBEDE6F5E071
:1035400085E380838091190190911A01A0911B015C
:1035500081839283A3838FE784838FEF858346E003
:1035600050E06CE170E0CF010E94C82F10926C0512
:1035700008951092480380911401E0EDF2E0882351
:1035800059F08091070587FF07C08EE1DF011D928A
:103590008A95E9F70C94271186E0F8CF1F93CF9313
:1035A000DF93CDB7DEB7AA970FB6F894DEBF0FBE94
:1035B000CDBF83E395E02091F100DC012D93CD0197
:1035C000B5E08B339B07B9F780913405833009F45C
:1035D00072C0B8F4813009F449C0823009F4B3C034
:1035E0008091E80083FF8BC2809133059091340570
:1035F0009A3008F084C2E92FF0E0E756FF4C0C94B3
:10360000252F8A3009F48EC08B3009F471C08930BF
:1036100039F780913305813219F780913705909100
:103620003805009711F00297D9F68091E800877F5E
:103630008093E8008091E80082FF38C09091F30009
:103640008091F200029731F48091F100813011F005
:10365000863021F48091F10080930E058091E8007E
:103660008B778093E8000E941E04BACF80913305C7
:10367000813A09F0B5CF8091E800877F8093E80018
:103680008091370590913805892B61F460E28FE0D5
:1036900095E070E00E94D0048091E8008B778093E1
:1036A000E8009ECF60E090E080E0F3CF80913105AC
:1036B0008111C0CF95CF80913305813A09F090CF29
:1036C0008091370590913805892B09F089CF809139
:1036D000E800877F8093E8008091E80080FFFCCFBE
:1036E000809114018093F1008091E8008E77B9CF2A
:1036F00080913305813209F073CF80913705909125
:103700003805892B09F06CCF8091E800877F809382
:10371000E8000E941E0480913505809314010E94E8
:10372000B91A5ECF80913305813209F059CF80916B
:10373000E800877F8093E8000E941E048091360590
:1037400080930D054DCF80913305813A09F048CF24
:103750008091E800877F8093E8008091E80080FFF7
:10376000FCCF80910D05BECF803899F0823809F0EA
:10377000C6C1809137058F70873008F0C0C1809333
:10378000E9008091EB0085FB882780F91092E90021
:1037900006C080912F059091300591118260909123
:1037A000E800977F9093E8008093F1001092F10079
:1037B0008091E8008E779FC1882309F48DC1823003
:1037C00009F09DC180913505811190C18091370527
:1037D0008F702FEF280F263008F091C18093E900F9
:1037E0002091EB0020FF82C1933031F48091EB00F7
:1037F00080628093EB007AC19091EB00906190938E
:10380000EB0021E030E001C0220F8A95EAF7209317
:10381000EA001092EA008091EB008860EACF811103
:103820006EC1109135051F778091E3008078812B60
:103830008093E3008091E800877F8093E8000E94F6
:103840001E048091E80080FFFCCF8091E300806837
:103850008093E30082E0111183E0809331054FC132
:103860008058823008F04BC12091350530913605E3
:103870002C3DE3E03E07A1F583E08A838AE2898359
:103880004FB7F894DE01139620E03EE051E2E32FBB
:10389000F0E050935700E49120FF03C0E295EF70F1
:1038A0003F5FEF708E2F90E0EA30C0F0C7968D93A7
:1038B0009D932F5F243159F74FBF8091E800877F98
:1038C0008093E8006AE270E0CE0101960E94D00485
:1038D0008091E8008B778093E80011C1C096E7CF14
:1038E0008091370590913805432F55274330510576
:1038F00009F44AC078F54130510509F47AC08BE5E6
:1039000090E0ECECF5E04230510509F0F8C0209170
:10391000E800277F2093E8002091390530913A058F
:103920008217930708F49C0140E02115310509F046
:1039300065C0411163C08091E80082FDC9CF8091CC
:103940003105882329F2853019F28091E80083FF40
:10395000F2CFBECF4132510509F43CC0423251058D
:1039600009F0CDC08330910508F0C9C0FC01EE0F0D
:10397000FF1FE458FE4F0190F081E02D87589E4FC5
:10398000DC018C9190E01AC0332721303105D1F051
:103990002115310561F02230310509F0B0C0E9E3AD
:1039A000F6E0E4918E2F90E0E9E3F6E007C0E9E568
:1039B000F6E0E4918E2F90E0E9E5F6E0009709F457
:1039C0009EC0A5CFE5E4F6E0E4918E2F90E0E5E41B
:1039D000F6E0F4CF8330910508F091C0880F991F6D
:1039E000FC01EE57FE4F0190F081E02D89E090E060
:1039F0008ECF82E190E0E7E2F6E089CF8091310559
:103A0000882309F465CF853009F462CF8091E800FE
:103A100083FD5ECF8091E80082FD8DCF8091E8002C
:103A200080FF83CF9091F3008091F2002115310542
:103A300019F08830910550F041E0089709F040E016
:103A40008091E8008E778093E8006FCF4491409397
:103A5000F1003196215031090196E8CF803809F004
:103A60004EC08091E800877F8093E8008091320506
:103A70008093F1009DCE811142C010913505123026
:103A8000F0F58091E800877F8093E800109332057D
:103A90000E941E04112311F084E005C08091E30010
:103AA00087FDFACF81E08093310542E061EC81E04F
:103AB0000E943D0442E261EC84E00E943D0442E247
:103AC00061EC82E00E943D0442E260EC83E00E94EF
:103AD0003D048091310513C080913505813079F422
:103AE00081E0933009F080E0809330051092E90086
:103AF0008091E800877F8093E8000E941E048091F7
:103B0000E80083FF0AC08091E800877F8093E80087
:103B10008091EB0080628093EB00AA960FB6F89438
:103B2000DEBF0FBECDBFDF91CF911F91089590E012
:103B300080E00E94C22F893E9E4F11F40C94E51440
:103B400080E0089569EE7EEF90E080E00E94F62F1D
:103B500060E082E090E00E94D82F60E083E090E097
:103B60000E94D82F10924A0360E084E090E00E9407
:103B7000D82F60E082E290E00E94D82F60E085E0DC
:103B800090E00E94D82F60E086E090E00E94D82F5D
:103B90006FEF87E090E00E94D82F40E050E0BA013C
:103BA00088E090E00E94EA2F60E08DE090E00E94C3
:103BB000D82F40E050E0BA0188E190E00E94EA2F5F
:103BC00060E087E190E00E94D82F40E050E0BA0129
:103BD0008CE190E00E94EA2F70E060E080E290E0EB
:103BE0000E94F62F40E050E0BA0188E190E00E9488
:103BF000EA2F80E00E9407140E941F1440E050E06A
:103C0000BA018FE090E00E94EA2F40E050E0BA0154
:103C100083E190E00C94EA2F3F924F925F926F9273
:103C20007F928F929F92AF92BF92CF92DF92EF924C
:103C3000FF920F931F93CF93DF9300D000D00F928A
:103C4000CDB7DEB78C01FC0183819481892B31F0E3
:103C50008081918189238F3F09F0A3C50F900F9038
:103C60000F900F900F90DF91CF911F910F91FF90C8
:103C7000EF90DF90CF90BF90AF909F908F907F900C
:103C80006F905F904F903F9008950E948314F82E9C
:103C9000682F89819A810E94FB1069817A818F2D1A
:103CA0000E9476147C01F8018281882309F46CC596
:103CB000970122513F452031310508F02EC58FEF85
:103CC00093E00E94B42FFEEEEF0E5FE7852E52E0E8
:103CD000952E8823A1F180914503877009F4BECF0A
:103CE000F8018281882309F4B9CF8091080582FD0B
:103CF000B5CF82E00F900F900F900F900F90DF9153
:103D0000CF911F910F91FF90EF90DF90CF90BF90D8
:103D1000AF909F908F907F906F905F904F903F906B
:103D20000C945F11811424E09206A9F2C4010E9450
:103D3000B42F811101C0EA943FEF831A930AE11076
:103D4000F1CF1C821B82442443944AE0342E740138
:103D50008FEFE81AF80AC4010E94B42F89831A82EF
:103D6000882309F4B8CF9FEF980F933000F58A832A
:103D7000498292E0890E911CC7010E94B42F8B8367
:103D8000882309F4A8CFFE0131967F01F701208135
:103D90002223E9F2213009F049C0918182819130DA
:103DA00041F4F2E0EF0EF11C0E94211309C047011B
:103DB000EACF923049F422E0E20EF11C0E94CD11CC
:103DC0003FEFE31AF30AE2CF933031F432E0E30E2F
:103DD000F11C0E949B11F4CF943021F08FEFE81A70
:103DE000F80AEECF92E0E90EF11C30E020E0B701D6
:103DF0006F5F7F4FF70141818053990B8A309105A6
:103E000050F021503109E0F28FE99FE00197F1F77E
:103E100000C00000F6CF329EF001339EF00D112459
:103E20009C012E0F3F1F842F7B01E1CFE22FF0E09A
:103E3000EC50FE4F5490822F86958695869590E0A3
:103E4000FC01EC51FE4F64902770712C022E02C0D1
:103E5000759467940A94E2F7E1E06E227724FC01FE
:103E6000EC52FE4FA490B12C022E02C0B594A79440
:103E70000A94E2F7F1E0AF22BB24FC01EC53FE4FC1
:103E8000C490D12C02C0D594C7942A95E2F721E0C2
:103E9000C222DD246114710419F081EE0E94CD115B
:103EA000A114B10419F086EE0E94CD11852D0E9457
:103EB0002113AB2819F086EE0E949B11672819F098
:103EC00081EE0E949B11CD2809F47ACF8CE26CCF51
:103ED00081E00E947B110E944811FDCE81E00E948A
:103EE0005311F9CF82E0F5CF882309F4F4CE9091F5
:103EF000FF03892F8E7F90FF81608093FF034091A5
:103F0000FF0350910004609101047091020483E169
:103F100090E00E94EA2FDFCE882309F4DCCE909156
:103F2000FF03892F8D7F91FF8260E7CFF5EFEF16BA
:103F3000FCE5FF0609F463C008F45DC027E245EE26
:103F400066EE36EFE3163CE5F30609F419C4882360
:103F500009F438C410926B0583E0E8168DE5F80685
:103F600008F054C09AEFE9169CE5F90630F4C70151
:103F700082509C45449708F04FC00E94FE149093D5
:103F8000080580930705F0E1EF16FCE5FF0609F44C
:103F900021C108F090C038E0E3163CE5F30609F4CF
:103FA00003C108F060C094E0E9169CE5F90609F445
:103FB000E9C008F049C0F2E0EF16FCE5FF0609F49D
:103FC000DBC080910705826023E0E2162CE5F20653
:103FD00009F4D5C080910705909108050E942E1420
:103FE0000E94B91A78CE27E245EE65EEC9C326E2F3
:103FF00041EE60EEC5C327E245EE64EEC1C326E2A2
:1040000041EE62EEBDC328E241E0EFCFE1E6EE16FD
:10401000EDE5FE0609F4B1CF8091480336E1E316E1
:104020003CE5F30609F0DDC38A7A91E009F490E0FB
:104030009093EE0269E2811165E38EEC92E00E94BA
:1040400083050E94841047CE80910705806136E089
:10405000E3163CE5F30609F492C008F497C080919A
:10406000070580628CC0809107058D7F9CE0E91672
:104070009CE5F90609F483C078F4809107058C600B
:10408000FAE0EF16FCE5FF0609F479C008F490C0E9
:10409000809107058E7F73C080910705877F3EE082
:1040A000E3163CE5F30609F46AC008F48BC080917E
:1040B00007058F7E64C09CEFE9169CE5F90609F4BC
:1040C00085C068F5F4E1EF16FCE5FF0609F49AC037
:1040D00060F432E1E3163CE5F30609F483C008F42A
:1040E0007DC080910705837F4AC09AEFE9169CE561
:1040F000F90609F44FC008F053C0F5E1EF16FCE5EE
:10410000FF0609F067CF8091070582FB992790F998
:1041100021E0922790FB82F990FB83F930C0E114F3
:104120002DE5F20609F464C090F48EEFE8168CE5F4
:10413000F80609F443C0809108058D7F9FEFE916CA
:104140009CE5F90650F1809108058C7F26C0E2E0DD
:10415000EE16EDE5FE0609F464C008F45CC021E645
:10416000E2162DE5F20609F035CF90910705892F6B
:104170008F7E94FF806103C08091070581608093EA
:10418000070528CF809107058460F9CF8091070546
:104190008860F5CF809108058160809308051ACF6B
:1041A000809108058260F9CF809107058064E7CF90
:1041B0000E94B91A809107058068E1CF80910805B7
:1041C0008360EBCF809107058B7FD9CF8091080565
:1041D0008E7FE3CF809107058F7DD1CF809107053A
:1041E0008F7BCDCF0E94B91A809107058F77C7CFFB
:1041F00080910805982F909591708E7F892B90FB68
:1042000081F9CBCF0E94B91A90910705892F97FBAE
:1042100087F98058B4CF61E08EE090E00E94D82FFB
:10422000D9CE60E0F9CF80916D0591E08927809328
:104230006D051092180180916C05816080936C056A
:104240004ACD49E656E062E776E00E94F00543CDAC
:1042500042E756E069E676E0F8CF47E556E060E6EB
:1042600076E0F3CF40E656E067E576E0EECF4FE349
:1042700056E06BE476E0E9CF4BE456E06FE376E09E
:10428000E4CF43E356E067E276E0DFCF4BE056E071
:1042900069E176E0DACF49E156E06BE076E0D5CF30
:1042A00081E00E94780317CD8DE0FBCF2BE5E2166D
:1042B0002DE5F20611F13CE5E3163DE5F30609F0C4
:1042C000C2C28091080582FB882780F991E0892786
:1042D0000E943B14B8C20E94B91A8FEF94E3ECE03D
:1042E00081509040E040E1F700C000000E94D612EB
:1042F0000E94A21DF0CC81E0EBCF80E0E9CFC701A6
:104300000E94D310D82EAEC22F2D2F70C22E8F2D0B
:10431000807F19F0C29490EFC922DD20B9F0CC2043
:1043200069F080E28E0D883010F0811009C0809114
:104330004803C82AC09248030E9484108E2D4DC0A5
:1043400080914703C82AC0924703F6CF8E2D0E9462
:104350009B11CC2009F443C080E28E0D883010F010
:10436000811004C08C2D0E947D1006C0C0948091E5
:104370004703C822C09247030E94841030C03F2DDB
:104380003F70C32E8F2D807F803219F0C29480EF52
:10439000C822882089F081E0881609F47FC0DD20DA
:1043A00009F489C0BB2009F47FC0F801858180FF32
:1043B000C5CF8F70858378C02091080522FF4BC040
:1043C000DD2009F442C0CC2039F080914803C82A8E
:1043D000C09248030E94841080E00E94CD11292DD4
:1043E0002850330B2430310510F40E94E405AA2034
:1043F00009F434CC8091450380FD30CCF801128261
:104400008595859585950E947B11C8010E940C1E9B
:10441000809145038595859585950F900F900F9018
:104420000F900F90DF91CF911F910F91FF90EF9020
:10443000DF90CF90BF90AF909F908F907F906F90C4
:104440005F904F903F900C94531180E00E949B111D
:10445000CC2029F287CFDD20A1F0909149038C2D4B
:10446000892BB11003C00E949111B9CFE1E0BE12B7
:10447000FACF22FDB4CF891709F4B1CF8093490355
:10448000AECFB11006C00E9477108C2D0E948A1109
:10449000A6CFF1E0BF1609F4A2CFF5CFDD2031F0B1
:1044A00025E02B1508F49BCF8C2DDDCF34E03B1598
:1044B00008F495CFEACFBB2041F3F9E38F1209C08E
:1044C0002FEF37EE83E0215030408040E1F700C00D
:1044D00000008E2D0E949B1182CF8F2D8695869590
:1044E000837061F0813009F07ACFC7019370D110E9
:1044F00002C090E080E00E94B80571CFC7019370C0
:10450000D11002C090E080E00E94CE0568CF8E2DD1
:10451000DD2029F00E94390E0E94570D60CF0E94C5
:104520007E0DFACF8F2D837091F5D11058CF4E2D7F
:10453000429546954770440F440F8E2D8F70042E80
:1045400001C0880F0A94EAF72E2D2071E4FE07C0FF
:104550002FE030E001C0220F4A95EAF720953F2D69
:10456000369536953370323069F050F440914A03F5
:10457000313029F0822B84230E94861130CF842B86
:10458000822BFACF282B80914A038227F5CF86957C
:10459000DD2011F08F2D8170882309F420CF4E2D5E
:1045A000429546954770440F440F8E2D8F70042E10
:1045B00001C0880F0A94EAF72E2D2071E4FE07C08F
:1045C0002FE030E001C0220F4A95EAF720953F2DF9
:1045D000369536953370323069F050F44091680565
:1045E000313029F0822B84230E944411F8CE842B91
:1045F000822BFACF282B809168058227F5CF9F2D3B
:104600009F70F92EDD2029F0892F0E947B118E2DBD
:104610002ACF8E2D0E948A118F2D0E945311DFCE3A
:104620008E2DE2EF8E16B1F1E81570F0F0EF8F16D7
:10463000D1F021EF821691F0DD2009F45EC0B110B7
:104640007DCE8F2D8F712AC033EF831651F194EFF9
:104650008912F2CF8091080582FF2FC08F2D8F71B4
:10466000DD20D9F21BC0DD2081F0E4E0EB1508F479
:10467000B6CE2F2D2F7181E090E001C0880F2A95D2
:10468000EAF7909168058927AFCFF5E0FB1508F4AC
:10469000A6CEEFCF8F2D8F71D110BFCF0E947B118F
:1046A0009ECE80E0DD2009F49FCF9F2D9F7181E099
:1046B00001C0880F9A95EAF797CFDD2099F02F2D4A
:1046C0002F71F22E822F0E947B118091080582FDAE
:1046D00007C038E0F39EC001112483608093450336
:1046E0008F2DDCCF81E00E945F1181E08B1508F0F7
:1046F00076CE82E00E945F1172CEBB2059F08933E2
:1047000009F0E7CE9FEFE7EEF3E09150E040F04094
:10471000E1F7DDCE8F2D8F7180CFF0E1EF16FFE551
:10472000FF0609F4D5CB21E1E2162FE5F20609F4E4
:10473000D9CB92E7E916F10409F4D6CBE3E7EE16FC
:10474000F10409F4E9CBF3EFEF16FCE5FF0609F4F9
:104750004ECC08F0EBCB38EDE3163CE5F30609F45C
:1047600042CC99EDE9169CE5F90609F44CCCE7ED4D
:10477000EE16ECE5FE0609F0EACB26E241EE61EE2C
:10478000C8010E943E13A7CA30E1E3163FE5F306D5
:1047900009F4A4CB91E1E9169FE5F90651F682E010
:1047A0009ECB85E0DE01119601900D928A95E1F78E
:1047B000F801228189819A81211167CA0E94D31050
:1047C000F82E6BCAF6E1EF16FCE5FF06E1F58091E5
:1047D000EE0269E2811165E38EEC92E00E945905D8
:1047E00030CC82722AECE2162CE5F20609F449CDAF
:1047F00008F08AC095ECE9169CE5F90609F42DCD80
:1048000008F069C0F3ECEF16FCE5FF0609F419CDDA
:1048100008F01ECD32ECE3163CE5F30609F403CDB7
:104820008AE5E8168DE5F80609F465CD08F03ECD79
:10483000E114ECE5FE0609F44ECDFEEDEF16FCE5C5
:10484000FF0609F455CDF8018281E080F1808823CC
:1048500009F455CDC7010E948314D82E682FC701D3
:104860000E94FB10B7018D2D0E9476140E94EF0E5E
:104870007C01882EF801D280B580B2943FE0B3224B
:10488000809145038770C1F0AD2CDD20B1F08F2DF4
:10489000807F803421F080E28E0D883068F0809136
:1048A000080582FD09C082E00E945F1180914503E6
:1048B0008770AA24A3948111A12C9F2C92942FE09D
:1048C0009222FBE0F91508F48ACDE92DF0E0ED55D0
:1048D000FF4C0C94252F97ECE9169CE5F90609F49A
:1048E000C6CC08F4BFCCF8ECEF16FCE5FF0609F4E3
:1048F000C3CC47E256E063E376E029ECE2162CE510
:10490000F20609F4A2CC8CCF3FECE3163CE5F306AB
:1049100009F4CACCB0F4ECECEE16ECE5FE0609F4B2
:10492000BACC08F4B3CC2DECE2162CE5F20609F46F
:10493000B7CC85E03EECE3163CE5F30609F4B1CCD8
:104940006FCF86EDE8168CE5F80640F482E191ED34
:10495000E9169CE5F90608F4A4CCBDC9EDE5EE1610
:10496000FE0609F4B8C95CCF1F93CF93DF93809103
:104970001203807FA9F480910F03882389F080912E
:104980004403D091130360910D0370910E03A09125
:104990001003B0911103C62FC72316E0D81304C02B
:1049A000DF91CF911F91089590E0109711F0CF3FC4
:1049B00019F401968770F2CF189F9001199F300D5E
:1049C0001124F901EC5EFC4F41814713F2CF408185
:1049D0004613EFCF42814111ECCF438154814A1BF2
:1049E0005B0B483C510528F7809112038F70806162
:1049F00080931203F901E75EFC4F80818F70806124
:104A000080838DE093E00E940C1EDF91CF911F9177
:104A10000C94C910AF92BF92CF92DF92EF92FF92A7
:104A20000F931F93CF93DF93CDB7DEB761970FB688
:104A3000F894DEBF0FBECDBF8C0185E0F801DE012A
:104A40001D9601900D928A95E1F7F801E2808DE0C4
:104A5000A82E83E0B82E60911003709111036115A8
:104A6000710509F432C190910D0340910E03892F15
:104A700084238F3F09F429C120813181C380D480F0
:104A8000F0900F03F601E61BF70BFF2009F4E8C0D6
:104A900080911203582F507FE83CF10508F0ABC01D
:104AA000511177C0FE2C431321C092131FC0E11097
:104AB0001DC08F70806180931203C5010E940C1E7F
:104AC00080911203F80185838F2D61960FB6F894BB
:104AD000DEBF0FBECDBFDF91CF911F910F91FF9031
:104AE000EF90DF90CF90BF90AF900895CD2829F040
:104AF000822F83238F3F09F003C180E0F82FF170EC
:104B0000DF2E80FF3CC0809144034091130356E0A8
:104B1000841315C02D873E878D859E850E94B21413
:104B2000292F22952F702230F0F0243018F59F7035
:104B3000F1F0F8019581907FD1F4D12C1EC090E066
:104B4000589FF001599FF00D1124EC5EFC4F6181DC
:104B5000361306C06081261303C06281E6120FC0BF
:104B600001968770D5CF9F7011F0882331F3805E56
:104B7000883018F3C8010E940C1EFD2CA5CFEE2032
:104B800009F4A2CF80911203816080931203F12C6B
:104B90009BCF431306C0921304C0F801EE2009F422
:104BA00079C0C8010E94BE14882309F1EE20F9F0F3
:104BB00080911203803270F020910D0330910E032A
:104BC00038872F831986DB86CA868C87CE010796A5
:104BD0000E940C1E86E0F801ADE0B3E001900D925A
:104BE0008A95E1F70E94B424FF24F3946DCFC801A5
:104BF0000E940C1EF9CF51110AC08DE093E00E9473
:104C00000C1E86E0F50111928A95E9F7C0CF431397
:104C10000FC092130DC0E1100BC0F8018583C801CD
:104C20000E940C1E86E0F50111928A95E9F74CCF9F
:104C3000C8010E94BE148823D1F2EE20C1F28091F7
:104C40001203803238F220910D0330910E033A8323
:104C500029831B82DD82CC828E83CE010196B8CF60
:104C6000E83CF105F8F6FE2CEE2009F243131FC0D4
:104C700092131DC08091120380FD10C0982F907F69
:104C800069F0F8018583903F31F0982F907F905F15
:104C90008F70892B8583C8010E940C1E86E0F80165
:104CA000ADE0B3E001900D928A95E1F70DCFC80118
:104CB0000E94BE1481118ECF809112038160809377
:104CC0001203C8010E940C1EFFCEEE2009F48FCF04
:104CD000C8010E94BE14F82E882309F488CF86E00C
:104CE000F801ADE0B3E001900D928A95E1F7809173
:104CF0000D0390910E030E94B2140E94B424E4CEDE
:104D000081E08E25FBCE1F93CF93DF93CDB7DEB727
:104D100067970FB6F894DEBF0FBECDBF4B8B5C8B91
:104D20006D8B7E8B8F8B6111109247031A8A198AC3
:104D300085E0FE017396DE011D9601900D928A9525
:104D4000E1F786E0FE013D96DE01179601900D9297
:104D50008A95E1F7CE0107960E940A25882389F0FB
:104D600016E08091440390911303891349C067961C
:104D70000FB6F894DEBF0FBECDBFDF91CF911F916C
:104D8000089586E0FE013796DE01119601900D929E
:104D90008A95E1F78A859B85892B11F38F81988508
:104DA00089238F3FE9F22091130330E0C901019676
:104DB00087709927409144034817190671F40E949F
:104DC000B91A109213031092440386E0EDE0F3E069
:104DD000DF011D928A95E9F7C3CF96E0929FD0013B
:104DE000939FB00D1124AC5EBC4FFE013196019033
:104DF0000D929A95E1F7809313030E94C910B0CFEA
:104E0000819FC00111248C5E9C4F0E940A2588233B
:104E100009F4ADCF8091440390E001968770992703
:104E2000809344039ECF6F927F928F929F92AF9216
:104E3000BF92CF92DF92EF92FF920F931F93CF9387
:104E4000DF93CDB7DEB72F970FB6F894DEBF0FBE56
:104E5000CDBF8E010F5F1F4F8AE0F80111928A9536
:104E6000E9F79DE4E92E91E0F92E68016624639448
:104E7000712C31E6832E31E0932EF70181917F0171
:104E80008F3F09F445C0F894E82FE295EF70F0E009
:104E900021A18F70A30102C0440F551F8A95E2F72C
:104EA000CA01922F982B91A392A18095892382A366
:104EB000789400C0E2E5F1E021E030E0B12CA12CD3
:104EC00041914F3F09F480C0A42FA295AF70B0E08C
:104ED00090968C9190E04F7002C0959587954A9579
:104EE000E2F780FD71C0C901A82AB92A220F331F39
:104EF0008E169F0629F7F701319780818F3F11F0B9
:104F00000E94950E50EA5A95F1F7F601B182A082FF
:104F1000F2E0CF0ED11C42E5E41641E0F40609F0C0
:104F2000ACCF4AE050E0B8018EE493E00E948E2FAF
:104F3000FF24F394009709F4F12C892B09F447C05E
:104F40008AE0F801AEE4B3E001900D928A95E1F7B2
:104F500081E080934D030E944D0590934C03809314
:104F60004B0380914B0390914C030E9432050597AF
:104F700090F180914E0390914F0390936903809339
:104F80006803809150039091510390936B03809339
:104F90006A03809152039091530390936D03809321
:104FA0006C03809154039091550390936F03809309
:104FB0006E038091560390915703909371038093F1
:104FC000700310924D0307C090E080E08DCF809178
:104FD0004D038111C6CF809158038823A9F086958F
:104FE00049F183E08B8784E08C871D860E944D0504
:104FF0008160782F9F878E87109258034B855C8540
:105000006D858F850E9483268F2D2F960FB6F8947D
:10501000DEBF0FBECDBFDF91CF911F910F91FF90EB
:10502000EF90DF90CF90BF90AF909F908F907F9048
:105030006F90089584E08B87D7CF1F920F920FB6A1
:105040000F9211242F933F934F935F936F937F930E
:105050008F939F93AF93BF93CF93DF93EF93FF9380
:10506000D091E900DF708091EC00C82FC17080FD05
:10507000C0E81092E9008091F000877F8093F000F3
:1050800078940E94CE1A1092E9008091F000886016
:105090008093F000CD2BCF70C093E900FF91EF918A
:1050A000DF91CF91BF91AF919F918F917F916F9140
:1050B0005F914F913F912F910F900FBE0F901F90D6
:1050C00018951F920F920FB60F9211242F933F93B2
:1050D0004F935F936F937F938F939F93AF93BF9300
:1050E000EF93FF938091E10082FF09C08091E2007D
:1050F00082FF05C08091E1008B7F8093E100809169
:10510000DA0080FF24C08091D80080FF20C0809109
:10511000DA008E7F8093DA008091D90080FF9DC0F5
:1051200080E189BD82E189BD09B400FEFDCF81E047
:105130008093310580910C05811109C00E94A40360
:105140000E946F048091E20084608093E20080916D
:10515000E10080FF17C08091E20080FF13C08091C2
:10516000E2008E7F8093E2008091E2008061809374
:10517000E2008091D80080628093D80019BC85E05D
:10518000809331058091E10084FF2BC08091E20083
:1051900084FF27C080E189BD82E189BD89B5982F50
:1051A000917080FFFBCF8091D8008F7D8093D800D5
:1051B0008091E1008F7E8093E1008091E2008F7EFC
:1051C0008093E2008091E20081608093E200809110
:1051D0003205882309F447C084E08093310580912B
:1051E00031058091E10083FF27C08091E20083FFB9
:1051F00023C08091E100877F8093E10082E080936B
:105200003105109232058091E1008E7F8093E1009C
:105210008091E2008E7F8093E2008091E2008061C5
:105220008093E20042E060E080E00E943D048091D3
:10523000F00088608093F000FF91EF91BF91AF91F3
:105240009F918F917F916F915F914F913F912F919E
:105250000F900FBE0F901F90189519BC109231053A
:1052600010920C0574CF8091E30087FD93E090933A
:105270003105B5CF78941F921FB61F9211248F93DA
:105280009F93AF93BF938091030590910405A091E4
:105290000505B09106050196A11DB11D809303057A
:1052A00090930405A0930505B0930605BF91AF91B7
:1052B0009F918F911F901FBE1F9018951F921FB630
:1052C0001F9211248F939F93AF93BF9380910205F8
:1052D000811113C08091030590910405A0910505EB
:1052E000B09106054196A11DB11D809303059093D1
:1052F0000405A0930505B0930605BF91AF919F915A
:105300008F911F901FBE1F901895CDB7DEB7E39702
:105310000FB6F894DEBF0FBECDBF84B7877F84BFC2
:105320000FB6F894A8958091600088618093600022
:10533000109260000FBE80E890E00FB6F894809362
:105340006100909361000FBE85B7806885BF85B707
:10535000806885BF83E99EE09093CD028093CC0264
:105360000E94A4030E946F048091E20084608093F5
:10537000E2007894809131058823A1F01091E90032
:105380001F709091EC00892F817090FD80E8182BA0
:105390001092E9008091E80083FD0E94CE1A1F70F0
:1053A0001093E90082E084BD93E095BD9AEF97BD2C
:1053B00080936E000E94E514811102C00E941F14A8
:1053C0000DE411E082E5E82E81E0F82ED8018D9100
:1053D0008D018F3F11F00E94950EE016F106B1F796
:1053E00002E511E0F80181918F018F3F11F00E94D9
:1053F000950EF1E001361F07A9F78AE0E8E6F3E031
:10540000DF01282F1D922A95E9F7EEE4F3E0DF0192
:105410001D928A95E9F70E94971D811102C00E9492
:10542000A21D82E090E00E94B42F80935D030E9451
:10543000FE1490930805809307050E941327EFE35D
:10544000FCE93197F1F700C000000E94132780911A
:10545000680380FF08C06FEF7FEF90E080E00E945C
:10546000F62F0E94D61283E090E00E94B42F0E9493
:10547000861110923F058FEF9FEF9093590580930F
:10548000580590935B0580935A0590935D05809332
:105490005C0590935F0580935E0590936105809312
:1054A00060059093630580936205909365058093F2
:1054B0006405909367058093660510927F0390932F
:1054C00099038093980390939B0380939A039093FE
:1054D0009D0380939C0390939F0380939E039093DE
:1054E000A1038093A0039093A3038093A2039093BE
:1054F000A5038093A4039093A7038093A6030E941F
:10550000971D811104C00E94A21D0E949E1A46E0B0
:1055100050E06CE170E08DE695E00E94A42F1092BF
:105520006C0580916D058C7F11F40E949E1A219864
:10553000299A22982A9A83B1869581701A995FC216
:1055400090E0892B80935B038091070580688093AE
:10555000070580910705909108050E942E1483E1AC
:1055600090E00E94BC2F6093FF037093000480932F
:1055700001049093020484E091E09093FF048093EF
:10558000FE048091310500E112E1853009F474C216
:105590000E94132781110E94410588E693E098AB91
:1055A0008FA71EE5E12E13E0F12E08E8202E01E082
:1055B000302E712C612CAFA5B8A98D909D90B8AB01
:1055C000AFA7F701808191818815990509F497C0EB
:1055D0009C01282539253BAB2AAB3CA62BA6512C98
:1055E000CC24C394D12C8AA99BA98C219D21892BE1
:1055F00009F479C059A26AA284010C211D2181E01D
:105600000115110509F480E08BA30E944D0581600E
:10561000782F9DA38CA349A15AA16BA18DA10E94B3
:105620008326D7018D919C9111978C259D258D9373
:105630009C93012B31F0EBA5FCA580818F3F09F0F5
:1056400025C2412C042D10E080917F03800F912F03
:10565000911D09976CF1E8E0AE2EB12CA01AB10AA9
:10566000B80160587C4FA50180E893E00E949B2F11
:10567000B80168577C4FA50188E893E00E949B2FF2
:10568000A501440F551FB801660F771F68567C4F60
:1056900088E993E00E949B2FB80160577C4FA501D9
:1056A00080E993E00E949B2F88E0841980937F0318
:1056B00080917F0390E0F9A9AF2FB0E09D01220F08
:1056C000331F2D523E4FAA0FBB1FBD016C527E4FA0
:1056D00041E0480F941508F4DDC180937F03739473
:1056E000EBE0E71540F15394CC0CDD1C2BA53CA559
:1056F0002F5F3F4F3CA72BA73FE0531274CF63941B
:1057000042E0E40EF11C5FE0250E311C85E06812DA
:1057100052CF711010C08FEF8EA38FA318A60E94D6
:105720004D058160782F9AA789A74EA15FA168A532
:105730008AA50E9483260E947915E0915B03EE0FF3
:10574000EE0FE0935B0383B1869581708DA71EA653
:105750001A99B6C180E0ADA5BEA58A2BE82BE093CF
:105760005B03EF70F0E0EF59FE4F808190915A0398
:10577000890F80935A0320E08430CCF08091590344
:105780008F5F8093590384E089838A8311E01B83B0
:105790000E944D058160782F9D838C831093580360
:1057A00049815A816B818D810E94832621E08091FD
:1057B0005A038D3FDCF48091590381508093590343
:1057C00083E0898384E08A8381E08B830E944D0596
:1057D0008160782F9D838C8382E080935803498178
:1057E0005A816B818D810E94832621E080915A032A
:1057F000082E000C990B64E070E00E94112F80933A
:105800005A0321110E94410586E0E9E7F3E0DE0139
:10581000119601900D928A95E1F7F0907B03E0904C
:105820007C0310917D0300917E0310927B03109204
:105830007C0310927D0310927E038F2D8E2909F434
:1058400048C080917703909178030E9432059C01B3
:1058500090917303992309F4CBC223333105C8F126
:105860009F3F19F09F5F90937303FF2059F00E94B0
:10587000190E9FEF1F140CF491E0899F802D1124C5
:1058800080937B03EE2059F00E94190E9FEF1E14A7
:105890000CF491E0899F802D112480937C0330913A
:1058A0007B033323B1F020917C03222391F045EB5D
:1058B0003403C0011124992309F405C190937B039B
:1058C00055EB250390011124332309F400C13093D3
:1058D0007C03812F802B09F448C08091750390913F
:1058E00076030E9432059C0190917203992309F47A
:1058F0007AC225363105C8F19F3F19F09F5F90931A
:105900007203112359F00E94F70D9FEF11160CF44A
:1059100091E0899F802D112480937D03002359F00D
:105920000E94F70D9FEF10160CF491E0899F802DD7
:10593000112480937E0330917D033323B1F02091B5
:105940007E03222391F045EB3403C00111249923F7
:1059500009F4C1C090937D0355EB250390011124F8
:10596000332309F4BCC030937E0380917B03909174
:105970007C03892B90917D03892B90917E03892B49
:1059800011F00E94570D86E0FE013196A9E7B3E0C1
:1059900001900D928A95E1F70E94E40590915C03D5
:1059A000891721F00E94E40580935C038091310502
:1059B000843009F0E6CD83E08093E9008091E8002F
:1059C00082FFDFCD8091E80090E085FF06C00E9455
:1059D000C303882309F487C091E08091E8008B77A6
:1059E0008093E800992309F4CCCDE981E150E331BB
:1059F00008F00DC1F0E0E155FF4C0C94252F92E02A
:105A0000A0CD80913105843031F10E94791510923A
:105A1000020528E130E040E40FB6F894A895209301
:105A200060000FBE4093600083B7817F846083BFB6
:105A300083B7816083BF7894889583B78E7F83BF57
:105A40000FB6F894A89580916000886180936000FB
:105A5000109260000FBE80913005882369F00E948B
:105A60001327E8E6F3E081919191892B09F09CC11D
:105A700053E0E237F507B9F780913105853009F435
:105A8000C0CF0E94B91A0E94E40582CD89AB44249C
:105A90004394D8CD90E0FC01E158FC4FD9015C91D2
:105AA0005183DB015C915187B9A9B18B880F991F94
:105AB000FC01E158FC4F128E118E91E0842F08CE2C
:105AC00082E090E048CE81E080937B03F9CE81E0D4
:105AD00080937C03FECE81E080937D033DCF81E007
