:100000000C9431030C9478030C9478030C947803CB
:100010000C9478030C9478030C9478030C94780374
:100020000C9478030C9478030C945A250C941625A0
:100030000C9457260C9478030C9478030C94780352
:100040000C9478030C9478030C9478030C94780344
:100050000C9478030C9433260C9478030C94780356
:100060000C9478030C9478030C9478030C94780324
:100070000C9478030C9478030C9478030C94780314
:100080000C9478030C9478030C9478030C94780304
:100090000C9478030C9478030C9478030C947803F4
:1000A0000C9478030C9478030C94780305010902EE
:1000B000A10185020901A1000509190129081500FE
:1000C0002501950875018102050109300931158165
:1000D000257F95027508810609381581257F9501D0
:1000E00075088106050C0A38021581257F95017572
:1000F000088106C0C005010980A101850319012AF4
:10010000B700150126B700950175108100C0050CD8
:100110000901A101850419012AA002150126A002E6
:10012000950175108100C005010906A1018506052C
:100130000719E029E71500250195087501810205D9
:1001400007190029EF1500250195F07501810205B9
:10015000081901290595057501910295017503910D
:1001600001C00660FF0961A1010962150026FF00B8
:100170009520750881020963150026FF00952075FA
:10018000089102C005010906A101050719E029E748
:1001900015002501950875018102950175088101F9
:1001A0000507190029FF150026FF0095067508812F
:1001B000000508190129059505750191029501753C
:1001C000039101C0000000000000000000000000DA
:1001D000000000000000000000000000000000001F
:1001E00000000000000000007E0F00D4FFFFFFC7EA
:1001F0000000007800000000000000002A2B28000A
:1002000000000000000000000000000000000029C5
:10021000000000002C1E3420212224342627252E05
:10022000362D3738271E1F2021222324252633333D
:10023000362E37381F0405060708090A0B0C0D0E69
:100240000F101112131415161718191A1B1C1D2F35
:100250003130232D350405060708090A0B0C0D0E55
:100260000F101112131415161718191A1B1C1D2F15
:100270003130354C0001010101010101010102028F
:100280000202020202020203030303030303030444
:10029000040404040404050505050506060606060F
:1002A000070707070708080808090909090A0A0AC9
:1002B0000B0B0B0C0C0C0D0D0D0E0E0E0F0F0F106B
:1002C00010111111121213131414151516161717F5
:1002D000181819191A1A1B1B1C1D1D1E1E1F202061
:1002E000212222232424252626272829292A2B2CAB
:1002F0002D2D2E2F30313232333435363738393ACE
:100300003B3C3D3E3F404142434445464748494AC5
:100310004C4D4E4F50515354555658595A5B5D5E93
:100320005F616264656668696B6C6D6F707273752E
:1003300077787A7B7D7E8082838587888A8C8E8F92
:1003400091939596989A9C9EA0A2A3A5A7A9ABADC0
:10035000AFB1B3B5B7BABCBEC0C2C4C6C9CBCDCFAE
:10036000D1D4D6D8DBDDDFE2E4E7E9EBEEF0F3F55C
:10037000F8FAFDFF29001E001F00200021002200C6
:10038000230024002500260027002D002E002A002F
:100390004C002B0014001A000800150017001C0068
:1003A00018000C00120013002F00300031004B0029
:1003B000390004001600070009000A000B000D00B8
:1003C0000E000F0033003400310028004E00E10021
:1003D000E1001D001B0006001900050011001000BF
:1003E000360037003800E50052004D00E000E30021
:1003F000E200A900AA002C002C0000002C002C0018
:10040000E6000151500051004F0035003A003B001A
:100410003C003D003E003F004000410042004300E0
:10042000440045000100C55CC25C01000100010000
:10043000005C010001000100010001000100010059
:1004400001000100C65C0100010001000100010083
:100450000100010001000100010001000100010094
:100460007200C75C010001000100010001000100F1
:100470000100010001000100010001007300C95CDE
:10048000C85C010001000100010001000100010041
:10049000000001000100C35C0100CC5CCA5CCB5CC5
:1004A0000100010001000100010001000100010044
:1004B0000100010001000100010001000100010034
:1004C0000100010001000100010001000100010024
:1004D0000100010001000100010001000100010014
:1004E0000100010001000100010001000100010004
:1004F00001000100010001000100010001000100F4
:1005000001000100010001000100010001000100E3
:1005100001000100010001000100010001000100D3
:1005200001000100010000000100010001000100C4
:1005300001000100010001000100010001000100B3
:1005400001000100010001000100010001000100A3
:100550000100010001000100010001000100010093
:100560000100010001000100010001000100010083
:100570000100010001000100010001000100010073
:100580000100010001000100010001000100010063
:100590000100010001000100010001000100010053
:1005A0000100010001000100010001000100010043
:1005B0000100010001000100010001000000010034
:1005C00001000100010001000100010009025B00BF
:1005D000030100A0FA090400000103010100092140
:1005E00011010001224000070581030800020904EF
:1005F0000100020300000009211101000122220074
:1006000007058203200001070503032000010904F8
:100610000200010300000009211101000122B600BF
:10062000070584032000021201000200000008A157
:100630007B02650100010200010A034D00570036EC
:100640000035000000160371006D006B006200753C
:100650000069006C0064006500720000000403097A
:10066000040011241FBECFEFDAE0DEBFCDBF04B619
:1006700003FE27C080919D0390919E03A0919F034C
:10068000B091A0038730904BA740B04BD1F41092AB
:100690009D0310929E0310929F031092A00314BE1C
:1006A00084B7877F84BF0FB6F894A89580916000C7
:1006B000886180936000109260000FBEE0E0F8E374
:1006C000099523E0ACE0B2E001C01D92AD39B2075C
:1006D000E1F712E0A0E0B1E0E0E9F9E502C0059041
:1006E0000D92AC30B107D9F70E947E260C94712C84
:1006F0000C94000090919703937061F081110BC0EE
:1007000094609093970310921801809196038160F2
:100710008093960308958E3110F09467F2CF880F7E
:10072000880F982BEECF90919703937059F0809398
:1007300098036093990340939A0380919603816094
:10074000809396030895E8EDF0E080818E7F8083AA
:100750001092E2001092DA001092E100A0EEB0E0F8
:100760008C9181608C9380818F77808319BCA7EDF9
:10077000B0E08C918E7F8C9380818F7E80831092ED
:100780005F0308952091E4003091E50095E6A9010A
:100790002091EC00822F817020FF06C08091E8003C
:1007A00080FF06C080E008952091E80022FD1AC075
:1007B00080918403882389F0853089F08091EB0053
:1007C00085FD0FC02091E4003091E50042175307EA
:1007D000F9F29150E1F684E0089582E0089583E013
:1007E000089581E00895EF92FF920F931F93CF93A6
:1007F0007C018B010E94C203C82F811117C0809118
:10080000E80085FD0BC08091E8008E778093E800BA
:100810000E94C203882399F3C82F08C0F701819171
:100820007F018093F1000150110949F78C2FCF917E
:100830001F910F91FF90EF9008958091860387FF9D
:1008400013C08091E80082FF06C08091E8008B779A
:100850008093E80004C0809184038111F2CF089551
:10086000809184038823D9F38091E80080FFF8CF3A
:100870008091E8008E77ECCF982F9093E900242F99
:10088000762F50E0891731F07091EC002091ED0047
:100890005091F00021FD07C09F5F973071F7809362
:1008A000E90081E008953091EB003E7F3093EB004A
:1008B0003091ED003D7F3093ED003091EB003160E1
:1008C0003093EB007093EC002093ED005093F00018
:1008D0002091EE0027FDE0CF80E00895CF92DF92D7
:1008E000EF92FF920F931F93CF93DF93C8EDD0E069
:1008F00088818F7E8883E7EDF0E08081816080834E
:1009000084E082BF81E080935F0388818E7F88834B
:1009100002EE10E0F80110821092DA0081EEC82E8B
:10092000D12CF601108288818F7788838881806836
:10093000888388818F7D888319BC109284031092EC
:100940008503109283031092820390EEE92EF12C1E
:10095000F70180818B7F808388818160888342E07A
:1009600060E080E00E943C04F60180818E7F8083FD
:10097000F801808181608083808188608083F701B5
:1009800080818E7F8083888180618883DF91CF9191
:100990001F910F91FF90EF90DF90CF900895FC0191
:1009A00080918C0390918D0386179707A0F06115B5
:1009B000710529F49091E8009E779093E80090E00B
:1009C0006115710551F4911108C08091E80082FF12
:1009D00034C080E00895BC01F2CF80918403882365
:1009E000C1F18530C1F18091E80083FD30C0809174
:1009F000E80082FDEACF8091E80080FFE1CF80919E
:100A0000F3002091F200382F6115710519F028309C
:100A1000310558F091E02830310509F090E020913F
:100A2000E8002E772093E800CBCF81918093F100EE
:100A3000615071092F5F3F4FE7CF80918403882376
:100A400041F0853041F08091E80083FFBECF81E026
:100A5000089582E0089583E00895089580916103E8
:100A600008959C014FB7F8948091560390915703D5
:100A7000A0915803B09159034FBF821B930B089567
:100A80002FB7F894609156037091570380915803E3
:100A9000909159032FBF08952FB7F8948091560372
:100AA00090915703A0915803B09159032FBF089517
:100AB000209114012223C9F020915A0327FF15C069
:100AC000E62FE695E695E695EE31D8F4E80FF92F96
:100AD000F11D677021E030E001C0220F6A95EAF74E
:100AE00020958281282322830895FC01329608965E
:100AF0002191621303C0DF0111971C92E817F907D7
:100B0000B9F70895209114012223C1F020915A03CE
:100B100027FF14C0E62FE695E695E695EE31F8F44A
:100B2000E80FF92FF11D677021E030E001C0220FBE
:100B30006A95EAF78281822B82830895FC013296BE
:100B40002FEF30E04191641751F02F3F19F441111C
:100B500001C0232F3F5F3630A9F72F3F09F40895D6
:100B6000820F911D27FD9A95FC01628308952091C3
:100B70005303309154032817390771F090935403AD
:100B800080935303E0915103F0915203309721F089
:100B90000084F185E02D0994089520914F03309150
:100BA00050032817390771F09093500380934F0337
:100BB000E0915103F0915203309721F00680F781C4
:100BC000E02D09940895E0915103F091520330977C
:100BD00021F00190F081E02D099480E00895FA0160
:100BE000811101C0FB010994E6E1F3E08183608398
:100BF0004283339693E0EF34F907C1F70895FC017F
:100C0000EE0FFF1FE80FF91FEA5EFC4F6183408380
:100C100022830895E7E9F3E0248130E1231B08F4FF
:100C200020E0248380919603816080939603089549
:100C3000E7E9F3E0248130E1230F08F42FEF248368
:100C4000809196038160809396030895E7E9F3E02D
:100C5000438120E1421B08F440E08181628190E001
:100C60000C949303E7E9F3E0438120E1420F08F499
:100C70004FEF8181628190E00C949303E7E9F3E008
:100C8000628120E1621B08F460E08181438190E091
:100C90000C949303E7E9F3E0628120E1620F08F42A
:100CA0006FEF8181438190E00C949303E7E9F3E0D7
:100CB0008181438162818850990B0C949303E7E909
:100CC000F3E0818190E04381628108960C94930364
:100CD0008091970386958695815009F48DE10C9457
:100CE0007A0380919703869586958F5F8E3108F001
:100CF00081E00C947A03E42FF0E0EE0FFF1FED5239
:100D0000FE4F9081921B97FD9195292F38E1239FEB
:100D1000212D1124620F08950F931F9310E0F80105
:100D2000EE0FFF1FED52FE4F9081905797FD91956A
:100D3000000F111FF801EC52FE4F00810052110B01
:100D40002003F001219FF00D112408E310E0091B9E
:100D5000110997FD139540039001419F300D112417
:100D6000E20FF31F9F01220F331F2E0F3F1F37FF8C
:100D700002C021583F4F220F232F221F330B620F37
:100D80001F910F9108950F931F93522F10E0F801B8
:100D9000EE0FFF1FEC52FE4FA081A052BB0B9D0136
:100DA0005203F001539FF00D1124000F111FD801C1
:100DB000AD52BE4F0C910057110B40039001419F63
:100DC000300D11242E0F3F1F37FF02C0215C3F4F13
:100DD00096E0359527959A95E1F7620F1F910F914F
:100DE00008950F931F93522F10E0F801EE0FFF1F8D
:100DF000EC52FE4FA081A052BB0B9D015203F001AB
:100E0000539FF00D1124000F111FD801AD52BE4F9A
:100E10000C910057110B40039001419F300D11249C
:100E20002E0F3F1F37FF02C021583F4F220F232FA5
:100E3000221F330B620F1F910F910895EF920F93B2
:100E4000972F23E0029FB0011124759567956E0DD1
:100E5000792F0F91EF900895322F50E0FA01EE0FA5
:100E6000FF1FEC52FE4F9081905297FD9195440FD9
:100E7000551FFA01ED52FE4F2081231B330B290F22
:100E8000311D97FD3A95620F0895E42FF0E0EE0FC3
:100E9000FF1FEC52FE4F6081621B0895E42FF0E0CB
:100EA000EE0FFF1FED52FE4F6081621B0895622F0F
:100EB0000895E42FF0E0EE0FFF1FED52FE4F40814A
:100EC00034EE439F412D1124E82FF0E050E0445EC2
:100ED0005F4FDA01A21BB1099D01B7FF03C0319535
:100EE0002195310993E0220F331F9A95E1F7AF0165
:100EF000421B530B9A0157FD20E0582F259F212DAF
:100F00001124822F0895E42FF0E0EE0FFF1FED5221
:100F1000FE4F408134EE439F412D1124E72FF0E036
:100F200050E0445E5F4FDA01A21BB1099D01B7FF9B
:100F300003C031952195310993E0220F331F9A9513
:100F4000E1F7AF01421B530B9A0157FD20E0279FA9
:100F5000212D1124722F08950C94F4050C94FF0593
:100F6000FC019B01009729F480E077FF2BC080E80B
:100F70000895AC0197FF04C044275527481B590B1F
:100F8000B901640F751F37FD10C0241B350BC90153
:100F9000A5E0880F991FAA95E1F70E94322B80E205
:100FA000861BF7FF0FC081950895CB0165E0880F80
:100FB000991F6A95E1F7BA01621B730B0E94322BED
:100FC00080E6EECF0895EF920F93CF93DF93D72F64
:100FD000C82FC9010E19BA010E94B007602F681B03
:100FE0007D2F8C2FDF91CF910F91EF9008950F936C
:100FF000CF93DF93D72FC82FC901BA010E94B00742
:10100000682F600F7D2F8C2FDF91CF910F91089566
:10101000EF920F931F93CF93DF93D62FC72F182FE5
:10102000C9010E19010FBA010E94B007081B202F39
:10103000219F212D1124822F6D2F7C2FDF91CF91A5
:101040001F910F91EF900895EF920F931F93CF93FD
:10105000DF93D62F172FC82FC9010E19070FBA011A
:101060000E94B007702F781B719F712D11246D2F76
:101070008C2FDF91CF911F910F91EF9008950F93D7
:101080001F93CF93DF93D62FC72F182FC901212F7E
:10109000201B022FBA010E94B007982F990F990FB9
:1010A000891B800F282F219F212D1124822F6D2F26
:1010B0007C2FDF91CF911F910F9108950F931F9374
:1010C000CF93DF93D62F172FC82FC901272F201BAF
:1010D000022FBA010E94B007982F990F990F782F0D
:1010E000791B700F719F712D11246D2F8C2FDF9143
:1010F000CF911F910F910895E82F86FDE0952E2F37
:101100002F7086FD2F5FE695E695E695E670F0E098
:10111000EF58FE4F9181929F902D212D1124929591
:101120009F702295207F922B2081920F87FD9195B1
:1011300080E8890F08950F931F93CF93DF938B015E
:10114000D82FC42F822F0E947C08EC2FF0E0EE0FE6
:10115000FF1FED52FE4F90819058890F87FD8195BA
:10116000880F682F2CE0629F612D1124600F712F72
:101170008D2FDF91CF911F910F9108954091100114
:101180005091110125E038E0429FC001439F900D2E
:10119000529F900D1124875E994C9093110180937A
:1011A0001001890F0895AC018230910508F408956B
:1011B0009FEF413E8EE1580740F49A0195E0369545
:1011C00027959A95E1F798E0920F61E0E62FE90FF5
:1011D000FF27FF1F9F0135952795822F229FF00142
:1011E000239FF00DF00D11244E175F0738F49FEF89
:1011F000920F961758F78FEF860F08952F3FE9F358
:1012000061E0620FF6CF0F93CF93DF93D72FC82FF4
:1012100047FD419588E390E0841B910947FD939534
:10122000889FB001899F700D700D1124229FC0010D
:10123000239F900D900D1124860F971F0E94D308B5
:10124000982F990F890F682F600F7D2F8C2FDF91BA
:10125000CF910F91089530E020E0869F212D969F39
:10126000200D311D1124C9010895AF92BF92CF9274
:10127000DF92FF920F931F93CF93DF93362F472F69
:10128000E82FF0E0EC58FD4F71110FC0E4918E2F64
:101290002E2F6E2F722FDF91CF911F910F91FF9004
:1012A000DF90CF90BF90AF900895C72FD0E02491EA
:1012B000F22E022F10E056E0659FC0011124EFEFDF
:1012C000F0E0BF010E941E2B832F90E0880F991F32
:1012D00035E5369FD001379FB00D11248A1B9B0B3B
:1012E000982F990F980F6F01CC1ADD0AC09ED0017C
:1012F000C19EB00DD09EB00D11248B2F499FA0012F
:101300001124452F55276F01C41AD50AC09EA0018C
:10131000C19E500DD09E500D11245F01A91AB10835
:10132000AC9E6001AD9ED00CBC9ED00C1124CD2C87
:10133000DD24EC19FD09E09FE001E19FD00DF09F55
:10134000D00D1124ED2F62307105A1F050F461151C
:10135000710509F49ECF6130710581F0EB2F852F67
:1013600098CF6430710569F080F06630710509F43A
:1013700090CFF4CFE22F2B2F8D2F8BCFE22F252F65
:1013800088CFEB2F822F2D2F84CF2B2F8F2DE52F62
:1013900080CFDF92EF92FF920F931F93CF93DF9353
:1013A0007C01C0911501CC0FCC0F14E01C0F012F54
:1013B000143108F003E160919B036695669521E086
:1013C000620F08F46FEF80918E0390918F030E945B
:1013D0002B09D82ED0E0C01760F081E0133108F05F
:1013E00080E0DF91CF911F910F91FF90EF90DF9000
:1013F0000895FE01E750FE4F8081909116018923E8
:1014000091F0609198037091990380919A032D2D2A
:101410004C2FF70109950E943509462F282F672F79
:10142000CE010E94AE072196D6CF9F92AF92BF9277
:10143000CF92DF92EF92FF920F931F93CF93DF93A0
:101440006C01C0911501CC0FCC0F14E01C0FB12E14
:10145000143110F033E1B32E60919B0366956695CD
:1014600080918E0390918F030E942B09F82E80E4C7
:101470008F0D0E947C0890E8A92EA80E8F2D0E9447
:101480007C0820E8922E980ED0E0CB1580F081E009
:10149000133108F080E0DF91CF911F910F91FF9001
:1014A000EF90DF90CF90BF90AF909F900895FE0196
:1014B000E750FE4F8081909116018923A1F0609141
:1014C00098037091990380919A03EF2C0C2F292D8A
:1014D0004A2DF60109950E943509462F282F672FBE
:1014E000CE010E94AE072196D0CF7F928F929F921D
:1014F000AF92BF92CF92DF92EF92FF920F931F9322
:10150000CF93DF935C01C0911501CC0FCC0F14E099
:101510001C0FF12E143110F033E1F32E60919B0378
:10152000669580918E0390918F030E942B09782EEF
:10153000D0E0CF1590F081E0133108F080E0DF912A
:10154000CF911F910F91FF90EF90DF90CF90BF90C0
:10155000AF909F908F907F900895FE01E750FE4FCF
:101560008081909116018923C9F1CE01880F991FBE
:1015700088579E4FFC01E55BFF4F2081422F40576B
:10158000550B6A01845B9F4FFC018081282F2052FC
:10159000330B4901449F9001459F300D300D1124BC
:1015A000889CC001899C900D900D1124820F931F7F
:1015B0000E94D308082F609198037091990380913D
:1015C0009A03E72C9401A601F50109950E943509BB
:1015D000462F282F672FCE010E94AE072196A9CF54
:1015E000CF92DF92EF92FF920F931F93CF93DF93EF
:1015F0007C01C0911501CC0FCC0F14E01C0FD12E33
:10160000143110F033E1D32E60919B0366958091E5
:101610008E0390918F030E942B09C82ED0E0CD1528
:1016200068F081E0133108F080E0DF91CF911F91E5
:101630000F91FF90EF90DF90CF900895FE01E7505B
:10164000FE4F808190911601892311F1CE01880F00
:10165000991F88579E4FFC01E45BFF4F2081205269
:10166000330B855B9F4FFC0140814057550B6091C8
:1016700098037091990380919A030C2DF7010995B5
:101680000E943509462F282F672FCE010E94AE07F2
:101690002196C5CF0E944C059C019091BB02809180
:1016A000BC02982B21F03093B8022093B70290919E
:1016B000BD028091BE02982B21F03093B602209398
:1016C000B502E0915103F0915203309749F082E066
:1016D0008093B9020480F581E02D89EB92E00994B2
:1016E00008954091BB02803F59F48091BC0287FF6E
:1016F0000DC01092BC0241110BC01092B30208C081
:10170000813F81F48091BC0218169CF3442381F040
:101710008091BD029091BE02892B09F05AC01092AF
:10172000B2020895823F49F447FFF0CF1092BB0206
:101730008091BC028111ECCFE0CF833F19F41416E5
:10174000ACF3E4CF9091BD02893F29F41916F4F669
:101750001092BD02DBCF8A3F19F497FFD7CFF8CFA5
:101760009091BE028B3F29F497FFD0CF1092BE021A
:10177000CDCF8C3F19F41916CCF3C8CF9CE0980F4D
:10178000953090F4845F990B21E030E0B90102C0FC
:10179000660F771F8A95E2F7CB0180959091BA0288
:1017A00089238093BA02B2CF8D3F31F48091B40285
:1017B0008E7F8093B402AACF8E3F21F48091B40231
:1017C0008D7FF7CF8F3F09F0A1CF8091B4028B7F3F
:1017D000F0CF08958091B40280FD16C081FD16C03F
:1017E00082FD16C08091B2028823A1F0883280F475
:1017F00028E0829FC001112468E270E00E94322B31
:10180000862F672B39F0089582E0089584E00895CB
:1018100088E0089581E008958091B40280FD14C0AD
:1018200081FD14C082FD16C08091B302882381F02F
:10183000843180F422E3829FC001112464E170E0CE
:101840000E94322B862F08958CE0089589E1089537
:1018500085E0089582E30895803F31F40E940C0CE6
:1018600081958093BC020895813F19F40E940C0C6D
:10187000F8CF823F31F40E940C0C81958093BB021B
:101880000895833F19F40E940C0CF8CF893F29F486
:101890000E94EA0B8093BD0208958A3F21F40E94C2
:1018A000EA0B8195F7CF8B3F31F40E94EA0B8195CB
:1018B0008093BE0208958C3F19F40E94EA0BF8CF82
:1018C0009CE0980F953070F4845F990B21E030E034
:1018D00001C0220F8A95EAF78091BA02822B809389
:1018E000BA0208958D3F31F48091B40281608093F3
:1018F000B40208958E3F21F48091B4028260F7CF44
:101900008F3FB9F78091B4028460F1CF80E00895F1
:10191000F894E82FE295EF70F0E031A1282F2F70B6
:1019200081E090E001C0880F2A95EAF7982F909502
:10193000932391A392A1892B82A3789408959091E7
:101940005A0392FF06C0282F28712830F9F4877FA8
:10195000846093FF06C0282F28712831F1F4877E18
:10196000846120915B0320FF06C0382F3871383026
:10197000D9F4877F816021FF06C0282F2871283184
:10198000D1F4877E816194FD877E0895282F24718C
:101990002430F9F68B7F8860DCCF282F2471243126
:1019A00001F78B7E8861DDCF382F3171313019F727
:1019B0008E7F8860E0CF282F2171213121F78E7E24
:1019C0008861E1CFCF93DF93EC0182389105A9F1D3
:1019D000D8F58133910509F496C048F5893291050F
:1019E00009F48AC08A9709F495C0C11521E5D20788
:1019F00008F0BCC0C11530E5D30708F014C1C83EDB
:101A0000D10508F09CC0C03ED10560F5C83AD105AB
:101A100008F087C0C53AD10508F0FDC0C130D10536
:101A200009F12097F9F0C430D105E0F440C08533C6
:101A3000910509F45AC0C997C1F680915A03837081
:101A400089F0C0EED0E00EC0833E910599F170F4AC
:101A5000803E910501F1823E910539F680915A034D
:101A600082FD21C0CE01DF91CF910895863E910580
:101A700061F1873E910571F1843E910509F0B5CF82
:101A800080915B0381FFEECF80915A03C7EED0E0D7
:101A900084FD0DC0E7CF80915A0380FD12C1909163
:101AA0005B0390FFDFCFC3EED0E084FFDBCFD0E05D
:101AB000C0E0D8CF80915A0382FD06C190915B03AC
:101AC00090FDBFCF84FFCECFF2CF80915A0383FD2C
:101AD000DDCFC8CF80915A0383FDF9C090915B039D
:101AE00091FFF0CFC4EED0E0BDCF80915A0385FFC7
:101AF000B9CFC9E2D0E0B6CF80915A0385FFB2CF0B
:101B0000C5E3D0E0AFCF80915A0386FFABCFCAE2E6
:101B1000D0E0A8CF80915A0386FFA4CFC1E3D0E0E4
:101B2000A1CFCF3BD10518F6C85AD0E0CC0FDD1FAE
:101B3000C15EDE4F0990D881C02DD46493CFC1150A
:101B400040E2D40758F4C11581E0D80708F08ACFE5
:101B5000C03FD10508F4ABCFD06584CFC11590E468
:101B6000D90708F4A4CFDF70D06A7CCFC11525E572
:101B7000D20700F5C11534E5D30708F08AC0C115B6
:101B800043E5D40708F071C0C11582E5D80708F411
:101B900067C0CE018370992721E030E002C0220F98
:101BA000331F8A95E2F7C695C69580E2C89FE0018B
:101BB000112452C0C11599E5D907A8F4C11528E52B
:101BC000D20708F06BC0C11536E5D30708F06FCF18
:101BD0008C2F0E949F0CC82FD0E0DC2FCC27CC2765
:101BE000DF71D0623FCFC1154AE5D40708F45BC06E
:101BF000CE0190568115904208F059CF8D2F8F71EC
:101C00000E949F0C90E0982F882788279F719C0145
:101C10002C2BE901E6CFC55AD0E0C45EDE4FC88167
:101C2000D0E0D0641FCFCE01E4E096958795EA9589
:101C3000E1F783702C2F26952695237040E2249F90
:101C400090011124382B8C2F8370C1E0D0E002C0AA
:101C5000CC0FDD1F8A95E2F7C22BD32BDC6802CFB5
:101C6000DC2FCC27C16FD06AFDCECE0183709927BF
:101C700021E030E002C0220F331F8A95E2F7C695BB
:101C8000C69590E2C99FE0011124C22BD32BDA68DC
:101C9000E9CEDC2FCC27C46FD06AE4CEDC2FCC2772
:101CA000C06FD06ADFCE8C2F8F700E949F0C34E003
:101CB000D695C7953A95E1F7CF709C2FEC01D06986
:101CC000D1CEC9E3D0E0CECEC2EED0E0CBCEC6EED0
:101CD000D0E0C8CE809189028111109289020895C6
:101CE000809590918802982390938802089580911E
:101CF000880290918702892B90918602892B80938C
:101D00000E02909189029923A1F0892B80930E02F3
:101D100080911401882341F180915A0387FF24C0E8
:101D20008EE1E0E1F2E090E0815000F591110E9437
:101D30006A0EE0915103F09152033097E1F08091E7
:101D40001401882359F080915A0387FF07C08091BE
:101D50000E0280930F0286E080930E020280F381D0
:101D6000E02D8EE092E0099486E0DBCF21912223E2
:101D7000D9F29F5FD9CF0895809184029091530248
:101D8000981301C008958F5F8770FACF2FE0929F5C
:101D9000800D1124982F977086958695869523E05F
:101DA000829FF0011124E15DFD4F50E040E080E0B2
:101DB000219130E0092E02C0369527950A94E2F76A
:101DC00021703327042E01C0220F0A94EAF7822BD8
:101DD0004F5F5F4F4330510559F708952FE0929FB1
:101DE000800D1124982F977041E001C0440F9A95FF
:101DF000EAF786958695869593E0899FF0011124F0
:101E0000E15DFD4F90E080E070E05191DF011197BE
:101E10009B01082E02C0369527950A94E2F721709F
:101E200021952527242325272C930196833091057E
:101E300061F7089590E080E00E94CD0590E080E099
:101E40000E94B70510928702109286020E94770EB8
:101E500086E0E9EBF2E0DF011D928A95E9F7109246
:101E6000B3021092B2021092B4020C944A0B809307
:101E700092030C941A0F80919203982F96709630CB
:101E800019F488600C94370F877FFCCF21E030E095
:101E900001C0220F8A95EAF7209580919203822350
:101EA0000C94370F90918502809589238093850249
:101EB000282F277091F4282F082E000C330B92172F
:101EC000130659F090915B0392FD07C085958595A7
:101ED00085950E94460F10928502089521E030E01A
:101EE00001C0220F8A95EAF780919203822B0C940D
:101EF000370F80938A020C941A0F882321F00E94D6
:101F0000700E0C94770E0895882339F09091880212
:101F1000982B909388020C94770E0895882379F17A
:101F20009CEF980F913A38F4682F8EE092E00E946F
:101F300058050C94770E90E2980F983050F4877003
:101F400091E001C0990F8A95EAF7892F0E94700EDF
:101F5000F0CF9BE5980F933020F490E080E00C9454
:101F6000CD0598E5980F973120F490E080E00C942F
:101F7000B705803F20F00E94710B0C944A0B089526
:101F8000CF93C82F882309F46FC08CEF8C0F813A50
:101F9000C0F580911401882311F180915A0387FFC5
:101FA0001EC0EC2FE695E695E695F0E0E25FFD4F6A
:101FB000828190E04C2F477021E030E002C0220F78
:101FC000331F4A95E2F782239323892B91F06C2FDC
:101FD0008EE092E00E9458050E94770E0AC0E0E170
:101FE000F2E086E192E02191C21789F38E179F07F4
:101FF000D1F76C2F8EE092E00E948205CF910C9475
:10200000770E80E28C0F883068F4C77021E030E0F2
:1020100001C0220FCA95EAF780918802822B809333
:102020008802ECCFEBE5EC0FE33040F4F0E0E45E47
:10203000FE4F808190E0CF910C94CD05E8E5EC0F48
:10204000E73150F4F0E0EE0FFF1FE15EFE4F8081BC
:102050009181CF910C94B705C03F30F08C2F0E9436
:102060002C0CCF910C944A0BCF91089580935C0374
:1020700070935E0360935D03809184038430F9F470
:102080008093E9008FEF9091E800815095FD06C0A4
:1020900095ED9A95F1F700008111F5CF8091E80058
:1020A00085FF0DC050E040E063E070E08CE593E018
:1020B0000E94F3038091E8008E778093E8000895F2
:1020C000BC0184E00C943610BC0183E00C94361003
:1020D0009C0184E08093E9009FEF8091E80091509B
:1020E00085FD06C085ED8A95F1F700009111F5CFC9
:1020F0008091E80085FF0CC050E040E066E070E0B1
:10210000C9010E94F3038091E8008E778093E80074
:102110000895CF93DF93EC01809114018823B1F1EE
:1021200080915A0387FF32C060E284E08093E90027
:102130008FEF9091E800815095FD06C095ED9A953E
:10214000F1F700008111F5CF8091E80085FF1BC0F9
:102150008091140170E050E040E0811104C050E033
:1021600040E068E070E0CE010E94F3038091E80057
:102170008E778093E80080E2FE01A2E6B3E0019052
:102180000D928A95E1F7DF91CF91089568E081E0A3
:10219000CDCF81E08093E00080E28093D800109260
:1021A000C9008FE19EE40197F1F700C0000087E0CD
:1021B00090EBDC0180939D0390939E03A0939F037B
:1021C000B093A00388E19CE00FB6F894A8958093A3
:1021D00060000FBE90936000FFCF209A35B13E7F24
:1021E00025B121604FB7F89486E193E0FC0151914D
:1021F000CF0168E025B9000000C057FF35B9550F81
:10220000000000C000C000C035B900C06A9591F759
:10221000F3E08F349F0751F74FBF8FE594E00197AC
:10222000F1F700C0000008951F93CF93DF93182F9C
:10223000D0E0C0E0893311F4C0E5D0E0812F0E94E6
:10224000C00F209731F4812FDF91CF911F910C9413
:102250008E0F8FE99FE00197F1F700C000002197F2
:10226000F0CF0F931F93CF93DF93C62FD42F022F5E
:10227000FC0182818823A1F0609395030E944C05A4
:102280009093940380939303C77081E001C0880FFB
:10229000CA95EAF7DF91CF911F910F910C94840FAB
:1022A00080919503681335C08091930390919403B6
:1022B0000E943105883C910560F510E21D0FCD1795
:1022C000B9F080E28C0F883040F4C77081E001C023
:1022D000880FCA95EAF70E947D0F183048F481E014
:1022E0009D2F977001C0880F9A95EAF70E94840F7E
:1022F000802F0E941411183098F4D77081E001C02B
:10230000880FDA95EAF7DF91CF911F910F910C9426
:102310007D0FC77081E001C0880FCA95EAF7F3CF3F
:10232000DF91CF911F910F910895CF93DF93CFE766
:10233000D2E060E0CE010E94EA2B2196C11584E034
:10234000D807B9F7DF91CF9108956F927F928F925E
:102350009F92AF92BF92CF92DF92EF92FF920F9334
:102360001F93CF93DF9384E7C82E83E0D82E9BED95
:10237000E92EF12CE701C659D10936011BC0F50140
:1023800085909490692DC8010E94EA2B682DC801A0
:1023900001960E94EA2B82E0A80EB11C0E5F1F4F2F
:1023A000C017D10761F78EE1680E711C6E96CE15CD
:1023B000DF0529F08E010E5111095301E0CF7E0196
:1023C00086E9E80EF11C86E9C80ED11C83E3E81605
:1023D00083E0F80679F6DF91CF911F910F91FF907E
:1023E000EF90DF90CF90BF90AF909F908F907F90B5
:1023F0006F900895CF93C82F6FEF811162E283E24F
:1024000090E00E94EA2B6FEFC11162E084E290E05D
:102410000E94EA2B6FEFC11160E285E290E0CF915C
:102420000C94EA2B80E00E94FA1160E086E290E0D2
:102430000E94EA2B0E94A5110E94951181E00C9444
:10244000FA11CF93C92F682F84E090E00E94EA2B05
:102450006C2F82E290E0CF910C94EA2B90915B0379
:1024600092FB222720F9281769F080FB92F99093BC
:102470005B0380915A0390915B030E94211282E0DA
:102480000C94520F08950F931F93CF93DF93C42F93
:10249000D0E0CC0FDD1F2EE1629FC00DD11D1124B5
:1024A00036E9839FC00DD11D1124CE0187960E946D
:1024B000CC2B082F10E0102F0027CE0188960E9409
:1024C000CC2B9801282BC901DF91CF911F910F913F
:1024D0000895462F843038F4753028F46F3018F49E
:1024E000672F0C94431290E080E00895CF92DF9222
:1024F000FF920F931F93CF93DF936C010091920390
:1025000080918A02082BC7E0D0E010E0FC2EC801C1
:102510000C2E02C0959587950A94E2F780FD0CC0B9
:102520002197A0F7F12C8F2DDF91CF911F910F9163
:10253000FF90DF90CF900895B6018C2F0E94691212
:102540000E94E20C019761F3EECFCF93DF93EC0191
:102550000E947612BE010E946912DF91CF910C9405
:10256000E20CFC01808191810E94A512292F2F701D
:1025700092959F7092509E3078F4E92FF0E0ED58DC
:10258000F34D0C94462B803F19F020F4883E20F444
:1025900081E00895843FE1F380E00895883EC0F330
:1025A000813FD1F7F5CF822F869586958695089540
:1025B00083E290E00E94CC2B823289F484E290E0A6
:1025C0000E94CC2B823059F485E290E00E94CC2B03
:1025D00091E0803209F090E0892F8170089580E0C9
:1025E000FCCFCF9384E090E00E94CC2BC82F82E2F6
:1025F00090E00E94CC2B982F8C2FCF9108951F93A1
:10260000CF93DF93EC01FC01E750FE4F80816823FC
:10261000C9F00E949F2B182F0E949F2B8F77782F35
:1026200020E8720F08F47FEF612F80919A030E94D7
:102630003509462F282F672FCE01DF91CF911F91AB
:102640000C94AE07DF91CF911F910895DF92EF9226
:10265000FF920F931F93CF93DF938C01FC01E75000
:10266000FE4F8081682381F1D0909903D0919A0325
:10267000C0919803EC2EF12C0E949F2B282FC701AC
:102680008C549F4F68E671E00E94322B8E199F098F
:1026900097FD0396959587959595879523706C2F53
:1026A000289F600D11247D2D8D2F0E943509462F06
:1026B000282F672FC801DF91CF911F910F91FF90B5
:1026C000EF90DF900C94AE07DF91CF911F910F91A7
:1026D000FF90EF90DF9008955F926F927F928F92BC
:1026E0009F92AF92BF92CF92DF92EF92FF920F93A1
:1026F0001F93CF93DF930E9440056093BF027093B6
:10270000C0028093C1029093C20230919703132FAD
:10271000137019F0132F169516952091180121307A
:1027200031F12223B1F0223009F4EFC3233009F450
:10273000F6C3DF91CF911F910F91FF90EF90DF9043
:10274000CF90BF90AF909F908F907F906F905F9051
:1027500008951092150160938E0370938F038093F8
:1027600090039093910381E080931801E2CF9091C0
:10277000130181E019130BC0832F83702091120184
:1027800030E091E08217130609F490E0892F817000
:102790008093170180919C0390911601981739F04E
:1027A0008093160140E060E080E00E94AC071E319B
:1027B00050F4E12FF0E0EF57F34D0C94462B80914D
:1027C0001701811121C0C0E09091150181E0890FAE
:1027D00080931501C1117CC382E080931801809120
:1027E0001701811175C3112309F497C3C92FCC0FA9
:1027F000CC0F0E94E305CE5081FD6EC3C53008F0BA
:1028000098CF20E040E06DC340E060E080E00E94AF
:10281000AC07D9CFC0911501CC0FCC0F04E00C0F41
:10282000F02E043110F023E1F22E609198037091A4
:10283000990380919A030E943509E62ED72EC82E5F
:10284000D0E0CF1528F0C1E0033108F4BDCFBBCFF5
:10285000FE01E750FE4F808190911601892331F0EF
:102860002C2D4E2D6D2DCE010E94AE072196E9CF65
:10287000C0911501CC0FCC0F04E00C0FF02E0431E9
:1028800010F093E1F92ED0909903E0909A03D09143
:1028900098036D2F7D2D8E2D0E943509C62EB72EE3
:1028A000A82E60919B036D0F7D2D8E2D0E94350902
:1028B000E62ED72E982ED0E0CF1528F6FE01E75051
:1028C000FE4F908180911601892359F0292D4E2DBC
:1028D0006D2D90FD03C02A2D4C2D6B2DCE010E9435
:1028E000AE072196E9CFC0911501CC0FCC0F04E0C3
:1028F0000C0FE02E043110F083E1E82ED090990304
:10290000C0909A0320919B03D0E4FD2E3F2D329F6F
:10291000312D1124F32ED0E0CE1508F094CFFE0116
:10292000E750FE4F8081909116018923B9F0FE0196
:10293000EE0FFF1FEC52FE4F808182958F706091E9
:1029400098038F9D600D11247D2D8C2D0E943509DB
:10295000462F282F672FCE010E94AE072196DCCF8D
:10296000C0911501CC0FCC0F04E00C0FE02E043108
:1029700010F0A3E1EA2ED0909903C0909A03209121
:102980009B03F0E4FF2E3F2D329F312D1124F32EB7
:10299000D0E0CE1508F057CFFE01E750FE4F808102
:1029A000909116018923D9F0FE01EE0FFF1FED5221
:1029B000FE4F6081F69EB0011124E5E075956795A4
:1029C000EA95E1F780919803680F7D2D8C2D0E9488
:1029D0003509462F282F672FCE010E94AE0721967A
:1029E000D8CFC0911501CC0FCC0F04E00C0FF02E06
:1029F000043110F053E1F52EE0909803D091990343
:102A0000D0909A0360919B03669566956695809138
:102A10008E0390918F030E942B090E947C0880589E
:102A200087FD8195880F282F3D2D239F212D11246F
:102A3000822F6E2D7D2F0E943509E62ED72EC82EAF
:102A4000D0E0CF1508F0FFCEFE01E750FE4F8081A9
:102A500090911601892331F02C2D4E2D6D2DCE0134
:102A60000E94AE072196EDCF83E897E00E94C90946
:102A700007C089E597E0FACF8EE598E00E94F00A5A
:102A8000C82FA2CE8FE398E0F9CF84E298E00E94AD
:102A9000750AF6CF88E098E0FACF87E597E0E6CFB1
:102AA0008EE497E0E3CF85E497E0E0CF8CE297E017
:102AB000DDCF8EE197E0EBCF83E099E0DFCF87EFCA
:102AC00097E0DCCF83EE97E0E2CF81EF96E00E94C3
:102AD000150AD6CF83EC96E0FACF8CE896E0F7CFD4
:102AE000C0911701C1111EC060919B0320E1620FCC
:102AF00008F46FEF80918E0390918F030E942B0951
:102B00006AE070E00E941E2B892B09F05CCE0E94C7
:102B10009F2B63E170E00E94322B609116010E94AE
:102B2000261352CEC0911501CC0FCC0F04E00C0F30
:102B3000802F043108F083E1D0E0E82EF12CCE158F
:102B4000DF050CF080CE60911601CE010E942613A5
:102B50002196F5CFC0911701C1111EC060919B0352
:102B600020E1620F08F46FEF80918E0390918F0344
:102B70000E942B0965E070E00E941E2B892B09F052
:102B800022CE0E949F2B63E170E00E94322B609165
:102B900016010E94FF1218CEC0911501CC0FCC0F68
:102BA00004E00C0F802F043108F083E1D0E0E82E20
:102BB000F12CCE15DF050CF046CE60911601CE014A
:102BC0000E94FF122196F5CFC0911501CC0FCC0FBA
:102BD00004E00C0FF02E043110F043E1F42ED090FD
:102BE0009903E0909A03D091980360919B036695B6
:102BF0006695669580918E0390918F030E942B09B4
:102C00000E947C08805887FD8195880F682F2CE0F2
:102C1000629F612D11246D0F7D2D8E2D0E9435092F
:102C2000E62ED72EC82ED0E0CF1508F00CCEFE0130
:102C3000E750FE4F808190911601892331F02C2DB1
:102C40004E2D6D2DCE010E94AE072196EDCF8BE962
:102C500098E00CCF8BE796E009CF4091C3025091EA
:102C6000C4026091C5027091C60280918E0390915A
:102C70008F03A0919003B091910384179507A60745
:102C8000B70708F4A0CD0E94BE08082F0E94BE0816
:102C900093E1891BF0F7890FC82FD0E0FE01E750C0
:102CA000FE4F809116019081892309F40FC120E025
:102CB00040E060E001FD13C00E94BE08082F0E94A2
:102CC000BE08782F76952FE7720F08F47FEF602FFC
:102CD00080919A030E943509462F282F672FCE0135
:102CE0000E94AE0720919B0330E1230F08F42FEFE1
:102CF00060E1822F90E00E942B09BC0184EF91E0FB
:102D00000E941E2B80918E0390918F03A0919003BF
:102D1000B0919103860F971FA11DB11D8093C3022F
:102D20009093C402A093C502B093C6024CCD4091CB
:102D30001203509113036091140370911503809155
:102D40008E0390918F03A0919003B091910384170B
:102D50009507A607B70708F436CD609198037091E0
:102D6000990380919A030E943509062F772E682EC9
:102D7000C7ECD2E028E8A22E21E0B22E3EE0E32EFE
:102D8000F12C67018EE0C81AD10886E0582EF601B2
:102D9000E953FD4F4F01F601E857FE4F808190E067
:102DA000F4012081222309F481C0262D402F672DB4
:102DB0000E94AE07F401818180835A94FFEFCF1AFD
:102DC000DF0A5110E4CF67019EE0592E9601295386
:102DD0003D4F4901F601E857FE4F808190E0F9012F
:102DE0002081222309F466C0262D402F672D0E94E2
:102DF000AE07F40131978081F40180835A94F1E0A9
:102E0000CF1AD10827E05212E1CFF501878190E077
:102E10002F81222309F452C0262D402F672D0E94B6
:102E2000AE07F501868190E02E81222309F44AC085
:102E3000262D402F672D0E94AE070E94BE0883708A
:102E400091E009F090E09E839F832F96FFE0AF0E04
:102E5000B11C2FE0E20EF11C39E5E316F10409F094
:102E600090CF20919B0330E1230F08F42FEF60E116
:102E7000822F90E00E942B09BC0188EB9BE00E940E
:102E80001E2B80918E0390918F03A0919003B0919F
:102E90009103860F971FA11DB11D8093120390937C
:102EA0001303A0931403B09315038DCC20E040E0EE
:102EB00060E07ECF20E040E060E099CF20E040E09D
:102EC00060E0ADCF20E040E060E0B5CFC1E07CCC79
:102ED000112309F42ECC8ACC2FEF4FEFC53008F028
:102EE00028CC60E082E190E0DF91CF911F910F91BB
:102EF000FF90EF90DF90CF90BF90AF909F908F901A
:102F00007F906F905F900C94AE0710931301832F06
:102F10008370809312010E94ED1083E025CC809194
:102F20009603882351F046E050E06CE170E087E9B9
:102F300093E00E94DA2B1092960340918E035091F9
:102F40008F0360919003709191032FB7F894809153
:102F5000560390915703A0915803B09159032FBF86
:102F6000841B950BA60BB70B4097A105B10508F480
:102F7000E0CB10921801DDCBE7E9F3E085E3808335
:102F80008091190190911A01A0911B018183928374
:102F9000A3838FE784838FEF858346E050E06CE165
:102FA00070E0CF010E94DA2B1092960308951092E0
:102FB000880280911401E0E1F2E0882359F08091C9
:102FC0005A0387FF07C08EE1DF011D928A95E9F75A
:102FD0000C941A0F86E0F8CF1F93CF93DF93CDB7F1
:102FE000DEB7AA970FB6F894DEBF0FBECDBF86E856
:102FF00093E02091F100DC012D93CD01B3E08E38F8
:103000009B07B9F780918703833009F472C0B8F445
:10301000813009F449C0823009F4B3C08091E800DE
:1030200083FF8BC280918603909187039A3008F0CA
:1030300084C2E92FF0E0E156F34D0C94462B8A3020
:1030400009F48EC08B3009F471C0893039F7809152
:103050008603813219F780918A0390918B03009740
:1030600011F00297D9F68091E800877F8093E800FD
:103070008091E80082FF38C09091F3008091F200C7
:10308000029731F48091F100813011F0863021F403
:103090008091F100809361038091E8008B778093A9
:1030A000E8000E941D04BACF80918603813A09F09E
:1030B000B5CF8091E800877F8093E80080918A03F4
:1030C00090918B03892B61F460E282E693E070E0DB
:1030D0000E94CF048091E8008B778093E8009ECF18
:1030E00060E090E080E0F3CF809184038111C0CF55
:1030F00095CF80918603813A09F090CF80918A0321
:1031000090918B03892B09F089CF8091E800877F0C
:103110008093E8008091E80080FFFCCF809114014B
:103120008093F1008091E8008E77B9CF809186037B
:10313000813209F073CF80918A0390918B03892BA0
:1031400009F06CCF8091E800877F8093E8000E94AF
:103150001D0480918803809314010E94D7175ECFCD
:1031600080918603813209F059CF8091E800877FF2
:103170008093E8000E941D0480918903809360037E
:103180004DCF80918603813A09F048CF8091E800C5
:10319000877F8093E8008091E80080FFFCCF8091DA
:1031A0006003BECF803899F0823809F0C6C18091A3
:1031B0008A038F70873008F0C0C18093E900809146
:1031C000EB0085FB882780F91092E90006C080910A
:1031D000820390918303911182609091E800977F20
:1031E0009093E8008093F1001092F1008091E80044
:1031F0008E779FC1882309F48DC1823009F09DC16B
:1032000080918803811190C180918A038F702FEF84
:10321000280F263008F091C18093E9002091EB003F
:1032200020FF82C1933031F48091EB008062809363
:10323000EB007AC19091EB0090619093EB0021E05C
:1032400030E001C0220F8A95EAF72093EA0010923D
:10325000EA008091EB008860EACF81116EC1109185
:1032600088031F778091E3008078812B8093E300AF
:103270008091E800877F8093E8000E941D04809180
:10328000E80080FFFCCF8091E30080688093E3003A
:1032900082E0111183E0809384034FC18058823013
:1032A00008F04BC120918803309189032C3DE3E065
:1032B0003E07A1F583E08A838AE289834FB7F894B9
:1032C000DE01139620E03EE051E2E32FF0E0509360
:1032D0005700E49120FF03C0E295EF703F5FEF706D
:1032E0008E2F90E0EA30C0F0C7968D939D932F5FAC
:1032F000243159F74FBF8091E800877F8093E80021
:103300006AE270E0CE0101960E94CF048091E8004D
:103310008B778093E80011C1C096E7CF80918A0334
:1033200090918B03432F55274330510509F44AC030
:1033300078F54130510509F47AC08BE590E0ECEC6A
:10334000F5E04230510509F0F8C02091E800277FF0
:103350002093E80020918C0330918D03821793070E
:1033600008F49C0140E02115310509F065C04111C8
:1033700063C08091E80082FDC9CF809184038823D7
:1033800029F2853019F28091E80083FFF2CFBECF99
:103390004132510509F43CC04232510509F0CDC01B
:1033A0008330910508F0C9C0FC01EE0FFF1FE458FF
:1033B000FE4F0190F081E02D87589E4FDC018C91EB
:1033C00090E01AC0332721303105D1F021153105A5
:1033D00061F02230310509F0B0C0E9E3F6E0E49194
:1033E0008E2F90E0E9E3F6E007C0EDE5F6E0E4912A
:1033F0008E2F90E0EDE5F6E0009709F49EC0A5CF92
:10340000E5E4F6E0E4918E2F90E0E5E4F6E0F4CF19
:103410008330910508F091C0880F991FFC01EE5789
:10342000FE4F0190F081E02D89E090E08ECF82E1A7
:1034300090E0E7E2F6E089CF80918403882309F4E5
:1034400065CF853009F462CF8091E80083FD5ECFBF
:103450008091E80082FD8DCF8091E80080FF83CFCE
:103460009091F3008091F2002115310519F0883018
:10347000910550F041E0089709F040E08091E800A4
:103480008E778093E8006FCF44914093F10031969E
:10349000215031090196E8CF803809F04EC0809163
:1034A000E800877F8093E800809185038093F10096
:1034B0009DCE811142C0109188031230F0F58091A9
:1034C000E800877F8093E800109385030E941D0425
:1034D000112311F084E005C08091E30087FDFACF4D
:1034E00081E08093840342E061EC81E00E943C042F
:1034F00042E261EC84E00E943C0442E261EC82E042
:103500000E943C0442E260EC83E00E943C04809113
:10351000840313C080918803813079F481E0933073
:1035200009F080E0809383031092E9008091E80025
:10353000877F8093E8000E941D048091E80083FF4C
:103540000AC08091E800877F8093E8008091EB00BB
:1035500080628093EB00AA960FB6F894DEBF0FBE90
:10356000CDBFDF91CF911F91089590E080E00E9440
:10357000D42B893E9E4F11F40C94D81280E008950C
:1035800069EE7EEF90E080E00E94082C60E082E02F
:1035900090E00E94EA2B60E083E090E00E94EA2B3A
:1035A00010928A0260E084E090E00E94EA2B60E0E2
:1035B00082E290E00E94EA2B60E085E090E00E94C9
:1035C000EA2B60E086E090E00E94EA2B6FEF87E054
:1035D00090E00E94EA2B40E050E0BA0188E090E0E1
:1035E0000E94FC2B60E08DE090E00E94EA2B40E01E
:1035F00050E0BA0188E190E00E94FC2B60E087E196
:1036000090E00E94EA2B40E050E0BA018CE190E0AB
:103610000E94FC2B70E060E080E290E00E94082CA9
:1036200040E050E0BA0188E190E00E94FC2B80E08D
:103630000E94FA110E94121240E050E0BA018FE09D
:1036400090E00E94FC2B40E050E0BA0183E190E062
:103650000C94FC2B3F924F925F926F927F928F92CD
:103660009F92AF92BF92CF92DF92EF92FF920F9311
:103670001F93CF93DF9300D000D00F92CDB7DEB76A
:103680008C01FC0183819481892B31F080819181AF
:1036900089238F3F09F07EC50F900F900F900F90F8
:1036A0000F90DF91CF911F910F91FF90EF90DF90DE
:1036B000CF90BF90AF909F908F907F906F905F90D2
:1036C0004F903F9008950E947612F82E682F8981BE
:1036D0009A810E94EE0E69817A818F2D0E94691273
:1036E0007C01F8018281882309F447C597012251A2
:1036F0003F452031310508F013C58FEF93E00E945C
:10370000CC2BFEEEEF0E5FE7852E52E0952E882340
:10371000A1F180918502877009F4BECFF801828102
:10372000882309F4B9CF80915B0382FDB5CF82E095
:103730000F900F900F900F900F90DF91CF911F91EE
:103740000F91FF90EF90DF90CF90BF90AF909F9040
:103750008F907F906F905F904F903F900C94520F9E
:10376000811424E09206A9F2C4010E94CC2B81119D
:1037700001C0EA943FEF831A930AE110F1CF1C8253
:103780001B82442443944AE0342E74018FEFE81ADC
:10379000F80AC4010E94CC2B89831A82882309F479
:1037A000B8CF9FEF980F933000F58A83498292E05B
:1037B000890E911CC7010E94CC2B8B83882309F4AE
:1037C000A8CFFE0131967F01F70120812223E9F283
:1037D000213009F049C091818281913041F4F2E0B9
:1037E000EF0EF11C0E94141109C04701EACF92307C
:1037F00049F422E0E20EF11C0E94C00F3FEFE31AF1
:10380000F30AE2CF933031F432E0E30EF11C0E9470
:103810008E0FF4CF943021F08FEFE81AF80AEECF34
:1038200092E0E90EF11C30E020E0B7016F5F7F4FBE
:10383000F70141818053990B8A30910550F0215056
:103840003109E0F28FE99FE00197F1F700C0000035
:10385000F6CF329EF001339EF00D11249C012E0F05
:103860003F1F842F7B01E1CFE22FF0E0EC50FE4FB1
:103870005490822F86958695869590E0FC01EC51B8
:10388000FE4F64902770712C022E02C075946794CD
:103890000A94E2F7E1E06E227724FC01EC52FE4F3D
:1038A000A490B12C022E02C0B594A7940A94E2F71A
:1038B000F1E0AF22BB24FC01EC53FE4FC490D12CAD
:1038C00002C0D594C7942A95E2F721E0C222DD24F4
:1038D0006114710419F081EE0E94C00FA114B104AB
:1038E00019F086EE0E94C00F852D0E941411AB289E
:1038F00019F086EE0E948E0F672819F081EE0E9463
:103900008E0FCD2809F47ACF8CE26CCF81E00E9433
:103910006E0F0E943B0FFDCE81E00E94460FF9CF53
:1039200082E0F5CF95EFE9169CE5F90609F463C04E
:1039300008F45DC027E245EE66EEF6EFEF16FCE513
:10394000FF0609F416C4882309F435C410929503C0
:1039500023E0E2162DE5F20608F054C03AEFE31634
:103960003CE5F30630F4C70182509C45449708F0CB
:103970004FC00E94F11290935B0380935A0390E131
:10398000E9169CE5F90609F42CC108F09EC0F8E0A0
:10399000EF16FCE5FF0609F416C108F067C034E035
:1039A000E3163CE5F30609F400C108F049C092E0D3
:1039B000E9169CE5F90609F4F2C080915A03826089
:1039C000E3E0EE16ECE5FE0609F4ECC080915A0344
:1039D00090915B030E9421120E94D7179ACE27E292
:1039E00045EE65EEC6C326E241EE60EEC2C327E2B5
:1039F00045EE64EEBEC326E241EE62EEBAC328E2B3
:103A000041E0EFCF81E6E8168DE5F80609F4B1CF85
:103A100080918802F6E1EF16FCE5FF0609F0DAC3B3
:103A20008A7A91E009F490E090932E0269E2811184
:103A300065E38EE092E00E9482050E94770E69CED7
:103A400080915A038061F6E0EF16FCE5FF0609F469
:103A5000A9C080915A03886027E0E2162CE5F2069F
:103A600008F4A0C080915A0380629CC080915A03E0
:103A70008D7F3CE0E3163CE5F30609F493C078F44F
:103A800080915A038C609AE0E9169CE5F90609F4E6
:103A900089C008F49CC080915A038E7F83C08091B6
:103AA0005A03877FFEE0EF16FCE5FF0609F47AC0B3
:103AB00080915A038B7F2FE0E2162CE5F20608F482
:103AC00071C080915A038F7E6DC03CEFE3163CE5D8
:103AD000F30609F482C0A0F594E1E9169CE5F90625
:103AE00009F493C098F4F2E1EF16FCE5FF0609F43F
:103AF0007CC080915A038F7B23E1E2162CE5F2060D
:103B000008F450C080915A03837F4CC03AEFE3160B
:103B10003CE5F30609F44DC008F051C095E1E91603
:103B20009CE5F90609F052CF80915A0382FB992750
:103B300090F921E0922790FB82F990FB83F932C043
:103B4000E114EDE5FE0609F456C0A0F480915B0394
:103B500083602EEFE2162CE5F20671F180915B0393
:103B60008D7F3FEFE3163CE5F30630F180915B0378
:103B70008C7F22C082E0E8168DE5F80609F454C077
:103B800008F44CC0E1E6EE16EDE5FE0609F01ECFA6
:103B900090915A03892F8F7E94FF806103C080919A
:103BA0005A03816080935A0311CF80915A03846035
:103BB000F9CF80915B03816080935B0307CF809195
:103BC0005B038260F9CF80915A038064EBCF0E943F
:103BD000D71780915A038068E5CF80915B038E7F71
:103BE000EBCF80915A038F7DDDCF0E94D717809154
:103BF0005A038F77D7CF80915B03982F9095917060
:103C00008E7F892B90FB81F9D7CF0E94D717909197
:103C10005A03892F97FB87F98058C4CF61E08EE063
:103C200090E00E94EA2BD2CE60E0F9CF809197031A
:103C300091E0892780939703109218018091960351
:103C400081608093960365CD48E656E061E776E0B3
:103C50000E94EF055ECD41E756E068E676E0F8CFDA
:103C600046E556E06FE576E0F3CF4FE556E066E5D2
:103C700076E0EECF4EE356E06AE476E0E9CF4AE440
:103C800056E06EE376E0E4CF42E356E066E276E0AB
:103C9000DFCF4AE056E068E176E0DACF48E156E06F
:103CA0006AE076E0D5CF81E00E947A0332CD8DE0E4
:103CB000FBCFEBE5EE16EDE5FE0611F1FCE5EF16A8
:103CC000FDE5FF0609F0B8C280915B0382FB8827FF
:103CD00080F991E089270E942E12AEC20E94D71768
:103CE0002FEF34E38CE0215030408040E1F700C0FA
:103CF00000000E94C9100E94C01A0BCD81E0EBCFDA
:103D000080E0E9CFC7010E94C60ED82EA4C22F2D95
:103D10002F70C22E8F2D807F19F0C29490EFC92290
:103D2000DD20B9F0CC2069F080E28E0D883010F0F3
:103D3000811009C080918802C82AC09288020E941E
:103D4000770E8E2D4DC080918702C82AC0928702BF
:103D5000F6CF8E2D0E948E0FCC2009F443C080E256
:103D60008E0D883010F0811004C08C2D0E94700ED2
:103D700006C0C09480918702C822C09287020E9428
:103D8000770E30C03F2D3F70C32E8F2D807F803245
:103D900019F0C29480EFC822882089F081E088164B
:103DA00009F47FC0DD2009F489C0BB2009F47FC07D
:103DB000F801858180FFC5CF8F70858378C0209101
:103DC0005B0322FF4BC0DD2009F442C0CC2039F058
:103DD00080918802C82AC09288020E94770E80E0F3
:103DE0000E94C00F292D2850330B2430310510F4C8
:103DF0000E94E305AA2009F44FCC8091850280FD42
:103E00004BCCF80112828595859585950E946E0FA1
:103E1000C8010E942A1B809185028595859585950C
:103E20000F900F900F900F900F90DF91CF911F91F7
:103E30000F91FF90EF90DF90CF90BF90AF909F9049
:103E40008F907F906F905F904F903F900C94460FB3
:103E500080E00E948E0FCC2029F287CFDD20A1F0D8
:103E600090918902892F8C29B11003C00E94840F80
:103E7000B9CFE1E0BE12FACF22FDB4CF981709F412
:103E8000B1CF80938902AECFB11006C00E946A0EF6
:103E90008C2D0E947D0FA6CFF1E0BF1609F4A2CFB2
:103EA000F5CFDD2031F025E02B1508F49BCF8C2DCC
:103EB000DDCF34E03B1508F495CFEACFBB2041F3CA
:103EC000F9E38F1209C02FEF37EE83E02150304025
:103ED0008040E1F700C000008E2D0E948E0F82CF3F
:103EE0008F2D86958695837061F0813009F07ACFA9
:103EF000C7019370D11002C090E080E00E94B70526
:103F000071CFC7019370D11002C090E080E00E9491
:103F1000CD0568CF8E2DDD2029F00E942C0C0E944B
:103F20004A0B60CF0E94710BFACF8F2D837091F5F1
:103F3000D11058CF4E2D429546954770440F440FEF
:103F40008E2D8F70042E01C0880F0A94EAF72E2D53
:103F50002071E4FE07C02FE030E001C0220F4A9537
:103F6000EAF720953F2D369536953370323069F05B
:103F700050F440918A02313029F0822B84230E9430
:103F8000790F30CF842B822BFACF282B80918A0295
:103F90008227F5CF8695DD2011F08F2D8170882343
:103FA00009F420CF4E2D429546954770440F440F9B
:103FB0008E2D8F70042E01C0880F0A94EAF72E2DE3
:103FC0002071E4FE07C02FE030E001C0220F4A95C7
:103FD000EAF720953F2D369536953370323069F0EB
:103FE00050F440919203313029F0822B84230E94B7
:103FF000370FF8CE842B822BFACF282B8091920397
:104000008227F5CF9F2D9F70F92EDD2029F0892F73
:104010000E946E0F8E2D2ACF8E2D0E947D0F8F2D28
:104020000E94460FDFCE8E2DE2EF8E16B1F1E8151D
:1040300070F0F0EF8F16D1F021EF821691F0DD20B5
:1040400009F45EC0B1107DCE8F2D8F712AC033EF81
:10405000831651F194EF8912F2CF80915B0382FFB6
:104060002FC08F2D8F71DD20D9F21BC0DD2081F094
:10407000E4E0EB1508F4B6CE2F2D2F7181E090E02F
:1040800001C0880F2A95EAF7909192038927AFCF54
:10409000F5E0FB1508F4A6CEEFCF8F2D8F71D11070
:1040A000BFCF0E946E0F9ECE80E0DD2009F49FCF2F
:1040B0009F2D9F7181E001C0880F9A95EAF797CFF5
:1040C000DD2099F02F2D2F71F22E822F0E946E0F7E
:1040D00080915B0382FD07C038E0F39EC00111248C
:1040E0008360809385028F2DDCCF81E00E94520F88
:1040F00081E08B1508F076CE82E00E94520F72CEDE
:10410000BB2059F0893309F0E7CE9FEFE7EEF3E0EB
:104110009150E040F040E1F7DDCE8F2D8F7180CFE0
:10412000F0E1EF16FFE5FF0609F4F0CB21E1E2161E
:104130002FE5F20609F4F4CB93EFE9169CE5F906B6
:1041400009F451CC08F0EECBF8EDEF16FCE5FF06D4
:1041500009F445CC29EDE2162CE5F20609F44FCC22
:1041600037EDE3163CE5F30609F0EDCB26E241EE30
:1041700061EEC8010E943111CCCA30E1E3163FE57F
:10418000F30609F4C9CB91E1E9169FE5F906A1F61A
:1041900082E0C3CB85E0DE01119601900D928A95F5
:1041A000E1F7F801228189819A8121118CCA0E944C
:1041B000C60EF82E90CAF6E1EF16FCE5FF06E1F513
:1041C00080912E0269E2811165E38EE092E00E9407
:1041D000580533CC82722AECE2162CE5F20609F47B
:1041E00053CD08F08AC095ECE9169CE5F90609F470
:1041F00037CD08F069C0F3ECEF16FCE5FF0609F4D3
:1042000023CD08F028CD32ECE3163CE5F30609F4A3
:104210000DCD2AE5E2162DE5F20609F46FCD08F082
:1042200048CDE1148CE5F80609F458CD9EEDE91669
:104230009CE5F90609F45FCDF8018281E080F18008
:10424000882309F45FCDC7010E947612D82E682F0B
:10425000C7010E94EE0EB7018D2D0E9469120E94C7
:10426000E20C7C01882EF801D280B580B2943FE048
:10427000B322809185028770C1F0AD2CDD20B1F0B2
:104280008F2D807F803421F080E28E0D883068F0A1
:1042900080915B0382FD09C082E00E94520F8091F1
:1042A00085028770AA24A3948111A12C9F2C92943B
:1042B0002FE09222FBE0F91508F494CDE92DF0E00F
:1042C000E755F34D0C94462B97ECE9169CE5F9065F
:1042D00009F4D0CC08F4C9CCF8ECEF16FCE5FF06E5
:1042E00009F4CDCC46E256E062E376E029ECE21632
:1042F0002CE5F20609F4ACCC8CCF3FECE3163CE5A0
:10430000F30609F4D4CCB0F4ECECEE16ECE5FE06C2
:1043100009F4C4CC08F4BDCC2DECE2162CE5F20671
:1043200009F4C1CC85E03EECE3163CE5F30609F464
:10433000BBCC6FCF86EDE8168CE5F80640F482E141
:1043400091EDE9169CE5F90608F4AECCE2C9EDE57D
:10435000EE16FE0609F4DDC95CCF1F93CF93DF9301
:1043600080915202807FA9F480914F02882389F0C6
:1043700080918402D091530260914D0270914E025F
:10438000A0915002B0915102C62FC72316E0D81356
:1043900004C0DF91CF911F91089590E0109711F024
:1043A000CF3F19F401968770F2CF189F9001199FA3
:1043B000300D1124F901EC5AFD4F41814713F2CF22
:1043C00040814613EFCF42814111ECCF43815481AC
:1043D0004A1B5B0B483C510528F7809152028F70B5
:1043E000806180935202F901E75AFD4F80818F70FE
:1043F000806180838DE492E00E942A1BDF91CF913F
:104400001F910C94BC0EAF92BF92CF92DF92EF92AD
:10441000FF920F931F93CF93DF93CDB7DEB76197D2
:104420000FB6F894DEBF0FBECDBF8C0185E0F8015A
:10443000DE011D9601900D928A95E1F7F801E28068
:104440008DE4A82E82E0B82E609150027091510246
:104450006115710509F432C190914D0240914E02EF
:10446000892F84238F3F09F429C120813181C380A2
:10447000D480F0904F02F601E61BF70BFF2009F401
:10448000E8C080915202582F507FE83CF10508F0B7
:10449000ABC0511177C0FE2C431321C092131FC033
:1044A000E1101DC08F70806180935202C5010E948F
:1044B0002A1B80915202F80185838F2D61960FB6D9
:1044C000F894DEBF0FBECDBFDF91CF911F910F914A
:1044D000FF90EF90DF90CF90BF90AF900895CD28E0
:1044E00029F0822F83238F3F09F003C180E0F82F4A
:1044F000F170DF2E80FF3CC0809184024091530216
:1045000056E0841315C02D873E878D859E850E94B9
:10451000A512292F22952F702230F0F0243018F5A3
:104520009F70F1F0F8019581907FD1F4D12C1EC0DD
:1045300090E0589FF001599FF00D1124EC5AFD4F67
:104540006181361306C06081261303C06281E612C2
:104550000FC001968770D5CF9F7011F0882331F37B
:10456000805E883018F3C8010E942A1BFD2CA5CF5D
:10457000EE2009F4A2CF8091520281608093520212
:10458000F12C9BCF431306C0921304C0F801EE2018
:1045900009F479C0C8010E94B112882309F1EE2004
:1045A000F9F080915202803270F020914D023091EA
:1045B0004E0238872F831986DB86CA868C87CE0108
:1045C00007960E942A1B86E0F801ADE4B2E0019054
:1045D0000D928A95E1F70E94AD21FF24F3946DCFEF
:1045E000C8010E942A1BF9CF51110AC08DE492E044
:1045F0000E942A1B86E0F50111928A95E9F7C0CF47
:1046000043130FC092130DC0E1100BC0F801858356
:10461000C8010E942A1B86E0F50111928A95E9F7EC
:104620004CCFC8010E94B1128823D1F2EE20C1F212
:1046300080915202803238F220914D0230914E0228
:104640003A8329831B82DD82CC828E83CE01019640
:10465000B8CFE83CF105F8F6FE2CEE2009F2431342
:104660001FC092131DC08091520280FD10C0982F70
:10467000907F69F0F8018583903F31F0982F907F0B
:10468000905F8F70892B8583C8010E942A1B86E06A
:10469000F801ADE4B2E001900D928A95E1F70DCFFB
:1046A000C8010E94B11281118ECF809152028160A7
:1046B00080935202C8010E942A1BFFCEEE2009F40B
:1046C0008FCFC8010E94B112F82E882309F488CF39
:1046D00086E0F801ADE4B2E001900D928A95E1F731
:1046E00080914D0290914E020E94A5120E94AD2130
:1046F000E4CE81E08E25FBCE1F93CF93DF93CDB721
:10470000DEB767970FB6F894DEBF0FBECDBF4B8BF9
:104710005C8B6D8B7E8B8F8B6111109287021A8A56
:10472000198A85E0FE017396DE011D9601900D92B7
:104730008A95E1F786E0FE013D96DE01179601902D
:104740000D928A95E1F7CE0107960E9403228823F5
:1047500089F016E08091840290915302891349C038
:1047600067960FB6F894DEBF0FBECDBFDF91CF9135
:104770001F91089586E0FE013796DE0111960190A3
:104780000D928A95E1F78A859B85892B11F38F819C
:10479000988589238F3FE9F22091530230E0C901C7
:1047A000019687709927409184024817190671F481
:1047B0000E94D717109253021092840286E0EDE413
:1047C000F2E0DF011D928A95E9F7C3CF96E0929F50
:1047D000D001939FB00D1124AC5ABD4FFE0131960C
:1047E00001900D929A95E1F7809353020E94BC0EBE
:1047F000B0CF819FC00111248C5A9D4F0E9403228B
:10480000882309F4ADCF8091840290E001968770EF
:104810009927809384029ECF6F927F928F929F926E
:10482000AF92BF92CF92DF92EF92FF920F931F93BE
:10483000CF93DF93CDB7DEB72F970FB6F894DEBFD7
:104840000FBECDBF8E010F5F1F4F8AE0F80111929E
:104850008A95E9F79DE4E92E91E0F92E6801662436
:104860006394712C31E6832E31E0932EF701819110
:104870007F018F3F09F445C0F894E82FE295EF706F
:10488000F0E021A18F70A30102C0440F551F8A954B
:10489000E2F7CA01922F982B91A392A180958923C8
:1048A00082A3789400C0E2E5F1E021E030E0B12C91
:1048B000A12C41914F3F09F480C0A42FA295AF7065
:1048C000B0E090968C9190E04F7002C095958795DE
:1048D0004A95E2F780FD71C0C901A82AB92A220FC2
:1048E000331F8E169F0629F7F701319780818F3F7E
:1048F00011F00E94880C50EA5A95F1F7F601B18246
:10490000A082F2E0CF0ED11C42E5E41641E0F406AD
:1049100009F0ACCF4AE050E0B8018EE892E00E9486
:10492000AF2BFF24F394009709F4F12C892B09F4A1
:1049300047C08AE0F801AEE8B2E001900D928A9596
:10494000E1F781E080938D020E944C0590938C02E8
:1049500080938B0280918B0290918C020E94310592
:10496000059790F180918E0290918F029093A90209
:104970008093A80280919002909191029093AB0253
:104980008093AA0280919202909193029093AD023B
:104990008093AC0280919402909195029093AF0223
:1049A0008093AE0280919602909197029093B1020B
:1049B0008093B00210928D0207C090E080E08DCF0E
:1049C00080918D028111C6CF809198028823A9F031
:1049D000869549F183E08B8784E08C871D860E9451
:1049E0004C058160782F9F878E87109298024B85A7
:1049F0005C856D858F850E947C238F2D2F960FB649
:104A0000F894DEBF0FBECDBFDF91CF911F910F9104
:104A1000FF90EF90DF90CF90BF90AF909F908F90DE
:104A20007F906F90089584E08B87D7CF1F920F926D
:104A30000FB60F9211242F933F934F935F936F9371
:104A40007F938F939F93AF93BF93CF93DF93EF9316
:104A5000FF93D091E900DF708091EC00C82FC17006
:104A600080FDC0E81092E9008091F000877F80937C
:104A7000F00078940E94EC171092E9008091F00009
:104A800088608093F000CD2BCF70C093E900FF9138
:104A9000EF91DF91CF91BF91AF919F918F917F91D6
:104AA0006F915F914F913F912F910F900FBE0F909B
:104AB0001F9018951F920F920FB60F9211242F93EB
:104AC0003F934F935F936F937F938F939F93AF9396
:104AD000BF93EF93FF938091E10082FF09C0809123
:104AE000E20082FF05C08091E1008B7F8093E100AE
:104AF0008091DA0080FF24C08091D80080FF20C020
:104B00008091DA008E7F8093DA008091D90080FF57
:104B10009DC080E189BD82E189BD09B400FEFDCF61
:104B200081E08093840380915F03811109C00E941A
:104B3000A3030E946E048091E20084608093E200EF
:104B40008091E10080FF17C08091E20080FF13C0D8
:104B50008091E2008E7F8093E2008091E20080618C
:104B60008093E2008091D80080628093D80019BCC5
:104B700085E0809384038091E10084FF2BC08091C5
:104B8000E20084FF27C080E189BD82E189BD89B54B
:104B9000982F917080FFFBCF8091D8008F7D8093FC
:104BA000D8008091E1008F7E8093E1008091E20047
:104BB0008F7E8093E2008091E20081608093E2002A
:104BC00080918503882309F447C084E0809384039F
:104BD000809184038091E10083FF27C08091E200EF
:104BE00083FF23C08091E100877F8093E10082E012
:104BF00080938403109285038091E1008E7F8093DF
:104C0000E1008091E2008E7F8093E2008091E200DB
:104C100080618093E20042E060E080E00E943C041A
:104C20008091F00088608093F000FF91EF91BF9138
:104C3000AF919F918F917F916F915F914F913F9134
:104C40002F910F900FBE0F901F90189519BC1092C6
:104C5000840310925F0374CF8091E30087FD93E09B
:104C600090938403B5CF78941F921FB61F9211249E
:104C70008F939F93AF93BF93809156039091570367
:104C8000A0915803B09159030196A11DB11D8093C5
:104C9000560390935703A0935803B0935903BF91C1
:104CA000AF919F918F911F901FBE1F9018951F92DB
:104CB0001FB61F9211248F939F93AF93BF93809140
:104CC0005503811113C08091560390915703A09111
:104CD0005803B09159034196A11DB11D809356030D
:104CE00090935703A0935803B0935903BF91AF918A
:104CF0009F918F911F901FBE1F901895CDB7DEB763
:104D0000AC970FB6F894DEBF0FBECDBF84B7877FD8
:104D100084BF0FB6F894A895809160008861809355
:104D20006000109260000FBE80E890E00FB6F8942B
:104D300080936100909361000FBE85B7806885BF46
:104D400085B7806885BF86E89CE090930D028093CC
:104D50000C020E94A3030E946E048091E200846012
:104D60008093E2007894809184038823A1F01091CD
:104D7000E9001F709091EC00892F817090FD80E810
:104D8000182B1092E9008091E80083FD0E94EC1737
:104D90001F701093E90082E084BD93E095BD9AEF07
:104DA00097BD80936E000E94D812811102C00E94AC
:104DB00012120DE411E0F2E5EF2EF1E0FF2ED80122
:104DC0008D918D018F3F11F00E94880CE016F10645
:104DD000B1F702E511E0E1E6EE2EE1E0FE2EF8018A
:104DE00081918F018F3F11F00E94880CE016F1062F
:104DF000B1F78AE0E8EAF2E0DF01282F1D922A9558
:104E0000E9F7EEE8F2E0DF011D928A95E9F70E94EA
:104E1000B51A811102C00E94C01A82E090E00E947F
:104E2000CC2B80939D020E94F11290935B038093A0
:104E30005A030E940C24EFE3FCE93197F1F700C01C
:104E400000000E940C248091A80280FF08C06FEF30
:104E50007FEF90E080E00E94082C0E94C91083E060
:104E600090E00E94CC2B0E94790F0E94B51A81110C
:104E700004C00E94C01A0E94BC1746E050E06CE1DA
:104E800070E087E993E00E94BC2B1092960380911A
:104E900097038C7F11F40E94BC1722982A9A2198BC
:104EA000299A83B182FB882780F91999ECC190E097
:104EB000892B80939B0280915A03806880935A03C8
:104EC00080915A0390915B030E94211284E091E04B
:104ED000909352038093510360E4262E72EB672E69
:104EE00072E0772E8091840300E112E1853009F4AD
:104EF00005C20E940C2481110E944005A8EAB2E07C
:104F0000BCA7ABA70EE912E0512C412CEBA5FCA5E8
:104F1000A190B190FCA7EBA7D801CD90DC90CA146A
:104F2000DB0491F1CA24DB24312CEE24E394F12C30
:104F3000C6018E219F21892B09F139A24AA221E0C5
:104F4000C5018E219F21892B09F420E02BA30E940B
:104F50004C058160782F9DA38CA349A15AA16BA118
:104F60008DA10E947C23F801808191818E259F254F
:104F7000918380835394FBE0F515F0F03394EE0CAD
:104F8000FF1C2FE03212D4CF43940E5F1F4F45E039
:104F90004412BCCF511010C08FEF8EA38FA318A660
:104FA0000E944C058160782F9AA789A74EA15FA126
:104FB00068A58AA50E947C230E946C13E0919B0245
:104FC000EE0FEE0FE0939B0283B182FB882480F802
:104FD00019999EC180E08829E82BE0939B02EF702D
:104FE000F0E0EF59FE4F808190919A02890F8093F3
:104FF0009A0220E08430CCF0809199028F5F8093F8
:10500000990284E089838A8311E01B830E944C0506
:105010008160782F9D838C831093980249815A81F7
:105020006B818D810E947C2321E080919A028D3FCB
:10503000DCF48091990281508093990283E0898306
:1050400084E08A8381E08B830E944C058160782F05
:105050009D838C8382E08093980249815A816B8181
:105060008D810E947C2321E080919A02082E000C01
:10507000990B64E070E00E94322B80939A02211118
:105080000E94400586E0E9EBF2E0DE011196019016
:105090000D928A95E1F7F090BB02E090BC0210916E
:1050A000BD020091BE021092BB021092BC0210928F
:1050B000BD021092BE028F2D8E2909F448C0809146
:1050C000B7029091B8020E9431059C019091B30201
:1050D000992309F4AEC223333105C8F19F3F19F07B
:1050E0009F5F9093B302FF2059F00E940C0C9FEF3A
:1050F0001F140CF491E0899F802D11248093BB0232
:10510000EE2059F00E940C0C9FEF1E140CF491E05D
:10511000899F802D11248093BC023091BB023323E0
:10512000B1F02091BC02222391F045EB3403C00181
:105130001124992309F4EFC09093BB0245EB24039B
:1051400090011124332309F4EAC03093BC02812F6B
:10515000802B09F448C08091B5029091B6020E945C
:1051600031059C019091B202992309F45DC2253664
:105170003105C8F19F3F19F09F5F9093B202112350
:1051800059F00E94EA0B9FEF11160CF491E0899FF1
:10519000802D11248093BD02002359F00E94EA0B58
:1051A0009FEF10160CF491E0899F802D11248093BD
:1051B000BE023091BD023323B1F02091BE02222302
:1051C00091F045EB3403C0011124992309F4ABC0DD
:1051D0009093BD0245EB240390011124332309F47D
:1051E000A6C03093BE028091BB029091BC02892B75
:1051F0009091BD02892B9091BE02892B11F00E94E3
:105200004A0B86E0FE013196A9EBB2E001900D92C7
:105210008A95E1F70E94E30590919C02891721F09D
:105220000E94E30580939C0280918403843009F0FE
:1052300059CE83E08093E9008091E80082FF52CE4E
:105240008091E80090E085FF0CC00E94C20330E22C
:10525000E32EF12C8E010F5F1F4F882309F475C0D8
:1052600091E08091E8008B778093E800992309F41E
:1052700039CEE981E150E33108F0EDC0F0E0EB54C4
:10528000F34D0C94462B92E013CE8091840384302E
:1052900029F10E946C131092550388E190E00FB63B
:1052A000F894A895809360000FBE2092600083B7A9
:1052B000817F846083BF83B7816083BF7894889542
:1052C00083B78E7F83BF0FB6F894A8958091600056
:1052D000886180936000109260000FBE809183030C
:1052E000882361F00E940C24E8EAF2E08191919118
:1052F000892B09F07AC16E167F06C1F7809184036D
:10530000853009F4C2CF0E94D7170E94E305F1CD82
:1053100082E090E060CE81E08093BB020FCF81E01D
:105320008093BC0214CF81E08093BD0253CF81E013
:105330008093BE0258CF8091F100D8018D938D01EA
:10534000B1E0EB1AF10809F48BCF8091E80085FDFC
:10535000F2CF8091E8008B778093E8000E94C2032F
:10536000882399F37DCF1A8289E08B8311C08A81CB
:10537000823009F450C1833091F1813009F06BC063
:105380000E9440050E944C2B6B837C838D839E83FF
:1053900080918403843009F0A5CD1091E9001F703D
:1053A0009091EC00892F817090FD80E8182B82E0AD
:1053B0008093E9008091E80080FF0DC050E040E05C
:1053C00060E270E0CE0101960E94F3038091E80054
:1053D0008E778093E8001F701093E90083CD809151
:1053E000A8029091A9029827892798279C838B83EC
:1053F0008091AA029091AB029827892798279E83D3
:105400008D838091AC029091AD02982789279827CF
:1054100098878F838091AE029091AF029827892759
:1054200098279A8789878091B0029091B102982736
:10543000892798279C878B87ABCF8A81823059F444
:105440006B817C818D819E810E944C2B86E290E055
:105450000E94EA2B9DCF8FEF89839ACF4C816B817D
:105460008A810E9443129827892798279E838D83DB
:105470008FCF0D811E811027012710278A81EB8095
:10548000EEE1EE9E70011124F6E98F9FE00CF11C15
:1054900011248C8190E0880F991FE80EF91E612F6E
:1054A000C70187960E94EA2B602FC7018896D0CF4C
:1054B0000E94A5116DCF80E18A836ACF81E08A8343
:1054C00081E853CF0A811B81102701271027CE01C5
:1054D00001967C01CC80DC01AC0DB11D6D01C801D1
:1054E00081589D4FEC14FD0409F452CF0138B1E00E
:1054F0001B0750F40E94CC2BF70184830F5F1F4FD2
:10550000BFEFEB1AFB0AEBCFD70114961C92F6CF34
:105510000A811B81102701271027FE0131966F0198
:10552000EC80E00EF12EF11CC80181589D4F0E1544
:105530001F0509F42DCF0138F1E01F0728F4D6012B
:1055400014966C910E94EA2BBFEFCB1ADB0A0F5F17
:105550001F4FEACF0E9495111BCF84E0ADCF0A8187
:105560001B81102701271027FE0131967F01CC8077
:10557000CF018C0D911D6C01C8018796EC14FD04C0
:1055800009F406CF0835A2E01A0750F40E94CC2B8C
:10559000F70184830F5F1F4FBFEFEB1AFB0AECCFBD
:1055A000D70114961C92F6CF0A811B811027012780
:1055B0001027FE0131966F01EC80E00EF12EF11CF8
:1055C000C8018796E016F10609F4E2CE0835F2E04C
:1055D0001F0728F4D60114966C910E94EA2BBFEFA6
:1055E000CB1ADB0A0F5F1F4FEBCF09BD19BD09B402
:1055F00000FEFDCF8091D8008F7D8093D8008091F0
:10560000E00082608093E0008091E00081FDFCCFAB
:105610000E94D71773CE86E290E00E94CC2B1B82AB
:105620001C821D828E83B4CE2D32314008F0A4CD71
:10563000DACD2D32314008F053CD89CDAA1BBB1BEA
:1056400051E107C0AA1FBB1FA617B70710F0A61B82
:10565000B70B881F991F5A95A9F780959095BC01A3
:10566000CD01089597FB072E16F4009407D077FD1F
:1056700009D00E941E2B07FC05D03EF49095819521
:105680009F4F0895709561957F4F0895EE0FFF1F0E
:105690000590F491E02D09946927962769277827CA
:1056A0008727782708958F929F92AF92BF92CF92CB
:1056B000DF92EF92FF92CF93DF93EC0168817981C3
:1056C0008A819B81611571058105910521F464E250
:1056D00079ED8BE597E02DE133EF41E050E00E945A
:1056E0000E2C49015A019B01AC01A7EAB1E40E94CA
:1056F0002D2C6B017C01ACEEB4EFA50194010E944E
:105700003B2CDC01CB018C0D9D1DAE1DBF1DB7FFD9
:1057100003C00197A109B04888839983AA83BB83FA
:105720009F77DF91CF91FF90EF90DF90CF90BF9068
:10573000AF909F908F9008950E94532B089580E022
:1057400091E00E94532B0895B0E0A0E08093000107
:1057500090930101A0930201B09303010895FB010E
:10576000DC0104C08D910190801921F4415050401A
:10577000C8F7881B990B0895DC01CB01FC01F9994E
:10578000FECF06C0F2BDE1BDF89A319600B40D928D
:1057900041505040B8F70895F999FECF92BD81BDB0
:1057A000F89A992780B50895A8E1B0E042E050E06A
:1057B0000C94BE2BDC01A40FB51F4150504048F0A3
:1057C000CB01840F951F2E910E94EB2B415050402E
:1057D000D0F70895262FF999FECF92BD81BDF89A92
:1057E000019700B4021639F01FBA20BD0FB6F89425
:1057F000FA9AF99A0FBE08950396272F0E94EB2B71
:105800000E94EA2B252F0E94EB2B242F0C94EB2BCC
:105810000196272F0E94EB2B0C94EA2B052E97FB69
:105820001EF400940E94252C57FD07D00E94402CA6
:1058300007FC03D04EF40C94252C509540953095E0
:1058400021953F4F4F4F5F4F0895909580957095EC
:1058500061957F4F8F4F9F4F08950E94622CA59FA7
:10586000900DB49F900DA49F800D911D112408955B
:10587000B7FF0C942D2C0E942D2C821B930B0895A6
:10588000A1E21A2EAA1BBB1BFD010DC0AA1FBB1F44
:10589000EE1FFF1FA217B307E407F50720F0A21BB6
:1058A000B30BE40BF50B661F771F881F991F1A9423
:1058B00069F760957095809590959B01AC01BD014D
:1058C000CF010895A29FB001B39FC001A39F700DA7
:1058D000811D1124911DB29F700D811D1124911DF8
:1058E0000895F894FFCFC312C312CC12CC12CE127B
:1058F000CC12CC12CC12C312C312D312CC12CC12C3
:10590000D312DF130A1438147314B014F1143415BD
:1059100039153C15421545154A154D1550155315A9
:10592000561559155C155F15621565156A156D15C7
:105930007015AA15E41527162A162D169716D218D3
:10594000FA189D1AFA189D1A2D194E199D1A4C1AFB
:10595000591A871E871EC21EC21E701F8A1FF21E82
:10596000F21E951F022013201320B329B7291D2AE8
:105970002E2A392A582A2B2A2B2A2B2A2B2A2B2A41
:105980005B2A5E2A622A882AAA2AAD2AAF2AD42A4A
:10599000010000002E0589106810641060102D05AC
:1059A0003905FFFF0100FF000300FFFF818283E252
:1059B00000E900EA00B500B600B700CD008301CCD5
:1059C000008A019201940121022302240225022669
:1059D0000227022A02B300B4006F0070003733F5CB
:1059E000F0F4C6F190919293959496976766363548
:1059F0003400FF0100010000FFFF0000010001FF73
:105A000000003131295A1B750A4022B68401620117
:105A1000AC00DE05F70517060000000000000000DE
:105A20000000000000000000000000000000000076
:105A30000000000000000000000000000000000066
:105A40000000000000000000000000000000000056
:105A50000000000000000000000000000000000046
:105A60000000000514050028004B006E009100B4F2
:105A700000D700D718D728D73CB43C913C6E3C4B9C
:105A80003C283C053C0528051E01010101010101DE
:0C5A9000010101010101010101010101FE
:00000001FF
