:100000000C942F030C9476030C9476030C947603D3
:100010000C9476030C9476030C9476030C9476037C
:100020000C9476030C9476030C94DC280C9498289A
:100030000C94D9290C9476030C9476030C947603D3
:100040000C9476030C9476030C9476030C9476034C
:100050000C9476030C94B5290C9476030C947603D7
:100060000C9476030C9476030C9476030C9476032C
:100070000C9476030C9476030C9476030C9476031C
:100080000C9476030C9476030C9476030C9476030C
:100090000C9476030C9476030C9476030C947603FC
:1000A0000C9476030C9476030C94760305010902F4
:1000B000A10185020901A1000509190129081500FE
:1000C0002501950875018102050109300931158165
:1000D000257F95027508810609381581257F9501D0
:1000E00075088106050C0A38021581257F95017572
:1000F000088106C0C005010980A101850319012AF4
:10010000B700150126B700950175108100C0050CD8
:100110000901A101850419012AA002150126A002E6
:10012000950175108100C005010906A1018506052C
:100130000719E029E71500250195087501810205D9
:1001400007190029EF1500250195F07501810205B9
:10015000081901290595057501910295017503910D
:1001600001C00660FF0961A1010962150026FF00B8
:100170009520750881020963150026FF00952075FA
:10018000089102C005010906A101050719E029E748
:1001900015002501950875018102950175088101F9
:1001A0000507190029FF150026FF0095067508812F
:1001B000000508190129059505750191029501753C
:1001C000039101C0000000000000000000000000DA
:1001D000000000000000000000000000000000001F
:1001E00000000000000000007E0F00D4FFFFFFC7EA
:1001F0000000007800000000000000002A2B28000A
:1002000000000000000000000000000000000029C5
:10021000000000002C1E3420212224342627252E05
:10022000362D3738271E1F2021222324252633333D
:10023000362E37381F0405060708090A0B0C0D0E69
:100240000F101112131415161718191A1B1C1D2F35
:100250003130232D350405060708090A0B0C0D0E55
:100260000F101112131415161718191A1B1C1D2F15
:100270003130354C0001010101010101010102028F
:100280000202020202020203030303030303030444
:10029000040404040404050505050506060606060F
:1002A000070707070708080808090909090A0A0AC9
:1002B0000B0B0B0C0C0C0D0D0D0E0E0E0F0F0F106B
:1002C00010111111121213131414151516161717F5
:1002D000181819191A1A1B1B1C1D1D1E1E1F202061
:1002E000212222232424252626272829292A2B2CAB
:1002F0002D2D2E2F30313232333435363738393ACE
:100300003B3C3D3E3F404142434445464748494AC5
:100310004C4D4E4F50515354555658595A5B5D5E93
:100320005F616264656668696B6C6D6F707273752E
:1003300077787A7B7D7E8082838587888A8C8E8F92
:1003400091939596989A9C9EA0A2A3A5A7A9ABADC0
:10035000AFB1B3B5B7BABCBEC0C2C4C6C9CBCDCFAE
:10036000D1D4D6D8DBDDDFE2E4E7E9EBEEF0F3F55C
:10037000F8FAFDFF29001E001F00200021002200C6
:10038000230024002500260027002D002E002A002F
:100390004C002B0014001A000800150017001C0068
:1003A00018000C00120013002F00300031004B0029
:1003B000390004001600070009000A000B000D00B8
:1003C0000E000F0033003400000028004E00E10052
:1003D00000001D001B0006001900050011001000A0
:1003E000360037003800E5005200C25CE000E30050
:1003F000E200A900AA0000002C000000000000009C
:10040000E6000151500051004F0035003A003B001A
:100410003C003D003E003F004000410042004300E0
:10042000440045000100C55CC25C01000100010000
:1004300001000100010001000100010001000100B4
:1004400001000100C65C0100010001000100010083
:100450000100010001000100010001000100000095
:100460007200C75C010000000100010001000100F2
:100470000100010001000100010001007300C95CDE
:10048000C85C010001000100010001000000010042
:10049000000000000000C35C0100CC5CCA5CCB5CC7
:1004A0000100010001000100010001000100010044
:1004B0000100010001000100010001000100010034
:1004C0000100010001000100010001000100010024
:1004D0000100010001000100010001000100010014
:1004E0000100010001000100010001000100010004
:1004F00001000100000001000100010000000100F6
:1005000001000100010001000100010001000100E3
:1005100001000100010001000100010001000100D3
:1005200001000000010000000000000001000100C7
:1005300001000100010001000100010001000100B3
:1005400001000100010001000100010001000100A3
:100550000100010001000100010001000100010093
:100560000100010001000100010001000100010083
:100570000100010001000100010001000100010073
:100580000100010001000100010000000100010064
:100590000100000001000100010001000100010054
:1005A0000100010001000100010001000100010043
:1005B0000100010001000100000001000000000036
:1005C00000000100010001000100010009025B00C0
:1005D000030100A0FA090400000103010100092140
:1005E00011010001224000070581030800020904EF
:1005F0000100020300000009211101000122220074
:1006000007058203200001070503032000010904F8
:100610000200010300000009211101000122B600BF
:10062000070584032000021201000200000008A157
:100630007B02650100010200010A034D00570036EC
:10064000003500000012034D005700530074007580
:1006500000640069006F0000000403090400112415
:100660001FBECFEFDAE0DEBFCDBF04B603FE27C06A
:100670008091390690913A06A0913B06B0913C06D4
:100680008730904BA740B04BD1F4109239061092AE
:100690003A0610923B0610923C0614BE84B7877F40
:1006A00084BF0FB6F894A89580916000886180930C
:1006B0006000109260000FBEE0E0F8E3099526E0CC
:1006C000A6E8B3E001C01D92A933B207E1F713E039
:1006D000A0E0B1E0E8E7F2E602C005900D92A6388E
:1006E000B107D9F70E94002A0C94D9300C9400006D
:1006F00090913306937061F081110BC094609093D8
:100700003306109218018091320681608093320680
:1007100008958A3210F0946AF2CF880F880F982BD0
:10072000EECF90913306937071F08093340660930E
:100730003506493C08F048EC409336068091320675
:100740008160809332060895E8EDF0E080818E7F2D
:1007500080831092E2001092DA001092E100A0EE85
:10076000B0E08C9181608C9380818F77808319BCFD
:10077000A7EDB0E08C918E7F8C9380818F7E8083FB
:100780001092D20508952091E4003091E50095E69D
:10079000A9012091EC00822F817020FF06C080917A
:1007A000E80080FF06C080E008952091E80022FD67
:1007B0001AC08091F705882389F0853089F08091EF
:1007C000EB0085FD0FC02091E4003091E500421759
:1007D0005307F9F29150E1F684E0089582E008951C
:1007E00083E0089581E00895EF92FF920F931F93A5
:1007F000CF937C018B010E94C303C82F811117C0C6
:100800008091E80085FD0BC08091E8008E77809391
:10081000E8000E94C303882399F3C82F08C0F7019A
:1008200081917F018093F1000150110949F78C2FCC
:10083000CF911F910F91FF90EF9008958091F9054E
:1008400087FF13C08091E80082FF06C08091E80016
:100850008B778093E80004C08091F7058111F2CF77
:1008600008958091F7058823D9F38091E80080FFEF
:10087000F8CF8091E8008E77ECCF982F9093E90025
:10088000242F762F50E0891731F07091EC002091E1
:10089000ED005091F00021FD07C09F5F973071F788
:1008A0008093E90081E008953091EB003E7F309322
:1008B000EB003091ED003D7F3093ED003091EB0087
:1008C00031603093EB007093EC002093ED00509377
:1008D000F0002091EE0027FDE0CF80E00895CF9258
:1008E000DF92EF92FF920F931F93CF93DF93C8EDA8
:1008F000D0E088818F7E8883E7EDF0E080818160A1
:10090000808384E082BF81E08093D20588818E7FDE
:10091000888302EE10E0F80110821092DA0081EE76
:10092000C82ED12CF601108288818F778883888128
:100930008068888388818F7D888319BC1092F70531
:100940001092F8051092F6051092F50590EEE92E3A
:10095000F12CF70180818B7F80838881816088837F
:1009600042E060E080E00E943D04F60180818E7FDD
:100970008083F801808181608083808188608083AA
:10098000F70180818E7F8083888180618883DF91F9
:10099000CF911F910F91FF90EF90DF90CF9008952E
:1009A000FC018091FF059091000686179707A0F043
:1009B0006115710529F49091E8009E779093E80005
:1009C00090E06115710551F4911108C08091E80023
:1009D00082FF34C080E00895BC01F2CF8091F7051A
:1009E0008823C1F18530C1F18091E80083FD30C0DA
:1009F0008091E80082FDEACF8091E80080FFE1CF9E
:100A00008091F3002091F200382F6115710519F0E3
:100A10002830310558F091E02830310509F090E098
:100A20002091E8002E772093E800CBCF819180932E
:100A3000F100615071092F5F3F4FE7CF8091F705BB
:100A4000882341F0853041F08091E80083FFBECFDC
:100A500081E0089582E0089583E0089508958091EB
:100A6000D40508959C014FB7F8948091C9059091E1
:100A7000CA05A091CB05B091CC054FBF821B930B4B
:100A800008952FB7F8946091C9057091CA058091B7
:100A9000CB059091CC052FBF08952FB7F894809186
:100AA000C9059091CA05A091CB05B091CC052FBF87
:100AB0000895209114012223C9F02091CD0527FF2C
:100AC00015C0E62FE695E695E695EE31D8F4E80FE9
:100AD000F92FF11D677021E030E001C0220F6A9507
:100AE000EAF720958281282322830895FC0132961B
:100AF00008962191621303C0DF0111971C92E81739
:100B0000F907B9F70895209114012223C1F020912B
:100B1000CD0527FF14C0E62FE695E695E695EE3164
:100B2000F8F4E80FF92FF11D677021E030E001C003
:100B3000220F6A95EAF78281822B82830895FC0155
:100B400032962FEF30E04191641751F02F3F19F4A6
:100B5000411101C0232F3F5F3630A9F72F3F09F421
:100B60000895820F911D27FD9A95FC0162830895D7
:100B70002091C6053091C7052817390771F0909369
:100B8000C7058093C605E091C405F091C50530976F
:100B900021F00084F185E02D099408952091C2058B
:100BA0003091C3052817390771F09093C3058093DE
:100BB000C205E091C405F091C505309721F006808B
:100BC000F781E02D09940895E091C405F091C505E1
:100BD000309721F00190F081E02D099480E0089594
:100BE000FA01811101C0FB010994EDEBF4E081836E
:100BF00060834283339695E0E23CF907C1F708959C
:100C0000FC01EE0FFF1FE80FF91FE354FB4F618358
:100C1000408322830895E3E3F6E0248130E1231B3F
:100C200008F420E0248380913206816080933206AC
:100C30000895E3E3F6E0248130E1230F08F42FEF79
:100C40002483809132068160809332060895E3E325
:100C5000F6E0438120E1421B08F440E0818162819B
:100C600090E00C949103E3E3F6E0438120E1420F2E
:100C700008F44FEF8181628190E00C949103E3E3EB
:100C8000F6E0628120E1621B08F460E0818143812B
:100C900090E00C949103E3E3F6E0628120E1620FBF
:100CA00008F46FEF8181438190E00C949103E3E3BA
:100CB000F6E08181438162818850990B0C94910305
:100CC000E3E3F6E0818190E04381628108960C9431
:100CD00091038091330686958695815009F489E2C7
:100CE0000C94780380913306869586958F5F8A32BF
:100CF00008F081E00C947803EF92FF920F93970134
:100D0000201B31092F3F310519F010F02FEF30E093
:100D10002095382F320F08F43FEF832F0F91FF906B
:100D2000EF900895EF92FF920F939701201B3109E6
:100D30002F3F310519F010F02FEF30E0322F3095B2
:100D4000482F430F08F44FEF842F620F0F91FF904D
:100D5000EF900895EF92FF920F93972F093438F494
:100D6000B701601B71096F3F710519F010F06FEF4B
:100D700070E0485F5F4F4131510540F0A901485F85
:100D80005F4F4131510510F06FEF70E06095482FD3
:100D9000460F08F44FEF842F37FF02C02D5F3F4FFF
:100DA000359527953595279560913406620F792FF3
:100DB0000F91FF90EF900895EF92FF920F931F9382
:100DC0000E0D1F2D111DF90137FF03C0F195E1959F
:100DD000F10924E0EE0FFF1F2A95E1F7EF3FF1053F
:100DE00019F014F0EFEFF0E09A0157FF03C03195CE
:100DF0002195310994E0220F331F9A95E1F72E17C0
:100E00003F070CF4F901E00FF11FEF3FF10519F076
:100E100010F0EFEFF0E0E095282F3E2F230F08F4BD
:100E20002FEF822F1F910F91FF90EF900895EF9277
:100E3000FF920F93970195E0099F200D311D11241A
:100E40002F3F310519F010F02FEF30E02095382FAB
:100E5000320F08F43FEF832F0F91FF90EF9008952A
:100E600022E8241B08F420E0620F08954095282F03
:100E7000429F412D1124842F0895E42FF0E0EE0FBE
:100E8000FF1FEF57FD4F9081921B97FD9195292FE2
:100E900038E1239F212D1124620F08950F931F9392
:100EA00010E0F801EE0FFF1FEF57FD4F90819057B4
:100EB00097FD9195000F111FF801EE57FD4F00812E
:100EC0000052110B2003F001219FF00D112408E3C3
:100ED00010E0091B110997FD139540039001419FF4
:100EE000300D1124E20FF31F9F01220F331F2E0F2D
:100EF0003F1F37FF02C021583F4F220F232F221FD1
:100F0000330B620F1F910F9108950F931F93522F70
:100F100010E0F801EE0FFF1FEE57FD4FA081A05229
:100F2000BB0B9D015203F001539FF00D1124000FE4
:100F3000111FD801AF57BD4F0C910057110B400343
:100F40009001419F300D11242E0F3F1F37FF02C02B
:100F5000215C3F4F96E0359527959A95E1F7620F12
:100F60001F910F9108950F931F93522F10E0F801D6
:100F7000EE0FFF1FEE57FD4FA081A052BB0B9D014E
:100F80005203F001539FF00D1124000F111FD801DF
:100F9000AF57BD4F0C910057110B40039001419F7B
:100FA000300D11242E0F3F1F37FF02C021583F4F35
:100FB000220F232F221F330B620F1F910F910895D1
:100FC000EF920F93972F23E0029FB00111247595A4
:100FD00067956E0D792F0F91EF900895322F50E0A5
:100FE000FA01EE0FFF1FEE57FD4F9081905297FDD3
:100FF0009195440F551FFA01EF57FD4F2081231B98
:10100000330B290F311D97FD3A95620F0895E42F98
:10101000F0E0EE0FFF1FEE57FD4F6081621B089559
:10102000E42FF0E0EE0FFF1FEF57FD4F6081621BD2
:101030000895622F0895E42FF0E0EE0FFF1FEF57A1
:10104000FD4F408134EE439F412D1124E82FF0E005
:1010500050E0445E5F4FDA01A21BB1099D01B7FF6A
:1010600003C031952195310993E0220F331F9A95E2
:10107000E1F7AF01421B530B9A0157FD20E0582FB7
:10108000259F212D1124822F0895E42FF0E0EE0FEB
:10109000FF1FEF57FD4F408134EE439F412D112438
:1010A000E72FF0E050E0445E5F4FDA01A21BB10988
:1010B0009D01B7FF03C031952195310993E0220FBF
:1010C000331F9A95E1F7AF01421B530B9A0157FD6D
:1010D00020E0279F212D1124722F08950C94F505EF
:1010E0000C940006FC019B01009729F480E077FF37
:1010F0002BC080E80895AC0197FF04C04427552712
:10110000481B590BB901640F751F37FD10C0241B14
:10111000350BC901A5E0880F991FAA95E1F70E9438
:101120008B2F80E2861BF7FF0FC081950895CB01BE
:1011300065E0880F991F6A95E1F7BA01621B730B8E
:101140000E948B2F80E6EECF0895EF920F93CF93FE
:10115000DF93D72FC82FC9010E19BA010E94720858
:10116000602F681B7D2F8C2FDF91CF910F91EF9017
:1011700008950F93CF93DF93D72FC82FC901BA01DA
:101180000E947208682F600F7D2F8C2FDF91CF9106
:101190000F910895EF920F931F93CF93DF93D62F64
:1011A000C72F182FC9010E19010FBA010E9472082A
:1011B000081B202F219F212D1124822F6D2F7C2F82
:1011C000DF91CF911F910F91EF900895EF920F93C0
:1011D0001F93CF93DF93D62F172FC82FC9010E1956
:1011E000070FBA010E947208702F781B719F712D32
:1011F00011246D2F8C2FDF91CF911F910F91EF90C4
:1012000008950F931F93CF93DF93D62FC72F182FD7
:10121000C901212F201B022FBA010E947208982FAA
:10122000990F990F891B800F282F219F212D1124A1
:10123000822F6D2F7C2FDF91CF911F910F910895F9
:101240000F931F93CF93DF93D62F172FC82FC9016A
:10125000272F201B022FBA010E947208982F990F86
:10126000990F782F791B700F719F712D11246D2F9D
:101270008C2FDF91CF911F910F910895E82F86FD5C
:10128000E0952E2F2F7086FD2F5FE695E695E6956B
:10129000E670F0E0E15EFD4F9181929F902D212D4F
:1012A000112492959F702295207F922B2081920F7E
:1012B00087FD919580E8890F08950F931F93CF9331
:1012C000DF938B01D82FC42F822F0E943E09EC2F71
:1012D000F0E0EE0FFF1FEF57FD4F90819058890F00
:1012E00087FD8195880F682F2CE0629F612D112466
:1012F000600F712F8D2FDF91CF911F910F91089566
:10130000409110015091110125E038E0429FC00149
:10131000439F900D529F900D1124875E994C90939E
:10132000110180931001890F0895AC01823091055D
:1013300008F408959FEF413E8EE1580740F49A016A
:1013400095E0369527959A95E1F798E0920F61E040
:10135000E62FE90FFF27FF1F9F0135952795822F65
:10136000229FF001239FF00DF00D11244E175F070F
:1013700038F49FEF920F961758F78FEF860F089566
:101380002F3FE9F361E0620FF6CF0F93CF93DF9326
:10139000D72FC82F47FD419588E390E0841B910922
:1013A00047FD9395889FB001899F700D700D1124A2
:1013B000229FC001239F900D900D1124860F971F2F
:1013C0000E949509982F990F890F682F600F7D2F24
:1013D0008C2FDF91CF910F91089530E020E0869F10
:1013E000212D969F200D311D1124C9010895AF9222
:1013F000BF92CF92DF92FF920F931F93CF93DF9311
:10140000362F472FE82FF0E0EC58FD4F71110FC039
:10141000E4918E2F2E2F6E2F722FDF91CF911F917F
:101420000F91FF90DF90CF90BF90AF900895C72F9E
:10143000D0E02491F22E022F10E056E0659FC0010B
:101440001124EFEFF0E0BF010E94772F832F90E08F
:10145000880F991F35E5369FD001379FB00D1124B5
:101460008A1B9B0B982F990F980F6F01CC1ADD0ADE
:10147000C09ED001C19EB00DD09EB00D11248B2F07
:10148000499FA0011124452F55276F01C41AD50A81
:10149000C09EA001C19E500DD09E500D11245F0131
:1014A000A91AB108AC9E6001AD9ED00CBC9ED00CB8
:1014B0001124CD2CDD24EC19FD09E09FE001E19F12
:1014C000D00DF09FD00D1124ED2F62307105A1F0E9
:1014D00050F46115710509F49ECF6130710581F0FA
:1014E000EB2F852F98CF6430710569F080F066305E
:1014F000710509F490CFF4CFE22F2B2F8D2F8BCFD6
:10150000E22F252F88CFEB2F822F2D2F84CF2B2F4B
:101510008F2DE52F80CF2F923F925F926F927F9217
:101520008F929F92AF92BF92CF92DF92EF92FF92F3
:101530000F931F93CF93DF93CDB7DEB72A970FB6E4
:10154000F894DEBF0FBECDBF8B837E836D83209169
:10155000150182E1289F802D11248F838E5E89835F
:101560008A83883510F037E53A83809105068C83AD
:10157000FF81EF2FF0E0FA87E987CF01880F991FED
:101580009C012F573D4F69013B81832F90E0FC0167
:101590003196F887EF838A8199859817E8F081E082
:1015A000E981E73508F080E02A960FB6F894DEBFAF
:1015B0000FBECDBFDF91CF911F910F91FF90EF90A4
:1015C000DF90CF90BF90AF909F908F907F906F9063
:1015D0005F903F902F900895E985FA85E15DFC4F7B
:1015E0008081909116018923F1F02090340630908B
:1015F00035062F8138852B5F394F39015B8010E02C
:10160000FC815F16D0F020913606129F112D112417
:10161000B101812F0E94F709462F282F672F898556
:101620009A850E94700829853A852F5F3F4F3A8737
:10163000298732E0C30ED11CAECFF30181913F0167
:10164000F601A080A81ABB088180F3018781881A5F
:101650009908AA9C9001AB9C300D300D1124889CF8
:10166000C001899C900D900D1124820F931F0E9440
:101670009509082F6091370621E0620F08F46FEF9B
:10168000F301EE0FFF1FE550F640858996890E9411
:10169000ED097C019401A501B101812FED81FE814D
:1016A00009951B015394182FABCFCF92DF92EF9285
:1016B000FF920F931F93CF93DF938C01C09115017D
:1016C00082E1C89FC02D112422E1D22EDC0ECD2C48
:1016D00027E52D1510F497E5C92E2091370631E046
:1016E000230F08F42FEF30E050E040E06FEF7FEF82
:1016F00080E090E00E9476307901D0E02C2FCC156C
:1017000070F081E0F6E5FD1508F480E0DF91CF91FF
:101710001F910F91FF90EF90DF90CF900895FE0101
:10172000E15DFC4F808190911601892311F1409178
:1017300005064150042E000C550B47FF1CC0C70185
:101740006091370621E0620F08F46FEF0E94ED0907
:10175000AC01609134067091350680913606F8012F
:1017600009950E94F709462F282F672FCE010E9466
:1017700070082196C3CFFA01EB5FF94F818982137C
:101780000AC0FA01EE0FFF1FEB5FF94F818D928DBA
:101790008E159F05A8F241505109CFCFDF92EF92ED
:1017A000FF920F931F93CF93DF937C01C09115019C
:1017B00082E1C89FC02D112412E11C0F012F1835A2
:1017C00008F007E5609137066695669521E0620F9F
:1017D00008F46FEF80910106909102060E94ED09D6
:1017E000D82ED0E0C01760F081E0173508F080E017
:1017F000DF91CF911F910F91FF90EF90DF900895AF
:10180000FE01E15DFC4F808190911601892391F0EA
:101810006091340670913506809136062D2D4C2F3F
:10182000F70109950E94F709462F282F672FCE014F
:101830000E9470082196D6CF9F92AF92BF92CF920E
:10184000DF92EF92FF920F931F93CF93DF936C0180
:10185000C091150182E1C89FC02D112412E11C0F17
:10186000B12E183510F037E5B32E60913706669526
:10187000669580910106909102060E94ED09F82E6E
:1018800080E48F0D0E943E0990E8A92EA80E8F2DAE
:101890000E943E0920E8922E980ED0E0CB1580F0F1
:1018A00081E0173508F080E0DF91CF911F910F9113
:1018B000FF90EF90DF90CF90BF90AF909F900895F2
:1018C000FE01E15DFC4F8081909116018923A1F01A
:1018D000609134067091350680913606EF2C0C2FFE
:1018E000292D4A2DF60109950E94F709462F282F28
:1018F000672FCE010E9470082196D0CF7F928F92E1
:101900009F92AF92BF92CF92DF92EF92FF920F938E
:101910001F93CF93DF935C01C091150182E1C89FB3
:10192000C02D112412E11C0FF12E183510F037E5EF
:10193000F32E60913706669580910106909102061C
:101940000E94ED09782ED0E0CF1590F081E0173598
:1019500008F080E0DF91CF911F910F91FF90EF9001
:10196000DF90CF90BF90AF909F908F907F90089521
:10197000FE01E15DFC4F8081909116018923C9F140
:10198000CE01880F991F8A5C9D4FFC01E55BFF4FDC
:101990002081422F4057550B6A01845B9F4FFC0109
:1019A0008081282F2052330B4901449F9001459F8D
:1019B000300D300D1124889CC001899C900D900D34
:1019C0001124820F931F0E949509082F60913406FD
:1019D0007091350680913606E72C9401A601F50139
:1019E00009950E94F709462F282F672FCE010E94E4
:1019F00070082196A9CFCF92DF92EF92FF920F93BA
:101A00001F93CF93DF937C01C091150182E1C89FA2
:101A1000C02D112412E11C0FD12E183510F037E51E
:101A2000D32E60913706669580910106909102064B
:101A30000E94ED09C82ED0E0CD1568F081E0173581
:101A400008F080E0DF91CF911F910F91FF90EF9010
:101A5000DF90CF900895FE01E15DFC4F8081909171
:101A60001601892311F1CE01880F991F8A5C9D4FC1
:101A7000FC01E45BFF4F20812052330B855B9F4FBD
:101A8000FC0140814057550B60913406709135063A
:101A9000809136060C2DF70109950E94F709462F13
:101AA000282F672FCE010E9470082196C5CF0E9473
:101AB0004D059C019091350480913604982B21F0BE
:101AC000309332042093310490913704809138048C
:101AD000982B21F03093300420932F04E091C4051B
:101AE000F091C505309749F082E08093330404807B
:101AF000F581E02D83E394E0099408954091350445
:101B0000803F59F48091360487FF0DC0109236044F
:101B100041110BC010922D0408C0813F81F48091C7
:101B2000360418169CF3442381F080913704909179
:101B30003804892B09F05AC010922C040895823F72
:101B400049F447FFF0CF109235048091360481119B
:101B5000ECCFE0CF833F19F41416ACF3E4CF9091AF
:101B60003704893F29F41916F4F610923704DBCFB5
:101B70008A3F19F497FFD7CFF8CF909138048B3F65
:101B800029F497FFD0CF10923804CDCF8C3F19F4B1
:101B90001916CCF3C8CF9CE0980F953090F4845F71
:101BA000990B21E030E0B90102C0660F771F8A95DA
:101BB000E2F7CB018095909134048923809334041B
:101BC000B2CF8D3F31F480912E048E7F80932E040E
:101BD000AACF8E3F21F480912E048D7FF7CF8F3FC7
:101BE00009F0A1CF80912E048B7FF0CF08958091D2
:101BF0002E0480FD16C081FD16C082FD16C08091A6
:101C00002C048823A1F0883280F428E0829FC00150
:101C1000112468E270E00E948B2F862F672B39F029
:101C2000089582E0089584E0089588E0089581E0B1
:101C3000089580912E0480FD14C081FD14C082FDA2
:101C400016C080912D04882381F0843180F422E332
:101C5000829FC001112464E170E00E948B2F862FC7
:101C600008958CE0089589E1089585E0089582E360
:101C70000895803F31F40E94190E819580933604B7
:101C80000895813F19F40E94190EF8CF823F31F474
:101C90000E94190E8195809335040895833F19F4AD
:101CA0000E94190EF8CF893F29F40E94F70D809306
:101CB000370408958A3F21F40E94F70D8195F7CFEC
:101CC0008B3F31F40E94F70D81958093380408957D
:101CD0008C3F19F40E94F70DF8CF9CE0980F9530D7
:101CE00070F4845F990B21E030E001C0220F8A95E7
:101CF000EAF780913404822B8093340408958D3F59
:101D000031F480912E04816080932E0408958E3FDB
:101D100021F480912E048260F7CF8F3FB9F7809134
:101D20002E048460F1CF80E00895F894E82FE295C6
:101D3000EF70F0E031A1282F2F7081E090E001C01A
:101D4000880F2A95EAF7982F9095932391A392A153
:101D5000892B82A3789408959091CD0592FF06C0B7
:101D6000282F28712830F9F4877F846093FF06C0FC
:101D7000282F28712831F1F4877E84612091CE05C7
:101D800020FF06C0382F38713830D9F4877F816042
:101D900021FF06C0282F28712831D1F4877E816168
:101DA00094FD877E0895282F24712430F9F68B7FC7
:101DB0008860DCCF282F2471243101F78B7E886165
:101DC000DDCF382F3171313019F78E7F8860E0CF49
:101DD000282F2171213121F78E7E8861E1CFCF93A9
:101DE000DF93EC0182389105A9F1D8F58133910593
:101DF00009F496C048F58932910509F48AC08A979A
:101E000009F495C0C11521E5D20708F0BCC0C11581
:101E100030E5D30708F014C1C83ED10508F09CC0D6
:101E2000C03ED10560F5C83AD10508F087C0C53A73
:101E3000D10508F0FDC0C130D10509F12097F9F0B6
:101E4000C430D105E0F440C08533910509F45AC08F
:101E5000C997C1F68091CD05837089F0C0EED0E0BE
:101E60000EC0833E910599F170F4803E910501F119
:101E7000823E910539F68091CD0582FD21C0CE01CB
:101E8000DF91CF910895863E910561F1873E9105DE
:101E900071F1843E910509F0B5CF8091CE0581FFA7
:101EA000EECF8091CD05C7EED0E084FD0DC0E7CF29
:101EB0008091CD0580FD12C19091CE0590FFDFCFBE
:101EC000C3EED0E084FFDBCFD0E0C0E0D8CF80917C
:101ED000CD0582FD06C19091CE0590FDBFCF84FF58
:101EE000CECFF2CF8091CD0583FDDDCFC8CF8091DD
:101EF000CD0583FDF9C09091CE0591FFF0CFC4EEE2
:101F0000D0E0BDCF8091CD0585FFB9CFC9E2D0E04B
:101F1000B6CF8091CD0585FFB2CFC5E3D0E0AFCF7E
:101F20008091CD0586FFABCFCAE2D0E0A8CF8091EB
:101F3000CD0586FFA4CFC1E3D0E0A1CFCF3BD10533
:101F400018F6C85AD0E0CC0FDD1FC353DE4F0990FE
:101F5000D881C02DD46493CFC11540E2D40758F482
:101F6000C11581E0D80708F08ACFC03FD10508F439
:101F7000ABCFD06584CFC11590E4D90708F4A4CFC6
:101F8000DF70D06A7CCFC11525E5D20700F5C115F9
:101F900034E5D30708F08AC0C11543E5D40708F03B
:101FA00071C0C11582E5D80708F467C0CE018370FF
:101FB000992721E030E002C0220F331F8A95E2F713
:101FC000C695C69580E2C89FE001112452C0C11594
:101FD00099E5D907A8F4C11528E5D20708F06BC028
:101FE000C11536E5D30708F06FCF8C2F0E94AC0ED9
:101FF000C82FD0E0DC2FCC27CC27DF71D0623FCFB9
:10200000C1154AE5D40708F45BC0CE01905681158E
:10201000904208F059CF8D2F8F710E94AC0E90E046
:10202000982F882788279F719C012C2BE901E6CFE8
:10203000C55AD0E0C653DE4FC881D0E0D0641FCF70
:10204000CE01E4E096958795EA95E1F783702C2F11
:1020500026952695237040E2249F90011124382B69
:102060008C2F8370C1E0D0E002C0CC0FDD1F8A95B9
:10207000E2F7C22BD32BDC6802CFDC2FCC27C16F59
:10208000D06AFDCECE018370992721E030E002C0F6
:10209000220F331F8A95E2F7C695C69590E2C99F35
:1020A000E0011124C22BD32BDA68E9CEDC2FCC2738
:1020B000C46FD06AE4CEDC2FCC27C06FD06ADFCEED
:1020C0008C2F8F700E94AC0E34E0D695C7953A9550
:1020D000E1F7CF709C2FEC01D069D1CEC9E3D0E0FD
:1020E000CECEC2EED0E0CBCEC6EED0E0C8CE809150
:1020F00003048111109203040895809590910204C5
:102100009823909302040895809102049091010411
:10211000892B90910004892B80938803909103046C
:102120009923A1F0892B809388038091140188233F
:1021300041F18091CD0587FF24C08EE1EAE8F3E00C
:1021400090E0815000F591110E947710E091C40554
:10215000F091C5053097E1F080911401882359F082
:102160008091CD0587FF07C0809188038093890304
:1021700086E0809388030280F381E02D88E893E075
:10218000099486E0DBCF21912223D9F29F5FD9CF3A
:1021900008958091FE039091CD03981301C0089596
:1021A0008F5F8770FACF2FE0929F800D1124982FB8
:1021B000977086958695869523E0829FF00111247D
:1021C000E755FC4F50E040E080E0219130E0092EDF
:1021D00002C0369527950A94E2F721703327042E22
:1021E00001C0220F0A94EAF7822B4F5F5F4F433002
:1021F000510559F708952FE0929F800D1124982FD3
:10220000977041E001C0440F9A95EAF7869586954C
:10221000869593E0899FF0011124E755FC4F90E0EB
:1022200080E070E05191DF0111979B01082E02C000
:10223000369527950A94E2F72170219525272423C6
:1022400025272C9301968330910561F7089590E03E
:1022500080E00E94CE0590E080E00E94B8051092D8
:102260000104109200040E94841086E0E3E3F4E08D
:10227000DF011D928A95E9F710922D0410922C042B
:1022800010922E040C94570D80932E060C94271157
:1022900080912E06982F9670963019F488600C94D1
:1022A0004411877FFCCF21E030E001C0220F8A95E6
:1022B000EAF7209580912E0682230C944411909188
:1022C000FF03809589238093FF03282F277091F4C3
:1022D000282F082E000C330B9217130659F09091FB
:1022E000CE0592FD07C08595859585950E94531171
:1022F0001092FF03089521E030E001C0220F8A957B
:10230000EAF780912E06822B0C94441180930404EA
:102310000C942711882321F00E947D100C948410C6
:102320000895882339F090910204982B9093020429
:102330000C9484100895882379F19CEF980F913ABA
:1023400038F4682F88E893E00E9459050C948410B3
:1023500090E2980F983050F4877091E001C0990F87
:102360008A95EAF7892F0E947D10F0CF9BE5980FA0
:10237000933020F490E080E00C94CE0598E5980F1F
:10238000973120F490E080E00C94B805803F20F075
:102390000E947E0D0C94570D0895CF93C82F88236B
:1023A00009F46FC08CEF8C0F813AC0F58091140155
:1023B000882311F18091CD0587FF1EC0EC2FE69593
:1023C000E695E695F0E0E857FC4F828190E04C2FCF
:1023D000477021E030E002C0220F331F4A95E2F738
:1023E00082239323892B91F06C2F88E893E00E943D
:1023F00059050E9484100AC0EAE8F3E080E993E0FE
:102400002191C21789F38E179F07D1F76C2F88E8A7
:1024100093E00E948305CF910C94841080E28C0F8E
:10242000883068F4C77021E030E001C0220FCA95FF
:10243000EAF780910204822B80930204ECCFEBE553
:10244000EC0FE33040F4F0E0E653FE4F808190E083
:10245000CF910C94CE05E8E5EC0FE73150F4F0E0B5
:10246000EE0FFF1FE353FE4F80819181CF910C94BB
:10247000B805C03F30F08C2F0E94390ECF910C94DC
:10248000570DCF9108958093CF057093D105609338
:10249000D0058091F7058430F9F48093E9008FEF3F
:1024A0009091E800815095FD06C095ED9A95F1F761
:1024B00000008111F5CF8091E80085FF0DC050E04C
:1024C00040E063E070E08FEC95E00E94F4038091BF
:1024D000E8008E778093E8000895BC0184E00C94B6
:1024E0004312BC0183E00C9443129C0184E080936E
:1024F000E9009FEF8091E800915085FD06C085EDD1
:102500008A95F1F700009111F5CF8091E80085FFE1
:102510000CC050E040E066E070E0C9010E94F403A6
:102520008091E8008E778093E8000895CF93DF9341
:10253000EC01809114018823B1F18091CD0587FFD2
:1025400032C060E284E08093E9008FEF9091E80070
:10255000815095FD06C095ED9A95F1F70000811127
:10256000F5CF8091E80085FF1BC08091140170E0D9
:1025700050E040E0811104C050E040E068E070E0CD
:10258000CE010E94F4038091E8008E778093E800EA
:1025900080E2FE01A5EDB5E001900D928A95E1F78C
:1025A000DF91CF91089568E081E0CDCF81E0809305
:1025B000E00080E28093D8001092C9008FE19EE491
:1025C0000197F1F700C0000087E090EBDC018093F9
:1025D000390690933A06A0933B06B0933C0688E1F7
:1025E0009CE00FB6F894A895809360000FBE90937E
:1025F0006000FFCF239A35B1377F25B128604FB7F0
:10260000F8948DEB94E0FC015191CF0168E025B97D
:10261000000000C057FF35B9550F000000C000C0D2
:1026200000C035B900C06A9591F7F5E0823C9F077C
:1026300051F74FBF8FE594E00197F1F700C000001C
:1026400008951F93CF93DF93182FD0E0C0E0893314
:1026500011F4C0E5D0E0812F0E94CD11209731F414
:10266000812FDF91CF911F910C949B118FE99FE0F7
:102670000197F1F700C000002197F0CF0F931F934F
:10268000CF93DF93C62FD42F022FFC0182818823A2
:10269000A1F0609331060E944D059093300680931F
:1026A0002F06C77081E001C0880FCA95EAF7DF9155
:1026B000CF911F910F910C94911180913106681365
:1026C00035C080912F06909130060E943205883CDB
:1026D000910560F510E21D0FCD17B9F080E28C0F67
:1026E000883040F4C77081E001C0880FCA95EAF7CE
:1026F0000E948A11183048F481E09D2F977001C024
:10270000880F9A95EAF70E949111802F0E94211359
:10271000183098F4D77081E001C0880FDA95EAF795
:10272000DF91CF911F910F910C948A11C77081E0B6
:1027300001C0880FCA95EAF7F3CFDF91CF911F91BF
:102740000F910895CF93DF93CFE7D2E060E0CE0101
:102750000E9452302196C11584E0D807B9F7DF9165
:10276000CF9108956F927F928F929F92AF92BF9276
:10277000CF92DF92EF92FF920F931F93CF93DF934D
:1027800084E7C82E83E0D82E9BEDE92EF12CE701DB
:10279000C659D10936011BC0F50185909490692D69
:1027A000C8010E945230682DC80101960E94523023
:1027B00082E0A80EB11C0E5F1F4FC017D10761F752
:1027C0008EE1680E711C6E96CE15DF0529F08E0124
:1027D0000E5111095301E0CF7E0186E9E80EF11C8C
:1027E00086E9C80ED11C83E3E81683E0F80679F683
:1027F000DF91CF911F910F91FF90EF90DF90CF90DD
:10280000BF90AF909F908F907F906F900895CF93DF
:10281000C82F6FEF811162E283E290E00E94523094
:102820006FEFC11163E084E290E00E9452306FEFDD
:10283000C11166E085E290E0CF910C94523080E0C7
:102840000E94071460E086E290E00E9452300E94ED
:10285000B2130E94A21381E00C940714CF93C92FE6
:10286000682F84E090E00E9452306C2F82E290E06A
:10287000CF910C9452309091CE0592FB222720F9F3
:10288000281769F080FB92F99093CE058091CD05D1
:102890009091CE050E942E1482E00C945F11089551
:1028A0000F931F93CF93DF93C42FD0E0CC0FDD1F86
:1028B0002EE1629FC00DD11D112436E9839FC00D0A
:1028C000D11D1124CE0187960E942E30082F10E0D2
:1028D000102F0027CE0188960E942E309801282BB9
:1028E000C901DF91CF911F910F910895462F843038
:1028F00038F4753028F46F3018F4672F0C945014A6
:1029000090E080E00895CF92DF92FF920F931F93A3
:10291000CF93DF936C0100912E0680910404082B65
:10292000C7E0D0E010E0FC2EC8010C2E02C0959547
:1029300087950A94E2F780FD0CC02197A0F7F12C4F
:102940008F2DDF91CF911F910F91FF90DF90CF904E
:102950000895B6018C2F0E9476140E94EF0E019705
:1029600061F3EECFCF93DF93EC010E948314BE019D
:102970000E947614DF91CF910C94EF0EFC018081C0
:1029800091810E94B214292F2F7092959F709250BE
:102990009E3078F4E92FF0E0E552FF4C0C949F2F25
:1029A000803F19F020F4883E20F481E00895843FB0
:1029B000E1F380E00895883EC0F3813FD1F7F5CF81
:1029C000822F869586958695089583E290E00E94F1
:1029D0002E30823289F484E290E00E942E308330DF
:1029E00059F485E290E00E942E3091E0863009F0A3
:1029F00090E0892F8170089580E0FCCFCF9384E030
:102A000090E00E942E30C82F82E290E00E942E308B
:102A1000982F8C2FCF9108951F93CF93DF93EC01C4
:102A2000FC01E15DFC4F80816823C9F00E94F82F12
:102A3000182F0E94F82F8F77782F20E8720F08F454
:102A40007FEF612F809136060E94F709462F282FCD
:102A5000672FCE01DF91CF911F910C947008DF9109
:102A6000CF911F910895DF92EF92FF920F931F93E2
:102A7000CF93DF938C01FC01E15DFC4F80816823E3
:102A800081F1D0903506D0913606C0913406EC2EF7
:102A9000F12C0E94F82F282FC7018C549F4F68E615
:102AA00071E00E948B2F8E199F0997FD03969595D3
:102AB00087959595879523706C2F289F600D11241D
:102AC0007D2D8D2F0E94F709462F282F672FC801D3
:102AD000DF91CF911F910F91FF90EF90DF900C94B9
:102AE0007008DF91CF911F910F91FF90EF90DF90D1
:102AF00008953F924F925F926F927F928F929F9232
:102B0000AF92BF92CF92DF92EF92FF920F931F93FB
:102B1000CF93DF93CDB7DEB7C658D1090FB6F8947F
:102B2000DEBF0FBECDBFC0906204D0906304E090C2
:102B30006404F09065048FB7F8944090C9055090F4
:102B4000CA056090CB057090CC058FBF5301420140
:102B50008C189D08AE08BF080E944105609362046E
:102B60007093630480936404909365042091390406
:102B7000E9E3F4E0322FA0E04FEFC40ED41EE11CD5
:102B8000F11CC418D508E608F7082A1330C03093A2
:102B9000390430913306132F137019F0132F169543
:102BA000169520911801213009F44BC0222391F190
:102BB000223009F407C5233009F40EC5CA57DF4F88
:102BC0000FB6F894DEBF0FBECDBFDF91CF911F913E
:102BD0000F91FF90EF90DF90CF90BF90AF909F90BC
:102BE0008F907F906F905F904F903F900895418DB0
:102BF000528D2A01712C612CC414D504E604F7040B
:102C000020F43150AF5F3296C0CF480D591D528F1E
:102C1000418FF8CF10921501609301067093020660
:102C2000809303069093040689E2E9E3F4E0A5E0CB
:102C3000B6E001900D928A95E1F781E0809318014A
:102C4000BDCF9091130181E019130BC0832F8370C6
:102C50002091120130E091E08217130609F490E010
:102C6000892F817080931701809138069091160109
:102C7000981739F08093160140E060E080E00E94F0
:102C80006E081A3250F4E12FF0E0E751FF4C0C943B
:102C90009F2F80911701811102C000E029C040E000
:102CA00060E080E00E946E08F8CFE090150102E13C
:102CB000E09E002D1124A2E1DA2ED00ECD2C87E566
:102CC0008D1510F4F7E5CF2E60913406709135061E
:102CD000809136060E94F709B62EA72E982EE02E78
:102CE000F12CEC1408F45CC001E0E6E5ED15A8F267
:102CF000809115018F5F80931501011138C492E016
:102D00009093180190911701911131C4112309F486
:102D100061C412E1819F102D11248EEEE82EE10E88
:102D2000012F183508F007E58091B90480FD23C410
:102D30000E94E40581FF0AC01E52133138F42FEFC0
:102D40004FEF60E08EE290E00E9470088091B9043D
:102D500081FF34CF88E2E9E1F1E0DE0111960190D4
:102D60000D928A95E1F79E012F5F3F4F69015E0149
:102D700039E2A30EB11CF12C10E0F6018191919182
:102D80006F018E159F0544F0081719072CF020E0FD
:102D900040E060E00E947008AC14BD0471F70ECFF3
:102DA000F701E15DFC4F808190911601892331F09C
:102DB000292D4B2D6A2DC7010E9470089FEFE91A3B
:102DC000F90A8FCFE090150102E1E09E002D112459
:102DD000E2E1DE2ED00ECD2CF7E5FD1510F477E5FF
:102DE000C72EB0903506E0903606F09034066F2D71
:102DF0007B2D8E2D0E94F709A62E972E882E60918E
:102E000037066F0D7B2D8E2D0E94F709B62E772E7B
:102E1000682EE02EF12CEC1430F001E036E53D1583
:102E200008F066CF3ACFF701E15DFC4F90818091C9
:102E30001601892359F0262D4B2D672D90FD03C0D7
:102E4000282D4A2D692DC7010E9470082FEFE21A24
:102E5000F20AE1CFE090150182E1E89E802D112475
:102E600062E1D62ED80ECD2C47E54D1510F457E56E
:102E7000C52EB0903506A09036062091370600E4A6
:102E8000029F012D1124E82EF12CEC1430F001E00A
:102E900096E59D1508F02CCF00CFF701E15DFC4FC2
:102EA0008081909116018923B9F0F701EE0FFF1F81
:102EB000EE57FD4F808182958F7060913406809F20
:102EC000600D11247B2D8A2D0E94F709462F282F93
:102ED000672FC7010E9470088FEFE81AF80AD5CF54
:102EE000E090150182E1E89E802D112432E1D32E7D
:102EF000D80ECD2CE7E5ED1510F427E5C22EB090E5
:102F00003506A09036062091370600E4029F012D79
:102F10001124E82EF12CEC1430F001E026E52D15FB
:102F200008F0E6CEBACEF701E15DFC4F80819091CA
:102F300016018923D9F0F701EE0FFF1FEF57FD4F60
:102F40006081069FB001112495E0759567959A956B
:102F5000E1F780913406680F7B2D8A2D0E94F709D6
:102F6000462F282F672FC7010E947008FFEFEF1A26
:102F7000FF0AD1CF0091150182E1089F002D112495
:102F8000B2E1DB2ED00ECD2C37E53D1510F4A7E5D0
:102F9000CA2EE0903406F0903506B0903606609167
:102FA00037066695669566958091010690910206B2
:102FB0000E94ED090E943E09805887FD8195880F87
:102FC000482F2B2D429F412D1124842FB7010E94A1
:102FD000F709B62EA72E982EE02EF12CEC1430F027
:102FE00001E046E54D1508F083CE57CEF701E15DCF
:102FF000FC4F808190911601892331F0292D4B2DB2
:103000006A2DC7010E9470083FEFE31AF30AE6CF6A
:1030100085E498E00E94CE0B082F6ACE8BE198E001
:10302000F9CF80E299E00E94FB0CF6CF81E099E0B5
:10303000FACF86EE98E00E947E0CEECF8AEC98E004
:10304000FACF89E198E0E6CF80E198E0E3CF87E02E
:1030500098E0E0CF8EEE97E0DDCF80EE97E0EBCF0B
:1030600085EC99E0E0CF89EB98E0DDCF85EA98E048
:10307000E2CF83EB97E00E941C0CCECF85E897E06F
:10308000FACF8EE497E0F7CF0091170101111EC02F
:103090006091370620E1620F08F46FEF809101061E
:1030A000909102060E94ED096AE070E00E94772F7D
:1030B000892B09F0F2CD0E94F82F67E570E00E949D
:1030C0008B2F609116010E94331512CEE0901501EE
:1030D00082E1E89E802D1124F2E1BF2EB80E9B2DD7
:1030E000E7E5EB1508F497E5E82EF12CC92ED12C75
:1030F000EC14FD0434F001E026E52B1508F0F8CDC2
:10310000CCCD60911601C7010E943315FFEFEF1A75
:10311000FF0AEECF0091170101111EC06091370622
:1031200020E1620F08F46FEF809101069091020692
:103130000E94ED0965E070E00E94772F892B09F06D
:10314000ACCD0E94F82F67E570E00E948B2F609154
:1031500016010E940C15CCCDE090150182E1E89E8D
:10316000802D1124E2E1BE2EB80E9B2D37E53B15D4
:1031700008F497E5E82EF12CC92ED12CEC14FD04AF
:1031800034F001E086E58B1508F0B2CD86CD609174
:103190001601C7010E940C154FEFE41AF40AEECF96
:1031A000E090150102E1E09E002D112472E1D72E7E
:1031B000D00ECD2C97E59D1510F467E5C62EB09086
:1031C0003506E0903606F090340660913706669535
:1031D0006695669580910106909102060E94ED0920
:1031E0000E943E09805887FD8195880F682F2CE04A
:1031F000629F612D11246F0D7B2D8E2D0E94F7098A
:10320000B62EA72E982EE02EF12CEC1430F001E013
:10321000F6E5FD1508F06CCD40CDF701E15DFC4F02
:10322000808190911601892331F0292D4B2D6A2D33
:10323000C7010E947008EFEFEE1AFE0AE6CF8DE597
:1032400099E0E8CE8DE397E0E5CE40916604509199
:1032500067046091680470916904809101069091FF
:103260000206A0910306B091040684179507A607ED
:10327000B70708F412CD0E948009082F0E94800928
:1032800097E5891BF0F7890FE82EF12CF701E15D36
:10329000FC4F809116019081892309F466C120E0DA
:1032A00040E060E001FD13C00E948009082F0E94E9
:1032B0008009782F76952FE7720F08F47FEF602F43
:1032C000809136060E94F709462F282F672FC701E5
:1032D0000E9470082091370630E1230F08F42FEF89
:1032E00060E1822F90E00E94ED09BC0184EF91E043
:1032F0000E94772F8091010690910206A09103060B
:10330000B0910406860F971FA11DB11D809366041E
:1033100090936704A0936804B0936904BECC409175
:10332000B5045091B6046091B7047091B8048091CF
:10333000010690910206A0910306B091040684173D
:103340009507A607B70708F4A8CC609134067091DA
:103350003506809136060E94F709062F472E582E13
:103360003AE6E32E34E0F32E46E3842E42E0942E38
:103370005EE0C52ED12C56018EE0A81AB10896E069
:10338000392E950126593B4F3901F501EA5CFD4F75
:10339000808190E0F9012081222309F485C0252D48
:1033A000402F642D0E947008F301818180833A943C
:1033B000FFEFAF1ABF0A3110E4CF560127E0322EDB
:1033C000950126593B4F3901F501EA5CFD4F80819B
:1033D00090E0F9012081222309F46AC0252D402FB5
:1033E000642D0E947008F30131978081F30180837E
:1033F0003A94F1E0AF1AB1083110E2CFF4018781BD
:1034000090E0F7012781222309F456C0252D402F93
:10341000642D0E947008F401868190E0F7012681F6
:10342000222309F44DC0252D402F642D0E947008E1
:103430000E948009837091E009F090E0F701968383
:103440009783FFE0EF0EF11C2FE0820E911C3FE00E
:10345000C30ED11C49E5C416D10409F08CCF2091CC
:10346000370630E1230F08F42FEF60E1822F90E060
:103470000E94ED09BC0188EB9BE00E94772F8091B0
:10348000010690910206A0910306B0910406860FF2
:10349000971FA11DB11D8093B5049093B604A0930E
:1034A000B704B093B804F9CB20E040E060E07ACFF5
:1034B00020E040E060E095CF20E040E060E0A9CF70
:1034C00020E040E060E0B2CF86E397E00E94550B39
:1034D000A3CD80E397E0FACF8091050621E0382F55
:1034E000321B08F430E0832F67E177E00E948B0AFB
:1034F00093CD67E177E080E0F9CF8091050621E088
:10350000482F421B08F440E0842F6CED76E0EECFAC
:103510006CED76E0F0CF8091050621E0382F321B6C
:1035200008F430E0832F6AEA76E0E0CF6AEA76E0DA
:10353000E2CF8091050621E0482F421B08F440E0CD
:10354000842F62E976E0D2CF62E976E0D4CF809131
:10355000050621E0382F321B08F430E0832F6CE79A
:1035600076E0C4CF6CE776E0C6CF01E0C1CB112393
:1035700009F424CBCECB86E8E1E4F1E0DE0111963C
:1035800001900D928A95E1F7CE0101966C015E01E2
:1035900097E8A90EB11C8E2C912C602E712CF6018F
:1035A000819191916F018815990544F0681679060B
:1035B0002CF020E040E060E00E947008AC14BD04F4
:1035C00071F7B6CB10931301832F83708093120190
:1035D0000E94FA1283E032CB80913206882351F0A8
:1035E00046E050E06CE170E083E396E00E944230F8
:1035F0001092320640910106509102066091030636
:10360000709104062FB7F8948091C9059091CA056E
:10361000A091CB05B091CC052FBF841B950BA60BB9
:10362000B70B4097A105B10508F4C8CA109218015C
:10363000C5CAE3E3F6E085E380838091C7019091FA
:10364000C801A091C90181839283A3838FE78483FA
:103650008FEF858346E050E06CE170E0CF010E947F
:1036600042301092320608951092020480911401A3
:10367000EAE8F3E0882359F08091CD0587FF07C081
:103680008EE1DF011D928A95E9F70C94271186E0FF
:10369000F8CF1F93CF93DF93CDB7DEB7AA970FB6BE
:1036A000F894DEBF0FBECDBF89EF95E02091F10009
:1036B000DC012D93CD01B6E081309B07B9F78091F5
:1036C000FA05833009F472C0B8F4813009F449C0B6
:1036D000823009F4B3C08091E80083FF8BC28091EF
:1036E000F9059091FA059A3008F084C2E92FF0E0CC
:1036F000ED5EFE4C0C949F2F8A3009F48EC08B3007
:1037000009F471C0893039F78091F905813219F7D0
:103710008091FD059091FE05009711F00297D9F672
:103720008091E800877F8093E8008091E80082FF25
:1037300038C09091F3008091F200029731F48091AB
:10374000F100813011F0863021F48091F1008093F6
:10375000D4058091E8008B778093E8000E941E04D6
:10376000BACF8091F905813A09F0B5CF8091E80090
:10377000877F8093E8008091FD059091FE05892B5D
:1037800061F460E285ED95E070E00E94D0048091E4
:10379000E8008B778093E8009ECF60E090E080E0C7
:1037A000F3CF8091F7058111C0CF95CF8091F905B6
:1037B000813A09F090CF8091FD059091FE05892B0B
:1037C00009F089CF8091E800877F8093E80080919D
:1037D000E80080FFFCCF809114018093F10080917C
:1037E000E8008E77B9CF8091F905813209F073CF67
:1037F0008091FD059091FE05892B09F06CCF809199
:10380000E800877F8093E8000E941E048091FB05FA
:10381000809314010E94341B5ECF8091F9058132A0
:1038200009F059CF8091E800877F8093E8000E94DB
:103830001E048091FC058093D3054DCF8091F9053E
:10384000813A09F048CF8091E800877F8093E800B3
:103850008091E80080FFFCCF8091D305BECF8038F7
:1038600099F0823809F0C6C18091FD058F708730CC
:1038700008F0C0C18093E9008091EB0085FB8827A8
:1038800080F91092E90006C08091F5059091F60547
:10389000911182609091E800977F9093E800809367
:1038A000F1001092F1008091E8008E779FC188238B
:1038B00009F48DC1823009F09DC18091FB05811111
:1038C00090C18091FD058F702FEF280F263008F0F2
:1038D00091C18093E9002091EB0020FF82C19330D9
:1038E00031F48091EB0080628093EB007AC190917B
:1038F000EB0090619093EB0021E030E001C0220FDB
:103900008A95EAF72093EA001092EA008091EB0092
:103910008860EACF81116EC11091FB051F778091FD
:10392000E3008078812B8093E3008091E800877F1B
:103930008093E8000E941E048091E80080FFFCCF85
:103940008091E30080688093E30082E0111183E0BE
:103950008093F7054FC18058823008F04BC1209109
:10396000FB053091FC052C3DE3E03E07A1F583E02B
:103970008A838AE289834FB7F894DE01139620E0A8
:103980003EE051E2E32FF0E050935700E49120FF36
:1039900003C0E295EF703F5FEF708E2F90E0EA304A
:1039A000C0F0C7968D939D932F5F243159F74FBF79
:1039B0008091E800877F8093E8006AE270E0CE01A2
:1039C00001960E94D0048091E8008B778093E800F4
:1039D00011C1C096E7CF8091FD059091FE05432F60
:1039E00055274330510509F44AC078F54130510557
:1039F00009F47AC08BE590E0ECECF5E0423051053B
:103A000009F0F8C02091E800277F2093E80020917A
:103A1000FF05309100068217930708F49C0140E0EF
:103A20002115310509F065C0411163C08091E8009E
:103A300082FDC9CF8091F705882329F2853019F2DC
:103A40008091E80083FFF2CFBECF4132510509F4E7
:103A50003CC04232510509F0CDC08330910508F0D9
:103A6000C9C0FC01EE0FFF1FE65DFD4F0190F08124
:103A7000E02D895D9D4FDC018C9190E01AC03327C9
:103A800021303105D1F02115310561F022303105A9
:103A900009F0B0C0E9E3F6E0E4918E2F90E0E9E3AD
:103AA000F6E007C0E9E5F6E0E4918E2F90E0E9E565
:103AB000F6E0009709F49EC0A5CFE5E4F6E0E491B6
:103AC0008E2F90E0E5E4F6E0F4CF8330910508F026
:103AD00091C0880F991FFC01E05DFD4F0190F081BE
:103AE000E02D89E090E08ECF82E190E0E7E2F6E021
:103AF00089CF8091F705882309F465CF853009F4D3
:103B000062CF8091E80083FD5ECF8091E80082FD66
:103B10008DCF8091E80080FF83CF9091F30080915A
:103B2000F2002115310519F08830910550F041E07F
:103B3000089709F040E08091E8008E778093E800D4
:103B40006FCF44914093F100319621503109019695
:103B5000E8CF803809F04EC08091E800877F8093DD
:103B6000E8008091F8058093F1009DCE811142C05C
:103B70001091FB051230F0F58091E800877F80936B
:103B8000E8001093F8050E941E04112311F084E050
:103B900005C08091E30087FDFACF81E08093F705AF
:103BA00042E061EC81E00E943D0442E261EC84E08D
:103BB0000E943D0442E261EC82E00E943D0442E248
:103BC00060EC83E00E943D048091F70513C0809172
:103BD000FB05813079F481E0933009F080E0809337
:103BE000F6051092E9008091E800877F8093E80055
:103BF0000E941E048091E80083FF0AC08091E800C3
:103C0000877F8093E8008091EB0080628093EB00D7
:103C1000AA960FB6F894DEBF0FBECDBFDF91CF914D
:103C20001F91089590E080E00E943C30893E9E4FB5
:103C300011F40C94E51480E0089569EE7EEF90E0B5
:103C400080E00E94703060E082E090E00E9452309C
:103C500060E083E090E00E9452301092040460E043
:103C600084E090E00E94523060E082E290E00E94A6
:103C7000523060E085E090E00E94523060E086E0E3
:103C800090E00E9452306FEF87E090E00E94523047
:103C900040E050E0BA0188E090E00E94643060E0CB
:103CA0008DE090E00E94523040E050E0BA0188E19F
:103CB00090E00E94643060E087E190E00E94523022
:103CC00040E050E0BA018CE190E00E94643070E086
:103CD00060E080E290E00E94703040E050E0BA0185
:103CE00088E190E00E94643080E00E9407140E9406
:103CF0001F1440E050E0BA018FE090E00E94643071
:103D000040E050E0BA0183E190E00C9464303F92CF
:103D10004F925F926F927F928F929F92AF92BF92DB
:103D2000CF92DF92EF92FF920F931F93CF93DF9387
:103D300000D000D00F92CDB7DEB78C01FC0183819B
:103D40009481892B31F08081918189238F3F09F003
:103D5000A3C50F900F900F900F900F90DF91CF9110
:103D60001F910F91FF90EF90DF90CF90BF90AF9099
:103D70009F908F907F906F905F904F903F900895AD
:103D80000E948314F82E682F89819A810E94FB106B
:103D900069817A818F2D0E9476147C01F8018281DD
:103DA000882309F46CC5970122513F452031310524
:103DB00008F02EC58FEF93E00E942E30FEEEEF0E3E
:103DC0005FE7852E52E0952E8823A1F18091FF03B5
:103DD000877009F4BECFF8018281882309F4B9CF36
:103DE0008091CE0582FDB5CF82E00F900F900F90AD
:103DF0000F900F90DF91CF911F910F91FF90EF9057
:103E0000DF90CF90BF90AF909F908F907F906F90FA
:103E10005F904F903F900C945F11811424E09206C4
:103E2000A9F2C4010E942E30811101C0EA943FEF33
:103E3000831A930AE110F1CF1C821B82442443941D
:103E40004AE0342E74018FEFE81AF80AC4010E9488
:103E50002E3089831A82882309F4B8CF9FEF980FF8
:103E6000933000F58A83498292E0890E911CC70144
:103E70000E942E308B83882309F4A8CFFE0131964F
:103E80007F01F70120812223E9F2213009F049C0A6
:103E900091818281913041F4F2E0EF0EF11C0E9499
:103EA000211309C04701EACF923049F422E0E20E23
:103EB000F11C0E94CD113FEFE31AF30AE2CF9330D9
:103EC00031F432E0E30EF11C0E949B11F4CF9430E8
:103ED00021F08FEFE81AF80AEECF92E0E90EF11C1C
:103EE00030E020E0B7016F5F7F4FF70141818053E1
:103EF000990B8A30910550F021503109E0F28FE999
:103F00009FE00197F1F700C00000F6CF329EF0016C
:103F1000339EF00D11249C012E0F3F1F842F7B0137
:103F2000E1CFE22FF0E0EC50FE4F5490822F8695C7
:103F30008695869590E0FC01EC51FE4F64902770C9
:103F4000712C022E02C0759467940A94E2F7E1E0A6
:103F50006E227724FC01EC52FE4FA490B12C022E6D
:103F600002C0B594A7940A94E2F7F1E0AF22BB2413
:103F7000FC01EC53FE4FC490D12C02C0D594C794E1
:103F80002A95E2F721E0C222DD246114710419F0C0
:103F900081EE0E94CD11A114B10419F086EE0E94A9
:103FA000CD11852D0E942113AB2819F086EE0E94B9
:103FB0009B11672819F081EE0E949B11CD2809F40E
:103FC0007ACF8CE26CCF81E00E947B110E94481175
:103FD000FDCE81E00E945311F9CF82E0F5CF882316
:103FE00009F4F4CE9091B904892F8E7F90FF8160FF
:103FF0008093B9044091B9045091BA046091BB0414
:104000007091BC0483E190E00E946430DFCE88238D
:1040100009F4DCCE9091B904892F8D7F91FF8260E5
:10402000E7CFF5EFEF16FCE5FF0609F463C008F4EF
:104030005DC027E245EE66EE36EFE3163CE5F3069B
:1040400009F419C4882309F438C41092310683E0B6
:10405000E8168DE5F80608F054C09AEFE9169CE5DD
:10406000F90630F4C70182509C45449708F04FC0D0
:104070000E94FE149093CE058093CD05F0E1EF16DB
:10408000FCE5FF0609F421C108F090C038E0E31612
:104090003CE5F30609F403C108F060C094E0E916BA
:1040A0009CE5F90609F4E9C008F049C0F2E0EF1612
:1040B000FCE5FF0609F4DBC08091CD05826023E0BA
:1040C000E2162CE5F20609F4D5C08091CD05909159
:1040D000CE050E942E140E94341B78CE27E245EEB6
:1040E00065EEC9C326E241EE60EEC5C327E245EEA8
:1040F00064EEC1C326E241EE62EEBDC328E241E0B8
:10410000EFCFE1E6EE16EDE5FE0609F4B1CF8091C2
:10411000020436E1E3163CE5F30609F0DDC38A7AD2
:1041200091E009F490E09093A80369E2811165E3BE
:1041300088E893E00E9483050E94841047CE809116
:10414000CD05806136E0E3163CE5F30609F492C044
:1041500008F497C08091CD0580628CC08091CD0518
:104160008D7F9CE0E9169CE5F90609F483C078F49C
:104170008091CD058C60FAE0EF16FCE5FF0609F4AE
:1041800079C008F490C08091CD058E7F73C0809176
:10419000CD05877F3EE0E3163CE5F30609F46AC0EF
:1041A00008F48BC08091CD058F7E64C09CEFE9162A
:1041B0009CE5F90609F485C068F5F4E1EF16FCE525
:1041C000FF0609F49AC060F432E1E3163CE5F30619
:1041D00009F483C008F47DC08091CD05837F4AC077
:1041E0009AEFE9169CE5F90609F44FC008F053C0B0
:1041F000F5E1EF16FCE5FF0609F067CF8091CD05EC
:1042000082FB992790F921E0922790FB82F990FB9D
:1042100083F930C0E1142DE5F20609F464C090F48E
:104220008EEFE8168CE5F80609F443C08091CE05C0
:104230008D7F9FEFE9169CE5F90650F18091CE0540
:104240008C7F26C0E2E0EE16EDE5FE0609F464C0C0
:1042500008F45CC021E6E2162DE5F20609F035CF40
:104260009091CD05892F8F7E94FF806103C080914E
:10427000CD0581608093CD0528CF8091CD058460E8
:10428000F9CF8091CD058860F5CF8091CE05816012
:104290008093CE051ACF8091CE058260F9CF8091B0
:1042A000CD058064E7CF0E94341B8091CD058068E6
:1042B000E1CF8091CE058360EBCF8091CD058B7FE0
:1042C000D9CF8091CE058E7FE3CF8091CD058F7DB4
:1042D000D1CF8091CD058F7BCDCF0E94341B8091B3
:1042E000CD058F77C7CF8091CE05982F909591708F
:1042F0008E7F892B90FB81F9CBCF0E94341B90914C
:10430000CD05892F97FB87F98058B4CF61E08EE007
:1043100090E00E945230D9CE60E0F9CF8091330610
:1043200091E089278093330610921801809132061C
:104330008160809332064ACD49E656E062E776E036
:104340000E94F00543CD42E756E069E676E0F8CFFB
:1043500047E556E060E676E0F3CF40E656E067E5F5
:1043600076E0EECF4FE356E06BE476E0E9CF4BE446
:1043700056E06FE376E0E4CF43E356E067E276E0B1
:10438000DFCF4BE056E069E176E0DACF49E156E075
:104390006BE076E0D5CF81E00E94780317CD8DE009
:1043A000FBCF2BE5E2162DE5F20611F13CE5E31615
:1043B0003DE5F30609F0C2C28091CE0582FB882755
:1043C00080F991E089270E943B14B8C20E94341BF7
:1043D0008FEF94E3ECE081509040E040E1F700C0C3
:1043E00000000E94D6120E941D1EF0CC81E0EBCF8F
:1043F00080E0E9CFC7010E94D310D82EAEC22F2D86
:104400002F70C22E8F2D807F19F0C29490EFC92299
:10441000DD20B9F0CC2069F080E28E0D883010F0FC
:10442000811009C080910204C82AC09202040E942F
:1044300084108E2D4DC080910104C82AC0920104C1
:10444000F6CF8E2D0E949B11CC2009F443C080E250
:104450008E0D883010F0811004C08C2D0E947D10CC
:1044600006C0C09480910104C822C09201040E9439
:10447000841030C03F2D3F70C32E8F2D807F80323F
:1044800019F0C29480EFC822882089F081E0881654
:1044900009F47FC0DD2009F489C0BB2009F47FC086
:1044A000F801858180FFC5CF8F70858378C020910A
:1044B000CE0522FF4BC0DD2009F442C0CC2039F0EC
:1044C00080910204C82AC09202040E94841080E0F5
:1044D0000E94CD11292D2850330B2430310510F4C2
:1044E0000E94E405AA2009F434CC8091FF0380FDEA
:1044F00030CCF80112828595859585950E947B11B7
:10450000C8010E94871E8091FF038595859585953A
:104510000F900F900F900F900F90DF91CF911F9100
:104520000F91FF90EF90DF90CF90BF90AF909F9052
:104530008F907F906F905F904F903F900C945311AD
:1045400080E00E949B11CC2029F287CFDD20A1F0D2
:10455000909103048C2D892BB11003C00E949111FE
:10456000B9CFE1E0BE12FACF22FDB4CF891709F42A
:10457000B1CF80930304AECFB11006C00E94771074
:104580008C2D0E948A11A6CFF1E0BF1609F4A2CFAC
:10459000F5CFDD2031F025E02B1508F49BCF8C2DD5
:1045A000DDCF34E03B1508F495CFEACFBB2041F3D3
:1045B000F9E38F1209C02FEF37EE83E0215030402E
:1045C0008040E1F700C000008E2D0E949B1182CF39
:1045D0008F2D86958695837061F0813009F07ACFB2
:1045E000C7019370D11002C090E080E00E94B8052E
:1045F00071CFC7019370D11002C090E080E00E949B
:10460000CE0568CF8E2DDD2029F00E94390E0E9444
:10461000570D60CF0E947E0DFACF8F2D837091F5DC
:10462000D11058CF4E2D429546954770440F440FF8
:104630008E2D8F70042E01C0880F0A94EAF72E2D5C
:104640002071E4FE07C02FE030E001C0220F4A9540
:10465000EAF720953F2D369536953370323069F064
:1046600050F440910404313029F0822B84230E94BD
:10467000861130CF842B822BFACF282B8091040413
:104680008227F5CF8695DD2011F08F2D817088234C
:1046900009F420CF4E2D429546954770440F440FA4
:1046A0008E2D8F70042E01C0880F0A94EAF72E2DEC
:1046B0002071E4FE07C02FE030E001C0220F4A95D0
:1046C000EAF720953F2D369536953370323069F0F4
:1046D00050F440912E06313029F0822B84230E9421
:1046E0004411F8CE842B822BFACF282B80912E06F2
:1046F0008227F5CF9F2D9F70F92EDD2029F0892F7D
:104700000E947B118E2D2ACF8E2D0E948A118F2D13
:104710000E945311DFCE8E2DE2EF8E16B1F1E81517
:1047200070F0F0EF8F16D1F021EF821691F0DD20BE
:1047300009F45EC0B1107DCE8F2D8F712AC033EF8A
:10474000831651F194EF8912F2CF8091CE0582FF4A
:104750002FC08F2D8F71DD20D9F21BC0DD2081F09D
:10476000E4E0EB1508F4B6CE2F2D2F7181E090E038
:1047700001C0880F2A95EAF790912E068927AFCFBE
:10478000F5E0FB1508F4A6CEEFCF8F2D8F71D11079
:10479000BFCF0E947B119ECE80E0DD2009F49FCF29
:1047A0009F2D9F7181E001C0880F9A95EAF797CFFE
:1047B000DD2099F02F2D2F71F22E822F0E947B1178
:1047C0008091CE0582FD07C038E0F39EC001112420
:1047D00083608093FF038F2DDCCF81E00E945F1107
:1047E00081E08B1508F076CE82E00E945F1172CED8
:1047F000BB2059F0893309F0E7CE9FEFE7EEF3E0F5
:104800009150E040F040E1F7DDCE8F2D8F7180CFE9
:10481000F0E1EF16FFE5FF0609F4D5CB21E1E21642
:104820002FE5F20609F4D9CB92E7E916F10409F471
:10483000D6CBE3E7EE16F10409F4E9CBF3EFEF167C
:10484000FCE5FF0609F44ECC08F0EBCB38EDE3169F
:104850003CE5F30609F442CC99EDE9169CE5F9062E
:1048600009F44CCCE7EDEE16ECE5FE0609F0EACBD8
:1048700026E241EE61EEC8010E943E13A7CA30E174
:10488000E3163FE5F30609F4A4CB91E1E9169FE5B1
:10489000F90651F682E09ECB85E0DE01119601908B
:1048A0000D928A95E1F7F801228189819A8121117F
:1048B00067CA0E94D310F82E6BCAF6E1EF16FCE52A
:1048C000FF06E1F58091A80369E2811165E388E8BC
:1048D00093E00E94590530CC82722AECE2162CE556
:1048E000F20609F449CD08F08AC095ECE9169CE57A
:1048F000F90609F42DCD08F069C0F3ECEF16FCE5DC
:10490000FF0609F419CD08F01ECD32ECE3163CE5A4
:10491000F30609F403CD8AE5E8168DE5F80609F4F7
:1049200065CD08F03ECDE114ECE5FE0609F44ECD70
:10493000FEEDEF16FCE5FF0609F455CDF801828186
:10494000E080F180882309F455CDC7010E948314CB
:10495000D82E682FC7010E94FB10B7018D2D0E9431
:1049600076140E94EF0E7C01882EF801D280B5806B
:10497000B2943FE0B3228091FF038770C1F0AD2C69
:10498000DD20B1F08F2D807F803421F080E28E0D0C
:10499000883068F08091CE0582FD09C082E00E94D7
:1049A0005F118091FF038770AA24A3948111A12C29
:1049B0009F2C92942FE09222FBE0F91508F48ACD07
:1049C000E92DF0E0E35EFE4C0C949F2F97ECE91686
:1049D0009CE5F90609F4C6CC08F4BFCCF8ECEF1658
:1049E000FCE5FF0609F4C3CC47E256E063E376E05A
:1049F00029ECE2162CE5F20609F4A2CC8CCF3FECB0
:104A0000E3163CE5F30609F4CACCB0F4ECECEE1680
:104A1000ECE5FE0609F4BACC08F4B3CC2DECE216B2
:104A20002CE5F20609F4B7CC85E03EECE3163CE554
:104A3000F30609F4B1CC6FCF86EDE8168CE5F806E5
:104A400040F482E191EDE9169CE5F90608F4A4CC66
:104A5000BDC9EDE5EE16FE0609F4B8C95CCF1F939B
:104A6000CF93DF938091CC03807FA9F48091C90319
:104A7000882389F08091FE03D091CD036091C70314
:104A80007091C803A091CA03B091CB03C62FC7236E
:104A900016E0D81304C0DF91CF911F91089590E0E4
:104AA000109711F0CF3F19F401968770F2CF189F3D
:104AB0009001199F300D1124F901E253FC4F4181FF
:104AC0004713F2CF40814613EFCF42814111ECCF23
:104AD000438154814A1B5B0B483C510528F7809168
:104AE000CC038F7080618093CC03F901ED52FC4FB1
:104AF00080818F708061808387EC93E00E94871EA5
:104B0000DF91CF911F910C94C910AF92BF92CF92B9
:104B1000DF92EF92FF920F931F93CF93DF93CDB766
:104B2000DEB761970FB6F894DEBF0FBECDBF8C0124
:104B300085E0F801DE011D9601900D928A95E1F75E
:104B4000F801E28087ECA82E83E0B82E6091CA03BA
:104B50007091CB036115710509F432C19091C703BF
:104B60004091C803892F84238F3F09F429C12081F4
:104B70003181C380D480F090C903F601E61BF70BA6
:104B8000FF2009F4E8C08091CC03582F507FE83C07
:104B9000F10508F0ABC0511177C0FE2C431321C0C2
:104BA00092131FC0E1101DC08F7080618093CC03F1
:104BB000C5010E94871E8091CC03F80185838F2D4B
:104BC00061960FB6F894DEBF0FBECDBFDF91CF91D7
:104BD0001F910F91FF90EF90DF90CF90BF90AF901B
:104BE0000895CD2829F0822F83238F3F09F003C138
:104BF00080E0F82FF170DF2E80FF3CC08091FE0333
:104C00004091CD0356E0841315C02D873E878D85D6
:104C10009E850E94B214292F22952F702230F0F029
:104C2000243018F59F70F1F0F8019581907FD1F450
:104C3000D12C1EC090E0589FF001599FF00D112417
:104C4000E253FC4F6181361306C06081261303C016
:104C50006281E6120FC001968770D5CF9F7011F068
:104C6000882331F3805E883018F3C8010E94871EC4
:104C7000FD2CA5CFEE2009F4A2CF8091CC0381605A
:104C80008093CC03F12C9BCF431306C0921304C036
:104C9000F801EE2009F479C0C8010E94BE148823EF
:104CA00009F1EE20F9F08091CC03803270F0209170
:104CB000C7033091C80338872F831986DB86CA86DD
:104CC0008C87CE0107960E94871E86E0F801A7EC2C
:104CD000B3E001900D928A95E1F70E942F25FF2401
:104CE000F3946DCFC8010E94871EF9CF51110AC0FD
:104CF00087EC93E00E94871E86E0F50111928A9569
:104D0000E9F7C0CF43130FC092130DC0E1100BC0E1
:104D1000F8018583C8010E94871E86E0F501119283
:104D20008A95E9F74CCFC8010E94BE148823D1F2BE
:104D3000EE20C1F28091CC03803238F22091C7037B
:104D40003091C8033A8329831B82DD82CC828E8313
:104D5000CE010196B8CFE83CF105F8F6FE2CEE2026
:104D600009F243131FC092131DC08091CC0380FD34
:104D700010C0982F907F69F0F8018583903F31F043
:104D8000982F907F905F8F70892B8583C8010E9438
:104D9000871E86E0F801A7ECB3E001900D928A959A
:104DA000E1F70DCFC8010E94BE1481118ECF809112
:104DB000CC0381608093CC03C8010E94871EFFCE84
:104DC000EE2009F48FCFC8010E94BE14F82E88236C
:104DD00009F488CF86E0F801A7ECB3E001900D92CA
:104DE0008A95E1F78091C7039091C8030E94B2149D
:104DF0000E942F25E4CE81E08E25FBCE1F93CF931A
:104E0000DF93CDB7DEB767970FB6F894DEBF0FBE5E
:104E1000CDBF4B8B5C8B6D8B7E8B8F8B611110921A
:104E200001041A8A198A85E0FE017396DE011D9637
:104E300001900D928A95E1F786E0FE013D96DE0134
:104E4000179601900D928A95E1F7CE0107960E9480
:104E50008525882389F016E08091FE039091CD038B
:104E6000891349C067960FB6F894DEBF0FBECDBF59
:104E7000DF91CF911F91089586E0FE013796DE0104
:104E8000119601900D928A95E1F78A859B85892B71
:104E900011F38F81988589238F3FE9F22091CD030B
:104EA00030E0C9010196877099274091FE034817A9
:104EB000190671F40E94341B1092CD031092FE0368
:104EC00086E0E7ECF3E0DF011D928A95E9F7C3CFB6
:104ED00096E0929FD001939FB00D1124A253BC4F36
:104EE000FE01319601900D929A95E1F78093CD03E2
:104EF0000E94C910B0CF819FC001112482539C4FE2
:104F00000E948525882309F4ADCF8091FE0390E0AF
:104F10000196877099278093FE039ECF6F927F92B0
:104F20008F929F92AF92BF92CF92DF92EF92FF92B9
:104F30000F931F93CF93DF93CDB7DEB72F970FB6A5
:104F4000F894DEBF0FBECDBF8E010F5F1F4F8AE00A
:104F5000F80111928A95E9F79BEFE92E91E0F92E7D
:104F6000680166246394712C3FE0832E32E0932E17
:104F7000F70181917F018F3F09F445C0F894E82F34
:104F8000E295EF70F0E021A18F70A30102C0440F01
:104F9000551F8A95E2F7CA01922F982B91A392A1EF
:104FA0008095892382A3789400C0E0E0F2E021E0BC
:104FB00030E0B12CA12C41914F3F09F480C0A42FC7
:104FC000A295AF70B0E090968C9190E04F7002C0C7
:104FD000959587954A95E2F780FD71C0C901A82A89
:104FE000B92A220F331F8E169F0629F7F701319732
:104FF00080818F3F11F00E94950E50EA5A95F1F78B
:10500000F601B182A082F2E0CF0ED11C40E0E4169E
:1050100042E0F40609F0ACCF4AE050E0B80188E085
:1050200094E00E940830FF24F394009709F4F12CD7
:10503000892B09F447C08AE0F801A8E0B4E00190A8
:105040000D928A95E1F781E0809307040E944D0557
:1050500090930604809305048091050490910604C2
:105060000E943205059790F18091080490910904FF
:10507000909323048093220480910A0490910B045E
:10508000909325048093240480910C0490910D0446
:10509000909327048093260480910E0490910F042E
:1050A0009093290480932804809110049091110416
:1050B00090932B0480932A041092070407C090E079
:1050C00080E08DCF809107048111C6CF80911204BA
:1050D0008823A9F0869549F183E08B8784E08C874B
:1050E0001D860E944D058160782F9F878E871092C4
:1050F00012044B855C856D858F850E94FE268F2D61
:105100002F960FB6F894DEBF0FBECDBFDF91CF91C3
:105110001F910F91FF90EF90DF90CF90BF90AF90D5
:105120009F908F907F906F90089584E08B87D7CF6A
:105130001F920F920FB60F9211242F933F934F930C
:105140005F936F937F938F939F93AF93BF93CF930F
:10515000DF93EF93FF93D091E900DF708091EC0033
:10516000C82FC17080FDC0E81092E9008091F00066
:10517000877F8093F00078940E94491B1092E90089
:105180008091F00088608093F000CD2BCF70C093A9
:10519000E900FF91EF91DF91CF91BF91AF919F9186
:1051A0008F917F916F915F914F913F912F910F90D0
:1051B0000FBE0F901F9018951F920F920FB60F926F
:1051C00011242F933F934F935F936F937F938F930C
:1051D0009F93AF93BF93EF93FF938091E10082FF82
:1051E00009C08091E20082FF05C08091E1008B7FC1
:1051F0008093E1008091DA0080FF24C08091D80084
:1052000080FF20C08091DA008E7F8093DA00809149
:10521000D90080FF9DC080E189BD82E189BD09B4CC
:1052200000FEFDCF81E08093F7058091D2058111CA
:1052300009C00E94A4030E946F048091E200846070
:105240008093E2008091E10080FF17C08091E2002E
:1052500080FF13C08091E2008E7F8093E2008091F6
:10526000E20080618093E2008091D80080628093A8
:10527000D80019BC85E08093F7058091E10084FF98
:105280002BC08091E20084FF27C080E189BD82E1CC
:1052900089BD89B5982F917080FFFBCF8091D80090
:1052A0008F7D8093D8008091E1008F7E8093E10014
:1052B0008091E2008F7E8093E2008091E200816025
:1052C0008093E2008091F805882309F447C084E0C8
:1052D0008093F7058091F7058091E10083FF27C057
:1052E0008091E20083FF23C08091E100877F80935B
:1052F000E10082E08093F7051092F8058091E100CB
:105300008E7F8093E1008091E2008E7F8093E200A7
:105310008091E20080618093E20042E060E080E002
:105320000E943D048091F00088608093F000FF911E
:10533000EF91BF91AF919F918F917F916F915F910D
:105340004F913F912F910F900FBE0F901F90189586
:1053500019BC1092F7051092D20574CF8091E3002A
:1053600087FD93E09093F705B5CF78941F921FB611
:105370001F9211248F939F93AF93BF938091C90580
:105380009091CA05A091CB05B091CC050196A11DC5
:10539000B11D8093C9059093CA05A093CB05B09326
:1053A000CC05BF91AF919F918F911F901FBE1F9011
:1053B00018951F921FB61F9211248F939F93AF933E
:1053C000BF938091C805811113C08091C905909148
:1053D000CA05A091CB05B091CC054196A11DB11D88
:1053E0008093C9059093CA05A093CB05B093CC05D3
:1053F000BF91AF919F918F911F901FBE1F901895E5
:10540000CDB7DEB7E1970FB6F894DEBF0FBECDBFC4
:1054100084B7877F84BF0FB6F894A8958091600009
:10542000886180936000109260000FBE80E890E079
:105430000FB6F89480936100909361000FBE85B71A
:10544000806885BF85B7806885BF83E99EE09093BB
:105450008703809386030E94A4030E946F048091B7
:10546000E20084608093E20078948091F7058823BD
:10547000A1F01091E9001F709091EC00892F8170CC
:1054800090FD80E8182B1092E9008091E80083FDE0
:105490000E94491B1F701093E90082E084BD93E0D5
:1054A00095BD9AEF97BD80936E000E94E51481111F
:1054B00002C00E941F140BEF11E0D8018D918D01E5
:1054C0008F3F11F00E94950EB2E000301B07A9F744
:1054D00000E012E0F80181918F018F3F11F00E94EE
:1054E000950EF2E00F301F07A9F78AE0E2E2F4E040
:1054F000DF01282F1D922A95E9F7E8E0F4E0DF01AB
:105500001D928A95E9F70E94121E811102C00E9425
:105510001D1E82E090E00E942E30809317040E94AE
:10552000FE149093CE058093CD050E948E27EFE365
:10553000FCE93197F1F700C000000E948E278091AE
:10554000220480FF08C06FEF7FEF90E080E00E94B0
:1055500070300E94D61283E090E00E942E300E94AC
:105560008611109205068FEF9FEF90931F06809390
:105570001E06909321068093200690932306809325
:105580002206909325068093240690932706809305
:105590002606909329068093280690932B068093E5
:1055A0002A0690932D0680932C061092390490932E
:1055B0005304809352049093550480935404909321
:1055C0005704809356049093590480935804909301
:1055D0005B0480935A0490935D0480935C049093E1
:1055E0005F0480935E0490936104809360040E9442
:1055F000121E811104C00E941D1E0E94191B46E04C
:1056000050E06CE170E083E396E00E941E3010925F
:105610003206809133068C7F11F40E94191B279863
:105620002F9A52985A9A83B190E0880F892F881F39
:10563000990B4A995EC220E0822B809315048091D9
:10564000CD0580688093CD058091CD059091CE05E4
:105650000E942E1483E190E00E9436306093B904DA
:105660007093BA048093BB049093BC0484E091E0EF
:105670009093C5058093C4058091F70500E112E180
:10568000853009F473C20E948E2781110E94410562
:1056900082E294E09FA78EA748E1E42E44E0F42E36
:1056A00056E3252E52E0352E712C612CAEA5BFA5F8
:1056B0008D909D90BFA7AEA7F7018081918188153D
:1056C000990509F497C09C012825392539AB28ABE9
:1056D0003CA62BA6512CCC24C394D12C88A999A9E3
:1056E0008C219D21892B09F479C059A26AA28401D9
:1056F0000C211D2181E00115110509F480E08BA327
:105700000E944D058160782F9DA38CA349A15AA1C9
:105710006BA18DA10E94FE26D7018D919C911197BE
:105720008C259D258D939C93012B31F0EBA5FCA539
:1057300080818F3F09F024C2412C042D10E080911C
:105740003904800F912F911D09976CF188E0A82EE4
:10575000B12CA01AB10AB801665C7B4FA5018AE39F
:1057600094E00E941530B8016E5B7B4FA50182E486
:1057700094E00E941530A501440F551FB801660F33
:10578000771F6E5A7B4F82E594E00E941530B80176
:10579000665B7B4FA5018AE494E00E94153088E0A7
:1057A0008419809339048091390490E0FDA5AF2FCE
:1057B000B0E09D01220F331F2F573D4FAA0FBB1F93
:1057C000BD016E577D4F41E0480F941508F4DCC1D0
:1057D000809339047394EBE0E71540F15394CC0CBB
:1057E000DD1C2BA53CA52F5F3F4F3CA72BA73FE01F
:1057F000531274CF639442E0E40EF11C5FE0250E77
:10580000311C85E0681252CF711010C08FEF8EA34B
:105810008FA318A60E944D058160782F9AA789A7AB
:105820004EA15FA168A58AA50E94FE260E94791557
:10583000E0911504EE0FEE0FE093150483B190E0B4
:10584000880F892F881F990B4A99B4C120E0822BB9
:10585000E82BE0931504EF70F0E0E15FFD4F8081ED
:1058600090911404890F8093140420E08430CCF0CC
:10587000809113048F5F8093130484E089838A836B
:1058800011E01B830E944D058160782F9D838C83DE
:105890001093120449815A816B818D810E94FE26EA
:1058A00021E0809114048D3FDCF480911304815039
:1058B0008093130483E0898384E08A8381E08B836F
:1058C0000E944D058160782F9D838C8382E08093B8
:1058D000120449815A816B818D810E94FE2621E04C
:1058E00080911404082E000C990B64E070E00E9473
:1058F0008B2F8093140421110E94410586E0E3E37D
:10590000F4E0DE01119601900D928A95E1F7F09096
:105910003504E09036041091370400913804109259
:1059200035041092360410923704109238048F2DEB
:105930008E2909F448C080913104909132040E946C
:1059400032059C0190912D04992309F4CBC2233395
:105950003105C8F19F3F19F09F5F90932D04FF2000
:1059600059F00E94190E9FEF1F140CF491E0899FCB
:10597000802D112480933504EE2059F00E94190ED9
:105980009FEF1E140CF491E0899F802D11248093C9
:105990003604309135043323B1F0209136042223AC
:1059A00091F045EB3403C0011124992309F405C19A
:1059B0009093350455EB250390011124332309F40A
:1059C00000C130933604812F802B09F448C08091A8
:1059D0002F04909130040E9432059C0190912C0478
:1059E000992309F47AC225363105C8F19F3F19F091
:1059F0009F5F90932C04112359F00E94F70D9FEFA5
:105A000011160CF491E0899F802D112480933704A6
:105A1000002359F00E94F70D9FEF10160CF491E04F
:105A2000899F802D112480933804309137043323CB
:105A3000B1F020913804222391F045EB3403C001EA
:105A40001124992309F4C1C09093370455EB250321
:105A500090011124332309F4BCC0309338048091A1
:105A6000350490913604892B90913704892B9091BD
:105A70003804892B11F00E94570D86E0FE01319603
:105A8000A3E3B4E001900D928A95E1F70E94E4054A
:105A900090911604891721F00E94E4058093160462
:105AA0008091F705843009F0E7CD83E08093E90029
:105AB0008091E80082FFE0CD8091E80090E085FFD2
:105AC00006C00E94C303882309F487C091E0809137
:105AD000E8008B778093E800992309F4CDCDE98124
