:100000000C942F030C9476030C9476030C947603D3
:100010000C9476030C9476030C9476030C9476037C
:100020000C9476030C9476030C943B210C94F720EB
:100030000C94002A0C9476030C9476030C947603AB
:100040000C9476030C9476030C9476030C9476034C
:100050000C9476030C94DC290C9476030C947603B0
:100060000C9476030C9476030C9476030C9476032C
:100070000C9476030C9476030C9476030C9476031C
:100080000C9476030C9476030C9476030C9476030C
:100090000C9476030C9476030C9476030C947603FC
:1000A0000C9476030C9476030C94760305010902F4
:1000B000A10185020901A1000509190129081500FE
:1000C0002501950875018102050109300931158165
:1000D000257F95027508810609381581257F9501D0
:1000E00075088106050C0A38021581257F95017572
:1000F000088106C0C005010980A101850319012AF4
:10010000B700150126B700950175108100C0050CD8
:100110000901A101850419012AA002150126A002E6
:10012000950175108100C005010906A1018505052D
:100130000719E029E71500250195087501810205D9
:1001400007190029EF1500250195F07501810205B9
:10015000081901290595057501910295017503910D
:1001600001C00660FF0961A1010962150026FF00B8
:100170009520750881020963150026FF00952075FA
:10018000089102C005010906A101050719E029E748
:1001900015002501950875018102950175088101F9
:1001A0000507190029FF150026FF0095067508812F
:1001B000000508190129059505750191029501753C
:1001C000039101C0000101010101010101010202CD
:1001D00002020202020202030303030303030304F5
:1001E00004040404040405050505050606060606C0
:1001F000070707070708080808090909090A0A0A7A
:100200000B0B0B0C0C0C0D0D0D0E0E0E0F0F0F101B
:1002100010111111121213131414151516161717A5
:10022000181819191A1A1B1B1C1D1D1E1E1F202011
:10023000212222232424252626272829292A2B2C5B
:100240002D2D2E2F30313232333435363738393A7E
:100250003B3C3D3E3F404142434445464748494A76
:100260004C4D4E4F50515354555658595A5B5D5E44
:100270005F616264656668696B6C6D6F70727375DF
:1002800077787A7B7D7E8082838587888A8C8E8F43
:1002900091939596989A9C9EA0A2A3A5A7A9ABAD71
:1002A000AFB1B3B5B7BABCBEC0C2C4C6C9CBCDCF5F
:1002B000D1D4D6D8DBDDDFE2E4E7E9EBEEF0F3F50D
:1002C000F8FAFDFF29001E001F0020002100220077
:1002D000230024002500260027002D002E002A00E0
:1002E0004C002B0014001A000800150017001C0019
:1002F00018000C00120013002F00300031004B00DA
:10030000390004001600070009000A000B000D0068
:100310000E000F0033003400280000004E00E10002
:1003200000001D001B000600190005001100100050
:10033000360037003800E5005200C25CE000E30000
:10034000E2000000000000002C000000000000009F
:10035000E6000151500051004F0035003A003B00CB
:100360003C003D003E003F00400041004200430091
:10037000440045000100C55CC25C010001000100B1
:100380000100010001000100010001000100010065
:1003900001000100C65C0100010001000100010034
:1003A0000100010001000100010001000100010045
:1003B0000000C75C01000000010001000100010015
:1003C0000100010001000100010001000100C95C01
:1003D000C85C0100010001000000000000000100F5
:1003E000000000000000C35C0100CC5CCA5CCB5C78
:1003F00001000100010001000100010001000100F5
:1004000001000100010001000100010001000100E4
:1004100001000100010001000100010001000100D4
:1004200001000100010001000100010001000100C4
:1004300001000100010001000100010001000100B4
:1004400001000100010000000100010000000100A6
:100450000100010001000100010001000100010094
:100460000100010001000100010001000100000085
:100470000000000001000000000000000100010079
:100480000100010001000100010001000100010064
:100490000100010001000100010001000100010054
:1004A0000100010001000100010001000100010044
:1004B0000100010001000100010001000100010034
:1004C0000100010001000100010001000100010024
:1004D0000100010001000100010001000000010015
:1004E0000100000001000100010001000100010005
:1004F00001000100010001000100010001000100F4
:1005000001000100000000000000010000000000E8
:1005100000000100010001000100010000000000D6
:1005200000000000000000000000000000000000CB
:1005300000000000000000000000000000000000BB
:100540007E0F00D4FFFFFFC700000078000000000E
:10055000000000002A2B280000000000000000001E
:100560000000000000000029000000002C1E3420C4
:10057000212224342627252E362D3738271E1F20EA
:100580002122232425263333362E37381F0405062F
:100590000708090A0B0C0D0E0F1011121314151673
:1005A0001718191A1B1C1D2F3130232D3504050671
:1005B0000708090A0B0C0D0E0F1011121314151653
:1005C0001718191A1B1C1D2F3130354C09025B00FE
:1005D000030100A0FA090400000103010100092140
:1005E000110100012240000705810308000A0904E7
:1005F0000100020300000009211101000122220074
:1006000007058203200001070503032000010904F8
:100610000200010300000009211101000122B600BF
:100620000705840320000A1201100100000008A140
:100630007B01650100010200010A034D00570036ED
:10064000003500000012034D005700530074007580
:1006500000640069006F0000000403090400112415
:100660001FBECFEFDAE0DEBFCDBF04B603FE27C06A
:1006700080914B0390914C03A0914D03B0914E0398
:100680008730904BA740B04BD1F410924B0310929F
:100690004C0310924D0310924E0314BE84B7877F13
:1006A00084BF0FB6F894A89580916000886180930C
:1006B0006000109260000FBEE0E0F8E3099523E0CF
:1006C000A0E0B2E001C01D92AB34B207E1F712E046
:1006D000A0E0B1E0E4E8F7E502C005900D92A0309B
:1006E000B107D9F70E9412220C946D2B0C940000D4
:1006F000E8EDF0E080818E7F80831092E20010921E
:10070000DA001092E100A0EEB0E08C9181608C9351
:1007100080818F77808319BCA7EDB0E08C918E7FAC
:100720008C9380818F7E808310920B03089520919B
:10073000E4003091E50095E6A9012091EC00822FBC
:10074000817020FF06C08091E80080FF06C080E035
:1007500008952091E80022FD1AC08091300388237B
:1007600089F0853089F08091EB0085FD0FC02091E4
:10077000E4003091E50042175307F9F29150E1F699
:1007800084E0089582E0089583E0089581E008956B
:10079000EF92FF920F931F93CF937C018B010E94E6
:1007A0009703C82F811117C08091E80085FD0BC009
:1007B0008091E8008E778093E8000E949703882359
:1007C00099F3C82F08C0F70181917F018093F10050
:1007D0000150110949F78C2FCF911F910F91FF9074
:1007E000EF9008958091320387FF13C08091E80055
:1007F00082FF06C08091E8008B778093E80004C0F8
:10080000809130038111F2CF0895809130038823C5
:10081000D9F38091E80080FFF8CF8091E8008E77CF
:10082000ECCF982F9093E900242F762F50E0891772
:1008300031F07091EC002091ED005091F00021FD1D
:1008400007C09F5F973071F78093E90081E00895BA
:100850003091EB003E7F3093EB003091ED003D7F17
:100860003093ED003091EB0031603093EB007093EA
:10087000EC002093ED005093F0002091EE0027FD56
:10088000E0CF80E00895CF92DF92EF92FF920F9336
:100890001F93CF93DF93C8EDD0E088818F7E88834C
:1008A000E7EDF0E080818160808384E082BF81E0B9
:1008B00080930B0388818E7F888302EE10E0F8011D
:1008C00010821092DA0081EEC82ED12CF60110822F
:1008D00088818F77888388818068888388818F7DED
:1008E000888319BC109230031092310310922F03A9
:1008F00010922E0390EEE92EF12CF70180818B7F70
:10090000808388818160888342E060E080E00E948B
:100910001104F60180818E7F8083F80180818160DF
:100920008083808188608083F70180818E7F8083CF
:10093000888180618883DF91CF911F910F91FF9013
:10094000EF90DF90CF900895FC0180913803909153
:10095000390386179707A0F06115710529F4909166
:10096000E8009E779093E80090E06115710551F4DE
:10097000911108C08091E80082FF34C080E00895A2
:10098000BC01F2CF809130038823C1F18530C1F1E1
:100990008091E80083FD30C08091E80082FDEACFBD
:1009A0008091E80080FFE1CF8091F3002091F20078
:1009B000382F6115710519F02830310558F091E094
:1009C0002830310509F090E02091E8002E7720933F
:1009D000E800CBCF81918093F100615071092F5FC6
:1009E0003F4FE7CF80913003882341F0853041F0BD
:1009F0008091E80083FFBECF81E0089582E00895F2
:100A000083E00895E42FF0E0EE0FFF1FE153FE4F67
:100A10009081921B97FD9195292F38E1239F212DDD
:100A20001124620F08950F931F9310E0F801EE0F49
:100A3000FF1FE153FE4F9081905797FD9195000F56
:100A4000111FF801E053FE4F00810052110B2003EB
:100A5000F001219FF00D112408E310E0091B11099A
:100A600097FD139540039001419F300D1124E20F33
:100A7000F31F9F01220F331F2E0F3F1F37FF02C0AE
:100A800021583F4F220F232F221F330B620F1F913C
:100A90000F9108950F931F93522F10E0F801EE0F5E
:100AA000FF1FE053FE4FA081A052BB0B9D015203DC
:100AB000F001539FF00D1124000F111FD801A15315
:100AC000BE4F0C910057110B40039001419F300D18
:100AD00011242E0F3F1F37FF02C0215C3F4F96E0CD
:100AE000359527959A95E1F7620F1F910F9108951B
:100AF0000F931F93522F10E0F801EE0FFF1FE053EA
:100B0000FE4FA081A052BB0B9D015203F001539FE9
:100B1000F00D1124000F111FD801A153BE4F0C91ED
:100B20000057110B40039001419F300D11242E0FEF
:100B30003F1F37FF02C021583F4F220F232F221F94
:100B4000330B620F1F910F910895EF920F93972F20
:100B500023E0029FB0011124759567956E0D792FE2
:100B60000F91EF900895322F50E0FA01EE0FFF1F22
:100B7000E053FE4F9081905297FD9195440F551F81
:100B8000FA01E153FE4F2081231B330B290F311D46
:100B900097FD3A95620F0895E42FF0E0EE0FFF1FE6
:100BA000E053FE4F6081621B0895E42FF0E0EE0FEA
:100BB000FF1FE153FE4F6081621B0895622F08956D
:100BC000E42FF0E0EE0FFF1FE153FE4F408134EEC3
:100BD000439F412D1124E82FF0E050E0445E5F4F29
:100BE000DA01A21BB1099D01B7FF03C03195219520
:100BF000310993E0220F331F9A95E1F7AF01421BB1
:100C0000530B9A0157FD20E0582F259F212D1124C9
:100C1000822F0895E42FF0E0EE0FFF1FE153FE4F07
:100C2000408134EE439F412D1124E72FF0E050E046
:100C3000445E5F4FDA01A21BB1099D01B7FF03C0FB
:100C400031952195310993E0220F331F9A95E1F7F1
:100C5000AF01421B530B9A0157FD20E0279F212D26
:100C60001124722F089580E0089580910D03089556
:100C70009C014FB7F8948091E1029091E202A0911B
:100C8000E302B091E4024FBF821B930B08952FB78C
:100C9000F8946091E1027091E2028091E3029091F8
:100CA000E4022FBF08952FB7F8948091E10290914C
:100CB000E202A091E302B091E4022FBF08952091D7
:100CC00010012223C9F02091CE0227FF15C0E62F84
:100CD000E695E695E695EE31D8F4E80FF92FF11D8B
:100CE000677021E030E001C0220F6A95EAF7209595
:100CF0008281282322830895FC013296089621914F
:100D0000621303C0DF0111971C92E817F907B9F7C6
:100D10000895209110012223C1F02091CE0227FFD7
:100D200014C0E62FE695E695E695EE31F8F4E80F67
:100D3000F92FF11D677021E030E001C0220F6A95A4
:100D4000EAF78281822B82830895FC0132962FEF8D
:100D500030E04191641751F02F3F19F4411101C067
:100D6000232F3F5F3630A9F72F3F09F40895820FF4
:100D7000911D27FD9A95FC01628308958091C90217
:100D800081111092C90208958091C8029091C70202
:100D9000892B9091C602892B809302029091C902FF
:100DA0009923A1F0892B809302028091100188235E
:100DB00041F18091CE0287FF24C08EE1E4E0F2E0B1
:100DC00090E0815000F591110E94BE06E091DA0298
:100DD000F091DB023097E1F080911001882359F007
:100DE0008091CE0287FF07C08091020280930302A8
:100DF00085E0809302020280F381E02D82E092E0A0
:100E0000099486E0DBCF21912223D9F29F5FD9CFCD
:100E100008952FE0929F800D1124982F977086954A
:100E20008695869525E0829FF0011124ED56FD4FB1
:100E300050E040E080E0219130E0092E02C036957C
:100E400027950A94E2F721703327042E01C0220F60
:100E50000A94EAF7822B4F5F5F4F4530510559F7EF
:100E600008952FE0929F800D1124982F977041E0F4
:100E700001C0440F9A95EAF786958695869595E088
:100E8000899FF0011124ED56FD4F90E080E070E065
:100E90005191DF0111979B01082E02C036952795CD
:100EA0000A94E2F7217021952527242325272C93E6
:100EB00001968530910561F7089580919202909195
:100EC0006102981301C008958F5F8770FACF88235D
:100ED00041F080959091C80289238093C8020C94B8
:100EE000C4060895882339F09091C802982B9093F6
:100EF000C8020C94C40608952091570230915802FC
:100F00002817390771F09093580280935702E091A7
:100F1000DA02F091DB02309721F00084F185E02DB8
:100F200009940895209155023091560228173907E7
:100F300071F09093560280935502E091DA02F0919D
:100F4000DB02309721F00680F781E02D09940895A7
:100F5000E091DA02F091DB02309721F00190F0810C
:100F6000E02D099480E00895FA01811101C0FB0190
:100F70000994E5E2F2E0818360834283339692E054
:100F8000E535F907C1F70895FC01EE0FFF1FE80FE3
:100F9000F91FEB5DFD4F61834083228308950C941C
:100FA000B9070C94C407FC019B01009729F480E069
:100FB00077FF2BC080E80895AC0197FF04C0442759
:100FC0005527481B590BB901640F751F37FD10C019
:100FD000241B350BC901A5E0880F991FAA95E1F7DD
:100FE0000E943B2A80E2861BF7FF0FC0819508957F
:100FF000CB0165E0880F991F6A95E1F7BA01621B82
:10100000730B0E943B2A80E6EECF0895EF920F9378
:10101000CF93DF93D72FC82FC9010E19BA010E94B1
:10102000D307602F681B7D2F8C2FDF91CF910F91FD
:10103000EF9008950F93CF93DF93D72FC82FC90157
:10104000BA010E94D307682F600F7D2F8C2FDF918C
:10105000CF910F910895EF920F931F93CF93DF934A
:10106000D62FC72F182FC9010E19010FBA010E94E0
:10107000D307081B202F219F212D1124822F6D2F94
:101080007C2FDF91CF911F910F91EF900895EF92F8
:101090000F931F93CF93DF93D62F172FC82FC9011C
:1010A0000E19070FBA010E94D307702F781B719F8A
:1010B000712D11246D2F8C2FDF91CF911F910F91E6
:1010C000EF9008950F931F93CF93DF93D62FC72FE1
:1010D000182FC901212F201B022FBA010E94D3070C
:1010E000982F990F990F891B800F282F219F212D51
:1010F0001124822F6D2F7C2FDF91CF911F910F91A3
:1011000008950F931F93CF93DF93D62F172FC82FD8
:10111000C901272F201B022FBA010E94D307982F45
:10112000990F990F782F791B700F719F712D1124D2
:101130006D2F8C2FDF91CF911F910F910895E82F84
:1011400086FDE0952E2F2F7086FD2F5FE695E695A4
:10115000E695E670F0E0E85EFE4F9181929F902D5B
:10116000212D112492959F702295207F922B208112
:10117000920F87FD919580E8890F08950F931F9333
:10118000CF93DF938B01D82FC42F822F0E949F080B
:10119000EC2FF0E0EE0FFF1FE153FE4F90819058CF
:1011A000890F87FD8195880F682F2CE0629F612D44
:1011B0001124600F712F8D2FDF91CF911F910F910F
:1011C0000895AC018230910508F408959FEF413EE7
:1011D0008EE1580740F49A0195E0369527959A9547
:1011E000E1F798E0920F61E0E62FE90FFF27FF1F7C
:1011F0009F0135952795822F229FF001239FF00DA7
:10120000F00D11244E175F0738F49FEF920F9617D9
:1012100058F78FEF860F08952F3FE9F361E0620FD3
:10122000F6CF0F93CF93DF93D72FC82F47FD41956C
:1012300088E390E0841B910947FD9395889FB00156
:10124000899F700D700D1124229FC001239F900D66
:10125000900D1124860F971F0E94E108982F990F77
:10126000890F682F600F7D2F8C2FDF91CF910F9109
:10127000089530E020E0869F212D969F200D311D9E
:101280001124C9010895AF92BF92CF92DF92FF92CD
:101290000F931F93CF93DF93362F472FE82FF0E064
:1012A000EC53FE4F71110FC0E4918E2F2E2F6E2F35
:1012B000722FDF91CF911F910F91FF90DF90CF9010
:1012C000BF90AF900895C72FD0E02491F22E022F47
:1012D00010E056E0659FC0011124EFEFF0E0BF0180
:1012E0000E94272A832F90E0880F991F35E5369FAB
:1012F000D001379FB00D11248A1B9B0B982F990F9B
:10130000980F6F01CC1ADD0AC09ED001C19EB00DAE
:10131000D09EB00D11248B2F499FA0011124452F81
:1013200055276F01C41AD50AC09EA001C19E500D59
:10133000D09E500D11245F01A91AB108AC9E600126
:10134000AD9ED00CBC9ED00C1124CD2CDD24EC190C
:10135000FD09E09FE001E19FD00DF09FD00D112429
:10136000ED2F62307105A1F050F46115710509F49B
:101370009ECF6130710581F0EB2F852F98CF6430BF
:10138000710569F080F06630710509F490CFF4CFF3
:10139000E22F2B2F8D2F8BCFE22F252F88CFEB2FF6
:1013A000822F2D2F84CF2B2F8F2DE52F80CF7F9253
:1013B0008F929F92AF92BF92CF92DF92EF92FF9265
:1013C0000F931F93CF93DF935C01C0911101CC0F5A
:1013D000CC0F14E01C0FF12E113110F030E1F32E80
:1013E00060914903669580913A0390913B030E9476
:1013F0003909782ED0E0CF1590F081E0103108F057
:1014000080E0DF91CF911F910F91FF90EF90DF90DF
:10141000CF90BF90AF909F908F907F900895FE01E6
:10142000E151FE4F8081909112018923C9F1CE01D3
:10143000880F991F8C579E4FFC01E55BFF4F208161
:10144000422F4057550B6A01845B9F4FFC018081FE
:10145000282F2052330B4901449F9001459F300DA6
:10146000300D1124889CC001899C900D900D112491
:10147000820F931F0E94E108082F6091460370912C
:10148000470380914803E72C9401A601F5010995D3
:101490000E944309462F282F672FCE010E94D107B3
:1014A0002196A9CFCF92DF92EF92FF920F931F93D5
:1014B000CF93DF937C01C0911101CC0FCC0F14E0CE
:1014C0001C0FD12E113110F030E1D32E6091490361
:1014D000669580913A0390913B030E943909C82E8A
:1014E000D0E0CD1568F081E0103108F080E0DF91A8
:1014F000CF911F910F91FF90EF90DF90CF900895C3
:10150000FE01E151FE4F808190911201892311F17A
:10151000CE01880F991F8C579E4FFC01E45BFF4F53
:1015200020812052330B855B9F4FFC014081405747
:10153000550B6091460370914703809148030C2D31
:10154000F70109950E944309462F282F672FCE01E6
:101550000E94D1072196C5CFDF92EF92FF920F93A1
:101560001F93CF93DF937C01C0911101CC0FCC0F5F
:1015700014E01C0F012F113108F000E160914903C4
:101580006695669521E0620F08F46FEF80913A034B
:1015900090913B030E943909D82ED0E0C01760F02B
:1015A00081E0103108F080E0DF91CF911F910F9121
:1015B000FF90EF90DF900895FE01E151FE4F808192
:1015C00090911201892391F0609146037091470335
:1015D000809148032D2D4C2FF70109950E94430956
:1015E000462F282F672FCE010E94D1072196D6CFF4
:1015F0009F92AF92BF92CF92DF92EF92FF920F93A2
:101600001F93CF93DF936C01C0911101CC0FCC0FCE
:1016100014E01C0FB12E113110F030E1B32E6091A7
:1016200049036695669580913A0390913B030E9429
:101630003909F82E80E48F0D0E949F0890E8A92EAA
:10164000A80E8F2D0E949F0820E8922E980ED0E0C1
:10165000CB1580F081E0103108F080E0DF91CF9170
:101660001F910F91FF90EF90DF90CF90BF90AF90C0
:101670009F900895FE01E151FE4F808190911201EB
:101680008923A1F06091460370914703809148033C
:10169000EF2C0C2F292D4A2DF60109950E944309A4
:1016A000462F282F672FCE010E94D1072196D0CF39
:1016B0000E9453069C019091F1028091F202982BB6
:1016C00021F03093EE022093ED029091F30280918D
:1016D000F402982B21F03093EB022093EA02E09180
:1016E000DA02F091DB02309749F082E08093EF025A
:1016F0000480F581E02D8FEE92E00994089590E04A
:1017000080E00E94920790E080E00E947C071092A7
:10171000C7021092C6020E94C40686E0EFEEF2E015
:10172000DF011D928A95E9F71092EC021092E9020E
:1017300010925A020C94580B60933E0370933F032F
:1017400080934003909341030C947F0B0F931F935E
:1017500060913E0370913F0380914003909141035B
:101760008B019C01067011272227332706301105B3
:101770002105310529F468601F910F910C949C0B91
:10178000677FFACF0F931F9341E050E060E070E075
:1017900004C0440F551F661F771F8A95D2F7CB01EF
:1017A000BA01609570958095909500913E031091D7
:1017B0003F03209140033091410360237123822332
:1017C00093231F910F910C949C0B9091C5028095CF
:1017D00089238093C502282F277039F4282F082EDB
:1017E000000C330B9217130621F49091CF0292FF55
:1017F00007C08595859585950E94C20B1092C502FC
:1018000008950F931F9341E050E060E070E004C042
:10181000440F551F661F771F8A95D2F780913E03AC
:1018200090913F03A0914003B09141038A019B0135
:10183000082B192B2A2B3B2BC901B8011F910F91A3
:101840000C949C0B6093CA027093CB028093CC02E1
:101850009093CD020C947F0B4091F102803F59F49C
:101860008091F20287FF0DC01092F20241110BC06D
:101870001092EC0208C0813F81F48091F2021816A8
:101880009CF3442381F08091F3029091F402892B20
:1018900009F05AC01092E9020895823F49F447FFC7
:1018A000F0CF1092F1028091F2028111ECCFE0CFE3
:1018B000833F19F41416ACF3E4CF9091F302893FFF
:1018C00029F41916F4F61092F302DBCF8A3F19F4CB
:1018D00097FFD7CFF8CF9091F4028B3F29F497FF71
:1018E000D0CF1092F402CDCF8C3F19F41916CCF35F
:1018F000C8CF9CE0980F953090F4845F990B21E05D
:1019000030E0B90102C0660F771F8A95E2F7CB017C
:1019100080959091F00289238093F002B2CF8D3FA1
:1019200031F480915A028E7F80935A02AACF8E3F63
:1019300021F480915A028D7FF7CF8F3F09F0A1CF1C
:1019400080915A028B7FF0CF08958823B1F19CEFEC
:10195000980F913A38F4682F82E092E00E945F0677
:101960000C94C40690E2980F983088F4877021E0B8
:1019700030E0A90102C0440F551F8A95E2F7CA0161
:1019800080959091C80289238093C802E9CF9BE596
:10199000980F933020F490E080E00C94920798E543
:1019A000980F973120F490E080E00C947C07803F02
:1019B00020F00E942C0C0C94580B089580915A0230
:1019C00080FD16C081FD16C082FD16C08091E9021F
:1019D0008823A1F0883280F428E0829FC00111247E
:1019E00068E270E00E943B2A862F672B39F0089549
:1019F00082E0089584E0089588E0089581E00895E4
:101A000080915A0280FD14C081FD14C082FD16C071
:101A10008091EC02882381F0843180F422E3829F5C
:101A2000C001112464E170E00E943B2A862F0895D2
:101A30008CE0089589E1089585E0089582E3089592
:101A4000803F31F40E94000D81958093F202089549
:101A5000813F19F40E94000DF8CF823F31F40E94BB
:101A6000000D81958093F1020895833F19F40E943F
:101A7000000DF8CF893F29F40E94DE0C8093F30219
:101A800008958A3F21F40E94DE0C8195F7CF8B3FA9
:101A900031F40E94DE0C81958093F40208958C3F0E
:101AA00019F40E94DE0CF8CF9CE0980F953070F48A
:101AB000845F990B21E030E001C0220F8A95EAF79C
:101AC0008091F002822B8093F00208958D3F31F4D3
:101AD00080915A02816080935A0208958E3F21F4CA
:101AE00080915A028260F7CF8F3FB9F780915A02F6
:101AF0008460F1CFCF93C82F882309F46FC08CEF97
:101B00008C0F813AC0F580911001882311F18091EA
:101B1000CE0287FF1EC0EC2FE695E695E695F0E035
:101B2000EE5FFD4F828190E04C2F477021E030E066
:101B300002C0220F331F4A95E2F782239323892B99
:101B400091F06C2F82E092E00E945F060E94C40632
:101B50000AC0E4E0F2E08AE092E02191C21789F342
:101B60008E179F07D1F76C2F82E092E00E948906C2
:101B7000CF910C94C40680E28C0F883068F4C77053
:101B800021E030E001C0220FCA95EAF78091C80237
:101B9000822B8093C802ECCFEBE5EC0FE33040F4EE
:101BA000F0E0E05EFE4F808190E0CF910C949207D0
:101BB000E8E5EC0FE73150F4F0E0EE0FFF1FED5DCC
:101BC000FE4F80819181CF910C947C07C03F30F013
:101BD0008C2F0E94200DCF910C94580BCF9108951B
:101BE000F894E82FE295EF70F0E031A1282F2F70E4
:101BF00081E090E001C0880F2A95EAF7982F909530
:101C0000932391A392A1892B82A378940895909114
:101C1000CE0292FF06C0282F28712830F9F4877F62
:101C2000846093FF06C0282F28712831F1F4877E45
:101C300084612091CF0220FF06C0382F38713830E0
:101C4000D9F4877F816021FF06C0282F28712831B1
:101C5000D1F4877E816194FD877E0895282F2471B9
:101C60002430F9F68B7F8860DCCF282F2471243153
:101C700001F78B7E8861DDCF382F3171313019F754
:101C80008E7F8860E0CF282F2171213121F78E7E51
:101C90008861E1CFCF9384E090E00E94C82AC82FEA
:101CA00082E290E00E94C82A982F8C2FCF9108954D
:101CB0000F931F93CF93DF93C42FD0E0CC0FDD1F82
:101CC0002EE1629FC00DD11D112436E9839FC00D06
:101CD000D11D1124CE0187960E94C82A082F10E03A
:101CE000102F0027CE0188960E94C82A9801282B21
:101CF000C901DF91CF911F910F910895462F843034
:101D000038F4753028F46F3018F4672F0C94580E9F
:101D100090E080E00895CF93DF930E947E0EEC0167
:101D200082389105A9F1D8F58133910509F496C05F
:101D300048F58932910509F48AC08A9709F495C05B
:101D4000C11521E5D20708F0BCC0C11530E5D307A5
:101D500008F014C1C83ED10508F09CC0C03ED105B2
:101D600060F5C83AD10508F087C0C53AD10508F03A
:101D7000FDC0C130D10509F12097F9F0C430D1057B
:101D8000E0F440C08533910509F45AC0C997C1F603
:101D90008091CE02837089F0C0EED0E00EC0833E09
:101DA000910599F170F4803E910501F1823E910513
:101DB00039F68091CE0282FD21C0CE01DF91CF9114
:101DC0000895863E910561F1873E910571F1843E4B
:101DD000910509F0B5CF8091CF0281FFEECF8091C0
:101DE000CE02C7EED0E084FD0DC0E7CF8091CE02D9
:101DF00080FD12C19091CF0290FFDFCFC3EED0E003
:101E000084FFDBCFD0E0C0E0D8CF8091CE0282FD4E
:101E100006C19091CF0290FDBFCF84FFCECFF2CF0D
:101E20008091CE0283FDDDCFC8CF8091CE0283FDAD
:101E3000F9C09091CF0291FFF0CFC4EED0E0BDCFBA
:101E40008091CE0285FFB9CFC9E2D0E0B6CF8091B4
:101E5000CE0285FFB2CFC5E3D0E0AFCF8091CE02F6
:101E600086FFABCFCAE2D0E0A8CF8091CE0286FF3A
:101E7000A4CFC1E3D0E0A1CFCF3BD10518F6C85A1B
:101E8000D0E0CC0FDD1FCD5DDE4F0990D881C02D95
:101E9000D46493CFC11540E2D40758F4C11581E052
:101EA000D80708F08ACFC03FD10508F4ABCFD06582
:101EB00084CFC11590E4D90708F4A4CFDF70D06AAD
:101EC0007CCFC11525E5D20700F5C11534E5D30750
:101ED00008F08AC0C11543E5D40708F071C0C115E8
:101EE00082E5D80708F467C0CE018370992721E006
:101EF00030E002C0220F331F8A95E2F7C695C695DF
:101F000080E2C89FE001112452C0C11599E5D907AC
:101F1000A8F4C11528E5D20708F06BC0C11536E555
:101F2000D30708F06FCF8C2F0E94070EC82FD0E088
:101F3000DC2FCC27CC27DF71D0623FCFC1154AE51B
:101F4000D40708F45BC0CE0190568115904208F08A
:101F500059CF8D2F8F710E94070E90E0982F882700
:101F600088279F719C012C2BE901E6CFC55AD0E050
:101F7000C05EDE4FC881D0E0D0641FCFCE01E4E068
:101F800096958795EA95E1F783702C2F26952695EF
:101F9000237040E2249F90011124382B8C2F8370F2
:101FA000C1E0D0E002C0CC0FDD1F8A95E2F7C22B62
:101FB000D32BDC6802CFDC2FCC27C16FD06AFDCEDB
:101FC000CE018370992721E030E002C0220F331F39
:101FD0008A95E2F7C695C69590E2C99FE001112463
:101FE000C22BD32BDA68E9CEDC2FCC27C46FD06AA2
:101FF000E4CEDC2FCC27C06FD06ADFCE8C2F8F7061
:102000000E94070E34E0D695C7953A95E1F7CF7058
:102010009C2FEC01D069D1CEC9E3D0E0CECEC2EE88
:10202000D0E0CBCEC6EED0E0C8CEBF92CF92DF924A
:10203000EF92FF920F931F93CF93DF938C01C09089
:102040003E03D0903F03E0904003F0904103809125
:10205000CA029091CB02A091CC02B091CD02C82AC5
:10206000D92AEA2AFB2ACFE1D0E0BC2ED701C6014B
:102070000C2E04C0B695A795979587950A94D2F72C
:1020800080FD0EC0219788F7B12C8B2DDF91CF9169
:102090001F910F91FF90EF90DF90CF90BF90089528
:1020A000B8018C2F0E948B0E019761F3EECFCF9376
:1020B000DF93EC010E941510BE01DF91CF910C94CB
:1020C0008B0E0E945710292F2F7092959F7092505F
:1020D0009E3078F4E92FF0E0E159F44D0C944F2A4A
:1020E000803F19F020F4883E20F481E00895843F79
:1020F000E1F380E00895883EC0F3813FD1F7F5CF4A
:10210000822F86958695869508956F927F928F92FD
:102110009F92AF92BF92CF92DF92EF92FF920F9376
:102120001F93CF93DF9384ECC82E82E0D82E9BEDD3
:10213000E92EF12CE701C659D10936011BC0F50182
:1021400085909490692DC8010E94E62A682DC801E7
:1021500001960E94E62A82E0A80EB11C0E5F1F4F76
:10216000C017D10761F78EE1680E711C6E96CE150F
:10217000DF0529F08E010E5111095301E0CF7E01D8
:1021800086E9E80EF11C86E9C80ED11C83E3E81647
:1021900083E0F80679F6DF91CF911F910F91FF90C0
:1021A000EF90DF90CF90BF90AF909F908F907F90F7
:1021B0006F900895CF93C091CF02C2FB992790F9F9
:1021C000981781F080FBC2F9C093CF026091CE02D4
:1021D00084E090E00E94E62A6C2F82E290E0CF91AA
:1021E0000C94E62ACF910895CF93DF93CFE7D2E006
:1021F00060E0CE010E94E62A2196C11584E0D8074E
:10220000B9F7DF91CF9108951F93CF93DF93EC013E
:10221000FC01E151FE4F80816823A1F00E94A82AB1
:10222000182F0E94A82A612F782F809148030E94BE
:102230004309462F282F672FCE01DF91CF911F91A1
:102240000C94D107DF91CF911F910895DF92EF9207
:10225000FF920F931F93CF93DF938C01FC01E15109
:10226000FE4F8081682381F1D0904703D0914803CD
:10227000C0914603EC2EF12C0E94A82A282FC701FA
:102280008C549F4F68E671E00E943B2A8E199F098B
:1022900097FD0396959587959595879523706C2F57
:1022A000289F600D11247D2D8D2F0E944309462FFC
:1022B000282F672FC801DF91CF911F910F91FF90B9
:1022C000EF90DF900C94D107DF91CF911F910F9188
:1022D000FF90EF90DF900895CF93DF9300D00F929F
:1022E000CDB7DEB790913003943011F589837B83AD
:1022F0006A839093E9008FEF9091E800815095FDFB
:1023000006C095ED9A95F1F700008111F5CF809107
:10231000E80085FF0DC050E040E063E070E0CE01D2
:1023200001960E94C8038091E8008E778093E800B0
:102330000F900F900F90DF91CF910895BC0184E032
:102340000C946C11BC0183E00C946C119C0184E032
:102350008093E9009FEF8091E800915085FD06C0D1
:1023600085ED8A95F1F700009111F5CF8091E80095
:1023700085FF0CC050E040E066E070E0C9010E94BB
:10238000C8038091E8008E778093E8000895CF938A
:10239000DF93EC01809110018823B1F18091CE028E
:1023A00087FF32C060E284E08093E9008FEF909174
:1023B000E800815095FD06C095ED9A95F1F7000073
:1023C0008111F5CF8091E80085FF1BC0809110013D
:1023D00070E050E040E0811104C050E040E068E06F
:1023E00070E0CE010E94C8038091E8008E77809350
:1023F000E80080E2FE01AEE0B3E001900D928A9524
:10240000E1F7DF91CF91089568E081E0CDCF81E0E1
:102410008093E00080E28093D8001092C9008FE1A1
:102420009EE40197F1F700C0000087E090EBDC012B
:1024300080934B0390934C03A0934D03B0934E03B2
:1024400088E19CE00FB6F894A895809360000FBED9
:1024500090936000FFCF1F93CF93DF93182FD0E0AE
:10246000C0E0893311F4C0E5D0E0812F0E947A0DDD
:10247000209731F4812FDF91CF911F910C94A50CFF
:102480008FE99FE00197F1F700C000002197F0CF9E
:102490000F931F93CF93DF93C62FD42F022FFC01EE
:1024A00082818823A1F0609344030E945306909395
:1024B000430380934203C77081E001C0880FCA952F
:1024C000EAF7DF91CF911F910F910C9472078091E1
:1024D0004403681335C080914203909143030E94E6
:1024E0003806883C910560F510E21D0FCD17B9F054
:1024F00080E28C0F883040F4C77081E001C0880F03
:10250000CA95EAF70E946707183048F481E09D2FCA
:10251000977001C0880F9A95EAF70E947207802F82
:102520000E942B12183098F4D77081E001C0880FF8
:10253000DA95EAF7DF91CF911F910F910C9467071D
:10254000C77081E001C0880FCA95EAF7F3CFDF9129
:10255000CF911F910F910895239A35B1377F25B1FF
:1025600028604FB7F89485E292E0FC015191CF01C9
:1025700068E025B9000000C057FF35B9550F0000CD
:1025800000C000C000C035B900C06A9591F7F2E004
:1025900085359F0751F74FBF8FE594E00197F1F71D
:1025A00000C0000008956AEE7EEF90E080E00E9497
:1025B000042B60E082E090E00E94E62A60E083E085
:1025C00090E00E94E62A1092CA021092CB0210926A
:1025D000CC021092CD0260E084E090E00E94E62AF6
:1025E00060E082E290E00E94E62A60E085E090E010
:1025F0000E94E62A60E086E090E00E94E62A6FEF03
:1026000087E090E00E94E62A40E050E0BA0188E0CE
:1026100090E00E94F82A60E08DE090E00E94E62AB7
:1026200040E050E0BA0188E190E00E94F82A60E0C2
:1026300087E190E00E94E62A40E050E0BA018CE198
:1026400090E00E94F82A70E060E080E290E00E9452
:10265000042B40E050E0BA0188E190E00E94F82AA3
:1026600040E050E0BA018FE090E00E94F82A40E09C
:1026700050E0BA0183E190E00C94F82A1092C8026D
:1026800080911001E4E0F2E0882359F08091CE02BD
:1026900087FF07C08EE1DF011D928A95E9F70C9450
:1026A0007F0B86E0F8CF1F93CF93DF93CDB7DEB7D4
:1026B000AA970FB6F894DEBF0FBECDBF82E393E0BA
:1026C0002091F100DC012D93CD01B3E08A339B070B
:1026D000B9F780913303833009F471C0B8F48130C5
:1026E00009F448C0823009F4B2C08091E80083FF49
:1026F0003AC180913203909133039A3008F033C18C
:10270000E92FF0E0E358F44D0C944F2A8A3009F495
:102710008DC08B3009F470C0893039F78091320355
:10272000813219F78091360390913703009711F0A9
:102730000297D9F68091E800877F8093E800809126
:10274000E80082FF37C09091F3008091F200029779
:1027500029F48091F1008B7F813021F48091F10088
:1027600080930D038091E8008B778093E8000E94AE
:10277000F203BBCF80913203813A09F0B6CF80914A
:10278000E800877F8093E8008091360390913703BB
:10279000892B61F460E28EE093E070E00E94A40473
:1027A0008091E8008B778093E8009FCF60E090E015
:1027B00080E0F3CF809130038111C1CF96CF80911B
:1027C0003203813A09F091CF80913603909137031B
:1027D000892B09F08ACF8091E800877F8093E800F9
:1027E0008091E80080FFFCCF809110018093F10080
:1027F0008091E8008E77B9CF80913203813209F061
:1028000074CF8091360390913703892B09F06DCFF7
:102810008091E800877F8093E8000E94F203809116
:102820003403809310010E943E135FCF80913203E6
:10283000813209F05ACF8091E800877F8093E800C9
:102840000E94F2038091350380930C034ECF809158
:102850003203813A09F049CF8091E800877F809365
:10286000E8008091E80080FFFCCF80910C03BECF90
:10287000803899F0823809F076C0809136038F70E5
:10288000873008F070C08093E9008091EB0085FBF1
:10289000882780F91092E90006C080912E0390915C
:1028A0002F03911182609091E800977F9093E80048
:1028B0008093F1001092F1008091E8008E77B5C10D
:1028C000882309F4A2C1823009F04DC080913403FD
:1028D0008111A6C1809136038F702FEF280F26300B
:1028E00008F041C08093E9002091EB0020FF98C1DF
:1028F000933031F48091EB0080628093EB0090C1C3
:102900009091EB0090619093EB0021E030E001C0EA
:10291000220F8A95EAF72093EA001092EA0080914C
:10292000EB008860EACF81111EC0109134031F773D
:102930008091E3008078812B8093E3008091E80010
:10294000877F8093E8000E94F2038091E80080FF77
:10295000FCCF8091E30080688093E30082E0111156
:1029600083E0809330038091E80083FF0AC0809168
:10297000E800877F8093E8008091EB00806280937D
:10298000EB00AA960FB6F894DEBF0FBECDBFDF9165
:10299000CF911F9108958058823028F720913403F9
:1029A000309135032C3DE3E03E07A1F583E08A83B7
:1029B0008AE289834FB7F894DE01139620E03EE067
:1029C00051E2E32FF0E050935700E49120FF03C061
:1029D000E295EF703F5FEF708E2F90E0EA30C0F02D
:1029E000C7968D939D932F5F243159F74FBF8091E8
:1029F000E800877F8093E8006AE270E0CE010196EC
:102A00000E94A4048091E8008B778093E800ABCF0C
:102A1000C096E7CF8091360390913703432F552717
:102A20004330510509F44AC078F54130510509F4A5
:102A30007AC08BE590E0ECECF5E04230510509F00E
:102A400092CF2091E800277F2093E800209138035F
:102A5000309139038217930708F49C0140E0211557
:102A6000310509F065C0411163C08091E80082FD25
:102A7000C9CF80913003882329F2853019F28091E3
:102A8000E80083FFF2CFBECF4132510509F43CC0CC
:102A90004232510509F067CF8330910508F063CFCA
:102AA000FC01EE0FFF1FE858FE4F0190F081E02D72
:102AB0008B589E4FDC018C9190E01AC03327213057
:102AC0003105D1F02115310561F02230310509F0D1
:102AD0004ACFE9E3F6E0E4918E2F90E0E9E3F6E0F7
:102AE00007C0E9E5F6E0E4918E2F90E0E9E5F6E035
:102AF000009709F438CFA5CFE5E4F6E0E4918E2FF6
:102B000090E0E5E4F6E0F4CF8330910508F02BCFB8
:102B1000880F991FFC01E258FE4F0190F081E02DD3
:102B200089E090E08ECF82E190E0E7E2F6E089CFA5
:102B300080913003882309F465CF853009F462CF92
:102B40008091E80083FD5ECF8091E80082FD8DCF0B
:102B50008091E80080FF83CF9091F3008091F20094
:102B60002115310519F08830910550F041E00897A2
:102B700009F040E08091E8008E778093E8006FCF05
:102B800044914093F1003196215031090196E8CFEC
:102B9000803809F0E8CE8091E800877F8093E800D4
:102BA000809131038093F10087CE8111DCCE1091AA
:102BB0003403123008F0D7CE8091E800877F8093ED
:102BC000E800109331030E94F203112311F084E016
:102BD00005C08091E30087FDFACF81E08093300348
:102BE00042E061EC81E00E94110442E261EC84E089
:102BF0000E94110442E261EC82E00E94110442E270
:102C000060EC83E00E941104AECE809134038130E9
:102C100009F0A9CE81E0933009F080E080932F0382
:102C20001092E9008091E800877F8093E8000E947D
:102C3000F20399CE46E050E06CE170E085E493E069
:102C40000C94D62A90914503937089F0811107C0A6
:102C5000946090934503109214010C941A168C31D1
:102C600010F09C66F6CF880F880F982BF2CF08954E
:102C70008091450386958695815009F48BE10C94EB
:102C8000221680914503869586958F5F8C3108F0DA
:102C900081E00C94221690914503937041F080934B
:102CA000460360934703409348030C941A16089513
:102CB000E5E4F3E0438120E1421B08F440E0818138
:102CC000628190E00C944B16E5E4F3E0438120E14F
:102CD000420F08F44FEF8181628190E00C944B1613
:102CE000E5E4F3E0628120E1621B08F460E08181A9
:102CF000438190E00C944B16E5E4F3E0628120E11F
:102D0000620F08F46FEF8181438190E00C944B16C1
:102D1000E5E4F3E08181438162818850990B0C9452
:102D20004B16E5E4F3E0818190E0438162810896EF
:102D30000C944B163F924F925F926F927F928F92BC
:102D40009F92AF92BF92CF92DF92EF92FF920F933A
:102D50001F93CF93DF9300D000D00F92CDB7DEB793
:102D60008C01FC0183819481892B31F080819181D8
:102D700089238F3F09F0D7C50F900F900F900F90C8
:102D80000F90DF91CF911F910F91FF90EF90DF9007
:102D9000CF90BF90AF909F908F907F906F905F90FB
:102DA0004F903F9008950E941510F82E682F89814A
:102DB0009A810E94310769817A818F2D0E947E0E4F
:102DC0007C01F8018281882309F4A0C59701225172
:102DD0003F452031310508F06CC58FEF93E00E942C
:102DE000C82AFEEEEF0E5FE7852E52E0952E88236F
:102DF00081F18091C502877009F4BECFF80182810C
:102E0000882309F4B9CF82E00F900F900F900F90B4
:102E10000F90DF91CF911F910F91FF90EF90DF9076
:102E2000CF90BF90AF909F908F907F906F905F906A
:102E30004F903F900C94E50B811424E09206C9F268
:102E4000C4010E94C82A811101C0EA943FEF831A8D
:102E5000930AE110F1CF1C821B82442443944AE080
:102E6000342E74018FEFE81AF80AC4010E94C82AB0
:102E700089831A82882309F4BCCF9FEF980F93307F
:102E800000F58A83498292E0890E911CC7010E9455
:102E9000C82A8B83882309F4ACCFFE0131967F01C9
:102EA000F70120812223E9F2213009F049C0918104
:102EB0008281913041F4F2E0EF0EF11C0E942B125E
:102EC00009C04701EACF923049F422E0E20EF11C3A
:102ED0000E947A0D3FEFE31AF30AE2CF933031F408
:102EE00032E0E30EF11C0E94A50CF4CF943021F0E7
:102EF0008FEFE81AF80AEECF92E0E90EF11C30E00D
:102F000020E0B7016F5F7F4FF70141818053990B3C
:102F10008A30910550F021503109E0F28FE99FE0AD
:102F20000197F1F700C00000F6CF329EF001339E0A
:102F3000F00D11249C012E0F3F1F842F7B01E1CF48
:102F4000E22FF0E0E45BFA4F5490822F869586954D
:102F5000869590E0FC01E45CFA4F64902770712C38
:102F6000022E02C0759467940A94E2F7E1E06E22A3
:102F70007724FC01E45DFA4FA490B12C022E02C02C
:102F8000B594A7940A94E2F7F1E0AF22BB24FC01C8
:102F9000E45EFA4FC490D12C02C0D594C7942A9510
:102FA000E2F721E0C222DD246114710419F081EE00
:102FB0000E947A0DA114B10419F086EE0E947A0DD8
:102FC000852D0E942B12AB2819F086EE0E94A50CCD
:102FD000672819F081EE0E94A50CCD2809F47ACF5C
:102FE0008CE26CCF81E00E94010C0E94A60B01CF05
:102FF00081E00E94C20BF9CF82E0F5CF95EFE91690
:103000009CE5F90609F469C008F463C027E245EEBF
:1030100066EEF6EFEF16FCE5FF0609F473C48823AD
:1030200009F492C41092440322E0E2162CE5F20661
:1030300008F44CC136E1E3163CE5F30630F0C70175
:103040008A5F9C45099708F041C10E944A0E9093FF
:10305000CF028093CE0280E1E8168CE5F80609F4F1
:1030600004C108F083C0E8E0EE16ECE5FE0609F4C2
:10307000EEC008F04FC024E0E2162CE5F20609F499
:10308000DEC090F582E0E8168CE5F80609F4D1C0C0
:103090008091CE02826093E0E9169CE5F90609F47E
:1030A000CBC06091CE02F090CF0284E090E00E940D
:1030B000E62A6F2D82E290E00E94E62A0E943E13EB
:1030C00098CE27E245EE65EE1DC426E241EE60EEA5
:1030D00019C427E245EE64EE15C426E241EE62EE25
:1030E00011C428E241E0EFCF8091CE028061E6E09A
:1030F000EE16ECE5FE0609F49FC08091CE028860D2
:10310000F7E0EF16FCE5FF0608F496C08091CE02CA
:10311000806292C08091CE028D7F2CE0E2162CE579
:10312000F20609F489C060F48AE0E8168CE5F80636
:1031300009F497C008F48FC08091CE028E7F7CC0C6
:103140008091CE02877FEEE0EE16ECE5FE0609F4F4
:1031500073C08091CE028B7FFFE0EF16FCE5FF0687
:1031600008F46AC08091CE028F7E66C02BEFE21613
:103170002CE5F20609F467C068F583E1E8168CE5F2
:10318000F80609F47AC090F4E1E1EE16ECE5FE06EB
:1031900009F46FC0F2E1EF16FCE5FF0609F081CFFC
:1031A0000E943E138091CE028F7746C025E1E21641
:1031B0002CE5F20609F469C008F47DC08AEFE81630
:1031C0008CE5F80609F06DCF8091CF028160809385
:1031D000CF0267CF9FEFE9169CE5F90609F451C0CD
:1031E000A0F48091CF028D7FFDEFEF16FCE5FF0686
:1031F00071F38091CF028E7F2EEFE2162CE5F2065E
:1032000030F38091CF028360E2CF31E0E3163DE5F9
:10321000F30609F459C008F444C060E092E0E916EE
:103220009DE5F90609F03DCF8EE090E00E94E62A88
:1032300038CF8091CE0281608093CE0232CF8091D0
:10324000CE028460F9CF8091CF028260C0CF80919E
:10325000CE028064F1CF0E943E138091CE0280683E
:10326000EBCF8091CE028C60E7CF8091CE028F7D34
:10327000E3CF8091CE028F7BDFCF8091CE02837F20
:10328000DBCF8091CF028C7FA2CF8091CE0282FBD8
:10329000992790F921E0922790FB82F990FB83F91E
:1032A000CBCF8091CF02982F909591708E7F892BF4
:1032B00090FB81F98CCF0E943E139091CE02892F12
:1032C00097FB87F98058B8CF61E0AECF8091C802F4
:1032D000E6E1EE16ECE5FE0609F045C38A7A91E0D8
:1032E00009F490E09093590269E2811165E382E06C
:1032F00092E00E9489060E94C4067BCD809145031E
:1033000091E0892780934503109214010E941A16B8
:1033100070CD48E356E161E476E10E94B40769CDDF
:1033200041E456E168E376E1F8CF48E856E161E927
:1033300076E1F3CF41E956E168E876E1EECF40E788
:1033400056E16CE776E1E9CF4CE756E160E776E1DC
:10335000E4CF44E656E168E576E1DFCF4AED50E29E
:1033600060ED70E2DACF40ED50E26AED70E2D5CF69
:1033700081E00E9422163DCD8DE0FBCF9BE5E91652
:103380009DE5F90611F1ECE5EE16EDE5FE0609F016
:103390001CC38091CF0282FB882780F991E08927A6
:1033A0000E94DA1012C30E943E13FFEF24E33CE0B8
:1033B000F15020403040E1F700C000000E940712A9
:1033C0000E94D31216CD81E0EBCF80E0E9CFC70198
:1033D0000E940907D82E08C32F2D2F70A22E8F2DE3
:1033E000807F19F0A29490EFA922DD20C9F0AA20D5
:1033F00069F080E28E0D883010F081100BC0809152
:10340000C802A82AA092C8020E94C4068E2D0E945B
:103410007A0D19C08091C702A82AA092C702F4CFE2
:103420008E2D0E94A50CAA2071F0A09480E28E0D32
:10343000883010F081103DC08091C802A822A0926F
:10344000C8020E94C406232D2850330B24303105B6
:1034500010F40E94A807CC2009F48ECC8091C502FC
:1034600080FD8ACCF80112828595859585950E940C
:10347000010CC8010E949A168091C5028595859518
:1034800085950F900F900F900F900F90DF91CF9137
:103490001F910F91FF90EF90DF90CF90BF90AF9072
:1034A0009F908F907F906F905F904F903F900C9483
:1034B000C20B8091C702A822A092C702C2CF3F2DA3
:1034C0003F70932E8F2D807F803219F0929480EF81
:1034D0009822882071F081E0881681F1DD20D9F1F1
:1034E000AA2091F1F801858180FF90CF8F708583AC
:1034F0002BC0DD20B1F09091C902892D892BA1103C
:1035000003C00E9472079FCFE1E0AE12FACF209174
:10351000CF0222FD98CF981709F495CF8093C90266
:1035200092CFA11006C00E94BE06892D0E94670797
:103530008ACFF1E0AF1609F486CFF5CFDD2031F068
:1035400025E02A1508F47FCF892DDBCF34E03A152A
:1035500008F479CFEACFAA2041F3F9E38F1209C02A
:103560002FEF37EE83E0215030408040E1F700C07C
:1035700000008E2D0E94A50C66CF8F2D8695869516
:10358000837061F0813009F05ECFC7019370D11074
:1035900002C090E080E00E947C0755CFC701937085
:1035A000D11002C090E080E00E9492074CCF8E2D97
:1035B000DD2029F00E94200D0E94580B44CF0E946C
:1035C0002C0CFACF8F2D837009F066C0D1103BCF41
:1035D0008E2D829586958770880F880F6E2D6F705F
:1035E000462E512C712C612C082E04C0440C551C05
:1035F000661C771C0A94D2F740E050E0BA01E4FE62
:103600000FC04FE050E060E070E004C0440F551F71
:10361000661F771F8A95D2F74095509560957095F3
:103620008F2D869586958370823019F1D8F480901D
:10363000CA029090CB02A090CC02B090CD02813013
:1036400069F04429552966297729CB01BA016821F7
:1036500079218A219B210E94220CF5CE48285928E5
:103660006A287B28CB01BA01642975298629972904
:10367000F2CF44295529662977294090CA025090F3
:10368000CB026090CC027090CD02CB01BA016425D0
:10369000752586259725DFCF8695DD2011F08F2DA6
:1036A0008170882309F4CFCE8E2D82958695877000
:1036B000880F880F6E2D6F70462E512C712C612C47
:1036C000082E04C0440C551C661C771C0A94D2F7C3
:1036D00040E050E0BA01E4FE0FC04FE050E060E08F
:1036E00070E004C0440F551F661F771F8A95D2F7FC
:1036F00040955095609570958F2D86958695837031
:10370000823019F1D8F480903E0390903F03A0904E
:103710004003B0904103813069F04429552966295E
:103720007729CB01BA01682179218A219B210E9446
:103730009C0B89CE482859286A287B28CB01BA01DE
:103740006429752986299729F2CF442955296629A4
:10375000772940903E0350903F0360904003709063
:103760004103CB01BA016425752586259725DFCF56
:103770009F2D9F70F92EDD2029F0892F0E94010CCA
:103780008E2DBFCE8E2D0E9467078F2D0E94C20BFB
:103790005ACE8E2DE2EF8E1609F457C0E81578F058
:1037A000F0EF8F1649F121EF821609F446C0DD20B3
:1037B00009F46FC0A1102ACE8F2D8F7143C033EF53
:1037C000831609F447C094EF8912F1CFDD2009F484
:1037D00055C02F2D2F71F22E822F0E94010C809147
:1037E000CF0282FD07C038E0F39EC0011124836040
:1037F0008093C5028F2D26C0DD20D1F0E4E0EA15CC
:1038000008F421CE2F2D2F7161E070E080E090E070
:1038100004C0660F771F881F991F2A95D2F7409022
:103820003E0350903F0360904003709041039BCF54
:10383000F5E0FA1508F407CEE5CF8F2D8F71DD2066
:1038400009F4A4CF0E94010CFECD8F2D8F71DD20D5
:10385000C9F39CCF60E070E0CB01DD2009F467CFB5
:103860002F2D2F7161E070E080E090E004C0660FC2
:10387000771F881F991F2A95D2F759CF81E00E94A0
:10388000E50B81E08A1508F0DECD82E00E94E50BB1
:10389000DACDAA2059F0893309F06BCE9FEFE7EE1D
:1038A000F3E09150E040F040E1F761CE8F2D8F7151
:1038B0006DCFF0E1EF16FFE5FF0609F493CB21E1B0
:1038C000E2162FE5F20609F497CB93EFE9169CE593
:1038D000F90609F4FACB08F091CBF8EDEF16FCE508
:1038E000FF0609F4EECB29EDE2162CE5F20609F409
:1038F000F8CB37EDE3163CE5F30609F090CB26E272
:1039000041EE61EEC8010E94481273CA30E1E3162D
:103910003FE5F30609F46CCB91E1E9169FE5F90662
:10392000A1F682E066CB85E0DE01119601900D9252
:103930008A95E1F7F801228189819A81211133CAA0
:103940000E940907F82E37CAF6E1EF16FCE5FF06DC
:10395000E1F58091590269E2811165E382E092E02C
:103960000E945F06C8CC82722AECE2162CE5F206B1
:1039700009F4EFCC08F084C095ECE9169CE5F90653
:1039800009F4D3CC08F063C0F3ECEF16FCE5FF06B6
:1039900009F4BFCC08F0C4CC32ECE3163CE5F306E6
:1039A00009F4ACCCFAE5EF16FDE5FF0609F40BCD02
:1039B00008F0E4CCE1143CE5F30609F4F4CC8EED18
:1039C000E8168CE5F80609F4FBCCF8018281E0806A
:1039D000F180882309F4FBCCC7010E941510D82E72
:1039E000682FC7010E943107B7018D2D0E948B0EF1
:1039F0007C01882EF801D280A580A2943FE0A3220A
:103A00008091C5028770A1F0CD2CDD2091F08F2D23
:103A1000807F803421F080E28E0D883048F082E093
:103A20000E94E50B8091C5028770CC24C39481115C
:103A3000C12C3F2C32942FE03222FBE0F31508F426
:103A400002CDE32DF0E0E957F44D0C944F2A97ECAA
:103A5000E9169CE5F90609F472CC08F46BCCF8EC95
:103A6000EF16FCE5FF0609F46FCC48E556E164E685
:103A700076E129ECE2162CE5F20609F44ECC92CF61
:103A80003FECE3163CE5F30609F476CCB0F4ECEC3D
:103A9000EE16ECE5FE0609F466CC08F45FCC2DECDE
:103AA000E2162CE5F20609F463CC85E03EECE31661
:103AB0003CE5F30609F45DCC75CF86EDE8168CE5A0
:103AC000F80640F482E191EDE9169CE5F90608F468
:103AD00050CC8FC9EDE5EE16FE0609F48AC962CF17
:103AE0001F93CF93DF9380916002807FA9F4809130
:103AF0005D02882389F080919202D09161026091E9
:103B00005B0270915C02A0915E02B0915F02C62FD1
:103B1000C72316E0D81304C0DF91CF911F910895F9
:103B200090E0109711F0CF3F19F401968770F2CF13
:103B3000189F9001199F300D1124F901EE59FD4F86
:103B400041814713F2CF40814613EFCF42814111AB
:103B5000ECCF438154814A1B5B0B483C510528F74D
:103B6000809160028F70806180936002F901E95951
:103B7000FD4F80818F70806180838BE592E00E9491
:103B80009A16DF91CF911F910C945D07AF92BF926F
:103B9000CF92DF92EF92FF920F931F93CF93DF9319
:103BA000CDB7DEB761970FB6F894DEBF0FBECDBFBD
:103BB0008C0185E0F801DE011D9601900D928A9539
:103BC000E1F7F80180819181E2802BE5A22E22E0CD
:103BD000B22E60915E0270915F026115710509F469
:103BE0003EC130915B0240915C02232F24232F3F82
:103BF00009F435C1C380D480F0905D02F601E61B64
:103C0000F70BFF2009F4FBC020916002522F507F78
:103C1000E83CF10508F0BBC0511178C0FE2C4913F7
:103C200021C038131FC0E1101DC02F7020612093E8
:103C30006002C5010E949A1680916002F801858396
:103C40008F2D61960FB6F894DEBF0FBECDBFDF910A
:103C5000CF911F910F91FF90EF90DF90CF90BF9089
:103C6000AF900895CD2829F0282F29232F3F09F060
:103C700014C120E0F22FF170DF2E20FF3DC0209113
:103C800092024091610256E0241315C08D879E87F1
:103C90008D859E850E945710292F22952F702230E6
:103CA000F8F0243020F59F70F9F0F8019581907FAD
:103CB000D9F4D12C1FC030E0529FF001539FF00D7A
:103CC0001124EE59FD4F6181961306C06081861361
:103CD00003C06281E61210C02F5F3F4F2770D4CF20
:103CE0009F7011F0882329F3805E883010F3C8019B
:103CF0000E949A16FD2CA4CFEE2009F4A1CF80914A
:103D00006002816080936002F12C9ACF491312C047
:103D1000381310C0E1100EC0F8012583C8010E94BD
:103D20009A1686E0F801ABE5B2E001900D928A9513
:103D3000E1F786CF8D879E878D859E850E946110D5
:103D4000882309F1EE20F9F080916002803270F052
:103D500020915B0230915C0238872F831986DB86C5
:103D6000CA868C87CE0107960E949A1686E0F801D3
:103D7000ABE5B2E001900D928A95E1F70E94701DCB
:103D8000FF24F3945DCFC8010E949A16F9CF511118
:103D90000AC08BE592E00E949A1686E0F501119226
:103DA0008A95E9F7B1CF49130FC038130DC0E11060
:103DB0000BC0F8012583C8010E949A1686E0F50120
:103DC00011928A95E9F73CCF8D879E878D859E85D8
:103DD0000E9461108823B9F2EE20A9F2809160025E
:103DE000803220F220915B0230915C023A83298379
:103DF0001B82DD82CC828E83CE010196B5CFE83C5A
:103E0000F105E0F6FE2CEE2009F4BDCF491316C0F3
:103E1000381314C08091600280FD83CF982F907F6B
:103E200009F47FCFF8018583903F09F477CF982F6D
:103E3000907F905F8F70892B858370CF8D879E8751
:103E40008D859E850E946110811190CF80916002C6
:103E5000816080936002C8010E949A16F1CEEE2024
:103E600009F491CF8D879E878D859E850E94611074
:103E7000F82E882309F487CF86E0F801ABE5B2E09D
:103E800001900D928A95E1F780915B0290915C021E
:103E90000E9457100E94701DD3CE21E02E25EACE3D
:103EA0001F93CF93DF93CDB7DEB767970FB6F89424
:103EB000DEBF0FBECDBF342F4B8B252F5C8B6D8BA0
:103EC0007E8B8F8B8E899F8961111092C7021A8A0F
:103ED000198A3D872E876F87998B888B86E0FE0134
:103EE0003D96DE01179601900D928A95E1F7CE017D
:103EF00007960E94C61D882389F016E080919202E1
:103F000090916102891349C067960FB6F894DEBF9D
:103F10000FBECDBFDF91CF911F91089586E0FE01C6
:103F20003796DE01119601900D928A95E1F78A8508
:103F30009B85892B11F38F81988589238F3FE9F227
:103F40002091610230E0C901019687709927409164
:103F500092024817190671F40E943E1310926102F2
:103F60001092920286E0EBE5F2E0DF011D928A9565
:103F7000E9F7C3CF96E0929FD001939FB00D112433
:103F8000AE59BD4FFE01319601900D929A95E1F721
:103F9000809361020E945D07B0CF819FC001112410
:103FA0008E599D4F0E94C61D882309F4ADCF809184
:103FB000920290E0019687709927809392029ECF9B
:103FC0006F927F929F92AF92BF92CF92DF92EF92C9
:103FD000FF920F931F93CF93DF9300D000D00F92E7
:103FE000CDB7DEB701E511E080EDE82E82E0F82ED6
:103FF00096E5A92E91E0B92E912CCC24C394D12C16
:10400000F80181918F01F894E82FE295EF70F0E0CC
:1040100021A18F70A60102C0440F551F8A95E2F7B7
:10402000CA01922F982B91A392A18095892382A3F4
:10403000789400C0E6E5F1E030E020E0712C612CDE
:104040004191A42FA295AF70B0E090968C9190E032
:104050004F7002C0959587954A95E2F780FD67C03D
:10406000C601022E02C0880F991F0A94E2F7682A3F
:10407000792A2F5F3F4F2F30310511F7F801319723
:1040800080810E94F00D50EA5A95F1F7F701808186
:1040900091816816790609F44DC07182608281E0D1
:1040A000982AF2E0EF0EF11CA016B10609F0A8CF95
:1040B000992009F441C081E0809324020E945306B4
:1040C00090932302809322028091220290912302F6
:1040D0000E9438060697A0F18091D0029091D102FB
:1040E00090930203809301038091D2029091D302B6
:1040F00090930403809303038091D4029091D5029E
:1041000090930603809305038091D6029091D70285
:1041100090930803809307038091D8029091D9026D
:1041200090930A03809309031092240209C090E03F
:1041300080E09DCF80E0B4CF809124028111C4CF74
:104140008091E5028823A9F0869539F183E089837F
:1041500084E08A831B820E9453068160782F9D83AE
:104160008C831092E50249815A816B818D810E9476
:10417000501F892D0F900F900F900F900F90DF918F
:10418000CF911F910F91FF90EF90DF90CF90BF9054
:10419000AF909F907F906F90089584E08983D9CFEE
:1041A000E5E4F3E0248130E1230F08F42FEF2483CA
:1041B0000C941A16E5E4F3E0248130E1231B08F4A3
:1041C00020E024830C941A16E5E4F3E085E3808371
:1041D0008091150190911601A0911701818392831E
:1041E000A3838FE784838FEF85830C941A161F9225
:1041F0000F920FB60F9211242F933F934F935F931B
:104200006F937F938F939F93AF93BF93CF93DF93DE
:10421000EF93FF93D091E900DF708091EC00C82FFD
:10422000C17080FDC0E81092E9008091F000877FA6
:104230008093F00078940E9453131092E9008091CB
:10424000F00088608093F000CD2BCF70C093E90020
:10425000FF91EF91DF91CF91BF91AF919F918F919E
:104260007F916F915F914F913F912F910F900FBE72
:104270000F901F9018951F920F920FB60F92112456
:104280002F933F934F935F936F937F938F939F935E
:10429000AF93BF93EF93FF938091E10082FF09C03A
:1042A0008091E20082FF05C08091E1008B7F8093C6
:1042B000E1008091DA0080FF24C08091D80080FF67
:1042C00020C08091DA008E7F8093DA008091D9003F
:1042D00080FF9BC080E189BD82E189BD09B400FEF9
:1042E000FDCF81E08093300380910B03811109C0E1
:1042F0000E9478030E9443048091E20084608093CE
:10430000E2008091E10080FF17C08091E20080FF11
:1043100013C08091E2008E7F8093E2008091E200E2
:1043200080618093E2008091D80080628093D80001
:1043300019BC85E0809330038091E10084FF29C09F
:104340008091E20084FF25C080E189BD82E189BDC2
:1043500089B5982F917080FFFBCF8091D8008F7D19
:104360008093D8008091E1008F7E8093E10080915E
:10437000E2008F7E8093E2008091E2008160809372
:10438000E20080913103882309F445C084E08093E2
:1043900030038091E10083FF27C08091E20083FF1A
:1043A00023C08091E100877F8093E10082E08093C9
:1043B0003003109231038091E1008E7F8093E10001
:1043C0008091E2008E7F8093E2008091E200806124
:1043D0008093E20042E060E080E00E94110480915E
:1043E000F00088608093F000FF91EF91BF91AF9152
:1043F0009F918F917F916F915F914F913F912F91FD
:104400000F900FBE0F901F90189519BC109230039B
:1044100010920B0376CF8091E30087FD93E0909399
:104420003003B7CFCDB7DEB7AC970FB6F894DEBF89
:104430000FBECDBF84B7877F84BF0FB6F894A89511
:1044400080916000886180936000109260000FBED0
:1044500080E890E00FB6F89480936100909361003B
:104460000FBE85B7806885BF85B7806885BF83E349
:1044700096E090930102809300020E9478030E94CC
:1044800043048091E20084608093E20078948091FC
:1044900030038823A1F01091E9001F709091EC0087
:1044A000892F817090FD80E8182B1092E90080918F
:1044B000E80083FD0E9453131F701093E90082E00F
:1044C00084BD93E095BD9AEF97BD80936E0080E91F
:1044D0000E94F00D81E90E94F00D82E90E94F00D2A
:1044E00083E90E94F00D87E30E94F00D06E511E0DC
:1044F000E5E6EE2EE1E0FE2EF80181918F010E94AB
:10450000F00DE016F106C1F71092D1021092D00220
:1045100010920203109201031092D3021092D20261
:1045200010920403109203031092D5021092D40249
:1045300010920603109205031092D7021092D60231
:1045400010920803109207031092D9021092D80219
:1045500010920A031092090390E080E00E94D02A92
:104560008A3E9E4F11F00E94D31282E090E00E949A
:10457000C82A8093F6020E944A0E9093CF0280933D
:10458000CE020E94E01F8FE39CE90197F1F700C083
:1045900000000E94E01F8091010380FF17C06FEFB1
:1045A00083E290E00E94E62A6FEF84E290E00E94AE
:1045B000E62A6FEF85E290E00E94E62A6FEF7FEF38
:1045C00090E080E00E94042B0E94071283E090E0BC
:1045D0000E94C82A682F70E090E080E00E94220CC0
:1045E00090E080E00E94D02A8A3E9E4F21F00E94F7
:1045F000D3120E94E42046E050E06CE170E085E4D4
:1046000093E00E94B82A809145038C7F11F40E94A8
:10461000E42083E290E00E94C82A813209F0A0C61B
:1046200084E290E00E94C82A803109F099C685E2B0
:1046300090E00E94C82A893209F092C62198299AEE
:1046400022982A9A83B1869581701A99E1C190E0E7
:10465000892B8093E80286E091E09093DB028093BF
:10466000DA0258E1452E512C60E4B62E7BE0E72EAD
:1046700073E0F72E8091300300E112E1853009F4F8
:10468000FEC10E94E01F81110E944706A1E0B3E035
:10469000E7EFF2E010E000E0702F8D919D91219105
:1046A00031912817390709F4FAC12827392760E022
:1046B00088248394912CA90148215921452B09F480
:1046C000E8C169A37AA39C012821392191E0232B19
:1046D00009F490E09BA30E9453068160782F9DA36C
:1046E0008CA349A15AA16BA18DA10E94501F000F5C
:1046F000111FF801E950FD4F80819181882699268C
:10470000918280820E9447066093DD027093DE02F0
:104710008093DF029093E00230914503F32FF37012
:104720007F2E19F0732E7694769420911401213007
:1047300009F4DAC1222309F4C9C1223009F466C49C
:10474000233009F46CC4E091E802EE0FEE0FE09321
:10475000E80283B181FBCC24C0F81A997FC480E0C1
:104760008C29E82BE093E802EF70F0E0EB59FE4F64
:1047700080819091E702890F8093E70220E08430E6
:10478000CCF08091E6028F5F8093E60284E089831B
:104790008A8311E01B830E9453068160782F9D83DA
:1047A0008C831093E50249815A816B818D810E942F
:1047B000501F21E08091E7028D3FDCF48091E602FA
:1047C00081508093E60283E0898384E08A8381E0DC
:1047D0008B830E9453068160782F9D838C8382E0B7
:1047E0008093E50249815A816B818D810E94501F1F
:1047F00021E08091E702082E000C990B64E070E044
:104800000E943B2A8093E70221110E94470686E01E
:10481000EFEEF2E0DE01119601900D928A95E1F73C
:10482000A090F1029090F2021091F3020091F40234
:104830001092F1021092F2021092F3021092F4021E
:104840008A2D892909F448C08091ED029091EE02E9
:104850000E9438069C019091EC02992309F4A7C5A7
:1048600023333105C8F19F3F19F09F5F9093EC020D
:10487000AA2059F00E94000D9FEF1A140CF491E049
:10488000899F802D11248093F102992059F00E9474
:10489000000D9FEF19140CF491E0899F802D1124D5
:1048A0008093F2023091F1023323B1F02091F202B1
:1048B000222391F045EB3403C0011124992309F41C
:1048C000D0C39093F10245EB2403900111243323CC
:1048D00009F4CBC33093F202812F802B09F448C036
:1048E0008091EA029091EB020E9438069C0190911F
:1048F000E902992309F456C525363105C8F19F3FD1
:1049000019F09F5F9093E902112359F00E94DE0C89
:104910009FEF11160CF491E0899F802D1124809354
:10492000F302002359F00E94DE0C9FEF10160CF4E6
:1049300091E0899F802D11248093F4023091F3023D
:104940003323B1F02091F402222391F045EB34039C
:10495000C0011124992309F48CC39093F30245EB11
:10496000240390011124332309F487C33093F40204
:104970008091F1029091F202892B9091F302892BA0
:104980009091F402892B11F00E94580B86E0FE01F1
:104990003196AFEEB2E001900D928A95E1F70E9458
:1049A000A8079091F502891721F00E94A80780932B
:1049B000F50280913003843009F05CCE83E080936F
:1049C000E9008091E80082FF55CE8091E80090E0F8
:1049D00085FF0CC00E94970330E2832E912C8E013C
:1049E0000F5F1F4F882309F456C391E08091E800C0
:1049F0008B778093E800992309F43CCEE981E1505C
:104A0000E33108F0CEC3F0E0ED56F44D0C944F2A9C
:104A100092E01ECE80913003843009F11092DC02C6
:104A20000FB6F894A895409260000FBEB092600057
:104A300083B7817F846083BF83B7816083BF7894AD
:104A4000889583B78E7F83BF0FB6F894A895809121
:104A50006000886180936000109260000FBE8091BA
:104A60002F03882361F00E94E01FE1E0F3E08191D1
:104A70009191892B09F05EC4EE16FF06C1F7809173
:104A80003003853009F4C6CF0E943E130E94A80768
:104A9000F8CD6F5F880C991C6F3009F00CCE0F5F5A
:104AA0001F4F0530110509F0F7CD8FEF8EA38FA3AF
:104AB00018A60E9453068160782F9AA789A74EA155
:104AC0005FA168A58AA50E94501F1CCE10921101FB
:104AD00060933A0370933B0380933C0390933D03B0
:104AE00081E0809314012FCE9091050181E079122D
:104AF0000BC0832F83702091040130E091E0821776
:104B0000130609F490E0892F81708093130180913E
:104B10004A0390911201981739F08093120140E0F6
:104B200060E080E00E94CF072BE1271550F0E72DD1
:104B3000F0E0EA55F44D0C944F2A80911301811155
:104B400002C010E064C040E060E080E00E94CF0757
:104B5000F8CF00911101000F000F64E0A62EA00E07
:104B60009A2C30E13A1510F450E1952E60914603ED
:104B700070914703809148030E944309862E372E87
:104B8000682E10E0091530F011E04FE04A1508F0EA
:104B90003EC0D7CFF801E151FE4F808190911201C4
:104BA000892331F0262D482D632DC8010E94D1079D
:104BB0000F5F1F4FE7CF00911101000F000F84E03E
:104BC000800F8BA7982E813110F040E1942E309009
:104BD00047032090480310914603612F732D822DC7
:104BE0000E944309862E672EA82E60914903610F0B
:104BF000732D822D0E944309362E7CA7282E10E0AB
:104C00000915B8F011E09BA5903108F09ACF80917A
:104C100011018F5F80931101111195CD82E0809376
:104C200014018091130181118ECD71108CCD83E020
:104C300058CFF801E151FE4F9081809112018923F4
:104C400059F0222D432D6CA590FD03C02A2D482D2F
:104C5000662DC8010E94D1070F5F1F4FD1CF009171
:104C60001101000F000F34E0A32EA00E8A2CE0E10A
:104C7000EA1510F420E1822E30904703609048033B
:104C8000209149033B2D329F312D1124932E10E0AA
:104C9000081508F079CFF801E151FE4F808190911D
:104CA00012018923B9F0F801EE0FFF1FE053FE4F08
:104CB000808182958F7060914603899D600D1124DB
:104CC000732D862D0E944309462F282F672FC80178
:104CD0000E94D1070F5F1F4FDBCF00911101000F22
:104CE000000F84E0A82EA00E8A2C80E18A1510F413
:104CF00010E1812E309047036090480320914903D2
:104D00003B2D329F312D1124932E10E0081508F011
:104D10003BCFF801E151FE4F808190911201892330
:104D2000D9F0F801EE0FFF1FE153FE4F6081969E10
:104D3000B0011124B5E075956795BA95E1F78091BA
:104D40004603680F732D862D0E944309462F282F96
:104D5000672FC8010E94D1070F5F1F4FD7CF009167
:104D60001101000F000FF4E0AF2EA00E9A2C80E18D
:104D70008A1510F4E0E19E2E8090460310914703BF
:104D800060904803609149036695669566958091A9
:104D90003A0390913B030E9439090E949F08805872
:104DA00087FD8195880F282F362D239F212D1124D3
:104DB000822F682D712F0E944309862E372E682E70
:104DC00010E0091508F0E0CEF801E151FE4F8081B6
:104DD00090911201892331F0262D482D632DC801B1
:104DE0000E94D1070F5F1F4FECCF8AE096E00E9430
:104DF000AC0A07C080EE95E0FACF81E898E00E9407
:104E0000520A182F04CF82E698E0F9CF87E498E0A1
:104E10000E94D709F6CF8BE298E0FACF8EED95E0AD
:104E2000E6CF85ED95E0E3CF8CEC95E0E0CF83EB2A
:104E300095E0DDCF85EA95E0EBCF81E199E0DFCF2A
:104E40008AE198E0DCCF86E098E0E2CF88E795E061
:104E50000E94F80AD6CF8AE495E0FACF83E195E084
:104E6000F7CF1091130111111EC06091490320E189
:104E7000620F08F46FEF80913A0390913B030E9418
:104E800039096AE070E00E94272A892B09F059CE7F
:104E90000E94A82A60E170E00E943B2A6091120102
:104EA0000E942611B4CE80901101880C880C74E009
:104EB000A72EA80C0A2D80E18A1508F400E1912C98
:104EC00010E08016910634F011E0EFE0EA1508F0EA
:104ED0009ECE37CE60911201C4010E9426119FEF31
:104EE000891A990AEECF1091130111111EC0609119
:104EF000490320E1620F08F46FEF80913A0390912B
:104F00003B030E94390965E070E00E94272A892B43
:104F100009F017CE0E94A82A60E170E00E943B2AA7
:104F2000609112010E94041172CE80901101880CD0
:104F3000880C64E0A62EA80C0A2DF0E1FA1508F4FE
:104F400000E1912C10E08016910634F011E03FE072
:104F50003A1508F05CCEF5CD60911201C4010E94B3
:104F600004112FEF821A920AEECF00911101000F67
:104F7000000F54E0A52EA00E9A2C40E14A1510F423
:104F800040E1942E609047038090480310914603BF
:104F90006091490366956695669580913A03909174
:104FA0003B030E9439090E949F08805887FD819524
:104FB000880F682F2CE0629F612D1124610F762DE0
:104FC000882D0E944309862E372E682E10E0091581
:104FD00030F011E08FE08A1508F019CEB2CDF8015B
:104FE000E151FE4F808190911201892331F0262DED
:104FF000482D632DC8010E94D1070F5F1F4FE7CFD7
:105000008EEB98E0F4CE82E095E0F1CE709205014F
:10501000832F8370809304010E94AC1208CE4091CC
:105020003A0350913B0360913C0370913D032FB7CD
:10503000F8948091E1029091E202A091E302B09194
:10504000E4022FBF841B950BA60BB70B4097A1055D
:10505000B10508F478CB1092140175CB82E090E092
:105060007FCB81E08093F1022ECC81E08093F2022D
:1050700033CC81E08093F30272CC81E08093F40220
:1050800077CC8091F100F80181938F01F1E08F1AC4
:10509000910809F4AACC8091E80085FDF2CF8091B7
:1050A000E8008B778093E8000E949703882399F3A8
:1050B0009CCC1A8289E08B8311C08A81823009F4EA
:1050C00068C1833091F1813009F06BC00E944706BE
:1050D0000E94552A6B837C838D839E83809130034D
:1050E000843009F0C7CA1091E9001F709091EC005C
:1050F000892F817090FD80E8182B82E08093E90071
:105100008091E80080FF0DC050E040E060E270E078
:10511000CE0101960E94C8038091E8008E778093AB
:10512000E8001F701093E900A5CA809101039091D7
:1051300002039827892798279C838B8380910303F8
:10514000909104039827892798279E838D838091C7
:1051500005039091060398278927982798878F83BE
:1051600080910703909108039827892798279A87A9
:1051700089878091090390910A03982789279827A6
:105180009C878B87ABCF8A81823059F46B817C817D
:105190008D819E810E94552A86E290E00E94E62A37
:1051A0009DCF8FEF89839ACF4C816B818A810E943A
:1051B000580E9827892798279E838D838FCF0D813E
:1051C0001E811027012710278A818B802EE1829E65
:1051D0004001112436E9839F800C911C11248C819D
:1051E00090E0880F991F880E991E612FC401879641
:1051F0000E94E62A602FC4018896D0CF0E948510B5
:105200006DCF80E18A836ACF81E08A8381E853CFC2
:105210000A811B81102701271027CE0101963C012E
:105220008C80FC01E80DF11D4F01C80181589D4F94
:105230006814790409F452CF0138F1E01F0750F4E3
:105240000E94C82AF30184830F5F1F4FFFEF6F1A7C
:105250007F0AEBCFF3011482F7CF0A811B8110275D
:10526000012710279E012F5F3F4F39018C80800E50
:10527000912E911CC80181589D4F0815190509F4FC
:105280002DCF013831E0130720F4F30164810E942F
:10529000E62AFFEF6F1A7F0A0F5F1F4FEBCF0E94C6
:1052A000F4101CCF84E0AECF0A811B8110270127A8
:1052B00010279E012F5F3F4F39018C80C901880D57
:1052C000911D4C01C80187968614970409F406CFF6
:1052D0000835E2E01E0750F40E94C82AF3018483D7
:1052E0000F5F1F4FFFEF6F1A7F0AECCFF30114829D
:1052F000F7CF0A811B811027012710279E012F5FFE
:105300003F4F39018C80800E912E911CC8018796E9
:105310000815190509F4E2CE083532E0130720F428
:10532000F30164810E94E62AFFEF6F1A7F0A0F5F84
:105330001F4FECCF09BD19BD09B400FEFDCF809110
:10534000D8008F7D8093D8008091E00082608093A8
:10535000E0008091E00081FDFCCF0E943E138FCBE6
:1053600060E086E290E00E94E62A0E9485100E949A
:10537000F41061E283E290E00E94E62A60E184E2B8
:1053800090E00E94E62A69E285E290E00E94E62A27
:1053900055C986E290E00E94C82A1B821C821D82A9
:1053A0008E839CCE2D32314008F0ABCAE1CA2D323B
:1053B000314008F05ACA90CA78941F921FB61F92C3
:1053C00011248F939F93AF93BF938091E1029091AB
:1053D000E202A091E302B091E4020196A11DB11D89
:1053E0008093E1029093E202A093E302B093E4027F
:1053F000BF91AF919F918F911F901FBE1F901895E5
:105400001F921FB61F9211248F939F93AF93BF9348
:105410008091DC02811113C08091E1029091E2023F
:10542000A091E302B091E4024196A11DB11D8093C9
:10543000E1029093E202A093E302B093E402BF91F1
:10544000AF919F918F911F901FBE1F901895AA1B1F
:10545000BB1B51E107C0AA1FBB1FA617B70710F05F
:10546000A61BB70B881F991F5A95A9F78095909591
:10547000BC01CD01089597FB072E16F4009407D0C8
:1054800077FD09D00E94272A07FC05D03EF49095AD
:1054900081959F4F0895709561957F4F0895EE0F08
:1054A000FF1F0590F491E02D09946927962769273D
:1054B00078278727782708958F929F92AF92BF927F
:1054C000CF92DF92EF92FF92CF93DF93EC0168814E
:1054D00079818A819B81611571058105910521F48E
:1054E00064E279ED8BE597E02DE133EF41E050E0A8
:1054F0000E940A2B49015A019B01AC01A7EAB1E4C1
:105500000E94292B6B017C01ACEEB4EFA501940144
:105510000E94372BDC01CB018C0D9D1DAE1DBF1DE4
:10552000B7FF03C00197A109B04888839983AA8374
:10553000BB839F77DF91CF91FF90EF90DF90CF906B
:10554000BF90AF909F908F9008950E945C2A08951D
:1055500080E091E00E945C2A0895B0E0A0E0809392
:10556000000190930101A0930201B09303010895FB
:10557000DC01CB01FC01F999FECF06C0F2BDE1BD13
:10558000F89A319600B40D9241505040B8F7089502
:10559000F999FECF92BD81BDF89A992780B50895FB
:1055A000A8E1B0E042E050E00C94BA2ADC01A40F7C
:1055B000B51F4150504048F0CB01840F951F2E91EC
:1055C0000E94E72A41505040D0F70895262FF999BC
:1055D000FECF92BD81BDF89A019700B4021639F052
:1055E0001FBA20BD0FB6F894FA9AF99A0FBE089523
:1055F0000396272F0E94E72A0E94E62A252F0E9461
:10560000E72A242F0C94E72A0196272F0E94E72AE5
:105610000C94E62A052E97FB1EF400940E94212B81
:1056200057FD07D00E943C2B07FC03D04EF40C948E
:10563000212B50954095309521953F4F4F4F5F4F0F
:10564000089590958095709561957F4F8F4F9F4FEE
:1056500008950E945E2BA59F900DB49F900DA49F6E
:10566000800D911D11240895B7FF0C94292B0E94E1
:10567000292B821B930B0895A1E21A2EAA1BBB1B98
:10568000FD010DC0AA1FBB1FEE1FFF1FA217B3070E
:10569000E407F50720F0A21BB30BE40BF50B661F24
:1056A000771F881F991F1A9469F7609570958095E8
:1056B00090959B01AC01BD01CF010895A29FB0015F
:1056C000B39FC001A39F700D811D1124911DB29F36
:1056D000700D811D1124911D0895F894FFCF701055
:1056E0007010791079107B10791079107910701082
:1056F0007010801079107910801038146014B31471
:105700006014B3149314CB14B314C815D515EC1945
:10571000EC195F1A5F1ABD1AD71A231A231AE21A54
:10572000B81BC91BC91B59285D28C328D428DF28EA
:10573000FE28D128D128D128D128D128012904290F
:1057400008292D294F295229542979299D25A92530
:10575000DB252F266D26AF26F526FA26FD26032704
:1057600006270B270E271127142717271A271D276F
:105770002027232726272B272E2731277327B527D6
:0457800000280328D2
:1057840001000000FFFF3506C711A611A2119E11EA
:105794000100FF000300FFFF003131295A1B750A85
:1057A400818283E200E900EA00B500B600B700CDCB
:1057B400008301CC008A0192019401210223022476
:1057C400022502260227022A02B300B4006F0070E9
:1057D4000090919293379694676636353497F7F133
:1057E400F4F5F6C6F000FF0100010000FFFF000021
:1057F400010001FF004022B684016201AC00DE0515
:10580400F70517060001020304050607000000005F
:1058140000000008090A0B0C0D0E0F000000000028
:105824000000000000000000000000000000000074
:105834000000000000000000000000000000000064
:10584400000000000000000000000000000000AFA5
:105854002D822D552D322D0F2D0F230F190F0A32A6
:105864000A550A820AAF0AD20AD219D223D22D01CA
:105874000101010101010101010101010101010015
:00000001FF
