:100000000C944F030C9496030C9496030C94960353
:100010000C9496030C9496030C9496030C949603FC
:100020000C9496030C9496030C94162E0C94EA2EC2
:100030000C9496030C9496030C9496030C949603DC
:100040000C9496030C94E6280C9496030C94960357
:100050000C9496030C947B280C9496030C949603B2
:100060000C9496030C9496030C9496030C949603AC
:100070000C9496030C9496030C9496030C9496039C
:100080000C9496030C9496030C9496030C9496038C
:100090000C9496030C9496030C9496030C9496037C
:1000A0000C9496030C9496030C94960329001E005E
:1000B0001F0020002100220023002400250026002C
:1000C00027002D002E002A004C002B0014001A00DF
:1000D0000800150017001C0018000C001200130087
:1000E0002F00300031004B003900040016000700DB
:1000F00009000A000B000D000E000F003300340051
:10010000280028004E00E10001001D001B00060031
:100110001900050011001000360037003800E50016
:1001200052004D00E000E300E200A900AA00010037
:100130002C00010001000100E600015150005100B7
:100140004F0035003A003B003C003D003E003F00C0
:100150004000410042004300440045000100C55CEE
:10016000C25C01000100010001000100010001006A
:10017000010001000100010001000100C65C010056
:100180000100010001000100010001000100010067
:1001900001000100010001005300C75C01000100E3
:1001A0000100010001000100010001000100010047
:1001B000010001004700C95CC85C010001000100AA
:1001C0000100010001000100010001000100C35C09
:1001D0000100CC5CCA5CCB5C0100010001000100A5
:1001E0000100010001000100010001000100010007
:1001F00001000100010001000100010001000100F7
:1002000001000100010001000100010001000100E6
:1002100001000100010001000100010001000100D6
:1002200001000100010001000100010001000100C6
:1002300001000100010001000100010001000100B6
:1002400001000100010001000100010001000100A6
:100250000100010001000100010001000100010096
:100260000100010001000100010001000100010086
:100270000100010001000100010001000100010076
:100280000100010001000100010001000100010066
:100290000100010001000100010001000100010056
:1002A0000100010001000100010001000100010046
:1002B0000100010001000100010001000100010036
:1002C0000100010001000100010001000100010026
:1002D0000100010001000100010001000100010016
:1002E0000100010001000100010001000100010006
:1002F00001000100010001000100010001000100F6
:100300000100010000000000000000002A2B28006E
:1003100000000000000000000000000000000029B4
:10032000000000002C1E3420212224342627252EF4
:10033000362D3738271E1F2021222324252633332C
:10034000362E37381F0405060708090A0B0C0D0E58
:100350000F101112131415161718191A1B1C1D2F24
:100360003130232D350405060708090A0B0C0D0E44
:100370000F101112131415161718191A1B1C1D2F04
:100380003130354C0000000000000000000000008B
:10039000000000000000000000000000000000005D
:1003A00000000000000000007E0F00D4FFFFFFC728
:1003B00000000078000101010101010101010202B8
:1003C0000202020202020203030303030303030403
:1003D00004040404040405050505050606060606CE
:1003E000070707070708080808090909090A0A0A88
:1003F0000B0B0B0C0C0C0D0D0D0E0E0E0F0F0F102A
:1004000010111111121213131414151516161717B3
:10041000181819191A1A1B1B1C1D1D1E1E1F20201F
:10042000212222232424252626272829292A2B2C69
:100430002D2D2E2F30313232333435363738393A8C
:100440003B3C3D3E3F404142434445464748494A84
:100450004C4D4E4F50515354555658595A5B5D5E52
:100460005F616264656668696B6C6D6F70727375ED
:1004700077787A7B7D7E8082838587888A8C8E8F51
:1004800091939596989A9C9EA0A2A3A5A7A9ABAD7F
:10049000AFB1B3B5B7BABCBEC0C2C4C6C9CBCDCF6D
:1004A000D1D4D6D8DBDDDFE2E4E7E9EBEEF0F3F51B
:1004B000F8FAFDFF0000000000000000000000014D
:1004C0000204060A0F17202C3A4A5D71879DB3C7B4
:1004D000DAE9F5FCFFFCF5E9DAC7B39D87715D4AFF
:1004E0003A2C20170F0A0604020100000000000049
:1004F000000000000A034D005700360035000000E0
:1005000012034D0057005300740075006400690029
:100510006F0000000403090409025B00030100A04E
:10052000FA09040000010301010009211101000181
:100530002240000705810308000A090401000203A4
:100540000000000921110100012222000705820399
:100550002000010705030320000109040200010334
:1005600000000009211101000122B60007058403E3
:1005700020000A1201100100000008A17B016501A2
:1005800000010200010660FF0961A1010962150076
:1005900026FF009520750881020963150026FF00DB
:1005A000952075089102C005010902A10185020983
:1005B00001A10005091901290815002501950875F3
:1005C0000181020501093009311581257F950275E8
:1005D00008810609381581257F9501750881060572
:1005E0000C0A38021581257F950175088106C0C067
:1005F00005010980A101850319012AB7001501260B
:10060000B700950175108100C0050C0901A1018595
:100610000419012AA002150126A002950175108176
:1006200000C005010906A1018505050719E029E7B4
:10063000150025019508750181020507190029EFAC
:100640001500250195F0750181020508190129059C
:10065000950575019102950175039101C005010988
:1006600006A101050719E029E71500250195087580
:100670000181029501750881010507190029FF15FF
:100680000026FF0095067508810005081901290557
:10069000950575019102950175039101C000112422
:1006A0001FBECFEFDAE0DEBFCDBF04B603FE27C02A
:1006B00080919A0390919B03A0919C03B0919D031C
:1006C0008730904BA740B04BD1F410929A03109210
:1006D0009B0310929C0310929D0314BE84B7877FE6
:1006E00084BF0FB6F894A8958091600088618093CC
:1006F0006000109260000FBEE0E0F8E3099512E0A0
:10070000A0E0B1E0E6E6F4E602C005900D92A23466
:10071000B107D9F723E0A2E4B2E001C01D92AA39E3
:10072000B207E1F70E94D42A0C94E2310C94000045
:100730000C944B080C944C080C94A10390E080E0BE
:10074000089581E00895262F811112C06091E7027B
:100750007091E8028091E9029091EA02222351F01F
:100760000E94B80543E064E00E947A170E94B21D1F
:1007700081E008950E94B80544E0F5CF81E0089536
:1007800008950C94C0031F93CF93DF9300D000D043
:100790000F92CDB7DEB749835A836B8330917C02C9
:1007A00089819A8131111DC06623B9F02223A9F0F5
:1007B0000E941D25182F682F89819A810E94C924C3
:1007C00069817A81812F0F900F900F900F900F9079
:1007D000DF91CF911F910C9430180E94F524182FAF
:1007E000EFCF0E941D2569817A81EDCFFC01262F74
:1007F000408151816281738184810C94C303CF93C2
:10080000DF93EC0160E00E94F603BE01DF91CF911F
:100810000C94C1038F929F92AF92BF92CF92DF92BE
:10082000EF92FF920F931F936B017C0181E090E0A8
:10083000A0E0B0E04C015D0104C0880C991CAA1C2A
:10084000BB1C4A95D2F7B501A4014C015D0104C05F
:10085000880C991CAA1CBB1C2A95D2F74829592937
:100860006A297B2904C0880F991FAA1FBB1F0A95FC
:10087000D2F78A019B010C211D212E213F21041753
:1008800015072607370789F48C299D29AE29BF292A
:10089000BC01CD011F910F91FF90EF90DF90CF90A1
:1008A000BF90AF909F908F90089580959095A09560
:1008B000B0958C219D21AE21BF21EACF0F93382F17
:1008C000262F6091E7027091E8028091E9029091F1
:1008D000EA02042F432F0E940A040F910C9407246C
:1008E0000E9427080E94EE130C9498030C949A031C
:1008F00008950E9433200E9478042FEF84E39CE047
:10090000215080409040E1F700C000000C949F28E7
:100910000F931F93CF93DF938C0161E00E94F60346
:10092000EC01B8010E947816882309F441C0B8018F
:10093000CE010E949C038823D9F1B801CE010E9408
:1009400067198823A9F1B801CE010E94B91988233B
:1009500079F1B801CE010E94DC1A882349F1B8016F
:10096000CE010E940015882319F1F80182818823A5
:1009700061F0CA35FDE5DF0721F170F4C115ECE542
:10098000DE07A1F0CE3DDC45C9F0C801DF91CF9173
:100990001F910F910C94BE03CB358DE5D807A1F0C4
:1009A000CC35DD4591F70E94C425EFCF0E94790434
:1009B00080E0DF91CF911F910F9108950E943D2714
:1009C000F7CF0E94CD25E1CF0E94D025DECFDF9268
:1009D000EF92FF920F931F93CF93DF93E82FF0E0F6
:1009E000EC5FFC4FD490282F26952695269530E075
:1009F000F901EC55FC4F0491877010E0082E02C0FD
:100A0000159507950A94E2F701701127F901EC5644
:100A1000FC4FE490F12C082E02C0F594E7940A9460
:100A2000E2F791E0E922FF24F901EC57FC4FC49171
:100A3000D0E002C0D595C7958A95E2F7C170DD2751
:100A40000115110519F081EE0E94B31CE114F104A7
:100A500019F086EE0E94B31C8D2D0E94B21DEF2866
:100A600019F086EE0E94451D012B19F081EE0E94BF
:100A7000451DCD2B51F08CE2DF91CF911F910F914D
:100A8000FF90EF90DF900C94B21DDF91CF911F91FA
:100A90000F91FF90EF90DF900895EF92FF920F93E8
:100AA0001F93CF93DF93EC01162F0AE088818823F0
:100AB00009F454C0813009F04EC08981813099F425
:100AC0007E0122E0E20EF11C8A810E94B21DE70144
:100AD0002196812F815050F3EFE9FFE03197F1F734
:100AE00000C00000F7CF823041F47E0182E0E80EC2
:100AF000F11C8A810E94B31CEACF833041F47E014D
:100B0000E2E0EE0EF11C8A810E94451DE0CF8430A8
:100B100011F02196DDCF2A81229690E080E0AE018F
:100B20004F5F5F4F2053330B2A30310548F0019758
:100B300078F2EFE9FFE03197F1F700C00000F7CF5E
:100B4000089FB001099F700D1124C901860F971FDE
:100B50002981EA01E4CF0E94E704BACFDF91CF9167
:100B60001F910F91FF90EF90089560E00C944D0558
:100B7000CF92DF92EF92FF926C01EE24FF2420E0EF
:100B8000C114D104E104F10419F0C701B60120E158
:100B9000C72ED82EE92EFF24C114D104E104F1049C
:100BA00019F0285FC701B6016B017C0154E0F6948F
:100BB000E794D794C7945A95D1F7C114D104E104AE
:100BC000F10419F02C5FC701B6016B017C0142E012
:100BD000F694E794D794C7944A95D1F7C114D104F9
:100BE000E104F10419F02E5FC701B60196958795CF
:100BF00077956795672B682B692B09F02F5F822FFC
:100C0000FF90EF90DF90CF90089508950C94050623
:100C100081E008950C940806CF93C82F0E94060621
:100C20008C2FCF910C940A060895FC01EE0FFF1F44
:100C3000EC54FC4F859194910895CF93DF930E94DB
:100C400030180E943207EC01811520E5920708F068
:100C500042C0811530E4930708F0BDC0883E91057D
:100C600028F5803E910508F09DC0883A910588F4EA
:100C7000853A910508F08FC08130910509F492C042
:100C8000009709F48FC0049708F08CC0D0E0C0E052
:100C900089C08F3B910508F489C0805C9109C03CF4
:100CA000D105A0F30E941506EC017CC0811590428D
:100CB00050F4C11581E0D80708F074C0C03FD105D9
:100CC00028F3D0656FC0C11590E3D90708F079C04B
:100CD000CE019F70E7CF811525E5920758F5811564
:100CE00034E5930708F0A6C0811542E5940750F457
:100CF000C11581E5D80708F471C0DC2FCC27C16F7E
:100D0000D06A50C0982F969596959E0123703327F0
:100D1000C115D34508F07FC0C1E0D0E002C0CC0FC0
:100D2000DD1F2A95E2F720E2929FC0011124C82B13
:100D3000D92B6FC0C11589E5D807A8F4C11598E56E
:100D4000D90708F07CC0C11526E5D20708F09ECF70
:100D50008C2F0E94C907C82FD0E0DC2FCC27CC27CE
:100D6000DF71D0621FC0C1153AE5D30708F46CC02B
:100D7000CE0190568115904208F088CF8D2F8F714B
:100D80000E94C90790E0982F882788279F719C01AF
:100D90002C2BE901E6CFC55AD0E0C553DE4FC88100
:100DA000D0E0D064CE01DF91CF910895C85AD0E051
:100DB000CC0FDD1FC356DE4F0990D881C02DD464FF
:100DC000F1CFCE019927D3FF03C0EC01D86CEACF55
:100DD000EC01D06CE7CFDF70D06AE4CFCE01E4E065
:100DE00096958795EA95E1F783702C2F26952695A1
:100DF000237090E2299F90011124382B8C2F83704F
:100E0000C1E0D0E002C0CC0FDD1F8A95E2F7C22B13
:100E1000D32BDC68C7CFC1E0D0E002C0CC0FDD1F10
:100E20002A95E2F730E2939FC0011124C82BD92BF9
:100E3000DA68B8CFD82FCC27C46FD06AB3CFDC2FF5
:100E4000CC27C06FD06AAECF8C2F8F700E94C9079D
:100E500034E0D695C7953A95E1F7CF709C2FEC0119
:100E6000D069A0CF82389105B1F1B0F481339105FA
:100E700009F475C048F48932910509F469C08A32D1
:100E8000910509F473C008958533910509F459C09B
:100E90008933910501F10895833E9105A9F138F454
:100EA000803E9105F9F0823E910549F10895863E14
:100EB0009105A9F1873E9105C9F1843E910519F587
:100EC00020913A0321FF1FC08091390384FD14C093
:100ED00087EE90E00895209139032370A1F080EE11
:100EE00090E008952091390320FD47C030913A03E6
:100EF00030FF09C024FF44C090E080E004C020918E
:100F0000390322FDF7CF08952091390322FD3BC01C
:100F100030913A0330FDE3CF24FFF5CFEDCF2091A0
:100F2000390323FFF0CF24FDE7CFD2CF209139033F
:100F300023FD2CC030913A0331FFEECF84EE90E0D8
:100F400008952091390325FFDECF89E290E00895CE
:100F50002091390325FFD7CF85E390E008952091B4
:100F6000390326FFD0CF8AE290E00895209139031B
:100F700026FFC9CF81E390E0089589E390E00895CA
:100F800083EE90E0089582EE90E0089586EE90E082
:100F900008959091390392FF06C0282F28712830B8
:100FA000F9F4877F846093FF06C0282F28712831C9
:100FB000F1F4877E846120913A0320FF06C0382F28
:100FC00038713830D9F4877F816021FF06C0282F1F
:100FD00028712831D1F4877E816194FD877E089540
:100FE000282F24712430F9F68B7F8860DCCF282FDE
:100FF0002471243101F78B7E8861DDCF382F317168
:10100000313019F78E7F8860E0CF282F2171213190
:1010100021F78E7E8861E1CF0C9452160E94C4089D
:101020002FEF86E791E0215080409040E1F700C02B
:1010300000000E94C40880E00E944D0880FF04C0A8
:101040000E940C080C949F2808950C940E080E948E
:101050009826811102C00E943D270E94A3268093FA
:1010600014030E94AB2690933A03809339030E94A5
:1010700025080E94A726682F70E090E080E00E947B
:10108000CB236091E7027091E8028091E902909190
:10109000EA020C94052408950895E82FF0E0EE0F7D
:1010A000FF1FEB5BFC4F808191810895089580EADA
:1010B0008A95F1F7089500C008950C945708F894A4
:1010C000E82FE295EF70F0E031A1282F2F7081E03A
:1010D00090E001C0880F2A95EAF7982F9095932306
:1010E00091A392A1892B82A3789408950F931F93C3
:1010F000CF93DF9380E90E945F0881E90E945F0837
:1011000082E90E945F0883E90E945F0887E30E94EA
:101110005F08CEECD1E00DED11E089910E945F08EF
:101120000C171D07D1F710923C0310923B0310924D
:1011300046031092450310923E0310923D03109215
:101140004803109247031092400310923F031092FD
:101150004A031092490310924203109241031092E5
:101160004C0310924B0310924403109243031092CD
:101170004E0310924D0385E00E944409DF91CF9108
:101180001F910F910C947004AF92BF92DF92EF9277
:10119000FF920F931F93CF93DF93CDEDD1E00BE33D
:1011A00013E0D12CEE24E394F12C8991F894E82FEC
:1011B000E295EF70F0E021A18F70A70102C0440F0B
:1011C000551F8A95E2F7CA01922F982B91A392A1FD
:1011D0008095892382A378940E945B08EEECF1E06D
:1011E00030E020E0B12CA12C4191A42FA295AF704A
:1011F000B0E090968C9190E04F7002C095958795E5
:101200004A95E2F780FD3BC0C701022E02C0880F5D
:10121000991F0A94E2F7A82AB92A2F5F3F4F2F306F
:10122000310511F7FE01319780810E945F080E940D
:101230005D08F80180819181A816B90619F1B18283
:10124000A08281E0D82A0E5F1F4FF1E0C23EDF0787
:1012500009F0ABCF2D2D45E065E473E08BE393E01F
:101260000E9445090E9476048D2DDF91CF911F9138
:101270000F91FF90EF90DF90BF90AF90089590E0B6
:1012800080E0C9CF80E0DECF0895FF920F931F93D7
:10129000CF93DF93F82E092F162FD72FC42F222399
:1012A00049F081E0809346020E94382890934502DD
:1012B00080934402809146028823A1F080914402E9
:1012C000909145020E945028069760F0EF2DF02F74
:1012D000A12FBD2F90E080E0D0E08C179D0744F057
:1012E00010924602DF91CF911F910F91FF900895C8
:1012F000219131912D933D930196EFCF80914D0235
:1013000080FF12C06091840185E0689FB0011124C4
:10131000759567957595679560387105A8F56115A0
:101320007105A1F1862F089581FF09C060918401A4
:1013300085E0689FB001112475956795EDCF6091A8
:10134000840182FD0AC080914C028823D1F09091E3
:10135000830160918401891728F085E0689FB001BE
:101360001124DACF869FB001112485E0869F900179
:10137000879F300D1124692F70E0C9010E94B030A1
:10138000CBCF65E070E0CECF8FE7089581E0089580
:1013900080914D0280FF0CC06091800170E07595D6
:1013A0006795759567956115710549F1862F0895C3
:1013B00081FF06C06091800170E075956795F3CF5D
:1013C0006091800182FD0BC090914B029923A1F0A6
:1013D00060917F0180918001961738F0682F70E04E
:1013E0006038710500F38FE70895899FC0011124CB
:1013F00070E00E94B030F4CF61E070E0D7CF81E0C0
:101400000895803F31F40E947E09819580935102B6
:101410000895813F19F40E947E09F8CF823F31F48C
:101420000E947E098195809350020895833F19F4AC
:101430000E947E09F8CF893F29F40E94C809809351
:10144000520208958A3F21F40E94C8098195F7CF7E
:101450008B3F31F40E94C80981958093530208950F
:101460008C3F19F40E94C809F8CF9CE0980F953082
:1014700070F4845F990B21E030E001C0220F8A955F
:10148000EAF780914F02822B80934F0208958D3F9F
:1014900031F480914D02816080934D0208958E3F1A
:1014A00021F480914D028260F7CF8F3FB9F7809190
:1014B0004D028460F1CF40915002803F59F48091F9
:1014C000510287FF0DC01092510241110BC01092C2
:1014D0004C0208C0813F81F48091510218169CF3A0
:1014E000442381F08091520290915302892B09F09C
:1014F0005AC010924B020895823F49F447FFF0CF43
:1015000010925002809151028111ECCFE0CF833FC5
:1015100019F41416ACF3E4CF90915202893F29F4E8
:101520001916F4F610925202DBCF8A3F19F497FF96
:10153000D7CFF8CF909153028B3F29F497FFD0CFAC
:1015400010925302CDCF8C3F19F41916CCF3C8CFAB
:101550009CE0980F953090F4845F990B21E030E087
:10156000B90102C0660F771F8A95E2F7CB0180951B
:1015700090914F02892380934F02B2CF8D3F31F477
:1015800080914D028E7F80934D02AACF8E3F21F431
:1015900080914D028D7FF7CF8F3F09F0A1CF8091D1
:1015A0004D028B7FF0CF08950E9438289C019091C6
:1015B000500280915102982B21F030934A022093DF
:1015C00049029091520280915302982B21F030935E
:1015D0004802209347028EE492E00C94311BEF9274
:1015E000FF920F931F93CF93DF9300D000D000D0D2
:1015F000CDB7DEB786E0EEE4F2E0DE0111960190B1
:101600000D928A95E1F7E0905002F090510200911E
:1016100052021091530210925002109251021092F5
:101620005202109253028E2D8F2991F0809149021F
:1016300090914A020E945028AC0190914C0299234B
:1016400009F43FC0809185018417150608F447C04E
:10165000802F812B91F080914702909148020E9447
:101660005028AC0190914B02992309F477C08091E6
:1016700081018417150608F47FC080915002909173
:101680005102892B90915202892B90915302892B00
:1016900011F00E94D40A86E0FE013196AEE4B2E079
:1016A00001900D928A95E1F726960FB6F894DEBF69
:1016B0000FBECDBFDF91CF911F910F91FF90EF90A3
:1016C0000895209186018AE0289F90011124241713
:1016D000350708F0BDCF9F5F90934C0202C09F3F3B
:1016E000D1F7EE2059F00E947E099FEF1E140CF4F2
:1016F00091E0899F802D112480935002FF2059F0A2
:101700000E947E099FEF1F140CF491E0899F802DA9
:1017100011248093510230915002332309F498CF61
:1017200020915102222309F493CF45EB3403C001E9
:101730001124992359F09093500245EB2403900112
:101740001124332339F03093510282CF81E080930A
:101750005002F3CF81E0809351027ACF2091820131
:101760008AE0289F900111242417350708F085CFBF
:101770009F5F90934B0202C09F3FD1F7002359F027
:101780000E94C8099FEF10160CF491E0899F802DEC
:10179000112480935202112359F00E94C8099FEF2F
:1017A00011160CF491E0899F802D1124809353022F
:1017B00030915202332309F460CF20915302222347
:1017C00009F45BCF45EB3403C0011124992359F090
:1017D0009093520245EB240390011124332339F0F6
:1017E000309353024ACF81E080935202F3CF81E0DD
:1017F0008093530242CF86E0EEE4F2E0DF011D92D7
:101800008A95E9F710924C0210924B0210924D0209
:101810000895EF92FF920F931F93CF93DF93EB0105
:10182000E82FD11110C0442321F0F0E0EC54FC4F1C
:10183000E4916E2F7E2F8E2FDF91CF911F910F910C
:10184000FF90EF9008950D2F10E0282F30E04423F3
:1018500029F02C543C4FF901249130E0F6E0CF9F61
:10186000C0011124EFEFF0E0BF010E949C30AB01FA
:101870008C2F90E0880F991FA5E5A49FB001A59F2C
:10188000700D1124861B970B982F990F980FBF018D
:10189000601B710B629FD001639FB00D729FB00DF2
:1018A00011248B2F9D9FB0011124672F7727EF0103
:1018B000C61BD70BBE01629FE001639FD00D729FD4
:1018C000D00D11247F01E91AF108E09EB001E19EDC
:1018D000700DF09E700D1124672F7727E61BF70B14
:1018E000E29F8001E39F100DF29F100D1124E12F64
:1018F000722F4230510599F048F44115510569F0B5
:101900004130510581F0EB2F8D2F07C04430510538
:1019100069F080F046305105B1F76E2F8DCFE22F80
:101920007B2F812FFACFE22F7D2FF7CFEB2F822F46
:10193000712FF3CF7B2F822FED2FEFCF41E00C944F
:10194000090C30E020E0869F212D969F200D311D4F
:101950001124C9010895AC018230910508F408955D
:101960009FEF413E8EE1580740F49A0195E036958D
:1019700027959A95E1F798E0920F61E0E62FE90F3D
:10198000FF27FF1F9F0135952795822F229FF0018A
:10199000239FF00DF00D11244E175F0738F49FEFD1
:1019A000920F961758F78FEF860F08952F3FE9F3A0
:1019B00061E0620FF6CFE82F86FDE0952E2F2F70A5
:1019C00086FD2F5FE695E695E695E670F0E0EE5130
:1019D000FE4F9181929F902D212D112492959F7001
:1019E0002295207F922B2081920F87FD919580E890
:1019F000890F0895622F0895E42FF0E0EE0FFF1F86
:101A0000E15BFE4F6081621B0895E42FF0E0EE0F72
:101A1000FF1FE05BFE4F6081621B0895322F50E094
:101A2000FA01EE0FFF1FE05BFE4F9081905297FD91
:101A30009195440F551FFA01E15BFE4F2081231B56
:101A4000330B290F311D97FD3A95620F0895EF92E0
:101A50000F93972F23E0029FB0011124759567958E
:101A60006E0D792F0F91EF9008950F93CF93DF9321
:101A7000D72FC82F47FD419588E390E0841B91093B
:101A800047FD9395889FB001899F700D700D1124BB
:101A9000229FC001239F900D900D1124860F971F48
:101AA0000E94AB0C982F990F890F682F600F7D2F24
:101AB0008C2FDF91CF910F9108950F931F93522F89
:101AC00010E0F801EE0FFF1FE05BFE4FA081A05277
:101AD000BB0B9D015203F001539FF00D1124000F29
:101AE000111FD801A15BBE4F0C910057110B400391
:101AF0009001419F300D11242E0F3F1F37FF02C070
:101B000021583F4F220F232F221F330B620F1F91AB
:101B10000F9108950F931F93522F10E0F801EE0FCD
:101B2000FF1FE05BFE4FA081A052BB0B9D01520343
:101B3000F001539FF00D1124000F111FD801A15B7C
:101B4000BE4F0C910057110B40039001419F300D87
:101B500011242E0F3F1F37FF02C0215C3F4F96E03C
:101B6000359527959A95E1F7620F1F910F9108958A
:101B70000F931F9310E0F801EE0FFF1FE15BFE4F84
:101B80009081905797FD9195000F111FF801E05B30
:101B9000FE4F00810052110B2003F001219FF00D38
:101BA000112408E310E0091B110997FD1395400368
:101BB0009001419F300D1124E20FF31F9F01220F6E
:101BC000331F2E0F3F1F37FF02C021583F4F220FF8
:101BD000232F221F330B620F1F910F9108950F9334
:101BE0001F93CF93DF938B01D82FC42F822F0E9496
:101BF000DB0CEC2FF0E0EE0FFF1FE15BFE4F90815E
:101C00009058890F87FD8195880F682F2CE0629F7F
:101C1000612D1124600F712F8D2FDF91CF911F91B6
:101C20000F910895E42FF0E0EE0FFF1FE15BFE4FF0
:101C30009081921B97FD9195292F38E1239F212DAB
:101C40001124620F0895FC019B01AC0197FF04C0B1
:101C500044275527481B590BBA01620F731F37FDE4
:101C60000FC0241B350BC901A5E0880F991FAA9549
:101C7000E1F70E94B03080E2861BF7FD8195089560
:101C8000CB0165E0880F991F6A95E1F7BA01621BE5
:101C9000730B0E94B03080E6EFCFEF920F93CF939B
:101CA000DF93D72FC82FC9010E19009729F480E8B8
:101CB00057FD05C080E003C0BA010E94230E602FCB
:101CC000681B7D2F8C2FDF91CF910F91EF9008959E
:101CD0000F93CF93DF93D72FC82FC901009729F413
:101CE00080E857FD05C080E003C0BA010E94230EC2
:101CF000602F680F7D2F8C2FDF91CF910F9108956A
:101D00000C949E0C46E050E06CE170E08FE493E0B0
:101D10000C942D3146E050E06CE170E08FE493E0EC
:101D20000C944B31EFE4F3E085E1808380919A01DC
:101D300090919B01A0919C0181839283A3838FE763
:101D400084838FEF85830C948A0EE091F001F091EB
:101D5000F1010994E091EC01F091ED0109945F9299
:101D60006F927F928F929F92AF92BF92CF92DF92AB
:101D7000EF92FF920F931F93CF93DF935C014B0180
:101D8000FC01C081CC0FCC0F14E01C0FF12E1131DF
:101D900010F030E1F32E6091530366958091550366
:101DA000909156030E94A10C582ED0E0CF15A0F0C0
:101DB00081E0103108F080E0DF91CF911F910F9109
:101DC000FF90EF90DF90CF90BF90AF909F908F905B
:101DD0007F906F905F900895FE01E159FE4F8081E2
:101DE000F50191818923C9F1CE01880F991F8C5F7C
:101DF0009E4FFC01E55BFF4F2081422F4057550B62
:101E00006A01845B9F4FFC018081282F2052330B95
:101E10003901449F9001459F300D300D1124669C7F
:101E2000C001679C900D900D1124820F931F0E949A
:101E3000AB0C082F609150037091510380915203B5
:101E4000E52C9301A601F40109950E94800E462F0E
:101E5000282F672FCE010E94AA0E2196A7CF67E2F6
:101E60007DE00C94AF0E6DE47EE00C94AF0EAF926B
:101E7000BF92CF92DF92EF92FF920F931F93CF9377
:101E8000DF936C017B01FC01C081CC0FCC0F14E00F
:101E90001C0FB12E113110F030E1B32E60915303BD
:101EA000669580915503909156030E94A10CA82E2F
:101EB000D0E0CB1578F081E0103108F080E0DF91C0
:101EC000CF911F910F91FF90EF90DF90CF90BF9037
:101ED000AF900895FE01E159FE4F8081F601918196
:101EE000892311F1CE01880F991F8C5F9E4FFC0151
:101EF000E45BFF4F20812052330B855B9F4FFC0139
:101F000040814057550B609150037091510380916F
:101F100052030A2DF70109950E94800E462F282FA3
:101F2000672FCE010E94AA0E2196C3CF65E37DE004
:101F30000C94370F68E67EE00C94370FBF92CF9277
:101F4000DF92EF92FF920F931F93CF93DF937C0169
:101F50008B01FC01C081CC0FCC0F94E0D92EDC0E9C
:101F6000CD2CF0E1FD1510F480E1C82E60915303F3
:101F70006695669521E0620F08F46FEF8091550336
:101F8000909156030E94A10CB82ED0E0CC1578F0A9
:101F900081E09FE09D1508F480E0DF91CF911F91D3
:101FA0000F91FF90EF90DF90CF90BF900895FE01CA
:101FB000E159FE4F8081F7019181892391F0609171
:101FC000500370915103809152032B2D4C2FF80137
:101FD00009950E94800E462F282F672FCE010E9460
:101FE000AA0E2196D3CF6AEF7CE00C949E0F6CEF83
:101FF0007CE00C949E0F65E07DE00C949E0F6EE0FB
:102000007DE00C949E0F6FEE7DE00C949E0F62E1DC
:102010007EE00C949E0F7F928F929F92AF92BF9220
:10202000CF92DF92EF92FF920F931F93CF93DF93A4
:102030005C016B01FC01C081CC0FCC0F14E01C0FC4
:10204000912E113110F030E1932E6091530366957B
:10205000669580915503909156030E94A10CF82E2D
:1020600080E48F0D0E94DB0C90E8892E880E8F2D66
:102070000E94DB0C20E8722E780ED0E0C91590F09B
:1020800081E0103108F080E0DF91CF911F910F9136
:10209000FF90EF90DF90CF90BF90AF909F908F9088
:1020A0007F900895FE01E159FE4F8081F5019181F5
:1020B0008923A1F0609150037091510380915203E4
:1020C000EF2C0C2F272D482DF60109950E94800E2C
:1020D000462F282F672FCE010E94AA0E2196CECF21
:1020E0006DE57DE00C940B106AE87DE00C940B101C
:1020F00068EB7DE00C940B10BF92CF92DF92EF92D1
:10210000FF920F931F93CF93DF937C01FC01C0815B
:10211000CC0FCC0F14E01C0F012F113108F000E19F
:102120006091500370915103809152030E94800E80
:10213000D62EC72EB82ED0E0C01770F081E0103137
:1021400008F080E0DF91CF911F910F91FF90EF9009
:10215000DF90CF90BF900895FE01E159FE4F80813E
:10216000F7019181892331F02B2D4D2D6C2DCE015E
:102170000E94AA0E2196E0CF8F929F92AF92BF92BB
:10218000CF92DF92EF92FF920F931F93CF93DF9343
:102190007C01FC01C081CC0FCC0F14E01C0F012F7F
:1021A000113108F000E1C0905103D0905203D0915A
:1021B00050036D2F7C2D8D2D0E94800EB62EA72EE4
:1021C000982E609153036D0F7C2D8D2D0E94800EF3
:1021D000D62EC72E882ED0E0C01788F081E01031AF
:1021E00008F080E0DF91CF911F910F91FF90EF9069
:1021F000DF90CF90BF90AF909F908F900895FE0199
:10220000E159FE4F9081F7018181892359F0282DF2
:102210004D2D6C2D90FD03C0292D4B2D6A2DCE0127
:102220000E94AA0E2196D8CFBF92CF92DF92EF9252
:10223000FF920F931F93CF93DF938C01FC01C0811A
:10224000CC0FCC0F94E0F92EFC0EEF2CF0E1FF1533
:1022500010F480E1E82ED0905003D0915103C0904B
:102260005203609153036695669566958091550378
:10227000909156030E94A10C0E94DB0C805887FDB0
:102280008195880F282F3C2D239F212D1124822FEB
:102290006D2D7D2F0E94800ED62EC72EB82ED0E039
:1022A000CE1578F081E02FE02F1508F480E0DF9163
:1022B000CF911F910F91FF90EF90DF90CF90BF9043
:1022C0000895FE01E159FE4F8081F8019181892333
:1022D00031F02B2D4D2D6C2DCE010E94AA0E219692
:1022E000DFCFDF92EF92FF920F931F93CF93DF9395
:1022F0008C01FC01E159FE4F8081682381F1D0906F
:102300005103D0915203C0915003EC2EF12C0E9446
:102310001D31282FC7018C549F4F68E671E00E9441
:10232000B0308E199F0997FD0396959587959595E1
:10233000879523706C2F289F600D11247D2D8D2F84
:102340000E94800E462F282F672FC801DF91CF9162
:102350001F910F91FF90EF90DF900C94AA0EDF91E8
:10236000CF911F910F91FF90EF90DF900895DF9232
:10237000EF92FF920F931F93CF93DF938C01FC0199
:10238000C281C11125C06091530320E1620F08F49E
:102390006FEF80915503909156030E94A10C6AE063
:1023A00070E00E949C30892B51F40E941D3160E145
:1023B00070E00E94B030F80161810E9471118C2F91
:1023C000DF91CF911F910F91FF90EF90DF900895D3
:1023D000C081CC0FCC0F84E0D82EDC0E8D2DF0E127
:1023E000FD1508F480E1D0E0E82EF12CCE15DF05D4
:1023F00034F0C1E0FFE0FD1510F7C0E0E0CFF801D8
:102400006181CE010E9471112196F0CF1F93CF936D
:10241000DF93EC01FC01E159FE4F80816823A1F0BC
:102420000E941D31182F0E941D31612F782F80913D
:1024300052030E94800E462F282F672FCE01DF9176
:10244000CF911F910C94AA0EDF91CF911F91089507
:10245000DF92EF92FF920F931F93CF93DF938C0144
:10246000FC01C281C11125C06091530320E1620FBC
:1024700008F46FEF80915503909156030E94A10CD0
:1024800065E070E00E949C30892B51F40E941D3160
:1024900060E170E00E94B030F80161810E94061294
:1024A0008C2FDF91CF911F910F91FF90EF90DF90D4
:1024B0000895C081CC0FCC0F84E0D82EDC0E8D2D7A
:1024C000F0E1FD1508F480E1D0E0E82EF12CCE1506
:1024D000DF0534F0C1E0FFE0FD1510F7C0E0E0CF0C
:1024E000F8016181CE010E9406122196F0CFBF92C1
:1024F000CF92DF92EF92FF920F931F93CF93DF93D0
:102500007C01FC01C081CC0FCC0F14E01C0F012F0B
:10251000113108F000E1C0905103D0905203D091E6
:1025200050036091530366956695669580915503B7
:10253000909156030E94A10C0E94DB0C805887FDED
:102540008195880F682F2CE0629F612D11246D0FFB
:102550007C2D8D2D0E949E0CD62EC72EB82ED0E03D
:10256000C01770F081E0103108F080E0DF91CF916A
:102570001F910F91FF90EF90DF90CF90BF90089543
:10258000FE01E159FE4F8081F7019181892331F0ED
:102590002B2D4D2D6C2DCE010E94AA0E2196E0CF41
:1025A000E091EE01F091EF0109940C94A91B0895BC
:1025B00008950E94D7120C94D81208950895CF93CD
:1025C000DF93FC01C081C15CCC0FCC0FD4E0DC0FE9
:1025D000D13108F0D0E16D2F8C2F0E94DD126D2FCC
:1025E0008C2FDF91CF910C94DE12CF930E94442860
:1025F0006093540270935502809356029093570251
:1026000030914F03C32FC37019F0C32FC695C695E1
:10261000209187012130C1F0222341F0223009F4BA
:10262000C0C0233009F4C7C0CF910895109288012B
:102630006093550370935603809357039093580308
:1026400081E080938701F0CF90918B0181E0C913E5
:102650000BC0832F837020918C0130E091E08217B2
:10266000130609F490E0892F817080938A0180918C
:10267000540390918901981739F08093890140E0C3
:1026800060E080E00E94D012C43178F4EC2FF0E0DA
:10269000EC51FE4C0C94C43080918A01882359F08F
:1026A00040E060E080E00E94D01280E004C088E852
:1026B00091E00E947C10909188019F5F9093880127
:1026C00081116BC082E08093870180918A01811122
:1026D00064C0CC2309F46DC00E94D91288E891E04F
:1026E000CF910C94DF1288E891E00E94BC10E3CFF8
:1026F00088E891E00E941411DECF88E891E00E9402
:10270000F30FD9CF88E891E00E94F70FD4CF88E883
:1027100091E00E94FB0FCFCF88E891E00E94FF0F6D
:10272000CACF88E891E00E942F0FC5CF88E891E0DA
:102730000E94960FC0CF88E891E00E949A0FBBCF0D
:1027400088E891E00E94330FB6CF88E891E00E94BC
:102750007010B1CF88E891E00E947410ACCF88E887
:1027600091E00E947810A7CF88E891E00E94B7110D
:10277000A2CF88E891E00E9428129DCF88E891E0DE
:102780000E94771298CF88E891E00E94031093CFBF
:1027900088E891E00E9407108ECFCC2309F444CF43
:1027A0009BCFC0938B01832F837080938C010E94F9
:1027B000A50E83E046CF609155037091560380913A
:1027C0005703909158030E945F286031710581057D
:1027D000910508F429CF1092870126CFE091EA01F4
:1027E000F091EB0109950E949826811104C00E9486
:1027F0003D270E94920E0E94820E80914F038C7F93
:1028000011F40C94920E0895089590914F0321E0D5
:10281000922790934F031092870181110C948A0E96
:10282000089581E00C94051490914F03937099F0F2
:10283000811109C0946090934F0310928701662321
:1028400051F00C948A0E843110F09C64F4CF880F00
:10285000880F982BF0CF089561E00C941414682F22
:1028600090914F039695969581E0890F843108F0F9
:1028700081E00C94141481E00C942F14682F909133
:102880004F03969596958FEF890F09F483E10C9489
:10289000141481E00C943E1490914F03937049F00E
:1028A00080935003609351034093520321110C9481
:1028B0008A0E0895AFE4B3E01196EC911197F0E021
:1028C000282F13964C91139712966C91CF0108966E
:1028D0000C944C1481E00C945A14EFE4F3E09181D1
:1028E000282F43816281E92FE850FF0BCF010C9420
:1028F0004C1481E00C946D14EFE4F3E0628120E16C
:10290000620F08F46FEF9181282F4381892F90E0A7
:102910000C944C1481E00C947C14EFE4F3E062819D
:1029200020E1621B08F460E09181282F4381892F08
:1029300090E00C944C1481E00C948D14EFE4F3E0DF
:10294000438120E1420F08F44FEF9181282F6281EB
:10295000892F90E00C944C1481E00C949E14EFE4C9
:10296000F3E0438120E1421B08F440E09181282FED
:102970006281892F90E00C944C1481E00C94AF1488
:102980002091530330E1230F08F42FEF20935303DA
:1029900081110C948A0E089581E00C94C01420914A
:1029A000530330E1231B08F420E0209353038111EB
:1029B0000C948A0E089581E00C94CF140895FC01C4
:1029C000EE0FFF1FE80FF91FE75AFC4F61834083AA
:1029D00022830895E9E5F3E081836083428333969F
:1029E00093E0E938F907C1F7089560E170E089E5FF
:1029F00093E00C949A15FA01811101C0FB0109942E
:102A00000F931F93CF938C01FB01C281CC2309F458
:102A10008FC00E94D32582720A3CFCE51F0709F48F
:102A200072C060F5053CECE51E0709F458C080F45F
:102A3000033C9CE5190709F448C008F04BC0023C70
:102A40001C4509F43FC08C2FCF911F910F91089521
:102A5000073C9CE5190709F44CC008F445C0083C44
:102A6000FCE51F0709F44AC04DEB54E16CEA74E140
:102A7000093C1C4541F70E94FB141EC00F3CECE5CD
:102A80001E0709F453C080F40C3C9CE5190709F4B7
:102A900044C0F0F10D3CFCE51F0709F443C00E3CB7
:102AA0001C4589F683E03FC0063D9CE5190730F4DC
:102AB0008AE0013D1C45B8F1C0E0C5CF0D351D458C
:102AC000D9F3C1CF0E941114F7CF49E454E16BE36D
:102AD00074E1D1CF4BE354E169E474E1CCCF49E731
:102AE00054E16AE674E1C7CF4AE654E169E774E16C
:102AF000C2CF4BE954E16AE874E1BDCF4AE854E142
:102B00006BE974E1B8CF4CEA54E16DEB74E1B3CFFB
:102B10004BED54E16CEC74E1AECF4CEC54E16BED59
:102B200074E1A9CF81E00E942C14C6CF85E0FBCFD1
:102B3000C1E089CF239A45B1477F55B15860EFB7BF
:102B4000F8949B01220F331F260F371F280F391FC0
:102B50002817390741F4EFBF8FE594E00197F1F7AB
:102B600000C000000895DC016D91CD0178E055B9F9
:102B7000000000C067FF45B9660F000000C000C03C
:102B800000C045B900C07A9591F7E2CF0C94A30339
:102B90002198299A22982A9A83B1869581701A9948
:102BA00005C090E0892B80935A02089592E0FACFF5
:102BB000E0915A02EE0FEE0FE0935A0243B141FB4F
:102BC000882780F943B142FB222720F942FF02C047
:102BD00022E030E0822BE82BE0935A02EF70F0E025
:102BE000EE50FE4F808190915902890F80935902D7
:102BF00020E0843054F0809158028F5F8093580217
:102C000060E080E00E94C61521E0809159028D3F6E
:102C100054F48091580281508093580261E080E022
:102C20000E94C61521E080915902082E000C990BD4
:102C300064E070E00E94B03080935902822F0895C2
:102C400083E290E00E943D31813289F484E290E099
:102C50000E943D31803159F485E290E00E943D317F
:102C600091E0803109F090E0892F8170089580E033
:102C7000FCCFCF93C82F6FEF811161E283E290E028
:102C80000E945B31C1110CC0CFEF6C2F84E290E049
:102C90000E945B316C2F85E290E0CF910C945B3108
:102CA000C0E1F3CF80E00E9439160C94922608957B
:102CB00086E290E00E943D31682F70E090E080E075
:102CC000089586E290E00C945B310E9457160E94B2
:102CD000201681110CC060E070E0CB010E946116EB
:102CE0000E94A8170E94941881E00C943916089548
:102CF000CF93FB01C281CC2309F19C0122513F45B6
:102D00002031310520F582510E94A418C0E08C2F9B
:102D1000CF91089581E00E942D2443E062E081E09C
:102D20000E945E04F3CF81E00E944E2443E062E003
:102D300081E00E945E04EBCF82E0F6CF8031FFE5B8
:102D40009F0789F381319F45B9F3C1E0E0CF80311E
:102D5000EFE59E07F9F281319F45C9F682E0DBCFAE
:102D60002FEFFC0120830895EF92FF920F931F93A2
:102D7000CF93DF93EC01062FE881E150E33108F0B7
:102D80005EC0F0E0E850FE4C0C94C430198289E03B
:102D90008A83602FCE01DF91CF911F910F91FF9019
:102DA000EF900C94C3298981823069F0833071F0EF
:102DB0008130D9F40E9444280E94CA306A837B8300
:102DC0008C839D83E6CF0E945816F6CF7E0110E0DB
:102DD000812F0E944D08F701928383831F5FF2E0E9
:102DE000EF0EF11C1530A1F7D4CF602FCE010E9459
:102DF000B016CFCF89818230C1F76A817B818C8107
:102E00009D810E94CA300E946116C3CF4B816A81A6
:102E100089810E947A179827892798279D838C8318
:102E2000B8CF2C813D813227232732274B816A81FD
:102E300089810E949317ADCF0E94A817AACF8FEF68
:102E40008883A7CF0E943D188983A3CF0E943F1893
:102E50009827892798279A8389839BCF6B8170E075
:102E600089819A81AE014C5F5F4F98278927982707
:102E70000E9442188ECF6B8170E089819A81AE01E9
:102E80004C5F5F4F9827892798270E94691881CF48
:102E90000E9494187ECF0E946817D6CF6B8170E095
:102EA00089819A81AE014C5F5F4F982789279827C7
:102EB0000E94E0176ECF6B8170E089819A81AE012C
:102EC0004C5F5F4F9827892798270E94061861CF8B
:102ED00084E0089550E0440F551F9EE1699F400D26
:102EE000511D112496E9899F400D511D1124CA01DD
:102EF000879608950F931F93CF93DF930E946A17CD
:102F00008C010E943D31C82FD0E0DC2FCC27C801B6
:102F100001960E943D319E01282BC901DF91CF917E
:102F20001F910F9108950F931F93CF93DF93122F4B
:102F3000032F0E946A17EC01602F0E945B31612F02
:102F4000CE010196DF91CF911F910F910C945B31CF
:102F5000AF92BF92CF92DF92EF92FF921F93CF93E7
:102F6000DF938CEAC82E80E0D82ED0E07601C0E056
:102F700014C0F50125913491412F6C2F8D2F0E94A3
:102F8000931782E0A80EB11C1F5F1F3091F78EE1EE
:102F9000E80EF11CCF5FC53019F0570110E0E9CF02
:102FA000DF5F86E9C80ED11CD43001F7DF91CF91E5
:102FB0001F91FF90EF90DF90CF90BF90AF9008955A
:102FC000EF92FF920F931F93CF93DF93EC018A014F
:102FD0007C01E60EF71ECE018796CE15DF0539F48B
:102FE000DF91CF911F910F91FF90EF900895C83519
:102FF00022E0D20740F40E943D31F80180830F5F48
:103000001F4F2196E8CFF8011082F9CFCF92DF92BF
:10301000EF92FF920F931F93CF93DF937C016A018E
:103020008C01060F171FEC01CE018796C017D10740
:1030300049F4DF91CF911F910F91FF90EF90DF90B6
:10304000CF900895C83522E0D20740F4FE01EE1972
:10305000FF09EC0DFD1D60810E945B312196E4CFDC
:10306000462F843038F4753028F46F3018F4672F09
:103070000C947A1790E080E0089580E1089581E84B
:1030800091E00895EF92FF920F931F93CF93DF93F8
:10309000EC018A017C01E60EF71ECE0181589D4F9E
:1030A000CE15DF0539F4DF91CF911F910F91FF907D
:1030B000EF900895C13821E0D20740F40E943D31DD
:1030C000F80180830F5F1F4F2196E7CFF801108230
:1030D000F9CFCF92DF92EF92FF920F931F93CF938E
:1030E000DF937C016A018C01060F171FEC01CE01F2
:1030F00081589D4FC017D10749F4DF91CF911F919F
:103100000F91FF90EF90DF90CF900895C13821E0AC
:10311000D20740F4FE01EE19FF09EC0DFD1D6081A0
:103120000E945B312196E3CFCF93DF93CFE7D2E0CC
:1031300060E0CE010E945B312196C11584E0D80782
:10314000B9F7DF91CF910895DF92EF92FF920F933D
:103150001F93CF93DF9300D000D0CDB7DEB7F82E0A
:103160008FE08F1540F08FEF93E00E943D310FE725
:1031700012E08823C1F00F900F900F900F90DF9115
:10318000CF911F910F91FF90EF90DF90089501155F
:1031900084E0180781F3C8010E943D31811101C00C
:1031A000FA940F5F1F4FF110F2CF19821A821B821F
:1031B0001C82DD24D39478018FEFE81AF80AC80145
:1031C0000E943D3189831A828823A9F29FEF980FCC
:1031D000933078F48A83D9820E5F1F4FC7010E9413
:1031E0003D318B83882339F2CE0101960E94B505CB
:1031F000E2CF8701F9CF0F931F93CF93DF93C42FB3
:10320000D22FFC0182818823C9F040935D020E9485
:10321000382890935C0280935B0280E28C0F8830A8
:1032200008F050C0C77081E001C0880FCA95EAF766
:10323000DF91CF911F910F910C94BA1D10915D02F7
:10324000141335C080915B0290915C020E9450285B
:10325000883C910560F5C0E2CD0F1D17B9F080E202
:10326000810F883040F4177081E001C0880F1A95F3
:10327000EAF70E94C11DC83048F481E09D2F977085
:1032800001C0880F9A95EAF70E94BA1D802F0E940C
:10329000B21DC830B8F4D77081E001C0880FDA954C
:1032A000EAF7DF91CF911F910F910C94C11D80E23D
:1032B0008C0F883038F4C77081E001C0880FCA9540
:1032C000EAF7EFCFDF91CF911F910F9108950F9300
:1032D0009C01CB01233F4CE5340759F1A8F4283D6C
:1032E000FCE53F0701F1293D4CE53407D1F1273DCD
:1032F0003C4591F406E221EE41EE67ED7CE50E944B
:10330000FB1880E00F910895253FFCE53F07E9F0A9
:10331000B0F0263F3C45F9F0FC018281882339F169
:1033200010925D02EFCF07E225EE45EE68ED7CE5F9
:10333000E6CF06E221EE40EE63EF7CE5E0CF07E268
:1033400025EE44EE64EF7CE5DACF06E221EE42EEB4
:1033500065EF7CE5D4CF07E225EE46EE66EF7CE52F
:10336000CECF08E221E045EE69ED7CE5C8CF81E0F3
:10337000C9CFCF93DF93EC01FB018281882309F44D
:1033800019C1C230FCE5DF07C0F1C6319CE5D907A1
:1033900030F09E012A5F3C452930310570F50E94CE
:1033A000AB2690933A0380933903C031ECE5DE07F6
:1033B00009F4CFC008F05BC0C8308CE5D80709F429
:1033C000B6C088F5C430ECE5DE0709F4A8C0C0F447
:1033D000C2308CE5D80709F49CC080913903826023
:1033E000C330DC4509F498C08091390390913A03C9
:1033F0000E94B9260E94332080E0DF91CF9108958A
:10340000809139038061C630ECE5DE0709F484C0A1
:10341000809139038860C730DC4508F47DC0809115
:103420003903806279C0CC308CE5D80709F489C0B3
:1034300070F4809139038C60CA30ECE5DE0709F442
:103440006BC008F478C0809139038E7F65C0CE30A0
:103450008CE5D80709F479C0809139038B7FCF3090
:10346000DC4508F459C0809139038F7E55C0CB3FAD
:10347000ECE5DE0709F457C030F5C3318CE5D80719
:1034800009F46FC078F4C131ECE5DE0709F465C0DA
:10349000C231DC4509F0A8CF0E9433208091390366
:1034A0008F773AC0C5318CE5D80709F462C008F4BB
:1034B00076C080913A038160CA3FDC4509F094CF21
:1034C00080933A0391CFCF3FFCE5DF0709F44DC06D
:1034D00088F480913A038D7FCD3F9CE5D90781F335
:1034E00080913A038E7FCE3FDC4550F380913A03C2
:1034F0008360E6CFC130FDE5DF0709F459C008F469
:1035000044C080E0C230DD4509F06ECF0E943F2705
:103510006BCF8091390381608093390365CF8091AF
:1035200039038460F9CF80913A038260C9CF8091DA
:1035300039038064F1CF0E94332080913903806881
:10354000EBCF809139038D7FE7CF80913903877F5F
:10355000E3CF809139038F7DDFCF809139038F7B5B
:10356000DBCF80913903837FD7CF80913A038C7F63
:10357000A7CF8091390382FB992790F921E0922708
:1035800090FB82F990FB83F9C7CF80913A03982F83
:10359000909591708E7F892B90FB81F991CF0E943D
:1035A000332090913903892F97FB87F98058B4CF46
:1035B00081E0ACCF81E021CFCF93DF93EB01863167
:1035C0009C4511F50E94D3259A81992399F08A7A16
:1035D00091E009F490E090935E02811109C089E2C4
:1035E0000E948D250E94232680E0DF91CF910895CF
:1035F00085E3F6CF80915E02811104C089E20E94CA
:103600009425F0CF85E3FBCF81E0EFCF9093640268
:10361000809363020895E0916302F0916402309711
:1036200021F00190F081E02D099480E00895E0916F
:103630006302F0916402309799F02091990122235E
:1036400059F02091390327FF07C0DC012C91119616
:103650002C93119725E02C930280F381E02D09949F
:103660000895E0916302F0916402309739F022E00E
:10367000DC012C930480F581E02D099408952091BC
:103680006102309162022817390771F0909362024B
:1036900080936102E0916302F0916402309721F01F
:1036A0000680F781E02D0994089520915F02309102
:1036B00060022817390771F09093600280935F02CF
:1036C000E0916302F0916402309721F00084F1856B
:1036D000E02D099408950E94442860937802709325
:1036E000790280937A0290937B02609374027093C4
:1036F0007502809376029093770208950E94442881
:10370000609378027093790280937A0290937B029F
:1037100060937002709371028093720290937302AF
:10372000089585B7806885BF85B7806885BF08958F
:10373000089508950C94981B08950C949C1B0E9466
:10374000911B80E996E20E94C3280E94991B0C9469
:103750009A1B81E008950C94A91B089508950E9476
:10376000AD1B0C94AE1B0E942F280E9476080E946D
:1037700065160E94C8150C949D1B8F929F92AF9264
:10378000BF92CF92DF92EF92FF920F931F93CF934E
:10379000DF93CDB7DEB72A970FB6F894DEBF0FBE22
:1037A000CDBF0E94C40881110E946B1B56E6852E76
:1037B00052E0952E10E000E0E02E802F0E944D0890
:1037C0005C01F401C190D1904F01C816D906B1F443
:1037D0000F5F1F4F0530110579F78FEF89838A83BB
:1037E0001B820E9438288160782F9D838C834981B9
:1037F0005A816B818D810E947C1C3DC08091140395
:1038000081FD0E945608C6018A259B25F12CCC24F7
:10381000C394D12C9C012C213D21232B09F452C0AF
:103820000E94AB1B95012C213D21BB24B394232B7B
:1038300009F4B12C882379F0FE82EF82B8860E94C9
:1038400038288160782F9A8789874E815F816885C3
:103850008A850E947C1C000F111FF801EA59FD4F58
:1038600080819181C826D926D182C0824B2D6F2DAF
:103870008E2D0E94D5120E94F5120E94D81581113A
:103880000E947E1B0E94EF0A0E940B1B9091650212
:103890008917F9F00E940B1B809365022A960FB6D8
:1038A000F894DEBF0FBECDBFDF91CF911F910F9176
:1038B000FF90EF90DF90CF90BF90AF909F908F9050
:1038C0000C940C06F394CC0CDD1CFFE0FF12A2CF8D
:1038D0007FCF2A960FB6F894DEBF0FBECDBFDF9123
:1038E000CF911F910F91FF90EF90DF90CF90BF90FD
:1038F000AF909F908F900895DF92EF92FF920F9379
:103900001F93CF93DF93CDB7DEB72B970FB6F89405
:10391000DEBF0FBECDBF7A878B87F42E052F162F03
:10392000E72ED82E61110E94F3251E821D827E2D66
:10393000EC82DD824F2D502F612F8D2D9E812B9695
:103940000FB6F894DEBF0FBECDBFDF91CF911F91B0
:103950000F91FF90EF90DF900C94A922FC018081E1
:1039600091810C945F25CF93C82F882309F48BC0D5
:103970008238C1F40E940B1B81FD85C089E30E943F
:103980008D250E9423262FEF81EE94E02150804068
:103990009040E1F700C0000089E30E949425CF9198
:1039A0000C9423268338A1F40E940B1B80FD6BC06E
:1039B00083E50E948D250E9423262FEF81EE94E05F
:1039C000215080409040E1F700C0000083E5E5CF42
:1039D0008438A1F40E940B1B82FD55C087E40E942D
:1039E0008D250E9423262FEF81EE94E02150804008
:1039F0009040E1F700C0000087E4CFCF8CEF8C0F40
:103A0000813A90F46C2F80918D0190918E010E94EB
:103A10005827882329F08C2F0E9494250E94232662
:103A20008C2F0E948D25BBCF80E28C0F883048F40C
:103A3000C77081E001C0880FCA95EAF70E94D625B9
:103A4000AECFEBE5EC0FE33040F4F0E0E05DFD4F8E
:103A5000808190E0CF910C943F1BE8E5EC0FE731BB
:103A600050F4F0E0EE0FFF1FEE5FFD4F808191817B
:103A7000CF910C94551BC03F30F08C2F0E94010A4F
:103A8000CF910C94D40ACF910895882309F452C0A1
:103A9000823871F40E940B1B81FF4CC089E30E94A5
:103AA0008D250E94232689E30E9494250C942326C9
:103AB000833859F40E940B1B80FF3CC083E50E94B1
:103AC0008D250E94232683E5EFCF843859F40E9488
:103AD0000B1B82FF2FC087E40E948D250E942326A6
:103AE00087E4E2CF9CEF980F913AF0F290E2980FC2
:103AF000983050F4877091E001C0990F8A95EAF7E9
:103B0000892F0E94DC25D2CF9BE5980F933020F4BB
:103B100090E080E00C943F1B98E5980F973120F4DB
:103B200090E080E00C94551B803F20F00E945B0ADF
:103B30000C94D40A08951F93CF93DF93182FEB01B1
:103B40000E94B31C209731F4812FDF91CF911F91F8
:103B50000C94451D8FE99FE00197F1F700C000002C
:103B60002197F0CF70E060E0893311F460E570E0F8
:103B70000C949B1D882321F00E94D6250C942326AB
:103B80000895882321F00E94DC250C9423260895B3
:103B9000BF92CF92DF92EF92FF920F931F93CF933A
:103BA000DF936C01D62FC72FFC011281058102958E
:103BB0000F700E94AB25E82E8823A1F0E12E11237F
:103BC00089F08C2F807F803429F080E28D0FE12CEA
:103BD000883040F082E00E9474260E94AB2591E07C
:103BE000E82EE926BC2EB2949FE0B922EB2DF0E03E
:103BF000E55FFD4C0C94C4300C2F0F70C07F11F0AA
:103C00000295007F1123A9F0002359F080E28D0F67
:103C1000883010F0D11109C0802F0E94D6250E9453
:103C200023268D2F0E94B31C14C0802F0E94E625EE
:103C3000F6CF8D2F0E94451D002359F080E28D0F95
:103C4000883010F0D1112CC0802F0E94DC250E94FA
:103C500023262B2D2850330B2430310520F40E94CD
:103C60000B1B0E940C06EE2009F49EC10E94A725A2
:103C700080FD9AC1F60112820E94A1250E942D2486
:103C8000C6010E94F51F0E94A125DF91CF911F91CF
:103C90000F91FF90EF90DF90CF90BF900C944E2447
:103CA000802F0E94EC25D3CFFC2FFF70FF2EC07F0A
:103CB000C03219F0F29480EFF822DD2369F0D130A0
:103CC00049F1112391F1002351F1F601858180FF23
:103CD000A8CF8F70858323C0112381F0011106C006
:103CE0000E9406268F290E94BA1DB3CF0130C1F76A
:103CF0000E9406268F290E940C26ABCF011106C018
:103D00000E9419268F2D0E94C11DA3CF013009F4F6
:103D1000A0CFF6CF112329F0063008F09ACF8F2DCF
:103D2000E2CF053008F095CFEDCF002359F3D9331A
:103D300049F4FFEF27EE33E0F15020403040E1F747
:103D400000C000008D2F0E94451D83CF8C2F8695CB
:103D50008695837069F0813009F07BCF8D2F9C2F81
:103D60009370111102C090E080E00E94551B71CF4A
:103D70008D2F9C2F9370111102C090E080E00E9463
:103D80003F1B67CF8D2F112329F00E94010A0E944B
:103D9000D40A5FCF0E945B0AFACF8C2F837009F0A0
:103DA00041C0111156CF4D2F429546954770440F93
:103DB000440F0D2F0F7010E030E020E0042E04C0FF
:103DC000000F111F221F331F0A94D2F760E070E02A
:103DD000CB01D4FF0FC06FE070E080E090E004C042
:103DE000660F771F881F991F4A95D2F760957095C7
:103DF00080959095C695C695C370602B712B822BCC
:103E0000932BC23049F058F4C13019F00E94DF23DF
:103E100020CF0E94CD231DCF0E94F1231ACF0E94F4
:103E2000CB2317CF8695112311F08C2F8170882317
:103E300009F40FCF4D2F429546954770440F440F1C
:103E40000D2F0F7010E030E020E0042E04C0000FB2
:103E5000111F221F331F0A94D2F760E070E0CB01DC
:103E6000D4FF0FC06FE070E080E090E004C0660F08
:103E7000771F881F991F4A95D2F760957095809596
:103E80009095C695C695C370602B712B822B932B92
:103E9000C23049F058F4C13019F00E94A424D9CEA0
:103EA0000E949224D6CE0E94B624D3CE0E9407242C
:103EB000D0CECF70112329F08C2F0E942D248D2F6E
:103EC00012CF8D2F0E94C11D8C2F0E944E24C1CE77
:103ED000D23F89F160F4D03FC9F0D13F29F11123DD
:103EE00009F442C001119DCE8C2F8F7121C0D33FA8
:103EF00039F1D43FA1F7112369F1CF718C2F0E94C2
:103F00002D2463E08C2F0E945926A3CE112341F06B
:103F1000053008F09ECE8C2F8F710E94712499CEAF
:103F2000063008F096CEF7CF8C2F8F71112369F2EF
:103F30000E942D248ECE8C2F8F711123C9F3C5CFF3
:103F4000112329F08C2F8F710E94182482CE0E9499
:103F500013247FCE81E00E947426023008F479CECB
:103F600082E00E94742675CE002359F0D93309F0FF
:103F7000E9CE8FEF97EEE3E081509040E040E1F72B
:103F8000DFCE8C2F8F71A1CF4C2F4F706D2FC601BC
:103F90000E949E030E9443235CCE4C2F4F706D2FD6
:103FA000C6010E94140655CEDF91CF911F910F914B
:103FB000FF90EF90DF90CF90BF9008950F931F93E5
:103FC000CF93DF93EC01688179818A810E94692512
:103FD0008C010E94C8240E94CA23B801CE01DF913F
:103FE000CF911F910F910C94C81DCF93DF93EC01DB
:103FF0008B819C81892B29F08881998189238F3F2E
:1040000059F4DF91CF910895CE010E94DE1FCE01B9
:10401000DF91CF910C94FF03CE010E94880481119F
:10402000F3CF0E94AB25882361F38A81882349F36B
:1040300082E0DF91CF910C94742690E080E00E94A2
:104040003F1B90E080E00E94551B0E94F3250E94D8
:1040500003260E9423260E94FB0B0C94D40A0E9484
:104060009B250C941D200E94E3250C942F20E92F02
:10407000E295EF70E250EE3070F4F0E0E55EFD4C5A
:104080000C94C430803F19F020F4883E20F481E085
:104090000895843FE1F380E00895883EC0F3813FB6
:1040A000D1F7F5CF93FB882780F908950E945F250B
:1040B0000C943720CF93DF9300D000D00F92CDB770
:1040C000DEB70F900F900F900F900F90DF91CF9170
:1040D0000895CF93DF9300D000D000D0CDB7DEB7E6
:1040E00026960FB6F894DEBF0FBECDBFDF91CF91FD
:1040F00008951F93CF93DF93C0917D0216E08091C6
:104100007E028C1304C0DF91CF911F910895D0E0FF
:104110001C9FF0011D9FF00D1124E158FD4F4081BF
:10412000518162817381848195810E9469202196E9
:10413000C770E5CF4091AF025091B0026091B102DB
:104140007091B2028091B3029091B4020C946920F4
:104150001F93CF93DF938091B402807FA9F4809165
:10416000B102882389F080917D02C0917E02609126
:10417000AF027091B002A091B202B091B302D62FFB
:10418000D72316E0C81304C0DF91CF911F91089583
:1041900090E0109711F0DF3F19F401968770F2CF8D
:1041A000189F9001199F300D1124F901E158FD4F1E
:1041B00041814713F2CF40814613EFCF4281411135
:1041C000ECCF438154814A1B5B0B483C510528F7D7
:1041D0008091B4028F7080618093B402F901EC5732
:1041E000FD4F80818F70806180838FEA92E00E9412
:1041F000F51FDF91CF911F910C947920AF92BF9260
:10420000CF92DF92EF92FF920F931F93CF93DF93A2
:10421000CDB7DEB761970FB6F894DEBF0FBECDBF46
:104220008C0185E0F801DE011D9601900D928A95C2
:10423000E1F7F80140815181E2808FEAC82E82E0E7
:10424000D82E6091B2027091B3026115710509F424
:1042500061C19091AF022091B002892F82238F3FDC
:1042600009F458C1A380B480F090B102F501E61BB7
:10427000F70BFF2009F4FCC08091B402382F307F87
:10428000E83CF10508F0B2C0311179C0FE2C2513CD
:1042900023C0941321C0E1101FC08F7080618093F0
:1042A000B4020E949A20C6010E94F51F8091B402B8
:1042B000F80185838F2D61960FB6F894DEBF0FBE8F
:1042C000CDBFDF91CF911F910F91FF90EF90DF90C5
:1042D000CF90BF90AF900895AB2829F0842F85230D
:1042E0008F3F09F033C180E0F82FF170DF2E80FF9F
:1042F0003CC080917D0220917E0236E0821315C081
:104300004D875E878D859E850E945F25292F22958A
:104310002F702230F0F0243018F59F70F1F0F80182
:104320009581907FD1F4D12C1EC090E0389FF00190
:10433000399FF00D1124E158FD4F6181651306C0CE
:104340006081641303C062816E110FC00196877093
:10435000D5CF9F7011F0882331F3805E883018F339
:10436000C8010E94F51FFD2CA5CFEE2009F4A2CFB5
:104370008091B40281608093B402F12C9BCF25130D
:1043800006C0941304C0F801EE2009F48DC04D87D7
:104390005E878D859E850E945620882319F1EE2028
:1043A00009F18091B402803270F02091AF02309117
:1043B000B00238872F831986BB86AA868C87CE01E8
:1043C00007960E94F51F86E0F801AFEAB2E001907F
:1043D0000D928A95E1F70E94A8200E949A20FF245E
:1043E000F39468CFC8010E94F51FF9CF311113C0B3
:1043F0007A2DB98AA88A6E2D89890E945A208FEA5F
:1044000092E00E94F51F86E0F60111928A95E9F785
:104410000E949A20B2CF25130FC094130DC0E11053
:104420000BC0F8018583C8010E94F51F86E0F601E4
:1044300011928A95E9F73ECF4D875E878D859E85DF
:104440000E945620882371F2EE2061F28091B4021E
:10445000803208F4B8CF2091AF023091B0023A8395
:1044600029831B82BD82AC828E83CE010196A9CFA7
:10447000E83CF10508F041C0FE2CEE2009F4B2CF73
:1044800025132AC0941328C08091B40280FD1BC05C
:10449000982F907FC1F0F8018583903F31F0982FDD
:1044A000907F905F8F70892B8583C8010E94F51FD4
:1044B00086E0F801AFEAB2E001900D928A95E1F74B
:1044C0000E949A20F7CE86E0F801AFEAB2E00190B0
:1044D0000D928A95E1F7EECE4D875E878D859E859C
:1044E0000E94562081116FCF8091B4028160809329
:1044F000B402C8010E94F51FDDCE7A2DB98AA88AC0
:104500006E2D89890E945A2086E0F60111928A95C3
:10451000E9F7D6CFEE2009F465CF4D875E878D850C
:104520009E850E945620F82E882309F45BCF86E0F2
:10453000F801AFEAB2E001900D928A95E1F78FEAB7
:1045400092E00E94AE1C0E94A820BACF81E08E2586
:10455000CBCE1F93CF93DF93CDB7DEB72C970FB69B
:10456000F894DEBF0FBECDBF4F83588769877A8727
:104570008B879C87CE0107960E94FE20882369F0D6
:104580008A859B85892B39F04F815885842F852317
:104590008F3F09F071C016E05FC086E0FE013796DC
:1045A000DE01119601900D928A95E1F78A859B852F
:1045B000892B89F38F81988589238F3F61F320911F
:1045C0007E0230E0C90101968770992740917D02F3
:1045D0004817190671F40E94332010927E0210923F
:1045E0007D0286E0EFEAF2E0DF011D928A95E9F7AD
:1045F000D2CF96E0929FD001939FB00D1124A15885
:10460000BD4FFE01319601900D929A95E1F780938E
:104610007E020E947920BFCF819FC0011124815862
:104620009D4F0E94FE208823E9F0E0917D021E9FAD
:10463000F0011124E158FD4F408151816281738165
:10464000848195810E94692080917D0290E001968D
:104650008770992780937D0280917D0290917E02E0
:104660008913DACF2C960FB6F894DEBF0FBECDBFFC
:10467000DF91CF911F91089569857A858B859C85FF
:104680000E94692088CFEF92FF920F931F93CF93E0
:10469000DF938C01892B81F0F12CEE24E394E80167
:1046A0002196F8018491843770F4843008F05FC05B
:1046B0008130B1F08230A1F1DF91CF911F910F9144
:1046C000FF90EF900895853709F44CC008F43DC081
:1046D0009CE7980F903780F78F770E94451D49C05F
:1046E0000E5F1F4FFE01849190E2980F983060F4A6
:1046F0008770FE2D01C0FF0F8A95EAF78F2F0E9469
:10470000F6250E94232602C00E94B31C8F2D8150E3
:1047100030F2EFE9FFE03197F1F700C00000F7CF8A
:104720000E5F1F4FFE01849190E2980F983050F475
:104730008770FE2D01C0FF0F8A95EAF78F2F0E9428
:10474000FC25DFCF0E94451DE1CF0E5F1F4FFE010C
:10475000C491C150D8F28FE99FE00197F1F700C0F2
:104760000000F7CF0E5F1F4FFE01F490CFCF0E94E5
:10477000B31C8E01CBCF08950C94BB230E94BC23A5
:104780006093EB027093EC028093ED029093EE0243
:104790000C941D2008950C94BE230F931F93009139
:1047A000EB021091EC022091ED023091EE02602BB1
:1047B000712B822B932B1F910F910C94BE230F937F
:1047C0001F930091EB021091EC022091ED023091C9
:1047D000EE0260237123822393231F910F910C9487
:1047E000BE230F931F930091EB021091EC022091D6
:1047F000ED023091EE0260277127822793271F91E7
:104800000F910C94BE230C94BB230C9403240E94A0
:1048100005246093E7027093E8028093E902909385
:10482000EA020C941D2060E070E0CB010C94072498
:104830000F931F9341E050E060E070E08A019B011C
:1048400004C0000F111F221F331F8A95D2F7C90120
:10485000B8011F910F910C9407240F931F9341E00F
:1048600050E060E070E004C0440F551F661F771FE2
:104870008A95D2F78091E7029091E802A091E9022F
:10488000B091EA028A019B01082B192B2A2B3B2BA2
:10489000C901B8011F910F910C9407240F931F9326
:1048A00041E050E060E070E004C0440F551F661F17
:1048B000771F8A95D2F7CB01BA01609570958095E4
:1048C00090950091E7021091E8022091E902309161
:1048D000EA0260237123822393231F910F910C948A
:1048E00007240F931F9341E050E060E070E004C0A4
:1048F000440F551F661F771F8A95D2F78091E702F4
:104900009091E802A091E902B091EA028A019B012C
:10491000082719272A273B27C901B8011F910F91A2
:104920000C9407240F931F930091E7021091E80263
:104930002091E9023091EA02602B712B822B932B9C
:104940001F910F910C9407240F931F930091E7027E
:104950001091E8022091E9023091EA02602371236C
:10496000822393231F910F910C9407240F931F937D
:104970000091E7021091E8022091E9023091EA02E9
:1049800060277127822793271F910F910C9407248A
:1049900008952FE0929F800D1124982F977041E089
:1049A00001C0440F9A95EAF786958695869595E01D
:1049B000899FF0011124EB54FD4F90E080E070E0FE
:1049C0005191DF0111979B01082E02C03695279562
:1049D0000A94E2F7217021952527242325272C937B
:1049E00001968530910561F708952FE0929F800D23
:1049F0001124982F977086958695869525E0829F3D
:104A0000F0011124EB54FD4F50E040E080E0219193
:104A100030E0092E02C0369527950A94E2F72170FE
:104A20003327042E01C0220F0A94EAF7822B4F5F2E
:104A30005F4F4530510559F70895BF92CF92DF92ED
:104A4000EF92FF920F931F93CF93DF938C01C0904F
:104A5000E702D090E802E090E902F090EA0280914B
:104A6000EB029091EC02A091ED02B091EE02C82A07
:104A7000D92AEA2AFB2ACFE1D0E0BC2ED701C60111
:104A80000C2E04C0B695A795979587950A94D2F7F2
:104A900080FD0EC0219788F7B12C8B2DDF91CF912F
:104AA0001F910F91FF90EF90DF90CF90BF900895EE
:104AB000B8018C2F0E941D06019761F3EECFCF93B2
:104AC000DF93EC010E941D25BE01DF91CF910C9474
:104AD0001D061F93CF93DF93EB0190917C029923E6
:104AE00031F0CB01DF91CF911F910C945F2588238A
:104AF00079F0CB010E941D25182F682FCE010E944E
:104B0000C924BE01812FDF91CF911F910C941D0606
:104B1000CB010E94F524182FF4CF682F80918D01CE
:104B200090918E010C94D827682F80918D019091DF
:104B30008E010C94E32780918D0190918E010C944D
:104B4000EE278091EF028595859585950895809152
:104B5000EF02877008959091EF02977081E009F459
:104B600080E0089590913A0392FB222720F92817BC
:104B700051F080FB92F990933A0380913903909120
:104B80003A030C94B926089580913A0382FB882752
:104B900080F991E089270C94B22581E00C94B2252C
:104BA00080E00C94B2258091130308959091130333
:104BB000892B809313030895809590911303982374
:104BC0009093130308951092130308959091120384
:104BD000892B809312030895809590911203982356
:104BE0009093120308951092120308959091110367
:104BF000892B809311030895809590911103982338
:104C00009093110308951092110308958091F0027A
:104C1000089508950C94092690913A0392FD08C0D6
:104C20009091F002981721F08093F0020C940A26DC
:104C300008958091F002882329F01092F00280E01C
:104C40000C940A260895E0918D01F0918E018091D7
:104C500013038083E0918D01F0918E01808190910A
:104C60001203892B8083E0918D01F0918E01808168
:104C700090911103892B80839091F002992381F008
:104C8000E0918D01F0918E018081892B808380914C
:104C90008D0190918E010E94442781110E94192656
:104CA00080918D0190918E010C94171B08950C94A6
:104CB000562690913A0392FD10C098E0899F90018A
:104CC0001124622B6093EF020E942D248091EF0249
:104CD0008595859585950C9457260C942D241092D6
:104CE000EF0280E00C9457269091EF028095892383
:104CF0008093EF02282F277039F4282F082E000CFC
:104D0000330B9217130621F490913A0392FF07C0D8
:104D10008595859585950E944E240C946F2608955F
:104D200080E008956FEF7FEF90E080E00C947931A0
:104D300090E080E00E94453121E08A3E9E4F09F0DC
:104D400020E0822F089582E090E00C943D3183E0D2
:104D500090E00C943D31CF9384E090E00E943D318F
:104D6000C82F82E290E00E943D31982F8C2FCF9186
:104D70000895CF93C92F682F84E090E00E945B31A3
:104D80006C2F82E290E0CF910C945B31AB01BC01BF
:104D90008FE090E00C946D31AB01BC0183E190E0B9
:104DA0000C946D3160E070E0CB010C94CC2660E097
:104DB00070E0CB010E94C6260C94D2266AEE7EEFEC
:104DC00090E080E00E94793160E082E090E00E9413
:104DD0005B3160E083E090E00E945B311092EB0277
:104DE0001092EC021092ED021092EE0260E084E06C
:104DF00090E00E945B3160E082E290E00E945B31D3
:104E000060E085E090E00E945B3160E086E090E049
:104E10000E945B316FEF87E090E00E945B3140E0E1
:104E200050E0BA0188E090E00E946D3160E08DE0D2
:104E300090E00E945B3140E050E0BA0188E190E0F0
:104E40000E946D3160E087E190E00E945B3140E0BC
:104E500050E0BA018CE190E00E946D3170E060E0BA
:104E600080E290E00E94793140E050E0BA0188E1B0
:104E700090E00E946D310C94D7260C94DE26682FAA
:104E80008EE090E00C945B31FC01329680919901A8
:104E9000882321F0809139039EE187FF96E080E02E
:104EA000915008F4089521912223D1F38F5FF8CF18
:104EB000662301F1209199012223F1F02091390319
:104EC00027FF1AC0462F4695469546954E3190F4D9
:104ED000677021E030E002C0220F331F6A95E2F7CD
:104EE000840F911DFC01828190E02823392381E009
:104EF000232B69F480E00895FC01329608962191F5
:104F0000261721F0E817F907D1F7F4CF81E00895CB
:104F10009C01FC0132969FEF80E04191461751F0D1
:104F20009F3F19F4411101C0982F8F5F8630A9F778
:104F30009F3F09F40895290F311D97FD3A95F90116
:104F400062830895FC01329608962191261303C0CE
:104F5000DF0111971C92E817F907B9F70895E62FBA
:104F6000E695E695E695EE3168F4E80FF92FF11D28
:104F7000677021E030E001C0220F6A95EAF7828174
:104F8000822B82830895E62FE695E695E695EE312D
:104F900070F4E80FF92FF11D677021E030E001C0D7
:104FA000220F6A95EAF720958281282322830895AB
:104FB00020919901222329F02091390327FD0C9497
:104FC000AF270C94882720919901222329F0209162
:104FD000390327FD0C94C3270C94A227FC013296B9
:104FE00080919901882351F08091390387FF06C091
:104FF0008EE1DF011D928A95E9F7089586E0F9CFE9
:10500000089508950C94012880919103843011F043
:105010000C94022808950895CF930E9400280E94BE
:10502000C4080E940B28C0E08C2F0E944D08892BD9
:1050300031F4CF5FC530C1F780E0CF91089581E0B2
:10504000FCCF08950C9421280E9433200E940B1B52
:105050000E940C0680E00E9404140C94222882E036
:1050600084BD93E095BD9AEF97BD80936E0008953F
:105070002FB7F8948091890390918A03A0918B03B4
:10508000B0918C032FBF08952FB7F89460918903D6
:1050900070918A0380918B0390918C032FBF0895A8
:1050A0009C014FB7F8948091890390918A03A09155
:1050B0008B03B0918C034FBF821B930B0895CF924B
:1050C000DF92EF92FF922FB7F894C0908903D090AF
:1050D0008A03E0908B03F0908C032FBFA701960109
:1050E000261B370B480B590BCA01B901FF90EF90F3
:1050F000DF90CF90089578941F921FB61F921124CD
:105100008F939F93AF93BF938091890390918A036C
:10511000A0918B03B0918C030196A11DB11D8093CA
:10512000890390938A03A0938B03B0938C03BF9160
:10513000AF919F918F911F901FBE1F90189581E096
:105140008093E00080E28093D8001092C9008FE144
:105150009EE40197F1F700C0000087E090EBDC01CE
:1051600080939A0390939B03A0939C03B0939D0319
:1051700088E19CE00FB6F894A895809360000FBE7C
:1051800090936000FFCF9093430280934202089572
:10519000E1E8F0E0808188608083808181608083A5
:1051A0008FB7F89420ED33E0309389002093880086
:1051B0008FBF0895EFE6F0E08081826080830895DC
:1051C000EFE6F0E080818D7F808308951F920F923B
:1051D0000FB60F9211242F933F934F935F936F93CA
:1051E0007F938F939F93AF93BF93EF93FF938091A0
:1051F000150390911603019690931603809315035F
:10520000811103C082E00E940C06E0911603E6952E
:10521000E695F0E0EC54FB4FE491809115038E137A
:1052200003C080E00E940C06FF91EF91BF91AF9107
:105230009F918F917F916F915F914F913F912F91AE
:105240000F900FBE0F901F9018958091370308950F
:10525000CF93DF9300D00F92CDB7DEB7909191033B
:10526000943011F589837B836A839093E9008FEFF3
:105270009091E800815095FD06C095ED9A95F1F763
:1052800000008111F5CF8091E80085FF0DC050E04E
:1052900040E063E070E0CE0101960E94BC2B80915B
:1052A000E8008E778093E8000F900F900F90DF91C9
:1052B000CF910895BC0184E00C942829BC0183E0BF
:1052C0000C9428299C0184E08093E9009FEF809151
:1052D000E800915085FD06C085ED8A95F1F7000044
:1052E0009111F5CF8091E80085FF0CC050E040E0BF
:1052F00066E070E0C9010E94BC2B8091E8008E77C7
:105300008093E8000895CF93DF93EC018091990199
:105310008823B1F18091390387FF32C060E284E0D5
:105320008093E9008FEF9091E800815095FD06C0D1
:1053300095ED9A95F1F700008111F5CF8091E80085
:1053400085FF1BC08091990170E050E040E0811121
:1053500004C050E040E068E070E0CE010E94BC2B49
:105360008091E8008E778093E80080E2FE01A7E15B
:10537000B3E001900D928A95E1F7DF91CF91089506
:1053800068E081E0CDCFCF93FC01603221F58091C0
:105390009103843001F5C091E900CF702091EC00B9
:1053A000922F917020FD90E8C92B82E08093E90054
:1053B0008091E80080FF0CC050E040E060E270E0C7
:1053C000CF010E94BC2B8091E8008E778093E8008B
:1053D000CF70C093E900CF9108958091900381111F
:1053E00009C00E949B2D0E94F82D8091E2008460EC
:1053F0008093E200089510929003089508950C940C
:10540000DA280E94E0280E940B1B0C940C0642E054
:1054100061EC81E00E94172D42E261EC84E00E9481
:10542000172D42E261EC82E00E94172D42E260EC0F
:1054300083E00C94172D80919303833009F461C0AD
:1054400030F48130D1F1823009F49DC008958A3062
:1054500009F489C08B3009F46FC0893009F050C05D
:1054600080919203813209F04BC080919603909114
:105470009703009719F0029709F042C08091E80065
:10548000877F8093E8008091E80082FF35C090918B
:10549000F3008091F200029729F48091F1008B7F54
:1054A000813021F48091F100809337038091E800EE
:1054B0008B778093E8000C944B2D80919203813A76
:1054C000F9F48091E800877F8093E800809196034B
:1054D00090919703892B61F460E287E193E070E09B
:1054E0000E945A2C8091E8008B778093E800089501
:1054F00060E090E080E0F3CF809191038111C3CF11
:10550000089580919203813AD9F780919603909102
:105510009703892BA9F78091E800877F8093E800A3
:105520008091E80080FFFCCF809199018093F10089
:105530008091E8008E77BDCF80919203813201F790
:105540008091960390919703892BD1F68091E80082
:10555000877F8093E8000E944B2D80919403809375
:1055600099010C94332080919203813249F6809105
:10557000E800877F8093E8000E944B2D809195037F
:1055800080933803089580919203813A09F0B8CF4F
:105590008091E800877F8093E8008091E80080FF99
:1055A000FCCF80913803C2CFCDB7DEB7A0970FB63E
:1055B000F894DEBF0FBECDBF84B7877F84BF0FB620
:1055C000F894A895809160008861809360001092A3
:1055D00060000FBE80E890E00FB6F8948093610001
:1055E000909361000FBE0E949F1B0E949B2D0E9402
:1055F000F82D8091E20084608093E20078940E940C
:1056000081300E94B31B8FE891E00E94061B0E942C
:10561000C82813E0809191038530B9F00E94BD1B2A
:10562000809191038430C1F00E94AF1BF3CF0E94A0
:10563000042880918F03882341F00E940C2888233E
:1056400021F00E94A62B0E94332080919103853087
:1056500071F30E942428E2CF1093E9008091E800C2
:1056600082FFE2CF8091E80090E085FF09C050E022
:1056700040E060E270E0CE0101960E940B2C91E0C8
:105680008091E8008B778093E800992369F260E2CB
:10569000CE0101960E94B416C7CF0C944F2B292F30
:1056A00033272330310521F168F42130310509F425
:1056B00043C02230310509F444C090E080E030E07E
:1056C00020E026C02132310551F122323105A9F7FF
:1056D0006330710590F7FB01EE0FFF1FEA5CFD4F91
:1056E000208131816D5C7D4FFB01808190E010C095
:1056F00099278130910581F0009729F00297E9F60A
:10570000E4EFF4E002C0E4E1F5E0849190E09F0171
:10571000FA01318320830895E0E0F5E0F6CF6330AD
:10572000710558F6660F771FFB01E45CFD4F208181
:10573000318189E090E0ECCF82E190E023E735E031
:10574000E7CF8BE590E028E135E0E2CF80E189BD4D
:1057500082E189BD09B400FEFDCF8091D8008F7D24
:105760008093D8008091E00082608093E000809177
:10577000E00081FDFCCF0895AF92BF92CF92DF92FF
:10578000FF920F931F93CF93DF936C01EB018A017C
:105790000E946A2DF82E811123C00115110539F0E0
:1057A000F80180819181C81BD90BC80ED91EB12C7C
:1057B000A12C2097A9F08091E80085FD22C080915E
:1057C000E8008E778093E80001151105A1F0F8013B
:1057D00080819181A80EB91EB182A08285E0F82E49
:1057E0008F2DDF91CF911F910F91FF90DF90CF9080
:1057F000BF90AF9008950E946A2D8823D1F2F82EB1
:10580000EFCFF60181916F018093F1002197FFEFB7
:10581000AF1ABF0ACECFAF92BF92CF92DF92FF9264
:105820000F931F93CF93DF936C01EB018A010E94CA
:105830006A2DF82E811123C00115110539F0F801E8
:1058400080819181C81BD90BC80ED91EB12CA12C07
:105850002097A9F08091E80085FD22C08091E800A2
:105860008B778093E80001151105A1F0F801808184
:105870009181A80EB91EB182A08285E0F82E8F2DED
:10588000DF91CF911F910F91FF90DF90CF90BF904C
:10589000AF9008950E946A2D8823D1F2F82EEFCFA1
:1058A0008091F100F60181936F012197FFEFAF1A0C
:1058B000BF0ACECFFC01809198039091990386177F
:1058C0009707A0F06115710529F49091E8009E7783
:1058D0009093E80090E06115710551F4911108C0B2
:1058E0008091E80082FF34C080E00895BC01F2CFCF
:1058F000809191038823C1F18530C1F18091E80046
:1059000083FD30C08091E80082FDEACF8091E800FD
:1059100080FFE1CF8091F3002091F200382F6115D4
:10592000710519F02830310558F091E02830310523
:1059300009F090E02091E8002E772093E800CBCF8B
:1059400081918093F100615071092F5F3F4FE7CF44
:1059500080919103882341F0853041F08091E800E7
:1059600083FFBECF81E0089582E0089583E008952B
:10597000FC01809198039091990386179707A0F0F6
:105980006115710529F48091E8008E778093E80015
:1059900090E06115710551F4911108C08091E80003
:1059A00082FF35C080E00895BC01F2CF8091910361
:1059B0008823C9F18530C9F18091E80083FD31C0A9
:1059C0008091E80082FDEACF8091E80080FFE1CF7E
:1059D0008091F3002091F200382F6115710519F0C4
:1059E0002830310558F091E02830310509F090E079
:1059F0008091E8008E778093E800CBCF84918093EC
:105A0000F1003196615071092F5F3F4FE6CF8091D1
:105A10009103882341F0853041F08091E80083FFB5
:105A2000BDCF81E0089582E0089583E00895982F26
:105A3000973028F08F708093E90081E0089590936B
:105A4000E900242F762F50E0981731F07091EC0088
:105A50002091ED005091F00021FD02C09F5FE8CF42
:105A60003091EB003E7F3093EB003091ED003D7FB5
:105A70003093ED003091EB0031603093EB00709388
:105A8000EC002093ED005093F0002091EE0027FDF4
:105A9000E5CF80E008958091920387FF13C0809145
:105AA000E80082FF06C08091E8008B778093E800D1
:105AB00004C0809191038111F2CF089580919103E8
:105AC0008823D9F38091E80080FFF8CF8091E80027
:105AD0008E77ECCF2091E4003091E50095E6A901A6
